{
	"p2.sol": {
		"arrr": {
			"abi": [
				{
					"inputs": [
						{
							"internalType": "uint256",
							"name": "roll",
							"type": "uint256"
						},
						{
							"internalType": "string",
							"name": "namee",
							"type": "string"
						}
					],
					"name": "add",
					"outputs": [],
					"stateMutability": "nonpayable",
					"type": "function"
				},
				{
					"inputs": [
						{
							"internalType": "uint256",
							"name": "count",
							"type": "uint256"
						}
					],
					"name": "getalldata",
					"outputs": [
						{
							"components": [
								{
									"internalType": "uint256",
									"name": "roll",
									"type": "uint256"
								},
								{
									"internalType": "string",
									"name": "name",
									"type": "string"
								}
							],
							"internalType": "struct arrr.data[]",
							"name": "",
							"type": "tuple[]"
						}
					],
					"stateMutability": "view",
					"type": "function"
				},
				{
					"inputs": [
						{
							"internalType": "uint256",
							"name": "",
							"type": "uint256"
						}
					],
					"name": "getdata",
					"outputs": [
						{
							"internalType": "uint256",
							"name": "roll",
							"type": "uint256"
						},
						{
							"internalType": "string",
							"name": "name",
							"type": "string"
						}
					],
					"stateMutability": "view",
					"type": "function"
				}
			],
			"devdoc": {
				"kind": "dev",
				"methods": {},
				"version": 1
			},
			"evm": {
				"assembly": "    /* \"p2.sol\":72:4024  contract arrr{... */\n  mstore(0x40, 0x80)\n  callvalue\n  dup1\n  iszero\n  tag_1\n  jumpi\n  0x00\n  dup1\n  revert\ntag_1:\n  pop\n  dataSize(sub_0)\n  dup1\n  dataOffset(sub_0)\n  0x00\n  codecopy\n  0x00\n  return\nstop\n\nsub_0: assembly {\n        /* \"p2.sol\":72:4024  contract arrr{... */\n      mstore(0x40, 0x80)\n      callvalue\n      dup1\n      iszero\n      tag_1\n      jumpi\n      0x00\n      dup1\n      revert\n    tag_1:\n      pop\n      jumpi(tag_2, lt(calldatasize, 0x04))\n      shr(0xe0, calldataload(0x00))\n      dup1\n      0x0ad2b739\n      eq\n      tag_3\n      jumpi\n      dup1\n      0x0b5379dd\n      eq\n      tag_4\n      jumpi\n      dup1\n      0x7230bce8\n      eq\n      tag_5\n      jumpi\n    tag_2:\n      0x00\n      dup1\n      revert\n        /* \"p2.sol\":3535:3570  mapping(uint =>data) public getdata */\n    tag_3:\n      tag_6\n      0x04\n      dup1\n      calldatasize\n      sub\n      dup2\n      add\n      swap1\n      tag_7\n      swap2\n      swap1\n      tag_8\n      jump\t// in\n    tag_7:\n      tag_9\n      jump\t// in\n    tag_6:\n      mload(0x40)\n      tag_10\n      swap3\n      swap2\n      swap1\n      tag_11\n      jump\t// in\n    tag_10:\n      mload(0x40)\n      dup1\n      swap2\n      sub\n      swap1\n      return\n        /* \"p2.sol\":3686:4021  function getalldata(uint count) public view returns(data[] memory){... */\n    tag_4:\n      tag_12\n      0x04\n      dup1\n      calldatasize\n      sub\n      dup2\n      add\n      swap1\n      tag_13\n      swap2\n      swap1\n      tag_8\n      jump\t// in\n    tag_13:\n      tag_14\n      jump\t// in\n    tag_12:\n      mload(0x40)\n      tag_15\n      swap2\n      swap1\n      tag_16\n      jump\t// in\n    tag_15:\n      mload(0x40)\n      dup1\n      swap2\n      sub\n      swap1\n      return\n        /* \"p2.sol\":3577:3678  function add(uint roll, string memory namee) public {... */\n    tag_5:\n      tag_17\n      0x04\n      dup1\n      calldatasize\n      sub\n      dup2\n      add\n      swap1\n      tag_18\n      swap2\n      swap1\n      tag_19\n      jump\t// in\n    tag_18:\n      tag_20\n      jump\t// in\n    tag_17:\n      stop\n        /* \"p2.sol\":3535:3570  mapping(uint =>data) public getdata */\n    tag_9:\n      mstore(0x20, 0x01)\n      dup1\n      0x00\n      mstore\n      keccak256(0x00, 0x40)\n      0x00\n      swap2\n      pop\n      swap1\n      pop\n      dup1\n      0x00\n      add\n      sload\n      swap1\n      dup1\n      0x01\n      add\n      dup1\n      sload\n      tag_21\n      swap1\n      tag_22\n      jump\t// in\n    tag_21:\n      dup1\n      0x1f\n      add\n      0x20\n      dup1\n      swap2\n      div\n      mul\n      0x20\n      add\n      mload(0x40)\n      swap1\n      dup2\n      add\n      0x40\n      mstore\n      dup1\n      swap3\n      swap2\n      swap1\n      dup2\n      dup2\n      mstore\n      0x20\n      add\n      dup3\n      dup1\n      sload\n      tag_23\n      swap1\n      tag_22\n      jump\t// in\n    tag_23:\n      dup1\n      iszero\n      tag_24\n      jumpi\n      dup1\n      0x1f\n      lt\n      tag_25\n      jumpi\n      0x0100\n      dup1\n      dup4\n      sload\n      div\n      mul\n      dup4\n      mstore\n      swap2\n      0x20\n      add\n      swap2\n      jump(tag_24)\n    tag_25:\n      dup3\n      add\n      swap2\n      swap1\n      0x00\n      mstore\n      keccak256(0x00, 0x20)\n      swap1\n    tag_26:\n      dup2\n      sload\n      dup2\n      mstore\n      swap1\n      0x01\n      add\n      swap1\n      0x20\n      add\n      dup1\n      dup4\n      gt\n      tag_26\n      jumpi\n      dup3\n      swap1\n      sub\n      0x1f\n      and\n      dup3\n      add\n      swap2\n    tag_24:\n      pop\n      pop\n      pop\n      pop\n      pop\n      swap1\n      pop\n      dup3\n      jump\t// out\n        /* \"p2.sol\":3686:4021  function getalldata(uint count) public view returns(data[] memory){... */\n    tag_14:\n        /* \"p2.sol\":3738:3751  data[] memory */\n      0x60\n        /* \"p2.sol\":3763:3782  data[] memory _data */\n      0x00\n        /* \"p2.sol\":3795:3800  count */\n      dup3\n        /* \"p2.sol\":3784:3801  new data[](count) */\n      0xffffffffffffffff\n      dup2\n      gt\n      iszero\n      tag_28\n      jumpi\n      tag_29\n      tag_30\n      jump\t// in\n    tag_29:\n    tag_28:\n      mload(0x40)\n      swap1\n      dup1\n      dup3\n      mstore\n      dup1\n      0x20\n      mul\n      0x20\n      add\n      dup3\n      add\n      0x40\n      mstore\n      dup1\n      iszero\n      tag_31\n      jumpi\n      dup2\n      0x20\n      add\n    tag_32:\n      tag_33\n      tag_34\n      jump\t// in\n    tag_33:\n      dup2\n      mstore\n      0x20\n      add\n      swap1\n      0x01\n      swap1\n      sub\n      swap1\n      dup2\n      tag_32\n      jumpi\n      swap1\n      pop\n    tag_31:\n      pop\n        /* \"p2.sol\":3763:3801  data[] memory _data= new data[](count) */\n      swap1\n      pop\n        /* \"p2.sol\":3812:3818  uint j */\n      0x00\n        /* \"p2.sol\":3833:3839  uint i */\n      dup1\n        /* \"p2.sol\":3840:3842  id */\n      sload(0x00)\n        /* \"p2.sol\":3833:3842  uint i=id */\n      swap1\n      pop\n        /* \"p2.sol\":3829:3991  for(uint i=id;i<id;i++){... */\n    tag_35:\n        /* \"p2.sol\":3845:3847  id */\n      sload(0x00)\n        /* \"p2.sol\":3843:3844  i */\n      dup2\n        /* \"p2.sol\":3843:3847  i<id */\n      lt\n        /* \"p2.sol\":3829:3991  for(uint i=id;i<id;i++){... */\n      iszero\n      tag_36\n      jumpi\n        /* \"p2.sol\":3867:3890  data storage  structure */\n      0x00\n        /* \"p2.sol\":3892:3899  getdata */\n      0x01\n        /* \"p2.sol\":3892:3902  getdata[i] */\n      0x00\n        /* \"p2.sol\":3900:3901  i */\n      dup4\n        /* \"p2.sol\":3892:3902  getdata[i] */\n      dup2\n      mstore\n      0x20\n      add\n      swap1\n      dup2\n      mstore\n      0x20\n      add\n      0x00\n      keccak256\n        /* \"p2.sol\":3867:3902  data storage  structure= getdata[i] */\n      swap1\n      pop\n        /* \"p2.sol\":3926:3961  data(structure.roll,structure.name) */\n      mload(0x40)\n      dup1\n      0x40\n      add\n      0x40\n      mstore\n      dup1\n        /* \"p2.sol\":3931:3940  structure */\n      dup3\n        /* \"p2.sol\":3931:3945  structure.roll */\n      0x00\n      add\n      sload\n        /* \"p2.sol\":3926:3961  data(structure.roll,structure.name) */\n      dup2\n      mstore\n      0x20\n      add\n        /* \"p2.sol\":3946:3955  structure */\n      dup3\n        /* \"p2.sol\":3946:3960  structure.name */\n      0x01\n      add\n        /* \"p2.sol\":3926:3961  data(structure.roll,structure.name) */\n      dup1\n      sload\n      tag_38\n      swap1\n      tag_22\n      jump\t// in\n    tag_38:\n      dup1\n      0x1f\n      add\n      0x20\n      dup1\n      swap2\n      div\n      mul\n      0x20\n      add\n      mload(0x40)\n      swap1\n      dup2\n      add\n      0x40\n      mstore\n      dup1\n      swap3\n      swap2\n      swap1\n      dup2\n      dup2\n      mstore\n      0x20\n      add\n      dup3\n      dup1\n      sload\n      tag_39\n      swap1\n      tag_22\n      jump\t// in\n    tag_39:\n      dup1\n      iszero\n      tag_40\n      jumpi\n      dup1\n      0x1f\n      lt\n      tag_41\n      jumpi\n      0x0100\n      dup1\n      dup4\n      sload\n      div\n      mul\n      dup4\n      mstore\n      swap2\n      0x20\n      add\n      swap2\n      jump(tag_40)\n    tag_41:\n      dup3\n      add\n      swap2\n      swap1\n      0x00\n      mstore\n      keccak256(0x00, 0x20)\n      swap1\n    tag_42:\n      dup2\n      sload\n      dup2\n      mstore\n      swap1\n      0x01\n      add\n      swap1\n      0x20\n      add\n      dup1\n      dup4\n      gt\n      tag_42\n      jumpi\n      dup3\n      swap1\n      sub\n      0x1f\n      and\n      dup3\n      add\n      swap2\n    tag_40:\n      pop\n      pop\n      pop\n      pop\n      pop\n      dup2\n      mstore\n      pop\n        /* \"p2.sol\":3917:3922  _data */\n      dup5\n        /* \"p2.sol\":3923:3924  j */\n      dup5\n        /* \"p2.sol\":3917:3925  _data[j] */\n      dup2\n      mload\n      dup2\n      lt\n      tag_43\n      jumpi\n      tag_44\n      tag_45\n      jump\t// in\n    tag_44:\n    tag_43:\n      0x20\n      mul\n      0x20\n      add\n      add\n        /* \"p2.sol\":3917:3961  _data[j]=data(structure.roll,structure.name) */\n      dup2\n      swap1\n      mstore\n      pop\n        /* \"p2.sol\":3976:3979  j++ */\n      dup3\n      dup1\n      tag_46\n      swap1\n      tag_47\n      jump\t// in\n    tag_46:\n      swap4\n      pop\n      pop\n        /* \"p2.sol\":3852:3991  {... */\n      pop\n        /* \"p2.sol\":3848:3851  i++ */\n      dup1\n      dup1\n      tag_48\n      swap1\n      tag_47\n      jump\t// in\n    tag_48:\n      swap2\n      pop\n      pop\n        /* \"p2.sol\":3829:3991  for(uint i=id;i<id;i++){... */\n      jump(tag_35)\n    tag_36:\n      pop\n        /* \"p2.sol\":4008:4013  _data */\n      dup2\n        /* \"p2.sol\":4001:4013  return _data */\n      swap3\n      pop\n      pop\n      pop\n        /* \"p2.sol\":3686:4021  function getalldata(uint count) public view returns(data[] memory){... */\n      swap2\n      swap1\n      pop\n      jump\t// out\n        /* \"p2.sol\":3577:3678  function add(uint roll, string memory namee) public {... */\n    tag_20:\n        /* \"p2.sol\":3652:3668  data(roll,namee) */\n      mload(0x40)\n      dup1\n      0x40\n      add\n      0x40\n      mstore\n      dup1\n        /* \"p2.sol\":3657:3661  roll */\n      dup4\n        /* \"p2.sol\":3652:3668  data(roll,namee) */\n      dup2\n      mstore\n      0x20\n      add\n        /* \"p2.sol\":3662:3667  namee */\n      dup3\n        /* \"p2.sol\":3652:3668  data(roll,namee) */\n      dup2\n      mstore\n      pop\n        /* \"p2.sol\":3640:3647  getdata */\n      0x01\n        /* \"p2.sol\":3640:3651  getdata[id] */\n      0x00\n        /* \"p2.sol\":3648:3650  id */\n      dup1\n      sload\n        /* \"p2.sol\":3640:3651  getdata[id] */\n      dup2\n      mstore\n      0x20\n      add\n      swap1\n      dup2\n      mstore\n      0x20\n      add\n      0x00\n      keccak256\n        /* \"p2.sol\":3640:3668  getdata[id]=data(roll,namee) */\n      0x00\n      dup3\n      add\n      mload\n      dup2\n      0x00\n      add\n      sstore\n      0x20\n      dup3\n      add\n      mload\n      dup2\n      0x01\n      add\n      swap1\n      dup2\n      tag_50\n      swap2\n      swap1\n      tag_51\n      jump\t// in\n    tag_50:\n      pop\n      swap1\n      pop\n      pop\n        /* \"p2.sol\":3577:3678  function add(uint roll, string memory namee) public {... */\n      pop\n      pop\n      jump\t// out\n    tag_34:\n      mload(0x40)\n      dup1\n      0x40\n      add\n      0x40\n      mstore\n      dup1\n      0x00\n      dup2\n      mstore\n      0x20\n      add\n      0x60\n      dup2\n      mstore\n      pop\n      swap1\n      jump\t// out\n        /* \"#utility.yul\":7:82   */\n    tag_52:\n        /* \"#utility.yul\":40:46   */\n      0x00\n        /* \"#utility.yul\":73:75   */\n      0x40\n        /* \"#utility.yul\":67:76   */\n      mload\n        /* \"#utility.yul\":57:76   */\n      swap1\n      pop\n        /* \"#utility.yul\":7:82   */\n      swap1\n      jump\t// out\n        /* \"#utility.yul\":88:205   */\n    tag_53:\n        /* \"#utility.yul\":197:198   */\n      0x00\n        /* \"#utility.yul\":194:195   */\n      dup1\n        /* \"#utility.yul\":187:199   */\n      revert\n        /* \"#utility.yul\":211:328   */\n    tag_54:\n        /* \"#utility.yul\":320:321   */\n      0x00\n        /* \"#utility.yul\":317:318   */\n      dup1\n        /* \"#utility.yul\":310:322   */\n      revert\n        /* \"#utility.yul\":334:411   */\n    tag_55:\n        /* \"#utility.yul\":371:378   */\n      0x00\n        /* \"#utility.yul\":400:405   */\n      dup2\n        /* \"#utility.yul\":389:405   */\n      swap1\n      pop\n        /* \"#utility.yul\":334:411   */\n      swap2\n      swap1\n      pop\n      jump\t// out\n        /* \"#utility.yul\":417:539   */\n    tag_56:\n        /* \"#utility.yul\":490:514   */\n      tag_105\n        /* \"#utility.yul\":508:513   */\n      dup2\n        /* \"#utility.yul\":490:514   */\n      tag_55\n      jump\t// in\n    tag_105:\n        /* \"#utility.yul\":483:488   */\n      dup2\n        /* \"#utility.yul\":480:515   */\n      eq\n        /* \"#utility.yul\":470:533   */\n      tag_106\n      jumpi\n        /* \"#utility.yul\":529:530   */\n      0x00\n        /* \"#utility.yul\":526:527   */\n      dup1\n        /* \"#utility.yul\":519:531   */\n      revert\n        /* \"#utility.yul\":470:533   */\n    tag_106:\n        /* \"#utility.yul\":417:539   */\n      pop\n      jump\t// out\n        /* \"#utility.yul\":545:684   */\n    tag_57:\n        /* \"#utility.yul\":591:596   */\n      0x00\n        /* \"#utility.yul\":629:635   */\n      dup2\n        /* \"#utility.yul\":616:636   */\n      calldataload\n        /* \"#utility.yul\":607:636   */\n      swap1\n      pop\n        /* \"#utility.yul\":645:678   */\n      tag_108\n        /* \"#utility.yul\":672:677   */\n      dup2\n        /* \"#utility.yul\":645:678   */\n      tag_56\n      jump\t// in\n    tag_108:\n        /* \"#utility.yul\":545:684   */\n      swap3\n      swap2\n      pop\n      pop\n      jump\t// out\n        /* \"#utility.yul\":690:1019   */\n    tag_8:\n        /* \"#utility.yul\":749:755   */\n      0x00\n        /* \"#utility.yul\":798:800   */\n      0x20\n        /* \"#utility.yul\":786:795   */\n      dup3\n        /* \"#utility.yul\":777:784   */\n      dup5\n        /* \"#utility.yul\":773:796   */\n      sub\n        /* \"#utility.yul\":769:801   */\n      slt\n        /* \"#utility.yul\":766:885   */\n      iszero\n      tag_110\n      jumpi\n        /* \"#utility.yul\":804:883   */\n      tag_111\n      tag_53\n      jump\t// in\n    tag_111:\n        /* \"#utility.yul\":766:885   */\n    tag_110:\n        /* \"#utility.yul\":924:925   */\n      0x00\n        /* \"#utility.yul\":949:1002   */\n      tag_112\n        /* \"#utility.yul\":994:1001   */\n      dup5\n        /* \"#utility.yul\":985:991   */\n      dup3\n        /* \"#utility.yul\":974:983   */\n      dup6\n        /* \"#utility.yul\":970:992   */\n      add\n        /* \"#utility.yul\":949:1002   */\n      tag_57\n      jump\t// in\n    tag_112:\n        /* \"#utility.yul\":939:1002   */\n      swap2\n      pop\n        /* \"#utility.yul\":895:1012   */\n      pop\n        /* \"#utility.yul\":690:1019   */\n      swap3\n      swap2\n      pop\n      pop\n      jump\t// out\n        /* \"#utility.yul\":1025:1143   */\n    tag_58:\n        /* \"#utility.yul\":1112:1136   */\n      tag_114\n        /* \"#utility.yul\":1130:1135   */\n      dup2\n        /* \"#utility.yul\":1112:1136   */\n      tag_55\n      jump\t// in\n    tag_114:\n        /* \"#utility.yul\":1107:1110   */\n      dup3\n        /* \"#utility.yul\":1100:1137   */\n      mstore\n        /* \"#utility.yul\":1025:1143   */\n      pop\n      pop\n      jump\t// out\n        /* \"#utility.yul\":1149:1248   */\n    tag_59:\n        /* \"#utility.yul\":1201:1207   */\n      0x00\n        /* \"#utility.yul\":1235:1240   */\n      dup2\n        /* \"#utility.yul\":1229:1241   */\n      mload\n        /* \"#utility.yul\":1219:1241   */\n      swap1\n      pop\n        /* \"#utility.yul\":1149:1248   */\n      swap2\n      swap1\n      pop\n      jump\t// out\n        /* \"#utility.yul\":1254:1423   */\n    tag_60:\n        /* \"#utility.yul\":1338:1349   */\n      0x00\n        /* \"#utility.yul\":1372:1378   */\n      dup3\n        /* \"#utility.yul\":1367:1370   */\n      dup3\n        /* \"#utility.yul\":1360:1379   */\n      mstore\n        /* \"#utility.yul\":1412:1416   */\n      0x20\n        /* \"#utility.yul\":1407:1410   */\n      dup3\n        /* \"#utility.yul\":1403:1417   */\n      add\n        /* \"#utility.yul\":1388:1417   */\n      swap1\n      pop\n        /* \"#utility.yul\":1254:1423   */\n      swap3\n      swap2\n      pop\n      pop\n      jump\t// out\n        /* \"#utility.yul\":1429:1675   */\n    tag_61:\n        /* \"#utility.yul\":1510:1511   */\n      0x00\n        /* \"#utility.yul\":1520:1633   */\n    tag_118:\n        /* \"#utility.yul\":1534:1540   */\n      dup4\n        /* \"#utility.yul\":1531:1532   */\n      dup2\n        /* \"#utility.yul\":1528:1541   */\n      lt\n        /* \"#utility.yul\":1520:1633   */\n      iszero\n      tag_120\n      jumpi\n        /* \"#utility.yul\":1619:1620   */\n      dup1\n        /* \"#utility.yul\":1614:1617   */\n      dup3\n        /* \"#utility.yul\":1610:1621   */\n      add\n        /* \"#utility.yul\":1604:1622   */\n      mload\n        /* \"#utility.yul\":1600:1601   */\n      dup2\n        /* \"#utility.yul\":1595:1598   */\n      dup5\n        /* \"#utility.yul\":1591:1602   */\n      add\n        /* \"#utility.yul\":1584:1623   */\n      mstore\n        /* \"#utility.yul\":1556:1558   */\n      0x20\n        /* \"#utility.yul\":1553:1554   */\n      dup2\n        /* \"#utility.yul\":1549:1559   */\n      add\n        /* \"#utility.yul\":1544:1559   */\n      swap1\n      pop\n        /* \"#utility.yul\":1520:1633   */\n      jump(tag_118)\n    tag_120:\n        /* \"#utility.yul\":1667:1668   */\n      0x00\n        /* \"#utility.yul\":1658:1664   */\n      dup5\n        /* \"#utility.yul\":1653:1656   */\n      dup5\n        /* \"#utility.yul\":1649:1665   */\n      add\n        /* \"#utility.yul\":1642:1669   */\n      mstore\n        /* \"#utility.yul\":1491:1675   */\n      pop\n        /* \"#utility.yul\":1429:1675   */\n      pop\n      pop\n      pop\n      jump\t// out\n        /* \"#utility.yul\":1681:1783   */\n    tag_62:\n        /* \"#utility.yul\":1722:1728   */\n      0x00\n        /* \"#utility.yul\":1773:1775   */\n      0x1f\n        /* \"#utility.yul\":1769:1776   */\n      not\n        /* \"#utility.yul\":1764:1766   */\n      0x1f\n        /* \"#utility.yul\":1757:1762   */\n      dup4\n        /* \"#utility.yul\":1753:1767   */\n      add\n        /* \"#utility.yul\":1749:1777   */\n      and\n        /* \"#utility.yul\":1739:1777   */\n      swap1\n      pop\n        /* \"#utility.yul\":1681:1783   */\n      swap2\n      swap1\n      pop\n      jump\t// out\n        /* \"#utility.yul\":1789:2166   */\n    tag_63:\n        /* \"#utility.yul\":1877:1880   */\n      0x00\n        /* \"#utility.yul\":1905:1944   */\n      tag_123\n        /* \"#utility.yul\":1938:1943   */\n      dup3\n        /* \"#utility.yul\":1905:1944   */\n      tag_59\n      jump\t// in\n    tag_123:\n        /* \"#utility.yul\":1960:2031   */\n      tag_124\n        /* \"#utility.yul\":2024:2030   */\n      dup2\n        /* \"#utility.yul\":2019:2022   */\n      dup6\n        /* \"#utility.yul\":1960:2031   */\n      tag_60\n      jump\t// in\n    tag_124:\n        /* \"#utility.yul\":1953:2031   */\n      swap4\n      pop\n        /* \"#utility.yul\":2040:2105   */\n      tag_125\n        /* \"#utility.yul\":2098:2104   */\n      dup2\n        /* \"#utility.yul\":2093:2096   */\n      dup6\n        /* \"#utility.yul\":2086:2090   */\n      0x20\n        /* \"#utility.yul\":2079:2084   */\n      dup7\n        /* \"#utility.yul\":2075:2091   */\n      add\n        /* \"#utility.yul\":2040:2105   */\n      tag_61\n      jump\t// in\n    tag_125:\n        /* \"#utility.yul\":2130:2159   */\n      tag_126\n        /* \"#utility.yul\":2152:2158   */\n      dup2\n        /* \"#utility.yul\":2130:2159   */\n      tag_62\n      jump\t// in\n    tag_126:\n        /* \"#utility.yul\":2125:2128   */\n      dup5\n        /* \"#utility.yul\":2121:2160   */\n      add\n        /* \"#utility.yul\":2114:2160   */\n      swap2\n      pop\n        /* \"#utility.yul\":1881:2166   */\n      pop\n        /* \"#utility.yul\":1789:2166   */\n      swap3\n      swap2\n      pop\n      pop\n      jump\t// out\n        /* \"#utility.yul\":2172:2595   */\n    tag_11:\n        /* \"#utility.yul\":2313:2317   */\n      0x00\n        /* \"#utility.yul\":2351:2353   */\n      0x40\n        /* \"#utility.yul\":2340:2349   */\n      dup3\n        /* \"#utility.yul\":2336:2354   */\n      add\n        /* \"#utility.yul\":2328:2354   */\n      swap1\n      pop\n        /* \"#utility.yul\":2364:2435   */\n      tag_128\n        /* \"#utility.yul\":2432:2433   */\n      0x00\n        /* \"#utility.yul\":2421:2430   */\n      dup4\n        /* \"#utility.yul\":2417:2434   */\n      add\n        /* \"#utility.yul\":2408:2414   */\n      dup6\n        /* \"#utility.yul\":2364:2435   */\n      tag_58\n      jump\t// in\n    tag_128:\n        /* \"#utility.yul\":2482:2491   */\n      dup2\n        /* \"#utility.yul\":2476:2480   */\n      dup2\n        /* \"#utility.yul\":2472:2492   */\n      sub\n        /* \"#utility.yul\":2467:2469   */\n      0x20\n        /* \"#utility.yul\":2456:2465   */\n      dup4\n        /* \"#utility.yul\":2452:2470   */\n      add\n        /* \"#utility.yul\":2445:2493   */\n      mstore\n        /* \"#utility.yul\":2510:2588   */\n      tag_129\n        /* \"#utility.yul\":2583:2587   */\n      dup2\n        /* \"#utility.yul\":2574:2580   */\n      dup5\n        /* \"#utility.yul\":2510:2588   */\n      tag_63\n      jump\t// in\n    tag_129:\n        /* \"#utility.yul\":2502:2588   */\n      swap1\n      pop\n        /* \"#utility.yul\":2172:2595   */\n      swap4\n      swap3\n      pop\n      pop\n      pop\n      jump\t// out\n        /* \"#utility.yul\":2601:2734   */\n    tag_64:\n        /* \"#utility.yul\":2687:2693   */\n      0x00\n        /* \"#utility.yul\":2721:2726   */\n      dup2\n        /* \"#utility.yul\":2715:2727   */\n      mload\n        /* \"#utility.yul\":2705:2727   */\n      swap1\n      pop\n        /* \"#utility.yul\":2601:2734   */\n      swap2\n      swap1\n      pop\n      jump\t// out\n        /* \"#utility.yul\":2740:2943   */\n    tag_65:\n        /* \"#utility.yul\":2858:2869   */\n      0x00\n        /* \"#utility.yul\":2892:2898   */\n      dup3\n        /* \"#utility.yul\":2887:2890   */\n      dup3\n        /* \"#utility.yul\":2880:2899   */\n      mstore\n        /* \"#utility.yul\":2932:2936   */\n      0x20\n        /* \"#utility.yul\":2927:2930   */\n      dup3\n        /* \"#utility.yul\":2923:2937   */\n      add\n        /* \"#utility.yul\":2908:2937   */\n      swap1\n      pop\n        /* \"#utility.yul\":2740:2943   */\n      swap3\n      swap2\n      pop\n      pop\n      jump\t// out\n        /* \"#utility.yul\":2949:3100   */\n    tag_66:\n        /* \"#utility.yul\":3035:3039   */\n      0x00\n        /* \"#utility.yul\":3058:3061   */\n      dup2\n        /* \"#utility.yul\":3050:3061   */\n      swap1\n      pop\n        /* \"#utility.yul\":3088:3092   */\n      0x20\n        /* \"#utility.yul\":3083:3086   */\n      dup3\n        /* \"#utility.yul\":3079:3093   */\n      add\n        /* \"#utility.yul\":3071:3093   */\n      swap1\n      pop\n        /* \"#utility.yul\":2949:3100   */\n      swap2\n      swap1\n      pop\n      jump\t// out\n        /* \"#utility.yul\":3106:3214   */\n    tag_67:\n        /* \"#utility.yul\":3183:3207   */\n      tag_134\n        /* \"#utility.yul\":3201:3206   */\n      dup2\n        /* \"#utility.yul\":3183:3207   */\n      tag_55\n      jump\t// in\n    tag_134:\n        /* \"#utility.yul\":3178:3181   */\n      dup3\n        /* \"#utility.yul\":3171:3208   */\n      mstore\n        /* \"#utility.yul\":3106:3214   */\n      pop\n      pop\n      jump\t// out\n        /* \"#utility.yul\":3220:3379   */\n    tag_68:\n        /* \"#utility.yul\":3294:3305   */\n      0x00\n        /* \"#utility.yul\":3328:3334   */\n      dup3\n        /* \"#utility.yul\":3323:3326   */\n      dup3\n        /* \"#utility.yul\":3316:3335   */\n      mstore\n        /* \"#utility.yul\":3368:3372   */\n      0x20\n        /* \"#utility.yul\":3363:3366   */\n      dup3\n        /* \"#utility.yul\":3359:3373   */\n      add\n        /* \"#utility.yul\":3344:3373   */\n      swap1\n      pop\n        /* \"#utility.yul\":3220:3379   */\n      swap3\n      swap2\n      pop\n      pop\n      jump\t// out\n        /* \"#utility.yul\":3385:3742   */\n    tag_69:\n        /* \"#utility.yul\":3463:3466   */\n      0x00\n        /* \"#utility.yul\":3491:3530   */\n      tag_137\n        /* \"#utility.yul\":3524:3529   */\n      dup3\n        /* \"#utility.yul\":3491:3530   */\n      tag_59\n      jump\t// in\n    tag_137:\n        /* \"#utility.yul\":3546:3607   */\n      tag_138\n        /* \"#utility.yul\":3600:3606   */\n      dup2\n        /* \"#utility.yul\":3595:3598   */\n      dup6\n        /* \"#utility.yul\":3546:3607   */\n      tag_68\n      jump\t// in\n    tag_138:\n        /* \"#utility.yul\":3539:3607   */\n      swap4\n      pop\n        /* \"#utility.yul\":3616:3681   */\n      tag_139\n        /* \"#utility.yul\":3674:3680   */\n      dup2\n        /* \"#utility.yul\":3669:3672   */\n      dup6\n        /* \"#utility.yul\":3662:3666   */\n      0x20\n        /* \"#utility.yul\":3655:3660   */\n      dup7\n        /* \"#utility.yul\":3651:3667   */\n      add\n        /* \"#utility.yul\":3616:3681   */\n      tag_61\n      jump\t// in\n    tag_139:\n        /* \"#utility.yul\":3706:3735   */\n      tag_140\n        /* \"#utility.yul\":3728:3734   */\n      dup2\n        /* \"#utility.yul\":3706:3735   */\n      tag_62\n      jump\t// in\n    tag_140:\n        /* \"#utility.yul\":3701:3704   */\n      dup5\n        /* \"#utility.yul\":3697:3736   */\n      add\n        /* \"#utility.yul\":3690:3736   */\n      swap2\n      pop\n        /* \"#utility.yul\":3467:3742   */\n      pop\n        /* \"#utility.yul\":3385:3742   */\n      swap3\n      swap2\n      pop\n      pop\n      jump\t// out\n        /* \"#utility.yul\":3792:4376   */\n    tag_70:\n        /* \"#utility.yul\":3889:3892   */\n      0x00\n        /* \"#utility.yul\":3925:3929   */\n      0x40\n        /* \"#utility.yul\":3920:3923   */\n      dup4\n        /* \"#utility.yul\":3916:3930   */\n      add\n        /* \"#utility.yul\":4012:4016   */\n      0x00\n        /* \"#utility.yul\":4005:4010   */\n      dup4\n        /* \"#utility.yul\":4001:4017   */\n      add\n        /* \"#utility.yul\":3995:4018   */\n      mload\n        /* \"#utility.yul\":4031:4094   */\n      tag_142\n        /* \"#utility.yul\":4088:4092   */\n      0x00\n        /* \"#utility.yul\":4083:4086   */\n      dup7\n        /* \"#utility.yul\":4079:4093   */\n      add\n        /* \"#utility.yul\":4065:4077   */\n      dup3\n        /* \"#utility.yul\":4031:4094   */\n      tag_67\n      jump\t// in\n    tag_142:\n        /* \"#utility.yul\":3940:4104   */\n      pop\n        /* \"#utility.yul\":4186:4190   */\n      0x20\n        /* \"#utility.yul\":4179:4184   */\n      dup4\n        /* \"#utility.yul\":4175:4191   */\n      add\n        /* \"#utility.yul\":4169:4192   */\n      mload\n        /* \"#utility.yul\":4239:4242   */\n      dup5\n        /* \"#utility.yul\":4233:4237   */\n      dup3\n        /* \"#utility.yul\":4229:4243   */\n      sub\n        /* \"#utility.yul\":4222:4226   */\n      0x20\n        /* \"#utility.yul\":4217:4220   */\n      dup7\n        /* \"#utility.yul\":4213:4227   */\n      add\n        /* \"#utility.yul\":4206:4244   */\n      mstore\n        /* \"#utility.yul\":4265:4338   */\n      tag_143\n        /* \"#utility.yul\":4333:4337   */\n      dup3\n        /* \"#utility.yul\":4319:4331   */\n      dup3\n        /* \"#utility.yul\":4265:4338   */\n      tag_69\n      jump\t// in\n    tag_143:\n        /* \"#utility.yul\":4257:4338   */\n      swap2\n      pop\n        /* \"#utility.yul\":4114:4349   */\n      pop\n        /* \"#utility.yul\":4366:4370   */\n      dup1\n        /* \"#utility.yul\":4359:4370   */\n      swap2\n      pop\n        /* \"#utility.yul\":3894:4376   */\n      pop\n        /* \"#utility.yul\":3792:4376   */\n      swap3\n      swap2\n      pop\n      pop\n      jump\t// out\n        /* \"#utility.yul\":4382:4614   */\n    tag_71:\n        /* \"#utility.yul\":4489:4499   */\n      0x00\n        /* \"#utility.yul\":4524:4608   */\n      tag_145\n        /* \"#utility.yul\":4604:4607   */\n      dup4\n        /* \"#utility.yul\":4596:4602   */\n      dup4\n        /* \"#utility.yul\":4524:4608   */\n      tag_70\n      jump\t// in\n    tag_145:\n        /* \"#utility.yul\":4510:4608   */\n      swap1\n      pop\n        /* \"#utility.yul\":4382:4614   */\n      swap3\n      swap2\n      pop\n      pop\n      jump\t// out\n        /* \"#utility.yul\":4620:4752   */\n    tag_72:\n        /* \"#utility.yul\":4709:4713   */\n      0x00\n        /* \"#utility.yul\":4741:4745   */\n      0x20\n        /* \"#utility.yul\":4736:4739   */\n      dup3\n        /* \"#utility.yul\":4732:4746   */\n      add\n        /* \"#utility.yul\":4724:4746   */\n      swap1\n      pop\n        /* \"#utility.yul\":4620:4752   */\n      swap2\n      swap1\n      pop\n      jump\t// out\n        /* \"#utility.yul\":4806:5869   */\n    tag_73:\n        /* \"#utility.yul\":4963:4966   */\n      0x00\n        /* \"#utility.yul\":4992:5065   */\n      tag_148\n        /* \"#utility.yul\":5059:5064   */\n      dup3\n        /* \"#utility.yul\":4992:5065   */\n      tag_64\n      jump\t// in\n    tag_148:\n        /* \"#utility.yul\":5081:5186   */\n      tag_149\n        /* \"#utility.yul\":5179:5185   */\n      dup2\n        /* \"#utility.yul\":5174:5177   */\n      dup6\n        /* \"#utility.yul\":5081:5186   */\n      tag_65\n      jump\t// in\n    tag_149:\n        /* \"#utility.yul\":5074:5186   */\n      swap4\n      pop\n        /* \"#utility.yul\":5212:5215   */\n      dup4\n        /* \"#utility.yul\":5257:5261   */\n      0x20\n        /* \"#utility.yul\":5249:5255   */\n      dup3\n        /* \"#utility.yul\":5245:5262   */\n      mul\n        /* \"#utility.yul\":5240:5243   */\n      dup6\n        /* \"#utility.yul\":5236:5263   */\n      add\n        /* \"#utility.yul\":5287:5362   */\n      tag_150\n        /* \"#utility.yul\":5356:5361   */\n      dup6\n        /* \"#utility.yul\":5287:5362   */\n      tag_66\n      jump\t// in\n    tag_150:\n        /* \"#utility.yul\":5385:5392   */\n      dup1\n        /* \"#utility.yul\":5416:5417   */\n      0x00\n        /* \"#utility.yul\":5401:5824   */\n    tag_151:\n        /* \"#utility.yul\":5426:5432   */\n      dup6\n        /* \"#utility.yul\":5423:5424   */\n      dup2\n        /* \"#utility.yul\":5420:5433   */\n      lt\n        /* \"#utility.yul\":5401:5824   */\n      iszero\n      tag_153\n      jumpi\n        /* \"#utility.yul\":5497:5506   */\n      dup5\n        /* \"#utility.yul\":5491:5495   */\n      dup5\n        /* \"#utility.yul\":5487:5507   */\n      sub\n        /* \"#utility.yul\":5482:5485   */\n      dup10\n        /* \"#utility.yul\":5475:5508   */\n      mstore\n        /* \"#utility.yul\":5548:5554   */\n      dup2\n        /* \"#utility.yul\":5542:5555   */\n      mload\n        /* \"#utility.yul\":5576:5678   */\n      tag_154\n        /* \"#utility.yul\":5673:5677   */\n      dup6\n        /* \"#utility.yul\":5658:5671   */\n      dup3\n        /* \"#utility.yul\":5576:5678   */\n      tag_71\n      jump\t// in\n    tag_154:\n        /* \"#utility.yul\":5568:5678   */\n      swap5\n      pop\n        /* \"#utility.yul\":5701:5780   */\n      tag_155\n        /* \"#utility.yul\":5773:5779   */\n      dup4\n        /* \"#utility.yul\":5701:5780   */\n      tag_72\n      jump\t// in\n    tag_155:\n        /* \"#utility.yul\":5691:5780   */\n      swap3\n      pop\n        /* \"#utility.yul\":5809:5813   */\n      0x20\n        /* \"#utility.yul\":5804:5807   */\n      dup11\n        /* \"#utility.yul\":5800:5814   */\n      add\n        /* \"#utility.yul\":5793:5814   */\n      swap10\n      pop\n        /* \"#utility.yul\":5461:5824   */\n      pop\n        /* \"#utility.yul\":5448:5449   */\n      0x01\n        /* \"#utility.yul\":5445:5446   */\n      dup2\n        /* \"#utility.yul\":5441:5450   */\n      add\n        /* \"#utility.yul\":5436:5450   */\n      swap1\n      pop\n        /* \"#utility.yul\":5401:5824   */\n      jump(tag_151)\n    tag_153:\n        /* \"#utility.yul\":5405:5419   */\n      pop\n        /* \"#utility.yul\":5840:5844   */\n      dup3\n        /* \"#utility.yul\":5833:5844   */\n      swap8\n      pop\n        /* \"#utility.yul\":5860:5863   */\n      dup8\n        /* \"#utility.yul\":5853:5863   */\n      swap6\n      pop\n        /* \"#utility.yul\":4968:5869   */\n      pop\n      pop\n      pop\n      pop\n      pop\n        /* \"#utility.yul\":4806:5869   */\n      swap3\n      swap2\n      pop\n      pop\n      jump\t// out\n        /* \"#utility.yul\":5875:6324   */\n    tag_16:\n        /* \"#utility.yul\":6056:6060   */\n      0x00\n        /* \"#utility.yul\":6094:6096   */\n      0x20\n        /* \"#utility.yul\":6083:6092   */\n      dup3\n        /* \"#utility.yul\":6079:6097   */\n      add\n        /* \"#utility.yul\":6071:6097   */\n      swap1\n      pop\n        /* \"#utility.yul\":6143:6152   */\n      dup2\n        /* \"#utility.yul\":6137:6141   */\n      dup2\n        /* \"#utility.yul\":6133:6153   */\n      sub\n        /* \"#utility.yul\":6129:6130   */\n      0x00\n        /* \"#utility.yul\":6118:6127   */\n      dup4\n        /* \"#utility.yul\":6114:6131   */\n      add\n        /* \"#utility.yul\":6107:6154   */\n      mstore\n        /* \"#utility.yul\":6171:6317   */\n      tag_157\n        /* \"#utility.yul\":6312:6316   */\n      dup2\n        /* \"#utility.yul\":6303:6309   */\n      dup5\n        /* \"#utility.yul\":6171:6317   */\n      tag_73\n      jump\t// in\n    tag_157:\n        /* \"#utility.yul\":6163:6317   */\n      swap1\n      pop\n        /* \"#utility.yul\":5875:6324   */\n      swap3\n      swap2\n      pop\n      pop\n      jump\t// out\n        /* \"#utility.yul\":6330:6447   */\n    tag_74:\n        /* \"#utility.yul\":6439:6440   */\n      0x00\n        /* \"#utility.yul\":6436:6437   */\n      dup1\n        /* \"#utility.yul\":6429:6441   */\n      revert\n        /* \"#utility.yul\":6453:6570   */\n    tag_75:\n        /* \"#utility.yul\":6562:6563   */\n      0x00\n        /* \"#utility.yul\":6559:6560   */\n      dup1\n        /* \"#utility.yul\":6552:6564   */\n      revert\n        /* \"#utility.yul\":6576:6756   */\n    tag_30:\n        /* \"#utility.yul\":6624:6701   */\n      0x4e487b7100000000000000000000000000000000000000000000000000000000\n        /* \"#utility.yul\":6621:6622   */\n      0x00\n        /* \"#utility.yul\":6614:6702   */\n      mstore\n        /* \"#utility.yul\":6721:6725   */\n      0x41\n        /* \"#utility.yul\":6718:6719   */\n      0x04\n        /* \"#utility.yul\":6711:6726   */\n      mstore\n        /* \"#utility.yul\":6745:6749   */\n      0x24\n        /* \"#utility.yul\":6742:6743   */\n      0x00\n        /* \"#utility.yul\":6735:6750   */\n      revert\n        /* \"#utility.yul\":6762:7043   */\n    tag_76:\n        /* \"#utility.yul\":6845:6872   */\n      tag_162\n        /* \"#utility.yul\":6867:6871   */\n      dup3\n        /* \"#utility.yul\":6845:6872   */\n      tag_62\n      jump\t// in\n    tag_162:\n        /* \"#utility.yul\":6837:6843   */\n      dup2\n        /* \"#utility.yul\":6833:6873   */\n      add\n        /* \"#utility.yul\":6975:6981   */\n      dup2\n        /* \"#utility.yul\":6963:6973   */\n      dup2\n        /* \"#utility.yul\":6960:6982   */\n      lt\n        /* \"#utility.yul\":6939:6957   */\n      0xffffffffffffffff\n        /* \"#utility.yul\":6927:6937   */\n      dup3\n        /* \"#utility.yul\":6924:6958   */\n      gt\n        /* \"#utility.yul\":6921:6983   */\n      or\n        /* \"#utility.yul\":6918:7006   */\n      iszero\n      tag_163\n      jumpi\n        /* \"#utility.yul\":6986:7004   */\n      tag_164\n      tag_30\n      jump\t// in\n    tag_164:\n        /* \"#utility.yul\":6918:7006   */\n    tag_163:\n        /* \"#utility.yul\":7026:7036   */\n      dup1\n        /* \"#utility.yul\":7022:7024   */\n      0x40\n        /* \"#utility.yul\":7015:7037   */\n      mstore\n        /* \"#utility.yul\":6805:7043   */\n      pop\n        /* \"#utility.yul\":6762:7043   */\n      pop\n      pop\n      jump\t// out\n        /* \"#utility.yul\":7049:7178   */\n    tag_77:\n        /* \"#utility.yul\":7083:7089   */\n      0x00\n        /* \"#utility.yul\":7110:7130   */\n      tag_166\n      tag_52\n      jump\t// in\n    tag_166:\n        /* \"#utility.yul\":7100:7130   */\n      swap1\n      pop\n        /* \"#utility.yul\":7139:7172   */\n      tag_167\n        /* \"#utility.yul\":7167:7171   */\n      dup3\n        /* \"#utility.yul\":7159:7165   */\n      dup3\n        /* \"#utility.yul\":7139:7172   */\n      tag_76\n      jump\t// in\n    tag_167:\n        /* \"#utility.yul\":7049:7178   */\n      swap2\n      swap1\n      pop\n      jump\t// out\n        /* \"#utility.yul\":7184:7492   */\n    tag_78:\n        /* \"#utility.yul\":7246:7250   */\n      0x00\n        /* \"#utility.yul\":7336:7354   */\n      0xffffffffffffffff\n        /* \"#utility.yul\":7328:7334   */\n      dup3\n        /* \"#utility.yul\":7325:7355   */\n      gt\n        /* \"#utility.yul\":7322:7378   */\n      iszero\n      tag_169\n      jumpi\n        /* \"#utility.yul\":7358:7376   */\n      tag_170\n      tag_30\n      jump\t// in\n    tag_170:\n        /* \"#utility.yul\":7322:7378   */\n    tag_169:\n        /* \"#utility.yul\":7396:7425   */\n      tag_171\n        /* \"#utility.yul\":7418:7424   */\n      dup3\n        /* \"#utility.yul\":7396:7425   */\n      tag_62\n      jump\t// in\n    tag_171:\n        /* \"#utility.yul\":7388:7425   */\n      swap1\n      pop\n        /* \"#utility.yul\":7480:7484   */\n      0x20\n        /* \"#utility.yul\":7474:7478   */\n      dup2\n        /* \"#utility.yul\":7470:7485   */\n      add\n        /* \"#utility.yul\":7462:7485   */\n      swap1\n      pop\n        /* \"#utility.yul\":7184:7492   */\n      swap2\n      swap1\n      pop\n      jump\t// out\n        /* \"#utility.yul\":7498:7644   */\n    tag_79:\n        /* \"#utility.yul\":7595:7601   */\n      dup3\n        /* \"#utility.yul\":7590:7593   */\n      dup2\n        /* \"#utility.yul\":7585:7588   */\n      dup4\n        /* \"#utility.yul\":7572:7602   */\n      calldatacopy\n        /* \"#utility.yul\":7636:7637   */\n      0x00\n        /* \"#utility.yul\":7627:7633   */\n      dup4\n        /* \"#utility.yul\":7622:7625   */\n      dup4\n        /* \"#utility.yul\":7618:7634   */\n      add\n        /* \"#utility.yul\":7611:7638   */\n      mstore\n        /* \"#utility.yul\":7498:7644   */\n      pop\n      pop\n      pop\n      jump\t// out\n        /* \"#utility.yul\":7650:8075   */\n    tag_80:\n        /* \"#utility.yul\":7728:7733   */\n      0x00\n        /* \"#utility.yul\":7753:7819   */\n      tag_174\n        /* \"#utility.yul\":7769:7818   */\n      tag_175\n        /* \"#utility.yul\":7811:7817   */\n      dup5\n        /* \"#utility.yul\":7769:7818   */\n      tag_78\n      jump\t// in\n    tag_175:\n        /* \"#utility.yul\":7753:7819   */\n      tag_77\n      jump\t// in\n    tag_174:\n        /* \"#utility.yul\":7744:7819   */\n      swap1\n      pop\n        /* \"#utility.yul\":7842:7848   */\n      dup3\n        /* \"#utility.yul\":7835:7840   */\n      dup2\n        /* \"#utility.yul\":7828:7849   */\n      mstore\n        /* \"#utility.yul\":7880:7884   */\n      0x20\n        /* \"#utility.yul\":7873:7878   */\n      dup2\n        /* \"#utility.yul\":7869:7885   */\n      add\n        /* \"#utility.yul\":7918:7921   */\n      dup5\n        /* \"#utility.yul\":7909:7915   */\n      dup5\n        /* \"#utility.yul\":7904:7907   */\n      dup5\n        /* \"#utility.yul\":7900:7916   */\n      add\n        /* \"#utility.yul\":7897:7922   */\n      gt\n        /* \"#utility.yul\":7894:8006   */\n      iszero\n      tag_176\n      jumpi\n        /* \"#utility.yul\":7925:8004   */\n      tag_177\n      tag_75\n      jump\t// in\n    tag_177:\n        /* \"#utility.yul\":7894:8006   */\n    tag_176:\n        /* \"#utility.yul\":8015:8069   */\n      tag_178\n        /* \"#utility.yul\":8062:8068   */\n      dup5\n        /* \"#utility.yul\":8057:8060   */\n      dup3\n        /* \"#utility.yul\":8052:8055   */\n      dup6\n        /* \"#utility.yul\":8015:8069   */\n      tag_79\n      jump\t// in\n    tag_178:\n        /* \"#utility.yul\":7734:8075   */\n      pop\n        /* \"#utility.yul\":7650:8075   */\n      swap4\n      swap3\n      pop\n      pop\n      pop\n      jump\t// out\n        /* \"#utility.yul\":8095:8435   */\n    tag_81:\n        /* \"#utility.yul\":8151:8156   */\n      0x00\n        /* \"#utility.yul\":8200:8203   */\n      dup3\n        /* \"#utility.yul\":8193:8197   */\n      0x1f\n        /* \"#utility.yul\":8185:8191   */\n      dup4\n        /* \"#utility.yul\":8181:8198   */\n      add\n        /* \"#utility.yul\":8177:8204   */\n      slt\n        /* \"#utility.yul\":8167:8289   */\n      tag_180\n      jumpi\n        /* \"#utility.yul\":8208:8287   */\n      tag_181\n      tag_74\n      jump\t// in\n    tag_181:\n        /* \"#utility.yul\":8167:8289   */\n    tag_180:\n        /* \"#utility.yul\":8325:8331   */\n      dup2\n        /* \"#utility.yul\":8312:8332   */\n      calldataload\n        /* \"#utility.yul\":8350:8429   */\n      tag_182\n        /* \"#utility.yul\":8425:8428   */\n      dup5\n        /* \"#utility.yul\":8417:8423   */\n      dup3\n        /* \"#utility.yul\":8410:8414   */\n      0x20\n        /* \"#utility.yul\":8402:8408   */\n      dup7\n        /* \"#utility.yul\":8398:8415   */\n      add\n        /* \"#utility.yul\":8350:8429   */\n      tag_80\n      jump\t// in\n    tag_182:\n        /* \"#utility.yul\":8341:8429   */\n      swap2\n      pop\n        /* \"#utility.yul\":8157:8435   */\n      pop\n        /* \"#utility.yul\":8095:8435   */\n      swap3\n      swap2\n      pop\n      pop\n      jump\t// out\n        /* \"#utility.yul\":8441:9095   */\n    tag_19:\n        /* \"#utility.yul\":8519:8525   */\n      0x00\n        /* \"#utility.yul\":8527:8533   */\n      dup1\n        /* \"#utility.yul\":8576:8578   */\n      0x40\n        /* \"#utility.yul\":8564:8573   */\n      dup4\n        /* \"#utility.yul\":8555:8562   */\n      dup6\n        /* \"#utility.yul\":8551:8574   */\n      sub\n        /* \"#utility.yul\":8547:8579   */\n      slt\n        /* \"#utility.yul\":8544:8663   */\n      iszero\n      tag_184\n      jumpi\n        /* \"#utility.yul\":8582:8661   */\n      tag_185\n      tag_53\n      jump\t// in\n    tag_185:\n        /* \"#utility.yul\":8544:8663   */\n    tag_184:\n        /* \"#utility.yul\":8702:8703   */\n      0x00\n        /* \"#utility.yul\":8727:8780   */\n      tag_186\n        /* \"#utility.yul\":8772:8779   */\n      dup6\n        /* \"#utility.yul\":8763:8769   */\n      dup3\n        /* \"#utility.yul\":8752:8761   */\n      dup7\n        /* \"#utility.yul\":8748:8770   */\n      add\n        /* \"#utility.yul\":8727:8780   */\n      tag_57\n      jump\t// in\n    tag_186:\n        /* \"#utility.yul\":8717:8780   */\n      swap3\n      pop\n        /* \"#utility.yul\":8673:8790   */\n      pop\n        /* \"#utility.yul\":8857:8859   */\n      0x20\n        /* \"#utility.yul\":8846:8855   */\n      dup4\n        /* \"#utility.yul\":8842:8860   */\n      add\n        /* \"#utility.yul\":8829:8861   */\n      calldataload\n        /* \"#utility.yul\":8888:8906   */\n      0xffffffffffffffff\n        /* \"#utility.yul\":8880:8886   */\n      dup2\n        /* \"#utility.yul\":8877:8907   */\n      gt\n        /* \"#utility.yul\":8874:8991   */\n      iszero\n      tag_187\n      jumpi\n        /* \"#utility.yul\":8910:8989   */\n      tag_188\n      tag_54\n      jump\t// in\n    tag_188:\n        /* \"#utility.yul\":8874:8991   */\n    tag_187:\n        /* \"#utility.yul\":9015:9078   */\n      tag_189\n        /* \"#utility.yul\":9070:9077   */\n      dup6\n        /* \"#utility.yul\":9061:9067   */\n      dup3\n        /* \"#utility.yul\":9050:9059   */\n      dup7\n        /* \"#utility.yul\":9046:9068   */\n      add\n        /* \"#utility.yul\":9015:9078   */\n      tag_81\n      jump\t// in\n    tag_189:\n        /* \"#utility.yul\":9005:9078   */\n      swap2\n      pop\n        /* \"#utility.yul\":8800:9088   */\n      pop\n        /* \"#utility.yul\":8441:9095   */\n      swap3\n      pop\n      swap3\n      swap1\n      pop\n      jump\t// out\n        /* \"#utility.yul\":9101:9281   */\n    tag_82:\n        /* \"#utility.yul\":9149:9226   */\n      0x4e487b7100000000000000000000000000000000000000000000000000000000\n        /* \"#utility.yul\":9146:9147   */\n      0x00\n        /* \"#utility.yul\":9139:9227   */\n      mstore\n        /* \"#utility.yul\":9246:9250   */\n      0x22\n        /* \"#utility.yul\":9243:9244   */\n      0x04\n        /* \"#utility.yul\":9236:9251   */\n      mstore\n        /* \"#utility.yul\":9270:9274   */\n      0x24\n        /* \"#utility.yul\":9267:9268   */\n      0x00\n        /* \"#utility.yul\":9260:9275   */\n      revert\n        /* \"#utility.yul\":9287:9607   */\n    tag_22:\n        /* \"#utility.yul\":9331:9337   */\n      0x00\n        /* \"#utility.yul\":9368:9369   */\n      0x02\n        /* \"#utility.yul\":9362:9366   */\n      dup3\n        /* \"#utility.yul\":9358:9370   */\n      div\n        /* \"#utility.yul\":9348:9370   */\n      swap1\n      pop\n        /* \"#utility.yul\":9415:9416   */\n      0x01\n        /* \"#utility.yul\":9409:9413   */\n      dup3\n        /* \"#utility.yul\":9405:9417   */\n      and\n        /* \"#utility.yul\":9436:9454   */\n      dup1\n        /* \"#utility.yul\":9426:9507   */\n      tag_192\n      jumpi\n        /* \"#utility.yul\":9492:9496   */\n      0x7f\n        /* \"#utility.yul\":9484:9490   */\n      dup3\n        /* \"#utility.yul\":9480:9497   */\n      and\n        /* \"#utility.yul\":9470:9497   */\n      swap2\n      pop\n        /* \"#utility.yul\":9426:9507   */\n    tag_192:\n        /* \"#utility.yul\":9554:9556   */\n      0x20\n        /* \"#utility.yul\":9546:9552   */\n      dup3\n        /* \"#utility.yul\":9543:9557   */\n      lt\n        /* \"#utility.yul\":9523:9541   */\n      dup2\n        /* \"#utility.yul\":9520:9558   */\n      sub\n        /* \"#utility.yul\":9517:9601   */\n      tag_193\n      jumpi\n        /* \"#utility.yul\":9573:9591   */\n      tag_194\n      tag_82\n      jump\t// in\n    tag_194:\n        /* \"#utility.yul\":9517:9601   */\n    tag_193:\n        /* \"#utility.yul\":9338:9607   */\n      pop\n        /* \"#utility.yul\":9287:9607   */\n      swap2\n      swap1\n      pop\n      jump\t// out\n        /* \"#utility.yul\":9613:9793   */\n    tag_45:\n        /* \"#utility.yul\":9661:9738   */\n      0x4e487b7100000000000000000000000000000000000000000000000000000000\n        /* \"#utility.yul\":9658:9659   */\n      0x00\n        /* \"#utility.yul\":9651:9739   */\n      mstore\n        /* \"#utility.yul\":9758:9762   */\n      0x32\n        /* \"#utility.yul\":9755:9756   */\n      0x04\n        /* \"#utility.yul\":9748:9763   */\n      mstore\n        /* \"#utility.yul\":9782:9786   */\n      0x24\n        /* \"#utility.yul\":9779:9780   */\n      0x00\n        /* \"#utility.yul\":9772:9787   */\n      revert\n        /* \"#utility.yul\":9799:9979   */\n    tag_83:\n        /* \"#utility.yul\":9847:9924   */\n      0x4e487b7100000000000000000000000000000000000000000000000000000000\n        /* \"#utility.yul\":9844:9845   */\n      0x00\n        /* \"#utility.yul\":9837:9925   */\n      mstore\n        /* \"#utility.yul\":9944:9948   */\n      0x11\n        /* \"#utility.yul\":9941:9942   */\n      0x04\n        /* \"#utility.yul\":9934:9949   */\n      mstore\n        /* \"#utility.yul\":9968:9972   */\n      0x24\n        /* \"#utility.yul\":9965:9966   */\n      0x00\n        /* \"#utility.yul\":9958:9973   */\n      revert\n        /* \"#utility.yul\":9985:10218   */\n    tag_47:\n        /* \"#utility.yul\":10024:10027   */\n      0x00\n        /* \"#utility.yul\":10047:10071   */\n      tag_198\n        /* \"#utility.yul\":10065:10070   */\n      dup3\n        /* \"#utility.yul\":10047:10071   */\n      tag_55\n      jump\t// in\n    tag_198:\n        /* \"#utility.yul\":10038:10071   */\n      swap2\n      pop\n        /* \"#utility.yul\":10093:10159   */\n      0xffffffffffffffffffffffffffffffffffffffffffffffffffffffffffffffff\n        /* \"#utility.yul\":10086:10091   */\n      dup3\n        /* \"#utility.yul\":10083:10160   */\n      sub\n        /* \"#utility.yul\":10080:10183   */\n      tag_199\n      jumpi\n        /* \"#utility.yul\":10163:10181   */\n      tag_200\n      tag_83\n      jump\t// in\n    tag_200:\n        /* \"#utility.yul\":10080:10183   */\n    tag_199:\n        /* \"#utility.yul\":10210:10211   */\n      0x01\n        /* \"#utility.yul\":10203:10208   */\n      dup3\n        /* \"#utility.yul\":10199:10212   */\n      add\n        /* \"#utility.yul\":10192:10212   */\n      swap1\n      pop\n        /* \"#utility.yul\":9985:10218   */\n      swap2\n      swap1\n      pop\n      jump\t// out\n        /* \"#utility.yul\":10224:10365   */\n    tag_84:\n        /* \"#utility.yul\":10273:10277   */\n      0x00\n        /* \"#utility.yul\":10296:10299   */\n      dup2\n        /* \"#utility.yul\":10288:10299   */\n      swap1\n      pop\n        /* \"#utility.yul\":10319:10322   */\n      dup2\n        /* \"#utility.yul\":10316:10317   */\n      0x00\n        /* \"#utility.yul\":10309:10323   */\n      mstore\n        /* \"#utility.yul\":10353:10357   */\n      0x20\n        /* \"#utility.yul\":10350:10351   */\n      0x00\n        /* \"#utility.yul\":10340:10358   */\n      keccak256\n        /* \"#utility.yul\":10332:10358   */\n      swap1\n      pop\n        /* \"#utility.yul\":10224:10365   */\n      swap2\n      swap1\n      pop\n      jump\t// out\n        /* \"#utility.yul\":10371:10464   */\n    tag_85:\n        /* \"#utility.yul\":10408:10414   */\n      0x00\n        /* \"#utility.yul\":10455:10457   */\n      0x20\n        /* \"#utility.yul\":10450:10452   */\n      0x1f\n        /* \"#utility.yul\":10443:10448   */\n      dup4\n        /* \"#utility.yul\":10439:10453   */\n      add\n        /* \"#utility.yul\":10435:10458   */\n      div\n        /* \"#utility.yul\":10425:10458   */\n      swap1\n      pop\n        /* \"#utility.yul\":10371:10464   */\n      swap2\n      swap1\n      pop\n      jump\t// out\n        /* \"#utility.yul\":10470:10577   */\n    tag_86:\n        /* \"#utility.yul\":10514:10522   */\n      0x00\n        /* \"#utility.yul\":10564:10569   */\n      dup3\n        /* \"#utility.yul\":10558:10562   */\n      dup3\n        /* \"#utility.yul\":10554:10570   */\n      shl\n        /* \"#utility.yul\":10533:10570   */\n      swap1\n      pop\n        /* \"#utility.yul\":10470:10577   */\n      swap3\n      swap2\n      pop\n      pop\n      jump\t// out\n        /* \"#utility.yul\":10583:10976   */\n    tag_87:\n        /* \"#utility.yul\":10652:10658   */\n      0x00\n        /* \"#utility.yul\":10702:10703   */\n      0x08\n        /* \"#utility.yul\":10690:10700   */\n      dup4\n        /* \"#utility.yul\":10686:10704   */\n      mul\n        /* \"#utility.yul\":10725:10822   */\n      tag_205\n        /* \"#utility.yul\":10755:10821   */\n      0xffffffffffffffffffffffffffffffffffffffffffffffffffffffffffffffff\n        /* \"#utility.yul\":10744:10753   */\n      dup3\n        /* \"#utility.yul\":10725:10822   */\n      tag_86\n      jump\t// in\n    tag_205:\n        /* \"#utility.yul\":10843:10882   */\n      tag_206\n        /* \"#utility.yul\":10873:10881   */\n      dup7\n        /* \"#utility.yul\":10862:10871   */\n      dup4\n        /* \"#utility.yul\":10843:10882   */\n      tag_86\n      jump\t// in\n    tag_206:\n        /* \"#utility.yul\":10831:10882   */\n      swap6\n      pop\n        /* \"#utility.yul\":10915:10919   */\n      dup1\n        /* \"#utility.yul\":10911:10920   */\n      not\n        /* \"#utility.yul\":10904:10909   */\n      dup5\n        /* \"#utility.yul\":10900:10921   */\n      and\n        /* \"#utility.yul\":10891:10921   */\n      swap4\n      pop\n        /* \"#utility.yul\":10964:10968   */\n      dup1\n        /* \"#utility.yul\":10954:10962   */\n      dup7\n        /* \"#utility.yul\":10950:10969   */\n      and\n        /* \"#utility.yul\":10943:10948   */\n      dup5\n        /* \"#utility.yul\":10940:10970   */\n      or\n        /* \"#utility.yul\":10930:10970   */\n      swap3\n      pop\n        /* \"#utility.yul\":10659:10976   */\n      pop\n      pop\n        /* \"#utility.yul\":10583:10976   */\n      swap4\n      swap3\n      pop\n      pop\n      pop\n      jump\t// out\n        /* \"#utility.yul\":10982:11042   */\n    tag_88:\n        /* \"#utility.yul\":11010:11013   */\n      0x00\n        /* \"#utility.yul\":11031:11036   */\n      dup2\n        /* \"#utility.yul\":11024:11036   */\n      swap1\n      pop\n        /* \"#utility.yul\":10982:11042   */\n      swap2\n      swap1\n      pop\n      jump\t// out\n        /* \"#utility.yul\":11048:11190   */\n    tag_89:\n        /* \"#utility.yul\":11098:11107   */\n      0x00\n        /* \"#utility.yul\":11131:11184   */\n      tag_209\n        /* \"#utility.yul\":11149:11183   */\n      tag_210\n        /* \"#utility.yul\":11158:11182   */\n      tag_211\n        /* \"#utility.yul\":11176:11181   */\n      dup5\n        /* \"#utility.yul\":11158:11182   */\n      tag_55\n      jump\t// in\n    tag_211:\n        /* \"#utility.yul\":11149:11183   */\n      tag_88\n      jump\t// in\n    tag_210:\n        /* \"#utility.yul\":11131:11184   */\n      tag_55\n      jump\t// in\n    tag_209:\n        /* \"#utility.yul\":11118:11184   */\n      swap1\n      pop\n        /* \"#utility.yul\":11048:11190   */\n      swap2\n      swap1\n      pop\n      jump\t// out\n        /* \"#utility.yul\":11196:11271   */\n    tag_90:\n        /* \"#utility.yul\":11239:11242   */\n      0x00\n        /* \"#utility.yul\":11260:11265   */\n      dup2\n        /* \"#utility.yul\":11253:11265   */\n      swap1\n      pop\n        /* \"#utility.yul\":11196:11271   */\n      swap2\n      swap1\n      pop\n      jump\t// out\n        /* \"#utility.yul\":11277:11546   */\n    tag_91:\n        /* \"#utility.yul\":11387:11426   */\n      tag_214\n        /* \"#utility.yul\":11418:11425   */\n      dup4\n        /* \"#utility.yul\":11387:11426   */\n      tag_89\n      jump\t// in\n    tag_214:\n        /* \"#utility.yul\":11448:11539   */\n      tag_215\n        /* \"#utility.yul\":11497:11538   */\n      tag_216\n        /* \"#utility.yul\":11521:11537   */\n      dup3\n        /* \"#utility.yul\":11497:11538   */\n      tag_90\n      jump\t// in\n    tag_216:\n        /* \"#utility.yul\":11489:11495   */\n      dup5\n        /* \"#utility.yul\":11482:11486   */\n      dup5\n        /* \"#utility.yul\":11476:11487   */\n      sload\n        /* \"#utility.yul\":11448:11539   */\n      tag_87\n      jump\t// in\n    tag_215:\n        /* \"#utility.yul\":11442:11446   */\n      dup3\n        /* \"#utility.yul\":11435:11540   */\n      sstore\n        /* \"#utility.yul\":11353:11546   */\n      pop\n        /* \"#utility.yul\":11277:11546   */\n      pop\n      pop\n      pop\n      jump\t// out\n        /* \"#utility.yul\":11552:11625   */\n    tag_92:\n        /* \"#utility.yul\":11597:11600   */\n      0x00\n        /* \"#utility.yul\":11552:11625   */\n      swap1\n      jump\t// out\n        /* \"#utility.yul\":11631:11820   */\n    tag_93:\n        /* \"#utility.yul\":11708:11740   */\n      tag_219\n      tag_92\n      jump\t// in\n    tag_219:\n        /* \"#utility.yul\":11749:11814   */\n      tag_220\n        /* \"#utility.yul\":11807:11813   */\n      dup2\n        /* \"#utility.yul\":11799:11805   */\n      dup5\n        /* \"#utility.yul\":11793:11797   */\n      dup5\n        /* \"#utility.yul\":11749:11814   */\n      tag_91\n      jump\t// in\n    tag_220:\n        /* \"#utility.yul\":11684:11820   */\n      pop\n        /* \"#utility.yul\":11631:11820   */\n      pop\n      pop\n      jump\t// out\n        /* \"#utility.yul\":11826:12012   */\n    tag_94:\n        /* \"#utility.yul\":11886:12006   */\n    tag_222:\n        /* \"#utility.yul\":11903:11906   */\n      dup2\n        /* \"#utility.yul\":11896:11901   */\n      dup2\n        /* \"#utility.yul\":11893:11907   */\n      lt\n        /* \"#utility.yul\":11886:12006   */\n      iszero\n      tag_224\n      jumpi\n        /* \"#utility.yul\":11957:11996   */\n      tag_225\n        /* \"#utility.yul\":11994:11995   */\n      0x00\n        /* \"#utility.yul\":11987:11992   */\n      dup3\n        /* \"#utility.yul\":11957:11996   */\n      tag_93\n      jump\t// in\n    tag_225:\n        /* \"#utility.yul\":11930:11931   */\n      0x01\n        /* \"#utility.yul\":11923:11928   */\n      dup2\n        /* \"#utility.yul\":11919:11932   */\n      add\n        /* \"#utility.yul\":11910:11932   */\n      swap1\n      pop\n        /* \"#utility.yul\":11886:12006   */\n      jump(tag_222)\n    tag_224:\n        /* \"#utility.yul\":11826:12012   */\n      pop\n      pop\n      jump\t// out\n        /* \"#utility.yul\":12018:12561   */\n    tag_95:\n        /* \"#utility.yul\":12119:12121   */\n      0x1f\n        /* \"#utility.yul\":12114:12117   */\n      dup3\n        /* \"#utility.yul\":12111:12122   */\n      gt\n        /* \"#utility.yul\":12108:12554   */\n      iszero\n      tag_227\n      jumpi\n        /* \"#utility.yul\":12153:12191   */\n      tag_228\n        /* \"#utility.yul\":12185:12190   */\n      dup2\n        /* \"#utility.yul\":12153:12191   */\n      tag_84\n      jump\t// in\n    tag_228:\n        /* \"#utility.yul\":12237:12266   */\n      tag_229\n        /* \"#utility.yul\":12255:12265   */\n      dup5\n        /* \"#utility.yul\":12237:12266   */\n      tag_85\n      jump\t// in\n    tag_229:\n        /* \"#utility.yul\":12227:12235   */\n      dup2\n        /* \"#utility.yul\":12223:12267   */\n      add\n        /* \"#utility.yul\":12420:12422   */\n      0x20\n        /* \"#utility.yul\":12408:12418   */\n      dup6\n        /* \"#utility.yul\":12405:12423   */\n      lt\n        /* \"#utility.yul\":12402:12451   */\n      iszero\n      tag_230\n      jumpi\n        /* \"#utility.yul\":12441:12449   */\n      dup2\n        /* \"#utility.yul\":12426:12449   */\n      swap1\n      pop\n        /* \"#utility.yul\":12402:12451   */\n    tag_230:\n        /* \"#utility.yul\":12464:12544   */\n      tag_231\n        /* \"#utility.yul\":12520:12542   */\n      tag_232\n        /* \"#utility.yul\":12538:12541   */\n      dup6\n        /* \"#utility.yul\":12520:12542   */\n      tag_85\n      jump\t// in\n    tag_232:\n        /* \"#utility.yul\":12510:12518   */\n      dup4\n        /* \"#utility.yul\":12506:12543   */\n      add\n        /* \"#utility.yul\":12493:12504   */\n      dup3\n        /* \"#utility.yul\":12464:12544   */\n      tag_94\n      jump\t// in\n    tag_231:\n        /* \"#utility.yul\":12123:12554   */\n      pop\n      pop\n        /* \"#utility.yul\":12108:12554   */\n    tag_227:\n        /* \"#utility.yul\":12018:12561   */\n      pop\n      pop\n      pop\n      jump\t// out\n        /* \"#utility.yul\":12567:12684   */\n    tag_96:\n        /* \"#utility.yul\":12621:12629   */\n      0x00\n        /* \"#utility.yul\":12671:12676   */\n      dup3\n        /* \"#utility.yul\":12665:12669   */\n      dup3\n        /* \"#utility.yul\":12661:12677   */\n      shr\n        /* \"#utility.yul\":12640:12677   */\n      swap1\n      pop\n        /* \"#utility.yul\":12567:12684   */\n      swap3\n      swap2\n      pop\n      pop\n      jump\t// out\n        /* \"#utility.yul\":12690:12859   */\n    tag_97:\n        /* \"#utility.yul\":12734:12740   */\n      0x00\n        /* \"#utility.yul\":12767:12818   */\n      tag_235\n        /* \"#utility.yul\":12815:12816   */\n      0x00\n        /* \"#utility.yul\":12811:12817   */\n      not\n        /* \"#utility.yul\":12803:12808   */\n      dup5\n        /* \"#utility.yul\":12800:12801   */\n      0x08\n        /* \"#utility.yul\":12796:12809   */\n      mul\n        /* \"#utility.yul\":12767:12818   */\n      tag_96\n      jump\t// in\n    tag_235:\n        /* \"#utility.yul\":12763:12819   */\n      not\n        /* \"#utility.yul\":12848:12852   */\n      dup1\n        /* \"#utility.yul\":12842:12846   */\n      dup4\n        /* \"#utility.yul\":12838:12853   */\n      and\n        /* \"#utility.yul\":12828:12853   */\n      swap2\n      pop\n        /* \"#utility.yul\":12741:12859   */\n      pop\n        /* \"#utility.yul\":12690:12859   */\n      swap3\n      swap2\n      pop\n      pop\n      jump\t// out\n        /* \"#utility.yul\":12864:13159   */\n    tag_98:\n        /* \"#utility.yul\":12940:12944   */\n      0x00\n        /* \"#utility.yul\":13086:13115   */\n      tag_237\n        /* \"#utility.yul\":13111:13114   */\n      dup4\n        /* \"#utility.yul\":13105:13109   */\n      dup4\n        /* \"#utility.yul\":13086:13115   */\n      tag_97\n      jump\t// in\n    tag_237:\n        /* \"#utility.yul\":13078:13115   */\n      swap2\n      pop\n        /* \"#utility.yul\":13148:13151   */\n      dup3\n        /* \"#utility.yul\":13145:13146   */\n      0x02\n        /* \"#utility.yul\":13141:13152   */\n      mul\n        /* \"#utility.yul\":13135:13139   */\n      dup3\n        /* \"#utility.yul\":13132:13153   */\n      or\n        /* \"#utility.yul\":13124:13153   */\n      swap1\n      pop\n        /* \"#utility.yul\":12864:13159   */\n      swap3\n      swap2\n      pop\n      pop\n      jump\t// out\n        /* \"#utility.yul\":13164:14559   */\n    tag_51:\n        /* \"#utility.yul\":13281:13318   */\n      tag_239\n        /* \"#utility.yul\":13314:13317   */\n      dup3\n        /* \"#utility.yul\":13281:13318   */\n      tag_59\n      jump\t// in\n    tag_239:\n        /* \"#utility.yul\":13383:13401   */\n      0xffffffffffffffff\n        /* \"#utility.yul\":13375:13381   */\n      dup2\n        /* \"#utility.yul\":13372:13402   */\n      gt\n        /* \"#utility.yul\":13369:13425   */\n      iszero\n      tag_240\n      jumpi\n        /* \"#utility.yul\":13405:13423   */\n      tag_241\n      tag_30\n      jump\t// in\n    tag_241:\n        /* \"#utility.yul\":13369:13425   */\n    tag_240:\n        /* \"#utility.yul\":13449:13487   */\n      tag_242\n        /* \"#utility.yul\":13481:13485   */\n      dup3\n        /* \"#utility.yul\":13475:13486   */\n      sload\n        /* \"#utility.yul\":13449:13487   */\n      tag_22\n      jump\t// in\n    tag_242:\n        /* \"#utility.yul\":13534:13601   */\n      tag_243\n        /* \"#utility.yul\":13594:13600   */\n      dup3\n        /* \"#utility.yul\":13586:13592   */\n      dup3\n        /* \"#utility.yul\":13580:13584   */\n      dup6\n        /* \"#utility.yul\":13534:13601   */\n      tag_95\n      jump\t// in\n    tag_243:\n        /* \"#utility.yul\":13628:13629   */\n      0x00\n        /* \"#utility.yul\":13652:13656   */\n      0x20\n        /* \"#utility.yul\":13639:13656   */\n      swap1\n      pop\n        /* \"#utility.yul\":13684:13686   */\n      0x1f\n        /* \"#utility.yul\":13676:13682   */\n      dup4\n        /* \"#utility.yul\":13673:13687   */\n      gt\n        /* \"#utility.yul\":13701:13702   */\n      0x01\n        /* \"#utility.yul\":13696:14314   */\n      dup2\n      eq\n      tag_245\n      jumpi\n        /* \"#utility.yul\":14358:14359   */\n      0x00\n        /* \"#utility.yul\":14375:14381   */\n      dup5\n        /* \"#utility.yul\":14372:14449   */\n      iszero\n      tag_246\n      jumpi\n        /* \"#utility.yul\":14424:14433   */\n      dup3\n        /* \"#utility.yul\":14419:14422   */\n      dup8\n        /* \"#utility.yul\":14415:14434   */\n      add\n        /* \"#utility.yul\":14409:14435   */\n      mload\n        /* \"#utility.yul\":14400:14435   */\n      swap1\n      pop\n        /* \"#utility.yul\":14372:14449   */\n    tag_246:\n        /* \"#utility.yul\":14475:14542   */\n      tag_247\n        /* \"#utility.yul\":14535:14541   */\n      dup6\n        /* \"#utility.yul\":14528:14533   */\n      dup3\n        /* \"#utility.yul\":14475:14542   */\n      tag_98\n      jump\t// in\n    tag_247:\n        /* \"#utility.yul\":14469:14473   */\n      dup7\n        /* \"#utility.yul\":14462:14543   */\n      sstore\n        /* \"#utility.yul\":14331:14553   */\n      pop\n        /* \"#utility.yul\":13666:14553   */\n      jump(tag_244)\n        /* \"#utility.yul\":13696:14314   */\n    tag_245:\n        /* \"#utility.yul\":13748:13752   */\n      0x1f\n        /* \"#utility.yul\":13744:13753   */\n      not\n        /* \"#utility.yul\":13736:13742   */\n      dup5\n        /* \"#utility.yul\":13732:13754   */\n      and\n        /* \"#utility.yul\":13782:13819   */\n      tag_248\n        /* \"#utility.yul\":13814:13818   */\n      dup7\n        /* \"#utility.yul\":13782:13819   */\n      tag_84\n      jump\t// in\n    tag_248:\n        /* \"#utility.yul\":13841:13842   */\n      0x00\n        /* \"#utility.yul\":13855:14063   */\n    tag_249:\n        /* \"#utility.yul\":13869:13876   */\n      dup3\n        /* \"#utility.yul\":13866:13867   */\n      dup2\n        /* \"#utility.yul\":13863:13877   */\n      lt\n        /* \"#utility.yul\":13855:14063   */\n      iszero\n      tag_251\n      jumpi\n        /* \"#utility.yul\":13948:13957   */\n      dup5\n        /* \"#utility.yul\":13943:13946   */\n      dup10\n        /* \"#utility.yul\":13939:13958   */\n      add\n        /* \"#utility.yul\":13933:13959   */\n      mload\n        /* \"#utility.yul\":13925:13931   */\n      dup3\n        /* \"#utility.yul\":13918:13960   */\n      sstore\n        /* \"#utility.yul\":13999:14000   */\n      0x01\n        /* \"#utility.yul\":13991:13997   */\n      dup3\n        /* \"#utility.yul\":13987:14001   */\n      add\n        /* \"#utility.yul\":13977:14001   */\n      swap2\n      pop\n        /* \"#utility.yul\":14046:14048   */\n      0x20\n        /* \"#utility.yul\":14035:14044   */\n      dup6\n        /* \"#utility.yul\":14031:14049   */\n      add\n        /* \"#utility.yul\":14018:14049   */\n      swap5\n      pop\n        /* \"#utility.yul\":13892:13896   */\n      0x20\n        /* \"#utility.yul\":13889:13890   */\n      dup2\n        /* \"#utility.yul\":13885:13897   */\n      add\n        /* \"#utility.yul\":13880:13897   */\n      swap1\n      pop\n        /* \"#utility.yul\":13855:14063   */\n      jump(tag_249)\n    tag_251:\n        /* \"#utility.yul\":14091:14097   */\n      dup7\n        /* \"#utility.yul\":14082:14089   */\n      dup4\n        /* \"#utility.yul\":14079:14098   */\n      lt\n        /* \"#utility.yul\":14076:14255   */\n      iszero\n      tag_252\n      jumpi\n        /* \"#utility.yul\":14149:14158   */\n      dup5\n        /* \"#utility.yul\":14144:14147   */\n      dup10\n        /* \"#utility.yul\":14140:14159   */\n      add\n        /* \"#utility.yul\":14134:14160   */\n      mload\n        /* \"#utility.yul\":14192:14240   */\n      tag_253\n        /* \"#utility.yul\":14234:14238   */\n      0x1f\n        /* \"#utility.yul\":14226:14232   */\n      dup10\n        /* \"#utility.yul\":14222:14239   */\n      and\n        /* \"#utility.yul\":14211:14220   */\n      dup3\n        /* \"#utility.yul\":14192:14240   */\n      tag_97\n      jump\t// in\n    tag_253:\n        /* \"#utility.yul\":14184:14190   */\n      dup4\n        /* \"#utility.yul\":14177:14241   */\n      sstore\n        /* \"#utility.yul\":14099:14255   */\n      pop\n        /* \"#utility.yul\":14076:14255   */\n    tag_252:\n        /* \"#utility.yul\":14301:14302   */\n      0x01\n        /* \"#utility.yul\":14297:14298   */\n      0x02\n        /* \"#utility.yul\":14289:14295   */\n      dup9\n        /* \"#utility.yul\":14285:14299   */\n      mul\n        /* \"#utility.yul\":14281:14303   */\n      add\n        /* \"#utility.yul\":14275:14279   */\n      dup9\n        /* \"#utility.yul\":14268:14304   */\n      sstore\n        /* \"#utility.yul\":13703:14314   */\n      pop\n      pop\n      pop\n        /* \"#utility.yul\":13666:14553   */\n    tag_244:\n      pop\n        /* \"#utility.yul\":13256:14559   */\n      pop\n      pop\n      pop\n        /* \"#utility.yul\":13164:14559   */\n      pop\n      pop\n      jump\t// out\n\n    auxdata: 0xa26469706673582212202e8fab42182507305309c56159fe9673439c8d20e3c1f695eb4031b22bbbb8ad64736f6c63430008120033\n}\n",
				"bytecode": {
					"linkReferences": {},
					"object": "608060405234801561001057600080fd5b50610b58806100206000396000f3fe608060405234801561001057600080fd5b50600436106100415760003560e01c80630ad2b739146100465780630b5379dd146100775780637230bce8146100a7575b600080fd5b610060600480360381019061005b9190610397565b6100c3565b60405161006e929190610463565b60405180910390f35b610091600480360381019061008c9190610397565b61016f565b60405161009e91906105eb565b60405180910390f35b6100c160048036038101906100bc9190610742565b6102e3565b005b60016020528060005260406000206000915090508060000154908060010180546100ec906107cd565b80601f0160208091040260200160405190810160405280929190818152602001828054610118906107cd565b80156101655780601f1061013a57610100808354040283529160200191610165565b820191906000526020600020905b81548152906001019060200180831161014857829003601f168201915b5050505050905082565b606060008267ffffffffffffffff81111561018d5761018c610617565b5b6040519080825280602002602001820160405280156101c657816020015b6101b3610333565b8152602001906001900390816101ab5790505b50905060008060005490505b6000548110156102d8576000600160008381526020019081526020016000209050604051806040016040528082600001548152602001826001018054610217906107cd565b80601f0160208091040260200160405190810160405280929190818152602001828054610243906107cd565b80156102905780601f1061026557610100808354040283529160200191610290565b820191906000526020600020905b81548152906001019060200180831161027357829003601f168201915b50505050508152508484815181106102ab576102aa6107fe565b5b602002602001018190525082806102c19061085c565b9350505080806102d09061085c565b9150506101d2565b508192505050919050565b604051806040016040528083815260200182815250600160008054815260200190815260200160002060008201518160000155602082015181600101908161032b9190610a50565b509050505050565b604051806040016040528060008152602001606081525090565b6000604051905090565b600080fd5b600080fd5b6000819050919050565b61037481610361565b811461037f57600080fd5b50565b6000813590506103918161036b565b92915050565b6000602082840312156103ad576103ac610357565b5b60006103bb84828501610382565b91505092915050565b6103cd81610361565b82525050565b600081519050919050565b600082825260208201905092915050565b60005b8381101561040d5780820151818401526020810190506103f2565b60008484015250505050565b6000601f19601f8301169050919050565b6000610435826103d3565b61043f81856103de565b935061044f8185602086016103ef565b61045881610419565b840191505092915050565b600060408201905061047860008301856103c4565b818103602083015261048a818461042a565b90509392505050565b600081519050919050565b600082825260208201905092915050565b6000819050602082019050919050565b6104c881610361565b82525050565b600082825260208201905092915050565b60006104ea826103d3565b6104f481856104ce565b93506105048185602086016103ef565b61050d81610419565b840191505092915050565b600060408301600083015161053060008601826104bf565b506020830151848203602086015261054882826104df565b9150508091505092915050565b60006105618383610518565b905092915050565b6000602082019050919050565b600061058182610493565b61058b818561049e565b93508360208202850161059d856104af565b8060005b858110156105d957848403895281516105ba8582610555565b94506105c583610569565b925060208a019950506001810190506105a1565b50829750879550505050505092915050565b600060208201905081810360008301526106058184610576565b905092915050565b600080fd5b600080fd5b7f4e487b7100000000000000000000000000000000000000000000000000000000600052604160045260246000fd5b61064f82610419565b810181811067ffffffffffffffff8211171561066e5761066d610617565b5b80604052505050565b600061068161034d565b905061068d8282610646565b919050565b600067ffffffffffffffff8211156106ad576106ac610617565b5b6106b682610419565b9050602081019050919050565b82818337600083830152505050565b60006106e56106e084610692565b610677565b90508281526020810184848401111561070157610700610612565b5b61070c8482856106c3565b509392505050565b600082601f8301126107295761072861060d565b5b81356107398482602086016106d2565b91505092915050565b6000806040838503121561075957610758610357565b5b600061076785828601610382565b925050602083013567ffffffffffffffff8111156107885761078761035c565b5b61079485828601610714565b9150509250929050565b7f4e487b7100000000000000000000000000000000000000000000000000000000600052602260045260246000fd5b600060028204905060018216806107e557607f821691505b6020821081036107f8576107f761079e565b5b50919050565b7f4e487b7100000000000000000000000000000000000000000000000000000000600052603260045260246000fd5b7f4e487b7100000000000000000000000000000000000000000000000000000000600052601160045260246000fd5b600061086782610361565b91507fffffffffffffffffffffffffffffffffffffffffffffffffffffffffffffffff82036108995761089861082d565b5b600182019050919050565b60008190508160005260206000209050919050565b60006020601f8301049050919050565b600082821b905092915050565b6000600883026109067fffffffffffffffffffffffffffffffffffffffffffffffffffffffffffffffff826108c9565b61091086836108c9565b95508019841693508086168417925050509392505050565b6000819050919050565b600061094d61094861094384610361565b610928565b610361565b9050919050565b6000819050919050565b61096783610932565b61097b61097382610954565b8484546108d6565b825550505050565b600090565b610990610983565b61099b81848461095e565b505050565b5b818110156109bf576109b4600082610988565b6001810190506109a1565b5050565b601f821115610a04576109d5816108a4565b6109de846108b9565b810160208510156109ed578190505b610a016109f9856108b9565b8301826109a0565b50505b505050565b600082821c905092915050565b6000610a2760001984600802610a09565b1980831691505092915050565b6000610a408383610a16565b9150826002028217905092915050565b610a59826103d3565b67ffffffffffffffff811115610a7257610a71610617565b5b610a7c82546107cd565b610a878282856109c3565b600060209050601f831160018114610aba5760008415610aa8578287015190505b610ab28582610a34565b865550610b1a565b601f198416610ac8866108a4565b60005b82811015610af057848901518255600182019150602085019450602081019050610acb565b86831015610b0d5784890151610b09601f891682610a16565b8355505b6001600288020188555050505b50505050505056fea26469706673582212202e8fab42182507305309c56159fe9673439c8d20e3c1f695eb4031b22bbbb8ad64736f6c63430008120033",
					"opcodes": "PUSH1 0x80 PUSH1 0x40 MSTORE CALLVALUE DUP1 ISZERO PUSH2 0x10 JUMPI PUSH1 0x0 DUP1 REVERT JUMPDEST POP PUSH2 0xB58 DUP1 PUSH2 0x20 PUSH1 0x0 CODECOPY PUSH1 0x0 RETURN INVALID PUSH1 0x80 PUSH1 0x40 MSTORE CALLVALUE DUP1 ISZERO PUSH2 0x10 JUMPI PUSH1 0x0 DUP1 REVERT JUMPDEST POP PUSH1 0x4 CALLDATASIZE LT PUSH2 0x41 JUMPI PUSH1 0x0 CALLDATALOAD PUSH1 0xE0 SHR DUP1 PUSH4 0xAD2B739 EQ PUSH2 0x46 JUMPI DUP1 PUSH4 0xB5379DD EQ PUSH2 0x77 JUMPI DUP1 PUSH4 0x7230BCE8 EQ PUSH2 0xA7 JUMPI JUMPDEST PUSH1 0x0 DUP1 REVERT JUMPDEST PUSH2 0x60 PUSH1 0x4 DUP1 CALLDATASIZE SUB DUP2 ADD SWAP1 PUSH2 0x5B SWAP2 SWAP1 PUSH2 0x397 JUMP JUMPDEST PUSH2 0xC3 JUMP JUMPDEST PUSH1 0x40 MLOAD PUSH2 0x6E SWAP3 SWAP2 SWAP1 PUSH2 0x463 JUMP JUMPDEST PUSH1 0x40 MLOAD DUP1 SWAP2 SUB SWAP1 RETURN JUMPDEST PUSH2 0x91 PUSH1 0x4 DUP1 CALLDATASIZE SUB DUP2 ADD SWAP1 PUSH2 0x8C SWAP2 SWAP1 PUSH2 0x397 JUMP JUMPDEST PUSH2 0x16F JUMP JUMPDEST PUSH1 0x40 MLOAD PUSH2 0x9E SWAP2 SWAP1 PUSH2 0x5EB JUMP JUMPDEST PUSH1 0x40 MLOAD DUP1 SWAP2 SUB SWAP1 RETURN JUMPDEST PUSH2 0xC1 PUSH1 0x4 DUP1 CALLDATASIZE SUB DUP2 ADD SWAP1 PUSH2 0xBC SWAP2 SWAP1 PUSH2 0x742 JUMP JUMPDEST PUSH2 0x2E3 JUMP JUMPDEST STOP JUMPDEST PUSH1 0x1 PUSH1 0x20 MSTORE DUP1 PUSH1 0x0 MSTORE PUSH1 0x40 PUSH1 0x0 KECCAK256 PUSH1 0x0 SWAP2 POP SWAP1 POP DUP1 PUSH1 0x0 ADD SLOAD SWAP1 DUP1 PUSH1 0x1 ADD DUP1 SLOAD PUSH2 0xEC SWAP1 PUSH2 0x7CD JUMP JUMPDEST DUP1 PUSH1 0x1F ADD PUSH1 0x20 DUP1 SWAP2 DIV MUL PUSH1 0x20 ADD PUSH1 0x40 MLOAD SWAP1 DUP2 ADD PUSH1 0x40 MSTORE DUP1 SWAP3 SWAP2 SWAP1 DUP2 DUP2 MSTORE PUSH1 0x20 ADD DUP3 DUP1 SLOAD PUSH2 0x118 SWAP1 PUSH2 0x7CD JUMP JUMPDEST DUP1 ISZERO PUSH2 0x165 JUMPI DUP1 PUSH1 0x1F LT PUSH2 0x13A JUMPI PUSH2 0x100 DUP1 DUP4 SLOAD DIV MUL DUP4 MSTORE SWAP2 PUSH1 0x20 ADD SWAP2 PUSH2 0x165 JUMP JUMPDEST DUP3 ADD SWAP2 SWAP1 PUSH1 0x0 MSTORE PUSH1 0x20 PUSH1 0x0 KECCAK256 SWAP1 JUMPDEST DUP2 SLOAD DUP2 MSTORE SWAP1 PUSH1 0x1 ADD SWAP1 PUSH1 0x20 ADD DUP1 DUP4 GT PUSH2 0x148 JUMPI DUP3 SWAP1 SUB PUSH1 0x1F AND DUP3 ADD SWAP2 JUMPDEST POP POP POP POP POP SWAP1 POP DUP3 JUMP JUMPDEST PUSH1 0x60 PUSH1 0x0 DUP3 PUSH8 0xFFFFFFFFFFFFFFFF DUP2 GT ISZERO PUSH2 0x18D JUMPI PUSH2 0x18C PUSH2 0x617 JUMP JUMPDEST JUMPDEST PUSH1 0x40 MLOAD SWAP1 DUP1 DUP3 MSTORE DUP1 PUSH1 0x20 MUL PUSH1 0x20 ADD DUP3 ADD PUSH1 0x40 MSTORE DUP1 ISZERO PUSH2 0x1C6 JUMPI DUP2 PUSH1 0x20 ADD JUMPDEST PUSH2 0x1B3 PUSH2 0x333 JUMP JUMPDEST DUP2 MSTORE PUSH1 0x20 ADD SWAP1 PUSH1 0x1 SWAP1 SUB SWAP1 DUP2 PUSH2 0x1AB JUMPI SWAP1 POP JUMPDEST POP SWAP1 POP PUSH1 0x0 DUP1 PUSH1 0x0 SLOAD SWAP1 POP JUMPDEST PUSH1 0x0 SLOAD DUP2 LT ISZERO PUSH2 0x2D8 JUMPI PUSH1 0x0 PUSH1 0x1 PUSH1 0x0 DUP4 DUP2 MSTORE PUSH1 0x20 ADD SWAP1 DUP2 MSTORE PUSH1 0x20 ADD PUSH1 0x0 KECCAK256 SWAP1 POP PUSH1 0x40 MLOAD DUP1 PUSH1 0x40 ADD PUSH1 0x40 MSTORE DUP1 DUP3 PUSH1 0x0 ADD SLOAD DUP2 MSTORE PUSH1 0x20 ADD DUP3 PUSH1 0x1 ADD DUP1 SLOAD PUSH2 0x217 SWAP1 PUSH2 0x7CD JUMP JUMPDEST DUP1 PUSH1 0x1F ADD PUSH1 0x20 DUP1 SWAP2 DIV MUL PUSH1 0x20 ADD PUSH1 0x40 MLOAD SWAP1 DUP2 ADD PUSH1 0x40 MSTORE DUP1 SWAP3 SWAP2 SWAP1 DUP2 DUP2 MSTORE PUSH1 0x20 ADD DUP3 DUP1 SLOAD PUSH2 0x243 SWAP1 PUSH2 0x7CD JUMP JUMPDEST DUP1 ISZERO PUSH2 0x290 JUMPI DUP1 PUSH1 0x1F LT PUSH2 0x265 JUMPI PUSH2 0x100 DUP1 DUP4 SLOAD DIV MUL DUP4 MSTORE SWAP2 PUSH1 0x20 ADD SWAP2 PUSH2 0x290 JUMP JUMPDEST DUP3 ADD SWAP2 SWAP1 PUSH1 0x0 MSTORE PUSH1 0x20 PUSH1 0x0 KECCAK256 SWAP1 JUMPDEST DUP2 SLOAD DUP2 MSTORE SWAP1 PUSH1 0x1 ADD SWAP1 PUSH1 0x20 ADD DUP1 DUP4 GT PUSH2 0x273 JUMPI DUP3 SWAP1 SUB PUSH1 0x1F AND DUP3 ADD SWAP2 JUMPDEST POP POP POP POP POP DUP2 MSTORE POP DUP5 DUP5 DUP2 MLOAD DUP2 LT PUSH2 0x2AB JUMPI PUSH2 0x2AA PUSH2 0x7FE JUMP JUMPDEST JUMPDEST PUSH1 0x20 MUL PUSH1 0x20 ADD ADD DUP2 SWAP1 MSTORE POP DUP3 DUP1 PUSH2 0x2C1 SWAP1 PUSH2 0x85C JUMP JUMPDEST SWAP4 POP POP POP DUP1 DUP1 PUSH2 0x2D0 SWAP1 PUSH2 0x85C JUMP JUMPDEST SWAP2 POP POP PUSH2 0x1D2 JUMP JUMPDEST POP DUP2 SWAP3 POP POP POP SWAP2 SWAP1 POP JUMP JUMPDEST PUSH1 0x40 MLOAD DUP1 PUSH1 0x40 ADD PUSH1 0x40 MSTORE DUP1 DUP4 DUP2 MSTORE PUSH1 0x20 ADD DUP3 DUP2 MSTORE POP PUSH1 0x1 PUSH1 0x0 DUP1 SLOAD DUP2 MSTORE PUSH1 0x20 ADD SWAP1 DUP2 MSTORE PUSH1 0x20 ADD PUSH1 0x0 KECCAK256 PUSH1 0x0 DUP3 ADD MLOAD DUP2 PUSH1 0x0 ADD SSTORE PUSH1 0x20 DUP3 ADD MLOAD DUP2 PUSH1 0x1 ADD SWAP1 DUP2 PUSH2 0x32B SWAP2 SWAP1 PUSH2 0xA50 JUMP JUMPDEST POP SWAP1 POP POP POP POP JUMP JUMPDEST PUSH1 0x40 MLOAD DUP1 PUSH1 0x40 ADD PUSH1 0x40 MSTORE DUP1 PUSH1 0x0 DUP2 MSTORE PUSH1 0x20 ADD PUSH1 0x60 DUP2 MSTORE POP SWAP1 JUMP JUMPDEST PUSH1 0x0 PUSH1 0x40 MLOAD SWAP1 POP SWAP1 JUMP JUMPDEST PUSH1 0x0 DUP1 REVERT JUMPDEST PUSH1 0x0 DUP1 REVERT JUMPDEST PUSH1 0x0 DUP2 SWAP1 POP SWAP2 SWAP1 POP JUMP JUMPDEST PUSH2 0x374 DUP2 PUSH2 0x361 JUMP JUMPDEST DUP2 EQ PUSH2 0x37F JUMPI PUSH1 0x0 DUP1 REVERT JUMPDEST POP JUMP JUMPDEST PUSH1 0x0 DUP2 CALLDATALOAD SWAP1 POP PUSH2 0x391 DUP2 PUSH2 0x36B JUMP JUMPDEST SWAP3 SWAP2 POP POP JUMP JUMPDEST PUSH1 0x0 PUSH1 0x20 DUP3 DUP5 SUB SLT ISZERO PUSH2 0x3AD JUMPI PUSH2 0x3AC PUSH2 0x357 JUMP JUMPDEST JUMPDEST PUSH1 0x0 PUSH2 0x3BB DUP5 DUP3 DUP6 ADD PUSH2 0x382 JUMP JUMPDEST SWAP2 POP POP SWAP3 SWAP2 POP POP JUMP JUMPDEST PUSH2 0x3CD DUP2 PUSH2 0x361 JUMP JUMPDEST DUP3 MSTORE POP POP JUMP JUMPDEST PUSH1 0x0 DUP2 MLOAD SWAP1 POP SWAP2 SWAP1 POP JUMP JUMPDEST PUSH1 0x0 DUP3 DUP3 MSTORE PUSH1 0x20 DUP3 ADD SWAP1 POP SWAP3 SWAP2 POP POP JUMP JUMPDEST PUSH1 0x0 JUMPDEST DUP4 DUP2 LT ISZERO PUSH2 0x40D JUMPI DUP1 DUP3 ADD MLOAD DUP2 DUP5 ADD MSTORE PUSH1 0x20 DUP2 ADD SWAP1 POP PUSH2 0x3F2 JUMP JUMPDEST PUSH1 0x0 DUP5 DUP5 ADD MSTORE POP POP POP POP JUMP JUMPDEST PUSH1 0x0 PUSH1 0x1F NOT PUSH1 0x1F DUP4 ADD AND SWAP1 POP SWAP2 SWAP1 POP JUMP JUMPDEST PUSH1 0x0 PUSH2 0x435 DUP3 PUSH2 0x3D3 JUMP JUMPDEST PUSH2 0x43F DUP2 DUP6 PUSH2 0x3DE JUMP JUMPDEST SWAP4 POP PUSH2 0x44F DUP2 DUP6 PUSH1 0x20 DUP7 ADD PUSH2 0x3EF JUMP JUMPDEST PUSH2 0x458 DUP2 PUSH2 0x419 JUMP JUMPDEST DUP5 ADD SWAP2 POP POP SWAP3 SWAP2 POP POP JUMP JUMPDEST PUSH1 0x0 PUSH1 0x40 DUP3 ADD SWAP1 POP PUSH2 0x478 PUSH1 0x0 DUP4 ADD DUP6 PUSH2 0x3C4 JUMP JUMPDEST DUP2 DUP2 SUB PUSH1 0x20 DUP4 ADD MSTORE PUSH2 0x48A DUP2 DUP5 PUSH2 0x42A JUMP JUMPDEST SWAP1 POP SWAP4 SWAP3 POP POP POP JUMP JUMPDEST PUSH1 0x0 DUP2 MLOAD SWAP1 POP SWAP2 SWAP1 POP JUMP JUMPDEST PUSH1 0x0 DUP3 DUP3 MSTORE PUSH1 0x20 DUP3 ADD SWAP1 POP SWAP3 SWAP2 POP POP JUMP JUMPDEST PUSH1 0x0 DUP2 SWAP1 POP PUSH1 0x20 DUP3 ADD SWAP1 POP SWAP2 SWAP1 POP JUMP JUMPDEST PUSH2 0x4C8 DUP2 PUSH2 0x361 JUMP JUMPDEST DUP3 MSTORE POP POP JUMP JUMPDEST PUSH1 0x0 DUP3 DUP3 MSTORE PUSH1 0x20 DUP3 ADD SWAP1 POP SWAP3 SWAP2 POP POP JUMP JUMPDEST PUSH1 0x0 PUSH2 0x4EA DUP3 PUSH2 0x3D3 JUMP JUMPDEST PUSH2 0x4F4 DUP2 DUP6 PUSH2 0x4CE JUMP JUMPDEST SWAP4 POP PUSH2 0x504 DUP2 DUP6 PUSH1 0x20 DUP7 ADD PUSH2 0x3EF JUMP JUMPDEST PUSH2 0x50D DUP2 PUSH2 0x419 JUMP JUMPDEST DUP5 ADD SWAP2 POP POP SWAP3 SWAP2 POP POP JUMP JUMPDEST PUSH1 0x0 PUSH1 0x40 DUP4 ADD PUSH1 0x0 DUP4 ADD MLOAD PUSH2 0x530 PUSH1 0x0 DUP7 ADD DUP3 PUSH2 0x4BF JUMP JUMPDEST POP PUSH1 0x20 DUP4 ADD MLOAD DUP5 DUP3 SUB PUSH1 0x20 DUP7 ADD MSTORE PUSH2 0x548 DUP3 DUP3 PUSH2 0x4DF JUMP JUMPDEST SWAP2 POP POP DUP1 SWAP2 POP POP SWAP3 SWAP2 POP POP JUMP JUMPDEST PUSH1 0x0 PUSH2 0x561 DUP4 DUP4 PUSH2 0x518 JUMP JUMPDEST SWAP1 POP SWAP3 SWAP2 POP POP JUMP JUMPDEST PUSH1 0x0 PUSH1 0x20 DUP3 ADD SWAP1 POP SWAP2 SWAP1 POP JUMP JUMPDEST PUSH1 0x0 PUSH2 0x581 DUP3 PUSH2 0x493 JUMP JUMPDEST PUSH2 0x58B DUP2 DUP6 PUSH2 0x49E JUMP JUMPDEST SWAP4 POP DUP4 PUSH1 0x20 DUP3 MUL DUP6 ADD PUSH2 0x59D DUP6 PUSH2 0x4AF JUMP JUMPDEST DUP1 PUSH1 0x0 JUMPDEST DUP6 DUP2 LT ISZERO PUSH2 0x5D9 JUMPI DUP5 DUP5 SUB DUP10 MSTORE DUP2 MLOAD PUSH2 0x5BA DUP6 DUP3 PUSH2 0x555 JUMP JUMPDEST SWAP5 POP PUSH2 0x5C5 DUP4 PUSH2 0x569 JUMP JUMPDEST SWAP3 POP PUSH1 0x20 DUP11 ADD SWAP10 POP POP PUSH1 0x1 DUP2 ADD SWAP1 POP PUSH2 0x5A1 JUMP JUMPDEST POP DUP3 SWAP8 POP DUP8 SWAP6 POP POP POP POP POP POP SWAP3 SWAP2 POP POP JUMP JUMPDEST PUSH1 0x0 PUSH1 0x20 DUP3 ADD SWAP1 POP DUP2 DUP2 SUB PUSH1 0x0 DUP4 ADD MSTORE PUSH2 0x605 DUP2 DUP5 PUSH2 0x576 JUMP JUMPDEST SWAP1 POP SWAP3 SWAP2 POP POP JUMP JUMPDEST PUSH1 0x0 DUP1 REVERT JUMPDEST PUSH1 0x0 DUP1 REVERT JUMPDEST PUSH32 0x4E487B7100000000000000000000000000000000000000000000000000000000 PUSH1 0x0 MSTORE PUSH1 0x41 PUSH1 0x4 MSTORE PUSH1 0x24 PUSH1 0x0 REVERT JUMPDEST PUSH2 0x64F DUP3 PUSH2 0x419 JUMP JUMPDEST DUP2 ADD DUP2 DUP2 LT PUSH8 0xFFFFFFFFFFFFFFFF DUP3 GT OR ISZERO PUSH2 0x66E JUMPI PUSH2 0x66D PUSH2 0x617 JUMP JUMPDEST JUMPDEST DUP1 PUSH1 0x40 MSTORE POP POP POP JUMP JUMPDEST PUSH1 0x0 PUSH2 0x681 PUSH2 0x34D JUMP JUMPDEST SWAP1 POP PUSH2 0x68D DUP3 DUP3 PUSH2 0x646 JUMP JUMPDEST SWAP2 SWAP1 POP JUMP JUMPDEST PUSH1 0x0 PUSH8 0xFFFFFFFFFFFFFFFF DUP3 GT ISZERO PUSH2 0x6AD JUMPI PUSH2 0x6AC PUSH2 0x617 JUMP JUMPDEST JUMPDEST PUSH2 0x6B6 DUP3 PUSH2 0x419 JUMP JUMPDEST SWAP1 POP PUSH1 0x20 DUP2 ADD SWAP1 POP SWAP2 SWAP1 POP JUMP JUMPDEST DUP3 DUP2 DUP4 CALLDATACOPY PUSH1 0x0 DUP4 DUP4 ADD MSTORE POP POP POP JUMP JUMPDEST PUSH1 0x0 PUSH2 0x6E5 PUSH2 0x6E0 DUP5 PUSH2 0x692 JUMP JUMPDEST PUSH2 0x677 JUMP JUMPDEST SWAP1 POP DUP3 DUP2 MSTORE PUSH1 0x20 DUP2 ADD DUP5 DUP5 DUP5 ADD GT ISZERO PUSH2 0x701 JUMPI PUSH2 0x700 PUSH2 0x612 JUMP JUMPDEST JUMPDEST PUSH2 0x70C DUP5 DUP3 DUP6 PUSH2 0x6C3 JUMP JUMPDEST POP SWAP4 SWAP3 POP POP POP JUMP JUMPDEST PUSH1 0x0 DUP3 PUSH1 0x1F DUP4 ADD SLT PUSH2 0x729 JUMPI PUSH2 0x728 PUSH2 0x60D JUMP JUMPDEST JUMPDEST DUP2 CALLDATALOAD PUSH2 0x739 DUP5 DUP3 PUSH1 0x20 DUP7 ADD PUSH2 0x6D2 JUMP JUMPDEST SWAP2 POP POP SWAP3 SWAP2 POP POP JUMP JUMPDEST PUSH1 0x0 DUP1 PUSH1 0x40 DUP4 DUP6 SUB SLT ISZERO PUSH2 0x759 JUMPI PUSH2 0x758 PUSH2 0x357 JUMP JUMPDEST JUMPDEST PUSH1 0x0 PUSH2 0x767 DUP6 DUP3 DUP7 ADD PUSH2 0x382 JUMP JUMPDEST SWAP3 POP POP PUSH1 0x20 DUP4 ADD CALLDATALOAD PUSH8 0xFFFFFFFFFFFFFFFF DUP2 GT ISZERO PUSH2 0x788 JUMPI PUSH2 0x787 PUSH2 0x35C JUMP JUMPDEST JUMPDEST PUSH2 0x794 DUP6 DUP3 DUP7 ADD PUSH2 0x714 JUMP JUMPDEST SWAP2 POP POP SWAP3 POP SWAP3 SWAP1 POP JUMP JUMPDEST PUSH32 0x4E487B7100000000000000000000000000000000000000000000000000000000 PUSH1 0x0 MSTORE PUSH1 0x22 PUSH1 0x4 MSTORE PUSH1 0x24 PUSH1 0x0 REVERT JUMPDEST PUSH1 0x0 PUSH1 0x2 DUP3 DIV SWAP1 POP PUSH1 0x1 DUP3 AND DUP1 PUSH2 0x7E5 JUMPI PUSH1 0x7F DUP3 AND SWAP2 POP JUMPDEST PUSH1 0x20 DUP3 LT DUP2 SUB PUSH2 0x7F8 JUMPI PUSH2 0x7F7 PUSH2 0x79E JUMP JUMPDEST JUMPDEST POP SWAP2 SWAP1 POP JUMP JUMPDEST PUSH32 0x4E487B7100000000000000000000000000000000000000000000000000000000 PUSH1 0x0 MSTORE PUSH1 0x32 PUSH1 0x4 MSTORE PUSH1 0x24 PUSH1 0x0 REVERT JUMPDEST PUSH32 0x4E487B7100000000000000000000000000000000000000000000000000000000 PUSH1 0x0 MSTORE PUSH1 0x11 PUSH1 0x4 MSTORE PUSH1 0x24 PUSH1 0x0 REVERT JUMPDEST PUSH1 0x0 PUSH2 0x867 DUP3 PUSH2 0x361 JUMP JUMPDEST SWAP2 POP PUSH32 0xFFFFFFFFFFFFFFFFFFFFFFFFFFFFFFFFFFFFFFFFFFFFFFFFFFFFFFFFFFFFFFFF DUP3 SUB PUSH2 0x899 JUMPI PUSH2 0x898 PUSH2 0x82D JUMP JUMPDEST JUMPDEST PUSH1 0x1 DUP3 ADD SWAP1 POP SWAP2 SWAP1 POP JUMP JUMPDEST PUSH1 0x0 DUP2 SWAP1 POP DUP2 PUSH1 0x0 MSTORE PUSH1 0x20 PUSH1 0x0 KECCAK256 SWAP1 POP SWAP2 SWAP1 POP JUMP JUMPDEST PUSH1 0x0 PUSH1 0x20 PUSH1 0x1F DUP4 ADD DIV SWAP1 POP SWAP2 SWAP1 POP JUMP JUMPDEST PUSH1 0x0 DUP3 DUP3 SHL SWAP1 POP SWAP3 SWAP2 POP POP JUMP JUMPDEST PUSH1 0x0 PUSH1 0x8 DUP4 MUL PUSH2 0x906 PUSH32 0xFFFFFFFFFFFFFFFFFFFFFFFFFFFFFFFFFFFFFFFFFFFFFFFFFFFFFFFFFFFFFFFF DUP3 PUSH2 0x8C9 JUMP JUMPDEST PUSH2 0x910 DUP7 DUP4 PUSH2 0x8C9 JUMP JUMPDEST SWAP6 POP DUP1 NOT DUP5 AND SWAP4 POP DUP1 DUP7 AND DUP5 OR SWAP3 POP POP POP SWAP4 SWAP3 POP POP POP JUMP JUMPDEST PUSH1 0x0 DUP2 SWAP1 POP SWAP2 SWAP1 POP JUMP JUMPDEST PUSH1 0x0 PUSH2 0x94D PUSH2 0x948 PUSH2 0x943 DUP5 PUSH2 0x361 JUMP JUMPDEST PUSH2 0x928 JUMP JUMPDEST PUSH2 0x361 JUMP JUMPDEST SWAP1 POP SWAP2 SWAP1 POP JUMP JUMPDEST PUSH1 0x0 DUP2 SWAP1 POP SWAP2 SWAP1 POP JUMP JUMPDEST PUSH2 0x967 DUP4 PUSH2 0x932 JUMP JUMPDEST PUSH2 0x97B PUSH2 0x973 DUP3 PUSH2 0x954 JUMP JUMPDEST DUP5 DUP5 SLOAD PUSH2 0x8D6 JUMP JUMPDEST DUP3 SSTORE POP POP POP POP JUMP JUMPDEST PUSH1 0x0 SWAP1 JUMP JUMPDEST PUSH2 0x990 PUSH2 0x983 JUMP JUMPDEST PUSH2 0x99B DUP2 DUP5 DUP5 PUSH2 0x95E JUMP JUMPDEST POP POP POP JUMP JUMPDEST JUMPDEST DUP2 DUP2 LT ISZERO PUSH2 0x9BF JUMPI PUSH2 0x9B4 PUSH1 0x0 DUP3 PUSH2 0x988 JUMP JUMPDEST PUSH1 0x1 DUP2 ADD SWAP1 POP PUSH2 0x9A1 JUMP JUMPDEST POP POP JUMP JUMPDEST PUSH1 0x1F DUP3 GT ISZERO PUSH2 0xA04 JUMPI PUSH2 0x9D5 DUP2 PUSH2 0x8A4 JUMP JUMPDEST PUSH2 0x9DE DUP5 PUSH2 0x8B9 JUMP JUMPDEST DUP2 ADD PUSH1 0x20 DUP6 LT ISZERO PUSH2 0x9ED JUMPI DUP2 SWAP1 POP JUMPDEST PUSH2 0xA01 PUSH2 0x9F9 DUP6 PUSH2 0x8B9 JUMP JUMPDEST DUP4 ADD DUP3 PUSH2 0x9A0 JUMP JUMPDEST POP POP JUMPDEST POP POP POP JUMP JUMPDEST PUSH1 0x0 DUP3 DUP3 SHR SWAP1 POP SWAP3 SWAP2 POP POP JUMP JUMPDEST PUSH1 0x0 PUSH2 0xA27 PUSH1 0x0 NOT DUP5 PUSH1 0x8 MUL PUSH2 0xA09 JUMP JUMPDEST NOT DUP1 DUP4 AND SWAP2 POP POP SWAP3 SWAP2 POP POP JUMP JUMPDEST PUSH1 0x0 PUSH2 0xA40 DUP4 DUP4 PUSH2 0xA16 JUMP JUMPDEST SWAP2 POP DUP3 PUSH1 0x2 MUL DUP3 OR SWAP1 POP SWAP3 SWAP2 POP POP JUMP JUMPDEST PUSH2 0xA59 DUP3 PUSH2 0x3D3 JUMP JUMPDEST PUSH8 0xFFFFFFFFFFFFFFFF DUP2 GT ISZERO PUSH2 0xA72 JUMPI PUSH2 0xA71 PUSH2 0x617 JUMP JUMPDEST JUMPDEST PUSH2 0xA7C DUP3 SLOAD PUSH2 0x7CD JUMP JUMPDEST PUSH2 0xA87 DUP3 DUP3 DUP6 PUSH2 0x9C3 JUMP JUMPDEST PUSH1 0x0 PUSH1 0x20 SWAP1 POP PUSH1 0x1F DUP4 GT PUSH1 0x1 DUP2 EQ PUSH2 0xABA JUMPI PUSH1 0x0 DUP5 ISZERO PUSH2 0xAA8 JUMPI DUP3 DUP8 ADD MLOAD SWAP1 POP JUMPDEST PUSH2 0xAB2 DUP6 DUP3 PUSH2 0xA34 JUMP JUMPDEST DUP7 SSTORE POP PUSH2 0xB1A JUMP JUMPDEST PUSH1 0x1F NOT DUP5 AND PUSH2 0xAC8 DUP7 PUSH2 0x8A4 JUMP JUMPDEST PUSH1 0x0 JUMPDEST DUP3 DUP2 LT ISZERO PUSH2 0xAF0 JUMPI DUP5 DUP10 ADD MLOAD DUP3 SSTORE PUSH1 0x1 DUP3 ADD SWAP2 POP PUSH1 0x20 DUP6 ADD SWAP5 POP PUSH1 0x20 DUP2 ADD SWAP1 POP PUSH2 0xACB JUMP JUMPDEST DUP7 DUP4 LT ISZERO PUSH2 0xB0D JUMPI DUP5 DUP10 ADD MLOAD PUSH2 0xB09 PUSH1 0x1F DUP10 AND DUP3 PUSH2 0xA16 JUMP JUMPDEST DUP4 SSTORE POP JUMPDEST PUSH1 0x1 PUSH1 0x2 DUP9 MUL ADD DUP9 SSTORE POP POP POP JUMPDEST POP POP POP POP POP POP JUMP INVALID LOG2 PUSH5 0x6970667358 0x22 SLT KECCAK256 0x2E DUP16 0xAB TIMESTAMP XOR 0x25 SMOD ADDRESS MSTORE8 MULMOD 0xC5 PUSH2 0x59FE SWAP7 PUSH20 0x439C8D20E3C1F695EB4031B22BBBB8AD64736F6C PUSH4 0x43000812 STOP CALLER "
				},
				"gasEstimates": {
					"creation": {
						"codeDepositCost": "580800",
						"executionCost": "613",
						"totalCost": "581413"
					},
					"external": {
						"add(uint256,string)": "infinite",
						"getalldata(uint256)": "infinite",
						"getdata(uint256)": "infinite"
					}
				},
				"methodIdentifiers": {
					"add(uint256,string)": "7230bce8",
					"getalldata(uint256)": "0b5379dd",
					"getdata(uint256)": "0ad2b739"
				}
			},
			"storageLayout": {
				"storage": [
					{
						"astId": 8,
						"contract": "p2.sol:arrr",
						"label": "id",
						"offset": 0,
						"slot": "0",
						"type": "t_uint256"
					},
					{
						"astId": 13,
						"contract": "p2.sol:arrr",
						"label": "getdata",
						"offset": 0,
						"slot": "1",
						"type": "t_mapping(t_uint256,t_struct(data)6_storage)"
					}
				],
				"types": {
					"t_mapping(t_uint256,t_struct(data)6_storage)": {
						"encoding": "mapping",
						"key": "t_uint256",
						"label": "mapping(uint256 => struct arrr.data)",
						"numberOfBytes": "32",
						"value": "t_struct(data)6_storage"
					},
					"t_string_storage": {
						"encoding": "bytes",
						"label": "string",
						"numberOfBytes": "32"
					},
					"t_struct(data)6_storage": {
						"encoding": "inplace",
						"label": "struct arrr.data",
						"members": [
							{
								"astId": 3,
								"contract": "p2.sol:arrr",
								"label": "roll",
								"offset": 0,
								"slot": "0",
								"type": "t_uint256"
							},
							{
								"astId": 5,
								"contract": "p2.sol:arrr",
								"label": "name",
								"offset": 0,
								"slot": "1",
								"type": "t_string_storage"
							}
						],
						"numberOfBytes": "64"
					},
					"t_uint256": {
						"encoding": "inplace",
						"label": "uint256",
						"numberOfBytes": "32"
					}
				}
			},
			"userdoc": {
				"kind": "user",
				"methods": {},
				"version": 1
			}
		}
	}
}