{
	"Dao.sol": {
		"Dao_Project": {
			"abi": [
				{
					"inputs": [
						{
							"internalType": "uint256",
							"name": "_quoram",
							"type": "uint256"
						},
						{
							"internalType": "uint256",
							"name": "contribution_time",
							"type": "uint256"
						},
						{
							"internalType": "uint256",
							"name": "vote_time",
							"type": "uint256"
						}
					],
					"stateMutability": "nonpayable",
					"type": "constructor"
				},
				{
					"inputs": [],
					"name": "Contribution",
					"outputs": [],
					"stateMutability": "payable",
					"type": "function"
				},
				{
					"inputs": [
						{
							"internalType": "string",
							"name": "description",
							"type": "string"
						},
						{
							"internalType": "uint256",
							"name": "amount",
							"type": "uint256"
						},
						{
							"internalType": "address payable",
							"name": "receiver",
							"type": "address"
						}
					],
					"name": "Create_proposal",
					"outputs": [],
					"stateMutability": "nonpayable",
					"type": "function"
				},
				{
					"inputs": [
						{
							"internalType": "uint256",
							"name": "pid",
							"type": "uint256"
						}
					],
					"name": "Execute_Proposal",
					"outputs": [],
					"stateMutability": "nonpayable",
					"type": "function"
				},
				{
					"inputs": [],
					"name": "Fetch_All_Proposals",
					"outputs": [
						{
							"components": [
								{
									"internalType": "uint256",
									"name": "id",
									"type": "uint256"
								},
								{
									"internalType": "string",
									"name": "description",
									"type": "string"
								},
								{
									"internalType": "uint256",
									"name": "amount",
									"type": "uint256"
								},
								{
									"internalType": "address payable",
									"name": "receiver",
									"type": "address"
								},
								{
									"internalType": "uint256",
									"name": "votes",
									"type": "uint256"
								},
								{
									"internalType": "uint256",
									"name": "end",
									"type": "uint256"
								},
								{
									"internalType": "bool",
									"name": "executed",
									"type": "bool"
								}
							],
							"internalType": "struct Dao_Project.proposal[]",
							"name": "",
							"type": "tuple[]"
						}
					],
					"stateMutability": "view",
					"type": "function"
				},
				{
					"inputs": [
						{
							"internalType": "uint256",
							"name": "amount",
							"type": "uint256"
						}
					],
					"name": "Redeem_Shares",
					"outputs": [],
					"stateMutability": "nonpayable",
					"type": "function"
				},
				{
					"inputs": [
						{
							"internalType": "uint256",
							"name": "amount",
							"type": "uint256"
						},
						{
							"internalType": "address payable",
							"name": "receiver",
							"type": "address"
						}
					],
					"name": "Transfer_Share",
					"outputs": [],
					"stateMutability": "nonpayable",
					"type": "function"
				},
				{
					"inputs": [
						{
							"internalType": "uint256",
							"name": "pid",
							"type": "uint256"
						}
					],
					"name": "Vote_proposal",
					"outputs": [],
					"stateMutability": "nonpayable",
					"type": "function"
				},
				{
					"inputs": [
						{
							"internalType": "uint256",
							"name": "amount",
							"type": "uint256"
						},
						{
							"internalType": "address payable",
							"name": "receiver",
							"type": "address"
						}
					],
					"name": "_transfer",
					"outputs": [],
					"stateMutability": "nonpayable",
					"type": "function"
				},
				{
					"inputs": [],
					"name": "all_Investors",
					"outputs": [
						{
							"internalType": "address[]",
							"name": "",
							"type": "address[]"
						}
					],
					"stateMutability": "view",
					"type": "function"
				},
				{
					"inputs": [],
					"name": "contribution_Time_End",
					"outputs": [
						{
							"internalType": "uint256",
							"name": "",
							"type": "uint256"
						}
					],
					"stateMutability": "view",
					"type": "function"
				},
				{
					"inputs": [],
					"name": "funds",
					"outputs": [
						{
							"internalType": "uint256",
							"name": "",
							"type": "uint256"
						}
					],
					"stateMutability": "view",
					"type": "function"
				},
				{
					"inputs": [
						{
							"internalType": "uint256",
							"name": "",
							"type": "uint256"
						}
					],
					"name": "investors",
					"outputs": [
						{
							"internalType": "address",
							"name": "",
							"type": "address"
						}
					],
					"stateMutability": "view",
					"type": "function"
				},
				{
					"inputs": [],
					"name": "manager",
					"outputs": [
						{
							"internalType": "address",
							"name": "",
							"type": "address"
						}
					],
					"stateMutability": "view",
					"type": "function"
				},
				{
					"inputs": [],
					"name": "nextproposalid",
					"outputs": [
						{
							"internalType": "uint256",
							"name": "",
							"type": "uint256"
						}
					],
					"stateMutability": "view",
					"type": "function"
				},
				{
					"inputs": [
						{
							"internalType": "uint256",
							"name": "",
							"type": "uint256"
						}
					],
					"name": "proposal_List",
					"outputs": [
						{
							"internalType": "uint256",
							"name": "id",
							"type": "uint256"
						},
						{
							"internalType": "string",
							"name": "description",
							"type": "string"
						},
						{
							"internalType": "uint256",
							"name": "amount",
							"type": "uint256"
						},
						{
							"internalType": "address payable",
							"name": "receiver",
							"type": "address"
						},
						{
							"internalType": "uint256",
							"name": "votes",
							"type": "uint256"
						},
						{
							"internalType": "uint256",
							"name": "end",
							"type": "uint256"
						},
						{
							"internalType": "bool",
							"name": "executed",
							"type": "bool"
						}
					],
					"stateMutability": "view",
					"type": "function"
				},
				{
					"inputs": [],
					"name": "quoram",
					"outputs": [
						{
							"internalType": "uint256",
							"name": "",
							"type": "uint256"
						}
					],
					"stateMutability": "view",
					"type": "function"
				},
				{
					"inputs": [],
					"name": "total_shares",
					"outputs": [
						{
							"internalType": "uint256",
							"name": "",
							"type": "uint256"
						}
					],
					"stateMutability": "view",
					"type": "function"
				},
				{
					"inputs": [],
					"name": "voting_time",
					"outputs": [
						{
							"internalType": "uint256",
							"name": "",
							"type": "uint256"
						}
					],
					"stateMutability": "view",
					"type": "function"
				}
			],
			"devdoc": {
				"kind": "dev",
				"methods": {},
				"version": 1
			},
			"evm": {
				"assembly": "    /* \"Dao.sol\":70:4414  contract Dao_Project{... */\n  mstore(0x40, 0x80)\n    /* \"Dao.sol\":841:1067  constructor(uint _quoram,uint contribution_time,uint vote_time) {... */\n  callvalue\n  dup1\n  iszero\n  tag_1\n  jumpi\n  0x00\n  dup1\n  revert\ntag_1:\n  pop\n  mload(0x40)\n  sub(codesize, bytecodeSize)\n  dup1\n  bytecodeSize\n  dup4\n  codecopy\n  dup2\n  dup2\n  add\n  0x40\n  mstore\n  dup2\n  add\n  swap1\n  tag_2\n  swap2\n  swap1\n  tag_3\n  jump\t// in\ntag_2:\n    /* \"Dao.sol\":924:934  msg.sender */\n  caller\n    /* \"Dao.sol\":916:923  manager */\n  0x0b\n  0x00\n    /* \"Dao.sol\":916:934  manager=msg.sender */\n  0x0100\n  exp\n  dup2\n  sload\n  dup2\n  0xffffffffffffffffffffffffffffffffffffffff\n  mul\n  not\n  and\n  swap1\n  dup4\n  0xffffffffffffffffffffffffffffffffffffffff\n  and\n  mul\n  or\n  swap1\n  sstore\n  pop\n    /* \"Dao.sol\":952:959  _quoram */\n  dup3\n    /* \"Dao.sol\":945:951  quoram */\n  0x0c\n    /* \"Dao.sol\":945:959  quoram=_quoram */\n  dup2\n  swap1\n  sstore\n  pop\n    /* \"Dao.sol\":1008:1025  contribution_time */\n  dup2\n    /* \"Dao.sol\":992:1007  block.timestamp */\n  timestamp\n    /* \"Dao.sol\":992:1025  block.timestamp+contribution_time */\n  tag_6\n  swap2\n  swap1\n  tag_7\n  jump\t// in\ntag_6:\n    /* \"Dao.sol\":970:991  contribution_Time_End */\n  0x08\n    /* \"Dao.sol\":970:1025  contribution_Time_End=block.timestamp+contribution_time */\n  dup2\n  swap1\n  sstore\n  pop\n    /* \"Dao.sol\":1048:1057  vote_time */\n  dup1\n    /* \"Dao.sol\":1036:1047  voting_time */\n  0x09\n    /* \"Dao.sol\":1036:1057  voting_time=vote_time */\n  dup2\n  swap1\n  sstore\n  pop\n    /* \"Dao.sol\":841:1067  constructor(uint _quoram,uint contribution_time,uint vote_time) {... */\n  pop\n  pop\n  pop\n    /* \"Dao.sol\":70:4414  contract Dao_Project{... */\n  jump(tag_8)\n    /* \"#utility.yul\":88:205   */\ntag_10:\n    /* \"#utility.yul\":197:198   */\n  0x00\n    /* \"#utility.yul\":194:195   */\n  dup1\n    /* \"#utility.yul\":187:199   */\n  revert\n    /* \"#utility.yul\":334:411   */\ntag_12:\n    /* \"#utility.yul\":371:378   */\n  0x00\n    /* \"#utility.yul\":400:405   */\n  dup2\n    /* \"#utility.yul\":389:405   */\n  swap1\n  pop\n    /* \"#utility.yul\":334:411   */\n  swap2\n  swap1\n  pop\n  jump\t// out\n    /* \"#utility.yul\":417:539   */\ntag_13:\n    /* \"#utility.yul\":490:514   */\n  tag_22\n    /* \"#utility.yul\":508:513   */\n  dup2\n    /* \"#utility.yul\":490:514   */\n  tag_12\n  jump\t// in\ntag_22:\n    /* \"#utility.yul\":483:488   */\n  dup2\n    /* \"#utility.yul\":480:515   */\n  eq\n    /* \"#utility.yul\":470:533   */\n  tag_23\n  jumpi\n    /* \"#utility.yul\":529:530   */\n  0x00\n    /* \"#utility.yul\":526:527   */\n  dup1\n    /* \"#utility.yul\":519:531   */\n  revert\n    /* \"#utility.yul\":470:533   */\ntag_23:\n    /* \"#utility.yul\":417:539   */\n  pop\n  jump\t// out\n    /* \"#utility.yul\":545:688   */\ntag_14:\n    /* \"#utility.yul\":602:607   */\n  0x00\n    /* \"#utility.yul\":633:639   */\n  dup2\n    /* \"#utility.yul\":627:640   */\n  mload\n    /* \"#utility.yul\":618:640   */\n  swap1\n  pop\n    /* \"#utility.yul\":649:682   */\n  tag_25\n    /* \"#utility.yul\":676:681   */\n  dup2\n    /* \"#utility.yul\":649:682   */\n  tag_13\n  jump\t// in\ntag_25:\n    /* \"#utility.yul\":545:688   */\n  swap3\n  swap2\n  pop\n  pop\n  jump\t// out\n    /* \"#utility.yul\":694:1357   */\ntag_3:\n    /* \"#utility.yul\":782:788   */\n  0x00\n    /* \"#utility.yul\":790:796   */\n  dup1\n    /* \"#utility.yul\":798:804   */\n  0x00\n    /* \"#utility.yul\":847:849   */\n  0x60\n    /* \"#utility.yul\":835:844   */\n  dup5\n    /* \"#utility.yul\":826:833   */\n  dup7\n    /* \"#utility.yul\":822:845   */\n  sub\n    /* \"#utility.yul\":818:850   */\n  slt\n    /* \"#utility.yul\":815:934   */\n  iszero\n  tag_27\n  jumpi\n    /* \"#utility.yul\":853:932   */\n  tag_28\n  tag_10\n  jump\t// in\ntag_28:\n    /* \"#utility.yul\":815:934   */\ntag_27:\n    /* \"#utility.yul\":973:974   */\n  0x00\n    /* \"#utility.yul\":998:1062   */\n  tag_29\n    /* \"#utility.yul\":1054:1061   */\n  dup7\n    /* \"#utility.yul\":1045:1051   */\n  dup3\n    /* \"#utility.yul\":1034:1043   */\n  dup8\n    /* \"#utility.yul\":1030:1052   */\n  add\n    /* \"#utility.yul\":998:1062   */\n  tag_14\n  jump\t// in\ntag_29:\n    /* \"#utility.yul\":988:1062   */\n  swap4\n  pop\n    /* \"#utility.yul\":944:1072   */\n  pop\n    /* \"#utility.yul\":1111:1113   */\n  0x20\n    /* \"#utility.yul\":1137:1201   */\n  tag_30\n    /* \"#utility.yul\":1193:1200   */\n  dup7\n    /* \"#utility.yul\":1184:1190   */\n  dup3\n    /* \"#utility.yul\":1173:1182   */\n  dup8\n    /* \"#utility.yul\":1169:1191   */\n  add\n    /* \"#utility.yul\":1137:1201   */\n  tag_14\n  jump\t// in\ntag_30:\n    /* \"#utility.yul\":1127:1201   */\n  swap3\n  pop\n    /* \"#utility.yul\":1082:1211   */\n  pop\n    /* \"#utility.yul\":1250:1252   */\n  0x40\n    /* \"#utility.yul\":1276:1340   */\n  tag_31\n    /* \"#utility.yul\":1332:1339   */\n  dup7\n    /* \"#utility.yul\":1323:1329   */\n  dup3\n    /* \"#utility.yul\":1312:1321   */\n  dup8\n    /* \"#utility.yul\":1308:1330   */\n  add\n    /* \"#utility.yul\":1276:1340   */\n  tag_14\n  jump\t// in\ntag_31:\n    /* \"#utility.yul\":1266:1340   */\n  swap2\n  pop\n    /* \"#utility.yul\":1221:1350   */\n  pop\n    /* \"#utility.yul\":694:1357   */\n  swap3\n  pop\n  swap3\n  pop\n  swap3\n  jump\t// out\n    /* \"#utility.yul\":1363:1543   */\ntag_15:\n    /* \"#utility.yul\":1411:1488   */\n  0x4e487b7100000000000000000000000000000000000000000000000000000000\n    /* \"#utility.yul\":1408:1409   */\n  0x00\n    /* \"#utility.yul\":1401:1489   */\n  mstore\n    /* \"#utility.yul\":1508:1512   */\n  0x11\n    /* \"#utility.yul\":1505:1506   */\n  0x04\n    /* \"#utility.yul\":1498:1513   */\n  mstore\n    /* \"#utility.yul\":1532:1536   */\n  0x24\n    /* \"#utility.yul\":1529:1530   */\n  0x00\n    /* \"#utility.yul\":1522:1537   */\n  revert\n    /* \"#utility.yul\":1549:1740   */\ntag_7:\n    /* \"#utility.yul\":1589:1592   */\n  0x00\n    /* \"#utility.yul\":1608:1628   */\n  tag_34\n    /* \"#utility.yul\":1626:1627   */\n  dup3\n    /* \"#utility.yul\":1608:1628   */\n  tag_12\n  jump\t// in\ntag_34:\n    /* \"#utility.yul\":1603:1628   */\n  swap2\n  pop\n    /* \"#utility.yul\":1642:1662   */\n  tag_35\n    /* \"#utility.yul\":1660:1661   */\n  dup4\n    /* \"#utility.yul\":1642:1662   */\n  tag_12\n  jump\t// in\ntag_35:\n    /* \"#utility.yul\":1637:1662   */\n  swap3\n  pop\n    /* \"#utility.yul\":1685:1686   */\n  dup3\n    /* \"#utility.yul\":1682:1683   */\n  dup3\n    /* \"#utility.yul\":1678:1687   */\n  add\n    /* \"#utility.yul\":1671:1687   */\n  swap1\n  pop\n    /* \"#utility.yul\":1706:1709   */\n  dup1\n    /* \"#utility.yul\":1703:1704   */\n  dup3\n    /* \"#utility.yul\":1700:1710   */\n  gt\n    /* \"#utility.yul\":1697:1733   */\n  iszero\n  tag_36\n  jumpi\n    /* \"#utility.yul\":1713:1731   */\n  tag_37\n  tag_15\n  jump\t// in\ntag_37:\n    /* \"#utility.yul\":1697:1733   */\ntag_36:\n    /* \"#utility.yul\":1549:1740   */\n  swap3\n  swap2\n  pop\n  pop\n  jump\t// out\n    /* \"Dao.sol\":70:4414  contract Dao_Project{... */\ntag_8:\n  dataSize(sub_0)\n  dup1\n  dataOffset(sub_0)\n  0x00\n  codecopy\n  0x00\n  return\nstop\n\nsub_0: assembly {\n        /* \"Dao.sol\":70:4414  contract Dao_Project{... */\n      mstore(0x40, 0x80)\n      jumpi(tag_1, lt(calldatasize, 0x04))\n      shr(0xe0, calldataload(0x00))\n      dup1\n      0x877b4690\n      gt\n      tag_20\n      jumpi\n      dup1\n      0xc89f2ce4\n      gt\n      tag_21\n      jumpi\n      dup1\n      0xc89f2ce4\n      eq\n      tag_15\n      jumpi\n      dup1\n      0xd3319d82\n      eq\n      tag_16\n      jumpi\n      dup1\n      0xf17ef3c1\n      eq\n      tag_17\n      jumpi\n      dup1\n      0xf70d7a5b\n      eq\n      tag_18\n      jumpi\n      dup1\n      0xfb65e4b1\n      eq\n      tag_19\n      jumpi\n      jump(tag_1)\n    tag_21:\n      dup1\n      0x877b4690\n      eq\n      tag_11\n      jumpi\n      dup1\n      0x8be14e1e\n      eq\n      tag_12\n      jumpi\n      dup1\n      0xb3f793e4\n      eq\n      tag_13\n      jumpi\n      dup1\n      0xbef53a25\n      eq\n      tag_14\n      jumpi\n      jump(tag_1)\n    tag_20:\n      dup1\n      0x44e9e4d6\n      gt\n      tag_22\n      jumpi\n      dup1\n      0x44e9e4d6\n      eq\n      tag_6\n      jumpi\n      dup1\n      0x481c6a75\n      eq\n      tag_7\n      jumpi\n      dup1\n      0x514bbd0b\n      eq\n      tag_8\n      jumpi\n      dup1\n      0x6e6f951a\n      eq\n      tag_9\n      jumpi\n      dup1\n      0x7678c038\n      eq\n      tag_10\n      jumpi\n      jump(tag_1)\n    tag_22:\n      dup1\n      0x17d892da\n      eq\n      tag_2\n      jumpi\n      dup1\n      0x1942c3ce\n      eq\n      tag_3\n      jumpi\n      dup1\n      0x3642a100\n      eq\n      tag_4\n      jumpi\n      dup1\n      0x3feb5f2b\n      eq\n      tag_5\n      jumpi\n    tag_1:\n      0x00\n      dup1\n      revert\n        /* \"Dao.sol\":722:745  uint public voting_time */\n    tag_2:\n      callvalue\n      dup1\n      iszero\n      tag_23\n      jumpi\n      0x00\n      dup1\n      revert\n    tag_23:\n      pop\n      tag_24\n      tag_25\n      jump\t// in\n    tag_24:\n      mload(0x40)\n      tag_26\n      swap2\n      swap1\n      tag_27\n      jump\t// in\n    tag_26:\n      mload(0x40)\n      dup1\n      swap2\n      sub\n      swap1\n      return\n        /* \"Dao.sol\":3700:3816  function _transfer(uint amount ,address payable receiver) public{... */\n    tag_3:\n      callvalue\n      dup1\n      iszero\n      tag_28\n      jumpi\n      0x00\n      dup1\n      revert\n    tag_28:\n      pop\n      tag_29\n      0x04\n      dup1\n      calldatasize\n      sub\n      dup2\n      add\n      swap1\n      tag_30\n      swap2\n      swap1\n      tag_31\n      jump\t// in\n    tag_30:\n      tag_32\n      jump\t// in\n    tag_29:\n      stop\n        /* \"Dao.sol\":540:585  mapping(uint=> proposal) public proposal_List */\n    tag_4:\n      callvalue\n      dup1\n      iszero\n      tag_33\n      jumpi\n      0x00\n      dup1\n      revert\n    tag_33:\n      pop\n      tag_34\n      0x04\n      dup1\n      calldatasize\n      sub\n      dup2\n      add\n      swap1\n      tag_35\n      swap2\n      swap1\n      tag_36\n      jump\t// in\n    tag_35:\n      tag_37\n      jump\t// in\n    tag_34:\n      mload(0x40)\n      tag_38\n      swap8\n      swap7\n      swap6\n      swap5\n      swap4\n      swap3\n      swap2\n      swap1\n      tag_39\n      jump\t// in\n    tag_38:\n      mload(0x40)\n      dup1\n      swap2\n      sub\n      swap1\n      return\n        /* \"Dao.sol\":507:533  address[] public investors */\n    tag_5:\n      callvalue\n      dup1\n      iszero\n      tag_40\n      jumpi\n      0x00\n      dup1\n      revert\n    tag_40:\n      pop\n      tag_41\n      0x04\n      dup1\n      calldatasize\n      sub\n      dup2\n      add\n      swap1\n      tag_42\n      swap2\n      swap1\n      tag_36\n      jump\t// in\n    tag_42:\n      tag_43\n      jump\t// in\n    tag_41:\n      mload(0x40)\n      tag_44\n      swap2\n      swap1\n      tag_45\n      jump\t// in\n    tag_44:\n      mload(0x40)\n      dup1\n      swap2\n      sub\n      swap1\n      return\n        /* \"Dao.sol\":3344:3690  function Execute_Proposal(uint pid) onlymanager public {... */\n    tag_6:\n      callvalue\n      dup1\n      iszero\n      tag_46\n      jumpi\n      0x00\n      dup1\n      revert\n    tag_46:\n      pop\n      tag_47\n      0x04\n      dup1\n      calldatasize\n      sub\n      dup2\n      add\n      swap1\n      tag_48\n      swap2\n      swap1\n      tag_36\n      jump\t// in\n    tag_48:\n      tag_49\n      jump\t// in\n    tag_47:\n      stop\n        /* \"Dao.sol\":785:807  address public manager */\n    tag_7:\n      callvalue\n      dup1\n      iszero\n      tag_50\n      jumpi\n      0x00\n      dup1\n      revert\n    tag_50:\n      pop\n      tag_51\n      tag_52\n      jump\t// in\n    tag_51:\n      mload(0x40)\n      tag_53\n      swap2\n      swap1\n      tag_45\n      jump\t// in\n    tag_53:\n      mload(0x40)\n      dup1\n      swap2\n      sub\n      swap1\n      return\n        /* \"Dao.sol\":1666:2055  function Redeem_Shares(uint amount) public {... */\n    tag_8:\n      callvalue\n      dup1\n      iszero\n      tag_54\n      jumpi\n      0x00\n      dup1\n      revert\n    tag_54:\n      pop\n      tag_55\n      0x04\n      dup1\n      calldatasize\n      sub\n      dup2\n      add\n      swap1\n      tag_56\n      swap2\n      swap1\n      tag_36\n      jump\t// in\n    tag_56:\n      tag_57\n      jump\t// in\n    tag_55:\n      stop\n        /* \"Dao.sol\":814:832  uint public quoram */\n    tag_9:\n      callvalue\n      dup1\n      iszero\n      tag_58\n      jumpi\n      0x00\n      dup1\n      revert\n    tag_58:\n      pop\n      tag_59\n      tag_60\n      jump\t// in\n    tag_59:\n      mload(0x40)\n      tag_61\n      swap2\n      swap1\n      tag_27\n      jump\t// in\n    tag_61:\n      mload(0x40)\n      dup1\n      swap2\n      sub\n      swap1\n      return\n        /* \"Dao.sol\":651:675  uint public total_shares */\n    tag_10:\n      callvalue\n      dup1\n      iszero\n      tag_62\n      jumpi\n      0x00\n      dup1\n      revert\n    tag_62:\n      pop\n      tag_63\n      tag_64\n      jump\t// in\n    tag_63:\n      mload(0x40)\n      tag_65\n      swap2\n      swap1\n      tag_27\n      jump\t// in\n    tag_65:\n      mload(0x40)\n      dup1\n      swap2\n      sub\n      swap1\n      return\n        /* \"Dao.sol\":4312:4409  function all_Investors() public view returns(address[] memory){... */\n    tag_11:\n      callvalue\n      dup1\n      iszero\n      tag_66\n      jumpi\n      0x00\n      dup1\n      revert\n    tag_66:\n      pop\n      tag_67\n      tag_68\n      jump\t// in\n    tag_67:\n      mload(0x40)\n      tag_69\n      swap2\n      swap1\n      tag_70\n      jump\t// in\n    tag_69:\n      mload(0x40)\n      dup1\n      swap2\n      sub\n      swap1\n      return\n        /* \"Dao.sol\":2861:3336  function Vote_proposal(uint pid) public onlyinvestor {... */\n    tag_12:\n      callvalue\n      dup1\n      iszero\n      tag_71\n      jumpi\n      0x00\n      dup1\n      revert\n    tag_71:\n      pop\n      tag_72\n      0x04\n      dup1\n      calldatasize\n      sub\n      dup2\n      add\n      swap1\n      tag_73\n      swap2\n      swap1\n      tag_36\n      jump\t// in\n    tag_73:\n      tag_74\n      jump\t// in\n    tag_72:\n      stop\n        /* \"Dao.sol\":2063:2518  function Transfer_Share(uint amount, address payable receiver) public {... */\n    tag_13:\n      callvalue\n      dup1\n      iszero\n      tag_75\n      jumpi\n      0x00\n      dup1\n      revert\n    tag_75:\n      pop\n      tag_76\n      0x04\n      dup1\n      calldatasize\n      sub\n      dup2\n      add\n      swap1\n      tag_77\n      swap2\n      swap1\n      tag_31\n      jump\t// in\n    tag_77:\n      tag_78\n      jump\t// in\n    tag_76:\n      stop\n        /* \"Dao.sol\":682:715  uint public contribution_Time_End */\n    tag_14:\n      callvalue\n      dup1\n      iszero\n      tag_79\n      jumpi\n      0x00\n      dup1\n      revert\n    tag_79:\n      pop\n      tag_80\n      tag_81\n      jump\t// in\n    tag_80:\n      mload(0x40)\n      tag_82\n      swap2\n      swap1\n      tag_27\n      jump\t// in\n    tag_82:\n      mload(0x40)\n      dup1\n      swap2\n      sub\n      swap1\n      return\n        /* \"Dao.sol\":627:644  uint public funds */\n    tag_15:\n      callvalue\n      dup1\n      iszero\n      tag_83\n      jumpi\n      0x00\n      dup1\n      revert\n    tag_83:\n      pop\n      tag_84\n      tag_85\n      jump\t// in\n    tag_84:\n      mload(0x40)\n      tag_86\n      swap2\n      swap1\n      tag_27\n      jump\t// in\n    tag_86:\n      mload(0x40)\n      dup1\n      swap2\n      sub\n      swap1\n      return\n        /* \"Dao.sol\":3824:4306  function Fetch_All_Proposals() public view returns(proposal[] memory) {... */\n    tag_16:\n      callvalue\n      dup1\n      iszero\n      tag_87\n      jumpi\n      0x00\n      dup1\n      revert\n    tag_87:\n      pop\n      tag_88\n      tag_89\n      jump\t// in\n    tag_88:\n      mload(0x40)\n      tag_90\n      swap2\n      swap1\n      tag_91\n      jump\t// in\n    tag_90:\n      mload(0x40)\n      dup1\n      swap2\n      sub\n      swap1\n      return\n        /* \"Dao.sol\":2526:2853  function Create_proposal(string calldata description,uint amount, address payable receiver) public onlymanager{... */\n    tag_17:\n      callvalue\n      dup1\n      iszero\n      tag_92\n      jumpi\n      0x00\n      dup1\n      revert\n    tag_92:\n      pop\n      tag_93\n      0x04\n      dup1\n      calldatasize\n      sub\n      dup2\n      add\n      swap1\n      tag_94\n      swap2\n      swap1\n      tag_95\n      jump\t// in\n    tag_94:\n      tag_96\n      jump\t// in\n    tag_93:\n      stop\n        /* \"Dao.sol\":752:778  uint public nextproposalid */\n    tag_18:\n      callvalue\n      dup1\n      iszero\n      tag_97\n      jumpi\n      0x00\n      dup1\n      revert\n    tag_97:\n      pop\n      tag_98\n      tag_99\n      jump\t// in\n    tag_98:\n      mload(0x40)\n      tag_100\n      swap2\n      swap1\n      tag_27\n      jump\t// in\n    tag_100:\n      mload(0x40)\n      dup1\n      swap2\n      sub\n      swap1\n      return\n        /* \"Dao.sol\":1300:1658  function Contribution() public payable  {... */\n    tag_19:\n      tag_101\n      tag_102\n      jump\t// in\n    tag_101:\n      stop\n        /* \"Dao.sol\":722:745  uint public voting_time */\n    tag_25:\n      sload(0x09)\n      dup2\n      jump\t// out\n        /* \"Dao.sol\":3700:3816  function _transfer(uint amount ,address payable receiver) public{... */\n    tag_32:\n        /* \"Dao.sol\":3779:3787  receiver */\n      dup1\n        /* \"Dao.sol\":3779:3796  receiver.transfer */\n      0xffffffffffffffffffffffffffffffffffffffff\n      and\n        /* \"Dao.sol\":3779:3804  receiver.transfer(amount) */\n      0x08fc\n        /* \"Dao.sol\":3797:3803  amount */\n      dup4\n        /* \"Dao.sol\":3779:3804  receiver.transfer(amount) */\n      swap1\n      dup2\n      iszero\n      mul\n      swap1\n      mload(0x40)\n      0x00\n      mload(0x40)\n      dup1\n      dup4\n      sub\n      dup2\n      dup6\n      dup9\n      dup9\n      call\n      swap4\n      pop\n      pop\n      pop\n      pop\n      iszero\n      dup1\n      iszero\n      tag_105\n      jumpi\n      returndatasize\n      0x00\n      dup1\n      returndatacopy\n      revert(0x00, returndatasize)\n    tag_105:\n      pop\n        /* \"Dao.sol\":3700:3816  function _transfer(uint amount ,address payable receiver) public{... */\n      pop\n      pop\n      jump\t// out\n        /* \"Dao.sol\":540:585  mapping(uint=> proposal) public proposal_List */\n    tag_37:\n      mstore(0x20, 0x05)\n      dup1\n      0x00\n      mstore\n      keccak256(0x00, 0x40)\n      0x00\n      swap2\n      pop\n      swap1\n      pop\n      dup1\n      0x00\n      add\n      sload\n      swap1\n      dup1\n      0x01\n      add\n      dup1\n      sload\n      tag_106\n      swap1\n      tag_107\n      jump\t// in\n    tag_106:\n      dup1\n      0x1f\n      add\n      0x20\n      dup1\n      swap2\n      div\n      mul\n      0x20\n      add\n      mload(0x40)\n      swap1\n      dup2\n      add\n      0x40\n      mstore\n      dup1\n      swap3\n      swap2\n      swap1\n      dup2\n      dup2\n      mstore\n      0x20\n      add\n      dup3\n      dup1\n      sload\n      tag_108\n      swap1\n      tag_107\n      jump\t// in\n    tag_108:\n      dup1\n      iszero\n      tag_109\n      jumpi\n      dup1\n      0x1f\n      lt\n      tag_110\n      jumpi\n      0x0100\n      dup1\n      dup4\n      sload\n      div\n      mul\n      dup4\n      mstore\n      swap2\n      0x20\n      add\n      swap2\n      jump(tag_109)\n    tag_110:\n      dup3\n      add\n      swap2\n      swap1\n      0x00\n      mstore\n      keccak256(0x00, 0x20)\n      swap1\n    tag_111:\n      dup2\n      sload\n      dup2\n      mstore\n      swap1\n      0x01\n      add\n      swap1\n      0x20\n      add\n      dup1\n      dup4\n      gt\n      tag_111\n      jumpi\n      dup3\n      swap1\n      sub\n      0x1f\n      and\n      dup3\n      add\n      swap2\n    tag_109:\n      pop\n      pop\n      pop\n      pop\n      pop\n      swap1\n      dup1\n      0x02\n      add\n      sload\n      swap1\n      dup1\n      0x03\n      add\n      0x00\n      swap1\n      sload\n      swap1\n      0x0100\n      exp\n      swap1\n      div\n      0xffffffffffffffffffffffffffffffffffffffff\n      and\n      swap1\n      dup1\n      0x04\n      add\n      sload\n      swap1\n      dup1\n      0x05\n      add\n      sload\n      swap1\n      dup1\n      0x06\n      add\n      0x00\n      swap1\n      sload\n      swap1\n      0x0100\n      exp\n      swap1\n      div\n      0xff\n      and\n      swap1\n      pop\n      dup8\n      jump\t// out\n        /* \"Dao.sol\":507:533  address[] public investors */\n    tag_43:\n      0x04\n      dup2\n      dup2\n      sload\n      dup2\n      lt\n      tag_112\n      jumpi\n      0x00\n      dup1\n      revert\n    tag_112:\n      swap1\n      0x00\n      mstore\n      keccak256(0x00, 0x20)\n      add\n      0x00\n      swap2\n      pop\n      sload\n      swap1\n      0x0100\n      exp\n      swap1\n      div\n      0xffffffffffffffffffffffffffffffffffffffff\n      and\n      dup2\n      jump\t// out\n        /* \"Dao.sol\":3344:3690  function Execute_Proposal(uint pid) onlymanager public {... */\n    tag_49:\n        /* \"Dao.sol\":1238:1248  msg.sender */\n      caller\n        /* \"Dao.sol\":1229:1248  manager==msg.sender */\n      0xffffffffffffffffffffffffffffffffffffffff\n      and\n        /* \"Dao.sol\":1229:1236  manager */\n      0x0b\n      0x00\n      swap1\n      sload\n      swap1\n      0x0100\n      exp\n      swap1\n      div\n      0xffffffffffffffffffffffffffffffffffffffff\n      and\n        /* \"Dao.sol\":1229:1248  manager==msg.sender */\n      0xffffffffffffffffffffffffffffffffffffffff\n      and\n      eq\n        /* \"Dao.sol\":1221:1272  require(manager==msg.sender, \"You are not manager\") */\n      tag_115\n      jumpi\n      mload(0x40)\n      0x08c379a000000000000000000000000000000000000000000000000000000000\n      dup2\n      mstore\n      0x04\n      add\n      tag_116\n      swap1\n      tag_117\n      jump\t// in\n    tag_116:\n      mload(0x40)\n      dup1\n      swap2\n      sub\n      swap1\n      revert\n    tag_115:\n        /* \"Dao.sol\":3410:3436  proposal storage structure */\n      0x00\n        /* \"Dao.sol\":3438:3451  proposal_List */\n      0x05\n        /* \"Dao.sol\":3438:3456  proposal_List[pid] */\n      0x00\n        /* \"Dao.sol\":3452:3455  pid */\n      dup4\n        /* \"Dao.sol\":3438:3456  proposal_List[pid] */\n      dup2\n      mstore\n      0x20\n      add\n      swap1\n      dup2\n      mstore\n      0x20\n      add\n      0x00\n      keccak256\n        /* \"Dao.sol\":3410:3456  proposal storage structure= proposal_List[pid] */\n      swap1\n      pop\n        /* \"Dao.sol\":3512:3518  quoram */\n      sload(0x0c)\n        /* \"Dao.sol\":3498:3510  total_shares */\n      sload(0x07)\n        /* \"Dao.sol\":3493:3496  100 */\n      0x64\n        /* \"Dao.sol\":3477:3486  structure */\n      dup4\n        /* \"Dao.sol\":3477:3492  structure.votes */\n      0x04\n      add\n      sload\n        /* \"Dao.sol\":3477:3496  structure.votes*100 */\n      tag_119\n      swap2\n      swap1\n      tag_120\n      jump\t// in\n    tag_119:\n        /* \"Dao.sol\":3476:3510  (structure.votes*100)/total_shares */\n      tag_121\n      swap2\n      swap1\n      tag_122\n      jump\t// in\n    tag_121:\n        /* \"Dao.sol\":3475:3518  ((structure.votes*100)/total_shares)>quoram */\n      gt\n        /* \"Dao.sol\":3467:3548  require(((structure.votes*100)/total_shares)>quoram, \"Majority doesnot supports\") */\n      tag_123\n      jumpi\n      mload(0x40)\n      0x08c379a000000000000000000000000000000000000000000000000000000000\n      dup2\n      mstore\n      0x04\n      add\n      tag_124\n      swap1\n      tag_125\n      jump\t// in\n    tag_124:\n      mload(0x40)\n      dup1\n      swap2\n      sub\n      swap1\n      revert\n    tag_123:\n        /* \"Dao.sol\":3579:3583  true */\n      0x01\n        /* \"Dao.sol\":3559:3583  structure.executed==true */\n      iszero\n      iszero\n        /* \"Dao.sol\":3559:3568  structure */\n      dup2\n        /* \"Dao.sol\":3559:3577  structure.executed */\n      0x06\n      add\n      0x00\n      swap1\n      sload\n      swap1\n      0x0100\n      exp\n      swap1\n      pop\n      pop\n        /* \"Dao.sol\":3559:3583  structure.executed==true */\n      pop\n        /* \"Dao.sol\":3601:3610  structure */\n      dup1\n        /* \"Dao.sol\":3601:3617  structure.amount */\n      0x02\n      add\n      sload\n        /* \"Dao.sol\":3594:3599  funds */\n      0x06\n      0x00\n        /* \"Dao.sol\":3594:3617  funds-=structure.amount */\n      dup3\n      dup3\n      sload\n      tag_126\n      swap2\n      swap1\n      tag_127\n      jump\t// in\n    tag_126:\n      swap3\n      pop\n      pop\n      dup2\n      swap1\n      sstore\n      pop\n        /* \"Dao.sol\":3630:3676  _transfer(structure.amount,structure.receiver) */\n      tag_128\n        /* \"Dao.sol\":3640:3649  structure */\n      dup2\n        /* \"Dao.sol\":3640:3656  structure.amount */\n      0x02\n      add\n      sload\n        /* \"Dao.sol\":3657:3666  structure */\n      dup3\n        /* \"Dao.sol\":3657:3675  structure.receiver */\n      0x03\n      add\n      0x00\n      swap1\n      sload\n      swap1\n      0x0100\n      exp\n      swap1\n      div\n      0xffffffffffffffffffffffffffffffffffffffff\n      and\n        /* \"Dao.sol\":3630:3639  _transfer */\n      tag_32\n        /* \"Dao.sol\":3630:3676  _transfer(structure.amount,structure.receiver) */\n      jump\t// in\n    tag_128:\n        /* \"Dao.sol\":3399:3690  {... */\n      pop\n        /* \"Dao.sol\":3344:3690  function Execute_Proposal(uint pid) onlymanager public {... */\n      pop\n      jump\t// out\n        /* \"Dao.sol\":785:807  address public manager */\n    tag_52:\n      0x0b\n      0x00\n      swap1\n      sload\n      swap1\n      0x0100\n      exp\n      swap1\n      div\n      0xffffffffffffffffffffffffffffffffffffffff\n      and\n      dup2\n      jump\t// out\n        /* \"Dao.sol\":1666:2055  function Redeem_Shares(uint amount) public {... */\n    tag_57:\n        /* \"Dao.sol\":1750:1756  amount */\n      dup1\n        /* \"Dao.sol\":1728:1737  numshares */\n      0x01\n        /* \"Dao.sol\":1728:1749  numshares[msg.sender] */\n      0x00\n        /* \"Dao.sol\":1738:1748  msg.sender */\n      caller\n        /* \"Dao.sol\":1728:1749  numshares[msg.sender] */\n      0xffffffffffffffffffffffffffffffffffffffff\n      and\n      0xffffffffffffffffffffffffffffffffffffffff\n      and\n      dup2\n      mstore\n      0x20\n      add\n      swap1\n      dup2\n      mstore\n      0x20\n      add\n      0x00\n      keccak256\n      sload\n        /* \"Dao.sol\":1728:1756  numshares[msg.sender]>amount */\n      gt\n        /* \"Dao.sol\":1720:1778  require(numshares[msg.sender]>amount, \"Not enough shares\") */\n      tag_130\n      jumpi\n      mload(0x40)\n      0x08c379a000000000000000000000000000000000000000000000000000000000\n      dup2\n      mstore\n      0x04\n      add\n      tag_131\n      swap1\n      tag_132\n      jump\t// in\n    tag_131:\n      mload(0x40)\n      dup1\n      swap2\n      sub\n      swap1\n      revert\n    tag_130:\n        /* \"Dao.sol\":1803:1809  amount */\n      dup1\n        /* \"Dao.sol\":1797:1802  funds */\n      sload(0x06)\n        /* \"Dao.sol\":1797:1809  funds>amount */\n      gt\n        /* \"Dao.sol\":1789:1830  require(funds>amount, \"Not enough funds\") */\n      tag_133\n      jumpi\n      mload(0x40)\n      0x08c379a000000000000000000000000000000000000000000000000000000000\n      dup2\n      mstore\n      0x04\n      add\n      tag_134\n      swap1\n      tag_135\n      jump\t// in\n    tag_134:\n      mload(0x40)\n      dup1\n      swap2\n      sub\n      swap1\n      revert\n    tag_133:\n        /* \"Dao.sol\":1864:1870  amount */\n      dup1\n        /* \"Dao.sol\":1841:1850  numshares */\n      0x01\n        /* \"Dao.sol\":1841:1862  numshares[msg.sender] */\n      0x00\n        /* \"Dao.sol\":1851:1861  msg.sender */\n      caller\n        /* \"Dao.sol\":1841:1862  numshares[msg.sender] */\n      0xffffffffffffffffffffffffffffffffffffffff\n      and\n      0xffffffffffffffffffffffffffffffffffffffff\n      and\n      dup2\n      mstore\n      0x20\n      add\n      swap1\n      dup2\n      mstore\n      0x20\n      add\n      0x00\n      keccak256\n      0x00\n        /* \"Dao.sol\":1841:1870  numshares[msg.sender]-=amount */\n      dup3\n      dup3\n      sload\n      tag_136\n      swap2\n      swap1\n      tag_127\n      jump\t// in\n    tag_136:\n      swap3\n      pop\n      pop\n      dup2\n      swap1\n      sstore\n      pop\n        /* \"Dao.sol\":1908:1909  0 */\n      0x00\n        /* \"Dao.sol\":1885:1894  numshares */\n      0x01\n        /* \"Dao.sol\":1885:1906  numshares[msg.sender] */\n      0x00\n        /* \"Dao.sol\":1895:1905  msg.sender */\n      caller\n        /* \"Dao.sol\":1885:1906  numshares[msg.sender] */\n      0xffffffffffffffffffffffffffffffffffffffff\n      and\n      0xffffffffffffffffffffffffffffffffffffffff\n      and\n      dup2\n      mstore\n      0x20\n      add\n      swap1\n      dup2\n      mstore\n      0x20\n      add\n      0x00\n      keccak256\n      sload\n        /* \"Dao.sol\":1885:1909  numshares[msg.sender]==0 */\n      sub\n        /* \"Dao.sol\":1881:1966  if (numshares[msg.sender]==0) {... */\n      tag_137\n      jumpi\n        /* \"Dao.sol\":1947:1952  false */\n      0x00\n        /* \"Dao.sol\":1926:1934  investor */\n      dup1\n        /* \"Dao.sol\":1926:1946  investor[msg.sender] */\n      0x00\n        /* \"Dao.sol\":1935:1945  msg.sender */\n      caller\n        /* \"Dao.sol\":1926:1946  investor[msg.sender] */\n      0xffffffffffffffffffffffffffffffffffffffff\n      and\n      0xffffffffffffffffffffffffffffffffffffffff\n      and\n      dup2\n      mstore\n      0x20\n      add\n      swap1\n      dup2\n      mstore\n      0x20\n      add\n      0x00\n      keccak256\n      0x00\n        /* \"Dao.sol\":1926:1952  investor[msg.sender]=false */\n      0x0100\n      exp\n      dup2\n      sload\n      dup2\n      0xff\n      mul\n      not\n      and\n      swap1\n      dup4\n      iszero\n      iszero\n      mul\n      or\n      swap1\n      sstore\n      pop\n        /* \"Dao.sol\":1881:1966  if (numshares[msg.sender]==0) {... */\n    tag_137:\n        /* \"Dao.sol\":1983:1989  amount */\n      dup1\n        /* \"Dao.sol\":1976:1981  funds */\n      0x06\n      0x00\n        /* \"Dao.sol\":1976:1989  funds-=amount */\n      dup3\n      dup3\n      sload\n      tag_138\n      swap2\n      swap1\n      tag_127\n      jump\t// in\n    tag_138:\n      swap3\n      pop\n      pop\n      dup2\n      swap1\n      sstore\n      pop\n        /* \"Dao.sol\":2009:2019  msg.sender */\n      caller\n        /* \"Dao.sol\":2000:2029  payable (msg.sender).transfer */\n      0xffffffffffffffffffffffffffffffffffffffff\n      and\n        /* \"Dao.sol\":2000:2037  payable (msg.sender).transfer(amount) */\n      0x08fc\n        /* \"Dao.sol\":2030:2036  amount */\n      dup3\n        /* \"Dao.sol\":2000:2037  payable (msg.sender).transfer(amount) */\n      swap1\n      dup2\n      iszero\n      mul\n      swap1\n      mload(0x40)\n      0x00\n      mload(0x40)\n      dup1\n      dup4\n      sub\n      dup2\n      dup6\n      dup9\n      dup9\n      call\n      swap4\n      pop\n      pop\n      pop\n      pop\n      iszero\n      dup1\n      iszero\n      tag_140\n      jumpi\n      returndatasize\n      0x00\n      dup1\n      returndatacopy\n      revert(0x00, returndatasize)\n    tag_140:\n      pop\n        /* \"Dao.sol\":1666:2055  function Redeem_Shares(uint amount) public {... */\n      pop\n      jump\t// out\n        /* \"Dao.sol\":814:832  uint public quoram */\n    tag_60:\n      sload(0x0c)\n      dup2\n      jump\t// out\n        /* \"Dao.sol\":651:675  uint public total_shares */\n    tag_64:\n      sload(0x07)\n      dup2\n      jump\t// out\n        /* \"Dao.sol\":4312:4409  function all_Investors() public view returns(address[] memory){... */\n    tag_68:\n        /* \"Dao.sol\":4357:4373  address[] memory */\n      0x60\n        /* \"Dao.sol\":4392:4401  investors */\n      0x04\n        /* \"Dao.sol\":4385:4401  return investors */\n      dup1\n      sload\n      dup1\n      0x20\n      mul\n      0x20\n      add\n      mload(0x40)\n      swap1\n      dup2\n      add\n      0x40\n      mstore\n      dup1\n      swap3\n      swap2\n      swap1\n      dup2\n      dup2\n      mstore\n      0x20\n      add\n      dup3\n      dup1\n      sload\n      dup1\n      iszero\n      tag_142\n      jumpi\n      0x20\n      mul\n      dup3\n      add\n      swap2\n      swap1\n      0x00\n      mstore\n      keccak256(0x00, 0x20)\n      swap1\n    tag_143:\n      dup2\n      0x00\n      swap1\n      sload\n      swap1\n      0x0100\n      exp\n      swap1\n      div\n      0xffffffffffffffffffffffffffffffffffffffff\n      and\n      0xffffffffffffffffffffffffffffffffffffffff\n      and\n      dup2\n      mstore\n      0x20\n      add\n      swap1\n      0x01\n      add\n      swap1\n      dup1\n      dup4\n      gt\n      tag_143\n      jumpi\n    tag_142:\n      pop\n      pop\n      pop\n      pop\n      pop\n      swap1\n      pop\n        /* \"Dao.sol\":4312:4409  function all_Investors() public view returns(address[] memory){... */\n      swap1\n      jump\t// out\n        /* \"Dao.sol\":2861:3336  function Vote_proposal(uint pid) public onlyinvestor {... */\n    tag_74:\n        /* \"Dao.sol\":1135:1139  true */\n      0x01\n        /* \"Dao.sol\":1113:1139  investor[msg.sender]==true */\n      iszero\n      iszero\n        /* \"Dao.sol\":1113:1121  investor */\n      0x00\n        /* \"Dao.sol\":1113:1133  investor[msg.sender] */\n      dup1\n        /* \"Dao.sol\":1122:1132  msg.sender */\n      caller\n        /* \"Dao.sol\":1113:1133  investor[msg.sender] */\n      0xffffffffffffffffffffffffffffffffffffffff\n      and\n      0xffffffffffffffffffffffffffffffffffffffff\n      and\n      dup2\n      mstore\n      0x20\n      add\n      swap1\n      dup2\n      mstore\n      0x20\n      add\n      0x00\n      keccak256\n      0x00\n      swap1\n      sload\n      swap1\n      0x0100\n      exp\n      swap1\n      div\n      0xff\n      and\n        /* \"Dao.sol\":1113:1139  investor[msg.sender]==true */\n      iszero\n      iszero\n      eq\n        /* \"Dao.sol\":1105:1164  require(investor[msg.sender]==true, \"You are not investor\") */\n      tag_145\n      jumpi\n      mload(0x40)\n      0x08c379a000000000000000000000000000000000000000000000000000000000\n      dup2\n      mstore\n      0x04\n      add\n      tag_146\n      swap1\n      tag_147\n      jump\t// in\n    tag_146:\n      mload(0x40)\n      dup1\n      swap2\n      sub\n      swap1\n      revert\n    tag_145:\n        /* \"Dao.sol\":2925:2951  proposal storage structure */\n      0x00\n        /* \"Dao.sol\":2953:2966  proposal_List */\n      0x05\n        /* \"Dao.sol\":2953:2971  proposal_List[pid] */\n      0x00\n        /* \"Dao.sol\":2967:2970  pid */\n      dup4\n        /* \"Dao.sol\":2953:2971  proposal_List[pid] */\n      dup2\n      mstore\n      0x20\n      add\n      swap1\n      dup2\n      mstore\n      0x20\n      add\n      0x00\n      keccak256\n        /* \"Dao.sol\":2925:2971  proposal storage structure= proposal_List[pid] */\n      swap1\n      pop\n        /* \"Dao.sol\":2995:3009  nextproposalid */\n      sload(0x0a)\n        /* \"Dao.sol\":2990:2993  pid */\n      dup3\n        /* \"Dao.sol\":2990:3009  pid<=nextproposalid */\n      gt\n      iszero\n        /* \"Dao.sol\":2982:3033  require(pid<=nextproposalid, \"Invalid proposal id\") */\n      tag_149\n      jumpi\n      mload(0x40)\n      0x08c379a000000000000000000000000000000000000000000000000000000000\n      dup2\n      mstore\n      0x04\n      add\n      tag_150\n      swap1\n      tag_151\n      jump\t// in\n    tag_150:\n      mload(0x40)\n      dup1\n      swap2\n      sub\n      swap1\n      revert\n    tag_149:\n        /* \"Dao.sol\":3067:3082  block.timestamp */\n      timestamp\n        /* \"Dao.sol\":3052:3061  structure */\n      dup2\n        /* \"Dao.sol\":3052:3065  structure.end */\n      0x05\n      add\n      sload\n        /* \"Dao.sol\":3052:3082  structure.end>=block.timestamp */\n      lt\n      iszero\n        /* \"Dao.sol\":3044:3097  require(structure.end>=block.timestamp, \"TIme Ended\") */\n      tag_152\n      jumpi\n      mload(0x40)\n      0x08c379a000000000000000000000000000000000000000000000000000000000\n      dup2\n      mstore\n      0x04\n      add\n      tag_153\n      swap1\n      tag_154\n      jump\t// in\n    tag_153:\n      mload(0x40)\n      dup1\n      swap2\n      sub\n      swap1\n      revert\n    tag_152:\n        /* \"Dao.sol\":3136:3141  false */\n      0x00\n        /* \"Dao.sol\":3116:3141  structure.executed==false */\n      iszero\n      iszero\n        /* \"Dao.sol\":3116:3125  structure */\n      dup2\n        /* \"Dao.sol\":3116:3134  structure.executed */\n      0x06\n      add\n      0x00\n      swap1\n      sload\n      swap1\n      0x0100\n      exp\n      swap1\n      div\n      0xff\n      and\n        /* \"Dao.sol\":3116:3141  structure.executed==false */\n      iszero\n      iszero\n      eq\n        /* \"Dao.sol\":3108:3171  require(structure.executed==false, \"Proposal Already Executed\") */\n      tag_155\n      jumpi\n      mload(0x40)\n      0x08c379a000000000000000000000000000000000000000000000000000000000\n      dup2\n      mstore\n      0x04\n      add\n      tag_156\n      swap1\n      tag_157\n      jump\t// in\n    tag_156:\n      mload(0x40)\n      dup1\n      swap2\n      sub\n      swap1\n      revert\n    tag_155:\n        /* \"Dao.sol\":3214:3219  false */\n      0x00\n        /* \"Dao.sol\":3190:3219  voted[msg.sender][pid]==false */\n      iszero\n      iszero\n        /* \"Dao.sol\":3190:3195  voted */\n      0x02\n        /* \"Dao.sol\":3190:3207  voted[msg.sender] */\n      0x00\n        /* \"Dao.sol\":3196:3206  msg.sender */\n      caller\n        /* \"Dao.sol\":3190:3207  voted[msg.sender] */\n      0xffffffffffffffffffffffffffffffffffffffff\n      and\n      0xffffffffffffffffffffffffffffffffffffffff\n      and\n      dup2\n      mstore\n      0x20\n      add\n      swap1\n      dup2\n      mstore\n      0x20\n      add\n      0x00\n      keccak256\n        /* \"Dao.sol\":3190:3212  voted[msg.sender][pid] */\n      0x00\n        /* \"Dao.sol\":3208:3211  pid */\n      dup5\n        /* \"Dao.sol\":3190:3212  voted[msg.sender][pid] */\n      dup2\n      mstore\n      0x20\n      add\n      swap1\n      dup2\n      mstore\n      0x20\n      add\n      0x00\n      keccak256\n      0x00\n      swap1\n      sload\n      swap1\n      0x0100\n      exp\n      swap1\n      div\n      0xff\n      and\n        /* \"Dao.sol\":3190:3219  voted[msg.sender][pid]==false */\n      iszero\n      iszero\n      eq\n        /* \"Dao.sol\":3182:3241  require(voted[msg.sender][pid]==false, \"You already voted\") */\n      tag_158\n      jumpi\n      mload(0x40)\n      0x08c379a000000000000000000000000000000000000000000000000000000000\n      dup2\n      mstore\n      0x04\n      add\n      tag_159\n      swap1\n      tag_160\n      jump\t// in\n    tag_159:\n      mload(0x40)\n      dup1\n      swap2\n      sub\n      swap1\n      revert\n    tag_158:\n        /* \"Dao.sol\":3275:3279  true */\n      0x01\n        /* \"Dao.sol\":3252:3257  voted */\n      0x02\n        /* \"Dao.sol\":3252:3269  voted[msg.sender] */\n      0x00\n        /* \"Dao.sol\":3258:3268  msg.sender */\n      caller\n        /* \"Dao.sol\":3252:3269  voted[msg.sender] */\n      0xffffffffffffffffffffffffffffffffffffffff\n      and\n      0xffffffffffffffffffffffffffffffffffffffff\n      and\n      dup2\n      mstore\n      0x20\n      add\n      swap1\n      dup2\n      mstore\n      0x20\n      add\n      0x00\n      keccak256\n        /* \"Dao.sol\":3252:3274  voted[msg.sender][pid] */\n      0x00\n        /* \"Dao.sol\":3270:3273  pid */\n      dup5\n        /* \"Dao.sol\":3252:3274  voted[msg.sender][pid] */\n      dup2\n      mstore\n      0x20\n      add\n      swap1\n      dup2\n      mstore\n      0x20\n      add\n      0x00\n      keccak256\n      0x00\n        /* \"Dao.sol\":3252:3279  voted[msg.sender][pid]=true */\n      0x0100\n      exp\n      dup2\n      sload\n      dup2\n      0xff\n      mul\n      not\n      and\n      swap1\n      dup4\n      iszero\n      iszero\n      mul\n      or\n      swap1\n      sstore\n      pop\n        /* \"Dao.sol\":3307:3316  numshares */\n      0x01\n        /* \"Dao.sol\":3307:3328  numshares[msg.sender] */\n      0x00\n        /* \"Dao.sol\":3317:3327  msg.sender */\n      caller\n        /* \"Dao.sol\":3307:3328  numshares[msg.sender] */\n      0xffffffffffffffffffffffffffffffffffffffff\n      and\n      0xffffffffffffffffffffffffffffffffffffffff\n      and\n      dup2\n      mstore\n      0x20\n      add\n      swap1\n      dup2\n      mstore\n      0x20\n      add\n      0x00\n      keccak256\n      sload\n        /* \"Dao.sol\":3290:3299  structure */\n      dup2\n        /* \"Dao.sol\":3290:3305  structure.votes */\n      0x04\n      add\n      0x00\n        /* \"Dao.sol\":3290:3328  structure.votes+=numshares[msg.sender] */\n      dup3\n      dup3\n      sload\n      tag_161\n      swap2\n      swap1\n      tag_162\n      jump\t// in\n    tag_161:\n      swap3\n      pop\n      pop\n      dup2\n      swap1\n      sstore\n      pop\n        /* \"Dao.sol\":2914:3336  {... */\n      pop\n        /* \"Dao.sol\":2861:3336  function Vote_proposal(uint pid) public onlyinvestor {... */\n      pop\n      jump\t// out\n        /* \"Dao.sol\":2063:2518  function Transfer_Share(uint amount, address payable receiver) public {... */\n    tag_78:\n        /* \"Dao.sol\":2175:2181  amount */\n      dup2\n        /* \"Dao.sol\":2153:2162  numshares */\n      0x01\n        /* \"Dao.sol\":2153:2174  numshares[msg.sender] */\n      0x00\n        /* \"Dao.sol\":2163:2173  msg.sender */\n      caller\n        /* \"Dao.sol\":2153:2174  numshares[msg.sender] */\n      0xffffffffffffffffffffffffffffffffffffffff\n      and\n      0xffffffffffffffffffffffffffffffffffffffff\n      and\n      dup2\n      mstore\n      0x20\n      add\n      swap1\n      dup2\n      mstore\n      0x20\n      add\n      0x00\n      keccak256\n      sload\n        /* \"Dao.sol\":2153:2181  numshares[msg.sender]>amount */\n      gt\n        /* \"Dao.sol\":2145:2203  require(numshares[msg.sender]>amount, \"Not enough shares\") */\n      tag_164\n      jumpi\n      mload(0x40)\n      0x08c379a000000000000000000000000000000000000000000000000000000000\n      dup2\n      mstore\n      0x04\n      add\n      tag_165\n      swap1\n      tag_132\n      jump\t// in\n    tag_165:\n      mload(0x40)\n      dup1\n      swap2\n      sub\n      swap1\n      revert\n    tag_164:\n        /* \"Dao.sol\":2229:2235  amount */\n      dup2\n        /* \"Dao.sol\":2223:2228  funds */\n      sload(0x06)\n        /* \"Dao.sol\":2223:2235  funds>amount */\n      gt\n        /* \"Dao.sol\":2215:2256  require(funds>amount, \"Not enough funds\") */\n      tag_166\n      jumpi\n      mload(0x40)\n      0x08c379a000000000000000000000000000000000000000000000000000000000\n      dup2\n      mstore\n      0x04\n      add\n      tag_167\n      swap1\n      tag_135\n      jump\t// in\n    tag_167:\n      mload(0x40)\n      dup1\n      swap2\n      sub\n      swap1\n      revert\n    tag_166:\n        /* \"Dao.sol\":2289:2295  amount */\n      dup2\n        /* \"Dao.sol\":2268:2277  numshares */\n      0x01\n        /* \"Dao.sol\":2268:2287  numshares[receiver] */\n      0x00\n        /* \"Dao.sol\":2278:2286  receiver */\n      dup4\n        /* \"Dao.sol\":2268:2287  numshares[receiver] */\n      0xffffffffffffffffffffffffffffffffffffffff\n      and\n      0xffffffffffffffffffffffffffffffffffffffff\n      and\n      dup2\n      mstore\n      0x20\n      add\n      swap1\n      dup2\n      mstore\n      0x20\n      add\n      0x00\n      keccak256\n      0x00\n        /* \"Dao.sol\":2268:2295  numshares[receiver]+=amount */\n      dup3\n      dup3\n      sload\n      tag_168\n      swap2\n      swap1\n      tag_162\n      jump\t// in\n    tag_168:\n      swap3\n      pop\n      pop\n      dup2\n      swap1\n      sstore\n      pop\n        /* \"Dao.sol\":2334:2335  0 */\n      0x00\n        /* \"Dao.sol\":2311:2320  numshares */\n      0x01\n        /* \"Dao.sol\":2311:2332  numshares[msg.sender] */\n      0x00\n        /* \"Dao.sol\":2321:2331  msg.sender */\n      caller\n        /* \"Dao.sol\":2311:2332  numshares[msg.sender] */\n      0xffffffffffffffffffffffffffffffffffffffff\n      and\n      0xffffffffffffffffffffffffffffffffffffffff\n      and\n      dup2\n      mstore\n      0x20\n      add\n      swap1\n      dup2\n      mstore\n      0x20\n      add\n      0x00\n      keccak256\n      sload\n        /* \"Dao.sol\":2311:2335  numshares[msg.sender]==0 */\n      sub\n        /* \"Dao.sol\":2307:2380  if (numshares[msg.sender]==0) {... */\n      tag_169\n      jumpi\n        /* \"Dao.sol\":2373:2378  false */\n      0x00\n        /* \"Dao.sol\":2352:2360  investor */\n      dup1\n        /* \"Dao.sol\":2352:2372  investor[msg.sender] */\n      0x00\n        /* \"Dao.sol\":2361:2371  msg.sender */\n      caller\n        /* \"Dao.sol\":2352:2372  investor[msg.sender] */\n      0xffffffffffffffffffffffffffffffffffffffff\n      and\n      0xffffffffffffffffffffffffffffffffffffffff\n      and\n      dup2\n      mstore\n      0x20\n      add\n      swap1\n      dup2\n      mstore\n      0x20\n      add\n      0x00\n      keccak256\n      0x00\n        /* \"Dao.sol\":2352:2378  investor[msg.sender]=false */\n      0x0100\n      exp\n      dup2\n      sload\n      dup2\n      0xff\n      mul\n      not\n      and\n      swap1\n      dup4\n      iszero\n      iszero\n      mul\n      or\n      swap1\n      sstore\n      pop\n        /* \"Dao.sol\":2307:2380  if (numshares[msg.sender]==0) {... */\n    tag_169:\n        /* \"Dao.sol\":2413:2417  true */\n      0x01\n        /* \"Dao.sol\":2394:2402  investor */\n      0x00\n        /* \"Dao.sol\":2394:2412  investor[receiver] */\n      dup1\n        /* \"Dao.sol\":2403:2411  receiver */\n      dup4\n        /* \"Dao.sol\":2394:2412  investor[receiver] */\n      0xffffffffffffffffffffffffffffffffffffffff\n      and\n      0xffffffffffffffffffffffffffffffffffffffff\n      and\n      dup2\n      mstore\n      0x20\n      add\n      swap1\n      dup2\n      mstore\n      0x20\n      add\n      0x00\n      keccak256\n      0x00\n        /* \"Dao.sol\":2394:2417  investor[receiver]=true */\n      0x0100\n      exp\n      dup2\n      sload\n      dup2\n      0xff\n      mul\n      not\n      and\n      swap1\n      dup4\n      iszero\n      iszero\n      mul\n      or\n      swap1\n      sstore\n      pop\n        /* \"Dao.sol\":2432:2441  investors */\n      0x04\n        /* \"Dao.sol\":2447:2455  receiver */\n      dup2\n        /* \"Dao.sol\":2432:2456  investors.push(receiver) */\n      swap1\n      dup1\n      0x01\n      dup2\n      sload\n      add\n      dup1\n      dup3\n      sstore\n      dup1\n      swap2\n      pop\n      pop\n      0x01\n      swap1\n      sub\n      swap1\n      0x00\n      mstore\n      keccak256(0x00, 0x20)\n      add\n      0x00\n      swap1\n      swap2\n      swap1\n      swap2\n      swap1\n      swap2\n      0x0100\n      exp\n      dup2\n      sload\n      dup2\n      0xffffffffffffffffffffffffffffffffffffffff\n      mul\n      not\n      and\n      swap1\n      dup4\n      0xffffffffffffffffffffffffffffffffffffffff\n      and\n      mul\n      or\n      swap1\n      sstore\n      pop\n        /* \"Dao.sol\":2502:2508  amount */\n      dup2\n        /* \"Dao.sol\":2479:2488  numshares */\n      0x01\n        /* \"Dao.sol\":2479:2500  numshares[msg.sender] */\n      0x00\n        /* \"Dao.sol\":2489:2499  msg.sender */\n      caller\n        /* \"Dao.sol\":2479:2500  numshares[msg.sender] */\n      0xffffffffffffffffffffffffffffffffffffffff\n      and\n      0xffffffffffffffffffffffffffffffffffffffff\n      and\n      dup2\n      mstore\n      0x20\n      add\n      swap1\n      dup2\n      mstore\n      0x20\n      add\n      0x00\n      keccak256\n      0x00\n        /* \"Dao.sol\":2479:2508  numshares[msg.sender]-=amount */\n      dup3\n      dup3\n      sload\n      tag_171\n      swap2\n      swap1\n      tag_127\n      jump\t// in\n    tag_171:\n      swap3\n      pop\n      pop\n      dup2\n      swap1\n      sstore\n      pop\n        /* \"Dao.sol\":2063:2518  function Transfer_Share(uint amount, address payable receiver) public {... */\n      pop\n      pop\n      jump\t// out\n        /* \"Dao.sol\":682:715  uint public contribution_Time_End */\n    tag_81:\n      sload(0x08)\n      dup2\n      jump\t// out\n        /* \"Dao.sol\":627:644  uint public funds */\n    tag_85:\n      sload(0x06)\n      dup2\n      jump\t// out\n        /* \"Dao.sol\":3824:4306  function Fetch_All_Proposals() public view returns(proposal[] memory) {... */\n    tag_89:\n        /* \"Dao.sol\":3875:3892  proposal[] memory */\n      0x60\n        /* \"Dao.sol\":3905:3926  proposal[] memory arr */\n      0x00\n        /* \"Dao.sol\":3958:3959  1 */\n      0x01\n        /* \"Dao.sol\":3943:3957  nextproposalid */\n      sload(0x0a)\n        /* \"Dao.sol\":3943:3959  nextproposalid-1 */\n      tag_173\n      swap2\n      swap1\n      tag_127\n      jump\t// in\n    tag_173:\n        /* \"Dao.sol\":3928:3960  new proposal[](nextproposalid-1) */\n      0xffffffffffffffff\n      dup2\n      gt\n      iszero\n      tag_174\n      jumpi\n      tag_175\n      tag_176\n      jump\t// in\n    tag_175:\n    tag_174:\n      mload(0x40)\n      swap1\n      dup1\n      dup3\n      mstore\n      dup1\n      0x20\n      mul\n      0x20\n      add\n      dup3\n      add\n      0x40\n      mstore\n      dup1\n      iszero\n      tag_177\n      jumpi\n      dup2\n      0x20\n      add\n    tag_178:\n      tag_179\n      tag_180\n      jump\t// in\n    tag_179:\n      dup2\n      mstore\n      0x20\n      add\n      swap1\n      0x01\n      swap1\n      sub\n      swap1\n      dup2\n      tag_178\n      jumpi\n      swap1\n      pop\n    tag_177:\n      pop\n        /* \"Dao.sol\":3905:3960  proposal[] memory arr= new proposal[](nextproposalid-1) */\n      swap1\n      pop\n        /* \"Dao.sol\":3975:3981  uint i */\n      0x00\n        /* \"Dao.sol\":3971:4274  for(uint i=0; i<=nextproposalid;i++){... */\n    tag_181:\n        /* \"Dao.sol\":3988:4002  nextproposalid */\n      sload(0x0a)\n        /* \"Dao.sol\":3985:3986  i */\n      dup2\n        /* \"Dao.sol\":3985:4002  i<=nextproposalid */\n      gt\n        /* \"Dao.sol\":3971:4274  for(uint i=0; i<=nextproposalid;i++){... */\n      tag_182\n      jumpi\n        /* \"Dao.sol\":4226:4239  proposal_List */\n      0x05\n        /* \"Dao.sol\":4226:4242  proposal_List[i] */\n      0x00\n        /* \"Dao.sol\":4240:4241  i */\n      dup3\n        /* \"Dao.sol\":4226:4242  proposal_List[i] */\n      dup2\n      mstore\n      0x20\n      add\n      swap1\n      dup2\n      mstore\n      0x20\n      add\n      0x00\n      keccak256\n        /* \"Dao.sol\":4219:4242  arr[i]=proposal_List[i] */\n      mload(0x40)\n      dup1\n      0xe0\n      add\n      0x40\n      mstore\n      swap1\n      dup2\n      0x00\n      dup3\n      add\n      sload\n      dup2\n      mstore\n      0x20\n      add\n      0x01\n      dup3\n      add\n      dup1\n      sload\n      tag_184\n      swap1\n      tag_107\n      jump\t// in\n    tag_184:\n      dup1\n      0x1f\n      add\n      0x20\n      dup1\n      swap2\n      div\n      mul\n      0x20\n      add\n      mload(0x40)\n      swap1\n      dup2\n      add\n      0x40\n      mstore\n      dup1\n      swap3\n      swap2\n      swap1\n      dup2\n      dup2\n      mstore\n      0x20\n      add\n      dup3\n      dup1\n      sload\n      tag_185\n      swap1\n      tag_107\n      jump\t// in\n    tag_185:\n      dup1\n      iszero\n      tag_186\n      jumpi\n      dup1\n      0x1f\n      lt\n      tag_187\n      jumpi\n      0x0100\n      dup1\n      dup4\n      sload\n      div\n      mul\n      dup4\n      mstore\n      swap2\n      0x20\n      add\n      swap2\n      jump(tag_186)\n    tag_187:\n      dup3\n      add\n      swap2\n      swap1\n      0x00\n      mstore\n      keccak256(0x00, 0x20)\n      swap1\n    tag_188:\n      dup2\n      sload\n      dup2\n      mstore\n      swap1\n      0x01\n      add\n      swap1\n      0x20\n      add\n      dup1\n      dup4\n      gt\n      tag_188\n      jumpi\n      dup3\n      swap1\n      sub\n      0x1f\n      and\n      dup3\n      add\n      swap2\n    tag_186:\n      pop\n      pop\n      pop\n      pop\n      pop\n      dup2\n      mstore\n      0x20\n      add\n      0x02\n      dup3\n      add\n      sload\n      dup2\n      mstore\n      0x20\n      add\n      0x03\n      dup3\n      add\n      0x00\n      swap1\n      sload\n      swap1\n      0x0100\n      exp\n      swap1\n      div\n      0xffffffffffffffffffffffffffffffffffffffff\n      and\n      0xffffffffffffffffffffffffffffffffffffffff\n      and\n      0xffffffffffffffffffffffffffffffffffffffff\n      and\n      dup2\n      mstore\n      0x20\n      add\n      0x04\n      dup3\n      add\n      sload\n      dup2\n      mstore\n      0x20\n      add\n      0x05\n      dup3\n      add\n      sload\n      dup2\n      mstore\n      0x20\n      add\n      0x06\n      dup3\n      add\n      0x00\n      swap1\n      sload\n      swap1\n      0x0100\n      exp\n      swap1\n      div\n      0xff\n      and\n      iszero\n      iszero\n      iszero\n      iszero\n      dup2\n      mstore\n      pop\n      pop\n        /* \"Dao.sol\":4219:4222  arr */\n      dup3\n        /* \"Dao.sol\":4223:4224  i */\n      dup3\n        /* \"Dao.sol\":4219:4225  arr[i] */\n      dup2\n      mload\n      dup2\n      lt\n      tag_189\n      jumpi\n      tag_190\n      tag_191\n      jump\t// in\n    tag_190:\n    tag_189:\n      0x20\n      mul\n      0x20\n      add\n      add\n        /* \"Dao.sol\":4219:4242  arr[i]=proposal_List[i] */\n      dup2\n      swap1\n      mstore\n      pop\n        /* \"Dao.sol\":4003:4006  i++ */\n      dup1\n      dup1\n      tag_192\n      swap1\n      tag_193\n      jump\t// in\n    tag_192:\n      swap2\n      pop\n      pop\n        /* \"Dao.sol\":3971:4274  for(uint i=0; i<=nextproposalid;i++){... */\n      jump(tag_181)\n    tag_182:\n      pop\n        /* \"Dao.sol\":4291:4294  arr */\n      dup1\n        /* \"Dao.sol\":4284:4294  return arr */\n      swap2\n      pop\n      pop\n        /* \"Dao.sol\":3824:4306  function Fetch_All_Proposals() public view returns(proposal[] memory) {... */\n      swap1\n      jump\t// out\n        /* \"Dao.sol\":2526:2853  function Create_proposal(string calldata description,uint amount, address payable receiver) public onlymanager{... */\n    tag_96:\n        /* \"Dao.sol\":1238:1248  msg.sender */\n      caller\n        /* \"Dao.sol\":1229:1248  manager==msg.sender */\n      0xffffffffffffffffffffffffffffffffffffffff\n      and\n        /* \"Dao.sol\":1229:1236  manager */\n      0x0b\n      0x00\n      swap1\n      sload\n      swap1\n      0x0100\n      exp\n      swap1\n      div\n      0xffffffffffffffffffffffffffffffffffffffff\n      and\n        /* \"Dao.sol\":1229:1248  manager==msg.sender */\n      0xffffffffffffffffffffffffffffffffffffffff\n      and\n      eq\n        /* \"Dao.sol\":1221:1272  require(manager==msg.sender, \"You are not manager\") */\n      tag_195\n      jumpi\n      mload(0x40)\n      0x08c379a000000000000000000000000000000000000000000000000000000000\n      dup2\n      mstore\n      0x04\n      add\n      tag_196\n      swap1\n      tag_117\n      jump\t// in\n    tag_196:\n      mload(0x40)\n      dup1\n      swap2\n      sub\n      swap1\n      revert\n    tag_195:\n        /* \"Dao.sol\":2662:2668  amount */\n      dup2\n        /* \"Dao.sol\":2655:2660  funds */\n      sload(0x06)\n        /* \"Dao.sol\":2655:2668  funds>=amount */\n      lt\n      iszero\n        /* \"Dao.sol\":2647:2689  require(funds>=amount, \"Not enough funds\") */\n      tag_198\n      jumpi\n      mload(0x40)\n      0x08c379a000000000000000000000000000000000000000000000000000000000\n      dup2\n      mstore\n      0x04\n      add\n      tag_199\n      swap1\n      tag_135\n      jump\t// in\n    tag_199:\n      mload(0x40)\n      dup1\n      swap2\n      sub\n      swap1\n      revert\n    tag_198:\n        /* \"Dao.sol\":2730:2818  proposal(nextproposalid,description,amount,receiver,0,block.timestamp+voting_time,false) */\n      mload(0x40)\n      dup1\n      0xe0\n      add\n      0x40\n      mstore\n      dup1\n        /* \"Dao.sol\":2739:2753  nextproposalid */\n      sload(0x0a)\n        /* \"Dao.sol\":2730:2818  proposal(nextproposalid,description,amount,receiver,0,block.timestamp+voting_time,false) */\n      dup2\n      mstore\n      0x20\n      add\n        /* \"Dao.sol\":2754:2765  description */\n      dup6\n      dup6\n        /* \"Dao.sol\":2730:2818  proposal(nextproposalid,description,amount,receiver,0,block.timestamp+voting_time,false) */\n      dup1\n      dup1\n      0x1f\n      add\n      0x20\n      dup1\n      swap2\n      div\n      mul\n      0x20\n      add\n      mload(0x40)\n      swap1\n      dup2\n      add\n      0x40\n      mstore\n      dup1\n      swap4\n      swap3\n      swap2\n      swap1\n      dup2\n      dup2\n      mstore\n      0x20\n      add\n      dup4\n      dup4\n      dup1\n      dup3\n      dup5\n      calldatacopy\n      0x00\n      dup2\n      dup5\n      add\n      mstore\n      not(0x1f)\n      0x1f\n      dup3\n      add\n      and\n      swap1\n      pop\n      dup1\n      dup4\n      add\n      swap3\n      pop\n      pop\n      pop\n      pop\n      pop\n      pop\n      pop\n      dup2\n      mstore\n      0x20\n      add\n        /* \"Dao.sol\":2766:2772  amount */\n      dup4\n        /* \"Dao.sol\":2730:2818  proposal(nextproposalid,description,amount,receiver,0,block.timestamp+voting_time,false) */\n      dup2\n      mstore\n      0x20\n      add\n        /* \"Dao.sol\":2773:2781  receiver */\n      dup3\n        /* \"Dao.sol\":2730:2818  proposal(nextproposalid,description,amount,receiver,0,block.timestamp+voting_time,false) */\n      0xffffffffffffffffffffffffffffffffffffffff\n      and\n      dup2\n      mstore\n      0x20\n      add\n        /* \"Dao.sol\":2782:2783  0 */\n      0x00\n        /* \"Dao.sol\":2730:2818  proposal(nextproposalid,description,amount,receiver,0,block.timestamp+voting_time,false) */\n      dup2\n      mstore\n      0x20\n      add\n        /* \"Dao.sol\":2800:2811  voting_time */\n      sload(0x09)\n        /* \"Dao.sol\":2784:2799  block.timestamp */\n      timestamp\n        /* \"Dao.sol\":2784:2811  block.timestamp+voting_time */\n      tag_200\n      swap2\n      swap1\n      tag_162\n      jump\t// in\n    tag_200:\n        /* \"Dao.sol\":2730:2818  proposal(nextproposalid,description,amount,receiver,0,block.timestamp+voting_time,false) */\n      dup2\n      mstore\n      0x20\n      add\n        /* \"Dao.sol\":2812:2817  false */\n      0x00\n        /* \"Dao.sol\":2730:2818  proposal(nextproposalid,description,amount,receiver,0,block.timestamp+voting_time,false) */\n      iszero\n      iszero\n      dup2\n      mstore\n      pop\n        /* \"Dao.sol\":2700:2713  proposal_List */\n      0x05\n        /* \"Dao.sol\":2700:2729  proposal_List[nextproposalid] */\n      0x00\n        /* \"Dao.sol\":2714:2728  nextproposalid */\n      sload(0x0a)\n        /* \"Dao.sol\":2700:2729  proposal_List[nextproposalid] */\n      dup2\n      mstore\n      0x20\n      add\n      swap1\n      dup2\n      mstore\n      0x20\n      add\n      0x00\n      keccak256\n        /* \"Dao.sol\":2700:2818  proposal_List[nextproposalid]=proposal(nextproposalid,description,amount,receiver,0,block.timestamp+voting_time,false) */\n      0x00\n      dup3\n      add\n      mload\n      dup2\n      0x00\n      add\n      sstore\n      0x20\n      dup3\n      add\n      mload\n      dup2\n      0x01\n      add\n      swap1\n      dup2\n      tag_201\n      swap2\n      swap1\n      tag_202\n      jump\t// in\n    tag_201:\n      pop\n      0x40\n      dup3\n      add\n      mload\n      dup2\n      0x02\n      add\n      sstore\n      0x60\n      dup3\n      add\n      mload\n      dup2\n      0x03\n      add\n      exp(0x0100, 0x00)\n      dup2\n      sload\n      dup2\n      0xffffffffffffffffffffffffffffffffffffffff\n      mul\n      not\n      and\n      swap1\n      dup4\n      0xffffffffffffffffffffffffffffffffffffffff\n      and\n      mul\n      or\n      swap1\n      sstore\n      pop\n      0x80\n      dup3\n      add\n      mload\n      dup2\n      0x04\n      add\n      sstore\n      0xa0\n      dup3\n      add\n      mload\n      dup2\n      0x05\n      add\n      sstore\n      0xc0\n      dup3\n      add\n      mload\n      dup2\n      0x06\n      add\n      exp(0x0100, 0x00)\n      dup2\n      sload\n      dup2\n      0xff\n      mul\n      not\n      and\n      swap1\n      dup4\n      iszero\n      iszero\n      mul\n      or\n      swap1\n      sstore\n      pop\n      swap1\n      pop\n      pop\n        /* \"Dao.sol\":2829:2843  nextproposalid */\n      0x0a\n      0x00\n        /* \"Dao.sol\":2829:2845  nextproposalid++ */\n      dup2\n      sload\n      dup1\n      swap3\n      swap2\n      swap1\n      tag_203\n      swap1\n      tag_193\n      jump\t// in\n    tag_203:\n      swap2\n      swap1\n      pop\n      sstore\n      pop\n        /* \"Dao.sol\":2526:2853  function Create_proposal(string calldata description,uint amount, address payable receiver) public onlymanager{... */\n      pop\n      pop\n      pop\n      pop\n      jump\t// out\n        /* \"Dao.sol\":752:778  uint public nextproposalid */\n    tag_99:\n      sload(0x0a)\n      dup2\n      jump\t// out\n        /* \"Dao.sol\":1300:1658  function Contribution() public payable  {... */\n    tag_102:\n        /* \"Dao.sol\":1369:1370  0 */\n      0x00\n        /* \"Dao.sol\":1359:1368  msg.value */\n      callvalue\n        /* \"Dao.sol\":1359:1370  msg.value>0 */\n      gt\n        /* \"Dao.sol\":1351:1389  require(msg.value>0, \"invalid amount\") */\n      tag_205\n      jumpi\n      mload(0x40)\n      0x08c379a000000000000000000000000000000000000000000000000000000000\n      dup2\n      mstore\n      0x04\n      add\n      tag_206\n      swap1\n      tag_207\n      jump\t// in\n    tag_206:\n      mload(0x40)\n      dup1\n      swap2\n      sub\n      swap1\n      revert\n    tag_205:\n        /* \"Dao.sol\":1431:1446  block.timestamp */\n      timestamp\n        /* \"Dao.sol\":1408:1429  contribution_Time_End */\n      sload(0x08)\n        /* \"Dao.sol\":1408:1446  contribution_Time_End>=block.timestamp */\n      lt\n      iszero\n        /* \"Dao.sol\":1400:1462  require(contribution_Time_End>=block.timestamp, \"Time passed\") */\n      tag_208\n      jumpi\n      mload(0x40)\n      0x08c379a000000000000000000000000000000000000000000000000000000000\n      dup2\n      mstore\n      0x04\n      add\n      tag_209\n      swap1\n      tag_210\n      jump\t// in\n    tag_209:\n      mload(0x40)\n      dup1\n      swap2\n      sub\n      swap1\n      revert\n    tag_208:\n        /* \"Dao.sol\":1495:1499  true */\n      0x01\n        /* \"Dao.sol\":1473:1499  investor[msg.sender]==true */\n      iszero\n      iszero\n        /* \"Dao.sol\":1473:1481  investor */\n      0x00\n        /* \"Dao.sol\":1473:1493  investor[msg.sender] */\n      dup1\n        /* \"Dao.sol\":1482:1492  msg.sender */\n      caller\n        /* \"Dao.sol\":1473:1493  investor[msg.sender] */\n      0xffffffffffffffffffffffffffffffffffffffff\n      and\n      0xffffffffffffffffffffffffffffffffffffffff\n      and\n      dup2\n      mstore\n      0x20\n      add\n      swap1\n      dup2\n      mstore\n      0x20\n      add\n      0x00\n      keccak256\n      0x00\n      swap1\n      sload\n      swap1\n      0x0100\n      exp\n      swap1\n      pop\n      pop\n        /* \"Dao.sol\":1473:1499  investor[msg.sender]==true */\n      pop\n        /* \"Dao.sol\":1533:1542  msg.value */\n      callvalue\n        /* \"Dao.sol\":1510:1519  numshares */\n      0x01\n        /* \"Dao.sol\":1510:1531  numshares[msg.sender] */\n      0x00\n        /* \"Dao.sol\":1520:1530  msg.sender */\n      caller\n        /* \"Dao.sol\":1510:1531  numshares[msg.sender] */\n      0xffffffffffffffffffffffffffffffffffffffff\n      and\n      0xffffffffffffffffffffffffffffffffffffffff\n      and\n      dup2\n      mstore\n      0x20\n      add\n      swap1\n      dup2\n      mstore\n      0x20\n      add\n      0x00\n      keccak256\n      0x00\n        /* \"Dao.sol\":1510:1542  numshares[msg.sender]+=msg.value */\n      dup3\n      dup3\n      sload\n      tag_211\n      swap2\n      swap1\n      tag_162\n      jump\t// in\n    tag_211:\n      swap3\n      pop\n      pop\n      dup2\n      swap1\n      sstore\n      pop\n        /* \"Dao.sol\":1567:1576  msg.value */\n      callvalue\n        /* \"Dao.sol\":1553:1565  total_shares */\n      0x07\n      0x00\n        /* \"Dao.sol\":1553:1576  total_shares+=msg.value */\n      dup3\n      dup3\n      sload\n      tag_212\n      swap2\n      swap1\n      tag_162\n      jump\t// in\n    tag_212:\n      swap3\n      pop\n      pop\n      dup2\n      swap1\n      sstore\n      pop\n        /* \"Dao.sol\":1594:1603  msg.value */\n      callvalue\n        /* \"Dao.sol\":1587:1592  funds */\n      0x06\n      0x00\n        /* \"Dao.sol\":1587:1603  funds+=msg.value */\n      dup3\n      dup3\n      sload\n      tag_213\n      swap2\n      swap1\n      tag_162\n      jump\t// in\n    tag_213:\n      swap3\n      pop\n      pop\n      dup2\n      swap1\n      sstore\n      pop\n        /* \"Dao.sol\":1614:1623  investors */\n      0x04\n        /* \"Dao.sol\":1639:1649  msg.sender */\n      caller\n        /* \"Dao.sol\":1614:1650  investors.... */\n      swap1\n      dup1\n      0x01\n      dup2\n      sload\n      add\n      dup1\n      dup3\n      sstore\n      dup1\n      swap2\n      pop\n      pop\n      0x01\n      swap1\n      sub\n      swap1\n      0x00\n      mstore\n      keccak256(0x00, 0x20)\n      add\n      0x00\n      swap1\n      swap2\n      swap1\n      swap2\n      swap1\n      swap2\n      0x0100\n      exp\n      dup2\n      sload\n      dup2\n      0xffffffffffffffffffffffffffffffffffffffff\n      mul\n      not\n      and\n      swap1\n      dup4\n      0xffffffffffffffffffffffffffffffffffffffff\n      and\n      mul\n      or\n      swap1\n      sstore\n      pop\n        /* \"Dao.sol\":1300:1658  function Contribution() public payable  {... */\n      jump\t// out\n    tag_180:\n      mload(0x40)\n      dup1\n      0xe0\n      add\n      0x40\n      mstore\n      dup1\n      0x00\n      dup2\n      mstore\n      0x20\n      add\n      0x60\n      dup2\n      mstore\n      0x20\n      add\n      0x00\n      dup2\n      mstore\n      0x20\n      add\n      and(0xffffffffffffffffffffffffffffffffffffffff, 0x00)\n      dup2\n      mstore\n      0x20\n      add\n      0x00\n      dup2\n      mstore\n      0x20\n      add\n      0x00\n      dup2\n      mstore\n      0x20\n      add\n      iszero(iszero(0x00))\n      dup2\n      mstore\n      pop\n      swap1\n      jump\t// out\n        /* \"#utility.yul\":7:84   */\n    tag_215:\n        /* \"#utility.yul\":44:51   */\n      0x00\n        /* \"#utility.yul\":73:78   */\n      dup2\n        /* \"#utility.yul\":62:78   */\n      swap1\n      pop\n        /* \"#utility.yul\":7:84   */\n      swap2\n      swap1\n      pop\n      jump\t// out\n        /* \"#utility.yul\":90:208   */\n    tag_216:\n        /* \"#utility.yul\":177:201   */\n      tag_302\n        /* \"#utility.yul\":195:200   */\n      dup2\n        /* \"#utility.yul\":177:201   */\n      tag_215\n      jump\t// in\n    tag_302:\n        /* \"#utility.yul\":172:175   */\n      dup3\n        /* \"#utility.yul\":165:202   */\n      mstore\n        /* \"#utility.yul\":90:208   */\n      pop\n      pop\n      jump\t// out\n        /* \"#utility.yul\":214:436   */\n    tag_27:\n        /* \"#utility.yul\":307:311   */\n      0x00\n        /* \"#utility.yul\":345:347   */\n      0x20\n        /* \"#utility.yul\":334:343   */\n      dup3\n        /* \"#utility.yul\":330:348   */\n      add\n        /* \"#utility.yul\":322:348   */\n      swap1\n      pop\n        /* \"#utility.yul\":358:429   */\n      tag_304\n        /* \"#utility.yul\":426:427   */\n      0x00\n        /* \"#utility.yul\":415:424   */\n      dup4\n        /* \"#utility.yul\":411:428   */\n      add\n        /* \"#utility.yul\":402:408   */\n      dup5\n        /* \"#utility.yul\":358:429   */\n      tag_216\n      jump\t// in\n    tag_304:\n        /* \"#utility.yul\":214:436   */\n      swap3\n      swap2\n      pop\n      pop\n      jump\t// out\n        /* \"#utility.yul\":523:640   */\n    tag_218:\n        /* \"#utility.yul\":632:633   */\n      0x00\n        /* \"#utility.yul\":629:630   */\n      dup1\n        /* \"#utility.yul\":622:634   */\n      revert\n        /* \"#utility.yul\":646:763   */\n    tag_219:\n        /* \"#utility.yul\":755:756   */\n      0x00\n        /* \"#utility.yul\":752:753   */\n      dup1\n        /* \"#utility.yul\":745:757   */\n      revert\n        /* \"#utility.yul\":769:891   */\n    tag_220:\n        /* \"#utility.yul\":842:866   */\n      tag_309\n        /* \"#utility.yul\":860:865   */\n      dup2\n        /* \"#utility.yul\":842:866   */\n      tag_215\n      jump\t// in\n    tag_309:\n        /* \"#utility.yul\":835:840   */\n      dup2\n        /* \"#utility.yul\":832:867   */\n      eq\n        /* \"#utility.yul\":822:885   */\n      tag_310\n      jumpi\n        /* \"#utility.yul\":881:882   */\n      0x00\n        /* \"#utility.yul\":878:879   */\n      dup1\n        /* \"#utility.yul\":871:883   */\n      revert\n        /* \"#utility.yul\":822:885   */\n    tag_310:\n        /* \"#utility.yul\":769:891   */\n      pop\n      jump\t// out\n        /* \"#utility.yul\":897:1036   */\n    tag_221:\n        /* \"#utility.yul\":943:948   */\n      0x00\n        /* \"#utility.yul\":981:987   */\n      dup2\n        /* \"#utility.yul\":968:988   */\n      calldataload\n        /* \"#utility.yul\":959:988   */\n      swap1\n      pop\n        /* \"#utility.yul\":997:1030   */\n      tag_312\n        /* \"#utility.yul\":1024:1029   */\n      dup2\n        /* \"#utility.yul\":997:1030   */\n      tag_220\n      jump\t// in\n    tag_312:\n        /* \"#utility.yul\":897:1036   */\n      swap3\n      swap2\n      pop\n      pop\n      jump\t// out\n        /* \"#utility.yul\":1042:1168   */\n    tag_222:\n        /* \"#utility.yul\":1079:1086   */\n      0x00\n        /* \"#utility.yul\":1119:1161   */\n      0xffffffffffffffffffffffffffffffffffffffff\n        /* \"#utility.yul\":1112:1117   */\n      dup3\n        /* \"#utility.yul\":1108:1162   */\n      and\n        /* \"#utility.yul\":1097:1162   */\n      swap1\n      pop\n        /* \"#utility.yul\":1042:1168   */\n      swap2\n      swap1\n      pop\n      jump\t// out\n        /* \"#utility.yul\":1174:1278   */\n    tag_223:\n        /* \"#utility.yul\":1219:1226   */\n      0x00\n        /* \"#utility.yul\":1248:1272   */\n      tag_315\n        /* \"#utility.yul\":1266:1271   */\n      dup3\n        /* \"#utility.yul\":1248:1272   */\n      tag_222\n      jump\t// in\n    tag_315:\n        /* \"#utility.yul\":1237:1272   */\n      swap1\n      pop\n        /* \"#utility.yul\":1174:1278   */\n      swap2\n      swap1\n      pop\n      jump\t// out\n        /* \"#utility.yul\":1284:1422   */\n    tag_224:\n        /* \"#utility.yul\":1365:1397   */\n      tag_317\n        /* \"#utility.yul\":1391:1396   */\n      dup2\n        /* \"#utility.yul\":1365:1397   */\n      tag_223\n      jump\t// in\n    tag_317:\n        /* \"#utility.yul\":1358:1363   */\n      dup2\n        /* \"#utility.yul\":1355:1398   */\n      eq\n        /* \"#utility.yul\":1345:1416   */\n      tag_318\n      jumpi\n        /* \"#utility.yul\":1412:1413   */\n      0x00\n        /* \"#utility.yul\":1409:1410   */\n      dup1\n        /* \"#utility.yul\":1402:1414   */\n      revert\n        /* \"#utility.yul\":1345:1416   */\n    tag_318:\n        /* \"#utility.yul\":1284:1422   */\n      pop\n      jump\t// out\n        /* \"#utility.yul\":1428:1583   */\n    tag_225:\n        /* \"#utility.yul\":1482:1487   */\n      0x00\n        /* \"#utility.yul\":1520:1526   */\n      dup2\n        /* \"#utility.yul\":1507:1527   */\n      calldataload\n        /* \"#utility.yul\":1498:1527   */\n      swap1\n      pop\n        /* \"#utility.yul\":1536:1577   */\n      tag_320\n        /* \"#utility.yul\":1571:1576   */\n      dup2\n        /* \"#utility.yul\":1536:1577   */\n      tag_224\n      jump\t// in\n    tag_320:\n        /* \"#utility.yul\":1428:1583   */\n      swap3\n      swap2\n      pop\n      pop\n      jump\t// out\n        /* \"#utility.yul\":1589:2079   */\n    tag_31:\n        /* \"#utility.yul\":1665:1671   */\n      0x00\n        /* \"#utility.yul\":1673:1679   */\n      dup1\n        /* \"#utility.yul\":1722:1724   */\n      0x40\n        /* \"#utility.yul\":1710:1719   */\n      dup4\n        /* \"#utility.yul\":1701:1708   */\n      dup6\n        /* \"#utility.yul\":1697:1720   */\n      sub\n        /* \"#utility.yul\":1693:1725   */\n      slt\n        /* \"#utility.yul\":1690:1809   */\n      iszero\n      tag_322\n      jumpi\n        /* \"#utility.yul\":1728:1807   */\n      tag_323\n      tag_218\n      jump\t// in\n    tag_323:\n        /* \"#utility.yul\":1690:1809   */\n    tag_322:\n        /* \"#utility.yul\":1848:1849   */\n      0x00\n        /* \"#utility.yul\":1873:1926   */\n      tag_324\n        /* \"#utility.yul\":1918:1925   */\n      dup6\n        /* \"#utility.yul\":1909:1915   */\n      dup3\n        /* \"#utility.yul\":1898:1907   */\n      dup7\n        /* \"#utility.yul\":1894:1916   */\n      add\n        /* \"#utility.yul\":1873:1926   */\n      tag_221\n      jump\t// in\n    tag_324:\n        /* \"#utility.yul\":1863:1926   */\n      swap3\n      pop\n        /* \"#utility.yul\":1819:1936   */\n      pop\n        /* \"#utility.yul\":1975:1977   */\n      0x20\n        /* \"#utility.yul\":2001:2062   */\n      tag_325\n        /* \"#utility.yul\":2054:2061   */\n      dup6\n        /* \"#utility.yul\":2045:2051   */\n      dup3\n        /* \"#utility.yul\":2034:2043   */\n      dup7\n        /* \"#utility.yul\":2030:2052   */\n      add\n        /* \"#utility.yul\":2001:2062   */\n      tag_225\n      jump\t// in\n    tag_325:\n        /* \"#utility.yul\":1991:2062   */\n      swap2\n      pop\n        /* \"#utility.yul\":1946:2072   */\n      pop\n        /* \"#utility.yul\":1589:2079   */\n      swap3\n      pop\n      swap3\n      swap1\n      pop\n      jump\t// out\n        /* \"#utility.yul\":2085:2414   */\n    tag_36:\n        /* \"#utility.yul\":2144:2150   */\n      0x00\n        /* \"#utility.yul\":2193:2195   */\n      0x20\n        /* \"#utility.yul\":2181:2190   */\n      dup3\n        /* \"#utility.yul\":2172:2179   */\n      dup5\n        /* \"#utility.yul\":2168:2191   */\n      sub\n        /* \"#utility.yul\":2164:2196   */\n      slt\n        /* \"#utility.yul\":2161:2280   */\n      iszero\n      tag_327\n      jumpi\n        /* \"#utility.yul\":2199:2278   */\n      tag_328\n      tag_218\n      jump\t// in\n    tag_328:\n        /* \"#utility.yul\":2161:2280   */\n    tag_327:\n        /* \"#utility.yul\":2319:2320   */\n      0x00\n        /* \"#utility.yul\":2344:2397   */\n      tag_329\n        /* \"#utility.yul\":2389:2396   */\n      dup5\n        /* \"#utility.yul\":2380:2386   */\n      dup3\n        /* \"#utility.yul\":2369:2378   */\n      dup6\n        /* \"#utility.yul\":2365:2387   */\n      add\n        /* \"#utility.yul\":2344:2397   */\n      tag_221\n      jump\t// in\n    tag_329:\n        /* \"#utility.yul\":2334:2397   */\n      swap2\n      pop\n        /* \"#utility.yul\":2290:2407   */\n      pop\n        /* \"#utility.yul\":2085:2414   */\n      swap3\n      swap2\n      pop\n      pop\n      jump\t// out\n        /* \"#utility.yul\":2420:2519   */\n    tag_226:\n        /* \"#utility.yul\":2472:2478   */\n      0x00\n        /* \"#utility.yul\":2506:2511   */\n      dup2\n        /* \"#utility.yul\":2500:2512   */\n      mload\n        /* \"#utility.yul\":2490:2512   */\n      swap1\n      pop\n        /* \"#utility.yul\":2420:2519   */\n      swap2\n      swap1\n      pop\n      jump\t// out\n        /* \"#utility.yul\":2525:2694   */\n    tag_227:\n        /* \"#utility.yul\":2609:2620   */\n      0x00\n        /* \"#utility.yul\":2643:2649   */\n      dup3\n        /* \"#utility.yul\":2638:2641   */\n      dup3\n        /* \"#utility.yul\":2631:2650   */\n      mstore\n        /* \"#utility.yul\":2683:2687   */\n      0x20\n        /* \"#utility.yul\":2678:2681   */\n      dup3\n        /* \"#utility.yul\":2674:2688   */\n      add\n        /* \"#utility.yul\":2659:2688   */\n      swap1\n      pop\n        /* \"#utility.yul\":2525:2694   */\n      swap3\n      swap2\n      pop\n      pop\n      jump\t// out\n        /* \"#utility.yul\":2700:2946   */\n    tag_228:\n        /* \"#utility.yul\":2781:2782   */\n      0x00\n        /* \"#utility.yul\":2791:2904   */\n    tag_333:\n        /* \"#utility.yul\":2805:2811   */\n      dup4\n        /* \"#utility.yul\":2802:2803   */\n      dup2\n        /* \"#utility.yul\":2799:2812   */\n      lt\n        /* \"#utility.yul\":2791:2904   */\n      iszero\n      tag_335\n      jumpi\n        /* \"#utility.yul\":2890:2891   */\n      dup1\n        /* \"#utility.yul\":2885:2888   */\n      dup3\n        /* \"#utility.yul\":2881:2892   */\n      add\n        /* \"#utility.yul\":2875:2893   */\n      mload\n        /* \"#utility.yul\":2871:2872   */\n      dup2\n        /* \"#utility.yul\":2866:2869   */\n      dup5\n        /* \"#utility.yul\":2862:2873   */\n      add\n        /* \"#utility.yul\":2855:2894   */\n      mstore\n        /* \"#utility.yul\":2827:2829   */\n      0x20\n        /* \"#utility.yul\":2824:2825   */\n      dup2\n        /* \"#utility.yul\":2820:2830   */\n      add\n        /* \"#utility.yul\":2815:2830   */\n      swap1\n      pop\n        /* \"#utility.yul\":2791:2904   */\n      jump(tag_333)\n    tag_335:\n        /* \"#utility.yul\":2938:2939   */\n      0x00\n        /* \"#utility.yul\":2929:2935   */\n      dup5\n        /* \"#utility.yul\":2924:2927   */\n      dup5\n        /* \"#utility.yul\":2920:2936   */\n      add\n        /* \"#utility.yul\":2913:2940   */\n      mstore\n        /* \"#utility.yul\":2762:2946   */\n      pop\n        /* \"#utility.yul\":2700:2946   */\n      pop\n      pop\n      pop\n      jump\t// out\n        /* \"#utility.yul\":2952:3054   */\n    tag_229:\n        /* \"#utility.yul\":2993:2999   */\n      0x00\n        /* \"#utility.yul\":3044:3046   */\n      0x1f\n        /* \"#utility.yul\":3040:3047   */\n      not\n        /* \"#utility.yul\":3035:3037   */\n      0x1f\n        /* \"#utility.yul\":3028:3033   */\n      dup4\n        /* \"#utility.yul\":3024:3038   */\n      add\n        /* \"#utility.yul\":3020:3048   */\n      and\n        /* \"#utility.yul\":3010:3048   */\n      swap1\n      pop\n        /* \"#utility.yul\":2952:3054   */\n      swap2\n      swap1\n      pop\n      jump\t// out\n        /* \"#utility.yul\":3060:3437   */\n    tag_230:\n        /* \"#utility.yul\":3148:3151   */\n      0x00\n        /* \"#utility.yul\":3176:3215   */\n      tag_338\n        /* \"#utility.yul\":3209:3214   */\n      dup3\n        /* \"#utility.yul\":3176:3215   */\n      tag_226\n      jump\t// in\n    tag_338:\n        /* \"#utility.yul\":3231:3302   */\n      tag_339\n        /* \"#utility.yul\":3295:3301   */\n      dup2\n        /* \"#utility.yul\":3290:3293   */\n      dup6\n        /* \"#utility.yul\":3231:3302   */\n      tag_227\n      jump\t// in\n    tag_339:\n        /* \"#utility.yul\":3224:3302   */\n      swap4\n      pop\n        /* \"#utility.yul\":3311:3376   */\n      tag_340\n        /* \"#utility.yul\":3369:3375   */\n      dup2\n        /* \"#utility.yul\":3364:3367   */\n      dup6\n        /* \"#utility.yul\":3357:3361   */\n      0x20\n        /* \"#utility.yul\":3350:3355   */\n      dup7\n        /* \"#utility.yul\":3346:3362   */\n      add\n        /* \"#utility.yul\":3311:3376   */\n      tag_228\n      jump\t// in\n    tag_340:\n        /* \"#utility.yul\":3401:3430   */\n      tag_341\n        /* \"#utility.yul\":3423:3429   */\n      dup2\n        /* \"#utility.yul\":3401:3430   */\n      tag_229\n      jump\t// in\n    tag_341:\n        /* \"#utility.yul\":3396:3399   */\n      dup5\n        /* \"#utility.yul\":3392:3431   */\n      add\n        /* \"#utility.yul\":3385:3431   */\n      swap2\n      pop\n        /* \"#utility.yul\":3152:3437   */\n      pop\n        /* \"#utility.yul\":3060:3437   */\n      swap3\n      swap2\n      pop\n      pop\n      jump\t// out\n        /* \"#utility.yul\":3443:3585   */\n    tag_231:\n        /* \"#utility.yul\":3546:3578   */\n      tag_343\n        /* \"#utility.yul\":3572:3577   */\n      dup2\n        /* \"#utility.yul\":3546:3578   */\n      tag_223\n      jump\t// in\n    tag_343:\n        /* \"#utility.yul\":3541:3544   */\n      dup3\n        /* \"#utility.yul\":3534:3579   */\n      mstore\n        /* \"#utility.yul\":3443:3585   */\n      pop\n      pop\n      jump\t// out\n        /* \"#utility.yul\":3591:3681   */\n    tag_232:\n        /* \"#utility.yul\":3625:3632   */\n      0x00\n        /* \"#utility.yul\":3668:3673   */\n      dup2\n        /* \"#utility.yul\":3661:3674   */\n      iszero\n        /* \"#utility.yul\":3654:3675   */\n      iszero\n        /* \"#utility.yul\":3643:3675   */\n      swap1\n      pop\n        /* \"#utility.yul\":3591:3681   */\n      swap2\n      swap1\n      pop\n      jump\t// out\n        /* \"#utility.yul\":3687:3796   */\n    tag_233:\n        /* \"#utility.yul\":3768:3789   */\n      tag_346\n        /* \"#utility.yul\":3783:3788   */\n      dup2\n        /* \"#utility.yul\":3768:3789   */\n      tag_232\n      jump\t// in\n    tag_346:\n        /* \"#utility.yul\":3763:3766   */\n      dup3\n        /* \"#utility.yul\":3756:3790   */\n      mstore\n        /* \"#utility.yul\":3687:3796   */\n      pop\n      pop\n      jump\t// out\n        /* \"#utility.yul\":3802:4799   */\n    tag_39:\n        /* \"#utility.yul\":4093:4097   */\n      0x00\n        /* \"#utility.yul\":4131:4134   */\n      0xe0\n        /* \"#utility.yul\":4120:4129   */\n      dup3\n        /* \"#utility.yul\":4116:4135   */\n      add\n        /* \"#utility.yul\":4108:4135   */\n      swap1\n      pop\n        /* \"#utility.yul\":4145:4216   */\n      tag_348\n        /* \"#utility.yul\":4213:4214   */\n      0x00\n        /* \"#utility.yul\":4202:4211   */\n      dup4\n        /* \"#utility.yul\":4198:4215   */\n      add\n        /* \"#utility.yul\":4189:4195   */\n      dup11\n        /* \"#utility.yul\":4145:4216   */\n      tag_216\n      jump\t// in\n    tag_348:\n        /* \"#utility.yul\":4263:4272   */\n      dup2\n        /* \"#utility.yul\":4257:4261   */\n      dup2\n        /* \"#utility.yul\":4253:4273   */\n      sub\n        /* \"#utility.yul\":4248:4250   */\n      0x20\n        /* \"#utility.yul\":4237:4246   */\n      dup4\n        /* \"#utility.yul\":4233:4251   */\n      add\n        /* \"#utility.yul\":4226:4274   */\n      mstore\n        /* \"#utility.yul\":4291:4369   */\n      tag_349\n        /* \"#utility.yul\":4364:4368   */\n      dup2\n        /* \"#utility.yul\":4355:4361   */\n      dup10\n        /* \"#utility.yul\":4291:4369   */\n      tag_230\n      jump\t// in\n    tag_349:\n        /* \"#utility.yul\":4283:4369   */\n      swap1\n      pop\n        /* \"#utility.yul\":4379:4451   */\n      tag_350\n        /* \"#utility.yul\":4447:4449   */\n      0x40\n        /* \"#utility.yul\":4436:4445   */\n      dup4\n        /* \"#utility.yul\":4432:4450   */\n      add\n        /* \"#utility.yul\":4423:4429   */\n      dup9\n        /* \"#utility.yul\":4379:4451   */\n      tag_216\n      jump\t// in\n    tag_350:\n        /* \"#utility.yul\":4461:4549   */\n      tag_351\n        /* \"#utility.yul\":4545:4547   */\n      0x60\n        /* \"#utility.yul\":4534:4543   */\n      dup4\n        /* \"#utility.yul\":4530:4548   */\n      add\n        /* \"#utility.yul\":4521:4527   */\n      dup8\n        /* \"#utility.yul\":4461:4549   */\n      tag_231\n      jump\t// in\n    tag_351:\n        /* \"#utility.yul\":4559:4632   */\n      tag_352\n        /* \"#utility.yul\":4627:4630   */\n      0x80\n        /* \"#utility.yul\":4616:4625   */\n      dup4\n        /* \"#utility.yul\":4612:4631   */\n      add\n        /* \"#utility.yul\":4603:4609   */\n      dup7\n        /* \"#utility.yul\":4559:4632   */\n      tag_216\n      jump\t// in\n    tag_352:\n        /* \"#utility.yul\":4642:4715   */\n      tag_353\n        /* \"#utility.yul\":4710:4713   */\n      0xa0\n        /* \"#utility.yul\":4699:4708   */\n      dup4\n        /* \"#utility.yul\":4695:4714   */\n      add\n        /* \"#utility.yul\":4686:4692   */\n      dup6\n        /* \"#utility.yul\":4642:4715   */\n      tag_216\n      jump\t// in\n    tag_353:\n        /* \"#utility.yul\":4725:4792   */\n      tag_354\n        /* \"#utility.yul\":4787:4790   */\n      0xc0\n        /* \"#utility.yul\":4776:4785   */\n      dup4\n        /* \"#utility.yul\":4772:4791   */\n      add\n        /* \"#utility.yul\":4763:4769   */\n      dup5\n        /* \"#utility.yul\":4725:4792   */\n      tag_233\n      jump\t// in\n    tag_354:\n        /* \"#utility.yul\":3802:4799   */\n      swap9\n      swap8\n      pop\n      pop\n      pop\n      pop\n      pop\n      pop\n      pop\n      pop\n      jump\t// out\n        /* \"#utility.yul\":4805:4901   */\n    tag_234:\n        /* \"#utility.yul\":4842:4849   */\n      0x00\n        /* \"#utility.yul\":4871:4895   */\n      tag_356\n        /* \"#utility.yul\":4889:4894   */\n      dup3\n        /* \"#utility.yul\":4871:4895   */\n      tag_222\n      jump\t// in\n    tag_356:\n        /* \"#utility.yul\":4860:4895   */\n      swap1\n      pop\n        /* \"#utility.yul\":4805:4901   */\n      swap2\n      swap1\n      pop\n      jump\t// out\n        /* \"#utility.yul\":4907:5025   */\n    tag_235:\n        /* \"#utility.yul\":4994:5018   */\n      tag_358\n        /* \"#utility.yul\":5012:5017   */\n      dup2\n        /* \"#utility.yul\":4994:5018   */\n      tag_234\n      jump\t// in\n    tag_358:\n        /* \"#utility.yul\":4989:4992   */\n      dup3\n        /* \"#utility.yul\":4982:5019   */\n      mstore\n        /* \"#utility.yul\":4907:5025   */\n      pop\n      pop\n      jump\t// out\n        /* \"#utility.yul\":5031:5253   */\n    tag_45:\n        /* \"#utility.yul\":5124:5128   */\n      0x00\n        /* \"#utility.yul\":5162:5164   */\n      0x20\n        /* \"#utility.yul\":5151:5160   */\n      dup3\n        /* \"#utility.yul\":5147:5165   */\n      add\n        /* \"#utility.yul\":5139:5165   */\n      swap1\n      pop\n        /* \"#utility.yul\":5175:5246   */\n      tag_360\n        /* \"#utility.yul\":5243:5244   */\n      0x00\n        /* \"#utility.yul\":5232:5241   */\n      dup4\n        /* \"#utility.yul\":5228:5245   */\n      add\n        /* \"#utility.yul\":5219:5225   */\n      dup5\n        /* \"#utility.yul\":5175:5246   */\n      tag_235\n      jump\t// in\n    tag_360:\n        /* \"#utility.yul\":5031:5253   */\n      swap3\n      swap2\n      pop\n      pop\n      jump\t// out\n        /* \"#utility.yul\":5259:5373   */\n    tag_236:\n        /* \"#utility.yul\":5326:5332   */\n      0x00\n        /* \"#utility.yul\":5360:5365   */\n      dup2\n        /* \"#utility.yul\":5354:5366   */\n      mload\n        /* \"#utility.yul\":5344:5366   */\n      swap1\n      pop\n        /* \"#utility.yul\":5259:5373   */\n      swap2\n      swap1\n      pop\n      jump\t// out\n        /* \"#utility.yul\":5379:5563   */\n    tag_237:\n        /* \"#utility.yul\":5478:5489   */\n      0x00\n        /* \"#utility.yul\":5512:5518   */\n      dup3\n        /* \"#utility.yul\":5507:5510   */\n      dup3\n        /* \"#utility.yul\":5500:5519   */\n      mstore\n        /* \"#utility.yul\":5552:5556   */\n      0x20\n        /* \"#utility.yul\":5547:5550   */\n      dup3\n        /* \"#utility.yul\":5543:5557   */\n      add\n        /* \"#utility.yul\":5528:5557   */\n      swap1\n      pop\n        /* \"#utility.yul\":5379:5563   */\n      swap3\n      swap2\n      pop\n      pop\n      jump\t// out\n        /* \"#utility.yul\":5569:5701   */\n    tag_238:\n        /* \"#utility.yul\":5636:5640   */\n      0x00\n        /* \"#utility.yul\":5659:5662   */\n      dup2\n        /* \"#utility.yul\":5651:5662   */\n      swap1\n      pop\n        /* \"#utility.yul\":5689:5693   */\n      0x20\n        /* \"#utility.yul\":5684:5687   */\n      dup3\n        /* \"#utility.yul\":5680:5694   */\n      add\n        /* \"#utility.yul\":5672:5694   */\n      swap1\n      pop\n        /* \"#utility.yul\":5569:5701   */\n      swap2\n      swap1\n      pop\n      jump\t// out\n        /* \"#utility.yul\":5707:5815   */\n    tag_239:\n        /* \"#utility.yul\":5784:5808   */\n      tag_365\n        /* \"#utility.yul\":5802:5807   */\n      dup2\n        /* \"#utility.yul\":5784:5808   */\n      tag_234\n      jump\t// in\n    tag_365:\n        /* \"#utility.yul\":5779:5782   */\n      dup3\n        /* \"#utility.yul\":5772:5809   */\n      mstore\n        /* \"#utility.yul\":5707:5815   */\n      pop\n      pop\n      jump\t// out\n        /* \"#utility.yul\":5821:6000   */\n    tag_240:\n        /* \"#utility.yul\":5890:5900   */\n      0x00\n        /* \"#utility.yul\":5911:5957   */\n      tag_367\n        /* \"#utility.yul\":5953:5956   */\n      dup4\n        /* \"#utility.yul\":5945:5951   */\n      dup4\n        /* \"#utility.yul\":5911:5957   */\n      tag_239\n      jump\t// in\n    tag_367:\n        /* \"#utility.yul\":5989:5993   */\n      0x20\n        /* \"#utility.yul\":5984:5987   */\n      dup4\n        /* \"#utility.yul\":5980:5994   */\n      add\n        /* \"#utility.yul\":5966:5994   */\n      swap1\n      pop\n        /* \"#utility.yul\":5821:6000   */\n      swap3\n      swap2\n      pop\n      pop\n      jump\t// out\n        /* \"#utility.yul\":6006:6119   */\n    tag_241:\n        /* \"#utility.yul\":6076:6080   */\n      0x00\n        /* \"#utility.yul\":6108:6112   */\n      0x20\n        /* \"#utility.yul\":6103:6106   */\n      dup3\n        /* \"#utility.yul\":6099:6113   */\n      add\n        /* \"#utility.yul\":6091:6113   */\n      swap1\n      pop\n        /* \"#utility.yul\":6006:6119   */\n      swap2\n      swap1\n      pop\n      jump\t// out\n        /* \"#utility.yul\":6155:6887   */\n    tag_242:\n        /* \"#utility.yul\":6274:6277   */\n      0x00\n        /* \"#utility.yul\":6303:6357   */\n      tag_370\n        /* \"#utility.yul\":6351:6356   */\n      dup3\n        /* \"#utility.yul\":6303:6357   */\n      tag_236\n      jump\t// in\n    tag_370:\n        /* \"#utility.yul\":6373:6459   */\n      tag_371\n        /* \"#utility.yul\":6452:6458   */\n      dup2\n        /* \"#utility.yul\":6447:6450   */\n      dup6\n        /* \"#utility.yul\":6373:6459   */\n      tag_237\n      jump\t// in\n    tag_371:\n        /* \"#utility.yul\":6366:6459   */\n      swap4\n      pop\n        /* \"#utility.yul\":6483:6539   */\n      tag_372\n        /* \"#utility.yul\":6533:6538   */\n      dup4\n        /* \"#utility.yul\":6483:6539   */\n      tag_238\n      jump\t// in\n    tag_372:\n        /* \"#utility.yul\":6562:6569   */\n      dup1\n        /* \"#utility.yul\":6593:6594   */\n      0x00\n        /* \"#utility.yul\":6578:6862   */\n    tag_373:\n        /* \"#utility.yul\":6603:6609   */\n      dup4\n        /* \"#utility.yul\":6600:6601   */\n      dup2\n        /* \"#utility.yul\":6597:6610   */\n      lt\n        /* \"#utility.yul\":6578:6862   */\n      iszero\n      tag_375\n      jumpi\n        /* \"#utility.yul\":6679:6685   */\n      dup2\n        /* \"#utility.yul\":6673:6686   */\n      mload\n        /* \"#utility.yul\":6706:6769   */\n      tag_376\n        /* \"#utility.yul\":6765:6768   */\n      dup9\n        /* \"#utility.yul\":6750:6763   */\n      dup3\n        /* \"#utility.yul\":6706:6769   */\n      tag_240\n      jump\t// in\n    tag_376:\n        /* \"#utility.yul\":6699:6769   */\n      swap8\n      pop\n        /* \"#utility.yul\":6792:6852   */\n      tag_377\n        /* \"#utility.yul\":6845:6851   */\n      dup4\n        /* \"#utility.yul\":6792:6852   */\n      tag_241\n      jump\t// in\n    tag_377:\n        /* \"#utility.yul\":6782:6852   */\n      swap3\n      pop\n        /* \"#utility.yul\":6638:6862   */\n      pop\n        /* \"#utility.yul\":6625:6626   */\n      0x01\n        /* \"#utility.yul\":6622:6623   */\n      dup2\n        /* \"#utility.yul\":6618:6627   */\n      add\n        /* \"#utility.yul\":6613:6627   */\n      swap1\n      pop\n        /* \"#utility.yul\":6578:6862   */\n      jump(tag_373)\n    tag_375:\n        /* \"#utility.yul\":6582:6596   */\n      pop\n        /* \"#utility.yul\":6878:6881   */\n      dup6\n        /* \"#utility.yul\":6871:6881   */\n      swap4\n      pop\n        /* \"#utility.yul\":6279:6887   */\n      pop\n      pop\n      pop\n        /* \"#utility.yul\":6155:6887   */\n      swap3\n      swap2\n      pop\n      pop\n      jump\t// out\n        /* \"#utility.yul\":6893:7266   */\n    tag_70:\n        /* \"#utility.yul\":7036:7040   */\n      0x00\n        /* \"#utility.yul\":7074:7076   */\n      0x20\n        /* \"#utility.yul\":7063:7072   */\n      dup3\n        /* \"#utility.yul\":7059:7077   */\n      add\n        /* \"#utility.yul\":7051:7077   */\n      swap1\n      pop\n        /* \"#utility.yul\":7123:7132   */\n      dup2\n        /* \"#utility.yul\":7117:7121   */\n      dup2\n        /* \"#utility.yul\":7113:7133   */\n      sub\n        /* \"#utility.yul\":7109:7110   */\n      0x00\n        /* \"#utility.yul\":7098:7107   */\n      dup4\n        /* \"#utility.yul\":7094:7111   */\n      add\n        /* \"#utility.yul\":7087:7134   */\n      mstore\n        /* \"#utility.yul\":7151:7259   */\n      tag_379\n        /* \"#utility.yul\":7254:7258   */\n      dup2\n        /* \"#utility.yul\":7245:7251   */\n      dup5\n        /* \"#utility.yul\":7151:7259   */\n      tag_242\n      jump\t// in\n    tag_379:\n        /* \"#utility.yul\":7143:7259   */\n      swap1\n      pop\n        /* \"#utility.yul\":6893:7266   */\n      swap3\n      swap2\n      pop\n      pop\n      jump\t// out\n        /* \"#utility.yul\":7272:7410   */\n    tag_243:\n        /* \"#utility.yul\":7363:7369   */\n      0x00\n        /* \"#utility.yul\":7397:7402   */\n      dup2\n        /* \"#utility.yul\":7391:7403   */\n      mload\n        /* \"#utility.yul\":7381:7403   */\n      swap1\n      pop\n        /* \"#utility.yul\":7272:7410   */\n      swap2\n      swap1\n      pop\n      jump\t// out\n        /* \"#utility.yul\":7416:7624   */\n    tag_244:\n        /* \"#utility.yul\":7539:7550   */\n      0x00\n        /* \"#utility.yul\":7573:7579   */\n      dup3\n        /* \"#utility.yul\":7568:7571   */\n      dup3\n        /* \"#utility.yul\":7561:7580   */\n      mstore\n        /* \"#utility.yul\":7613:7617   */\n      0x20\n        /* \"#utility.yul\":7608:7611   */\n      dup3\n        /* \"#utility.yul\":7604:7618   */\n      add\n        /* \"#utility.yul\":7589:7618   */\n      swap1\n      pop\n        /* \"#utility.yul\":7416:7624   */\n      swap3\n      swap2\n      pop\n      pop\n      jump\t// out\n        /* \"#utility.yul\":7630:7786   */\n    tag_245:\n        /* \"#utility.yul\":7721:7725   */\n      0x00\n        /* \"#utility.yul\":7744:7747   */\n      dup2\n        /* \"#utility.yul\":7736:7747   */\n      swap1\n      pop\n        /* \"#utility.yul\":7774:7778   */\n      0x20\n        /* \"#utility.yul\":7769:7772   */\n      dup3\n        /* \"#utility.yul\":7765:7779   */\n      add\n        /* \"#utility.yul\":7757:7779   */\n      swap1\n      pop\n        /* \"#utility.yul\":7630:7786   */\n      swap2\n      swap1\n      pop\n      jump\t// out\n        /* \"#utility.yul\":7792:7900   */\n    tag_246:\n        /* \"#utility.yul\":7869:7893   */\n      tag_384\n        /* \"#utility.yul\":7887:7892   */\n      dup2\n        /* \"#utility.yul\":7869:7893   */\n      tag_215\n      jump\t// in\n    tag_384:\n        /* \"#utility.yul\":7864:7867   */\n      dup3\n        /* \"#utility.yul\":7857:7894   */\n      mstore\n        /* \"#utility.yul\":7792:7900   */\n      pop\n      pop\n      jump\t// out\n        /* \"#utility.yul\":7906:8065   */\n    tag_247:\n        /* \"#utility.yul\":7980:7991   */\n      0x00\n        /* \"#utility.yul\":8014:8020   */\n      dup3\n        /* \"#utility.yul\":8009:8012   */\n      dup3\n        /* \"#utility.yul\":8002:8021   */\n      mstore\n        /* \"#utility.yul\":8054:8058   */\n      0x20\n        /* \"#utility.yul\":8049:8052   */\n      dup3\n        /* \"#utility.yul\":8045:8059   */\n      add\n        /* \"#utility.yul\":8030:8059   */\n      swap1\n      pop\n        /* \"#utility.yul\":7906:8065   */\n      swap3\n      swap2\n      pop\n      pop\n      jump\t// out\n        /* \"#utility.yul\":8071:8428   */\n    tag_248:\n        /* \"#utility.yul\":8149:8152   */\n      0x00\n        /* \"#utility.yul\":8177:8216   */\n      tag_387\n        /* \"#utility.yul\":8210:8215   */\n      dup3\n        /* \"#utility.yul\":8177:8216   */\n      tag_226\n      jump\t// in\n    tag_387:\n        /* \"#utility.yul\":8232:8293   */\n      tag_388\n        /* \"#utility.yul\":8286:8292   */\n      dup2\n        /* \"#utility.yul\":8281:8284   */\n      dup6\n        /* \"#utility.yul\":8232:8293   */\n      tag_247\n      jump\t// in\n    tag_388:\n        /* \"#utility.yul\":8225:8293   */\n      swap4\n      pop\n        /* \"#utility.yul\":8302:8367   */\n      tag_389\n        /* \"#utility.yul\":8360:8366   */\n      dup2\n        /* \"#utility.yul\":8355:8358   */\n      dup6\n        /* \"#utility.yul\":8348:8352   */\n      0x20\n        /* \"#utility.yul\":8341:8346   */\n      dup7\n        /* \"#utility.yul\":8337:8353   */\n      add\n        /* \"#utility.yul\":8302:8367   */\n      tag_228\n      jump\t// in\n    tag_389:\n        /* \"#utility.yul\":8392:8421   */\n      tag_390\n        /* \"#utility.yul\":8414:8420   */\n      dup2\n        /* \"#utility.yul\":8392:8421   */\n      tag_229\n      jump\t// in\n    tag_390:\n        /* \"#utility.yul\":8387:8390   */\n      dup5\n        /* \"#utility.yul\":8383:8422   */\n      add\n        /* \"#utility.yul\":8376:8422   */\n      swap2\n      pop\n        /* \"#utility.yul\":8153:8428   */\n      pop\n        /* \"#utility.yul\":8071:8428   */\n      swap3\n      swap2\n      pop\n      pop\n      jump\t// out\n        /* \"#utility.yul\":8434:8566   */\n    tag_249:\n        /* \"#utility.yul\":8527:8559   */\n      tag_392\n        /* \"#utility.yul\":8553:8558   */\n      dup2\n        /* \"#utility.yul\":8527:8559   */\n      tag_223\n      jump\t// in\n    tag_392:\n        /* \"#utility.yul\":8522:8525   */\n      dup3\n        /* \"#utility.yul\":8515:8560   */\n      mstore\n        /* \"#utility.yul\":8434:8566   */\n      pop\n      pop\n      jump\t// out\n        /* \"#utility.yul\":8572:8671   */\n    tag_250:\n        /* \"#utility.yul\":8643:8664   */\n      tag_394\n        /* \"#utility.yul\":8658:8663   */\n      dup2\n        /* \"#utility.yul\":8643:8664   */\n      tag_232\n      jump\t// in\n    tag_394:\n        /* \"#utility.yul\":8638:8641   */\n      dup3\n        /* \"#utility.yul\":8631:8665   */\n      mstore\n        /* \"#utility.yul\":8572:8671   */\n      pop\n      pop\n      jump\t// out\n        /* \"#utility.yul\":8743:10232   */\n    tag_251:\n        /* \"#utility.yul\":8850:8853   */\n      0x00\n        /* \"#utility.yul\":8886:8890   */\n      0xe0\n        /* \"#utility.yul\":8881:8884   */\n      dup4\n        /* \"#utility.yul\":8877:8891   */\n      add\n        /* \"#utility.yul\":8971:8975   */\n      0x00\n        /* \"#utility.yul\":8964:8969   */\n      dup4\n        /* \"#utility.yul\":8960:8976   */\n      add\n        /* \"#utility.yul\":8954:8977   */\n      mload\n        /* \"#utility.yul\":8990:9053   */\n      tag_396\n        /* \"#utility.yul\":9047:9051   */\n      0x00\n        /* \"#utility.yul\":9042:9045   */\n      dup7\n        /* \"#utility.yul\":9038:9052   */\n      add\n        /* \"#utility.yul\":9024:9036   */\n      dup3\n        /* \"#utility.yul\":8990:9053   */\n      tag_246\n      jump\t// in\n    tag_396:\n        /* \"#utility.yul\":8901:9063   */\n      pop\n        /* \"#utility.yul\":9152:9156   */\n      0x20\n        /* \"#utility.yul\":9145:9150   */\n      dup4\n        /* \"#utility.yul\":9141:9157   */\n      add\n        /* \"#utility.yul\":9135:9158   */\n      mload\n        /* \"#utility.yul\":9205:9208   */\n      dup5\n        /* \"#utility.yul\":9199:9203   */\n      dup3\n        /* \"#utility.yul\":9195:9209   */\n      sub\n        /* \"#utility.yul\":9188:9192   */\n      0x20\n        /* \"#utility.yul\":9183:9186   */\n      dup7\n        /* \"#utility.yul\":9179:9193   */\n      add\n        /* \"#utility.yul\":9172:9210   */\n      mstore\n        /* \"#utility.yul\":9231:9304   */\n      tag_397\n        /* \"#utility.yul\":9299:9303   */\n      dup3\n        /* \"#utility.yul\":9285:9297   */\n      dup3\n        /* \"#utility.yul\":9231:9304   */\n      tag_248\n      jump\t// in\n    tag_397:\n        /* \"#utility.yul\":9223:9304   */\n      swap2\n      pop\n        /* \"#utility.yul\":9073:9315   */\n      pop\n        /* \"#utility.yul\":9399:9403   */\n      0x40\n        /* \"#utility.yul\":9392:9397   */\n      dup4\n        /* \"#utility.yul\":9388:9404   */\n      add\n        /* \"#utility.yul\":9382:9405   */\n      mload\n        /* \"#utility.yul\":9418:9481   */\n      tag_398\n        /* \"#utility.yul\":9475:9479   */\n      0x40\n        /* \"#utility.yul\":9470:9473   */\n      dup7\n        /* \"#utility.yul\":9466:9480   */\n      add\n        /* \"#utility.yul\":9452:9464   */\n      dup3\n        /* \"#utility.yul\":9418:9481   */\n      tag_246\n      jump\t// in\n    tag_398:\n        /* \"#utility.yul\":9325:9491   */\n      pop\n        /* \"#utility.yul\":9577:9581   */\n      0x60\n        /* \"#utility.yul\":9570:9575   */\n      dup4\n        /* \"#utility.yul\":9566:9582   */\n      add\n        /* \"#utility.yul\":9560:9583   */\n      mload\n        /* \"#utility.yul\":9596:9675   */\n      tag_399\n        /* \"#utility.yul\":9669:9673   */\n      0x60\n        /* \"#utility.yul\":9664:9667   */\n      dup7\n        /* \"#utility.yul\":9660:9674   */\n      add\n        /* \"#utility.yul\":9646:9658   */\n      dup3\n        /* \"#utility.yul\":9596:9675   */\n      tag_249\n      jump\t// in\n    tag_399:\n        /* \"#utility.yul\":9501:9685   */\n      pop\n        /* \"#utility.yul\":9768:9772   */\n      0x80\n        /* \"#utility.yul\":9761:9766   */\n      dup4\n        /* \"#utility.yul\":9757:9773   */\n      add\n        /* \"#utility.yul\":9751:9774   */\n      mload\n        /* \"#utility.yul\":9787:9850   */\n      tag_400\n        /* \"#utility.yul\":9844:9848   */\n      0x80\n        /* \"#utility.yul\":9839:9842   */\n      dup7\n        /* \"#utility.yul\":9835:9849   */\n      add\n        /* \"#utility.yul\":9821:9833   */\n      dup3\n        /* \"#utility.yul\":9787:9850   */\n      tag_246\n      jump\t// in\n    tag_400:\n        /* \"#utility.yul\":9695:9860   */\n      pop\n        /* \"#utility.yul\":9941:9945   */\n      0xa0\n        /* \"#utility.yul\":9934:9939   */\n      dup4\n        /* \"#utility.yul\":9930:9946   */\n      add\n        /* \"#utility.yul\":9924:9947   */\n      mload\n        /* \"#utility.yul\":9960:10023   */\n      tag_401\n        /* \"#utility.yul\":10017:10021   */\n      0xa0\n        /* \"#utility.yul\":10012:10015   */\n      dup7\n        /* \"#utility.yul\":10008:10022   */\n      add\n        /* \"#utility.yul\":9994:10006   */\n      dup3\n        /* \"#utility.yul\":9960:10023   */\n      tag_246\n      jump\t// in\n    tag_401:\n        /* \"#utility.yul\":9870:10033   */\n      pop\n        /* \"#utility.yul\":10119:10123   */\n      0xc0\n        /* \"#utility.yul\":10112:10117   */\n      dup4\n        /* \"#utility.yul\":10108:10124   */\n      add\n        /* \"#utility.yul\":10102:10125   */\n      mload\n        /* \"#utility.yul\":10138:10195   */\n      tag_402\n        /* \"#utility.yul\":10189:10193   */\n      0xc0\n        /* \"#utility.yul\":10184:10187   */\n      dup7\n        /* \"#utility.yul\":10180:10194   */\n      add\n        /* \"#utility.yul\":10166:10178   */\n      dup3\n        /* \"#utility.yul\":10138:10195   */\n      tag_250\n      jump\t// in\n    tag_402:\n        /* \"#utility.yul\":10043:10205   */\n      pop\n        /* \"#utility.yul\":10222:10226   */\n      dup1\n        /* \"#utility.yul\":10215:10226   */\n      swap2\n      pop\n        /* \"#utility.yul\":8855:10232   */\n      pop\n        /* \"#utility.yul\":8743:10232   */\n      swap3\n      swap2\n      pop\n      pop\n      jump\t// out\n        /* \"#utility.yul\":10238:10490   */\n    tag_252:\n        /* \"#utility.yul\":10355:10365   */\n      0x00\n        /* \"#utility.yul\":10390:10484   */\n      tag_404\n        /* \"#utility.yul\":10480:10483   */\n      dup4\n        /* \"#utility.yul\":10472:10478   */\n      dup4\n        /* \"#utility.yul\":10390:10484   */\n      tag_251\n      jump\t// in\n    tag_404:\n        /* \"#utility.yul\":10376:10484   */\n      swap1\n      pop\n        /* \"#utility.yul\":10238:10490   */\n      swap3\n      swap2\n      pop\n      pop\n      jump\t// out\n        /* \"#utility.yul\":10496:10633   */\n    tag_253:\n        /* \"#utility.yul\":10590:10594   */\n      0x00\n        /* \"#utility.yul\":10622:10626   */\n      0x20\n        /* \"#utility.yul\":10617:10620   */\n      dup3\n        /* \"#utility.yul\":10613:10627   */\n      add\n        /* \"#utility.yul\":10605:10627   */\n      swap1\n      pop\n        /* \"#utility.yul\":10496:10633   */\n      swap2\n      swap1\n      pop\n      jump\t// out\n        /* \"#utility.yul\":10709:11812   */\n    tag_254:\n        /* \"#utility.yul\":10876:10879   */\n      0x00\n        /* \"#utility.yul\":10905:10983   */\n      tag_407\n        /* \"#utility.yul\":10977:10982   */\n      dup3\n        /* \"#utility.yul\":10905:10983   */\n      tag_243\n      jump\t// in\n    tag_407:\n        /* \"#utility.yul\":10999:11109   */\n      tag_408\n        /* \"#utility.yul\":11102:11108   */\n      dup2\n        /* \"#utility.yul\":11097:11100   */\n      dup6\n        /* \"#utility.yul\":10999:11109   */\n      tag_244\n      jump\t// in\n    tag_408:\n        /* \"#utility.yul\":10992:11109   */\n      swap4\n      pop\n        /* \"#utility.yul\":11135:11138   */\n      dup4\n        /* \"#utility.yul\":11180:11184   */\n      0x20\n        /* \"#utility.yul\":11172:11178   */\n      dup3\n        /* \"#utility.yul\":11168:11185   */\n      mul\n        /* \"#utility.yul\":11163:11166   */\n      dup6\n        /* \"#utility.yul\":11159:11186   */\n      add\n        /* \"#utility.yul\":11210:11290   */\n      tag_409\n        /* \"#utility.yul\":11284:11289   */\n      dup6\n        /* \"#utility.yul\":11210:11290   */\n      tag_245\n      jump\t// in\n    tag_409:\n        /* \"#utility.yul\":11313:11320   */\n      dup1\n        /* \"#utility.yul\":11344:11345   */\n      0x00\n        /* \"#utility.yul\":11329:11767   */\n    tag_410:\n        /* \"#utility.yul\":11354:11360   */\n      dup6\n        /* \"#utility.yul\":11351:11352   */\n      dup2\n        /* \"#utility.yul\":11348:11361   */\n      lt\n        /* \"#utility.yul\":11329:11767   */\n      iszero\n      tag_412\n      jumpi\n        /* \"#utility.yul\":11425:11434   */\n      dup5\n        /* \"#utility.yul\":11419:11423   */\n      dup5\n        /* \"#utility.yul\":11415:11435   */\n      sub\n        /* \"#utility.yul\":11410:11413   */\n      dup10\n        /* \"#utility.yul\":11403:11436   */\n      mstore\n        /* \"#utility.yul\":11476:11482   */\n      dup2\n        /* \"#utility.yul\":11470:11483   */\n      mload\n        /* \"#utility.yul\":11504:11616   */\n      tag_413\n        /* \"#utility.yul\":11611:11615   */\n      dup6\n        /* \"#utility.yul\":11596:11609   */\n      dup3\n        /* \"#utility.yul\":11504:11616   */\n      tag_252\n      jump\t// in\n    tag_413:\n        /* \"#utility.yul\":11496:11616   */\n      swap5\n      pop\n        /* \"#utility.yul\":11639:11723   */\n      tag_414\n        /* \"#utility.yul\":11716:11722   */\n      dup4\n        /* \"#utility.yul\":11639:11723   */\n      tag_253\n      jump\t// in\n    tag_414:\n        /* \"#utility.yul\":11629:11723   */\n      swap3\n      pop\n        /* \"#utility.yul\":11752:11756   */\n      0x20\n        /* \"#utility.yul\":11747:11750   */\n      dup11\n        /* \"#utility.yul\":11743:11757   */\n      add\n        /* \"#utility.yul\":11736:11757   */\n      swap10\n      pop\n        /* \"#utility.yul\":11389:11767   */\n      pop\n        /* \"#utility.yul\":11376:11377   */\n      0x01\n        /* \"#utility.yul\":11373:11374   */\n      dup2\n        /* \"#utility.yul\":11369:11378   */\n      add\n        /* \"#utility.yul\":11364:11378   */\n      swap1\n      pop\n        /* \"#utility.yul\":11329:11767   */\n      jump(tag_410)\n    tag_412:\n        /* \"#utility.yul\":11333:11347   */\n      pop\n        /* \"#utility.yul\":11783:11787   */\n      dup3\n        /* \"#utility.yul\":11776:11787   */\n      swap8\n      pop\n        /* \"#utility.yul\":11803:11806   */\n      dup8\n        /* \"#utility.yul\":11796:11806   */\n      swap6\n      pop\n        /* \"#utility.yul\":10881:11812   */\n      pop\n      pop\n      pop\n      pop\n      pop\n        /* \"#utility.yul\":10709:11812   */\n      swap3\n      swap2\n      pop\n      pop\n      jump\t// out\n        /* \"#utility.yul\":11818:12287   */\n    tag_91:\n        /* \"#utility.yul\":12009:12013   */\n      0x00\n        /* \"#utility.yul\":12047:12049   */\n      0x20\n        /* \"#utility.yul\":12036:12045   */\n      dup3\n        /* \"#utility.yul\":12032:12050   */\n      add\n        /* \"#utility.yul\":12024:12050   */\n      swap1\n      pop\n        /* \"#utility.yul\":12096:12105   */\n      dup2\n        /* \"#utility.yul\":12090:12094   */\n      dup2\n        /* \"#utility.yul\":12086:12106   */\n      sub\n        /* \"#utility.yul\":12082:12083   */\n      0x00\n        /* \"#utility.yul\":12071:12080   */\n      dup4\n        /* \"#utility.yul\":12067:12084   */\n      add\n        /* \"#utility.yul\":12060:12107   */\n      mstore\n        /* \"#utility.yul\":12124:12280   */\n      tag_416\n        /* \"#utility.yul\":12275:12279   */\n      dup2\n        /* \"#utility.yul\":12266:12272   */\n      dup5\n        /* \"#utility.yul\":12124:12280   */\n      tag_254\n      jump\t// in\n    tag_416:\n        /* \"#utility.yul\":12116:12280   */\n      swap1\n      pop\n        /* \"#utility.yul\":11818:12287   */\n      swap3\n      swap2\n      pop\n      pop\n      jump\t// out\n        /* \"#utility.yul\":12293:12410   */\n    tag_255:\n        /* \"#utility.yul\":12402:12403   */\n      0x00\n        /* \"#utility.yul\":12399:12400   */\n      dup1\n        /* \"#utility.yul\":12392:12404   */\n      revert\n        /* \"#utility.yul\":12416:12533   */\n    tag_256:\n        /* \"#utility.yul\":12525:12526   */\n      0x00\n        /* \"#utility.yul\":12522:12523   */\n      dup1\n        /* \"#utility.yul\":12515:12527   */\n      revert\n        /* \"#utility.yul\":12539:12656   */\n    tag_257:\n        /* \"#utility.yul\":12648:12649   */\n      0x00\n        /* \"#utility.yul\":12645:12646   */\n      dup1\n        /* \"#utility.yul\":12638:12650   */\n      revert\n        /* \"#utility.yul\":12676:13229   */\n    tag_258:\n        /* \"#utility.yul\":12734:12742   */\n      0x00\n        /* \"#utility.yul\":12744:12750   */\n      dup1\n        /* \"#utility.yul\":12794:12797   */\n      dup4\n        /* \"#utility.yul\":12787:12791   */\n      0x1f\n        /* \"#utility.yul\":12779:12785   */\n      dup5\n        /* \"#utility.yul\":12775:12792   */\n      add\n        /* \"#utility.yul\":12771:12798   */\n      slt\n        /* \"#utility.yul\":12761:12883   */\n      tag_421\n      jumpi\n        /* \"#utility.yul\":12802:12881   */\n      tag_422\n      tag_255\n      jump\t// in\n    tag_422:\n        /* \"#utility.yul\":12761:12883   */\n    tag_421:\n        /* \"#utility.yul\":12915:12921   */\n      dup3\n        /* \"#utility.yul\":12902:12922   */\n      calldataload\n        /* \"#utility.yul\":12892:12922   */\n      swap1\n      pop\n        /* \"#utility.yul\":12945:12963   */\n      0xffffffffffffffff\n        /* \"#utility.yul\":12937:12943   */\n      dup2\n        /* \"#utility.yul\":12934:12964   */\n      gt\n        /* \"#utility.yul\":12931:13048   */\n      iszero\n      tag_423\n      jumpi\n        /* \"#utility.yul\":12967:13046   */\n      tag_424\n      tag_256\n      jump\t// in\n    tag_424:\n        /* \"#utility.yul\":12931:13048   */\n    tag_423:\n        /* \"#utility.yul\":13081:13085   */\n      0x20\n        /* \"#utility.yul\":13073:13079   */\n      dup4\n        /* \"#utility.yul\":13069:13086   */\n      add\n        /* \"#utility.yul\":13057:13086   */\n      swap2\n      pop\n        /* \"#utility.yul\":13135:13138   */\n      dup4\n        /* \"#utility.yul\":13127:13131   */\n      0x01\n        /* \"#utility.yul\":13119:13125   */\n      dup3\n        /* \"#utility.yul\":13115:13132   */\n      mul\n        /* \"#utility.yul\":13105:13113   */\n      dup4\n        /* \"#utility.yul\":13101:13133   */\n      add\n        /* \"#utility.yul\":13098:13139   */\n      gt\n        /* \"#utility.yul\":13095:13223   */\n      iszero\n      tag_425\n      jumpi\n        /* \"#utility.yul\":13142:13221   */\n      tag_426\n      tag_257\n      jump\t// in\n    tag_426:\n        /* \"#utility.yul\":13095:13223   */\n    tag_425:\n        /* \"#utility.yul\":12676:13229   */\n      swap3\n      pop\n      swap3\n      swap1\n      pop\n      jump\t// out\n        /* \"#utility.yul\":13235:14070   */\n    tag_95:\n        /* \"#utility.yul\":13332:13338   */\n      0x00\n        /* \"#utility.yul\":13340:13346   */\n      dup1\n        /* \"#utility.yul\":13348:13354   */\n      0x00\n        /* \"#utility.yul\":13356:13362   */\n      dup1\n        /* \"#utility.yul\":13405:13407   */\n      0x60\n        /* \"#utility.yul\":13393:13402   */\n      dup6\n        /* \"#utility.yul\":13384:13391   */\n      dup8\n        /* \"#utility.yul\":13380:13403   */\n      sub\n        /* \"#utility.yul\":13376:13408   */\n      slt\n        /* \"#utility.yul\":13373:13492   */\n      iszero\n      tag_428\n      jumpi\n        /* \"#utility.yul\":13411:13490   */\n      tag_429\n      tag_218\n      jump\t// in\n    tag_429:\n        /* \"#utility.yul\":13373:13492   */\n    tag_428:\n        /* \"#utility.yul\":13559:13560   */\n      0x00\n        /* \"#utility.yul\":13548:13557   */\n      dup6\n        /* \"#utility.yul\":13544:13561   */\n      add\n        /* \"#utility.yul\":13531:13562   */\n      calldataload\n        /* \"#utility.yul\":13589:13607   */\n      0xffffffffffffffff\n        /* \"#utility.yul\":13581:13587   */\n      dup2\n        /* \"#utility.yul\":13578:13608   */\n      gt\n        /* \"#utility.yul\":13575:13692   */\n      iszero\n      tag_430\n      jumpi\n        /* \"#utility.yul\":13611:13690   */\n      tag_431\n      tag_219\n      jump\t// in\n    tag_431:\n        /* \"#utility.yul\":13575:13692   */\n    tag_430:\n        /* \"#utility.yul\":13724:13789   */\n      tag_432\n        /* \"#utility.yul\":13781:13788   */\n      dup8\n        /* \"#utility.yul\":13772:13778   */\n      dup3\n        /* \"#utility.yul\":13761:13770   */\n      dup9\n        /* \"#utility.yul\":13757:13779   */\n      add\n        /* \"#utility.yul\":13724:13789   */\n      tag_258\n      jump\t// in\n    tag_432:\n        /* \"#utility.yul\":13706:13789   */\n      swap5\n      pop\n      swap5\n      pop\n        /* \"#utility.yul\":13502:13799   */\n      pop\n        /* \"#utility.yul\":13838:13840   */\n      0x20\n        /* \"#utility.yul\":13864:13917   */\n      tag_433\n        /* \"#utility.yul\":13909:13916   */\n      dup8\n        /* \"#utility.yul\":13900:13906   */\n      dup3\n        /* \"#utility.yul\":13889:13898   */\n      dup9\n        /* \"#utility.yul\":13885:13907   */\n      add\n        /* \"#utility.yul\":13864:13917   */\n      tag_221\n      jump\t// in\n    tag_433:\n        /* \"#utility.yul\":13854:13917   */\n      swap3\n      pop\n        /* \"#utility.yul\":13809:13927   */\n      pop\n        /* \"#utility.yul\":13966:13968   */\n      0x40\n        /* \"#utility.yul\":13992:14053   */\n      tag_434\n        /* \"#utility.yul\":14045:14052   */\n      dup8\n        /* \"#utility.yul\":14036:14042   */\n      dup3\n        /* \"#utility.yul\":14025:14034   */\n      dup9\n        /* \"#utility.yul\":14021:14043   */\n      add\n        /* \"#utility.yul\":13992:14053   */\n      tag_225\n      jump\t// in\n    tag_434:\n        /* \"#utility.yul\":13982:14053   */\n      swap2\n      pop\n        /* \"#utility.yul\":13937:14063   */\n      pop\n        /* \"#utility.yul\":13235:14070   */\n      swap3\n      swap6\n      swap2\n      swap5\n      pop\n      swap3\n      pop\n      jump\t// out\n        /* \"#utility.yul\":14076:14256   */\n    tag_259:\n        /* \"#utility.yul\":14124:14201   */\n      0x4e487b7100000000000000000000000000000000000000000000000000000000\n        /* \"#utility.yul\":14121:14122   */\n      0x00\n        /* \"#utility.yul\":14114:14202   */\n      mstore\n        /* \"#utility.yul\":14221:14225   */\n      0x22\n        /* \"#utility.yul\":14218:14219   */\n      0x04\n        /* \"#utility.yul\":14211:14226   */\n      mstore\n        /* \"#utility.yul\":14245:14249   */\n      0x24\n        /* \"#utility.yul\":14242:14243   */\n      0x00\n        /* \"#utility.yul\":14235:14250   */\n      revert\n        /* \"#utility.yul\":14262:14582   */\n    tag_107:\n        /* \"#utility.yul\":14306:14312   */\n      0x00\n        /* \"#utility.yul\":14343:14344   */\n      0x02\n        /* \"#utility.yul\":14337:14341   */\n      dup3\n        /* \"#utility.yul\":14333:14345   */\n      div\n        /* \"#utility.yul\":14323:14345   */\n      swap1\n      pop\n        /* \"#utility.yul\":14390:14391   */\n      0x01\n        /* \"#utility.yul\":14384:14388   */\n      dup3\n        /* \"#utility.yul\":14380:14392   */\n      and\n        /* \"#utility.yul\":14411:14429   */\n      dup1\n        /* \"#utility.yul\":14401:14482   */\n      tag_437\n      jumpi\n        /* \"#utility.yul\":14467:14471   */\n      0x7f\n        /* \"#utility.yul\":14459:14465   */\n      dup3\n        /* \"#utility.yul\":14455:14472   */\n      and\n        /* \"#utility.yul\":14445:14472   */\n      swap2\n      pop\n        /* \"#utility.yul\":14401:14482   */\n    tag_437:\n        /* \"#utility.yul\":14529:14531   */\n      0x20\n        /* \"#utility.yul\":14521:14527   */\n      dup3\n        /* \"#utility.yul\":14518:14532   */\n      lt\n        /* \"#utility.yul\":14498:14516   */\n      dup2\n        /* \"#utility.yul\":14495:14533   */\n      sub\n        /* \"#utility.yul\":14492:14576   */\n      tag_438\n      jumpi\n        /* \"#utility.yul\":14548:14566   */\n      tag_439\n      tag_259\n      jump\t// in\n    tag_439:\n        /* \"#utility.yul\":14492:14576   */\n    tag_438:\n        /* \"#utility.yul\":14313:14582   */\n      pop\n        /* \"#utility.yul\":14262:14582   */\n      swap2\n      swap1\n      pop\n      jump\t// out\n        /* \"#utility.yul\":14588:14757   */\n    tag_260:\n        /* \"#utility.yul\":14728:14749   */\n      0x596f7520617265206e6f74206d616e6167657200000000000000000000000000\n        /* \"#utility.yul\":14724:14725   */\n      0x00\n        /* \"#utility.yul\":14716:14722   */\n      dup3\n        /* \"#utility.yul\":14712:14726   */\n      add\n        /* \"#utility.yul\":14705:14750   */\n      mstore\n        /* \"#utility.yul\":14588:14757   */\n      pop\n      jump\t// out\n        /* \"#utility.yul\":14763:15129   */\n    tag_261:\n        /* \"#utility.yul\":14905:14908   */\n      0x00\n        /* \"#utility.yul\":14926:14993   */\n      tag_442\n        /* \"#utility.yul\":14990:14992   */\n      0x13\n        /* \"#utility.yul\":14985:14988   */\n      dup4\n        /* \"#utility.yul\":14926:14993   */\n      tag_227\n      jump\t// in\n    tag_442:\n        /* \"#utility.yul\":14919:14993   */\n      swap2\n      pop\n        /* \"#utility.yul\":15002:15095   */\n      tag_443\n        /* \"#utility.yul\":15091:15094   */\n      dup3\n        /* \"#utility.yul\":15002:15095   */\n      tag_260\n      jump\t// in\n    tag_443:\n        /* \"#utility.yul\":15120:15122   */\n      0x20\n        /* \"#utility.yul\":15115:15118   */\n      dup3\n        /* \"#utility.yul\":15111:15123   */\n      add\n        /* \"#utility.yul\":15104:15123   */\n      swap1\n      pop\n        /* \"#utility.yul\":14763:15129   */\n      swap2\n      swap1\n      pop\n      jump\t// out\n        /* \"#utility.yul\":15135:15554   */\n    tag_117:\n        /* \"#utility.yul\":15301:15305   */\n      0x00\n        /* \"#utility.yul\":15339:15341   */\n      0x20\n        /* \"#utility.yul\":15328:15337   */\n      dup3\n        /* \"#utility.yul\":15324:15342   */\n      add\n        /* \"#utility.yul\":15316:15342   */\n      swap1\n      pop\n        /* \"#utility.yul\":15388:15397   */\n      dup2\n        /* \"#utility.yul\":15382:15386   */\n      dup2\n        /* \"#utility.yul\":15378:15398   */\n      sub\n        /* \"#utility.yul\":15374:15375   */\n      0x00\n        /* \"#utility.yul\":15363:15372   */\n      dup4\n        /* \"#utility.yul\":15359:15376   */\n      add\n        /* \"#utility.yul\":15352:15399   */\n      mstore\n        /* \"#utility.yul\":15416:15547   */\n      tag_445\n        /* \"#utility.yul\":15542:15546   */\n      dup2\n        /* \"#utility.yul\":15416:15547   */\n      tag_261\n      jump\t// in\n    tag_445:\n        /* \"#utility.yul\":15408:15547   */\n      swap1\n      pop\n        /* \"#utility.yul\":15135:15554   */\n      swap2\n      swap1\n      pop\n      jump\t// out\n        /* \"#utility.yul\":15560:15740   */\n    tag_262:\n        /* \"#utility.yul\":15608:15685   */\n      0x4e487b7100000000000000000000000000000000000000000000000000000000\n        /* \"#utility.yul\":15605:15606   */\n      0x00\n        /* \"#utility.yul\":15598:15686   */\n      mstore\n        /* \"#utility.yul\":15705:15709   */\n      0x11\n        /* \"#utility.yul\":15702:15703   */\n      0x04\n        /* \"#utility.yul\":15695:15710   */\n      mstore\n        /* \"#utility.yul\":15729:15733   */\n      0x24\n        /* \"#utility.yul\":15726:15727   */\n      0x00\n        /* \"#utility.yul\":15719:15734   */\n      revert\n        /* \"#utility.yul\":15746:16156   */\n    tag_120:\n        /* \"#utility.yul\":15786:15793   */\n      0x00\n        /* \"#utility.yul\":15809:15829   */\n      tag_448\n        /* \"#utility.yul\":15827:15828   */\n      dup3\n        /* \"#utility.yul\":15809:15829   */\n      tag_215\n      jump\t// in\n    tag_448:\n        /* \"#utility.yul\":15804:15829   */\n      swap2\n      pop\n        /* \"#utility.yul\":15843:15863   */\n      tag_449\n        /* \"#utility.yul\":15861:15862   */\n      dup4\n        /* \"#utility.yul\":15843:15863   */\n      tag_215\n      jump\t// in\n    tag_449:\n        /* \"#utility.yul\":15838:15863   */\n      swap3\n      pop\n        /* \"#utility.yul\":15898:15899   */\n      dup3\n        /* \"#utility.yul\":15895:15896   */\n      dup3\n        /* \"#utility.yul\":15891:15900   */\n      mul\n        /* \"#utility.yul\":15920:15950   */\n      tag_450\n        /* \"#utility.yul\":15938:15949   */\n      dup2\n        /* \"#utility.yul\":15920:15950   */\n      tag_215\n      jump\t// in\n    tag_450:\n        /* \"#utility.yul\":15909:15950   */\n      swap2\n      pop\n        /* \"#utility.yul\":16099:16100   */\n      dup3\n        /* \"#utility.yul\":16090:16097   */\n      dup3\n        /* \"#utility.yul\":16086:16101   */\n      div\n        /* \"#utility.yul\":16083:16084   */\n      dup5\n        /* \"#utility.yul\":16080:16102   */\n      eq\n        /* \"#utility.yul\":16060:16061   */\n      dup4\n        /* \"#utility.yul\":16053:16062   */\n      iszero\n        /* \"#utility.yul\":16033:16116   */\n      or\n        /* \"#utility.yul\":16010:16149   */\n      tag_451\n      jumpi\n        /* \"#utility.yul\":16129:16147   */\n      tag_452\n      tag_262\n      jump\t// in\n    tag_452:\n        /* \"#utility.yul\":16010:16149   */\n    tag_451:\n        /* \"#utility.yul\":15794:16156   */\n      pop\n        /* \"#utility.yul\":15746:16156   */\n      swap3\n      swap2\n      pop\n      pop\n      jump\t// out\n        /* \"#utility.yul\":16162:16342   */\n    tag_263:\n        /* \"#utility.yul\":16210:16287   */\n      0x4e487b7100000000000000000000000000000000000000000000000000000000\n        /* \"#utility.yul\":16207:16208   */\n      0x00\n        /* \"#utility.yul\":16200:16288   */\n      mstore\n        /* \"#utility.yul\":16307:16311   */\n      0x12\n        /* \"#utility.yul\":16304:16305   */\n      0x04\n        /* \"#utility.yul\":16297:16312   */\n      mstore\n        /* \"#utility.yul\":16331:16335   */\n      0x24\n        /* \"#utility.yul\":16328:16329   */\n      0x00\n        /* \"#utility.yul\":16321:16336   */\n      revert\n        /* \"#utility.yul\":16348:16533   */\n    tag_122:\n        /* \"#utility.yul\":16388:16389   */\n      0x00\n        /* \"#utility.yul\":16405:16425   */\n      tag_455\n        /* \"#utility.yul\":16423:16424   */\n      dup3\n        /* \"#utility.yul\":16405:16425   */\n      tag_215\n      jump\t// in\n    tag_455:\n        /* \"#utility.yul\":16400:16425   */\n      swap2\n      pop\n        /* \"#utility.yul\":16439:16459   */\n      tag_456\n        /* \"#utility.yul\":16457:16458   */\n      dup4\n        /* \"#utility.yul\":16439:16459   */\n      tag_215\n      jump\t// in\n    tag_456:\n        /* \"#utility.yul\":16434:16459   */\n      swap3\n      pop\n        /* \"#utility.yul\":16478:16479   */\n      dup3\n        /* \"#utility.yul\":16468:16503   */\n      tag_457\n      jumpi\n        /* \"#utility.yul\":16483:16501   */\n      tag_458\n      tag_263\n      jump\t// in\n    tag_458:\n        /* \"#utility.yul\":16468:16503   */\n    tag_457:\n        /* \"#utility.yul\":16525:16526   */\n      dup3\n        /* \"#utility.yul\":16522:16523   */\n      dup3\n        /* \"#utility.yul\":16518:16527   */\n      div\n        /* \"#utility.yul\":16513:16527   */\n      swap1\n      pop\n        /* \"#utility.yul\":16348:16533   */\n      swap3\n      swap2\n      pop\n      pop\n      jump\t// out\n        /* \"#utility.yul\":16539:16714   */\n    tag_264:\n        /* \"#utility.yul\":16679:16706   */\n      0x4d616a6f7269747920646f65736e6f7420737570706f72747300000000000000\n        /* \"#utility.yul\":16675:16676   */\n      0x00\n        /* \"#utility.yul\":16667:16673   */\n      dup3\n        /* \"#utility.yul\":16663:16677   */\n      add\n        /* \"#utility.yul\":16656:16707   */\n      mstore\n        /* \"#utility.yul\":16539:16714   */\n      pop\n      jump\t// out\n        /* \"#utility.yul\":16720:17086   */\n    tag_265:\n        /* \"#utility.yul\":16862:16865   */\n      0x00\n        /* \"#utility.yul\":16883:16950   */\n      tag_461\n        /* \"#utility.yul\":16947:16949   */\n      0x19\n        /* \"#utility.yul\":16942:16945   */\n      dup4\n        /* \"#utility.yul\":16883:16950   */\n      tag_227\n      jump\t// in\n    tag_461:\n        /* \"#utility.yul\":16876:16950   */\n      swap2\n      pop\n        /* \"#utility.yul\":16959:17052   */\n      tag_462\n        /* \"#utility.yul\":17048:17051   */\n      dup3\n        /* \"#utility.yul\":16959:17052   */\n      tag_264\n      jump\t// in\n    tag_462:\n        /* \"#utility.yul\":17077:17079   */\n      0x20\n        /* \"#utility.yul\":17072:17075   */\n      dup3\n        /* \"#utility.yul\":17068:17080   */\n      add\n        /* \"#utility.yul\":17061:17080   */\n      swap1\n      pop\n        /* \"#utility.yul\":16720:17086   */\n      swap2\n      swap1\n      pop\n      jump\t// out\n        /* \"#utility.yul\":17092:17511   */\n    tag_125:\n        /* \"#utility.yul\":17258:17262   */\n      0x00\n        /* \"#utility.yul\":17296:17298   */\n      0x20\n        /* \"#utility.yul\":17285:17294   */\n      dup3\n        /* \"#utility.yul\":17281:17299   */\n      add\n        /* \"#utility.yul\":17273:17299   */\n      swap1\n      pop\n        /* \"#utility.yul\":17345:17354   */\n      dup2\n        /* \"#utility.yul\":17339:17343   */\n      dup2\n        /* \"#utility.yul\":17335:17355   */\n      sub\n        /* \"#utility.yul\":17331:17332   */\n      0x00\n        /* \"#utility.yul\":17320:17329   */\n      dup4\n        /* \"#utility.yul\":17316:17333   */\n      add\n        /* \"#utility.yul\":17309:17356   */\n      mstore\n        /* \"#utility.yul\":17373:17504   */\n      tag_464\n        /* \"#utility.yul\":17499:17503   */\n      dup2\n        /* \"#utility.yul\":17373:17504   */\n      tag_265\n      jump\t// in\n    tag_464:\n        /* \"#utility.yul\":17365:17504   */\n      swap1\n      pop\n        /* \"#utility.yul\":17092:17511   */\n      swap2\n      swap1\n      pop\n      jump\t// out\n        /* \"#utility.yul\":17517:17711   */\n    tag_127:\n        /* \"#utility.yul\":17557:17561   */\n      0x00\n        /* \"#utility.yul\":17577:17597   */\n      tag_466\n        /* \"#utility.yul\":17595:17596   */\n      dup3\n        /* \"#utility.yul\":17577:17597   */\n      tag_215\n      jump\t// in\n    tag_466:\n        /* \"#utility.yul\":17572:17597   */\n      swap2\n      pop\n        /* \"#utility.yul\":17611:17631   */\n      tag_467\n        /* \"#utility.yul\":17629:17630   */\n      dup4\n        /* \"#utility.yul\":17611:17631   */\n      tag_215\n      jump\t// in\n    tag_467:\n        /* \"#utility.yul\":17606:17631   */\n      swap3\n      pop\n        /* \"#utility.yul\":17655:17656   */\n      dup3\n        /* \"#utility.yul\":17652:17653   */\n      dup3\n        /* \"#utility.yul\":17648:17657   */\n      sub\n        /* \"#utility.yul\":17640:17657   */\n      swap1\n      pop\n        /* \"#utility.yul\":17679:17680   */\n      dup2\n        /* \"#utility.yul\":17673:17677   */\n      dup2\n        /* \"#utility.yul\":17670:17681   */\n      gt\n        /* \"#utility.yul\":17667:17704   */\n      iszero\n      tag_468\n      jumpi\n        /* \"#utility.yul\":17684:17702   */\n      tag_469\n      tag_262\n      jump\t// in\n    tag_469:\n        /* \"#utility.yul\":17667:17704   */\n    tag_468:\n        /* \"#utility.yul\":17517:17711   */\n      swap3\n      swap2\n      pop\n      pop\n      jump\t// out\n        /* \"#utility.yul\":17717:17884   */\n    tag_266:\n        /* \"#utility.yul\":17857:17876   */\n      0x4e6f7420656e6f75676820736861726573000000000000000000000000000000\n        /* \"#utility.yul\":17853:17854   */\n      0x00\n        /* \"#utility.yul\":17845:17851   */\n      dup3\n        /* \"#utility.yul\":17841:17855   */\n      add\n        /* \"#utility.yul\":17834:17877   */\n      mstore\n        /* \"#utility.yul\":17717:17884   */\n      pop\n      jump\t// out\n        /* \"#utility.yul\":17890:18256   */\n    tag_267:\n        /* \"#utility.yul\":18032:18035   */\n      0x00\n        /* \"#utility.yul\":18053:18120   */\n      tag_472\n        /* \"#utility.yul\":18117:18119   */\n      0x11\n        /* \"#utility.yul\":18112:18115   */\n      dup4\n        /* \"#utility.yul\":18053:18120   */\n      tag_227\n      jump\t// in\n    tag_472:\n        /* \"#utility.yul\":18046:18120   */\n      swap2\n      pop\n        /* \"#utility.yul\":18129:18222   */\n      tag_473\n        /* \"#utility.yul\":18218:18221   */\n      dup3\n        /* \"#utility.yul\":18129:18222   */\n      tag_266\n      jump\t// in\n    tag_473:\n        /* \"#utility.yul\":18247:18249   */\n      0x20\n        /* \"#utility.yul\":18242:18245   */\n      dup3\n        /* \"#utility.yul\":18238:18250   */\n      add\n        /* \"#utility.yul\":18231:18250   */\n      swap1\n      pop\n        /* \"#utility.yul\":17890:18256   */\n      swap2\n      swap1\n      pop\n      jump\t// out\n        /* \"#utility.yul\":18262:18681   */\n    tag_132:\n        /* \"#utility.yul\":18428:18432   */\n      0x00\n        /* \"#utility.yul\":18466:18468   */\n      0x20\n        /* \"#utility.yul\":18455:18464   */\n      dup3\n        /* \"#utility.yul\":18451:18469   */\n      add\n        /* \"#utility.yul\":18443:18469   */\n      swap1\n      pop\n        /* \"#utility.yul\":18515:18524   */\n      dup2\n        /* \"#utility.yul\":18509:18513   */\n      dup2\n        /* \"#utility.yul\":18505:18525   */\n      sub\n        /* \"#utility.yul\":18501:18502   */\n      0x00\n        /* \"#utility.yul\":18490:18499   */\n      dup4\n        /* \"#utility.yul\":18486:18503   */\n      add\n        /* \"#utility.yul\":18479:18526   */\n      mstore\n        /* \"#utility.yul\":18543:18674   */\n      tag_475\n        /* \"#utility.yul\":18669:18673   */\n      dup2\n        /* \"#utility.yul\":18543:18674   */\n      tag_267\n      jump\t// in\n    tag_475:\n        /* \"#utility.yul\":18535:18674   */\n      swap1\n      pop\n        /* \"#utility.yul\":18262:18681   */\n      swap2\n      swap1\n      pop\n      jump\t// out\n        /* \"#utility.yul\":18687:18853   */\n    tag_268:\n        /* \"#utility.yul\":18827:18845   */\n      0x4e6f7420656e6f7567682066756e647300000000000000000000000000000000\n        /* \"#utility.yul\":18823:18824   */\n      0x00\n        /* \"#utility.yul\":18815:18821   */\n      dup3\n        /* \"#utility.yul\":18811:18825   */\n      add\n        /* \"#utility.yul\":18804:18846   */\n      mstore\n        /* \"#utility.yul\":18687:18853   */\n      pop\n      jump\t// out\n        /* \"#utility.yul\":18859:19225   */\n    tag_269:\n        /* \"#utility.yul\":19001:19004   */\n      0x00\n        /* \"#utility.yul\":19022:19089   */\n      tag_478\n        /* \"#utility.yul\":19086:19088   */\n      0x10\n        /* \"#utility.yul\":19081:19084   */\n      dup4\n        /* \"#utility.yul\":19022:19089   */\n      tag_227\n      jump\t// in\n    tag_478:\n        /* \"#utility.yul\":19015:19089   */\n      swap2\n      pop\n        /* \"#utility.yul\":19098:19191   */\n      tag_479\n        /* \"#utility.yul\":19187:19190   */\n      dup3\n        /* \"#utility.yul\":19098:19191   */\n      tag_268\n      jump\t// in\n    tag_479:\n        /* \"#utility.yul\":19216:19218   */\n      0x20\n        /* \"#utility.yul\":19211:19214   */\n      dup3\n        /* \"#utility.yul\":19207:19219   */\n      add\n        /* \"#utility.yul\":19200:19219   */\n      swap1\n      pop\n        /* \"#utility.yul\":18859:19225   */\n      swap2\n      swap1\n      pop\n      jump\t// out\n        /* \"#utility.yul\":19231:19650   */\n    tag_135:\n        /* \"#utility.yul\":19397:19401   */\n      0x00\n        /* \"#utility.yul\":19435:19437   */\n      0x20\n        /* \"#utility.yul\":19424:19433   */\n      dup3\n        /* \"#utility.yul\":19420:19438   */\n      add\n        /* \"#utility.yul\":19412:19438   */\n      swap1\n      pop\n        /* \"#utility.yul\":19484:19493   */\n      dup2\n        /* \"#utility.yul\":19478:19482   */\n      dup2\n        /* \"#utility.yul\":19474:19494   */\n      sub\n        /* \"#utility.yul\":19470:19471   */\n      0x00\n        /* \"#utility.yul\":19459:19468   */\n      dup4\n        /* \"#utility.yul\":19455:19472   */\n      add\n        /* \"#utility.yul\":19448:19495   */\n      mstore\n        /* \"#utility.yul\":19512:19643   */\n      tag_481\n        /* \"#utility.yul\":19638:19642   */\n      dup2\n        /* \"#utility.yul\":19512:19643   */\n      tag_269\n      jump\t// in\n    tag_481:\n        /* \"#utility.yul\":19504:19643   */\n      swap1\n      pop\n        /* \"#utility.yul\":19231:19650   */\n      swap2\n      swap1\n      pop\n      jump\t// out\n        /* \"#utility.yul\":19656:19826   */\n    tag_270:\n        /* \"#utility.yul\":19796:19818   */\n      0x596f7520617265206e6f7420696e766573746f72000000000000000000000000\n        /* \"#utility.yul\":19792:19793   */\n      0x00\n        /* \"#utility.yul\":19784:19790   */\n      dup3\n        /* \"#utility.yul\":19780:19794   */\n      add\n        /* \"#utility.yul\":19773:19819   */\n      mstore\n        /* \"#utility.yul\":19656:19826   */\n      pop\n      jump\t// out\n        /* \"#utility.yul\":19832:20198   */\n    tag_271:\n        /* \"#utility.yul\":19974:19977   */\n      0x00\n        /* \"#utility.yul\":19995:20062   */\n      tag_484\n        /* \"#utility.yul\":20059:20061   */\n      0x14\n        /* \"#utility.yul\":20054:20057   */\n      dup4\n        /* \"#utility.yul\":19995:20062   */\n      tag_227\n      jump\t// in\n    tag_484:\n        /* \"#utility.yul\":19988:20062   */\n      swap2\n      pop\n        /* \"#utility.yul\":20071:20164   */\n      tag_485\n        /* \"#utility.yul\":20160:20163   */\n      dup3\n        /* \"#utility.yul\":20071:20164   */\n      tag_270\n      jump\t// in\n    tag_485:\n        /* \"#utility.yul\":20189:20191   */\n      0x20\n        /* \"#utility.yul\":20184:20187   */\n      dup3\n        /* \"#utility.yul\":20180:20192   */\n      add\n        /* \"#utility.yul\":20173:20192   */\n      swap1\n      pop\n        /* \"#utility.yul\":19832:20198   */\n      swap2\n      swap1\n      pop\n      jump\t// out\n        /* \"#utility.yul\":20204:20623   */\n    tag_147:\n        /* \"#utility.yul\":20370:20374   */\n      0x00\n        /* \"#utility.yul\":20408:20410   */\n      0x20\n        /* \"#utility.yul\":20397:20406   */\n      dup3\n        /* \"#utility.yul\":20393:20411   */\n      add\n        /* \"#utility.yul\":20385:20411   */\n      swap1\n      pop\n        /* \"#utility.yul\":20457:20466   */\n      dup2\n        /* \"#utility.yul\":20451:20455   */\n      dup2\n        /* \"#utility.yul\":20447:20467   */\n      sub\n        /* \"#utility.yul\":20443:20444   */\n      0x00\n        /* \"#utility.yul\":20432:20441   */\n      dup4\n        /* \"#utility.yul\":20428:20445   */\n      add\n        /* \"#utility.yul\":20421:20468   */\n      mstore\n        /* \"#utility.yul\":20485:20616   */\n      tag_487\n        /* \"#utility.yul\":20611:20615   */\n      dup2\n        /* \"#utility.yul\":20485:20616   */\n      tag_271\n      jump\t// in\n    tag_487:\n        /* \"#utility.yul\":20477:20616   */\n      swap1\n      pop\n        /* \"#utility.yul\":20204:20623   */\n      swap2\n      swap1\n      pop\n      jump\t// out\n        /* \"#utility.yul\":20629:20798   */\n    tag_272:\n        /* \"#utility.yul\":20769:20790   */\n      0x496e76616c69642070726f706f73616c20696400000000000000000000000000\n        /* \"#utility.yul\":20765:20766   */\n      0x00\n        /* \"#utility.yul\":20757:20763   */\n      dup3\n        /* \"#utility.yul\":20753:20767   */\n      add\n        /* \"#utility.yul\":20746:20791   */\n      mstore\n        /* \"#utility.yul\":20629:20798   */\n      pop\n      jump\t// out\n        /* \"#utility.yul\":20804:21170   */\n    tag_273:\n        /* \"#utility.yul\":20946:20949   */\n      0x00\n        /* \"#utility.yul\":20967:21034   */\n      tag_490\n        /* \"#utility.yul\":21031:21033   */\n      0x13\n        /* \"#utility.yul\":21026:21029   */\n      dup4\n        /* \"#utility.yul\":20967:21034   */\n      tag_227\n      jump\t// in\n    tag_490:\n        /* \"#utility.yul\":20960:21034   */\n      swap2\n      pop\n        /* \"#utility.yul\":21043:21136   */\n      tag_491\n        /* \"#utility.yul\":21132:21135   */\n      dup3\n        /* \"#utility.yul\":21043:21136   */\n      tag_272\n      jump\t// in\n    tag_491:\n        /* \"#utility.yul\":21161:21163   */\n      0x20\n        /* \"#utility.yul\":21156:21159   */\n      dup3\n        /* \"#utility.yul\":21152:21164   */\n      add\n        /* \"#utility.yul\":21145:21164   */\n      swap1\n      pop\n        /* \"#utility.yul\":20804:21170   */\n      swap2\n      swap1\n      pop\n      jump\t// out\n        /* \"#utility.yul\":21176:21595   */\n    tag_151:\n        /* \"#utility.yul\":21342:21346   */\n      0x00\n        /* \"#utility.yul\":21380:21382   */\n      0x20\n        /* \"#utility.yul\":21369:21378   */\n      dup3\n        /* \"#utility.yul\":21365:21383   */\n      add\n        /* \"#utility.yul\":21357:21383   */\n      swap1\n      pop\n        /* \"#utility.yul\":21429:21438   */\n      dup2\n        /* \"#utility.yul\":21423:21427   */\n      dup2\n        /* \"#utility.yul\":21419:21439   */\n      sub\n        /* \"#utility.yul\":21415:21416   */\n      0x00\n        /* \"#utility.yul\":21404:21413   */\n      dup4\n        /* \"#utility.yul\":21400:21417   */\n      add\n        /* \"#utility.yul\":21393:21440   */\n      mstore\n        /* \"#utility.yul\":21457:21588   */\n      tag_493\n        /* \"#utility.yul\":21583:21587   */\n      dup2\n        /* \"#utility.yul\":21457:21588   */\n      tag_273\n      jump\t// in\n    tag_493:\n        /* \"#utility.yul\":21449:21588   */\n      swap1\n      pop\n        /* \"#utility.yul\":21176:21595   */\n      swap2\n      swap1\n      pop\n      jump\t// out\n        /* \"#utility.yul\":21601:21761   */\n    tag_274:\n        /* \"#utility.yul\":21741:21753   */\n      0x54496d6520456e64656400000000000000000000000000000000000000000000\n        /* \"#utility.yul\":21737:21738   */\n      0x00\n        /* \"#utility.yul\":21729:21735   */\n      dup3\n        /* \"#utility.yul\":21725:21739   */\n      add\n        /* \"#utility.yul\":21718:21754   */\n      mstore\n        /* \"#utility.yul\":21601:21761   */\n      pop\n      jump\t// out\n        /* \"#utility.yul\":21767:22133   */\n    tag_275:\n        /* \"#utility.yul\":21909:21912   */\n      0x00\n        /* \"#utility.yul\":21930:21997   */\n      tag_496\n        /* \"#utility.yul\":21994:21996   */\n      0x0a\n        /* \"#utility.yul\":21989:21992   */\n      dup4\n        /* \"#utility.yul\":21930:21997   */\n      tag_227\n      jump\t// in\n    tag_496:\n        /* \"#utility.yul\":21923:21997   */\n      swap2\n      pop\n        /* \"#utility.yul\":22006:22099   */\n      tag_497\n        /* \"#utility.yul\":22095:22098   */\n      dup3\n        /* \"#utility.yul\":22006:22099   */\n      tag_274\n      jump\t// in\n    tag_497:\n        /* \"#utility.yul\":22124:22126   */\n      0x20\n        /* \"#utility.yul\":22119:22122   */\n      dup3\n        /* \"#utility.yul\":22115:22127   */\n      add\n        /* \"#utility.yul\":22108:22127   */\n      swap1\n      pop\n        /* \"#utility.yul\":21767:22133   */\n      swap2\n      swap1\n      pop\n      jump\t// out\n        /* \"#utility.yul\":22139:22558   */\n    tag_154:\n        /* \"#utility.yul\":22305:22309   */\n      0x00\n        /* \"#utility.yul\":22343:22345   */\n      0x20\n        /* \"#utility.yul\":22332:22341   */\n      dup3\n        /* \"#utility.yul\":22328:22346   */\n      add\n        /* \"#utility.yul\":22320:22346   */\n      swap1\n      pop\n        /* \"#utility.yul\":22392:22401   */\n      dup2\n        /* \"#utility.yul\":22386:22390   */\n      dup2\n        /* \"#utility.yul\":22382:22402   */\n      sub\n        /* \"#utility.yul\":22378:22379   */\n      0x00\n        /* \"#utility.yul\":22367:22376   */\n      dup4\n        /* \"#utility.yul\":22363:22380   */\n      add\n        /* \"#utility.yul\":22356:22403   */\n      mstore\n        /* \"#utility.yul\":22420:22551   */\n      tag_499\n        /* \"#utility.yul\":22546:22550   */\n      dup2\n        /* \"#utility.yul\":22420:22551   */\n      tag_275\n      jump\t// in\n    tag_499:\n        /* \"#utility.yul\":22412:22551   */\n      swap1\n      pop\n        /* \"#utility.yul\":22139:22558   */\n      swap2\n      swap1\n      pop\n      jump\t// out\n        /* \"#utility.yul\":22564:22739   */\n    tag_276:\n        /* \"#utility.yul\":22704:22731   */\n      0x50726f706f73616c20416c726561647920457865637574656400000000000000\n        /* \"#utility.yul\":22700:22701   */\n      0x00\n        /* \"#utility.yul\":22692:22698   */\n      dup3\n        /* \"#utility.yul\":22688:22702   */\n      add\n        /* \"#utility.yul\":22681:22732   */\n      mstore\n        /* \"#utility.yul\":22564:22739   */\n      pop\n      jump\t// out\n        /* \"#utility.yul\":22745:23111   */\n    tag_277:\n        /* \"#utility.yul\":22887:22890   */\n      0x00\n        /* \"#utility.yul\":22908:22975   */\n      tag_502\n        /* \"#utility.yul\":22972:22974   */\n      0x19\n        /* \"#utility.yul\":22967:22970   */\n      dup4\n        /* \"#utility.yul\":22908:22975   */\n      tag_227\n      jump\t// in\n    tag_502:\n        /* \"#utility.yul\":22901:22975   */\n      swap2\n      pop\n        /* \"#utility.yul\":22984:23077   */\n      tag_503\n        /* \"#utility.yul\":23073:23076   */\n      dup3\n        /* \"#utility.yul\":22984:23077   */\n      tag_276\n      jump\t// in\n    tag_503:\n        /* \"#utility.yul\":23102:23104   */\n      0x20\n        /* \"#utility.yul\":23097:23100   */\n      dup3\n        /* \"#utility.yul\":23093:23105   */\n      add\n        /* \"#utility.yul\":23086:23105   */\n      swap1\n      pop\n        /* \"#utility.yul\":22745:23111   */\n      swap2\n      swap1\n      pop\n      jump\t// out\n        /* \"#utility.yul\":23117:23536   */\n    tag_157:\n        /* \"#utility.yul\":23283:23287   */\n      0x00\n        /* \"#utility.yul\":23321:23323   */\n      0x20\n        /* \"#utility.yul\":23310:23319   */\n      dup3\n        /* \"#utility.yul\":23306:23324   */\n      add\n        /* \"#utility.yul\":23298:23324   */\n      swap1\n      pop\n        /* \"#utility.yul\":23370:23379   */\n      dup2\n        /* \"#utility.yul\":23364:23368   */\n      dup2\n        /* \"#utility.yul\":23360:23380   */\n      sub\n        /* \"#utility.yul\":23356:23357   */\n      0x00\n        /* \"#utility.yul\":23345:23354   */\n      dup4\n        /* \"#utility.yul\":23341:23358   */\n      add\n        /* \"#utility.yul\":23334:23381   */\n      mstore\n        /* \"#utility.yul\":23398:23529   */\n      tag_505\n        /* \"#utility.yul\":23524:23528   */\n      dup2\n        /* \"#utility.yul\":23398:23529   */\n      tag_277\n      jump\t// in\n    tag_505:\n        /* \"#utility.yul\":23390:23529   */\n      swap1\n      pop\n        /* \"#utility.yul\":23117:23536   */\n      swap2\n      swap1\n      pop\n      jump\t// out\n        /* \"#utility.yul\":23542:23709   */\n    tag_278:\n        /* \"#utility.yul\":23682:23701   */\n      0x596f7520616c726561647920766f746564000000000000000000000000000000\n        /* \"#utility.yul\":23678:23679   */\n      0x00\n        /* \"#utility.yul\":23670:23676   */\n      dup3\n        /* \"#utility.yul\":23666:23680   */\n      add\n        /* \"#utility.yul\":23659:23702   */\n      mstore\n        /* \"#utility.yul\":23542:23709   */\n      pop\n      jump\t// out\n        /* \"#utility.yul\":23715:24081   */\n    tag_279:\n        /* \"#utility.yul\":23857:23860   */\n      0x00\n        /* \"#utility.yul\":23878:23945   */\n      tag_508\n        /* \"#utility.yul\":23942:23944   */\n      0x11\n        /* \"#utility.yul\":23937:23940   */\n      dup4\n        /* \"#utility.yul\":23878:23945   */\n      tag_227\n      jump\t// in\n    tag_508:\n        /* \"#utility.yul\":23871:23945   */\n      swap2\n      pop\n        /* \"#utility.yul\":23954:24047   */\n      tag_509\n        /* \"#utility.yul\":24043:24046   */\n      dup3\n        /* \"#utility.yul\":23954:24047   */\n      tag_278\n      jump\t// in\n    tag_509:\n        /* \"#utility.yul\":24072:24074   */\n      0x20\n        /* \"#utility.yul\":24067:24070   */\n      dup3\n        /* \"#utility.yul\":24063:24075   */\n      add\n        /* \"#utility.yul\":24056:24075   */\n      swap1\n      pop\n        /* \"#utility.yul\":23715:24081   */\n      swap2\n      swap1\n      pop\n      jump\t// out\n        /* \"#utility.yul\":24087:24506   */\n    tag_160:\n        /* \"#utility.yul\":24253:24257   */\n      0x00\n        /* \"#utility.yul\":24291:24293   */\n      0x20\n        /* \"#utility.yul\":24280:24289   */\n      dup3\n        /* \"#utility.yul\":24276:24294   */\n      add\n        /* \"#utility.yul\":24268:24294   */\n      swap1\n      pop\n        /* \"#utility.yul\":24340:24349   */\n      dup2\n        /* \"#utility.yul\":24334:24338   */\n      dup2\n        /* \"#utility.yul\":24330:24350   */\n      sub\n        /* \"#utility.yul\":24326:24327   */\n      0x00\n        /* \"#utility.yul\":24315:24324   */\n      dup4\n        /* \"#utility.yul\":24311:24328   */\n      add\n        /* \"#utility.yul\":24304:24351   */\n      mstore\n        /* \"#utility.yul\":24368:24499   */\n      tag_511\n        /* \"#utility.yul\":24494:24498   */\n      dup2\n        /* \"#utility.yul\":24368:24499   */\n      tag_279\n      jump\t// in\n    tag_511:\n        /* \"#utility.yul\":24360:24499   */\n      swap1\n      pop\n        /* \"#utility.yul\":24087:24506   */\n      swap2\n      swap1\n      pop\n      jump\t// out\n        /* \"#utility.yul\":24512:24703   */\n    tag_162:\n        /* \"#utility.yul\":24552:24555   */\n      0x00\n        /* \"#utility.yul\":24571:24591   */\n      tag_513\n        /* \"#utility.yul\":24589:24590   */\n      dup3\n        /* \"#utility.yul\":24571:24591   */\n      tag_215\n      jump\t// in\n    tag_513:\n        /* \"#utility.yul\":24566:24591   */\n      swap2\n      pop\n        /* \"#utility.yul\":24605:24625   */\n      tag_514\n        /* \"#utility.yul\":24623:24624   */\n      dup4\n        /* \"#utility.yul\":24605:24625   */\n      tag_215\n      jump\t// in\n    tag_514:\n        /* \"#utility.yul\":24600:24625   */\n      swap3\n      pop\n        /* \"#utility.yul\":24648:24649   */\n      dup3\n        /* \"#utility.yul\":24645:24646   */\n      dup3\n        /* \"#utility.yul\":24641:24650   */\n      add\n        /* \"#utility.yul\":24634:24650   */\n      swap1\n      pop\n        /* \"#utility.yul\":24669:24672   */\n      dup1\n        /* \"#utility.yul\":24666:24667   */\n      dup3\n        /* \"#utility.yul\":24663:24673   */\n      gt\n        /* \"#utility.yul\":24660:24696   */\n      iszero\n      tag_515\n      jumpi\n        /* \"#utility.yul\":24676:24694   */\n      tag_516\n      tag_262\n      jump\t// in\n    tag_516:\n        /* \"#utility.yul\":24660:24696   */\n    tag_515:\n        /* \"#utility.yul\":24512:24703   */\n      swap3\n      swap2\n      pop\n      pop\n      jump\t// out\n        /* \"#utility.yul\":24709:24889   */\n    tag_176:\n        /* \"#utility.yul\":24757:24834   */\n      0x4e487b7100000000000000000000000000000000000000000000000000000000\n        /* \"#utility.yul\":24754:24755   */\n      0x00\n        /* \"#utility.yul\":24747:24835   */\n      mstore\n        /* \"#utility.yul\":24854:24858   */\n      0x41\n        /* \"#utility.yul\":24851:24852   */\n      0x04\n        /* \"#utility.yul\":24844:24859   */\n      mstore\n        /* \"#utility.yul\":24878:24882   */\n      0x24\n        /* \"#utility.yul\":24875:24876   */\n      0x00\n        /* \"#utility.yul\":24868:24883   */\n      revert\n        /* \"#utility.yul\":24895:25075   */\n    tag_191:\n        /* \"#utility.yul\":24943:25020   */\n      0x4e487b7100000000000000000000000000000000000000000000000000000000\n        /* \"#utility.yul\":24940:24941   */\n      0x00\n        /* \"#utility.yul\":24933:25021   */\n      mstore\n        /* \"#utility.yul\":25040:25044   */\n      0x32\n        /* \"#utility.yul\":25037:25038   */\n      0x04\n        /* \"#utility.yul\":25030:25045   */\n      mstore\n        /* \"#utility.yul\":25064:25068   */\n      0x24\n        /* \"#utility.yul\":25061:25062   */\n      0x00\n        /* \"#utility.yul\":25054:25069   */\n      revert\n        /* \"#utility.yul\":25081:25314   */\n    tag_193:\n        /* \"#utility.yul\":25120:25123   */\n      0x00\n        /* \"#utility.yul\":25143:25167   */\n      tag_520\n        /* \"#utility.yul\":25161:25166   */\n      dup3\n        /* \"#utility.yul\":25143:25167   */\n      tag_215\n      jump\t// in\n    tag_520:\n        /* \"#utility.yul\":25134:25167   */\n      swap2\n      pop\n        /* \"#utility.yul\":25189:25255   */\n      0xffffffffffffffffffffffffffffffffffffffffffffffffffffffffffffffff\n        /* \"#utility.yul\":25182:25187   */\n      dup3\n        /* \"#utility.yul\":25179:25256   */\n      sub\n        /* \"#utility.yul\":25176:25279   */\n      tag_521\n      jumpi\n        /* \"#utility.yul\":25259:25277   */\n      tag_522\n      tag_262\n      jump\t// in\n    tag_522:\n        /* \"#utility.yul\":25176:25279   */\n    tag_521:\n        /* \"#utility.yul\":25306:25307   */\n      0x01\n        /* \"#utility.yul\":25299:25304   */\n      dup3\n        /* \"#utility.yul\":25295:25308   */\n      add\n        /* \"#utility.yul\":25288:25308   */\n      swap1\n      pop\n        /* \"#utility.yul\":25081:25314   */\n      swap2\n      swap1\n      pop\n      jump\t// out\n        /* \"#utility.yul\":25320:25461   */\n    tag_280:\n        /* \"#utility.yul\":25369:25373   */\n      0x00\n        /* \"#utility.yul\":25392:25395   */\n      dup2\n        /* \"#utility.yul\":25384:25395   */\n      swap1\n      pop\n        /* \"#utility.yul\":25415:25418   */\n      dup2\n        /* \"#utility.yul\":25412:25413   */\n      0x00\n        /* \"#utility.yul\":25405:25419   */\n      mstore\n        /* \"#utility.yul\":25449:25453   */\n      0x20\n        /* \"#utility.yul\":25446:25447   */\n      0x00\n        /* \"#utility.yul\":25436:25454   */\n      keccak256\n        /* \"#utility.yul\":25428:25454   */\n      swap1\n      pop\n        /* \"#utility.yul\":25320:25461   */\n      swap2\n      swap1\n      pop\n      jump\t// out\n        /* \"#utility.yul\":25467:25560   */\n    tag_281:\n        /* \"#utility.yul\":25504:25510   */\n      0x00\n        /* \"#utility.yul\":25551:25553   */\n      0x20\n        /* \"#utility.yul\":25546:25548   */\n      0x1f\n        /* \"#utility.yul\":25539:25544   */\n      dup4\n        /* \"#utility.yul\":25535:25549   */\n      add\n        /* \"#utility.yul\":25531:25554   */\n      div\n        /* \"#utility.yul\":25521:25554   */\n      swap1\n      pop\n        /* \"#utility.yul\":25467:25560   */\n      swap2\n      swap1\n      pop\n      jump\t// out\n        /* \"#utility.yul\":25566:25673   */\n    tag_282:\n        /* \"#utility.yul\":25610:25618   */\n      0x00\n        /* \"#utility.yul\":25660:25665   */\n      dup3\n        /* \"#utility.yul\":25654:25658   */\n      dup3\n        /* \"#utility.yul\":25650:25666   */\n      shl\n        /* \"#utility.yul\":25629:25666   */\n      swap1\n      pop\n        /* \"#utility.yul\":25566:25673   */\n      swap3\n      swap2\n      pop\n      pop\n      jump\t// out\n        /* \"#utility.yul\":25679:26072   */\n    tag_283:\n        /* \"#utility.yul\":25748:25754   */\n      0x00\n        /* \"#utility.yul\":25798:25799   */\n      0x08\n        /* \"#utility.yul\":25786:25796   */\n      dup4\n        /* \"#utility.yul\":25782:25800   */\n      mul\n        /* \"#utility.yul\":25821:25918   */\n      tag_527\n        /* \"#utility.yul\":25851:25917   */\n      0xffffffffffffffffffffffffffffffffffffffffffffffffffffffffffffffff\n        /* \"#utility.yul\":25840:25849   */\n      dup3\n        /* \"#utility.yul\":25821:25918   */\n      tag_282\n      jump\t// in\n    tag_527:\n        /* \"#utility.yul\":25939:25978   */\n      tag_528\n        /* \"#utility.yul\":25969:25977   */\n      dup7\n        /* \"#utility.yul\":25958:25967   */\n      dup4\n        /* \"#utility.yul\":25939:25978   */\n      tag_282\n      jump\t// in\n    tag_528:\n        /* \"#utility.yul\":25927:25978   */\n      swap6\n      pop\n        /* \"#utility.yul\":26011:26015   */\n      dup1\n        /* \"#utility.yul\":26007:26016   */\n      not\n        /* \"#utility.yul\":26000:26005   */\n      dup5\n        /* \"#utility.yul\":25996:26017   */\n      and\n        /* \"#utility.yul\":25987:26017   */\n      swap4\n      pop\n        /* \"#utility.yul\":26060:26064   */\n      dup1\n        /* \"#utility.yul\":26050:26058   */\n      dup7\n        /* \"#utility.yul\":26046:26065   */\n      and\n        /* \"#utility.yul\":26039:26044   */\n      dup5\n        /* \"#utility.yul\":26036:26066   */\n      or\n        /* \"#utility.yul\":26026:26066   */\n      swap3\n      pop\n        /* \"#utility.yul\":25755:26072   */\n      pop\n      pop\n        /* \"#utility.yul\":25679:26072   */\n      swap4\n      swap3\n      pop\n      pop\n      pop\n      jump\t// out\n        /* \"#utility.yul\":26078:26138   */\n    tag_284:\n        /* \"#utility.yul\":26106:26109   */\n      0x00\n        /* \"#utility.yul\":26127:26132   */\n      dup2\n        /* \"#utility.yul\":26120:26132   */\n      swap1\n      pop\n        /* \"#utility.yul\":26078:26138   */\n      swap2\n      swap1\n      pop\n      jump\t// out\n        /* \"#utility.yul\":26144:26286   */\n    tag_285:\n        /* \"#utility.yul\":26194:26203   */\n      0x00\n        /* \"#utility.yul\":26227:26280   */\n      tag_531\n        /* \"#utility.yul\":26245:26279   */\n      tag_532\n        /* \"#utility.yul\":26254:26278   */\n      tag_533\n        /* \"#utility.yul\":26272:26277   */\n      dup5\n        /* \"#utility.yul\":26254:26278   */\n      tag_215\n      jump\t// in\n    tag_533:\n        /* \"#utility.yul\":26245:26279   */\n      tag_284\n      jump\t// in\n    tag_532:\n        /* \"#utility.yul\":26227:26280   */\n      tag_215\n      jump\t// in\n    tag_531:\n        /* \"#utility.yul\":26214:26280   */\n      swap1\n      pop\n        /* \"#utility.yul\":26144:26286   */\n      swap2\n      swap1\n      pop\n      jump\t// out\n        /* \"#utility.yul\":26292:26367   */\n    tag_286:\n        /* \"#utility.yul\":26335:26338   */\n      0x00\n        /* \"#utility.yul\":26356:26361   */\n      dup2\n        /* \"#utility.yul\":26349:26361   */\n      swap1\n      pop\n        /* \"#utility.yul\":26292:26367   */\n      swap2\n      swap1\n      pop\n      jump\t// out\n        /* \"#utility.yul\":26373:26642   */\n    tag_287:\n        /* \"#utility.yul\":26483:26522   */\n      tag_536\n        /* \"#utility.yul\":26514:26521   */\n      dup4\n        /* \"#utility.yul\":26483:26522   */\n      tag_285\n      jump\t// in\n    tag_536:\n        /* \"#utility.yul\":26544:26635   */\n      tag_537\n        /* \"#utility.yul\":26593:26634   */\n      tag_538\n        /* \"#utility.yul\":26617:26633   */\n      dup3\n        /* \"#utility.yul\":26593:26634   */\n      tag_286\n      jump\t// in\n    tag_538:\n        /* \"#utility.yul\":26585:26591   */\n      dup5\n        /* \"#utility.yul\":26578:26582   */\n      dup5\n        /* \"#utility.yul\":26572:26583   */\n      sload\n        /* \"#utility.yul\":26544:26635   */\n      tag_283\n      jump\t// in\n    tag_537:\n        /* \"#utility.yul\":26538:26542   */\n      dup3\n        /* \"#utility.yul\":26531:26636   */\n      sstore\n        /* \"#utility.yul\":26449:26642   */\n      pop\n        /* \"#utility.yul\":26373:26642   */\n      pop\n      pop\n      pop\n      jump\t// out\n        /* \"#utility.yul\":26648:26721   */\n    tag_288:\n        /* \"#utility.yul\":26693:26696   */\n      0x00\n        /* \"#utility.yul\":26648:26721   */\n      swap1\n      jump\t// out\n        /* \"#utility.yul\":26727:26916   */\n    tag_289:\n        /* \"#utility.yul\":26804:26836   */\n      tag_541\n      tag_288\n      jump\t// in\n    tag_541:\n        /* \"#utility.yul\":26845:26910   */\n      tag_542\n        /* \"#utility.yul\":26903:26909   */\n      dup2\n        /* \"#utility.yul\":26895:26901   */\n      dup5\n        /* \"#utility.yul\":26889:26893   */\n      dup5\n        /* \"#utility.yul\":26845:26910   */\n      tag_287\n      jump\t// in\n    tag_542:\n        /* \"#utility.yul\":26780:26916   */\n      pop\n        /* \"#utility.yul\":26727:26916   */\n      pop\n      pop\n      jump\t// out\n        /* \"#utility.yul\":26922:27108   */\n    tag_290:\n        /* \"#utility.yul\":26982:27102   */\n    tag_544:\n        /* \"#utility.yul\":26999:27002   */\n      dup2\n        /* \"#utility.yul\":26992:26997   */\n      dup2\n        /* \"#utility.yul\":26989:27003   */\n      lt\n        /* \"#utility.yul\":26982:27102   */\n      iszero\n      tag_546\n      jumpi\n        /* \"#utility.yul\":27053:27092   */\n      tag_547\n        /* \"#utility.yul\":27090:27091   */\n      0x00\n        /* \"#utility.yul\":27083:27088   */\n      dup3\n        /* \"#utility.yul\":27053:27092   */\n      tag_289\n      jump\t// in\n    tag_547:\n        /* \"#utility.yul\":27026:27027   */\n      0x01\n        /* \"#utility.yul\":27019:27024   */\n      dup2\n        /* \"#utility.yul\":27015:27028   */\n      add\n        /* \"#utility.yul\":27006:27028   */\n      swap1\n      pop\n        /* \"#utility.yul\":26982:27102   */\n      jump(tag_544)\n    tag_546:\n        /* \"#utility.yul\":26922:27108   */\n      pop\n      pop\n      jump\t// out\n        /* \"#utility.yul\":27114:27657   */\n    tag_291:\n        /* \"#utility.yul\":27215:27217   */\n      0x1f\n        /* \"#utility.yul\":27210:27213   */\n      dup3\n        /* \"#utility.yul\":27207:27218   */\n      gt\n        /* \"#utility.yul\":27204:27650   */\n      iszero\n      tag_549\n      jumpi\n        /* \"#utility.yul\":27249:27287   */\n      tag_550\n        /* \"#utility.yul\":27281:27286   */\n      dup2\n        /* \"#utility.yul\":27249:27287   */\n      tag_280\n      jump\t// in\n    tag_550:\n        /* \"#utility.yul\":27333:27362   */\n      tag_551\n        /* \"#utility.yul\":27351:27361   */\n      dup5\n        /* \"#utility.yul\":27333:27362   */\n      tag_281\n      jump\t// in\n    tag_551:\n        /* \"#utility.yul\":27323:27331   */\n      dup2\n        /* \"#utility.yul\":27319:27363   */\n      add\n        /* \"#utility.yul\":27516:27518   */\n      0x20\n        /* \"#utility.yul\":27504:27514   */\n      dup6\n        /* \"#utility.yul\":27501:27519   */\n      lt\n        /* \"#utility.yul\":27498:27547   */\n      iszero\n      tag_552\n      jumpi\n        /* \"#utility.yul\":27537:27545   */\n      dup2\n        /* \"#utility.yul\":27522:27545   */\n      swap1\n      pop\n        /* \"#utility.yul\":27498:27547   */\n    tag_552:\n        /* \"#utility.yul\":27560:27640   */\n      tag_553\n        /* \"#utility.yul\":27616:27638   */\n      tag_554\n        /* \"#utility.yul\":27634:27637   */\n      dup6\n        /* \"#utility.yul\":27616:27638   */\n      tag_281\n      jump\t// in\n    tag_554:\n        /* \"#utility.yul\":27606:27614   */\n      dup4\n        /* \"#utility.yul\":27602:27639   */\n      add\n        /* \"#utility.yul\":27589:27600   */\n      dup3\n        /* \"#utility.yul\":27560:27640   */\n      tag_290\n      jump\t// in\n    tag_553:\n        /* \"#utility.yul\":27219:27650   */\n      pop\n      pop\n        /* \"#utility.yul\":27204:27650   */\n    tag_549:\n        /* \"#utility.yul\":27114:27657   */\n      pop\n      pop\n      pop\n      jump\t// out\n        /* \"#utility.yul\":27663:27780   */\n    tag_292:\n        /* \"#utility.yul\":27717:27725   */\n      0x00\n        /* \"#utility.yul\":27767:27772   */\n      dup3\n        /* \"#utility.yul\":27761:27765   */\n      dup3\n        /* \"#utility.yul\":27757:27773   */\n      shr\n        /* \"#utility.yul\":27736:27773   */\n      swap1\n      pop\n        /* \"#utility.yul\":27663:27780   */\n      swap3\n      swap2\n      pop\n      pop\n      jump\t// out\n        /* \"#utility.yul\":27786:27955   */\n    tag_293:\n        /* \"#utility.yul\":27830:27836   */\n      0x00\n        /* \"#utility.yul\":27863:27914   */\n      tag_557\n        /* \"#utility.yul\":27911:27912   */\n      0x00\n        /* \"#utility.yul\":27907:27913   */\n      not\n        /* \"#utility.yul\":27899:27904   */\n      dup5\n        /* \"#utility.yul\":27896:27897   */\n      0x08\n        /* \"#utility.yul\":27892:27905   */\n      mul\n        /* \"#utility.yul\":27863:27914   */\n      tag_292\n      jump\t// in\n    tag_557:\n        /* \"#utility.yul\":27859:27915   */\n      not\n        /* \"#utility.yul\":27944:27948   */\n      dup1\n        /* \"#utility.yul\":27938:27942   */\n      dup4\n        /* \"#utility.yul\":27934:27949   */\n      and\n        /* \"#utility.yul\":27924:27949   */\n      swap2\n      pop\n        /* \"#utility.yul\":27837:27955   */\n      pop\n        /* \"#utility.yul\":27786:27955   */\n      swap3\n      swap2\n      pop\n      pop\n      jump\t// out\n        /* \"#utility.yul\":27960:28255   */\n    tag_294:\n        /* \"#utility.yul\":28036:28040   */\n      0x00\n        /* \"#utility.yul\":28182:28211   */\n      tag_559\n        /* \"#utility.yul\":28207:28210   */\n      dup4\n        /* \"#utility.yul\":28201:28205   */\n      dup4\n        /* \"#utility.yul\":28182:28211   */\n      tag_293\n      jump\t// in\n    tag_559:\n        /* \"#utility.yul\":28174:28211   */\n      swap2\n      pop\n        /* \"#utility.yul\":28244:28247   */\n      dup3\n        /* \"#utility.yul\":28241:28242   */\n      0x02\n        /* \"#utility.yul\":28237:28248   */\n      mul\n        /* \"#utility.yul\":28231:28235   */\n      dup3\n        /* \"#utility.yul\":28228:28249   */\n      or\n        /* \"#utility.yul\":28220:28249   */\n      swap1\n      pop\n        /* \"#utility.yul\":27960:28255   */\n      swap3\n      swap2\n      pop\n      pop\n      jump\t// out\n        /* \"#utility.yul\":28260:29655   */\n    tag_202:\n        /* \"#utility.yul\":28377:28414   */\n      tag_561\n        /* \"#utility.yul\":28410:28413   */\n      dup3\n        /* \"#utility.yul\":28377:28414   */\n      tag_226\n      jump\t// in\n    tag_561:\n        /* \"#utility.yul\":28479:28497   */\n      0xffffffffffffffff\n        /* \"#utility.yul\":28471:28477   */\n      dup2\n        /* \"#utility.yul\":28468:28498   */\n      gt\n        /* \"#utility.yul\":28465:28521   */\n      iszero\n      tag_562\n      jumpi\n        /* \"#utility.yul\":28501:28519   */\n      tag_563\n      tag_176\n      jump\t// in\n    tag_563:\n        /* \"#utility.yul\":28465:28521   */\n    tag_562:\n        /* \"#utility.yul\":28545:28583   */\n      tag_564\n        /* \"#utility.yul\":28577:28581   */\n      dup3\n        /* \"#utility.yul\":28571:28582   */\n      sload\n        /* \"#utility.yul\":28545:28583   */\n      tag_107\n      jump\t// in\n    tag_564:\n        /* \"#utility.yul\":28630:28697   */\n      tag_565\n        /* \"#utility.yul\":28690:28696   */\n      dup3\n        /* \"#utility.yul\":28682:28688   */\n      dup3\n        /* \"#utility.yul\":28676:28680   */\n      dup6\n        /* \"#utility.yul\":28630:28697   */\n      tag_291\n      jump\t// in\n    tag_565:\n        /* \"#utility.yul\":28724:28725   */\n      0x00\n        /* \"#utility.yul\":28748:28752   */\n      0x20\n        /* \"#utility.yul\":28735:28752   */\n      swap1\n      pop\n        /* \"#utility.yul\":28780:28782   */\n      0x1f\n        /* \"#utility.yul\":28772:28778   */\n      dup4\n        /* \"#utility.yul\":28769:28783   */\n      gt\n        /* \"#utility.yul\":28797:28798   */\n      0x01\n        /* \"#utility.yul\":28792:29410   */\n      dup2\n      eq\n      tag_567\n      jumpi\n        /* \"#utility.yul\":29454:29455   */\n      0x00\n        /* \"#utility.yul\":29471:29477   */\n      dup5\n        /* \"#utility.yul\":29468:29545   */\n      iszero\n      tag_568\n      jumpi\n        /* \"#utility.yul\":29520:29529   */\n      dup3\n        /* \"#utility.yul\":29515:29518   */\n      dup8\n        /* \"#utility.yul\":29511:29530   */\n      add\n        /* \"#utility.yul\":29505:29531   */\n      mload\n        /* \"#utility.yul\":29496:29531   */\n      swap1\n      pop\n        /* \"#utility.yul\":29468:29545   */\n    tag_568:\n        /* \"#utility.yul\":29571:29638   */\n      tag_569\n        /* \"#utility.yul\":29631:29637   */\n      dup6\n        /* \"#utility.yul\":29624:29629   */\n      dup3\n        /* \"#utility.yul\":29571:29638   */\n      tag_294\n      jump\t// in\n    tag_569:\n        /* \"#utility.yul\":29565:29569   */\n      dup7\n        /* \"#utility.yul\":29558:29639   */\n      sstore\n        /* \"#utility.yul\":29427:29649   */\n      pop\n        /* \"#utility.yul\":28762:29649   */\n      jump(tag_566)\n        /* \"#utility.yul\":28792:29410   */\n    tag_567:\n        /* \"#utility.yul\":28844:28848   */\n      0x1f\n        /* \"#utility.yul\":28840:28849   */\n      not\n        /* \"#utility.yul\":28832:28838   */\n      dup5\n        /* \"#utility.yul\":28828:28850   */\n      and\n        /* \"#utility.yul\":28878:28915   */\n      tag_570\n        /* \"#utility.yul\":28910:28914   */\n      dup7\n        /* \"#utility.yul\":28878:28915   */\n      tag_280\n      jump\t// in\n    tag_570:\n        /* \"#utility.yul\":28937:28938   */\n      0x00\n        /* \"#utility.yul\":28951:29159   */\n    tag_571:\n        /* \"#utility.yul\":28965:28972   */\n      dup3\n        /* \"#utility.yul\":28962:28963   */\n      dup2\n        /* \"#utility.yul\":28959:28973   */\n      lt\n        /* \"#utility.yul\":28951:29159   */\n      iszero\n      tag_573\n      jumpi\n        /* \"#utility.yul\":29044:29053   */\n      dup5\n        /* \"#utility.yul\":29039:29042   */\n      dup10\n        /* \"#utility.yul\":29035:29054   */\n      add\n        /* \"#utility.yul\":29029:29055   */\n      mload\n        /* \"#utility.yul\":29021:29027   */\n      dup3\n        /* \"#utility.yul\":29014:29056   */\n      sstore\n        /* \"#utility.yul\":29095:29096   */\n      0x01\n        /* \"#utility.yul\":29087:29093   */\n      dup3\n        /* \"#utility.yul\":29083:29097   */\n      add\n        /* \"#utility.yul\":29073:29097   */\n      swap2\n      pop\n        /* \"#utility.yul\":29142:29144   */\n      0x20\n        /* \"#utility.yul\":29131:29140   */\n      dup6\n        /* \"#utility.yul\":29127:29145   */\n      add\n        /* \"#utility.yul\":29114:29145   */\n      swap5\n      pop\n        /* \"#utility.yul\":28988:28992   */\n      0x20\n        /* \"#utility.yul\":28985:28986   */\n      dup2\n        /* \"#utility.yul\":28981:28993   */\n      add\n        /* \"#utility.yul\":28976:28993   */\n      swap1\n      pop\n        /* \"#utility.yul\":28951:29159   */\n      jump(tag_571)\n    tag_573:\n        /* \"#utility.yul\":29187:29193   */\n      dup7\n        /* \"#utility.yul\":29178:29185   */\n      dup4\n        /* \"#utility.yul\":29175:29194   */\n      lt\n        /* \"#utility.yul\":29172:29351   */\n      iszero\n      tag_574\n      jumpi\n        /* \"#utility.yul\":29245:29254   */\n      dup5\n        /* \"#utility.yul\":29240:29243   */\n      dup10\n        /* \"#utility.yul\":29236:29255   */\n      add\n        /* \"#utility.yul\":29230:29256   */\n      mload\n        /* \"#utility.yul\":29288:29336   */\n      tag_575\n        /* \"#utility.yul\":29330:29334   */\n      0x1f\n        /* \"#utility.yul\":29322:29328   */\n      dup10\n        /* \"#utility.yul\":29318:29335   */\n      and\n        /* \"#utility.yul\":29307:29316   */\n      dup3\n        /* \"#utility.yul\":29288:29336   */\n      tag_293\n      jump\t// in\n    tag_575:\n        /* \"#utility.yul\":29280:29286   */\n      dup4\n        /* \"#utility.yul\":29273:29337   */\n      sstore\n        /* \"#utility.yul\":29195:29351   */\n      pop\n        /* \"#utility.yul\":29172:29351   */\n    tag_574:\n        /* \"#utility.yul\":29397:29398   */\n      0x01\n        /* \"#utility.yul\":29393:29394   */\n      0x02\n        /* \"#utility.yul\":29385:29391   */\n      dup9\n        /* \"#utility.yul\":29381:29395   */\n      mul\n        /* \"#utility.yul\":29377:29399   */\n      add\n        /* \"#utility.yul\":29371:29375   */\n      dup9\n        /* \"#utility.yul\":29364:29400   */\n      sstore\n        /* \"#utility.yul\":28799:29410   */\n      pop\n      pop\n      pop\n        /* \"#utility.yul\":28762:29649   */\n    tag_566:\n      pop\n        /* \"#utility.yul\":28352:29655   */\n      pop\n      pop\n      pop\n        /* \"#utility.yul\":28260:29655   */\n      pop\n      pop\n      jump\t// out\n        /* \"#utility.yul\":29661:29825   */\n    tag_295:\n        /* \"#utility.yul\":29801:29817   */\n      0x696e76616c696420616d6f756e74000000000000000000000000000000000000\n        /* \"#utility.yul\":29797:29798   */\n      0x00\n        /* \"#utility.yul\":29789:29795   */\n      dup3\n        /* \"#utility.yul\":29785:29799   */\n      add\n        /* \"#utility.yul\":29778:29818   */\n      mstore\n        /* \"#utility.yul\":29661:29825   */\n      pop\n      jump\t// out\n        /* \"#utility.yul\":29831:30197   */\n    tag_296:\n        /* \"#utility.yul\":29973:29976   */\n      0x00\n        /* \"#utility.yul\":29994:30061   */\n      tag_578\n        /* \"#utility.yul\":30058:30060   */\n      0x0e\n        /* \"#utility.yul\":30053:30056   */\n      dup4\n        /* \"#utility.yul\":29994:30061   */\n      tag_227\n      jump\t// in\n    tag_578:\n        /* \"#utility.yul\":29987:30061   */\n      swap2\n      pop\n        /* \"#utility.yul\":30070:30163   */\n      tag_579\n        /* \"#utility.yul\":30159:30162   */\n      dup3\n        /* \"#utility.yul\":30070:30163   */\n      tag_295\n      jump\t// in\n    tag_579:\n        /* \"#utility.yul\":30188:30190   */\n      0x20\n        /* \"#utility.yul\":30183:30186   */\n      dup3\n        /* \"#utility.yul\":30179:30191   */\n      add\n        /* \"#utility.yul\":30172:30191   */\n      swap1\n      pop\n        /* \"#utility.yul\":29831:30197   */\n      swap2\n      swap1\n      pop\n      jump\t// out\n        /* \"#utility.yul\":30203:30622   */\n    tag_207:\n        /* \"#utility.yul\":30369:30373   */\n      0x00\n        /* \"#utility.yul\":30407:30409   */\n      0x20\n        /* \"#utility.yul\":30396:30405   */\n      dup3\n        /* \"#utility.yul\":30392:30410   */\n      add\n        /* \"#utility.yul\":30384:30410   */\n      swap1\n      pop\n        /* \"#utility.yul\":30456:30465   */\n      dup2\n        /* \"#utility.yul\":30450:30454   */\n      dup2\n        /* \"#utility.yul\":30446:30466   */\n      sub\n        /* \"#utility.yul\":30442:30443   */\n      0x00\n        /* \"#utility.yul\":30431:30440   */\n      dup4\n        /* \"#utility.yul\":30427:30444   */\n      add\n        /* \"#utility.yul\":30420:30467   */\n      mstore\n        /* \"#utility.yul\":30484:30615   */\n      tag_581\n        /* \"#utility.yul\":30610:30614   */\n      dup2\n        /* \"#utility.yul\":30484:30615   */\n      tag_296\n      jump\t// in\n    tag_581:\n        /* \"#utility.yul\":30476:30615   */\n      swap1\n      pop\n        /* \"#utility.yul\":30203:30622   */\n      swap2\n      swap1\n      pop\n      jump\t// out\n        /* \"#utility.yul\":30628:30789   */\n    tag_297:\n        /* \"#utility.yul\":30768:30781   */\n      0x54696d6520706173736564000000000000000000000000000000000000000000\n        /* \"#utility.yul\":30764:30765   */\n      0x00\n        /* \"#utility.yul\":30756:30762   */\n      dup3\n        /* \"#utility.yul\":30752:30766   */\n      add\n        /* \"#utility.yul\":30745:30782   */\n      mstore\n        /* \"#utility.yul\":30628:30789   */\n      pop\n      jump\t// out\n        /* \"#utility.yul\":30795:31161   */\n    tag_298:\n        /* \"#utility.yul\":30937:30940   */\n      0x00\n        /* \"#utility.yul\":30958:31025   */\n      tag_584\n        /* \"#utility.yul\":31022:31024   */\n      0x0b\n        /* \"#utility.yul\":31017:31020   */\n      dup4\n        /* \"#utility.yul\":30958:31025   */\n      tag_227\n      jump\t// in\n    tag_584:\n        /* \"#utility.yul\":30951:31025   */\n      swap2\n      pop\n        /* \"#utility.yul\":31034:31127   */\n      tag_585\n        /* \"#utility.yul\":31123:31126   */\n      dup3\n        /* \"#utility.yul\":31034:31127   */\n      tag_297\n      jump\t// in\n    tag_585:\n        /* \"#utility.yul\":31152:31154   */\n      0x20\n        /* \"#utility.yul\":31147:31150   */\n      dup3\n        /* \"#utility.yul\":31143:31155   */\n      add\n        /* \"#utility.yul\":31136:31155   */\n      swap1\n      pop\n        /* \"#utility.yul\":30795:31161   */\n      swap2\n      swap1\n      pop\n      jump\t// out\n        /* \"#utility.yul\":31167:31586   */\n    tag_210:\n        /* \"#utility.yul\":31333:31337   */\n      0x00\n        /* \"#utility.yul\":31371:31373   */\n      0x20\n        /* \"#utility.yul\":31360:31369   */\n      dup3\n        /* \"#utility.yul\":31356:31374   */\n      add\n        /* \"#utility.yul\":31348:31374   */\n      swap1\n      pop\n        /* \"#utility.yul\":31420:31429   */\n      dup2\n        /* \"#utility.yul\":31414:31418   */\n      dup2\n        /* \"#utility.yul\":31410:31430   */\n      sub\n        /* \"#utility.yul\":31406:31407   */\n      0x00\n        /* \"#utility.yul\":31395:31404   */\n      dup4\n        /* \"#utility.yul\":31391:31408   */\n      add\n        /* \"#utility.yul\":31384:31431   */\n      mstore\n        /* \"#utility.yul\":31448:31579   */\n      tag_587\n        /* \"#utility.yul\":31574:31578   */\n      dup2\n        /* \"#utility.yul\":31448:31579   */\n      tag_298\n      jump\t// in\n    tag_587:\n        /* \"#utility.yul\":31440:31579   */\n      swap1\n      pop\n        /* \"#utility.yul\":31167:31586   */\n      swap2\n      swap1\n      pop\n      jump\t// out\n\n    auxdata: 0xa26469706673582212206d013ff8dfc9b0ae3cc7bc25f48018772cfd32e2d7422726201b5ffcf05f65f764736f6c63430008120033\n}\n",
				"bytecode": {
					"linkReferences": {},
					"object": "60806040523480156200001157600080fd5b50604051620027bd380380620027bd8339818101604052810190620000379190620000e3565b33600b60006101000a81548173ffffffffffffffffffffffffffffffffffffffff021916908373ffffffffffffffffffffffffffffffffffffffff16021790555082600c8190555081426200008d91906200016e565b60088190555080600981905550505050620001a9565b600080fd5b6000819050919050565b620000bd81620000a8565b8114620000c957600080fd5b50565b600081519050620000dd81620000b2565b92915050565b600080600060608486031215620000ff57620000fe620000a3565b5b60006200010f86828701620000cc565b93505060206200012286828701620000cc565b92505060406200013586828701620000cc565b9150509250925092565b7f4e487b7100000000000000000000000000000000000000000000000000000000600052601160045260246000fd5b60006200017b82620000a8565b91506200018883620000a8565b9250828201905080821115620001a357620001a26200013f565b5b92915050565b61260480620001b96000396000f3fe6080604052600436106101095760003560e01c8063877b469011610095578063c89f2ce411610064578063c89f2ce41461035d578063d3319d8214610388578063f17ef3c1146103b3578063f70d7a5b146103dc578063fb65e4b11461040757610109565b8063877b4690146102b55780638be14e1e146102e0578063b3f793e414610309578063bef53a251461033257610109565b806344e9e4d6116100dc57806344e9e4d6146101e2578063481c6a751461020b578063514bbd0b146102365780636e6f951a1461025f5780637678c0381461028a57610109565b806317d892da1461010e5780631942c3ce146101395780633642a100146101625780633feb5f2b146101a5575b600080fd5b34801561011a57600080fd5b50610123610411565b6040516101309190611635565b60405180910390f35b34801561014557600080fd5b50610160600480360381019061015b91906116e4565b610417565b005b34801561016e57600080fd5b5061018960048036038101906101849190611724565b610462565b60405161019c979695949392919061180b565b60405180910390f35b3480156101b157600080fd5b506101cc60048036038101906101c79190611724565b610559565b6040516101d991906118a2565b60405180910390f35b3480156101ee57600080fd5b5061020960048036038101906102049190611724565b610598565b005b34801561021757600080fd5b50610220610708565b60405161022d91906118a2565b60405180910390f35b34801561024257600080fd5b5061025d60048036038101906102589190611724565b61072e565b005b34801561026b57600080fd5b5061027461094b565b6040516102819190611635565b60405180910390f35b34801561029657600080fd5b5061029f610951565b6040516102ac9190611635565b60405180910390f35b3480156102c157600080fd5b506102ca610957565b6040516102d7919061197b565b60405180910390f35b3480156102ec57600080fd5b5061030760048036038101906103029190611724565b6109e5565b005b34801561031557600080fd5b50610330600480360381019061032b91906116e4565b610cdd565b005b34801561033e57600080fd5b50610347610fab565b6040516103549190611635565b60405180910390f35b34801561036957600080fd5b50610372610fb1565b60405161037f9190611635565b60405180910390f35b34801561039457600080fd5b5061039d610fb7565b6040516103aa9190611b72565b60405180910390f35b3480156103bf57600080fd5b506103da60048036038101906103d59190611bf9565b6111ad565b005b3480156103e857600080fd5b506103f16113fd565b6040516103fe9190611635565b60405180910390f35b61040f611403565b005b60095481565b8073ffffffffffffffffffffffffffffffffffffffff166108fc839081150290604051600060405180830381858888f1935050505015801561045d573d6000803e3d6000fd5b505050565b600560205280600052604060002060009150905080600001549080600101805461048b90611c9c565b80601f01602080910402602001604051908101604052809291908181526020018280546104b790611c9c565b80156105045780601f106104d957610100808354040283529160200191610504565b820191906000526020600020905b8154815290600101906020018083116104e757829003601f168201915b5050505050908060020154908060030160009054906101000a900473ffffffffffffffffffffffffffffffffffffffff16908060040154908060050154908060060160009054906101000a900460ff16905087565b6004818154811061056957600080fd5b906000526020600020016000915054906101000a900473ffffffffffffffffffffffffffffffffffffffff1681565b3373ffffffffffffffffffffffffffffffffffffffff16600b60009054906101000a900473ffffffffffffffffffffffffffffffffffffffff1673ffffffffffffffffffffffffffffffffffffffff1614610628576040517f08c379a000000000000000000000000000000000000000000000000000000000815260040161061f90611d19565b60405180910390fd5b6000600560008381526020019081526020016000209050600c54600754606483600401546106569190611d68565b6106609190611dd9565b116106a0576040517f08c379a000000000000000000000000000000000000000000000000000000000815260040161069790611e56565b60405180910390fd5b600115158160060160009054906101000a905050508060020154600660008282546106cb9190611e76565b9250508190555061070481600201548260030160009054906101000a900473ffffffffffffffffffffffffffffffffffffffff16610417565b5050565b600b60009054906101000a900473ffffffffffffffffffffffffffffffffffffffff1681565b80600160003373ffffffffffffffffffffffffffffffffffffffff1673ffffffffffffffffffffffffffffffffffffffff16815260200190815260200160002054116107af576040517f08c379a00000000000000000000000000000000000000000000000000000000081526004016107a690611ef6565b60405180910390fd5b80600654116107f3576040517f08c379a00000000000000000000000000000000000000000000000000000000081526004016107ea90611f62565b60405180910390fd5b80600160003373ffffffffffffffffffffffffffffffffffffffff1673ffffffffffffffffffffffffffffffffffffffff16815260200190815260200160002060008282546108429190611e76565b925050819055506000600160003373ffffffffffffffffffffffffffffffffffffffff1673ffffffffffffffffffffffffffffffffffffffff16815260200190815260200160002054036108e85760008060003373ffffffffffffffffffffffffffffffffffffffff1673ffffffffffffffffffffffffffffffffffffffff16815260200190815260200160002060006101000a81548160ff0219169083151502179055505b80600660008282546108fa9190611e76565b925050819055503373ffffffffffffffffffffffffffffffffffffffff166108fc829081150290604051600060405180830381858888f19350505050158015610947573d6000803e3d6000fd5b5050565b600c5481565b60075481565b606060048054806020026020016040519081016040528092919081815260200182805480156109db57602002820191906000526020600020905b8160009054906101000a900473ffffffffffffffffffffffffffffffffffffffff1673ffffffffffffffffffffffffffffffffffffffff1681526020019060010190808311610991575b5050505050905090565b600115156000803373ffffffffffffffffffffffffffffffffffffffff1673ffffffffffffffffffffffffffffffffffffffff16815260200190815260200160002060009054906101000a900460ff16151514610a77576040517f08c379a0000000000000000000000000000000000000000000000000000000008152600401610a6e90611fce565b60405180910390fd5b6000600560008381526020019081526020016000209050600a54821115610ad3576040517f08c379a0000000000000000000000000000000000000000000000000000000008152600401610aca9061203a565b60405180910390fd5b4281600501541015610b1a576040517f08c379a0000000000000000000000000000000000000000000000000000000008152600401610b11906120a6565b60405180910390fd5b600015158160060160009054906101000a900460ff16151514610b72576040517f08c379a0000000000000000000000000000000000000000000000000000000008152600401610b6990612112565b60405180910390fd5b60001515600260003373ffffffffffffffffffffffffffffffffffffffff1673ffffffffffffffffffffffffffffffffffffffff168152602001908152602001600020600084815260200190815260200160002060009054906101000a900460ff16151514610c16576040517f08c379a0000000000000000000000000000000000000000000000000000000008152600401610c0d9061217e565b60405180910390fd5b6001600260003373ffffffffffffffffffffffffffffffffffffffff1673ffffffffffffffffffffffffffffffffffffffff168152602001908152602001600020600084815260200190815260200160002060006101000a81548160ff021916908315150217905550600160003373ffffffffffffffffffffffffffffffffffffffff1673ffffffffffffffffffffffffffffffffffffffff16815260200190815260200160002054816004016000828254610cd2919061219e565b925050819055505050565b81600160003373ffffffffffffffffffffffffffffffffffffffff1673ffffffffffffffffffffffffffffffffffffffff1681526020019081526020016000205411610d5e576040517f08c379a0000000000000000000000000000000000000000000000000000000008152600401610d5590611ef6565b60405180910390fd5b8160065411610da2576040517f08c379a0000000000000000000000000000000000000000000000000000000008152600401610d9990611f62565b60405180910390fd5b81600160008373ffffffffffffffffffffffffffffffffffffffff1673ffffffffffffffffffffffffffffffffffffffff1681526020019081526020016000206000828254610df1919061219e565b925050819055506000600160003373ffffffffffffffffffffffffffffffffffffffff1673ffffffffffffffffffffffffffffffffffffffff1681526020019081526020016000205403610e975760008060003373ffffffffffffffffffffffffffffffffffffffff1673ffffffffffffffffffffffffffffffffffffffff16815260200190815260200160002060006101000a81548160ff0219169083151502179055505b60016000808373ffffffffffffffffffffffffffffffffffffffff1673ffffffffffffffffffffffffffffffffffffffff16815260200190815260200160002060006101000a81548160ff0219169083151502179055506004819080600181540180825580915050600190039060005260206000200160009091909190916101000a81548173ffffffffffffffffffffffffffffffffffffffff021916908373ffffffffffffffffffffffffffffffffffffffff16021790555081600160003373ffffffffffffffffffffffffffffffffffffffff1673ffffffffffffffffffffffffffffffffffffffff1681526020019081526020016000206000828254610fa09190611e76565b925050819055505050565b60085481565b60065481565b606060006001600a54610fca9190611e76565b67ffffffffffffffff811115610fe357610fe26121d2565b5b60405190808252806020026020018201604052801561101c57816020015b6110096115c7565b8152602001906001900390816110015790505b50905060005b600a5481116111a557600560008281526020019081526020016000206040518060e00160405290816000820154815260200160018201805461106390611c9c565b80601f016020809104026020016040519081016040528092919081815260200182805461108f90611c9c565b80156110dc5780601f106110b1576101008083540402835291602001916110dc565b820191906000526020600020905b8154815290600101906020018083116110bf57829003601f168201915b50505050508152602001600282015481526020016003820160009054906101000a900473ffffffffffffffffffffffffffffffffffffffff1673ffffffffffffffffffffffffffffffffffffffff1673ffffffffffffffffffffffffffffffffffffffff16815260200160048201548152602001600582015481526020016006820160009054906101000a900460ff16151515158152505082828151811061118757611186612201565b5b6020026020010181905250808061119d90612230565b915050611022565b508091505090565b3373ffffffffffffffffffffffffffffffffffffffff16600b60009054906101000a900473ffffffffffffffffffffffffffffffffffffffff1673ffffffffffffffffffffffffffffffffffffffff161461123d576040517f08c379a000000000000000000000000000000000000000000000000000000000815260040161123490611d19565b60405180910390fd5b816006541015611282576040517f08c379a000000000000000000000000000000000000000000000000000000000815260040161127990611f62565b60405180910390fd5b6040518060e00160405280600a54815260200185858080601f016020809104026020016040519081016040528093929190818152602001838380828437600081840152601f19601f8201169050808301925050505050505081526020018381526020018273ffffffffffffffffffffffffffffffffffffffff1681526020016000815260200160095442611316919061219e565b81526020016000151581525060056000600a5481526020019081526020016000206000820151816000015560208201518160010190816113569190612424565b506040820151816002015560608201518160030160006101000a81548173ffffffffffffffffffffffffffffffffffffffff021916908373ffffffffffffffffffffffffffffffffffffffff1602179055506080820151816004015560a0820151816005015560c08201518160060160006101000a81548160ff021916908315150217905550905050600a60008154809291906113f290612230565b919050555050505050565b600a5481565b60003411611446576040517f08c379a000000000000000000000000000000000000000000000000000000000815260040161143d90612542565b60405180910390fd5b42600854101561148b576040517f08c379a0000000000000000000000000000000000000000000000000000000008152600401611482906125ae565b60405180910390fd5b600115156000803373ffffffffffffffffffffffffffffffffffffffff1673ffffffffffffffffffffffffffffffffffffffff16815260200190815260200160002060009054906101000a9050505034600160003373ffffffffffffffffffffffffffffffffffffffff1673ffffffffffffffffffffffffffffffffffffffff1681526020019081526020016000206000828254611529919061219e565b925050819055503460076000828254611542919061219e565b92505081905550346006600082825461155b919061219e565b925050819055506004339080600181540180825580915050600190039060005260206000200160009091909190916101000a81548173ffffffffffffffffffffffffffffffffffffffff021916908373ffffffffffffffffffffffffffffffffffffffff160217905550565b6040518060e00160405280600081526020016060815260200160008152602001600073ffffffffffffffffffffffffffffffffffffffff16815260200160008152602001600081526020016000151581525090565b6000819050919050565b61162f8161161c565b82525050565b600060208201905061164a6000830184611626565b92915050565b600080fd5b600080fd5b6116638161161c565b811461166e57600080fd5b50565b6000813590506116808161165a565b92915050565b600073ffffffffffffffffffffffffffffffffffffffff82169050919050565b60006116b182611686565b9050919050565b6116c1816116a6565b81146116cc57600080fd5b50565b6000813590506116de816116b8565b92915050565b600080604083850312156116fb576116fa611650565b5b600061170985828601611671565b925050602061171a858286016116cf565b9150509250929050565b60006020828403121561173a57611739611650565b5b600061174884828501611671565b91505092915050565b600081519050919050565b600082825260208201905092915050565b60005b8381101561178b578082015181840152602081019050611770565b60008484015250505050565b6000601f19601f8301169050919050565b60006117b382611751565b6117bd818561175c565b93506117cd81856020860161176d565b6117d681611797565b840191505092915050565b6117ea816116a6565b82525050565b60008115159050919050565b611805816117f0565b82525050565b600060e082019050611820600083018a611626565b818103602083015261183281896117a8565b90506118416040830188611626565b61184e60608301876117e1565b61185b6080830186611626565b61186860a0830185611626565b61187560c08301846117fc565b98975050505050505050565b600061188c82611686565b9050919050565b61189c81611881565b82525050565b60006020820190506118b76000830184611893565b92915050565b600081519050919050565b600082825260208201905092915050565b6000819050602082019050919050565b6118f281611881565b82525050565b600061190483836118e9565b60208301905092915050565b6000602082019050919050565b6000611928826118bd565b61193281856118c8565b935061193d836118d9565b8060005b8381101561196e57815161195588826118f8565b975061196083611910565b925050600181019050611941565b5085935050505092915050565b60006020820190508181036000830152611995818461191d565b905092915050565b600081519050919050565b600082825260208201905092915050565b6000819050602082019050919050565b6119d28161161c565b82525050565b600082825260208201905092915050565b60006119f482611751565b6119fe81856119d8565b9350611a0e81856020860161176d565b611a1781611797565b840191505092915050565b611a2b816116a6565b82525050565b611a3a816117f0565b82525050565b600060e083016000830151611a5860008601826119c9565b5060208301518482036020860152611a7082826119e9565b9150506040830151611a8560408601826119c9565b506060830151611a986060860182611a22565b506080830151611aab60808601826119c9565b5060a0830151611abe60a08601826119c9565b5060c0830151611ad160c0860182611a31565b508091505092915050565b6000611ae88383611a40565b905092915050565b6000602082019050919050565b6000611b088261199d565b611b1281856119a8565b935083602082028501611b24856119b9565b8060005b85811015611b605784840389528151611b418582611adc565b9450611b4c83611af0565b925060208a01995050600181019050611b28565b50829750879550505050505092915050565b60006020820190508181036000830152611b8c8184611afd565b905092915050565b600080fd5b600080fd5b600080fd5b60008083601f840112611bb957611bb8611b94565b5b8235905067ffffffffffffffff811115611bd657611bd5611b99565b5b602083019150836001820283011115611bf257611bf1611b9e565b5b9250929050565b60008060008060608587031215611c1357611c12611650565b5b600085013567ffffffffffffffff811115611c3157611c30611655565b5b611c3d87828801611ba3565b94509450506020611c5087828801611671565b9250506040611c61878288016116cf565b91505092959194509250565b7f4e487b7100000000000000000000000000000000000000000000000000000000600052602260045260246000fd5b60006002820490506001821680611cb457607f821691505b602082108103611cc757611cc6611c6d565b5b50919050565b7f596f7520617265206e6f74206d616e6167657200000000000000000000000000600082015250565b6000611d0360138361175c565b9150611d0e82611ccd565b602082019050919050565b60006020820190508181036000830152611d3281611cf6565b9050919050565b7f4e487b7100000000000000000000000000000000000000000000000000000000600052601160045260246000fd5b6000611d738261161c565b9150611d7e8361161c565b9250828202611d8c8161161c565b91508282048414831517611da357611da2611d39565b5b5092915050565b7f4e487b7100000000000000000000000000000000000000000000000000000000600052601260045260246000fd5b6000611de48261161c565b9150611def8361161c565b925082611dff57611dfe611daa565b5b828204905092915050565b7f4d616a6f7269747920646f65736e6f7420737570706f72747300000000000000600082015250565b6000611e4060198361175c565b9150611e4b82611e0a565b602082019050919050565b60006020820190508181036000830152611e6f81611e33565b9050919050565b6000611e818261161c565b9150611e8c8361161c565b9250828203905081811115611ea457611ea3611d39565b5b92915050565b7f4e6f7420656e6f75676820736861726573000000000000000000000000000000600082015250565b6000611ee060118361175c565b9150611eeb82611eaa565b602082019050919050565b60006020820190508181036000830152611f0f81611ed3565b9050919050565b7f4e6f7420656e6f7567682066756e647300000000000000000000000000000000600082015250565b6000611f4c60108361175c565b9150611f5782611f16565b602082019050919050565b60006020820190508181036000830152611f7b81611f3f565b9050919050565b7f596f7520617265206e6f7420696e766573746f72000000000000000000000000600082015250565b6000611fb860148361175c565b9150611fc382611f82565b602082019050919050565b60006020820190508181036000830152611fe781611fab565b9050919050565b7f496e76616c69642070726f706f73616c20696400000000000000000000000000600082015250565b600061202460138361175c565b915061202f82611fee565b602082019050919050565b6000602082019050818103600083015261205381612017565b9050919050565b7f54496d6520456e64656400000000000000000000000000000000000000000000600082015250565b6000612090600a8361175c565b915061209b8261205a565b602082019050919050565b600060208201905081810360008301526120bf81612083565b9050919050565b7f50726f706f73616c20416c726561647920457865637574656400000000000000600082015250565b60006120fc60198361175c565b9150612107826120c6565b602082019050919050565b6000602082019050818103600083015261212b816120ef565b9050919050565b7f596f7520616c726561647920766f746564000000000000000000000000000000600082015250565b600061216860118361175c565b915061217382612132565b602082019050919050565b600060208201905081810360008301526121978161215b565b9050919050565b60006121a98261161c565b91506121b48361161c565b92508282019050808211156121cc576121cb611d39565b5b92915050565b7f4e487b7100000000000000000000000000000000000000000000000000000000600052604160045260246000fd5b7f4e487b7100000000000000000000000000000000000000000000000000000000600052603260045260246000fd5b600061223b8261161c565b91507fffffffffffffffffffffffffffffffffffffffffffffffffffffffffffffffff820361226d5761226c611d39565b5b600182019050919050565b60008190508160005260206000209050919050565b60006020601f8301049050919050565b600082821b905092915050565b6000600883026122da7fffffffffffffffffffffffffffffffffffffffffffffffffffffffffffffffff8261229d565b6122e4868361229d565b95508019841693508086168417925050509392505050565b6000819050919050565b600061232161231c6123178461161c565b6122fc565b61161c565b9050919050565b6000819050919050565b61233b83612306565b61234f61234782612328565b8484546122aa565b825550505050565b600090565b612364612357565b61236f818484612332565b505050565b5b818110156123935761238860008261235c565b600181019050612375565b5050565b601f8211156123d8576123a981612278565b6123b28461228d565b810160208510156123c1578190505b6123d56123cd8561228d565b830182612374565b50505b505050565b600082821c905092915050565b60006123fb600019846008026123dd565b1980831691505092915050565b600061241483836123ea565b9150826002028217905092915050565b61242d82611751565b67ffffffffffffffff811115612446576124456121d2565b5b6124508254611c9c565b61245b828285612397565b600060209050601f83116001811461248e576000841561247c578287015190505b6124868582612408565b8655506124ee565b601f19841661249c86612278565b60005b828110156124c45784890151825560018201915060208501945060208101905061249f565b868310156124e157848901516124dd601f8916826123ea565b8355505b6001600288020188555050505b505050505050565b7f696e76616c696420616d6f756e74000000000000000000000000000000000000600082015250565b600061252c600e8361175c565b9150612537826124f6565b602082019050919050565b6000602082019050818103600083015261255b8161251f565b9050919050565b7f54696d6520706173736564000000000000000000000000000000000000000000600082015250565b6000612598600b8361175c565b91506125a382612562565b602082019050919050565b600060208201905081810360008301526125c78161258b565b905091905056fea26469706673582212206d013ff8dfc9b0ae3cc7bc25f48018772cfd32e2d7422726201b5ffcf05f65f764736f6c63430008120033",
					"opcodes": "PUSH1 0x80 PUSH1 0x40 MSTORE CALLVALUE DUP1 ISZERO PUSH3 0x11 JUMPI PUSH1 0x0 DUP1 REVERT JUMPDEST POP PUSH1 0x40 MLOAD PUSH3 0x27BD CODESIZE SUB DUP1 PUSH3 0x27BD DUP4 CODECOPY DUP2 DUP2 ADD PUSH1 0x40 MSTORE DUP2 ADD SWAP1 PUSH3 0x37 SWAP2 SWAP1 PUSH3 0xE3 JUMP JUMPDEST CALLER PUSH1 0xB PUSH1 0x0 PUSH2 0x100 EXP DUP2 SLOAD DUP2 PUSH20 0xFFFFFFFFFFFFFFFFFFFFFFFFFFFFFFFFFFFFFFFF MUL NOT AND SWAP1 DUP4 PUSH20 0xFFFFFFFFFFFFFFFFFFFFFFFFFFFFFFFFFFFFFFFF AND MUL OR SWAP1 SSTORE POP DUP3 PUSH1 0xC DUP2 SWAP1 SSTORE POP DUP2 TIMESTAMP PUSH3 0x8D SWAP2 SWAP1 PUSH3 0x16E JUMP JUMPDEST PUSH1 0x8 DUP2 SWAP1 SSTORE POP DUP1 PUSH1 0x9 DUP2 SWAP1 SSTORE POP POP POP POP PUSH3 0x1A9 JUMP JUMPDEST PUSH1 0x0 DUP1 REVERT JUMPDEST PUSH1 0x0 DUP2 SWAP1 POP SWAP2 SWAP1 POP JUMP JUMPDEST PUSH3 0xBD DUP2 PUSH3 0xA8 JUMP JUMPDEST DUP2 EQ PUSH3 0xC9 JUMPI PUSH1 0x0 DUP1 REVERT JUMPDEST POP JUMP JUMPDEST PUSH1 0x0 DUP2 MLOAD SWAP1 POP PUSH3 0xDD DUP2 PUSH3 0xB2 JUMP JUMPDEST SWAP3 SWAP2 POP POP JUMP JUMPDEST PUSH1 0x0 DUP1 PUSH1 0x0 PUSH1 0x60 DUP5 DUP7 SUB SLT ISZERO PUSH3 0xFF JUMPI PUSH3 0xFE PUSH3 0xA3 JUMP JUMPDEST JUMPDEST PUSH1 0x0 PUSH3 0x10F DUP7 DUP3 DUP8 ADD PUSH3 0xCC JUMP JUMPDEST SWAP4 POP POP PUSH1 0x20 PUSH3 0x122 DUP7 DUP3 DUP8 ADD PUSH3 0xCC JUMP JUMPDEST SWAP3 POP POP PUSH1 0x40 PUSH3 0x135 DUP7 DUP3 DUP8 ADD PUSH3 0xCC JUMP JUMPDEST SWAP2 POP POP SWAP3 POP SWAP3 POP SWAP3 JUMP JUMPDEST PUSH32 0x4E487B7100000000000000000000000000000000000000000000000000000000 PUSH1 0x0 MSTORE PUSH1 0x11 PUSH1 0x4 MSTORE PUSH1 0x24 PUSH1 0x0 REVERT JUMPDEST PUSH1 0x0 PUSH3 0x17B DUP3 PUSH3 0xA8 JUMP JUMPDEST SWAP2 POP PUSH3 0x188 DUP4 PUSH3 0xA8 JUMP JUMPDEST SWAP3 POP DUP3 DUP3 ADD SWAP1 POP DUP1 DUP3 GT ISZERO PUSH3 0x1A3 JUMPI PUSH3 0x1A2 PUSH3 0x13F JUMP JUMPDEST JUMPDEST SWAP3 SWAP2 POP POP JUMP JUMPDEST PUSH2 0x2604 DUP1 PUSH3 0x1B9 PUSH1 0x0 CODECOPY PUSH1 0x0 RETURN INVALID PUSH1 0x80 PUSH1 0x40 MSTORE PUSH1 0x4 CALLDATASIZE LT PUSH2 0x109 JUMPI PUSH1 0x0 CALLDATALOAD PUSH1 0xE0 SHR DUP1 PUSH4 0x877B4690 GT PUSH2 0x95 JUMPI DUP1 PUSH4 0xC89F2CE4 GT PUSH2 0x64 JUMPI DUP1 PUSH4 0xC89F2CE4 EQ PUSH2 0x35D JUMPI DUP1 PUSH4 0xD3319D82 EQ PUSH2 0x388 JUMPI DUP1 PUSH4 0xF17EF3C1 EQ PUSH2 0x3B3 JUMPI DUP1 PUSH4 0xF70D7A5B EQ PUSH2 0x3DC JUMPI DUP1 PUSH4 0xFB65E4B1 EQ PUSH2 0x407 JUMPI PUSH2 0x109 JUMP JUMPDEST DUP1 PUSH4 0x877B4690 EQ PUSH2 0x2B5 JUMPI DUP1 PUSH4 0x8BE14E1E EQ PUSH2 0x2E0 JUMPI DUP1 PUSH4 0xB3F793E4 EQ PUSH2 0x309 JUMPI DUP1 PUSH4 0xBEF53A25 EQ PUSH2 0x332 JUMPI PUSH2 0x109 JUMP JUMPDEST DUP1 PUSH4 0x44E9E4D6 GT PUSH2 0xDC JUMPI DUP1 PUSH4 0x44E9E4D6 EQ PUSH2 0x1E2 JUMPI DUP1 PUSH4 0x481C6A75 EQ PUSH2 0x20B JUMPI DUP1 PUSH4 0x514BBD0B EQ PUSH2 0x236 JUMPI DUP1 PUSH4 0x6E6F951A EQ PUSH2 0x25F JUMPI DUP1 PUSH4 0x7678C038 EQ PUSH2 0x28A JUMPI PUSH2 0x109 JUMP JUMPDEST DUP1 PUSH4 0x17D892DA EQ PUSH2 0x10E JUMPI DUP1 PUSH4 0x1942C3CE EQ PUSH2 0x139 JUMPI DUP1 PUSH4 0x3642A100 EQ PUSH2 0x162 JUMPI DUP1 PUSH4 0x3FEB5F2B EQ PUSH2 0x1A5 JUMPI JUMPDEST PUSH1 0x0 DUP1 REVERT JUMPDEST CALLVALUE DUP1 ISZERO PUSH2 0x11A JUMPI PUSH1 0x0 DUP1 REVERT JUMPDEST POP PUSH2 0x123 PUSH2 0x411 JUMP JUMPDEST PUSH1 0x40 MLOAD PUSH2 0x130 SWAP2 SWAP1 PUSH2 0x1635 JUMP JUMPDEST PUSH1 0x40 MLOAD DUP1 SWAP2 SUB SWAP1 RETURN JUMPDEST CALLVALUE DUP1 ISZERO PUSH2 0x145 JUMPI PUSH1 0x0 DUP1 REVERT JUMPDEST POP PUSH2 0x160 PUSH1 0x4 DUP1 CALLDATASIZE SUB DUP2 ADD SWAP1 PUSH2 0x15B SWAP2 SWAP1 PUSH2 0x16E4 JUMP JUMPDEST PUSH2 0x417 JUMP JUMPDEST STOP JUMPDEST CALLVALUE DUP1 ISZERO PUSH2 0x16E JUMPI PUSH1 0x0 DUP1 REVERT JUMPDEST POP PUSH2 0x189 PUSH1 0x4 DUP1 CALLDATASIZE SUB DUP2 ADD SWAP1 PUSH2 0x184 SWAP2 SWAP1 PUSH2 0x1724 JUMP JUMPDEST PUSH2 0x462 JUMP JUMPDEST PUSH1 0x40 MLOAD PUSH2 0x19C SWAP8 SWAP7 SWAP6 SWAP5 SWAP4 SWAP3 SWAP2 SWAP1 PUSH2 0x180B JUMP JUMPDEST PUSH1 0x40 MLOAD DUP1 SWAP2 SUB SWAP1 RETURN JUMPDEST CALLVALUE DUP1 ISZERO PUSH2 0x1B1 JUMPI PUSH1 0x0 DUP1 REVERT JUMPDEST POP PUSH2 0x1CC PUSH1 0x4 DUP1 CALLDATASIZE SUB DUP2 ADD SWAP1 PUSH2 0x1C7 SWAP2 SWAP1 PUSH2 0x1724 JUMP JUMPDEST PUSH2 0x559 JUMP JUMPDEST PUSH1 0x40 MLOAD PUSH2 0x1D9 SWAP2 SWAP1 PUSH2 0x18A2 JUMP JUMPDEST PUSH1 0x40 MLOAD DUP1 SWAP2 SUB SWAP1 RETURN JUMPDEST CALLVALUE DUP1 ISZERO PUSH2 0x1EE JUMPI PUSH1 0x0 DUP1 REVERT JUMPDEST POP PUSH2 0x209 PUSH1 0x4 DUP1 CALLDATASIZE SUB DUP2 ADD SWAP1 PUSH2 0x204 SWAP2 SWAP1 PUSH2 0x1724 JUMP JUMPDEST PUSH2 0x598 JUMP JUMPDEST STOP JUMPDEST CALLVALUE DUP1 ISZERO PUSH2 0x217 JUMPI PUSH1 0x0 DUP1 REVERT JUMPDEST POP PUSH2 0x220 PUSH2 0x708 JUMP JUMPDEST PUSH1 0x40 MLOAD PUSH2 0x22D SWAP2 SWAP1 PUSH2 0x18A2 JUMP JUMPDEST PUSH1 0x40 MLOAD DUP1 SWAP2 SUB SWAP1 RETURN JUMPDEST CALLVALUE DUP1 ISZERO PUSH2 0x242 JUMPI PUSH1 0x0 DUP1 REVERT JUMPDEST POP PUSH2 0x25D PUSH1 0x4 DUP1 CALLDATASIZE SUB DUP2 ADD SWAP1 PUSH2 0x258 SWAP2 SWAP1 PUSH2 0x1724 JUMP JUMPDEST PUSH2 0x72E JUMP JUMPDEST STOP JUMPDEST CALLVALUE DUP1 ISZERO PUSH2 0x26B JUMPI PUSH1 0x0 DUP1 REVERT JUMPDEST POP PUSH2 0x274 PUSH2 0x94B JUMP JUMPDEST PUSH1 0x40 MLOAD PUSH2 0x281 SWAP2 SWAP1 PUSH2 0x1635 JUMP JUMPDEST PUSH1 0x40 MLOAD DUP1 SWAP2 SUB SWAP1 RETURN JUMPDEST CALLVALUE DUP1 ISZERO PUSH2 0x296 JUMPI PUSH1 0x0 DUP1 REVERT JUMPDEST POP PUSH2 0x29F PUSH2 0x951 JUMP JUMPDEST PUSH1 0x40 MLOAD PUSH2 0x2AC SWAP2 SWAP1 PUSH2 0x1635 JUMP JUMPDEST PUSH1 0x40 MLOAD DUP1 SWAP2 SUB SWAP1 RETURN JUMPDEST CALLVALUE DUP1 ISZERO PUSH2 0x2C1 JUMPI PUSH1 0x0 DUP1 REVERT JUMPDEST POP PUSH2 0x2CA PUSH2 0x957 JUMP JUMPDEST PUSH1 0x40 MLOAD PUSH2 0x2D7 SWAP2 SWAP1 PUSH2 0x197B JUMP JUMPDEST PUSH1 0x40 MLOAD DUP1 SWAP2 SUB SWAP1 RETURN JUMPDEST CALLVALUE DUP1 ISZERO PUSH2 0x2EC JUMPI PUSH1 0x0 DUP1 REVERT JUMPDEST POP PUSH2 0x307 PUSH1 0x4 DUP1 CALLDATASIZE SUB DUP2 ADD SWAP1 PUSH2 0x302 SWAP2 SWAP1 PUSH2 0x1724 JUMP JUMPDEST PUSH2 0x9E5 JUMP JUMPDEST STOP JUMPDEST CALLVALUE DUP1 ISZERO PUSH2 0x315 JUMPI PUSH1 0x0 DUP1 REVERT JUMPDEST POP PUSH2 0x330 PUSH1 0x4 DUP1 CALLDATASIZE SUB DUP2 ADD SWAP1 PUSH2 0x32B SWAP2 SWAP1 PUSH2 0x16E4 JUMP JUMPDEST PUSH2 0xCDD JUMP JUMPDEST STOP JUMPDEST CALLVALUE DUP1 ISZERO PUSH2 0x33E JUMPI PUSH1 0x0 DUP1 REVERT JUMPDEST POP PUSH2 0x347 PUSH2 0xFAB JUMP JUMPDEST PUSH1 0x40 MLOAD PUSH2 0x354 SWAP2 SWAP1 PUSH2 0x1635 JUMP JUMPDEST PUSH1 0x40 MLOAD DUP1 SWAP2 SUB SWAP1 RETURN JUMPDEST CALLVALUE DUP1 ISZERO PUSH2 0x369 JUMPI PUSH1 0x0 DUP1 REVERT JUMPDEST POP PUSH2 0x372 PUSH2 0xFB1 JUMP JUMPDEST PUSH1 0x40 MLOAD PUSH2 0x37F SWAP2 SWAP1 PUSH2 0x1635 JUMP JUMPDEST PUSH1 0x40 MLOAD DUP1 SWAP2 SUB SWAP1 RETURN JUMPDEST CALLVALUE DUP1 ISZERO PUSH2 0x394 JUMPI PUSH1 0x0 DUP1 REVERT JUMPDEST POP PUSH2 0x39D PUSH2 0xFB7 JUMP JUMPDEST PUSH1 0x40 MLOAD PUSH2 0x3AA SWAP2 SWAP1 PUSH2 0x1B72 JUMP JUMPDEST PUSH1 0x40 MLOAD DUP1 SWAP2 SUB SWAP1 RETURN JUMPDEST CALLVALUE DUP1 ISZERO PUSH2 0x3BF JUMPI PUSH1 0x0 DUP1 REVERT JUMPDEST POP PUSH2 0x3DA PUSH1 0x4 DUP1 CALLDATASIZE SUB DUP2 ADD SWAP1 PUSH2 0x3D5 SWAP2 SWAP1 PUSH2 0x1BF9 JUMP JUMPDEST PUSH2 0x11AD JUMP JUMPDEST STOP JUMPDEST CALLVALUE DUP1 ISZERO PUSH2 0x3E8 JUMPI PUSH1 0x0 DUP1 REVERT JUMPDEST POP PUSH2 0x3F1 PUSH2 0x13FD JUMP JUMPDEST PUSH1 0x40 MLOAD PUSH2 0x3FE SWAP2 SWAP1 PUSH2 0x1635 JUMP JUMPDEST PUSH1 0x40 MLOAD DUP1 SWAP2 SUB SWAP1 RETURN JUMPDEST PUSH2 0x40F PUSH2 0x1403 JUMP JUMPDEST STOP JUMPDEST PUSH1 0x9 SLOAD DUP2 JUMP JUMPDEST DUP1 PUSH20 0xFFFFFFFFFFFFFFFFFFFFFFFFFFFFFFFFFFFFFFFF AND PUSH2 0x8FC DUP4 SWAP1 DUP2 ISZERO MUL SWAP1 PUSH1 0x40 MLOAD PUSH1 0x0 PUSH1 0x40 MLOAD DUP1 DUP4 SUB DUP2 DUP6 DUP9 DUP9 CALL SWAP4 POP POP POP POP ISZERO DUP1 ISZERO PUSH2 0x45D JUMPI RETURNDATASIZE PUSH1 0x0 DUP1 RETURNDATACOPY RETURNDATASIZE PUSH1 0x0 REVERT JUMPDEST POP POP POP JUMP JUMPDEST PUSH1 0x5 PUSH1 0x20 MSTORE DUP1 PUSH1 0x0 MSTORE PUSH1 0x40 PUSH1 0x0 KECCAK256 PUSH1 0x0 SWAP2 POP SWAP1 POP DUP1 PUSH1 0x0 ADD SLOAD SWAP1 DUP1 PUSH1 0x1 ADD DUP1 SLOAD PUSH2 0x48B SWAP1 PUSH2 0x1C9C JUMP JUMPDEST DUP1 PUSH1 0x1F ADD PUSH1 0x20 DUP1 SWAP2 DIV MUL PUSH1 0x20 ADD PUSH1 0x40 MLOAD SWAP1 DUP2 ADD PUSH1 0x40 MSTORE DUP1 SWAP3 SWAP2 SWAP1 DUP2 DUP2 MSTORE PUSH1 0x20 ADD DUP3 DUP1 SLOAD PUSH2 0x4B7 SWAP1 PUSH2 0x1C9C JUMP JUMPDEST DUP1 ISZERO PUSH2 0x504 JUMPI DUP1 PUSH1 0x1F LT PUSH2 0x4D9 JUMPI PUSH2 0x100 DUP1 DUP4 SLOAD DIV MUL DUP4 MSTORE SWAP2 PUSH1 0x20 ADD SWAP2 PUSH2 0x504 JUMP JUMPDEST DUP3 ADD SWAP2 SWAP1 PUSH1 0x0 MSTORE PUSH1 0x20 PUSH1 0x0 KECCAK256 SWAP1 JUMPDEST DUP2 SLOAD DUP2 MSTORE SWAP1 PUSH1 0x1 ADD SWAP1 PUSH1 0x20 ADD DUP1 DUP4 GT PUSH2 0x4E7 JUMPI DUP3 SWAP1 SUB PUSH1 0x1F AND DUP3 ADD SWAP2 JUMPDEST POP POP POP POP POP SWAP1 DUP1 PUSH1 0x2 ADD SLOAD SWAP1 DUP1 PUSH1 0x3 ADD PUSH1 0x0 SWAP1 SLOAD SWAP1 PUSH2 0x100 EXP SWAP1 DIV PUSH20 0xFFFFFFFFFFFFFFFFFFFFFFFFFFFFFFFFFFFFFFFF AND SWAP1 DUP1 PUSH1 0x4 ADD SLOAD SWAP1 DUP1 PUSH1 0x5 ADD SLOAD SWAP1 DUP1 PUSH1 0x6 ADD PUSH1 0x0 SWAP1 SLOAD SWAP1 PUSH2 0x100 EXP SWAP1 DIV PUSH1 0xFF AND SWAP1 POP DUP8 JUMP JUMPDEST PUSH1 0x4 DUP2 DUP2 SLOAD DUP2 LT PUSH2 0x569 JUMPI PUSH1 0x0 DUP1 REVERT JUMPDEST SWAP1 PUSH1 0x0 MSTORE PUSH1 0x20 PUSH1 0x0 KECCAK256 ADD PUSH1 0x0 SWAP2 POP SLOAD SWAP1 PUSH2 0x100 EXP SWAP1 DIV PUSH20 0xFFFFFFFFFFFFFFFFFFFFFFFFFFFFFFFFFFFFFFFF AND DUP2 JUMP JUMPDEST CALLER PUSH20 0xFFFFFFFFFFFFFFFFFFFFFFFFFFFFFFFFFFFFFFFF AND PUSH1 0xB PUSH1 0x0 SWAP1 SLOAD SWAP1 PUSH2 0x100 EXP SWAP1 DIV PUSH20 0xFFFFFFFFFFFFFFFFFFFFFFFFFFFFFFFFFFFFFFFF AND PUSH20 0xFFFFFFFFFFFFFFFFFFFFFFFFFFFFFFFFFFFFFFFF AND EQ PUSH2 0x628 JUMPI PUSH1 0x40 MLOAD PUSH32 0x8C379A000000000000000000000000000000000000000000000000000000000 DUP2 MSTORE PUSH1 0x4 ADD PUSH2 0x61F SWAP1 PUSH2 0x1D19 JUMP JUMPDEST PUSH1 0x40 MLOAD DUP1 SWAP2 SUB SWAP1 REVERT JUMPDEST PUSH1 0x0 PUSH1 0x5 PUSH1 0x0 DUP4 DUP2 MSTORE PUSH1 0x20 ADD SWAP1 DUP2 MSTORE PUSH1 0x20 ADD PUSH1 0x0 KECCAK256 SWAP1 POP PUSH1 0xC SLOAD PUSH1 0x7 SLOAD PUSH1 0x64 DUP4 PUSH1 0x4 ADD SLOAD PUSH2 0x656 SWAP2 SWAP1 PUSH2 0x1D68 JUMP JUMPDEST PUSH2 0x660 SWAP2 SWAP1 PUSH2 0x1DD9 JUMP JUMPDEST GT PUSH2 0x6A0 JUMPI PUSH1 0x40 MLOAD PUSH32 0x8C379A000000000000000000000000000000000000000000000000000000000 DUP2 MSTORE PUSH1 0x4 ADD PUSH2 0x697 SWAP1 PUSH2 0x1E56 JUMP JUMPDEST PUSH1 0x40 MLOAD DUP1 SWAP2 SUB SWAP1 REVERT JUMPDEST PUSH1 0x1 ISZERO ISZERO DUP2 PUSH1 0x6 ADD PUSH1 0x0 SWAP1 SLOAD SWAP1 PUSH2 0x100 EXP SWAP1 POP POP POP DUP1 PUSH1 0x2 ADD SLOAD PUSH1 0x6 PUSH1 0x0 DUP3 DUP3 SLOAD PUSH2 0x6CB SWAP2 SWAP1 PUSH2 0x1E76 JUMP JUMPDEST SWAP3 POP POP DUP2 SWAP1 SSTORE POP PUSH2 0x704 DUP2 PUSH1 0x2 ADD SLOAD DUP3 PUSH1 0x3 ADD PUSH1 0x0 SWAP1 SLOAD SWAP1 PUSH2 0x100 EXP SWAP1 DIV PUSH20 0xFFFFFFFFFFFFFFFFFFFFFFFFFFFFFFFFFFFFFFFF AND PUSH2 0x417 JUMP JUMPDEST POP POP JUMP JUMPDEST PUSH1 0xB PUSH1 0x0 SWAP1 SLOAD SWAP1 PUSH2 0x100 EXP SWAP1 DIV PUSH20 0xFFFFFFFFFFFFFFFFFFFFFFFFFFFFFFFFFFFFFFFF AND DUP2 JUMP JUMPDEST DUP1 PUSH1 0x1 PUSH1 0x0 CALLER PUSH20 0xFFFFFFFFFFFFFFFFFFFFFFFFFFFFFFFFFFFFFFFF AND PUSH20 0xFFFFFFFFFFFFFFFFFFFFFFFFFFFFFFFFFFFFFFFF AND DUP2 MSTORE PUSH1 0x20 ADD SWAP1 DUP2 MSTORE PUSH1 0x20 ADD PUSH1 0x0 KECCAK256 SLOAD GT PUSH2 0x7AF JUMPI PUSH1 0x40 MLOAD PUSH32 0x8C379A000000000000000000000000000000000000000000000000000000000 DUP2 MSTORE PUSH1 0x4 ADD PUSH2 0x7A6 SWAP1 PUSH2 0x1EF6 JUMP JUMPDEST PUSH1 0x40 MLOAD DUP1 SWAP2 SUB SWAP1 REVERT JUMPDEST DUP1 PUSH1 0x6 SLOAD GT PUSH2 0x7F3 JUMPI PUSH1 0x40 MLOAD PUSH32 0x8C379A000000000000000000000000000000000000000000000000000000000 DUP2 MSTORE PUSH1 0x4 ADD PUSH2 0x7EA SWAP1 PUSH2 0x1F62 JUMP JUMPDEST PUSH1 0x40 MLOAD DUP1 SWAP2 SUB SWAP1 REVERT JUMPDEST DUP1 PUSH1 0x1 PUSH1 0x0 CALLER PUSH20 0xFFFFFFFFFFFFFFFFFFFFFFFFFFFFFFFFFFFFFFFF AND PUSH20 0xFFFFFFFFFFFFFFFFFFFFFFFFFFFFFFFFFFFFFFFF AND DUP2 MSTORE PUSH1 0x20 ADD SWAP1 DUP2 MSTORE PUSH1 0x20 ADD PUSH1 0x0 KECCAK256 PUSH1 0x0 DUP3 DUP3 SLOAD PUSH2 0x842 SWAP2 SWAP1 PUSH2 0x1E76 JUMP JUMPDEST SWAP3 POP POP DUP2 SWAP1 SSTORE POP PUSH1 0x0 PUSH1 0x1 PUSH1 0x0 CALLER PUSH20 0xFFFFFFFFFFFFFFFFFFFFFFFFFFFFFFFFFFFFFFFF AND PUSH20 0xFFFFFFFFFFFFFFFFFFFFFFFFFFFFFFFFFFFFFFFF AND DUP2 MSTORE PUSH1 0x20 ADD SWAP1 DUP2 MSTORE PUSH1 0x20 ADD PUSH1 0x0 KECCAK256 SLOAD SUB PUSH2 0x8E8 JUMPI PUSH1 0x0 DUP1 PUSH1 0x0 CALLER PUSH20 0xFFFFFFFFFFFFFFFFFFFFFFFFFFFFFFFFFFFFFFFF AND PUSH20 0xFFFFFFFFFFFFFFFFFFFFFFFFFFFFFFFFFFFFFFFF AND DUP2 MSTORE PUSH1 0x20 ADD SWAP1 DUP2 MSTORE PUSH1 0x20 ADD PUSH1 0x0 KECCAK256 PUSH1 0x0 PUSH2 0x100 EXP DUP2 SLOAD DUP2 PUSH1 0xFF MUL NOT AND SWAP1 DUP4 ISZERO ISZERO MUL OR SWAP1 SSTORE POP JUMPDEST DUP1 PUSH1 0x6 PUSH1 0x0 DUP3 DUP3 SLOAD PUSH2 0x8FA SWAP2 SWAP1 PUSH2 0x1E76 JUMP JUMPDEST SWAP3 POP POP DUP2 SWAP1 SSTORE POP CALLER PUSH20 0xFFFFFFFFFFFFFFFFFFFFFFFFFFFFFFFFFFFFFFFF AND PUSH2 0x8FC DUP3 SWAP1 DUP2 ISZERO MUL SWAP1 PUSH1 0x40 MLOAD PUSH1 0x0 PUSH1 0x40 MLOAD DUP1 DUP4 SUB DUP2 DUP6 DUP9 DUP9 CALL SWAP4 POP POP POP POP ISZERO DUP1 ISZERO PUSH2 0x947 JUMPI RETURNDATASIZE PUSH1 0x0 DUP1 RETURNDATACOPY RETURNDATASIZE PUSH1 0x0 REVERT JUMPDEST POP POP JUMP JUMPDEST PUSH1 0xC SLOAD DUP2 JUMP JUMPDEST PUSH1 0x7 SLOAD DUP2 JUMP JUMPDEST PUSH1 0x60 PUSH1 0x4 DUP1 SLOAD DUP1 PUSH1 0x20 MUL PUSH1 0x20 ADD PUSH1 0x40 MLOAD SWAP1 DUP2 ADD PUSH1 0x40 MSTORE DUP1 SWAP3 SWAP2 SWAP1 DUP2 DUP2 MSTORE PUSH1 0x20 ADD DUP3 DUP1 SLOAD DUP1 ISZERO PUSH2 0x9DB JUMPI PUSH1 0x20 MUL DUP3 ADD SWAP2 SWAP1 PUSH1 0x0 MSTORE PUSH1 0x20 PUSH1 0x0 KECCAK256 SWAP1 JUMPDEST DUP2 PUSH1 0x0 SWAP1 SLOAD SWAP1 PUSH2 0x100 EXP SWAP1 DIV PUSH20 0xFFFFFFFFFFFFFFFFFFFFFFFFFFFFFFFFFFFFFFFF AND PUSH20 0xFFFFFFFFFFFFFFFFFFFFFFFFFFFFFFFFFFFFFFFF AND DUP2 MSTORE PUSH1 0x20 ADD SWAP1 PUSH1 0x1 ADD SWAP1 DUP1 DUP4 GT PUSH2 0x991 JUMPI JUMPDEST POP POP POP POP POP SWAP1 POP SWAP1 JUMP JUMPDEST PUSH1 0x1 ISZERO ISZERO PUSH1 0x0 DUP1 CALLER PUSH20 0xFFFFFFFFFFFFFFFFFFFFFFFFFFFFFFFFFFFFFFFF AND PUSH20 0xFFFFFFFFFFFFFFFFFFFFFFFFFFFFFFFFFFFFFFFF AND DUP2 MSTORE PUSH1 0x20 ADD SWAP1 DUP2 MSTORE PUSH1 0x20 ADD PUSH1 0x0 KECCAK256 PUSH1 0x0 SWAP1 SLOAD SWAP1 PUSH2 0x100 EXP SWAP1 DIV PUSH1 0xFF AND ISZERO ISZERO EQ PUSH2 0xA77 JUMPI PUSH1 0x40 MLOAD PUSH32 0x8C379A000000000000000000000000000000000000000000000000000000000 DUP2 MSTORE PUSH1 0x4 ADD PUSH2 0xA6E SWAP1 PUSH2 0x1FCE JUMP JUMPDEST PUSH1 0x40 MLOAD DUP1 SWAP2 SUB SWAP1 REVERT JUMPDEST PUSH1 0x0 PUSH1 0x5 PUSH1 0x0 DUP4 DUP2 MSTORE PUSH1 0x20 ADD SWAP1 DUP2 MSTORE PUSH1 0x20 ADD PUSH1 0x0 KECCAK256 SWAP1 POP PUSH1 0xA SLOAD DUP3 GT ISZERO PUSH2 0xAD3 JUMPI PUSH1 0x40 MLOAD PUSH32 0x8C379A000000000000000000000000000000000000000000000000000000000 DUP2 MSTORE PUSH1 0x4 ADD PUSH2 0xACA SWAP1 PUSH2 0x203A JUMP JUMPDEST PUSH1 0x40 MLOAD DUP1 SWAP2 SUB SWAP1 REVERT JUMPDEST TIMESTAMP DUP2 PUSH1 0x5 ADD SLOAD LT ISZERO PUSH2 0xB1A JUMPI PUSH1 0x40 MLOAD PUSH32 0x8C379A000000000000000000000000000000000000000000000000000000000 DUP2 MSTORE PUSH1 0x4 ADD PUSH2 0xB11 SWAP1 PUSH2 0x20A6 JUMP JUMPDEST PUSH1 0x40 MLOAD DUP1 SWAP2 SUB SWAP1 REVERT JUMPDEST PUSH1 0x0 ISZERO ISZERO DUP2 PUSH1 0x6 ADD PUSH1 0x0 SWAP1 SLOAD SWAP1 PUSH2 0x100 EXP SWAP1 DIV PUSH1 0xFF AND ISZERO ISZERO EQ PUSH2 0xB72 JUMPI PUSH1 0x40 MLOAD PUSH32 0x8C379A000000000000000000000000000000000000000000000000000000000 DUP2 MSTORE PUSH1 0x4 ADD PUSH2 0xB69 SWAP1 PUSH2 0x2112 JUMP JUMPDEST PUSH1 0x40 MLOAD DUP1 SWAP2 SUB SWAP1 REVERT JUMPDEST PUSH1 0x0 ISZERO ISZERO PUSH1 0x2 PUSH1 0x0 CALLER PUSH20 0xFFFFFFFFFFFFFFFFFFFFFFFFFFFFFFFFFFFFFFFF AND PUSH20 0xFFFFFFFFFFFFFFFFFFFFFFFFFFFFFFFFFFFFFFFF AND DUP2 MSTORE PUSH1 0x20 ADD SWAP1 DUP2 MSTORE PUSH1 0x20 ADD PUSH1 0x0 KECCAK256 PUSH1 0x0 DUP5 DUP2 MSTORE PUSH1 0x20 ADD SWAP1 DUP2 MSTORE PUSH1 0x20 ADD PUSH1 0x0 KECCAK256 PUSH1 0x0 SWAP1 SLOAD SWAP1 PUSH2 0x100 EXP SWAP1 DIV PUSH1 0xFF AND ISZERO ISZERO EQ PUSH2 0xC16 JUMPI PUSH1 0x40 MLOAD PUSH32 0x8C379A000000000000000000000000000000000000000000000000000000000 DUP2 MSTORE PUSH1 0x4 ADD PUSH2 0xC0D SWAP1 PUSH2 0x217E JUMP JUMPDEST PUSH1 0x40 MLOAD DUP1 SWAP2 SUB SWAP1 REVERT JUMPDEST PUSH1 0x1 PUSH1 0x2 PUSH1 0x0 CALLER PUSH20 0xFFFFFFFFFFFFFFFFFFFFFFFFFFFFFFFFFFFFFFFF AND PUSH20 0xFFFFFFFFFFFFFFFFFFFFFFFFFFFFFFFFFFFFFFFF AND DUP2 MSTORE PUSH1 0x20 ADD SWAP1 DUP2 MSTORE PUSH1 0x20 ADD PUSH1 0x0 KECCAK256 PUSH1 0x0 DUP5 DUP2 MSTORE PUSH1 0x20 ADD SWAP1 DUP2 MSTORE PUSH1 0x20 ADD PUSH1 0x0 KECCAK256 PUSH1 0x0 PUSH2 0x100 EXP DUP2 SLOAD DUP2 PUSH1 0xFF MUL NOT AND SWAP1 DUP4 ISZERO ISZERO MUL OR SWAP1 SSTORE POP PUSH1 0x1 PUSH1 0x0 CALLER PUSH20 0xFFFFFFFFFFFFFFFFFFFFFFFFFFFFFFFFFFFFFFFF AND PUSH20 0xFFFFFFFFFFFFFFFFFFFFFFFFFFFFFFFFFFFFFFFF AND DUP2 MSTORE PUSH1 0x20 ADD SWAP1 DUP2 MSTORE PUSH1 0x20 ADD PUSH1 0x0 KECCAK256 SLOAD DUP2 PUSH1 0x4 ADD PUSH1 0x0 DUP3 DUP3 SLOAD PUSH2 0xCD2 SWAP2 SWAP1 PUSH2 0x219E JUMP JUMPDEST SWAP3 POP POP DUP2 SWAP1 SSTORE POP POP POP JUMP JUMPDEST DUP2 PUSH1 0x1 PUSH1 0x0 CALLER PUSH20 0xFFFFFFFFFFFFFFFFFFFFFFFFFFFFFFFFFFFFFFFF AND PUSH20 0xFFFFFFFFFFFFFFFFFFFFFFFFFFFFFFFFFFFFFFFF AND DUP2 MSTORE PUSH1 0x20 ADD SWAP1 DUP2 MSTORE PUSH1 0x20 ADD PUSH1 0x0 KECCAK256 SLOAD GT PUSH2 0xD5E JUMPI PUSH1 0x40 MLOAD PUSH32 0x8C379A000000000000000000000000000000000000000000000000000000000 DUP2 MSTORE PUSH1 0x4 ADD PUSH2 0xD55 SWAP1 PUSH2 0x1EF6 JUMP JUMPDEST PUSH1 0x40 MLOAD DUP1 SWAP2 SUB SWAP1 REVERT JUMPDEST DUP2 PUSH1 0x6 SLOAD GT PUSH2 0xDA2 JUMPI PUSH1 0x40 MLOAD PUSH32 0x8C379A000000000000000000000000000000000000000000000000000000000 DUP2 MSTORE PUSH1 0x4 ADD PUSH2 0xD99 SWAP1 PUSH2 0x1F62 JUMP JUMPDEST PUSH1 0x40 MLOAD DUP1 SWAP2 SUB SWAP1 REVERT JUMPDEST DUP2 PUSH1 0x1 PUSH1 0x0 DUP4 PUSH20 0xFFFFFFFFFFFFFFFFFFFFFFFFFFFFFFFFFFFFFFFF AND PUSH20 0xFFFFFFFFFFFFFFFFFFFFFFFFFFFFFFFFFFFFFFFF AND DUP2 MSTORE PUSH1 0x20 ADD SWAP1 DUP2 MSTORE PUSH1 0x20 ADD PUSH1 0x0 KECCAK256 PUSH1 0x0 DUP3 DUP3 SLOAD PUSH2 0xDF1 SWAP2 SWAP1 PUSH2 0x219E JUMP JUMPDEST SWAP3 POP POP DUP2 SWAP1 SSTORE POP PUSH1 0x0 PUSH1 0x1 PUSH1 0x0 CALLER PUSH20 0xFFFFFFFFFFFFFFFFFFFFFFFFFFFFFFFFFFFFFFFF AND PUSH20 0xFFFFFFFFFFFFFFFFFFFFFFFFFFFFFFFFFFFFFFFF AND DUP2 MSTORE PUSH1 0x20 ADD SWAP1 DUP2 MSTORE PUSH1 0x20 ADD PUSH1 0x0 KECCAK256 SLOAD SUB PUSH2 0xE97 JUMPI PUSH1 0x0 DUP1 PUSH1 0x0 CALLER PUSH20 0xFFFFFFFFFFFFFFFFFFFFFFFFFFFFFFFFFFFFFFFF AND PUSH20 0xFFFFFFFFFFFFFFFFFFFFFFFFFFFFFFFFFFFFFFFF AND DUP2 MSTORE PUSH1 0x20 ADD SWAP1 DUP2 MSTORE PUSH1 0x20 ADD PUSH1 0x0 KECCAK256 PUSH1 0x0 PUSH2 0x100 EXP DUP2 SLOAD DUP2 PUSH1 0xFF MUL NOT AND SWAP1 DUP4 ISZERO ISZERO MUL OR SWAP1 SSTORE POP JUMPDEST PUSH1 0x1 PUSH1 0x0 DUP1 DUP4 PUSH20 0xFFFFFFFFFFFFFFFFFFFFFFFFFFFFFFFFFFFFFFFF AND PUSH20 0xFFFFFFFFFFFFFFFFFFFFFFFFFFFFFFFFFFFFFFFF AND DUP2 MSTORE PUSH1 0x20 ADD SWAP1 DUP2 MSTORE PUSH1 0x20 ADD PUSH1 0x0 KECCAK256 PUSH1 0x0 PUSH2 0x100 EXP DUP2 SLOAD DUP2 PUSH1 0xFF MUL NOT AND SWAP1 DUP4 ISZERO ISZERO MUL OR SWAP1 SSTORE POP PUSH1 0x4 DUP2 SWAP1 DUP1 PUSH1 0x1 DUP2 SLOAD ADD DUP1 DUP3 SSTORE DUP1 SWAP2 POP POP PUSH1 0x1 SWAP1 SUB SWAP1 PUSH1 0x0 MSTORE PUSH1 0x20 PUSH1 0x0 KECCAK256 ADD PUSH1 0x0 SWAP1 SWAP2 SWAP1 SWAP2 SWAP1 SWAP2 PUSH2 0x100 EXP DUP2 SLOAD DUP2 PUSH20 0xFFFFFFFFFFFFFFFFFFFFFFFFFFFFFFFFFFFFFFFF MUL NOT AND SWAP1 DUP4 PUSH20 0xFFFFFFFFFFFFFFFFFFFFFFFFFFFFFFFFFFFFFFFF AND MUL OR SWAP1 SSTORE POP DUP2 PUSH1 0x1 PUSH1 0x0 CALLER PUSH20 0xFFFFFFFFFFFFFFFFFFFFFFFFFFFFFFFFFFFFFFFF AND PUSH20 0xFFFFFFFFFFFFFFFFFFFFFFFFFFFFFFFFFFFFFFFF AND DUP2 MSTORE PUSH1 0x20 ADD SWAP1 DUP2 MSTORE PUSH1 0x20 ADD PUSH1 0x0 KECCAK256 PUSH1 0x0 DUP3 DUP3 SLOAD PUSH2 0xFA0 SWAP2 SWAP1 PUSH2 0x1E76 JUMP JUMPDEST SWAP3 POP POP DUP2 SWAP1 SSTORE POP POP POP JUMP JUMPDEST PUSH1 0x8 SLOAD DUP2 JUMP JUMPDEST PUSH1 0x6 SLOAD DUP2 JUMP JUMPDEST PUSH1 0x60 PUSH1 0x0 PUSH1 0x1 PUSH1 0xA SLOAD PUSH2 0xFCA SWAP2 SWAP1 PUSH2 0x1E76 JUMP JUMPDEST PUSH8 0xFFFFFFFFFFFFFFFF DUP2 GT ISZERO PUSH2 0xFE3 JUMPI PUSH2 0xFE2 PUSH2 0x21D2 JUMP JUMPDEST JUMPDEST PUSH1 0x40 MLOAD SWAP1 DUP1 DUP3 MSTORE DUP1 PUSH1 0x20 MUL PUSH1 0x20 ADD DUP3 ADD PUSH1 0x40 MSTORE DUP1 ISZERO PUSH2 0x101C JUMPI DUP2 PUSH1 0x20 ADD JUMPDEST PUSH2 0x1009 PUSH2 0x15C7 JUMP JUMPDEST DUP2 MSTORE PUSH1 0x20 ADD SWAP1 PUSH1 0x1 SWAP1 SUB SWAP1 DUP2 PUSH2 0x1001 JUMPI SWAP1 POP JUMPDEST POP SWAP1 POP PUSH1 0x0 JUMPDEST PUSH1 0xA SLOAD DUP2 GT PUSH2 0x11A5 JUMPI PUSH1 0x5 PUSH1 0x0 DUP3 DUP2 MSTORE PUSH1 0x20 ADD SWAP1 DUP2 MSTORE PUSH1 0x20 ADD PUSH1 0x0 KECCAK256 PUSH1 0x40 MLOAD DUP1 PUSH1 0xE0 ADD PUSH1 0x40 MSTORE SWAP1 DUP2 PUSH1 0x0 DUP3 ADD SLOAD DUP2 MSTORE PUSH1 0x20 ADD PUSH1 0x1 DUP3 ADD DUP1 SLOAD PUSH2 0x1063 SWAP1 PUSH2 0x1C9C JUMP JUMPDEST DUP1 PUSH1 0x1F ADD PUSH1 0x20 DUP1 SWAP2 DIV MUL PUSH1 0x20 ADD PUSH1 0x40 MLOAD SWAP1 DUP2 ADD PUSH1 0x40 MSTORE DUP1 SWAP3 SWAP2 SWAP1 DUP2 DUP2 MSTORE PUSH1 0x20 ADD DUP3 DUP1 SLOAD PUSH2 0x108F SWAP1 PUSH2 0x1C9C JUMP JUMPDEST DUP1 ISZERO PUSH2 0x10DC JUMPI DUP1 PUSH1 0x1F LT PUSH2 0x10B1 JUMPI PUSH2 0x100 DUP1 DUP4 SLOAD DIV MUL DUP4 MSTORE SWAP2 PUSH1 0x20 ADD SWAP2 PUSH2 0x10DC JUMP JUMPDEST DUP3 ADD SWAP2 SWAP1 PUSH1 0x0 MSTORE PUSH1 0x20 PUSH1 0x0 KECCAK256 SWAP1 JUMPDEST DUP2 SLOAD DUP2 MSTORE SWAP1 PUSH1 0x1 ADD SWAP1 PUSH1 0x20 ADD DUP1 DUP4 GT PUSH2 0x10BF JUMPI DUP3 SWAP1 SUB PUSH1 0x1F AND DUP3 ADD SWAP2 JUMPDEST POP POP POP POP POP DUP2 MSTORE PUSH1 0x20 ADD PUSH1 0x2 DUP3 ADD SLOAD DUP2 MSTORE PUSH1 0x20 ADD PUSH1 0x3 DUP3 ADD PUSH1 0x0 SWAP1 SLOAD SWAP1 PUSH2 0x100 EXP SWAP1 DIV PUSH20 0xFFFFFFFFFFFFFFFFFFFFFFFFFFFFFFFFFFFFFFFF AND PUSH20 0xFFFFFFFFFFFFFFFFFFFFFFFFFFFFFFFFFFFFFFFF AND PUSH20 0xFFFFFFFFFFFFFFFFFFFFFFFFFFFFFFFFFFFFFFFF AND DUP2 MSTORE PUSH1 0x20 ADD PUSH1 0x4 DUP3 ADD SLOAD DUP2 MSTORE PUSH1 0x20 ADD PUSH1 0x5 DUP3 ADD SLOAD DUP2 MSTORE PUSH1 0x20 ADD PUSH1 0x6 DUP3 ADD PUSH1 0x0 SWAP1 SLOAD SWAP1 PUSH2 0x100 EXP SWAP1 DIV PUSH1 0xFF AND ISZERO ISZERO ISZERO ISZERO DUP2 MSTORE POP POP DUP3 DUP3 DUP2 MLOAD DUP2 LT PUSH2 0x1187 JUMPI PUSH2 0x1186 PUSH2 0x2201 JUMP JUMPDEST JUMPDEST PUSH1 0x20 MUL PUSH1 0x20 ADD ADD DUP2 SWAP1 MSTORE POP DUP1 DUP1 PUSH2 0x119D SWAP1 PUSH2 0x2230 JUMP JUMPDEST SWAP2 POP POP PUSH2 0x1022 JUMP JUMPDEST POP DUP1 SWAP2 POP POP SWAP1 JUMP JUMPDEST CALLER PUSH20 0xFFFFFFFFFFFFFFFFFFFFFFFFFFFFFFFFFFFFFFFF AND PUSH1 0xB PUSH1 0x0 SWAP1 SLOAD SWAP1 PUSH2 0x100 EXP SWAP1 DIV PUSH20 0xFFFFFFFFFFFFFFFFFFFFFFFFFFFFFFFFFFFFFFFF AND PUSH20 0xFFFFFFFFFFFFFFFFFFFFFFFFFFFFFFFFFFFFFFFF AND EQ PUSH2 0x123D JUMPI PUSH1 0x40 MLOAD PUSH32 0x8C379A000000000000000000000000000000000000000000000000000000000 DUP2 MSTORE PUSH1 0x4 ADD PUSH2 0x1234 SWAP1 PUSH2 0x1D19 JUMP JUMPDEST PUSH1 0x40 MLOAD DUP1 SWAP2 SUB SWAP1 REVERT JUMPDEST DUP2 PUSH1 0x6 SLOAD LT ISZERO PUSH2 0x1282 JUMPI PUSH1 0x40 MLOAD PUSH32 0x8C379A000000000000000000000000000000000000000000000000000000000 DUP2 MSTORE PUSH1 0x4 ADD PUSH2 0x1279 SWAP1 PUSH2 0x1F62 JUMP JUMPDEST PUSH1 0x40 MLOAD DUP1 SWAP2 SUB SWAP1 REVERT JUMPDEST PUSH1 0x40 MLOAD DUP1 PUSH1 0xE0 ADD PUSH1 0x40 MSTORE DUP1 PUSH1 0xA SLOAD DUP2 MSTORE PUSH1 0x20 ADD DUP6 DUP6 DUP1 DUP1 PUSH1 0x1F ADD PUSH1 0x20 DUP1 SWAP2 DIV MUL PUSH1 0x20 ADD PUSH1 0x40 MLOAD SWAP1 DUP2 ADD PUSH1 0x40 MSTORE DUP1 SWAP4 SWAP3 SWAP2 SWAP1 DUP2 DUP2 MSTORE PUSH1 0x20 ADD DUP4 DUP4 DUP1 DUP3 DUP5 CALLDATACOPY PUSH1 0x0 DUP2 DUP5 ADD MSTORE PUSH1 0x1F NOT PUSH1 0x1F DUP3 ADD AND SWAP1 POP DUP1 DUP4 ADD SWAP3 POP POP POP POP POP POP POP DUP2 MSTORE PUSH1 0x20 ADD DUP4 DUP2 MSTORE PUSH1 0x20 ADD DUP3 PUSH20 0xFFFFFFFFFFFFFFFFFFFFFFFFFFFFFFFFFFFFFFFF AND DUP2 MSTORE PUSH1 0x20 ADD PUSH1 0x0 DUP2 MSTORE PUSH1 0x20 ADD PUSH1 0x9 SLOAD TIMESTAMP PUSH2 0x1316 SWAP2 SWAP1 PUSH2 0x219E JUMP JUMPDEST DUP2 MSTORE PUSH1 0x20 ADD PUSH1 0x0 ISZERO ISZERO DUP2 MSTORE POP PUSH1 0x5 PUSH1 0x0 PUSH1 0xA SLOAD DUP2 MSTORE PUSH1 0x20 ADD SWAP1 DUP2 MSTORE PUSH1 0x20 ADD PUSH1 0x0 KECCAK256 PUSH1 0x0 DUP3 ADD MLOAD DUP2 PUSH1 0x0 ADD SSTORE PUSH1 0x20 DUP3 ADD MLOAD DUP2 PUSH1 0x1 ADD SWAP1 DUP2 PUSH2 0x1356 SWAP2 SWAP1 PUSH2 0x2424 JUMP JUMPDEST POP PUSH1 0x40 DUP3 ADD MLOAD DUP2 PUSH1 0x2 ADD SSTORE PUSH1 0x60 DUP3 ADD MLOAD DUP2 PUSH1 0x3 ADD PUSH1 0x0 PUSH2 0x100 EXP DUP2 SLOAD DUP2 PUSH20 0xFFFFFFFFFFFFFFFFFFFFFFFFFFFFFFFFFFFFFFFF MUL NOT AND SWAP1 DUP4 PUSH20 0xFFFFFFFFFFFFFFFFFFFFFFFFFFFFFFFFFFFFFFFF AND MUL OR SWAP1 SSTORE POP PUSH1 0x80 DUP3 ADD MLOAD DUP2 PUSH1 0x4 ADD SSTORE PUSH1 0xA0 DUP3 ADD MLOAD DUP2 PUSH1 0x5 ADD SSTORE PUSH1 0xC0 DUP3 ADD MLOAD DUP2 PUSH1 0x6 ADD PUSH1 0x0 PUSH2 0x100 EXP DUP2 SLOAD DUP2 PUSH1 0xFF MUL NOT AND SWAP1 DUP4 ISZERO ISZERO MUL OR SWAP1 SSTORE POP SWAP1 POP POP PUSH1 0xA PUSH1 0x0 DUP2 SLOAD DUP1 SWAP3 SWAP2 SWAP1 PUSH2 0x13F2 SWAP1 PUSH2 0x2230 JUMP JUMPDEST SWAP2 SWAP1 POP SSTORE POP POP POP POP POP JUMP JUMPDEST PUSH1 0xA SLOAD DUP2 JUMP JUMPDEST PUSH1 0x0 CALLVALUE GT PUSH2 0x1446 JUMPI PUSH1 0x40 MLOAD PUSH32 0x8C379A000000000000000000000000000000000000000000000000000000000 DUP2 MSTORE PUSH1 0x4 ADD PUSH2 0x143D SWAP1 PUSH2 0x2542 JUMP JUMPDEST PUSH1 0x40 MLOAD DUP1 SWAP2 SUB SWAP1 REVERT JUMPDEST TIMESTAMP PUSH1 0x8 SLOAD LT ISZERO PUSH2 0x148B JUMPI PUSH1 0x40 MLOAD PUSH32 0x8C379A000000000000000000000000000000000000000000000000000000000 DUP2 MSTORE PUSH1 0x4 ADD PUSH2 0x1482 SWAP1 PUSH2 0x25AE JUMP JUMPDEST PUSH1 0x40 MLOAD DUP1 SWAP2 SUB SWAP1 REVERT JUMPDEST PUSH1 0x1 ISZERO ISZERO PUSH1 0x0 DUP1 CALLER PUSH20 0xFFFFFFFFFFFFFFFFFFFFFFFFFFFFFFFFFFFFFFFF AND PUSH20 0xFFFFFFFFFFFFFFFFFFFFFFFFFFFFFFFFFFFFFFFF AND DUP2 MSTORE PUSH1 0x20 ADD SWAP1 DUP2 MSTORE PUSH1 0x20 ADD PUSH1 0x0 KECCAK256 PUSH1 0x0 SWAP1 SLOAD SWAP1 PUSH2 0x100 EXP SWAP1 POP POP POP CALLVALUE PUSH1 0x1 PUSH1 0x0 CALLER PUSH20 0xFFFFFFFFFFFFFFFFFFFFFFFFFFFFFFFFFFFFFFFF AND PUSH20 0xFFFFFFFFFFFFFFFFFFFFFFFFFFFFFFFFFFFFFFFF AND DUP2 MSTORE PUSH1 0x20 ADD SWAP1 DUP2 MSTORE PUSH1 0x20 ADD PUSH1 0x0 KECCAK256 PUSH1 0x0 DUP3 DUP3 SLOAD PUSH2 0x1529 SWAP2 SWAP1 PUSH2 0x219E JUMP JUMPDEST SWAP3 POP POP DUP2 SWAP1 SSTORE POP CALLVALUE PUSH1 0x7 PUSH1 0x0 DUP3 DUP3 SLOAD PUSH2 0x1542 SWAP2 SWAP1 PUSH2 0x219E JUMP JUMPDEST SWAP3 POP POP DUP2 SWAP1 SSTORE POP CALLVALUE PUSH1 0x6 PUSH1 0x0 DUP3 DUP3 SLOAD PUSH2 0x155B SWAP2 SWAP1 PUSH2 0x219E JUMP JUMPDEST SWAP3 POP POP DUP2 SWAP1 SSTORE POP PUSH1 0x4 CALLER SWAP1 DUP1 PUSH1 0x1 DUP2 SLOAD ADD DUP1 DUP3 SSTORE DUP1 SWAP2 POP POP PUSH1 0x1 SWAP1 SUB SWAP1 PUSH1 0x0 MSTORE PUSH1 0x20 PUSH1 0x0 KECCAK256 ADD PUSH1 0x0 SWAP1 SWAP2 SWAP1 SWAP2 SWAP1 SWAP2 PUSH2 0x100 EXP DUP2 SLOAD DUP2 PUSH20 0xFFFFFFFFFFFFFFFFFFFFFFFFFFFFFFFFFFFFFFFF MUL NOT AND SWAP1 DUP4 PUSH20 0xFFFFFFFFFFFFFFFFFFFFFFFFFFFFFFFFFFFFFFFF AND MUL OR SWAP1 SSTORE POP JUMP JUMPDEST PUSH1 0x40 MLOAD DUP1 PUSH1 0xE0 ADD PUSH1 0x40 MSTORE DUP1 PUSH1 0x0 DUP2 MSTORE PUSH1 0x20 ADD PUSH1 0x60 DUP2 MSTORE PUSH1 0x20 ADD PUSH1 0x0 DUP2 MSTORE PUSH1 0x20 ADD PUSH1 0x0 PUSH20 0xFFFFFFFFFFFFFFFFFFFFFFFFFFFFFFFFFFFFFFFF AND DUP2 MSTORE PUSH1 0x20 ADD PUSH1 0x0 DUP2 MSTORE PUSH1 0x20 ADD PUSH1 0x0 DUP2 MSTORE PUSH1 0x20 ADD PUSH1 0x0 ISZERO ISZERO DUP2 MSTORE POP SWAP1 JUMP JUMPDEST PUSH1 0x0 DUP2 SWAP1 POP SWAP2 SWAP1 POP JUMP JUMPDEST PUSH2 0x162F DUP2 PUSH2 0x161C JUMP JUMPDEST DUP3 MSTORE POP POP JUMP JUMPDEST PUSH1 0x0 PUSH1 0x20 DUP3 ADD SWAP1 POP PUSH2 0x164A PUSH1 0x0 DUP4 ADD DUP5 PUSH2 0x1626 JUMP JUMPDEST SWAP3 SWAP2 POP POP JUMP JUMPDEST PUSH1 0x0 DUP1 REVERT JUMPDEST PUSH1 0x0 DUP1 REVERT JUMPDEST PUSH2 0x1663 DUP2 PUSH2 0x161C JUMP JUMPDEST DUP2 EQ PUSH2 0x166E JUMPI PUSH1 0x0 DUP1 REVERT JUMPDEST POP JUMP JUMPDEST PUSH1 0x0 DUP2 CALLDATALOAD SWAP1 POP PUSH2 0x1680 DUP2 PUSH2 0x165A JUMP JUMPDEST SWAP3 SWAP2 POP POP JUMP JUMPDEST PUSH1 0x0 PUSH20 0xFFFFFFFFFFFFFFFFFFFFFFFFFFFFFFFFFFFFFFFF DUP3 AND SWAP1 POP SWAP2 SWAP1 POP JUMP JUMPDEST PUSH1 0x0 PUSH2 0x16B1 DUP3 PUSH2 0x1686 JUMP JUMPDEST SWAP1 POP SWAP2 SWAP1 POP JUMP JUMPDEST PUSH2 0x16C1 DUP2 PUSH2 0x16A6 JUMP JUMPDEST DUP2 EQ PUSH2 0x16CC JUMPI PUSH1 0x0 DUP1 REVERT JUMPDEST POP JUMP JUMPDEST PUSH1 0x0 DUP2 CALLDATALOAD SWAP1 POP PUSH2 0x16DE DUP2 PUSH2 0x16B8 JUMP JUMPDEST SWAP3 SWAP2 POP POP JUMP JUMPDEST PUSH1 0x0 DUP1 PUSH1 0x40 DUP4 DUP6 SUB SLT ISZERO PUSH2 0x16FB JUMPI PUSH2 0x16FA PUSH2 0x1650 JUMP JUMPDEST JUMPDEST PUSH1 0x0 PUSH2 0x1709 DUP6 DUP3 DUP7 ADD PUSH2 0x1671 JUMP JUMPDEST SWAP3 POP POP PUSH1 0x20 PUSH2 0x171A DUP6 DUP3 DUP7 ADD PUSH2 0x16CF JUMP JUMPDEST SWAP2 POP POP SWAP3 POP SWAP3 SWAP1 POP JUMP JUMPDEST PUSH1 0x0 PUSH1 0x20 DUP3 DUP5 SUB SLT ISZERO PUSH2 0x173A JUMPI PUSH2 0x1739 PUSH2 0x1650 JUMP JUMPDEST JUMPDEST PUSH1 0x0 PUSH2 0x1748 DUP5 DUP3 DUP6 ADD PUSH2 0x1671 JUMP JUMPDEST SWAP2 POP POP SWAP3 SWAP2 POP POP JUMP JUMPDEST PUSH1 0x0 DUP2 MLOAD SWAP1 POP SWAP2 SWAP1 POP JUMP JUMPDEST PUSH1 0x0 DUP3 DUP3 MSTORE PUSH1 0x20 DUP3 ADD SWAP1 POP SWAP3 SWAP2 POP POP JUMP JUMPDEST PUSH1 0x0 JUMPDEST DUP4 DUP2 LT ISZERO PUSH2 0x178B JUMPI DUP1 DUP3 ADD MLOAD DUP2 DUP5 ADD MSTORE PUSH1 0x20 DUP2 ADD SWAP1 POP PUSH2 0x1770 JUMP JUMPDEST PUSH1 0x0 DUP5 DUP5 ADD MSTORE POP POP POP POP JUMP JUMPDEST PUSH1 0x0 PUSH1 0x1F NOT PUSH1 0x1F DUP4 ADD AND SWAP1 POP SWAP2 SWAP1 POP JUMP JUMPDEST PUSH1 0x0 PUSH2 0x17B3 DUP3 PUSH2 0x1751 JUMP JUMPDEST PUSH2 0x17BD DUP2 DUP6 PUSH2 0x175C JUMP JUMPDEST SWAP4 POP PUSH2 0x17CD DUP2 DUP6 PUSH1 0x20 DUP7 ADD PUSH2 0x176D JUMP JUMPDEST PUSH2 0x17D6 DUP2 PUSH2 0x1797 JUMP JUMPDEST DUP5 ADD SWAP2 POP POP SWAP3 SWAP2 POP POP JUMP JUMPDEST PUSH2 0x17EA DUP2 PUSH2 0x16A6 JUMP JUMPDEST DUP3 MSTORE POP POP JUMP JUMPDEST PUSH1 0x0 DUP2 ISZERO ISZERO SWAP1 POP SWAP2 SWAP1 POP JUMP JUMPDEST PUSH2 0x1805 DUP2 PUSH2 0x17F0 JUMP JUMPDEST DUP3 MSTORE POP POP JUMP JUMPDEST PUSH1 0x0 PUSH1 0xE0 DUP3 ADD SWAP1 POP PUSH2 0x1820 PUSH1 0x0 DUP4 ADD DUP11 PUSH2 0x1626 JUMP JUMPDEST DUP2 DUP2 SUB PUSH1 0x20 DUP4 ADD MSTORE PUSH2 0x1832 DUP2 DUP10 PUSH2 0x17A8 JUMP JUMPDEST SWAP1 POP PUSH2 0x1841 PUSH1 0x40 DUP4 ADD DUP9 PUSH2 0x1626 JUMP JUMPDEST PUSH2 0x184E PUSH1 0x60 DUP4 ADD DUP8 PUSH2 0x17E1 JUMP JUMPDEST PUSH2 0x185B PUSH1 0x80 DUP4 ADD DUP7 PUSH2 0x1626 JUMP JUMPDEST PUSH2 0x1868 PUSH1 0xA0 DUP4 ADD DUP6 PUSH2 0x1626 JUMP JUMPDEST PUSH2 0x1875 PUSH1 0xC0 DUP4 ADD DUP5 PUSH2 0x17FC JUMP JUMPDEST SWAP9 SWAP8 POP POP POP POP POP POP POP POP JUMP JUMPDEST PUSH1 0x0 PUSH2 0x188C DUP3 PUSH2 0x1686 JUMP JUMPDEST SWAP1 POP SWAP2 SWAP1 POP JUMP JUMPDEST PUSH2 0x189C DUP2 PUSH2 0x1881 JUMP JUMPDEST DUP3 MSTORE POP POP JUMP JUMPDEST PUSH1 0x0 PUSH1 0x20 DUP3 ADD SWAP1 POP PUSH2 0x18B7 PUSH1 0x0 DUP4 ADD DUP5 PUSH2 0x1893 JUMP JUMPDEST SWAP3 SWAP2 POP POP JUMP JUMPDEST PUSH1 0x0 DUP2 MLOAD SWAP1 POP SWAP2 SWAP1 POP JUMP JUMPDEST PUSH1 0x0 DUP3 DUP3 MSTORE PUSH1 0x20 DUP3 ADD SWAP1 POP SWAP3 SWAP2 POP POP JUMP JUMPDEST PUSH1 0x0 DUP2 SWAP1 POP PUSH1 0x20 DUP3 ADD SWAP1 POP SWAP2 SWAP1 POP JUMP JUMPDEST PUSH2 0x18F2 DUP2 PUSH2 0x1881 JUMP JUMPDEST DUP3 MSTORE POP POP JUMP JUMPDEST PUSH1 0x0 PUSH2 0x1904 DUP4 DUP4 PUSH2 0x18E9 JUMP JUMPDEST PUSH1 0x20 DUP4 ADD SWAP1 POP SWAP3 SWAP2 POP POP JUMP JUMPDEST PUSH1 0x0 PUSH1 0x20 DUP3 ADD SWAP1 POP SWAP2 SWAP1 POP JUMP JUMPDEST PUSH1 0x0 PUSH2 0x1928 DUP3 PUSH2 0x18BD JUMP JUMPDEST PUSH2 0x1932 DUP2 DUP6 PUSH2 0x18C8 JUMP JUMPDEST SWAP4 POP PUSH2 0x193D DUP4 PUSH2 0x18D9 JUMP JUMPDEST DUP1 PUSH1 0x0 JUMPDEST DUP4 DUP2 LT ISZERO PUSH2 0x196E JUMPI DUP2 MLOAD PUSH2 0x1955 DUP9 DUP3 PUSH2 0x18F8 JUMP JUMPDEST SWAP8 POP PUSH2 0x1960 DUP4 PUSH2 0x1910 JUMP JUMPDEST SWAP3 POP POP PUSH1 0x1 DUP2 ADD SWAP1 POP PUSH2 0x1941 JUMP JUMPDEST POP DUP6 SWAP4 POP POP POP POP SWAP3 SWAP2 POP POP JUMP JUMPDEST PUSH1 0x0 PUSH1 0x20 DUP3 ADD SWAP1 POP DUP2 DUP2 SUB PUSH1 0x0 DUP4 ADD MSTORE PUSH2 0x1995 DUP2 DUP5 PUSH2 0x191D JUMP JUMPDEST SWAP1 POP SWAP3 SWAP2 POP POP JUMP JUMPDEST PUSH1 0x0 DUP2 MLOAD SWAP1 POP SWAP2 SWAP1 POP JUMP JUMPDEST PUSH1 0x0 DUP3 DUP3 MSTORE PUSH1 0x20 DUP3 ADD SWAP1 POP SWAP3 SWAP2 POP POP JUMP JUMPDEST PUSH1 0x0 DUP2 SWAP1 POP PUSH1 0x20 DUP3 ADD SWAP1 POP SWAP2 SWAP1 POP JUMP JUMPDEST PUSH2 0x19D2 DUP2 PUSH2 0x161C JUMP JUMPDEST DUP3 MSTORE POP POP JUMP JUMPDEST PUSH1 0x0 DUP3 DUP3 MSTORE PUSH1 0x20 DUP3 ADD SWAP1 POP SWAP3 SWAP2 POP POP JUMP JUMPDEST PUSH1 0x0 PUSH2 0x19F4 DUP3 PUSH2 0x1751 JUMP JUMPDEST PUSH2 0x19FE DUP2 DUP6 PUSH2 0x19D8 JUMP JUMPDEST SWAP4 POP PUSH2 0x1A0E DUP2 DUP6 PUSH1 0x20 DUP7 ADD PUSH2 0x176D JUMP JUMPDEST PUSH2 0x1A17 DUP2 PUSH2 0x1797 JUMP JUMPDEST DUP5 ADD SWAP2 POP POP SWAP3 SWAP2 POP POP JUMP JUMPDEST PUSH2 0x1A2B DUP2 PUSH2 0x16A6 JUMP JUMPDEST DUP3 MSTORE POP POP JUMP JUMPDEST PUSH2 0x1A3A DUP2 PUSH2 0x17F0 JUMP JUMPDEST DUP3 MSTORE POP POP JUMP JUMPDEST PUSH1 0x0 PUSH1 0xE0 DUP4 ADD PUSH1 0x0 DUP4 ADD MLOAD PUSH2 0x1A58 PUSH1 0x0 DUP7 ADD DUP3 PUSH2 0x19C9 JUMP JUMPDEST POP PUSH1 0x20 DUP4 ADD MLOAD DUP5 DUP3 SUB PUSH1 0x20 DUP7 ADD MSTORE PUSH2 0x1A70 DUP3 DUP3 PUSH2 0x19E9 JUMP JUMPDEST SWAP2 POP POP PUSH1 0x40 DUP4 ADD MLOAD PUSH2 0x1A85 PUSH1 0x40 DUP7 ADD DUP3 PUSH2 0x19C9 JUMP JUMPDEST POP PUSH1 0x60 DUP4 ADD MLOAD PUSH2 0x1A98 PUSH1 0x60 DUP7 ADD DUP3 PUSH2 0x1A22 JUMP JUMPDEST POP PUSH1 0x80 DUP4 ADD MLOAD PUSH2 0x1AAB PUSH1 0x80 DUP7 ADD DUP3 PUSH2 0x19C9 JUMP JUMPDEST POP PUSH1 0xA0 DUP4 ADD MLOAD PUSH2 0x1ABE PUSH1 0xA0 DUP7 ADD DUP3 PUSH2 0x19C9 JUMP JUMPDEST POP PUSH1 0xC0 DUP4 ADD MLOAD PUSH2 0x1AD1 PUSH1 0xC0 DUP7 ADD DUP3 PUSH2 0x1A31 JUMP JUMPDEST POP DUP1 SWAP2 POP POP SWAP3 SWAP2 POP POP JUMP JUMPDEST PUSH1 0x0 PUSH2 0x1AE8 DUP4 DUP4 PUSH2 0x1A40 JUMP JUMPDEST SWAP1 POP SWAP3 SWAP2 POP POP JUMP JUMPDEST PUSH1 0x0 PUSH1 0x20 DUP3 ADD SWAP1 POP SWAP2 SWAP1 POP JUMP JUMPDEST PUSH1 0x0 PUSH2 0x1B08 DUP3 PUSH2 0x199D JUMP JUMPDEST PUSH2 0x1B12 DUP2 DUP6 PUSH2 0x19A8 JUMP JUMPDEST SWAP4 POP DUP4 PUSH1 0x20 DUP3 MUL DUP6 ADD PUSH2 0x1B24 DUP6 PUSH2 0x19B9 JUMP JUMPDEST DUP1 PUSH1 0x0 JUMPDEST DUP6 DUP2 LT ISZERO PUSH2 0x1B60 JUMPI DUP5 DUP5 SUB DUP10 MSTORE DUP2 MLOAD PUSH2 0x1B41 DUP6 DUP3 PUSH2 0x1ADC JUMP JUMPDEST SWAP5 POP PUSH2 0x1B4C DUP4 PUSH2 0x1AF0 JUMP JUMPDEST SWAP3 POP PUSH1 0x20 DUP11 ADD SWAP10 POP POP PUSH1 0x1 DUP2 ADD SWAP1 POP PUSH2 0x1B28 JUMP JUMPDEST POP DUP3 SWAP8 POP DUP8 SWAP6 POP POP POP POP POP POP SWAP3 SWAP2 POP POP JUMP JUMPDEST PUSH1 0x0 PUSH1 0x20 DUP3 ADD SWAP1 POP DUP2 DUP2 SUB PUSH1 0x0 DUP4 ADD MSTORE PUSH2 0x1B8C DUP2 DUP5 PUSH2 0x1AFD JUMP JUMPDEST SWAP1 POP SWAP3 SWAP2 POP POP JUMP JUMPDEST PUSH1 0x0 DUP1 REVERT JUMPDEST PUSH1 0x0 DUP1 REVERT JUMPDEST PUSH1 0x0 DUP1 REVERT JUMPDEST PUSH1 0x0 DUP1 DUP4 PUSH1 0x1F DUP5 ADD SLT PUSH2 0x1BB9 JUMPI PUSH2 0x1BB8 PUSH2 0x1B94 JUMP JUMPDEST JUMPDEST DUP3 CALLDATALOAD SWAP1 POP PUSH8 0xFFFFFFFFFFFFFFFF DUP2 GT ISZERO PUSH2 0x1BD6 JUMPI PUSH2 0x1BD5 PUSH2 0x1B99 JUMP JUMPDEST JUMPDEST PUSH1 0x20 DUP4 ADD SWAP2 POP DUP4 PUSH1 0x1 DUP3 MUL DUP4 ADD GT ISZERO PUSH2 0x1BF2 JUMPI PUSH2 0x1BF1 PUSH2 0x1B9E JUMP JUMPDEST JUMPDEST SWAP3 POP SWAP3 SWAP1 POP JUMP JUMPDEST PUSH1 0x0 DUP1 PUSH1 0x0 DUP1 PUSH1 0x60 DUP6 DUP8 SUB SLT ISZERO PUSH2 0x1C13 JUMPI PUSH2 0x1C12 PUSH2 0x1650 JUMP JUMPDEST JUMPDEST PUSH1 0x0 DUP6 ADD CALLDATALOAD PUSH8 0xFFFFFFFFFFFFFFFF DUP2 GT ISZERO PUSH2 0x1C31 JUMPI PUSH2 0x1C30 PUSH2 0x1655 JUMP JUMPDEST JUMPDEST PUSH2 0x1C3D DUP8 DUP3 DUP9 ADD PUSH2 0x1BA3 JUMP JUMPDEST SWAP5 POP SWAP5 POP POP PUSH1 0x20 PUSH2 0x1C50 DUP8 DUP3 DUP9 ADD PUSH2 0x1671 JUMP JUMPDEST SWAP3 POP POP PUSH1 0x40 PUSH2 0x1C61 DUP8 DUP3 DUP9 ADD PUSH2 0x16CF JUMP JUMPDEST SWAP2 POP POP SWAP3 SWAP6 SWAP2 SWAP5 POP SWAP3 POP JUMP JUMPDEST PUSH32 0x4E487B7100000000000000000000000000000000000000000000000000000000 PUSH1 0x0 MSTORE PUSH1 0x22 PUSH1 0x4 MSTORE PUSH1 0x24 PUSH1 0x0 REVERT JUMPDEST PUSH1 0x0 PUSH1 0x2 DUP3 DIV SWAP1 POP PUSH1 0x1 DUP3 AND DUP1 PUSH2 0x1CB4 JUMPI PUSH1 0x7F DUP3 AND SWAP2 POP JUMPDEST PUSH1 0x20 DUP3 LT DUP2 SUB PUSH2 0x1CC7 JUMPI PUSH2 0x1CC6 PUSH2 0x1C6D JUMP JUMPDEST JUMPDEST POP SWAP2 SWAP1 POP JUMP JUMPDEST PUSH32 0x596F7520617265206E6F74206D616E6167657200000000000000000000000000 PUSH1 0x0 DUP3 ADD MSTORE POP JUMP JUMPDEST PUSH1 0x0 PUSH2 0x1D03 PUSH1 0x13 DUP4 PUSH2 0x175C JUMP JUMPDEST SWAP2 POP PUSH2 0x1D0E DUP3 PUSH2 0x1CCD JUMP JUMPDEST PUSH1 0x20 DUP3 ADD SWAP1 POP SWAP2 SWAP1 POP JUMP JUMPDEST PUSH1 0x0 PUSH1 0x20 DUP3 ADD SWAP1 POP DUP2 DUP2 SUB PUSH1 0x0 DUP4 ADD MSTORE PUSH2 0x1D32 DUP2 PUSH2 0x1CF6 JUMP JUMPDEST SWAP1 POP SWAP2 SWAP1 POP JUMP JUMPDEST PUSH32 0x4E487B7100000000000000000000000000000000000000000000000000000000 PUSH1 0x0 MSTORE PUSH1 0x11 PUSH1 0x4 MSTORE PUSH1 0x24 PUSH1 0x0 REVERT JUMPDEST PUSH1 0x0 PUSH2 0x1D73 DUP3 PUSH2 0x161C JUMP JUMPDEST SWAP2 POP PUSH2 0x1D7E DUP4 PUSH2 0x161C JUMP JUMPDEST SWAP3 POP DUP3 DUP3 MUL PUSH2 0x1D8C DUP2 PUSH2 0x161C JUMP JUMPDEST SWAP2 POP DUP3 DUP3 DIV DUP5 EQ DUP4 ISZERO OR PUSH2 0x1DA3 JUMPI PUSH2 0x1DA2 PUSH2 0x1D39 JUMP JUMPDEST JUMPDEST POP SWAP3 SWAP2 POP POP JUMP JUMPDEST PUSH32 0x4E487B7100000000000000000000000000000000000000000000000000000000 PUSH1 0x0 MSTORE PUSH1 0x12 PUSH1 0x4 MSTORE PUSH1 0x24 PUSH1 0x0 REVERT JUMPDEST PUSH1 0x0 PUSH2 0x1DE4 DUP3 PUSH2 0x161C JUMP JUMPDEST SWAP2 POP PUSH2 0x1DEF DUP4 PUSH2 0x161C JUMP JUMPDEST SWAP3 POP DUP3 PUSH2 0x1DFF JUMPI PUSH2 0x1DFE PUSH2 0x1DAA JUMP JUMPDEST JUMPDEST DUP3 DUP3 DIV SWAP1 POP SWAP3 SWAP2 POP POP JUMP JUMPDEST PUSH32 0x4D616A6F7269747920646F65736E6F7420737570706F72747300000000000000 PUSH1 0x0 DUP3 ADD MSTORE POP JUMP JUMPDEST PUSH1 0x0 PUSH2 0x1E40 PUSH1 0x19 DUP4 PUSH2 0x175C JUMP JUMPDEST SWAP2 POP PUSH2 0x1E4B DUP3 PUSH2 0x1E0A JUMP JUMPDEST PUSH1 0x20 DUP3 ADD SWAP1 POP SWAP2 SWAP1 POP JUMP JUMPDEST PUSH1 0x0 PUSH1 0x20 DUP3 ADD SWAP1 POP DUP2 DUP2 SUB PUSH1 0x0 DUP4 ADD MSTORE PUSH2 0x1E6F DUP2 PUSH2 0x1E33 JUMP JUMPDEST SWAP1 POP SWAP2 SWAP1 POP JUMP JUMPDEST PUSH1 0x0 PUSH2 0x1E81 DUP3 PUSH2 0x161C JUMP JUMPDEST SWAP2 POP PUSH2 0x1E8C DUP4 PUSH2 0x161C JUMP JUMPDEST SWAP3 POP DUP3 DUP3 SUB SWAP1 POP DUP2 DUP2 GT ISZERO PUSH2 0x1EA4 JUMPI PUSH2 0x1EA3 PUSH2 0x1D39 JUMP JUMPDEST JUMPDEST SWAP3 SWAP2 POP POP JUMP JUMPDEST PUSH32 0x4E6F7420656E6F75676820736861726573000000000000000000000000000000 PUSH1 0x0 DUP3 ADD MSTORE POP JUMP JUMPDEST PUSH1 0x0 PUSH2 0x1EE0 PUSH1 0x11 DUP4 PUSH2 0x175C JUMP JUMPDEST SWAP2 POP PUSH2 0x1EEB DUP3 PUSH2 0x1EAA JUMP JUMPDEST PUSH1 0x20 DUP3 ADD SWAP1 POP SWAP2 SWAP1 POP JUMP JUMPDEST PUSH1 0x0 PUSH1 0x20 DUP3 ADD SWAP1 POP DUP2 DUP2 SUB PUSH1 0x0 DUP4 ADD MSTORE PUSH2 0x1F0F DUP2 PUSH2 0x1ED3 JUMP JUMPDEST SWAP1 POP SWAP2 SWAP1 POP JUMP JUMPDEST PUSH32 0x4E6F7420656E6F7567682066756E647300000000000000000000000000000000 PUSH1 0x0 DUP3 ADD MSTORE POP JUMP JUMPDEST PUSH1 0x0 PUSH2 0x1F4C PUSH1 0x10 DUP4 PUSH2 0x175C JUMP JUMPDEST SWAP2 POP PUSH2 0x1F57 DUP3 PUSH2 0x1F16 JUMP JUMPDEST PUSH1 0x20 DUP3 ADD SWAP1 POP SWAP2 SWAP1 POP JUMP JUMPDEST PUSH1 0x0 PUSH1 0x20 DUP3 ADD SWAP1 POP DUP2 DUP2 SUB PUSH1 0x0 DUP4 ADD MSTORE PUSH2 0x1F7B DUP2 PUSH2 0x1F3F JUMP JUMPDEST SWAP1 POP SWAP2 SWAP1 POP JUMP JUMPDEST PUSH32 0x596F7520617265206E6F7420696E766573746F72000000000000000000000000 PUSH1 0x0 DUP3 ADD MSTORE POP JUMP JUMPDEST PUSH1 0x0 PUSH2 0x1FB8 PUSH1 0x14 DUP4 PUSH2 0x175C JUMP JUMPDEST SWAP2 POP PUSH2 0x1FC3 DUP3 PUSH2 0x1F82 JUMP JUMPDEST PUSH1 0x20 DUP3 ADD SWAP1 POP SWAP2 SWAP1 POP JUMP JUMPDEST PUSH1 0x0 PUSH1 0x20 DUP3 ADD SWAP1 POP DUP2 DUP2 SUB PUSH1 0x0 DUP4 ADD MSTORE PUSH2 0x1FE7 DUP2 PUSH2 0x1FAB JUMP JUMPDEST SWAP1 POP SWAP2 SWAP1 POP JUMP JUMPDEST PUSH32 0x496E76616C69642070726F706F73616C20696400000000000000000000000000 PUSH1 0x0 DUP3 ADD MSTORE POP JUMP JUMPDEST PUSH1 0x0 PUSH2 0x2024 PUSH1 0x13 DUP4 PUSH2 0x175C JUMP JUMPDEST SWAP2 POP PUSH2 0x202F DUP3 PUSH2 0x1FEE JUMP JUMPDEST PUSH1 0x20 DUP3 ADD SWAP1 POP SWAP2 SWAP1 POP JUMP JUMPDEST PUSH1 0x0 PUSH1 0x20 DUP3 ADD SWAP1 POP DUP2 DUP2 SUB PUSH1 0x0 DUP4 ADD MSTORE PUSH2 0x2053 DUP2 PUSH2 0x2017 JUMP JUMPDEST SWAP1 POP SWAP2 SWAP1 POP JUMP JUMPDEST PUSH32 0x54496D6520456E64656400000000000000000000000000000000000000000000 PUSH1 0x0 DUP3 ADD MSTORE POP JUMP JUMPDEST PUSH1 0x0 PUSH2 0x2090 PUSH1 0xA DUP4 PUSH2 0x175C JUMP JUMPDEST SWAP2 POP PUSH2 0x209B DUP3 PUSH2 0x205A JUMP JUMPDEST PUSH1 0x20 DUP3 ADD SWAP1 POP SWAP2 SWAP1 POP JUMP JUMPDEST PUSH1 0x0 PUSH1 0x20 DUP3 ADD SWAP1 POP DUP2 DUP2 SUB PUSH1 0x0 DUP4 ADD MSTORE PUSH2 0x20BF DUP2 PUSH2 0x2083 JUMP JUMPDEST SWAP1 POP SWAP2 SWAP1 POP JUMP JUMPDEST PUSH32 0x50726F706F73616C20416C726561647920457865637574656400000000000000 PUSH1 0x0 DUP3 ADD MSTORE POP JUMP JUMPDEST PUSH1 0x0 PUSH2 0x20FC PUSH1 0x19 DUP4 PUSH2 0x175C JUMP JUMPDEST SWAP2 POP PUSH2 0x2107 DUP3 PUSH2 0x20C6 JUMP JUMPDEST PUSH1 0x20 DUP3 ADD SWAP1 POP SWAP2 SWAP1 POP JUMP JUMPDEST PUSH1 0x0 PUSH1 0x20 DUP3 ADD SWAP1 POP DUP2 DUP2 SUB PUSH1 0x0 DUP4 ADD MSTORE PUSH2 0x212B DUP2 PUSH2 0x20EF JUMP JUMPDEST SWAP1 POP SWAP2 SWAP1 POP JUMP JUMPDEST PUSH32 0x596F7520616C726561647920766F746564000000000000000000000000000000 PUSH1 0x0 DUP3 ADD MSTORE POP JUMP JUMPDEST PUSH1 0x0 PUSH2 0x2168 PUSH1 0x11 DUP4 PUSH2 0x175C JUMP JUMPDEST SWAP2 POP PUSH2 0x2173 DUP3 PUSH2 0x2132 JUMP JUMPDEST PUSH1 0x20 DUP3 ADD SWAP1 POP SWAP2 SWAP1 POP JUMP JUMPDEST PUSH1 0x0 PUSH1 0x20 DUP3 ADD SWAP1 POP DUP2 DUP2 SUB PUSH1 0x0 DUP4 ADD MSTORE PUSH2 0x2197 DUP2 PUSH2 0x215B JUMP JUMPDEST SWAP1 POP SWAP2 SWAP1 POP JUMP JUMPDEST PUSH1 0x0 PUSH2 0x21A9 DUP3 PUSH2 0x161C JUMP JUMPDEST SWAP2 POP PUSH2 0x21B4 DUP4 PUSH2 0x161C JUMP JUMPDEST SWAP3 POP DUP3 DUP3 ADD SWAP1 POP DUP1 DUP3 GT ISZERO PUSH2 0x21CC JUMPI PUSH2 0x21CB PUSH2 0x1D39 JUMP JUMPDEST JUMPDEST SWAP3 SWAP2 POP POP JUMP JUMPDEST PUSH32 0x4E487B7100000000000000000000000000000000000000000000000000000000 PUSH1 0x0 MSTORE PUSH1 0x41 PUSH1 0x4 MSTORE PUSH1 0x24 PUSH1 0x0 REVERT JUMPDEST PUSH32 0x4E487B7100000000000000000000000000000000000000000000000000000000 PUSH1 0x0 MSTORE PUSH1 0x32 PUSH1 0x4 MSTORE PUSH1 0x24 PUSH1 0x0 REVERT JUMPDEST PUSH1 0x0 PUSH2 0x223B DUP3 PUSH2 0x161C JUMP JUMPDEST SWAP2 POP PUSH32 0xFFFFFFFFFFFFFFFFFFFFFFFFFFFFFFFFFFFFFFFFFFFFFFFFFFFFFFFFFFFFFFFF DUP3 SUB PUSH2 0x226D JUMPI PUSH2 0x226C PUSH2 0x1D39 JUMP JUMPDEST JUMPDEST PUSH1 0x1 DUP3 ADD SWAP1 POP SWAP2 SWAP1 POP JUMP JUMPDEST PUSH1 0x0 DUP2 SWAP1 POP DUP2 PUSH1 0x0 MSTORE PUSH1 0x20 PUSH1 0x0 KECCAK256 SWAP1 POP SWAP2 SWAP1 POP JUMP JUMPDEST PUSH1 0x0 PUSH1 0x20 PUSH1 0x1F DUP4 ADD DIV SWAP1 POP SWAP2 SWAP1 POP JUMP JUMPDEST PUSH1 0x0 DUP3 DUP3 SHL SWAP1 POP SWAP3 SWAP2 POP POP JUMP JUMPDEST PUSH1 0x0 PUSH1 0x8 DUP4 MUL PUSH2 0x22DA PUSH32 0xFFFFFFFFFFFFFFFFFFFFFFFFFFFFFFFFFFFFFFFFFFFFFFFFFFFFFFFFFFFFFFFF DUP3 PUSH2 0x229D JUMP JUMPDEST PUSH2 0x22E4 DUP7 DUP4 PUSH2 0x229D JUMP JUMPDEST SWAP6 POP DUP1 NOT DUP5 AND SWAP4 POP DUP1 DUP7 AND DUP5 OR SWAP3 POP POP POP SWAP4 SWAP3 POP POP POP JUMP JUMPDEST PUSH1 0x0 DUP2 SWAP1 POP SWAP2 SWAP1 POP JUMP JUMPDEST PUSH1 0x0 PUSH2 0x2321 PUSH2 0x231C PUSH2 0x2317 DUP5 PUSH2 0x161C JUMP JUMPDEST PUSH2 0x22FC JUMP JUMPDEST PUSH2 0x161C JUMP JUMPDEST SWAP1 POP SWAP2 SWAP1 POP JUMP JUMPDEST PUSH1 0x0 DUP2 SWAP1 POP SWAP2 SWAP1 POP JUMP JUMPDEST PUSH2 0x233B DUP4 PUSH2 0x2306 JUMP JUMPDEST PUSH2 0x234F PUSH2 0x2347 DUP3 PUSH2 0x2328 JUMP JUMPDEST DUP5 DUP5 SLOAD PUSH2 0x22AA JUMP JUMPDEST DUP3 SSTORE POP POP POP POP JUMP JUMPDEST PUSH1 0x0 SWAP1 JUMP JUMPDEST PUSH2 0x2364 PUSH2 0x2357 JUMP JUMPDEST PUSH2 0x236F DUP2 DUP5 DUP5 PUSH2 0x2332 JUMP JUMPDEST POP POP POP JUMP JUMPDEST JUMPDEST DUP2 DUP2 LT ISZERO PUSH2 0x2393 JUMPI PUSH2 0x2388 PUSH1 0x0 DUP3 PUSH2 0x235C JUMP JUMPDEST PUSH1 0x1 DUP2 ADD SWAP1 POP PUSH2 0x2375 JUMP JUMPDEST POP POP JUMP JUMPDEST PUSH1 0x1F DUP3 GT ISZERO PUSH2 0x23D8 JUMPI PUSH2 0x23A9 DUP2 PUSH2 0x2278 JUMP JUMPDEST PUSH2 0x23B2 DUP5 PUSH2 0x228D JUMP JUMPDEST DUP2 ADD PUSH1 0x20 DUP6 LT ISZERO PUSH2 0x23C1 JUMPI DUP2 SWAP1 POP JUMPDEST PUSH2 0x23D5 PUSH2 0x23CD DUP6 PUSH2 0x228D JUMP JUMPDEST DUP4 ADD DUP3 PUSH2 0x2374 JUMP JUMPDEST POP POP JUMPDEST POP POP POP JUMP JUMPDEST PUSH1 0x0 DUP3 DUP3 SHR SWAP1 POP SWAP3 SWAP2 POP POP JUMP JUMPDEST PUSH1 0x0 PUSH2 0x23FB PUSH1 0x0 NOT DUP5 PUSH1 0x8 MUL PUSH2 0x23DD JUMP JUMPDEST NOT DUP1 DUP4 AND SWAP2 POP POP SWAP3 SWAP2 POP POP JUMP JUMPDEST PUSH1 0x0 PUSH2 0x2414 DUP4 DUP4 PUSH2 0x23EA JUMP JUMPDEST SWAP2 POP DUP3 PUSH1 0x2 MUL DUP3 OR SWAP1 POP SWAP3 SWAP2 POP POP JUMP JUMPDEST PUSH2 0x242D DUP3 PUSH2 0x1751 JUMP JUMPDEST PUSH8 0xFFFFFFFFFFFFFFFF DUP2 GT ISZERO PUSH2 0x2446 JUMPI PUSH2 0x2445 PUSH2 0x21D2 JUMP JUMPDEST JUMPDEST PUSH2 0x2450 DUP3 SLOAD PUSH2 0x1C9C JUMP JUMPDEST PUSH2 0x245B DUP3 DUP3 DUP6 PUSH2 0x2397 JUMP JUMPDEST PUSH1 0x0 PUSH1 0x20 SWAP1 POP PUSH1 0x1F DUP4 GT PUSH1 0x1 DUP2 EQ PUSH2 0x248E JUMPI PUSH1 0x0 DUP5 ISZERO PUSH2 0x247C JUMPI DUP3 DUP8 ADD MLOAD SWAP1 POP JUMPDEST PUSH2 0x2486 DUP6 DUP3 PUSH2 0x2408 JUMP JUMPDEST DUP7 SSTORE POP PUSH2 0x24EE JUMP JUMPDEST PUSH1 0x1F NOT DUP5 AND PUSH2 0x249C DUP7 PUSH2 0x2278 JUMP JUMPDEST PUSH1 0x0 JUMPDEST DUP3 DUP2 LT ISZERO PUSH2 0x24C4 JUMPI DUP5 DUP10 ADD MLOAD DUP3 SSTORE PUSH1 0x1 DUP3 ADD SWAP2 POP PUSH1 0x20 DUP6 ADD SWAP5 POP PUSH1 0x20 DUP2 ADD SWAP1 POP PUSH2 0x249F JUMP JUMPDEST DUP7 DUP4 LT ISZERO PUSH2 0x24E1 JUMPI DUP5 DUP10 ADD MLOAD PUSH2 0x24DD PUSH1 0x1F DUP10 AND DUP3 PUSH2 0x23EA JUMP JUMPDEST DUP4 SSTORE POP JUMPDEST PUSH1 0x1 PUSH1 0x2 DUP9 MUL ADD DUP9 SSTORE POP POP POP JUMPDEST POP POP POP POP POP POP JUMP JUMPDEST PUSH32 0x696E76616C696420616D6F756E74000000000000000000000000000000000000 PUSH1 0x0 DUP3 ADD MSTORE POP JUMP JUMPDEST PUSH1 0x0 PUSH2 0x252C PUSH1 0xE DUP4 PUSH2 0x175C JUMP JUMPDEST SWAP2 POP PUSH2 0x2537 DUP3 PUSH2 0x24F6 JUMP JUMPDEST PUSH1 0x20 DUP3 ADD SWAP1 POP SWAP2 SWAP1 POP JUMP JUMPDEST PUSH1 0x0 PUSH1 0x20 DUP3 ADD SWAP1 POP DUP2 DUP2 SUB PUSH1 0x0 DUP4 ADD MSTORE PUSH2 0x255B DUP2 PUSH2 0x251F JUMP JUMPDEST SWAP1 POP SWAP2 SWAP1 POP JUMP JUMPDEST PUSH32 0x54696D6520706173736564000000000000000000000000000000000000000000 PUSH1 0x0 DUP3 ADD MSTORE POP JUMP JUMPDEST PUSH1 0x0 PUSH2 0x2598 PUSH1 0xB DUP4 PUSH2 0x175C JUMP JUMPDEST SWAP2 POP PUSH2 0x25A3 DUP3 PUSH2 0x2562 JUMP JUMPDEST PUSH1 0x20 DUP3 ADD SWAP1 POP SWAP2 SWAP1 POP JUMP JUMPDEST PUSH1 0x0 PUSH1 0x20 DUP3 ADD SWAP1 POP DUP2 DUP2 SUB PUSH1 0x0 DUP4 ADD MSTORE PUSH2 0x25C7 DUP2 PUSH2 0x258B JUMP JUMPDEST SWAP1 POP SWAP2 SWAP1 POP JUMP INVALID LOG2 PUSH5 0x6970667358 0x22 SLT KECCAK256 PUSH14 0x13FF8DFC9B0AE3CC7BC25F48018 PUSH24 0x2CFD32E2D7422726201B5FFCF05F65F764736F6C63430008 SLT STOP CALLER "
				},
				"gasEstimates": {
					"creation": {
						"codeDepositCost": "1946400",
						"executionCost": "infinite",
						"totalCost": "infinite"
					},
					"external": {
						"Contribution()": "infinite",
						"Create_proposal(string,uint256,address)": "infinite",
						"Execute_Proposal(uint256)": "infinite",
						"Fetch_All_Proposals()": "infinite",
						"Redeem_Shares(uint256)": "infinite",
						"Transfer_Share(uint256,address)": "infinite",
						"Vote_proposal(uint256)": "infinite",
						"_transfer(uint256,address)": "infinite",
						"all_Investors()": "infinite",
						"contribution_Time_End()": "2518",
						"funds()": "2451",
						"investors(uint256)": "5046",
						"manager()": "2559",
						"nextproposalid()": "2517",
						"proposal_List(uint256)": "infinite",
						"quoram()": "2518",
						"total_shares()": "2540",
						"voting_time()": "2453"
					}
				},
				"methodIdentifiers": {
					"Contribution()": "fb65e4b1",
					"Create_proposal(string,uint256,address)": "f17ef3c1",
					"Execute_Proposal(uint256)": "44e9e4d6",
					"Fetch_All_Proposals()": "d3319d82",
					"Redeem_Shares(uint256)": "514bbd0b",
					"Transfer_Share(uint256,address)": "b3f793e4",
					"Vote_proposal(uint256)": "8be14e1e",
					"_transfer(uint256,address)": "1942c3ce",
					"all_Investors()": "877b4690",
					"contribution_Time_End()": "bef53a25",
					"funds()": "c89f2ce4",
					"investors(uint256)": "3feb5f2b",
					"manager()": "481c6a75",
					"nextproposalid()": "f70d7a5b",
					"proposal_List(uint256)": "3642a100",
					"quoram()": "6e6f951a",
					"total_shares()": "7678c038",
					"voting_time()": "17d892da"
				}
			},
			"storageLayout": {
				"storage": [
					{
						"astId": 20,
						"contract": "Dao.sol:Dao_Project",
						"label": "investor",
						"offset": 0,
						"slot": "0",
						"type": "t_mapping(t_address,t_bool)"
					},
					{
						"astId": 24,
						"contract": "Dao.sol:Dao_Project",
						"label": "numshares",
						"offset": 0,
						"slot": "1",
						"type": "t_mapping(t_address,t_uint256)"
					},
					{
						"astId": 30,
						"contract": "Dao.sol:Dao_Project",
						"label": "voted",
						"offset": 0,
						"slot": "2",
						"type": "t_mapping(t_address,t_mapping(t_uint256,t_bool))"
					},
					{
						"astId": 36,
						"contract": "Dao.sol:Dao_Project",
						"label": "withdraw_status",
						"offset": 0,
						"slot": "3",
						"type": "t_mapping(t_address,t_mapping(t_address,t_bool))"
					},
					{
						"astId": 39,
						"contract": "Dao.sol:Dao_Project",
						"label": "investors",
						"offset": 0,
						"slot": "4",
						"type": "t_array(t_address)dyn_storage"
					},
					{
						"astId": 44,
						"contract": "Dao.sol:Dao_Project",
						"label": "proposal_List",
						"offset": 0,
						"slot": "5",
						"type": "t_mapping(t_uint256,t_struct(proposal)16_storage)"
					},
					{
						"astId": 46,
						"contract": "Dao.sol:Dao_Project",
						"label": "funds",
						"offset": 0,
						"slot": "6",
						"type": "t_uint256"
					},
					{
						"astId": 48,
						"contract": "Dao.sol:Dao_Project",
						"label": "total_shares",
						"offset": 0,
						"slot": "7",
						"type": "t_uint256"
					},
					{
						"astId": 50,
						"contract": "Dao.sol:Dao_Project",
						"label": "contribution_Time_End",
						"offset": 0,
						"slot": "8",
						"type": "t_uint256"
					},
					{
						"astId": 52,
						"contract": "Dao.sol:Dao_Project",
						"label": "voting_time",
						"offset": 0,
						"slot": "9",
						"type": "t_uint256"
					},
					{
						"astId": 54,
						"contract": "Dao.sol:Dao_Project",
						"label": "nextproposalid",
						"offset": 0,
						"slot": "10",
						"type": "t_uint256"
					},
					{
						"astId": 56,
						"contract": "Dao.sol:Dao_Project",
						"label": "manager",
						"offset": 0,
						"slot": "11",
						"type": "t_address"
					},
					{
						"astId": 58,
						"contract": "Dao.sol:Dao_Project",
						"label": "quoram",
						"offset": 0,
						"slot": "12",
						"type": "t_uint256"
					}
				],
				"types": {
					"t_address": {
						"encoding": "inplace",
						"label": "address",
						"numberOfBytes": "20"
					},
					"t_address_payable": {
						"encoding": "inplace",
						"label": "address payable",
						"numberOfBytes": "20"
					},
					"t_array(t_address)dyn_storage": {
						"base": "t_address",
						"encoding": "dynamic_array",
						"label": "address[]",
						"numberOfBytes": "32"
					},
					"t_bool": {
						"encoding": "inplace",
						"label": "bool",
						"numberOfBytes": "1"
					},
					"t_mapping(t_address,t_bool)": {
						"encoding": "mapping",
						"key": "t_address",
						"label": "mapping(address => bool)",
						"numberOfBytes": "32",
						"value": "t_bool"
					},
					"t_mapping(t_address,t_mapping(t_address,t_bool))": {
						"encoding": "mapping",
						"key": "t_address",
						"label": "mapping(address => mapping(address => bool))",
						"numberOfBytes": "32",
						"value": "t_mapping(t_address,t_bool)"
					},
					"t_mapping(t_address,t_mapping(t_uint256,t_bool))": {
						"encoding": "mapping",
						"key": "t_address",
						"label": "mapping(address => mapping(uint256 => bool))",
						"numberOfBytes": "32",
						"value": "t_mapping(t_uint256,t_bool)"
					},
					"t_mapping(t_address,t_uint256)": {
						"encoding": "mapping",
						"key": "t_address",
						"label": "mapping(address => uint256)",
						"numberOfBytes": "32",
						"value": "t_uint256"
					},
					"t_mapping(t_uint256,t_bool)": {
						"encoding": "mapping",
						"key": "t_uint256",
						"label": "mapping(uint256 => bool)",
						"numberOfBytes": "32",
						"value": "t_bool"
					},
					"t_mapping(t_uint256,t_struct(proposal)16_storage)": {
						"encoding": "mapping",
						"key": "t_uint256",
						"label": "mapping(uint256 => struct Dao_Project.proposal)",
						"numberOfBytes": "32",
						"value": "t_struct(proposal)16_storage"
					},
					"t_string_storage": {
						"encoding": "bytes",
						"label": "string",
						"numberOfBytes": "32"
					},
					"t_struct(proposal)16_storage": {
						"encoding": "inplace",
						"label": "struct Dao_Project.proposal",
						"members": [
							{
								"astId": 3,
								"contract": "Dao.sol:Dao_Project",
								"label": "id",
								"offset": 0,
								"slot": "0",
								"type": "t_uint256"
							},
							{
								"astId": 5,
								"contract": "Dao.sol:Dao_Project",
								"label": "description",
								"offset": 0,
								"slot": "1",
								"type": "t_string_storage"
							},
							{
								"astId": 7,
								"contract": "Dao.sol:Dao_Project",
								"label": "amount",
								"offset": 0,
								"slot": "2",
								"type": "t_uint256"
							},
							{
								"astId": 9,
								"contract": "Dao.sol:Dao_Project",
								"label": "receiver",
								"offset": 0,
								"slot": "3",
								"type": "t_address_payable"
							},
							{
								"astId": 11,
								"contract": "Dao.sol:Dao_Project",
								"label": "votes",
								"offset": 0,
								"slot": "4",
								"type": "t_uint256"
							},
							{
								"astId": 13,
								"contract": "Dao.sol:Dao_Project",
								"label": "end",
								"offset": 0,
								"slot": "5",
								"type": "t_uint256"
							},
							{
								"astId": 15,
								"contract": "Dao.sol:Dao_Project",
								"label": "executed",
								"offset": 0,
								"slot": "6",
								"type": "t_bool"
							}
						],
						"numberOfBytes": "224"
					},
					"t_uint256": {
						"encoding": "inplace",
						"label": "uint256",
						"numberOfBytes": "32"
					}
				}
			},
			"userdoc": {
				"kind": "user",
				"methods": {},
				"version": 1
			}
		}
	}
}