{
	"six.sol": {
		"wallet": {
			"abi": [
				{
					"inputs": [],
					"name": "Balance",
					"outputs": [
						{
							"internalType": "uint256",
							"name": "",
							"type": "uint256"
						}
					],
					"stateMutability": "view",
					"type": "function"
				},
				{
					"inputs": [],
					"name": "DeposotMoney",
					"outputs": [],
					"stateMutability": "payable",
					"type": "function"
				},
				{
					"inputs": [
						{
							"internalType": "address",
							"name": "_daddress",
							"type": "address"
						},
						{
							"internalType": "uint256",
							"name": "_dnum",
							"type": "uint256"
						}
					],
					"name": "GetDepositData",
					"outputs": [
						{
							"components": [
								{
									"internalType": "uint256",
									"name": "amount",
									"type": "uint256"
								},
								{
									"internalType": "uint256",
									"name": "timestamp",
									"type": "uint256"
								}
							],
							"internalType": "struct wallet.transection",
							"name": "",
							"type": "tuple"
						}
					],
					"stateMutability": "view",
					"type": "function"
				},
				{
					"inputs": [
						{
							"internalType": "address",
							"name": "_daddress",
							"type": "address"
						},
						{
							"internalType": "uint256",
							"name": "_amount",
							"type": "uint256"
						}
					],
					"name": "GetWithdrawData",
					"outputs": [
						{
							"components": [
								{
									"internalType": "uint256",
									"name": "amount",
									"type": "uint256"
								},
								{
									"internalType": "uint256",
									"name": "timestamp",
									"type": "uint256"
								}
							],
							"internalType": "struct wallet.transection",
							"name": "",
							"type": "tuple"
						}
					],
					"stateMutability": "view",
					"type": "function"
				},
				{
					"inputs": [
						{
							"internalType": "address",
							"name": "",
							"type": "address"
						}
					],
					"name": "data",
					"outputs": [
						{
							"internalType": "uint256",
							"name": "totalbalance",
							"type": "uint256"
						},
						{
							"internalType": "uint256",
							"name": "numdeposits",
							"type": "uint256"
						},
						{
							"internalType": "uint256",
							"name": "withdrawl",
							"type": "uint256"
						}
					],
					"stateMutability": "view",
					"type": "function"
				},
				{
					"inputs": [
						{
							"internalType": "address payable",
							"name": "_receiver",
							"type": "address"
						},
						{
							"internalType": "uint256",
							"name": "_amount",
							"type": "uint256"
						}
					],
					"name": "withdraw",
					"outputs": [],
					"stateMutability": "nonpayable",
					"type": "function"
				}
			],
			"devdoc": {
				"kind": "dev",
				"methods": {},
				"version": 1
			},
			"evm": {
				"assembly": "    /* \"six.sol\":717:2379  contract wallet{... */\n  mstore(0x40, 0x80)\n  callvalue\n  dup1\n  iszero\n  tag_1\n  jumpi\n  0x00\n  dup1\n  revert\ntag_1:\n  pop\n  dataSize(sub_0)\n  dup1\n  dataOffset(sub_0)\n  0x00\n  codecopy\n  0x00\n  return\nstop\n\nsub_0: assembly {\n        /* \"six.sol\":717:2379  contract wallet{... */\n      mstore(0x40, 0x80)\n      jumpi(tag_1, lt(calldatasize, 0x04))\n      shr(0xe0, calldataload(0x00))\n      dup1\n      0x0ef67887\n      eq\n      tag_2\n      jumpi\n      dup1\n      0x1ad18ffd\n      eq\n      tag_3\n      jumpi\n      dup1\n      0xb082e4b5\n      eq\n      tag_4\n      jumpi\n      dup1\n      0xb90d3d0c\n      eq\n      tag_5\n      jumpi\n      dup1\n      0xbddcddeb\n      eq\n      tag_6\n      jumpi\n      dup1\n      0xf3fef3a3\n      eq\n      tag_7\n      jumpi\n    tag_1:\n      0x00\n      dup1\n      revert\n        /* \"six.sol\":1961:2052  function Balance() public view returns(uint){... */\n    tag_2:\n      callvalue\n      dup1\n      iszero\n      tag_8\n      jumpi\n      0x00\n      dup1\n      revert\n    tag_8:\n      pop\n      tag_9\n      tag_10\n      jump\t// in\n    tag_9:\n      mload(0x40)\n      tag_11\n      swap2\n      swap1\n      tag_12\n      jump\t// in\n    tag_11:\n      mload(0x40)\n      dup1\n      swap2\n      sub\n      swap1\n      return\n        /* \"six.sol\":1154:1598  function DeposotMoney() public payable {... */\n    tag_3:\n      tag_13\n      tag_14\n      jump\t// in\n    tag_13:\n      stop\n        /* \"six.sol\":2059:2211  function GetDepositData(address _daddress, uint _dnum) public view returns(transection memory) {... */\n    tag_4:\n      callvalue\n      dup1\n      iszero\n      tag_15\n      jumpi\n      0x00\n      dup1\n      revert\n    tag_15:\n      pop\n      tag_16\n      0x04\n      dup1\n      calldatasize\n      sub\n      dup2\n      add\n      swap1\n      tag_17\n      swap2\n      swap1\n      tag_18\n      jump\t// in\n    tag_17:\n      tag_19\n      jump\t// in\n    tag_16:\n      mload(0x40)\n      tag_20\n      swap2\n      swap1\n      tag_21\n      jump\t// in\n    tag_20:\n      mload(0x40)\n      dup1\n      swap2\n      sub\n      swap1\n      return\n        /* \"six.sol\":1094:1132  mapping (address=>balance) public data */\n    tag_5:\n      callvalue\n      dup1\n      iszero\n      tag_22\n      jumpi\n      0x00\n      dup1\n      revert\n    tag_22:\n      pop\n      tag_23\n      0x04\n      dup1\n      calldatasize\n      sub\n      dup2\n      add\n      swap1\n      tag_24\n      swap2\n      swap1\n      tag_25\n      jump\t// in\n    tag_24:\n      tag_26\n      jump\t// in\n    tag_23:\n      mload(0x40)\n      tag_27\n      swap4\n      swap3\n      swap2\n      swap1\n      tag_28\n      jump\t// in\n    tag_27:\n      mload(0x40)\n      dup1\n      swap2\n      sub\n      swap1\n      return\n        /* \"six.sol\":2217:2376  function GetWithdrawData(address _daddress, uint _amount) public view returns(transection memory) {... */\n    tag_6:\n      callvalue\n      dup1\n      iszero\n      tag_29\n      jumpi\n      0x00\n      dup1\n      revert\n    tag_29:\n      pop\n      tag_30\n      0x04\n      dup1\n      calldatasize\n      sub\n      dup2\n      add\n      swap1\n      tag_31\n      swap2\n      swap1\n      tag_18\n      jump\t// in\n    tag_31:\n      tag_32\n      jump\t// in\n    tag_30:\n      mload(0x40)\n      tag_33\n      swap2\n      swap1\n      tag_21\n      jump\t// in\n    tag_33:\n      mload(0x40)\n      dup1\n      swap2\n      sub\n      swap1\n      return\n        /* \"six.sol\":1604:1953  function withdraw(address payable  _receiver, uint _amount) public {... */\n    tag_7:\n      callvalue\n      dup1\n      iszero\n      tag_34\n      jumpi\n      0x00\n      dup1\n      revert\n    tag_34:\n      pop\n      tag_35\n      0x04\n      dup1\n      calldatasize\n      sub\n      dup2\n      add\n      swap1\n      tag_36\n      swap2\n      swap1\n      tag_37\n      jump\t// in\n    tag_36:\n      tag_38\n      jump\t// in\n    tag_35:\n      stop\n        /* \"six.sol\":1961:2052  function Balance() public view returns(uint){... */\n    tag_10:\n        /* \"six.sol\":2000:2004  uint */\n      0x00\n        /* \"six.sol\":2023:2044  address(this).balance */\n      selfbalance\n        /* \"six.sol\":2016:2044  return address(this).balance */\n      swap1\n      pop\n        /* \"six.sol\":1961:2052  function Balance() public view returns(uint){... */\n      swap1\n      jump\t// out\n        /* \"six.sol\":1154:1598  function DeposotMoney() public payable {... */\n    tag_14:\n        /* \"six.sol\":1236:1245  msg.value */\n      callvalue\n        /* \"six.sol\":1204:1208  data */\n      0x00\n        /* \"six.sol\":1204:1220  data[msg.sender] */\n      dup1\n        /* \"six.sol\":1209:1219  msg.sender */\n      caller\n        /* \"six.sol\":1204:1220  data[msg.sender] */\n      0xffffffffffffffffffffffffffffffffffffffff\n      and\n      0xffffffffffffffffffffffffffffffffffffffff\n      and\n      dup2\n      mstore\n      0x20\n      add\n      swap1\n      dup2\n      mstore\n      0x20\n      add\n      0x00\n      keccak256\n        /* \"six.sol\":1204:1233  data[msg.sender].totalbalance */\n      0x00\n      add\n      0x00\n        /* \"six.sol\":1204:1245  data[msg.sender].totalbalance +=msg.value */\n      dup3\n      dup3\n      sload\n      tag_41\n      swap2\n      swap1\n      tag_42\n      jump\t// in\n    tag_41:\n      swap3\n      pop\n      pop\n      dup2\n      swap1\n      sstore\n      pop\n        /* \"six.sol\":1331:1353  transection memory val */\n      tag_43\n      tag_44\n      jump\t// in\n    tag_43:\n        /* \"six.sol\":1375:1384  msg.value */\n      callvalue\n        /* \"six.sol\":1364:1367  val */\n      dup2\n        /* \"six.sol\":1364:1374  val.amount */\n      0x00\n      add\n        /* \"six.sol\":1364:1384  val.amount=msg.value */\n      dup2\n      dup2\n      mstore\n      pop\n      pop\n        /* \"six.sol\":1409:1424  block.timestamp */\n      timestamp\n        /* \"six.sol\":1395:1398  val */\n      dup2\n        /* \"six.sol\":1395:1408  val.timestamp */\n      0x20\n      add\n        /* \"six.sol\":1395:1424  val.timestamp=block.timestamp */\n      dup2\n      dup2\n      mstore\n      pop\n      pop\n        /* \"six.sol\":1546:1549  val */\n      dup1\n        /* \"six.sol\":1490:1494  data */\n      0x00\n        /* \"six.sol\":1490:1506  data[msg.sender] */\n      dup1\n        /* \"six.sol\":1495:1505  msg.sender */\n      caller\n        /* \"six.sol\":1490:1506  data[msg.sender] */\n      0xffffffffffffffffffffffffffffffffffffffff\n      and\n      0xffffffffffffffffffffffffffffffffffffffff\n      and\n      dup2\n      mstore\n      0x20\n      add\n      swap1\n      dup2\n      mstore\n      0x20\n      add\n      0x00\n      keccak256\n        /* \"six.sol\":1490:1515  data[msg.sender].deposits */\n      0x02\n      add\n        /* \"six.sol\":1490:1545  data[msg.sender].deposits[data[msg.sender].numdeposits] */\n      0x00\n        /* \"six.sol\":1516:1520  data */\n      dup1\n        /* \"six.sol\":1516:1532  data[msg.sender] */\n      0x00\n        /* \"six.sol\":1521:1531  msg.sender */\n      caller\n        /* \"six.sol\":1516:1532  data[msg.sender] */\n      0xffffffffffffffffffffffffffffffffffffffff\n      and\n      0xffffffffffffffffffffffffffffffffffffffff\n      and\n      dup2\n      mstore\n      0x20\n      add\n      swap1\n      dup2\n      mstore\n      0x20\n      add\n      0x00\n      keccak256\n        /* \"six.sol\":1516:1544  data[msg.sender].numdeposits */\n      0x01\n      add\n      sload\n        /* \"six.sol\":1490:1545  data[msg.sender].deposits[data[msg.sender].numdeposits] */\n      dup2\n      mstore\n      0x20\n      add\n      swap1\n      dup2\n      mstore\n      0x20\n      add\n      0x00\n      keccak256\n        /* \"six.sol\":1490:1549  data[msg.sender].deposits[data[msg.sender].numdeposits]=val */\n      0x00\n      dup3\n      add\n      mload\n      dup2\n      0x00\n      add\n      sstore\n      0x20\n      dup3\n      add\n      mload\n      dup2\n      0x01\n      add\n      sstore\n      swap1\n      pop\n      pop\n        /* \"six.sol\":1560:1564  data */\n      0x00\n        /* \"six.sol\":1560:1576  data[msg.sender] */\n      dup1\n        /* \"six.sol\":1565:1575  msg.sender */\n      caller\n        /* \"six.sol\":1560:1576  data[msg.sender] */\n      0xffffffffffffffffffffffffffffffffffffffff\n      and\n      0xffffffffffffffffffffffffffffffffffffffff\n      and\n      dup2\n      mstore\n      0x20\n      add\n      swap1\n      dup2\n      mstore\n      0x20\n      add\n      0x00\n      keccak256\n        /* \"six.sol\":1560:1588  data[msg.sender].numdeposits */\n      0x01\n      add\n      0x00\n        /* \"six.sol\":1560:1590  data[msg.sender].numdeposits++ */\n      dup2\n      sload\n      dup1\n      swap3\n      swap2\n      swap1\n      tag_45\n      swap1\n      tag_46\n      jump\t// in\n    tag_45:\n      swap2\n      swap1\n      pop\n      sstore\n      pop\n        /* \"six.sol\":1193:1598  {... */\n      pop\n        /* \"six.sol\":1154:1598  function DeposotMoney() public payable {... */\n      jump\t// out\n        /* \"six.sol\":2059:2211  function GetDepositData(address _daddress, uint _dnum) public view returns(transection memory) {... */\n    tag_19:\n        /* \"six.sol\":2134:2152  transection memory */\n      tag_47\n      tag_44\n      jump\t// in\n    tag_47:\n        /* \"six.sol\":2172:2176  data */\n      0x00\n        /* \"six.sol\":2172:2187  data[_daddress] */\n      dup1\n        /* \"six.sol\":2177:2186  _daddress */\n      dup5\n        /* \"six.sol\":2172:2187  data[_daddress] */\n      0xffffffffffffffffffffffffffffffffffffffff\n      and\n      0xffffffffffffffffffffffffffffffffffffffff\n      and\n      dup2\n      mstore\n      0x20\n      add\n      swap1\n      dup2\n      mstore\n      0x20\n      add\n      0x00\n      keccak256\n        /* \"six.sol\":2172:2196  data[_daddress].deposits */\n      0x02\n      add\n        /* \"six.sol\":2172:2203  data[_daddress].deposits[_dnum] */\n      0x00\n        /* \"six.sol\":2197:2202  _dnum */\n      dup4\n        /* \"six.sol\":2172:2203  data[_daddress].deposits[_dnum] */\n      dup2\n      mstore\n      0x20\n      add\n      swap1\n      dup2\n      mstore\n      0x20\n      add\n      0x00\n      keccak256\n        /* \"six.sol\":2164:2203  return  data[_daddress].deposits[_dnum] */\n      mload(0x40)\n      dup1\n      0x40\n      add\n      0x40\n      mstore\n      swap1\n      dup2\n      0x00\n      dup3\n      add\n      sload\n      dup2\n      mstore\n      0x20\n      add\n      0x01\n      dup3\n      add\n      sload\n      dup2\n      mstore\n      pop\n      pop\n      swap1\n      pop\n        /* \"six.sol\":2059:2211  function GetDepositData(address _daddress, uint _dnum) public view returns(transection memory) {... */\n      swap3\n      swap2\n      pop\n      pop\n      jump\t// out\n        /* \"six.sol\":1094:1132  mapping (address=>balance) public data */\n    tag_26:\n      mstore(0x20, 0x00)\n      dup1\n      0x00\n      mstore\n      keccak256(0x00, 0x40)\n      0x00\n      swap2\n      pop\n      swap1\n      pop\n      dup1\n      0x00\n      add\n      sload\n      swap1\n      dup1\n      0x01\n      add\n      sload\n      swap1\n      dup1\n      0x03\n      add\n      sload\n      swap1\n      pop\n      dup4\n      jump\t// out\n        /* \"six.sol\":2217:2376  function GetWithdrawData(address _daddress, uint _amount) public view returns(transection memory) {... */\n    tag_32:\n        /* \"six.sol\":2295:2313  transection memory */\n      tag_49\n      tag_44\n      jump\t// in\n    tag_49:\n        /* \"six.sol\":2333:2337  data */\n      0x00\n        /* \"six.sol\":2333:2348  data[_daddress] */\n      dup1\n        /* \"six.sol\":2338:2347  _daddress */\n      dup5\n        /* \"six.sol\":2333:2348  data[_daddress] */\n      0xffffffffffffffffffffffffffffffffffffffff\n      and\n      0xffffffffffffffffffffffffffffffffffffffff\n      and\n      dup2\n      mstore\n      0x20\n      add\n      swap1\n      dup2\n      mstore\n      0x20\n      add\n      0x00\n      keccak256\n        /* \"six.sol\":2333:2359  data[_daddress].withdrawls */\n      0x04\n      add\n        /* \"six.sol\":2333:2368  data[_daddress].withdrawls[_amount] */\n      0x00\n        /* \"six.sol\":2360:2367  _amount */\n      dup4\n        /* \"six.sol\":2333:2368  data[_daddress].withdrawls[_amount] */\n      dup2\n      mstore\n      0x20\n      add\n      swap1\n      dup2\n      mstore\n      0x20\n      add\n      0x00\n      keccak256\n        /* \"six.sol\":2325:2368  return  data[_daddress].withdrawls[_amount] */\n      mload(0x40)\n      dup1\n      0x40\n      add\n      0x40\n      mstore\n      swap1\n      dup2\n      0x00\n      dup3\n      add\n      sload\n      dup2\n      mstore\n      0x20\n      add\n      0x01\n      dup3\n      add\n      sload\n      dup2\n      mstore\n      pop\n      pop\n      swap1\n      pop\n        /* \"six.sol\":2217:2376  function GetWithdrawData(address _daddress, uint _amount) public view returns(transection memory) {... */\n      swap3\n      swap2\n      pop\n      pop\n      jump\t// out\n        /* \"six.sol\":1604:1953  function withdraw(address payable  _receiver, uint _amount) public {... */\n    tag_38:\n        /* \"six.sol\":1713:1720  _amount */\n      dup1\n        /* \"six.sol\":1682:1686  data */\n      0x00\n        /* \"six.sol\":1682:1698  data[msg.sender] */\n      dup1\n        /* \"six.sol\":1687:1697  msg.sender */\n      caller\n        /* \"six.sol\":1682:1698  data[msg.sender] */\n      0xffffffffffffffffffffffffffffffffffffffff\n      and\n      0xffffffffffffffffffffffffffffffffffffffff\n      and\n      dup2\n      mstore\n      0x20\n      add\n      swap1\n      dup2\n      mstore\n      0x20\n      add\n      0x00\n      keccak256\n        /* \"six.sol\":1682:1711  data[msg.sender].totalbalance */\n      0x00\n      add\n      0x00\n        /* \"six.sol\":1682:1720  data[msg.sender].totalbalance-=_amount */\n      dup3\n      dup3\n      sload\n      tag_52\n      swap2\n      swap1\n      tag_53\n      jump\t// in\n    tag_52:\n      swap3\n      pop\n      pop\n      dup2\n      swap1\n      sstore\n      pop\n        /* \"six.sol\":1730:1753  transection memory val2 */\n      0x00\n        /* \"six.sol\":1755:1791  transection(_amount,block.timestamp) */\n      mload(0x40)\n      dup1\n      0x40\n      add\n      0x40\n      mstore\n      dup1\n        /* \"six.sol\":1767:1774  _amount */\n      dup4\n        /* \"six.sol\":1755:1791  transection(_amount,block.timestamp) */\n      dup2\n      mstore\n      0x20\n      add\n        /* \"six.sol\":1775:1790  block.timestamp */\n      timestamp\n        /* \"six.sol\":1755:1791  transection(_amount,block.timestamp) */\n      dup2\n      mstore\n      pop\n        /* \"six.sol\":1730:1791  transection memory val2= transection(_amount,block.timestamp) */\n      swap1\n      pop\n        /* \"six.sol\":1860:1864  val2 */\n      dup1\n        /* \"six.sol\":1804:1808  data */\n      0x00\n        /* \"six.sol\":1804:1820  data[msg.sender] */\n      dup1\n        /* \"six.sol\":1809:1819  msg.sender */\n      caller\n        /* \"six.sol\":1804:1820  data[msg.sender] */\n      0xffffffffffffffffffffffffffffffffffffffff\n      and\n      0xffffffffffffffffffffffffffffffffffffffff\n      and\n      dup2\n      mstore\n      0x20\n      add\n      swap1\n      dup2\n      mstore\n      0x20\n      add\n      0x00\n      keccak256\n        /* \"six.sol\":1804:1831  data[msg.sender].withdrawls */\n      0x04\n      add\n        /* \"six.sol\":1804:1859  data[msg.sender].withdrawls[data[msg.sender].withdrawl] */\n      0x00\n        /* \"six.sol\":1832:1836  data */\n      dup1\n        /* \"six.sol\":1832:1848  data[msg.sender] */\n      0x00\n        /* \"six.sol\":1837:1847  msg.sender */\n      caller\n        /* \"six.sol\":1832:1848  data[msg.sender] */\n      0xffffffffffffffffffffffffffffffffffffffff\n      and\n      0xffffffffffffffffffffffffffffffffffffffff\n      and\n      dup2\n      mstore\n      0x20\n      add\n      swap1\n      dup2\n      mstore\n      0x20\n      add\n      0x00\n      keccak256\n        /* \"six.sol\":1832:1858  data[msg.sender].withdrawl */\n      0x03\n      add\n      sload\n        /* \"six.sol\":1804:1859  data[msg.sender].withdrawls[data[msg.sender].withdrawl] */\n      dup2\n      mstore\n      0x20\n      add\n      swap1\n      dup2\n      mstore\n      0x20\n      add\n      0x00\n      keccak256\n        /* \"six.sol\":1804:1864  data[msg.sender].withdrawls[data[msg.sender].withdrawl]=val2 */\n      0x00\n      dup3\n      add\n      mload\n      dup2\n      0x00\n      add\n      sstore\n      0x20\n      dup3\n      add\n      mload\n      dup2\n      0x01\n      add\n      sstore\n      swap1\n      pop\n      pop\n        /* \"six.sol\":1875:1879  data */\n      0x00\n        /* \"six.sol\":1875:1891  data[msg.sender] */\n      dup1\n        /* \"six.sol\":1880:1890  msg.sender */\n      caller\n        /* \"six.sol\":1875:1891  data[msg.sender] */\n      0xffffffffffffffffffffffffffffffffffffffff\n      and\n      0xffffffffffffffffffffffffffffffffffffffff\n      and\n      dup2\n      mstore\n      0x20\n      add\n      swap1\n      dup2\n      mstore\n      0x20\n      add\n      0x00\n      keccak256\n        /* \"six.sol\":1875:1901  data[msg.sender].withdrawl */\n      0x03\n      add\n      0x00\n        /* \"six.sol\":1875:1903  data[msg.sender].withdrawl++ */\n      dup2\n      sload\n      dup1\n      swap3\n      swap2\n      swap1\n      tag_54\n      swap1\n      tag_46\n      jump\t// in\n    tag_54:\n      swap2\n      swap1\n      pop\n      sstore\n      pop\n        /* \"six.sol\":1916:1925  _receiver */\n      dup3\n        /* \"six.sol\":1916:1934  _receiver.transfer */\n      0xffffffffffffffffffffffffffffffffffffffff\n      and\n        /* \"six.sol\":1916:1943  _receiver.transfer(_amount) */\n      0x08fc\n        /* \"six.sol\":1935:1942  _amount */\n      dup4\n        /* \"six.sol\":1916:1943  _receiver.transfer(_amount) */\n      swap1\n      dup2\n      iszero\n      mul\n      swap1\n      mload(0x40)\n      0x00\n      mload(0x40)\n      dup1\n      dup4\n      sub\n      dup2\n      dup6\n      dup9\n      dup9\n      call\n      swap4\n      pop\n      pop\n      pop\n      pop\n      iszero\n      dup1\n      iszero\n      tag_56\n      jumpi\n      returndatasize\n      0x00\n      dup1\n      returndatacopy\n      revert(0x00, returndatasize)\n    tag_56:\n      pop\n        /* \"six.sol\":1671:1953  {... */\n      pop\n        /* \"six.sol\":1604:1953  function withdraw(address payable  _receiver, uint _amount) public {... */\n      pop\n      pop\n      jump\t// out\n    tag_44:\n      mload(0x40)\n      dup1\n      0x40\n      add\n      0x40\n      mstore\n      dup1\n      0x00\n      dup2\n      mstore\n      0x20\n      add\n      0x00\n      dup2\n      mstore\n      pop\n      swap1\n      jump\t// out\n        /* \"#utility.yul\":7:84   */\n    tag_57:\n        /* \"#utility.yul\":44:51   */\n      0x00\n        /* \"#utility.yul\":73:78   */\n      dup2\n        /* \"#utility.yul\":62:78   */\n      swap1\n      pop\n        /* \"#utility.yul\":7:84   */\n      swap2\n      swap1\n      pop\n      jump\t// out\n        /* \"#utility.yul\":90:208   */\n    tag_58:\n        /* \"#utility.yul\":177:201   */\n      tag_77\n        /* \"#utility.yul\":195:200   */\n      dup2\n        /* \"#utility.yul\":177:201   */\n      tag_57\n      jump\t// in\n    tag_77:\n        /* \"#utility.yul\":172:175   */\n      dup3\n        /* \"#utility.yul\":165:202   */\n      mstore\n        /* \"#utility.yul\":90:208   */\n      pop\n      pop\n      jump\t// out\n        /* \"#utility.yul\":214:436   */\n    tag_12:\n        /* \"#utility.yul\":307:311   */\n      0x00\n        /* \"#utility.yul\":345:347   */\n      0x20\n        /* \"#utility.yul\":334:343   */\n      dup3\n        /* \"#utility.yul\":330:348   */\n      add\n        /* \"#utility.yul\":322:348   */\n      swap1\n      pop\n        /* \"#utility.yul\":358:429   */\n      tag_79\n        /* \"#utility.yul\":426:427   */\n      0x00\n        /* \"#utility.yul\":415:424   */\n      dup4\n        /* \"#utility.yul\":411:428   */\n      add\n        /* \"#utility.yul\":402:408   */\n      dup5\n        /* \"#utility.yul\":358:429   */\n      tag_58\n      jump\t// in\n    tag_79:\n        /* \"#utility.yul\":214:436   */\n      swap3\n      swap2\n      pop\n      pop\n      jump\t// out\n        /* \"#utility.yul\":523:640   */\n    tag_60:\n        /* \"#utility.yul\":632:633   */\n      0x00\n        /* \"#utility.yul\":629:630   */\n      dup1\n        /* \"#utility.yul\":622:634   */\n      revert\n        /* \"#utility.yul\":769:895   */\n    tag_62:\n        /* \"#utility.yul\":806:813   */\n      0x00\n        /* \"#utility.yul\":846:888   */\n      0xffffffffffffffffffffffffffffffffffffffff\n        /* \"#utility.yul\":839:844   */\n      dup3\n        /* \"#utility.yul\":835:889   */\n      and\n        /* \"#utility.yul\":824:889   */\n      swap1\n      pop\n        /* \"#utility.yul\":769:895   */\n      swap2\n      swap1\n      pop\n      jump\t// out\n        /* \"#utility.yul\":901:997   */\n    tag_63:\n        /* \"#utility.yul\":938:945   */\n      0x00\n        /* \"#utility.yul\":967:991   */\n      tag_85\n        /* \"#utility.yul\":985:990   */\n      dup3\n        /* \"#utility.yul\":967:991   */\n      tag_62\n      jump\t// in\n    tag_85:\n        /* \"#utility.yul\":956:991   */\n      swap1\n      pop\n        /* \"#utility.yul\":901:997   */\n      swap2\n      swap1\n      pop\n      jump\t// out\n        /* \"#utility.yul\":1003:1125   */\n    tag_64:\n        /* \"#utility.yul\":1076:1100   */\n      tag_87\n        /* \"#utility.yul\":1094:1099   */\n      dup2\n        /* \"#utility.yul\":1076:1100   */\n      tag_63\n      jump\t// in\n    tag_87:\n        /* \"#utility.yul\":1069:1074   */\n      dup2\n        /* \"#utility.yul\":1066:1101   */\n      eq\n        /* \"#utility.yul\":1056:1119   */\n      tag_88\n      jumpi\n        /* \"#utility.yul\":1115:1116   */\n      0x00\n        /* \"#utility.yul\":1112:1113   */\n      dup1\n        /* \"#utility.yul\":1105:1117   */\n      revert\n        /* \"#utility.yul\":1056:1119   */\n    tag_88:\n        /* \"#utility.yul\":1003:1125   */\n      pop\n      jump\t// out\n        /* \"#utility.yul\":1131:1270   */\n    tag_65:\n        /* \"#utility.yul\":1177:1182   */\n      0x00\n        /* \"#utility.yul\":1215:1221   */\n      dup2\n        /* \"#utility.yul\":1202:1222   */\n      calldataload\n        /* \"#utility.yul\":1193:1222   */\n      swap1\n      pop\n        /* \"#utility.yul\":1231:1264   */\n      tag_90\n        /* \"#utility.yul\":1258:1263   */\n      dup2\n        /* \"#utility.yul\":1231:1264   */\n      tag_64\n      jump\t// in\n    tag_90:\n        /* \"#utility.yul\":1131:1270   */\n      swap3\n      swap2\n      pop\n      pop\n      jump\t// out\n        /* \"#utility.yul\":1276:1398   */\n    tag_66:\n        /* \"#utility.yul\":1349:1373   */\n      tag_92\n        /* \"#utility.yul\":1367:1372   */\n      dup2\n        /* \"#utility.yul\":1349:1373   */\n      tag_57\n      jump\t// in\n    tag_92:\n        /* \"#utility.yul\":1342:1347   */\n      dup2\n        /* \"#utility.yul\":1339:1374   */\n      eq\n        /* \"#utility.yul\":1329:1392   */\n      tag_93\n      jumpi\n        /* \"#utility.yul\":1388:1389   */\n      0x00\n        /* \"#utility.yul\":1385:1386   */\n      dup1\n        /* \"#utility.yul\":1378:1390   */\n      revert\n        /* \"#utility.yul\":1329:1392   */\n    tag_93:\n        /* \"#utility.yul\":1276:1398   */\n      pop\n      jump\t// out\n        /* \"#utility.yul\":1404:1543   */\n    tag_67:\n        /* \"#utility.yul\":1450:1455   */\n      0x00\n        /* \"#utility.yul\":1488:1494   */\n      dup2\n        /* \"#utility.yul\":1475:1495   */\n      calldataload\n        /* \"#utility.yul\":1466:1495   */\n      swap1\n      pop\n        /* \"#utility.yul\":1504:1537   */\n      tag_95\n        /* \"#utility.yul\":1531:1536   */\n      dup2\n        /* \"#utility.yul\":1504:1537   */\n      tag_66\n      jump\t// in\n    tag_95:\n        /* \"#utility.yul\":1404:1543   */\n      swap3\n      swap2\n      pop\n      pop\n      jump\t// out\n        /* \"#utility.yul\":1549:2023   */\n    tag_18:\n        /* \"#utility.yul\":1617:1623   */\n      0x00\n        /* \"#utility.yul\":1625:1631   */\n      dup1\n        /* \"#utility.yul\":1674:1676   */\n      0x40\n        /* \"#utility.yul\":1662:1671   */\n      dup4\n        /* \"#utility.yul\":1653:1660   */\n      dup6\n        /* \"#utility.yul\":1649:1672   */\n      sub\n        /* \"#utility.yul\":1645:1677   */\n      slt\n        /* \"#utility.yul\":1642:1761   */\n      iszero\n      tag_97\n      jumpi\n        /* \"#utility.yul\":1680:1759   */\n      tag_98\n      tag_60\n      jump\t// in\n    tag_98:\n        /* \"#utility.yul\":1642:1761   */\n    tag_97:\n        /* \"#utility.yul\":1800:1801   */\n      0x00\n        /* \"#utility.yul\":1825:1878   */\n      tag_99\n        /* \"#utility.yul\":1870:1877   */\n      dup6\n        /* \"#utility.yul\":1861:1867   */\n      dup3\n        /* \"#utility.yul\":1850:1859   */\n      dup7\n        /* \"#utility.yul\":1846:1868   */\n      add\n        /* \"#utility.yul\":1825:1878   */\n      tag_65\n      jump\t// in\n    tag_99:\n        /* \"#utility.yul\":1815:1878   */\n      swap3\n      pop\n        /* \"#utility.yul\":1771:1888   */\n      pop\n        /* \"#utility.yul\":1927:1929   */\n      0x20\n        /* \"#utility.yul\":1953:2006   */\n      tag_100\n        /* \"#utility.yul\":1998:2005   */\n      dup6\n        /* \"#utility.yul\":1989:1995   */\n      dup3\n        /* \"#utility.yul\":1978:1987   */\n      dup7\n        /* \"#utility.yul\":1974:1996   */\n      add\n        /* \"#utility.yul\":1953:2006   */\n      tag_67\n      jump\t// in\n    tag_100:\n        /* \"#utility.yul\":1943:2006   */\n      swap2\n      pop\n        /* \"#utility.yul\":1898:2016   */\n      pop\n        /* \"#utility.yul\":1549:2023   */\n      swap3\n      pop\n      swap3\n      swap1\n      pop\n      jump\t// out\n        /* \"#utility.yul\":2029:2137   */\n    tag_68:\n        /* \"#utility.yul\":2106:2130   */\n      tag_102\n        /* \"#utility.yul\":2124:2129   */\n      dup2\n        /* \"#utility.yul\":2106:2130   */\n      tag_57\n      jump\t// in\n    tag_102:\n        /* \"#utility.yul\":2101:2104   */\n      dup3\n        /* \"#utility.yul\":2094:2131   */\n      mstore\n        /* \"#utility.yul\":2029:2137   */\n      pop\n      pop\n      jump\t// out\n        /* \"#utility.yul\":2205:2723   */\n    tag_69:\n        /* \"#utility.yul\":2356:2360   */\n      0x40\n        /* \"#utility.yul\":2351:2354   */\n      dup3\n        /* \"#utility.yul\":2347:2361   */\n      add\n        /* \"#utility.yul\":2445:2449   */\n      0x00\n        /* \"#utility.yul\":2438:2443   */\n      dup3\n        /* \"#utility.yul\":2434:2450   */\n      add\n        /* \"#utility.yul\":2428:2451   */\n      mload\n        /* \"#utility.yul\":2464:2527   */\n      tag_104\n        /* \"#utility.yul\":2521:2525   */\n      0x00\n        /* \"#utility.yul\":2516:2519   */\n      dup6\n        /* \"#utility.yul\":2512:2526   */\n      add\n        /* \"#utility.yul\":2498:2510   */\n      dup3\n        /* \"#utility.yul\":2464:2527   */\n      tag_68\n      jump\t// in\n    tag_104:\n        /* \"#utility.yul\":2371:2537   */\n      pop\n        /* \"#utility.yul\":2624:2628   */\n      0x20\n        /* \"#utility.yul\":2617:2622   */\n      dup3\n        /* \"#utility.yul\":2613:2629   */\n      add\n        /* \"#utility.yul\":2607:2630   */\n      mload\n        /* \"#utility.yul\":2643:2706   */\n      tag_105\n        /* \"#utility.yul\":2700:2704   */\n      0x20\n        /* \"#utility.yul\":2695:2698   */\n      dup6\n        /* \"#utility.yul\":2691:2705   */\n      add\n        /* \"#utility.yul\":2677:2689   */\n      dup3\n        /* \"#utility.yul\":2643:2706   */\n      tag_68\n      jump\t// in\n    tag_105:\n        /* \"#utility.yul\":2547:2716   */\n      pop\n        /* \"#utility.yul\":2325:2723   */\n      pop\n        /* \"#utility.yul\":2205:2723   */\n      pop\n      pop\n      jump\t// out\n        /* \"#utility.yul\":2729:3059   */\n    tag_21:\n        /* \"#utility.yul\":2876:2880   */\n      0x00\n        /* \"#utility.yul\":2914:2916   */\n      0x40\n        /* \"#utility.yul\":2903:2912   */\n      dup3\n        /* \"#utility.yul\":2899:2917   */\n      add\n        /* \"#utility.yul\":2891:2917   */\n      swap1\n      pop\n        /* \"#utility.yul\":2927:3052   */\n      tag_107\n        /* \"#utility.yul\":3049:3050   */\n      0x00\n        /* \"#utility.yul\":3038:3047   */\n      dup4\n        /* \"#utility.yul\":3034:3051   */\n      add\n        /* \"#utility.yul\":3025:3031   */\n      dup5\n        /* \"#utility.yul\":2927:3052   */\n      tag_69\n      jump\t// in\n    tag_107:\n        /* \"#utility.yul\":2729:3059   */\n      swap3\n      swap2\n      pop\n      pop\n      jump\t// out\n        /* \"#utility.yul\":3065:3394   */\n    tag_25:\n        /* \"#utility.yul\":3124:3130   */\n      0x00\n        /* \"#utility.yul\":3173:3175   */\n      0x20\n        /* \"#utility.yul\":3161:3170   */\n      dup3\n        /* \"#utility.yul\":3152:3159   */\n      dup5\n        /* \"#utility.yul\":3148:3171   */\n      sub\n        /* \"#utility.yul\":3144:3176   */\n      slt\n        /* \"#utility.yul\":3141:3260   */\n      iszero\n      tag_109\n      jumpi\n        /* \"#utility.yul\":3179:3258   */\n      tag_110\n      tag_60\n      jump\t// in\n    tag_110:\n        /* \"#utility.yul\":3141:3260   */\n    tag_109:\n        /* \"#utility.yul\":3299:3300   */\n      0x00\n        /* \"#utility.yul\":3324:3377   */\n      tag_111\n        /* \"#utility.yul\":3369:3376   */\n      dup5\n        /* \"#utility.yul\":3360:3366   */\n      dup3\n        /* \"#utility.yul\":3349:3358   */\n      dup6\n        /* \"#utility.yul\":3345:3367   */\n      add\n        /* \"#utility.yul\":3324:3377   */\n      tag_65\n      jump\t// in\n    tag_111:\n        /* \"#utility.yul\":3314:3377   */\n      swap2\n      pop\n        /* \"#utility.yul\":3270:3387   */\n      pop\n        /* \"#utility.yul\":3065:3394   */\n      swap3\n      swap2\n      pop\n      pop\n      jump\t// out\n        /* \"#utility.yul\":3400:3842   */\n    tag_28:\n        /* \"#utility.yul\":3549:3553   */\n      0x00\n        /* \"#utility.yul\":3587:3589   */\n      0x60\n        /* \"#utility.yul\":3576:3585   */\n      dup3\n        /* \"#utility.yul\":3572:3590   */\n      add\n        /* \"#utility.yul\":3564:3590   */\n      swap1\n      pop\n        /* \"#utility.yul\":3600:3671   */\n      tag_113\n        /* \"#utility.yul\":3668:3669   */\n      0x00\n        /* \"#utility.yul\":3657:3666   */\n      dup4\n        /* \"#utility.yul\":3653:3670   */\n      add\n        /* \"#utility.yul\":3644:3650   */\n      dup7\n        /* \"#utility.yul\":3600:3671   */\n      tag_58\n      jump\t// in\n    tag_113:\n        /* \"#utility.yul\":3681:3753   */\n      tag_114\n        /* \"#utility.yul\":3749:3751   */\n      0x20\n        /* \"#utility.yul\":3738:3747   */\n      dup4\n        /* \"#utility.yul\":3734:3752   */\n      add\n        /* \"#utility.yul\":3725:3731   */\n      dup6\n        /* \"#utility.yul\":3681:3753   */\n      tag_58\n      jump\t// in\n    tag_114:\n        /* \"#utility.yul\":3763:3835   */\n      tag_115\n        /* \"#utility.yul\":3831:3833   */\n      0x40\n        /* \"#utility.yul\":3820:3829   */\n      dup4\n        /* \"#utility.yul\":3816:3834   */\n      add\n        /* \"#utility.yul\":3807:3813   */\n      dup5\n        /* \"#utility.yul\":3763:3835   */\n      tag_58\n      jump\t// in\n    tag_115:\n        /* \"#utility.yul\":3400:3842   */\n      swap5\n      swap4\n      pop\n      pop\n      pop\n      pop\n      jump\t// out\n        /* \"#utility.yul\":3848:3952   */\n    tag_70:\n        /* \"#utility.yul\":3893:3900   */\n      0x00\n        /* \"#utility.yul\":3922:3946   */\n      tag_117\n        /* \"#utility.yul\":3940:3945   */\n      dup3\n        /* \"#utility.yul\":3922:3946   */\n      tag_62\n      jump\t// in\n    tag_117:\n        /* \"#utility.yul\":3911:3946   */\n      swap1\n      pop\n        /* \"#utility.yul\":3848:3952   */\n      swap2\n      swap1\n      pop\n      jump\t// out\n        /* \"#utility.yul\":3958:4096   */\n    tag_71:\n        /* \"#utility.yul\":4039:4071   */\n      tag_119\n        /* \"#utility.yul\":4065:4070   */\n      dup2\n        /* \"#utility.yul\":4039:4071   */\n      tag_70\n      jump\t// in\n    tag_119:\n        /* \"#utility.yul\":4032:4037   */\n      dup2\n        /* \"#utility.yul\":4029:4072   */\n      eq\n        /* \"#utility.yul\":4019:4090   */\n      tag_120\n      jumpi\n        /* \"#utility.yul\":4086:4087   */\n      0x00\n        /* \"#utility.yul\":4083:4084   */\n      dup1\n        /* \"#utility.yul\":4076:4088   */\n      revert\n        /* \"#utility.yul\":4019:4090   */\n    tag_120:\n        /* \"#utility.yul\":3958:4096   */\n      pop\n      jump\t// out\n        /* \"#utility.yul\":4102:4257   */\n    tag_72:\n        /* \"#utility.yul\":4156:4161   */\n      0x00\n        /* \"#utility.yul\":4194:4200   */\n      dup2\n        /* \"#utility.yul\":4181:4201   */\n      calldataload\n        /* \"#utility.yul\":4172:4201   */\n      swap1\n      pop\n        /* \"#utility.yul\":4210:4251   */\n      tag_122\n        /* \"#utility.yul\":4245:4250   */\n      dup2\n        /* \"#utility.yul\":4210:4251   */\n      tag_71\n      jump\t// in\n    tag_122:\n        /* \"#utility.yul\":4102:4257   */\n      swap3\n      swap2\n      pop\n      pop\n      jump\t// out\n        /* \"#utility.yul\":4263:4753   */\n    tag_37:\n        /* \"#utility.yul\":4339:4345   */\n      0x00\n        /* \"#utility.yul\":4347:4353   */\n      dup1\n        /* \"#utility.yul\":4396:4398   */\n      0x40\n        /* \"#utility.yul\":4384:4393   */\n      dup4\n        /* \"#utility.yul\":4375:4382   */\n      dup6\n        /* \"#utility.yul\":4371:4394   */\n      sub\n        /* \"#utility.yul\":4367:4399   */\n      slt\n        /* \"#utility.yul\":4364:4483   */\n      iszero\n      tag_124\n      jumpi\n        /* \"#utility.yul\":4402:4481   */\n      tag_125\n      tag_60\n      jump\t// in\n    tag_125:\n        /* \"#utility.yul\":4364:4483   */\n    tag_124:\n        /* \"#utility.yul\":4522:4523   */\n      0x00\n        /* \"#utility.yul\":4547:4608   */\n      tag_126\n        /* \"#utility.yul\":4600:4607   */\n      dup6\n        /* \"#utility.yul\":4591:4597   */\n      dup3\n        /* \"#utility.yul\":4580:4589   */\n      dup7\n        /* \"#utility.yul\":4576:4598   */\n      add\n        /* \"#utility.yul\":4547:4608   */\n      tag_72\n      jump\t// in\n    tag_126:\n        /* \"#utility.yul\":4537:4608   */\n      swap3\n      pop\n        /* \"#utility.yul\":4493:4618   */\n      pop\n        /* \"#utility.yul\":4657:4659   */\n      0x20\n        /* \"#utility.yul\":4683:4736   */\n      tag_127\n        /* \"#utility.yul\":4728:4735   */\n      dup6\n        /* \"#utility.yul\":4719:4725   */\n      dup3\n        /* \"#utility.yul\":4708:4717   */\n      dup7\n        /* \"#utility.yul\":4704:4726   */\n      add\n        /* \"#utility.yul\":4683:4736   */\n      tag_67\n      jump\t// in\n    tag_127:\n        /* \"#utility.yul\":4673:4736   */\n      swap2\n      pop\n        /* \"#utility.yul\":4628:4746   */\n      pop\n        /* \"#utility.yul\":4263:4753   */\n      swap3\n      pop\n      swap3\n      swap1\n      pop\n      jump\t// out\n        /* \"#utility.yul\":4759:4939   */\n    tag_73:\n        /* \"#utility.yul\":4807:4884   */\n      0x4e487b7100000000000000000000000000000000000000000000000000000000\n        /* \"#utility.yul\":4804:4805   */\n      0x00\n        /* \"#utility.yul\":4797:4885   */\n      mstore\n        /* \"#utility.yul\":4904:4908   */\n      0x11\n        /* \"#utility.yul\":4901:4902   */\n      0x04\n        /* \"#utility.yul\":4894:4909   */\n      mstore\n        /* \"#utility.yul\":4928:4932   */\n      0x24\n        /* \"#utility.yul\":4925:4926   */\n      0x00\n        /* \"#utility.yul\":4918:4933   */\n      revert\n        /* \"#utility.yul\":4945:5136   */\n    tag_42:\n        /* \"#utility.yul\":4985:4988   */\n      0x00\n        /* \"#utility.yul\":5004:5024   */\n      tag_130\n        /* \"#utility.yul\":5022:5023   */\n      dup3\n        /* \"#utility.yul\":5004:5024   */\n      tag_57\n      jump\t// in\n    tag_130:\n        /* \"#utility.yul\":4999:5024   */\n      swap2\n      pop\n        /* \"#utility.yul\":5038:5058   */\n      tag_131\n        /* \"#utility.yul\":5056:5057   */\n      dup4\n        /* \"#utility.yul\":5038:5058   */\n      tag_57\n      jump\t// in\n    tag_131:\n        /* \"#utility.yul\":5033:5058   */\n      swap3\n      pop\n        /* \"#utility.yul\":5081:5082   */\n      dup3\n        /* \"#utility.yul\":5078:5079   */\n      dup3\n        /* \"#utility.yul\":5074:5083   */\n      add\n        /* \"#utility.yul\":5067:5083   */\n      swap1\n      pop\n        /* \"#utility.yul\":5102:5105   */\n      dup1\n        /* \"#utility.yul\":5099:5100   */\n      dup3\n        /* \"#utility.yul\":5096:5106   */\n      gt\n        /* \"#utility.yul\":5093:5129   */\n      iszero\n      tag_132\n      jumpi\n        /* \"#utility.yul\":5109:5127   */\n      tag_133\n      tag_73\n      jump\t// in\n    tag_133:\n        /* \"#utility.yul\":5093:5129   */\n    tag_132:\n        /* \"#utility.yul\":4945:5136   */\n      swap3\n      swap2\n      pop\n      pop\n      jump\t// out\n        /* \"#utility.yul\":5142:5375   */\n    tag_46:\n        /* \"#utility.yul\":5181:5184   */\n      0x00\n        /* \"#utility.yul\":5204:5228   */\n      tag_135\n        /* \"#utility.yul\":5222:5227   */\n      dup3\n        /* \"#utility.yul\":5204:5228   */\n      tag_57\n      jump\t// in\n    tag_135:\n        /* \"#utility.yul\":5195:5228   */\n      swap2\n      pop\n        /* \"#utility.yul\":5250:5316   */\n      0xffffffffffffffffffffffffffffffffffffffffffffffffffffffffffffffff\n        /* \"#utility.yul\":5243:5248   */\n      dup3\n        /* \"#utility.yul\":5240:5317   */\n      sub\n        /* \"#utility.yul\":5237:5340   */\n      tag_136\n      jumpi\n        /* \"#utility.yul\":5320:5338   */\n      tag_137\n      tag_73\n      jump\t// in\n    tag_137:\n        /* \"#utility.yul\":5237:5340   */\n    tag_136:\n        /* \"#utility.yul\":5367:5368   */\n      0x01\n        /* \"#utility.yul\":5360:5365   */\n      dup3\n        /* \"#utility.yul\":5356:5369   */\n      add\n        /* \"#utility.yul\":5349:5369   */\n      swap1\n      pop\n        /* \"#utility.yul\":5142:5375   */\n      swap2\n      swap1\n      pop\n      jump\t// out\n        /* \"#utility.yul\":5381:5575   */\n    tag_53:\n        /* \"#utility.yul\":5421:5425   */\n      0x00\n        /* \"#utility.yul\":5441:5461   */\n      tag_139\n        /* \"#utility.yul\":5459:5460   */\n      dup3\n        /* \"#utility.yul\":5441:5461   */\n      tag_57\n      jump\t// in\n    tag_139:\n        /* \"#utility.yul\":5436:5461   */\n      swap2\n      pop\n        /* \"#utility.yul\":5475:5495   */\n      tag_140\n        /* \"#utility.yul\":5493:5494   */\n      dup4\n        /* \"#utility.yul\":5475:5495   */\n      tag_57\n      jump\t// in\n    tag_140:\n        /* \"#utility.yul\":5470:5495   */\n      swap3\n      pop\n        /* \"#utility.yul\":5519:5520   */\n      dup3\n        /* \"#utility.yul\":5516:5517   */\n      dup3\n        /* \"#utility.yul\":5512:5521   */\n      sub\n        /* \"#utility.yul\":5504:5521   */\n      swap1\n      pop\n        /* \"#utility.yul\":5543:5544   */\n      dup2\n        /* \"#utility.yul\":5537:5541   */\n      dup2\n        /* \"#utility.yul\":5534:5545   */\n      gt\n        /* \"#utility.yul\":5531:5568   */\n      iszero\n      tag_141\n      jumpi\n        /* \"#utility.yul\":5548:5566   */\n      tag_142\n      tag_73\n      jump\t// in\n    tag_142:\n        /* \"#utility.yul\":5531:5568   */\n    tag_141:\n        /* \"#utility.yul\":5381:5575   */\n      swap3\n      swap2\n      pop\n      pop\n      jump\t// out\n\n    auxdata: 0xa2646970667358221220f4bd179c45bffae5a26d919a79f7ad1d8a1312870c14ccb4a6ddb810a297702164736f6c63430008120033\n}\n",
				"bytecode": {
					"linkReferences": {},
					"object": "608060405234801561001057600080fd5b5061094a806100206000396000f3fe6080604052600436106100555760003560e01c80630ef678871461005a5780631ad18ffd14610085578063b082e4b51461008f578063b90d3d0c146100cc578063bddcddeb1461010b578063f3fef3a314610148575b600080fd5b34801561006657600080fd5b5061006f610171565b60405161007c9190610610565b60405180910390f35b61008d610179565b005b34801561009b57600080fd5b506100b660048036038101906100b191906106ba565b6102f2565b6040516100c39190610738565b60405180910390f35b3480156100d857600080fd5b506100f360048036038101906100ee9190610753565b610373565b60405161010293929190610780565b60405180910390f35b34801561011757600080fd5b50610132600480360381019061012d91906106ba565b61039d565b60405161013f9190610738565b60405180910390f35b34801561015457600080fd5b5061016f600480360381019061016a91906107f5565b61041e565b005b600047905090565b346000803373ffffffffffffffffffffffffffffffffffffffff1673ffffffffffffffffffffffffffffffffffffffff16815260200190815260200160002060000160008282546101ca9190610864565b925050819055506101d96105dd565b3481600001818152505042816020018181525050806000803373ffffffffffffffffffffffffffffffffffffffff1673ffffffffffffffffffffffffffffffffffffffff16815260200190815260200160002060020160008060003373ffffffffffffffffffffffffffffffffffffffff1673ffffffffffffffffffffffffffffffffffffffff16815260200190815260200160002060010154815260200190815260200160002060008201518160000155602082015181600101559050506000803373ffffffffffffffffffffffffffffffffffffffff1673ffffffffffffffffffffffffffffffffffffffff16815260200190815260200160002060010160008154809291906102ea90610898565b919050555050565b6102fa6105dd565b6000808473ffffffffffffffffffffffffffffffffffffffff1673ffffffffffffffffffffffffffffffffffffffff168152602001908152602001600020600201600083815260200190815260200160002060405180604001604052908160008201548152602001600182015481525050905092915050565b60006020528060005260406000206000915090508060000154908060010154908060030154905083565b6103a56105dd565b6000808473ffffffffffffffffffffffffffffffffffffffff1673ffffffffffffffffffffffffffffffffffffffff168152602001908152602001600020600401600083815260200190815260200160002060405180604001604052908160008201548152602001600182015481525050905092915050565b806000803373ffffffffffffffffffffffffffffffffffffffff1673ffffffffffffffffffffffffffffffffffffffff168152602001908152602001600020600001600082825461046f91906108e0565b9250508190555060006040518060400160405280838152602001428152509050806000803373ffffffffffffffffffffffffffffffffffffffff1673ffffffffffffffffffffffffffffffffffffffff16815260200190815260200160002060040160008060003373ffffffffffffffffffffffffffffffffffffffff1673ffffffffffffffffffffffffffffffffffffffff16815260200190815260200160002060030154815260200190815260200160002060008201518160000155602082015181600101559050506000803373ffffffffffffffffffffffffffffffffffffffff1673ffffffffffffffffffffffffffffffffffffffff168152602001908152602001600020600301600081548092919061058c90610898565b91905055508273ffffffffffffffffffffffffffffffffffffffff166108fc839081150290604051600060405180830381858888f193505050501580156105d7573d6000803e3d6000fd5b50505050565b604051806040016040528060008152602001600081525090565b6000819050919050565b61060a816105f7565b82525050565b60006020820190506106256000830184610601565b92915050565b600080fd5b600073ffffffffffffffffffffffffffffffffffffffff82169050919050565b600061065b82610630565b9050919050565b61066b81610650565b811461067657600080fd5b50565b60008135905061068881610662565b92915050565b610697816105f7565b81146106a257600080fd5b50565b6000813590506106b48161068e565b92915050565b600080604083850312156106d1576106d061062b565b5b60006106df85828601610679565b92505060206106f0858286016106a5565b9150509250929050565b610703816105f7565b82525050565b60408201600082015161071f60008501826106fa565b50602082015161073260208501826106fa565b50505050565b600060408201905061074d6000830184610709565b92915050565b6000602082840312156107695761076861062b565b5b600061077784828501610679565b91505092915050565b60006060820190506107956000830186610601565b6107a26020830185610601565b6107af6040830184610601565b949350505050565b60006107c282610630565b9050919050565b6107d2816107b7565b81146107dd57600080fd5b50565b6000813590506107ef816107c9565b92915050565b6000806040838503121561080c5761080b61062b565b5b600061081a858286016107e0565b925050602061082b858286016106a5565b9150509250929050565b7f4e487b7100000000000000000000000000000000000000000000000000000000600052601160045260246000fd5b600061086f826105f7565b915061087a836105f7565b925082820190508082111561089257610891610835565b5b92915050565b60006108a3826105f7565b91507fffffffffffffffffffffffffffffffffffffffffffffffffffffffffffffffff82036108d5576108d4610835565b5b600182019050919050565b60006108eb826105f7565b91506108f6836105f7565b925082820390508181111561090e5761090d610835565b5b9291505056fea2646970667358221220f4bd179c45bffae5a26d919a79f7ad1d8a1312870c14ccb4a6ddb810a297702164736f6c63430008120033",
					"opcodes": "PUSH1 0x80 PUSH1 0x40 MSTORE CALLVALUE DUP1 ISZERO PUSH2 0x10 JUMPI PUSH1 0x0 DUP1 REVERT JUMPDEST POP PUSH2 0x94A DUP1 PUSH2 0x20 PUSH1 0x0 CODECOPY PUSH1 0x0 RETURN INVALID PUSH1 0x80 PUSH1 0x40 MSTORE PUSH1 0x4 CALLDATASIZE LT PUSH2 0x55 JUMPI PUSH1 0x0 CALLDATALOAD PUSH1 0xE0 SHR DUP1 PUSH4 0xEF67887 EQ PUSH2 0x5A JUMPI DUP1 PUSH4 0x1AD18FFD EQ PUSH2 0x85 JUMPI DUP1 PUSH4 0xB082E4B5 EQ PUSH2 0x8F JUMPI DUP1 PUSH4 0xB90D3D0C EQ PUSH2 0xCC JUMPI DUP1 PUSH4 0xBDDCDDEB EQ PUSH2 0x10B JUMPI DUP1 PUSH4 0xF3FEF3A3 EQ PUSH2 0x148 JUMPI JUMPDEST PUSH1 0x0 DUP1 REVERT JUMPDEST CALLVALUE DUP1 ISZERO PUSH2 0x66 JUMPI PUSH1 0x0 DUP1 REVERT JUMPDEST POP PUSH2 0x6F PUSH2 0x171 JUMP JUMPDEST PUSH1 0x40 MLOAD PUSH2 0x7C SWAP2 SWAP1 PUSH2 0x610 JUMP JUMPDEST PUSH1 0x40 MLOAD DUP1 SWAP2 SUB SWAP1 RETURN JUMPDEST PUSH2 0x8D PUSH2 0x179 JUMP JUMPDEST STOP JUMPDEST CALLVALUE DUP1 ISZERO PUSH2 0x9B JUMPI PUSH1 0x0 DUP1 REVERT JUMPDEST POP PUSH2 0xB6 PUSH1 0x4 DUP1 CALLDATASIZE SUB DUP2 ADD SWAP1 PUSH2 0xB1 SWAP2 SWAP1 PUSH2 0x6BA JUMP JUMPDEST PUSH2 0x2F2 JUMP JUMPDEST PUSH1 0x40 MLOAD PUSH2 0xC3 SWAP2 SWAP1 PUSH2 0x738 JUMP JUMPDEST PUSH1 0x40 MLOAD DUP1 SWAP2 SUB SWAP1 RETURN JUMPDEST CALLVALUE DUP1 ISZERO PUSH2 0xD8 JUMPI PUSH1 0x0 DUP1 REVERT JUMPDEST POP PUSH2 0xF3 PUSH1 0x4 DUP1 CALLDATASIZE SUB DUP2 ADD SWAP1 PUSH2 0xEE SWAP2 SWAP1 PUSH2 0x753 JUMP JUMPDEST PUSH2 0x373 JUMP JUMPDEST PUSH1 0x40 MLOAD PUSH2 0x102 SWAP4 SWAP3 SWAP2 SWAP1 PUSH2 0x780 JUMP JUMPDEST PUSH1 0x40 MLOAD DUP1 SWAP2 SUB SWAP1 RETURN JUMPDEST CALLVALUE DUP1 ISZERO PUSH2 0x117 JUMPI PUSH1 0x0 DUP1 REVERT JUMPDEST POP PUSH2 0x132 PUSH1 0x4 DUP1 CALLDATASIZE SUB DUP2 ADD SWAP1 PUSH2 0x12D SWAP2 SWAP1 PUSH2 0x6BA JUMP JUMPDEST PUSH2 0x39D JUMP JUMPDEST PUSH1 0x40 MLOAD PUSH2 0x13F SWAP2 SWAP1 PUSH2 0x738 JUMP JUMPDEST PUSH1 0x40 MLOAD DUP1 SWAP2 SUB SWAP1 RETURN JUMPDEST CALLVALUE DUP1 ISZERO PUSH2 0x154 JUMPI PUSH1 0x0 DUP1 REVERT JUMPDEST POP PUSH2 0x16F PUSH1 0x4 DUP1 CALLDATASIZE SUB DUP2 ADD SWAP1 PUSH2 0x16A SWAP2 SWAP1 PUSH2 0x7F5 JUMP JUMPDEST PUSH2 0x41E JUMP JUMPDEST STOP JUMPDEST PUSH1 0x0 SELFBALANCE SWAP1 POP SWAP1 JUMP JUMPDEST CALLVALUE PUSH1 0x0 DUP1 CALLER PUSH20 0xFFFFFFFFFFFFFFFFFFFFFFFFFFFFFFFFFFFFFFFF AND PUSH20 0xFFFFFFFFFFFFFFFFFFFFFFFFFFFFFFFFFFFFFFFF AND DUP2 MSTORE PUSH1 0x20 ADD SWAP1 DUP2 MSTORE PUSH1 0x20 ADD PUSH1 0x0 KECCAK256 PUSH1 0x0 ADD PUSH1 0x0 DUP3 DUP3 SLOAD PUSH2 0x1CA SWAP2 SWAP1 PUSH2 0x864 JUMP JUMPDEST SWAP3 POP POP DUP2 SWAP1 SSTORE POP PUSH2 0x1D9 PUSH2 0x5DD JUMP JUMPDEST CALLVALUE DUP2 PUSH1 0x0 ADD DUP2 DUP2 MSTORE POP POP TIMESTAMP DUP2 PUSH1 0x20 ADD DUP2 DUP2 MSTORE POP POP DUP1 PUSH1 0x0 DUP1 CALLER PUSH20 0xFFFFFFFFFFFFFFFFFFFFFFFFFFFFFFFFFFFFFFFF AND PUSH20 0xFFFFFFFFFFFFFFFFFFFFFFFFFFFFFFFFFFFFFFFF AND DUP2 MSTORE PUSH1 0x20 ADD SWAP1 DUP2 MSTORE PUSH1 0x20 ADD PUSH1 0x0 KECCAK256 PUSH1 0x2 ADD PUSH1 0x0 DUP1 PUSH1 0x0 CALLER PUSH20 0xFFFFFFFFFFFFFFFFFFFFFFFFFFFFFFFFFFFFFFFF AND PUSH20 0xFFFFFFFFFFFFFFFFFFFFFFFFFFFFFFFFFFFFFFFF AND DUP2 MSTORE PUSH1 0x20 ADD SWAP1 DUP2 MSTORE PUSH1 0x20 ADD PUSH1 0x0 KECCAK256 PUSH1 0x1 ADD SLOAD DUP2 MSTORE PUSH1 0x20 ADD SWAP1 DUP2 MSTORE PUSH1 0x20 ADD PUSH1 0x0 KECCAK256 PUSH1 0x0 DUP3 ADD MLOAD DUP2 PUSH1 0x0 ADD SSTORE PUSH1 0x20 DUP3 ADD MLOAD DUP2 PUSH1 0x1 ADD SSTORE SWAP1 POP POP PUSH1 0x0 DUP1 CALLER PUSH20 0xFFFFFFFFFFFFFFFFFFFFFFFFFFFFFFFFFFFFFFFF AND PUSH20 0xFFFFFFFFFFFFFFFFFFFFFFFFFFFFFFFFFFFFFFFF AND DUP2 MSTORE PUSH1 0x20 ADD SWAP1 DUP2 MSTORE PUSH1 0x20 ADD PUSH1 0x0 KECCAK256 PUSH1 0x1 ADD PUSH1 0x0 DUP2 SLOAD DUP1 SWAP3 SWAP2 SWAP1 PUSH2 0x2EA SWAP1 PUSH2 0x898 JUMP JUMPDEST SWAP2 SWAP1 POP SSTORE POP POP JUMP JUMPDEST PUSH2 0x2FA PUSH2 0x5DD JUMP JUMPDEST PUSH1 0x0 DUP1 DUP5 PUSH20 0xFFFFFFFFFFFFFFFFFFFFFFFFFFFFFFFFFFFFFFFF AND PUSH20 0xFFFFFFFFFFFFFFFFFFFFFFFFFFFFFFFFFFFFFFFF AND DUP2 MSTORE PUSH1 0x20 ADD SWAP1 DUP2 MSTORE PUSH1 0x20 ADD PUSH1 0x0 KECCAK256 PUSH1 0x2 ADD PUSH1 0x0 DUP4 DUP2 MSTORE PUSH1 0x20 ADD SWAP1 DUP2 MSTORE PUSH1 0x20 ADD PUSH1 0x0 KECCAK256 PUSH1 0x40 MLOAD DUP1 PUSH1 0x40 ADD PUSH1 0x40 MSTORE SWAP1 DUP2 PUSH1 0x0 DUP3 ADD SLOAD DUP2 MSTORE PUSH1 0x20 ADD PUSH1 0x1 DUP3 ADD SLOAD DUP2 MSTORE POP POP SWAP1 POP SWAP3 SWAP2 POP POP JUMP JUMPDEST PUSH1 0x0 PUSH1 0x20 MSTORE DUP1 PUSH1 0x0 MSTORE PUSH1 0x40 PUSH1 0x0 KECCAK256 PUSH1 0x0 SWAP2 POP SWAP1 POP DUP1 PUSH1 0x0 ADD SLOAD SWAP1 DUP1 PUSH1 0x1 ADD SLOAD SWAP1 DUP1 PUSH1 0x3 ADD SLOAD SWAP1 POP DUP4 JUMP JUMPDEST PUSH2 0x3A5 PUSH2 0x5DD JUMP JUMPDEST PUSH1 0x0 DUP1 DUP5 PUSH20 0xFFFFFFFFFFFFFFFFFFFFFFFFFFFFFFFFFFFFFFFF AND PUSH20 0xFFFFFFFFFFFFFFFFFFFFFFFFFFFFFFFFFFFFFFFF AND DUP2 MSTORE PUSH1 0x20 ADD SWAP1 DUP2 MSTORE PUSH1 0x20 ADD PUSH1 0x0 KECCAK256 PUSH1 0x4 ADD PUSH1 0x0 DUP4 DUP2 MSTORE PUSH1 0x20 ADD SWAP1 DUP2 MSTORE PUSH1 0x20 ADD PUSH1 0x0 KECCAK256 PUSH1 0x40 MLOAD DUP1 PUSH1 0x40 ADD PUSH1 0x40 MSTORE SWAP1 DUP2 PUSH1 0x0 DUP3 ADD SLOAD DUP2 MSTORE PUSH1 0x20 ADD PUSH1 0x1 DUP3 ADD SLOAD DUP2 MSTORE POP POP SWAP1 POP SWAP3 SWAP2 POP POP JUMP JUMPDEST DUP1 PUSH1 0x0 DUP1 CALLER PUSH20 0xFFFFFFFFFFFFFFFFFFFFFFFFFFFFFFFFFFFFFFFF AND PUSH20 0xFFFFFFFFFFFFFFFFFFFFFFFFFFFFFFFFFFFFFFFF AND DUP2 MSTORE PUSH1 0x20 ADD SWAP1 DUP2 MSTORE PUSH1 0x20 ADD PUSH1 0x0 KECCAK256 PUSH1 0x0 ADD PUSH1 0x0 DUP3 DUP3 SLOAD PUSH2 0x46F SWAP2 SWAP1 PUSH2 0x8E0 JUMP JUMPDEST SWAP3 POP POP DUP2 SWAP1 SSTORE POP PUSH1 0x0 PUSH1 0x40 MLOAD DUP1 PUSH1 0x40 ADD PUSH1 0x40 MSTORE DUP1 DUP4 DUP2 MSTORE PUSH1 0x20 ADD TIMESTAMP DUP2 MSTORE POP SWAP1 POP DUP1 PUSH1 0x0 DUP1 CALLER PUSH20 0xFFFFFFFFFFFFFFFFFFFFFFFFFFFFFFFFFFFFFFFF AND PUSH20 0xFFFFFFFFFFFFFFFFFFFFFFFFFFFFFFFFFFFFFFFF AND DUP2 MSTORE PUSH1 0x20 ADD SWAP1 DUP2 MSTORE PUSH1 0x20 ADD PUSH1 0x0 KECCAK256 PUSH1 0x4 ADD PUSH1 0x0 DUP1 PUSH1 0x0 CALLER PUSH20 0xFFFFFFFFFFFFFFFFFFFFFFFFFFFFFFFFFFFFFFFF AND PUSH20 0xFFFFFFFFFFFFFFFFFFFFFFFFFFFFFFFFFFFFFFFF AND DUP2 MSTORE PUSH1 0x20 ADD SWAP1 DUP2 MSTORE PUSH1 0x20 ADD PUSH1 0x0 KECCAK256 PUSH1 0x3 ADD SLOAD DUP2 MSTORE PUSH1 0x20 ADD SWAP1 DUP2 MSTORE PUSH1 0x20 ADD PUSH1 0x0 KECCAK256 PUSH1 0x0 DUP3 ADD MLOAD DUP2 PUSH1 0x0 ADD SSTORE PUSH1 0x20 DUP3 ADD MLOAD DUP2 PUSH1 0x1 ADD SSTORE SWAP1 POP POP PUSH1 0x0 DUP1 CALLER PUSH20 0xFFFFFFFFFFFFFFFFFFFFFFFFFFFFFFFFFFFFFFFF AND PUSH20 0xFFFFFFFFFFFFFFFFFFFFFFFFFFFFFFFFFFFFFFFF AND DUP2 MSTORE PUSH1 0x20 ADD SWAP1 DUP2 MSTORE PUSH1 0x20 ADD PUSH1 0x0 KECCAK256 PUSH1 0x3 ADD PUSH1 0x0 DUP2 SLOAD DUP1 SWAP3 SWAP2 SWAP1 PUSH2 0x58C SWAP1 PUSH2 0x898 JUMP JUMPDEST SWAP2 SWAP1 POP SSTORE POP DUP3 PUSH20 0xFFFFFFFFFFFFFFFFFFFFFFFFFFFFFFFFFFFFFFFF AND PUSH2 0x8FC DUP4 SWAP1 DUP2 ISZERO MUL SWAP1 PUSH1 0x40 MLOAD PUSH1 0x0 PUSH1 0x40 MLOAD DUP1 DUP4 SUB DUP2 DUP6 DUP9 DUP9 CALL SWAP4 POP POP POP POP ISZERO DUP1 ISZERO PUSH2 0x5D7 JUMPI RETURNDATASIZE PUSH1 0x0 DUP1 RETURNDATACOPY RETURNDATASIZE PUSH1 0x0 REVERT JUMPDEST POP POP POP POP JUMP JUMPDEST PUSH1 0x40 MLOAD DUP1 PUSH1 0x40 ADD PUSH1 0x40 MSTORE DUP1 PUSH1 0x0 DUP2 MSTORE PUSH1 0x20 ADD PUSH1 0x0 DUP2 MSTORE POP SWAP1 JUMP JUMPDEST PUSH1 0x0 DUP2 SWAP1 POP SWAP2 SWAP1 POP JUMP JUMPDEST PUSH2 0x60A DUP2 PUSH2 0x5F7 JUMP JUMPDEST DUP3 MSTORE POP POP JUMP JUMPDEST PUSH1 0x0 PUSH1 0x20 DUP3 ADD SWAP1 POP PUSH2 0x625 PUSH1 0x0 DUP4 ADD DUP5 PUSH2 0x601 JUMP JUMPDEST SWAP3 SWAP2 POP POP JUMP JUMPDEST PUSH1 0x0 DUP1 REVERT JUMPDEST PUSH1 0x0 PUSH20 0xFFFFFFFFFFFFFFFFFFFFFFFFFFFFFFFFFFFFFFFF DUP3 AND SWAP1 POP SWAP2 SWAP1 POP JUMP JUMPDEST PUSH1 0x0 PUSH2 0x65B DUP3 PUSH2 0x630 JUMP JUMPDEST SWAP1 POP SWAP2 SWAP1 POP JUMP JUMPDEST PUSH2 0x66B DUP2 PUSH2 0x650 JUMP JUMPDEST DUP2 EQ PUSH2 0x676 JUMPI PUSH1 0x0 DUP1 REVERT JUMPDEST POP JUMP JUMPDEST PUSH1 0x0 DUP2 CALLDATALOAD SWAP1 POP PUSH2 0x688 DUP2 PUSH2 0x662 JUMP JUMPDEST SWAP3 SWAP2 POP POP JUMP JUMPDEST PUSH2 0x697 DUP2 PUSH2 0x5F7 JUMP JUMPDEST DUP2 EQ PUSH2 0x6A2 JUMPI PUSH1 0x0 DUP1 REVERT JUMPDEST POP JUMP JUMPDEST PUSH1 0x0 DUP2 CALLDATALOAD SWAP1 POP PUSH2 0x6B4 DUP2 PUSH2 0x68E JUMP JUMPDEST SWAP3 SWAP2 POP POP JUMP JUMPDEST PUSH1 0x0 DUP1 PUSH1 0x40 DUP4 DUP6 SUB SLT ISZERO PUSH2 0x6D1 JUMPI PUSH2 0x6D0 PUSH2 0x62B JUMP JUMPDEST JUMPDEST PUSH1 0x0 PUSH2 0x6DF DUP6 DUP3 DUP7 ADD PUSH2 0x679 JUMP JUMPDEST SWAP3 POP POP PUSH1 0x20 PUSH2 0x6F0 DUP6 DUP3 DUP7 ADD PUSH2 0x6A5 JUMP JUMPDEST SWAP2 POP POP SWAP3 POP SWAP3 SWAP1 POP JUMP JUMPDEST PUSH2 0x703 DUP2 PUSH2 0x5F7 JUMP JUMPDEST DUP3 MSTORE POP POP JUMP JUMPDEST PUSH1 0x40 DUP3 ADD PUSH1 0x0 DUP3 ADD MLOAD PUSH2 0x71F PUSH1 0x0 DUP6 ADD DUP3 PUSH2 0x6FA JUMP JUMPDEST POP PUSH1 0x20 DUP3 ADD MLOAD PUSH2 0x732 PUSH1 0x20 DUP6 ADD DUP3 PUSH2 0x6FA JUMP JUMPDEST POP POP POP POP JUMP JUMPDEST PUSH1 0x0 PUSH1 0x40 DUP3 ADD SWAP1 POP PUSH2 0x74D PUSH1 0x0 DUP4 ADD DUP5 PUSH2 0x709 JUMP JUMPDEST SWAP3 SWAP2 POP POP JUMP JUMPDEST PUSH1 0x0 PUSH1 0x20 DUP3 DUP5 SUB SLT ISZERO PUSH2 0x769 JUMPI PUSH2 0x768 PUSH2 0x62B JUMP JUMPDEST JUMPDEST PUSH1 0x0 PUSH2 0x777 DUP5 DUP3 DUP6 ADD PUSH2 0x679 JUMP JUMPDEST SWAP2 POP POP SWAP3 SWAP2 POP POP JUMP JUMPDEST PUSH1 0x0 PUSH1 0x60 DUP3 ADD SWAP1 POP PUSH2 0x795 PUSH1 0x0 DUP4 ADD DUP7 PUSH2 0x601 JUMP JUMPDEST PUSH2 0x7A2 PUSH1 0x20 DUP4 ADD DUP6 PUSH2 0x601 JUMP JUMPDEST PUSH2 0x7AF PUSH1 0x40 DUP4 ADD DUP5 PUSH2 0x601 JUMP JUMPDEST SWAP5 SWAP4 POP POP POP POP JUMP JUMPDEST PUSH1 0x0 PUSH2 0x7C2 DUP3 PUSH2 0x630 JUMP JUMPDEST SWAP1 POP SWAP2 SWAP1 POP JUMP JUMPDEST PUSH2 0x7D2 DUP2 PUSH2 0x7B7 JUMP JUMPDEST DUP2 EQ PUSH2 0x7DD JUMPI PUSH1 0x0 DUP1 REVERT JUMPDEST POP JUMP JUMPDEST PUSH1 0x0 DUP2 CALLDATALOAD SWAP1 POP PUSH2 0x7EF DUP2 PUSH2 0x7C9 JUMP JUMPDEST SWAP3 SWAP2 POP POP JUMP JUMPDEST PUSH1 0x0 DUP1 PUSH1 0x40 DUP4 DUP6 SUB SLT ISZERO PUSH2 0x80C JUMPI PUSH2 0x80B PUSH2 0x62B JUMP JUMPDEST JUMPDEST PUSH1 0x0 PUSH2 0x81A DUP6 DUP3 DUP7 ADD PUSH2 0x7E0 JUMP JUMPDEST SWAP3 POP POP PUSH1 0x20 PUSH2 0x82B DUP6 DUP3 DUP7 ADD PUSH2 0x6A5 JUMP JUMPDEST SWAP2 POP POP SWAP3 POP SWAP3 SWAP1 POP JUMP JUMPDEST PUSH32 0x4E487B7100000000000000000000000000000000000000000000000000000000 PUSH1 0x0 MSTORE PUSH1 0x11 PUSH1 0x4 MSTORE PUSH1 0x24 PUSH1 0x0 REVERT JUMPDEST PUSH1 0x0 PUSH2 0x86F DUP3 PUSH2 0x5F7 JUMP JUMPDEST SWAP2 POP PUSH2 0x87A DUP4 PUSH2 0x5F7 JUMP JUMPDEST SWAP3 POP DUP3 DUP3 ADD SWAP1 POP DUP1 DUP3 GT ISZERO PUSH2 0x892 JUMPI PUSH2 0x891 PUSH2 0x835 JUMP JUMPDEST JUMPDEST SWAP3 SWAP2 POP POP JUMP JUMPDEST PUSH1 0x0 PUSH2 0x8A3 DUP3 PUSH2 0x5F7 JUMP JUMPDEST SWAP2 POP PUSH32 0xFFFFFFFFFFFFFFFFFFFFFFFFFFFFFFFFFFFFFFFFFFFFFFFFFFFFFFFFFFFFFFFF DUP3 SUB PUSH2 0x8D5 JUMPI PUSH2 0x8D4 PUSH2 0x835 JUMP JUMPDEST JUMPDEST PUSH1 0x1 DUP3 ADD SWAP1 POP SWAP2 SWAP1 POP JUMP JUMPDEST PUSH1 0x0 PUSH2 0x8EB DUP3 PUSH2 0x5F7 JUMP JUMPDEST SWAP2 POP PUSH2 0x8F6 DUP4 PUSH2 0x5F7 JUMP JUMPDEST SWAP3 POP DUP3 DUP3 SUB SWAP1 POP DUP2 DUP2 GT ISZERO PUSH2 0x90E JUMPI PUSH2 0x90D PUSH2 0x835 JUMP JUMPDEST JUMPDEST SWAP3 SWAP2 POP POP JUMP INVALID LOG2 PUSH5 0x6970667358 0x22 SLT KECCAK256 DELEGATECALL 0xBD OR SWAP13 GASLIMIT 0xBF STATICCALL 0xE5 LOG2 PUSH14 0x919A79F7AD1D8A1312870C14CCB4 0xA6 0xDD 0xB8 LT LOG2 SWAP8 PUSH17 0x2164736F6C634300081200330000000000 "
				},
				"gasEstimates": {
					"creation": {
						"codeDepositCost": "475600",
						"executionCost": "511",
						"totalCost": "476111"
					},
					"external": {
						"Balance()": "317",
						"DeposotMoney()": "infinite",
						"GetDepositData(address,uint256)": "infinite",
						"GetWithdrawData(address,uint256)": "infinite",
						"data(address)": "infinite",
						"withdraw(address,uint256)": "infinite"
					}
				},
				"methodIdentifiers": {
					"Balance()": "0ef67887",
					"DeposotMoney()": "1ad18ffd",
					"GetDepositData(address,uint256)": "b082e4b5",
					"GetWithdrawData(address,uint256)": "bddcddeb",
					"data(address)": "b90d3d0c",
					"withdraw(address,uint256)": "f3fef3a3"
				}
			},
			"storageLayout": {
				"storage": [
					{
						"astId": 60,
						"contract": "six.sol:wallet",
						"label": "data",
						"offset": 0,
						"slot": "0",
						"type": "t_mapping(t_address,t_struct(balance)55_storage)"
					}
				],
				"types": {
					"t_address": {
						"encoding": "inplace",
						"label": "address",
						"numberOfBytes": "20"
					},
					"t_mapping(t_address,t_struct(balance)55_storage)": {
						"encoding": "mapping",
						"key": "t_address",
						"label": "mapping(address => struct wallet.balance)",
						"numberOfBytes": "32",
						"value": "t_struct(balance)55_storage"
					},
					"t_mapping(t_uint256,t_struct(transection)38_storage)": {
						"encoding": "mapping",
						"key": "t_uint256",
						"label": "mapping(uint256 => struct wallet.transection)",
						"numberOfBytes": "32",
						"value": "t_struct(transection)38_storage"
					},
					"t_struct(balance)55_storage": {
						"encoding": "inplace",
						"label": "struct wallet.balance",
						"members": [
							{
								"astId": 40,
								"contract": "six.sol:wallet",
								"label": "totalbalance",
								"offset": 0,
								"slot": "0",
								"type": "t_uint256"
							},
							{
								"astId": 42,
								"contract": "six.sol:wallet",
								"label": "numdeposits",
								"offset": 0,
								"slot": "1",
								"type": "t_uint256"
							},
							{
								"astId": 47,
								"contract": "six.sol:wallet",
								"label": "deposits",
								"offset": 0,
								"slot": "2",
								"type": "t_mapping(t_uint256,t_struct(transection)38_storage)"
							},
							{
								"astId": 49,
								"contract": "six.sol:wallet",
								"label": "withdrawl",
								"offset": 0,
								"slot": "3",
								"type": "t_uint256"
							},
							{
								"astId": 54,
								"contract": "six.sol:wallet",
								"label": "withdrawls",
								"offset": 0,
								"slot": "4",
								"type": "t_mapping(t_uint256,t_struct(transection)38_storage)"
							}
						],
						"numberOfBytes": "160"
					},
					"t_struct(transection)38_storage": {
						"encoding": "inplace",
						"label": "struct wallet.transection",
						"members": [
							{
								"astId": 35,
								"contract": "six.sol:wallet",
								"label": "amount",
								"offset": 0,
								"slot": "0",
								"type": "t_uint256"
							},
							{
								"astId": 37,
								"contract": "six.sol:wallet",
								"label": "timestamp",
								"offset": 0,
								"slot": "1",
								"type": "t_uint256"
							}
						],
						"numberOfBytes": "64"
					},
					"t_uint256": {
						"encoding": "inplace",
						"label": "uint256",
						"numberOfBytes": "32"
					}
				}
			},
			"userdoc": {
				"kind": "user",
				"methods": {},
				"version": 1
			}
		}
	}
}