{
	"six.sol": {
		"test": {
			"abi": [
				{
					"inputs": [],
					"name": "getBookId",
					"outputs": [
						{
							"internalType": "string",
							"name": "",
							"type": "string"
						}
					],
					"stateMutability": "view",
					"type": "function"
				},
				{
					"inputs": [],
					"name": "setBook",
					"outputs": [],
					"stateMutability": "nonpayable",
					"type": "function"
				}
			],
			"devdoc": {
				"kind": "dev",
				"methods": {},
				"version": 1
			},
			"evm": {
				"assembly": "    /* \"six.sol\":412:713  contract test {... */\n  mstore(0x40, 0x80)\n  callvalue\n  dup1\n  iszero\n  tag_1\n  jumpi\n  0x00\n  dup1\n  revert\ntag_1:\n  pop\n  dataSize(sub_0)\n  dup1\n  dataOffset(sub_0)\n  0x00\n  codecopy\n  0x00\n  return\nstop\n\nsub_0: assembly {\n        /* \"six.sol\":412:713  contract test {... */\n      mstore(0x40, 0x80)\n      callvalue\n      dup1\n      iszero\n      tag_1\n      jumpi\n      0x00\n      dup1\n      revert\n    tag_1:\n      pop\n      jumpi(tag_2, lt(calldatasize, 0x04))\n      shr(0xe0, calldataload(0x00))\n      dup1\n      0x7310d33c\n      eq\n      tag_3\n      jumpi\n      dup1\n      0xd629546c\n      eq\n      tag_4\n      jumpi\n    tag_2:\n      0x00\n      dup1\n      revert\n        /* \"six.sol\":619:710  function getBookId() public view returns (string memory) {... */\n    tag_3:\n      tag_5\n      tag_6\n      jump\t// in\n    tag_5:\n      mload(0x40)\n      tag_7\n      swap2\n      swap1\n      tag_8\n      jump\t// in\n    tag_7:\n      mload(0x40)\n      dup1\n      swap2\n      sub\n      swap1\n      return\n        /* \"six.sol\":538:614  function setBook() public {... */\n    tag_4:\n      tag_9\n      tag_10\n      jump\t// in\n    tag_9:\n      stop\n        /* \"six.sol\":619:710  function getBookId() public view returns (string memory) {... */\n    tag_6:\n        /* \"six.sol\":661:674  string memory */\n      0x60\n        /* \"six.sol\":692:696  book */\n      0x00\n        /* \"six.sol\":692:703  book.author */\n      0x01\n      add\n        /* \"six.sol\":685:703  return book.author */\n      dup1\n      sload\n      tag_12\n      swap1\n      tag_13\n      jump\t// in\n    tag_12:\n      dup1\n      0x1f\n      add\n      0x20\n      dup1\n      swap2\n      div\n      mul\n      0x20\n      add\n      mload(0x40)\n      swap1\n      dup2\n      add\n      0x40\n      mstore\n      dup1\n      swap3\n      swap2\n      swap1\n      dup2\n      dup2\n      mstore\n      0x20\n      add\n      dup3\n      dup1\n      sload\n      tag_14\n      swap1\n      tag_13\n      jump\t// in\n    tag_14:\n      dup1\n      iszero\n      tag_15\n      jumpi\n      dup1\n      0x1f\n      lt\n      tag_16\n      jumpi\n      0x0100\n      dup1\n      dup4\n      sload\n      div\n      mul\n      dup4\n      mstore\n      swap2\n      0x20\n      add\n      swap2\n      jump(tag_15)\n    tag_16:\n      dup3\n      add\n      swap2\n      swap1\n      0x00\n      mstore\n      keccak256(0x00, 0x20)\n      swap1\n    tag_17:\n      dup2\n      sload\n      dup2\n      mstore\n      swap1\n      0x01\n      add\n      swap1\n      0x20\n      add\n      dup1\n      dup4\n      gt\n      tag_17\n      jumpi\n      dup3\n      swap1\n      sub\n      0x1f\n      and\n      dup3\n      add\n      swap2\n    tag_15:\n      pop\n      pop\n      pop\n      pop\n      pop\n      swap1\n      pop\n        /* \"six.sol\":619:710  function getBookId() public view returns (string memory) {... */\n      swap1\n      jump\t// out\n        /* \"six.sol\":538:614  function setBook() public {... */\n    tag_10:\n        /* \"six.sol\":580:607  Book('Learn Java', 'TP', 1) */\n      mload(0x40)\n      dup1\n      0x60\n      add\n      0x40\n      mstore\n      dup1\n      mload(0x40)\n      dup1\n      0x40\n      add\n      0x40\n      mstore\n      dup1\n      0x0a\n      dup2\n      mstore\n      0x20\n      add\n      0x4c6561726e204a61766100000000000000000000000000000000000000000000\n      dup2\n      mstore\n      pop\n      dup2\n      mstore\n      0x20\n      add\n      mload(0x40)\n      dup1\n      0x40\n      add\n      0x40\n      mstore\n      dup1\n      0x02\n      dup2\n      mstore\n      0x20\n      add\n      0x5450000000000000000000000000000000000000000000000000000000000000\n      dup2\n      mstore\n      pop\n      dup2\n      mstore\n      0x20\n      add\n        /* \"six.sol\":605:606  1 */\n      0x01\n        /* \"six.sol\":580:607  Book('Learn Java', 'TP', 1) */\n      dup2\n      mstore\n      pop\n        /* \"six.sol\":573:577  book */\n      0x00\n        /* \"six.sol\":573:607  book = Book('Learn Java', 'TP', 1) */\n      dup1\n      dup3\n      add\n      mload\n      dup2\n      0x00\n      add\n      swap1\n      dup2\n      tag_19\n      swap2\n      swap1\n      tag_20\n      jump\t// in\n    tag_19:\n      pop\n      0x20\n      dup3\n      add\n      mload\n      dup2\n      0x01\n      add\n      swap1\n      dup2\n      tag_21\n      swap2\n      swap1\n      tag_20\n      jump\t// in\n    tag_21:\n      pop\n      0x40\n      dup3\n      add\n      mload\n      dup2\n      0x02\n      add\n      sstore\n      swap1\n      pop\n      pop\n        /* \"six.sol\":538:614  function setBook() public {... */\n      jump\t// out\n        /* \"#utility.yul\":7:106   */\n    tag_22:\n        /* \"#utility.yul\":59:65   */\n      0x00\n        /* \"#utility.yul\":93:98   */\n      dup2\n        /* \"#utility.yul\":87:99   */\n      mload\n        /* \"#utility.yul\":77:99   */\n      swap1\n      pop\n        /* \"#utility.yul\":7:106   */\n      swap2\n      swap1\n      pop\n      jump\t// out\n        /* \"#utility.yul\":112:281   */\n    tag_23:\n        /* \"#utility.yul\":196:207   */\n      0x00\n        /* \"#utility.yul\":230:236   */\n      dup3\n        /* \"#utility.yul\":225:228   */\n      dup3\n        /* \"#utility.yul\":218:237   */\n      mstore\n        /* \"#utility.yul\":270:274   */\n      0x20\n        /* \"#utility.yul\":265:268   */\n      dup3\n        /* \"#utility.yul\":261:275   */\n      add\n        /* \"#utility.yul\":246:275   */\n      swap1\n      pop\n        /* \"#utility.yul\":112:281   */\n      swap3\n      swap2\n      pop\n      pop\n      jump\t// out\n        /* \"#utility.yul\":287:533   */\n    tag_24:\n        /* \"#utility.yul\":368:369   */\n      0x00\n        /* \"#utility.yul\":378:491   */\n    tag_49:\n        /* \"#utility.yul\":392:398   */\n      dup4\n        /* \"#utility.yul\":389:390   */\n      dup2\n        /* \"#utility.yul\":386:399   */\n      lt\n        /* \"#utility.yul\":378:491   */\n      iszero\n      tag_51\n      jumpi\n        /* \"#utility.yul\":477:478   */\n      dup1\n        /* \"#utility.yul\":472:475   */\n      dup3\n        /* \"#utility.yul\":468:479   */\n      add\n        /* \"#utility.yul\":462:480   */\n      mload\n        /* \"#utility.yul\":458:459   */\n      dup2\n        /* \"#utility.yul\":453:456   */\n      dup5\n        /* \"#utility.yul\":449:460   */\n      add\n        /* \"#utility.yul\":442:481   */\n      mstore\n        /* \"#utility.yul\":414:416   */\n      0x20\n        /* \"#utility.yul\":411:412   */\n      dup2\n        /* \"#utility.yul\":407:417   */\n      add\n        /* \"#utility.yul\":402:417   */\n      swap1\n      pop\n        /* \"#utility.yul\":378:491   */\n      jump(tag_49)\n    tag_51:\n        /* \"#utility.yul\":525:526   */\n      0x00\n        /* \"#utility.yul\":516:522   */\n      dup5\n        /* \"#utility.yul\":511:514   */\n      dup5\n        /* \"#utility.yul\":507:523   */\n      add\n        /* \"#utility.yul\":500:527   */\n      mstore\n        /* \"#utility.yul\":349:533   */\n      pop\n        /* \"#utility.yul\":287:533   */\n      pop\n      pop\n      pop\n      jump\t// out\n        /* \"#utility.yul\":539:641   */\n    tag_25:\n        /* \"#utility.yul\":580:586   */\n      0x00\n        /* \"#utility.yul\":631:633   */\n      0x1f\n        /* \"#utility.yul\":627:634   */\n      not\n        /* \"#utility.yul\":622:624   */\n      0x1f\n        /* \"#utility.yul\":615:620   */\n      dup4\n        /* \"#utility.yul\":611:625   */\n      add\n        /* \"#utility.yul\":607:635   */\n      and\n        /* \"#utility.yul\":597:635   */\n      swap1\n      pop\n        /* \"#utility.yul\":539:641   */\n      swap2\n      swap1\n      pop\n      jump\t// out\n        /* \"#utility.yul\":647:1024   */\n    tag_26:\n        /* \"#utility.yul\":735:738   */\n      0x00\n        /* \"#utility.yul\":763:802   */\n      tag_54\n        /* \"#utility.yul\":796:801   */\n      dup3\n        /* \"#utility.yul\":763:802   */\n      tag_22\n      jump\t// in\n    tag_54:\n        /* \"#utility.yul\":818:889   */\n      tag_55\n        /* \"#utility.yul\":882:888   */\n      dup2\n        /* \"#utility.yul\":877:880   */\n      dup6\n        /* \"#utility.yul\":818:889   */\n      tag_23\n      jump\t// in\n    tag_55:\n        /* \"#utility.yul\":811:889   */\n      swap4\n      pop\n        /* \"#utility.yul\":898:963   */\n      tag_56\n        /* \"#utility.yul\":956:962   */\n      dup2\n        /* \"#utility.yul\":951:954   */\n      dup6\n        /* \"#utility.yul\":944:948   */\n      0x20\n        /* \"#utility.yul\":937:942   */\n      dup7\n        /* \"#utility.yul\":933:949   */\n      add\n        /* \"#utility.yul\":898:963   */\n      tag_24\n      jump\t// in\n    tag_56:\n        /* \"#utility.yul\":988:1017   */\n      tag_57\n        /* \"#utility.yul\":1010:1016   */\n      dup2\n        /* \"#utility.yul\":988:1017   */\n      tag_25\n      jump\t// in\n    tag_57:\n        /* \"#utility.yul\":983:986   */\n      dup5\n        /* \"#utility.yul\":979:1018   */\n      add\n        /* \"#utility.yul\":972:1018   */\n      swap2\n      pop\n        /* \"#utility.yul\":739:1024   */\n      pop\n        /* \"#utility.yul\":647:1024   */\n      swap3\n      swap2\n      pop\n      pop\n      jump\t// out\n        /* \"#utility.yul\":1030:1343   */\n    tag_8:\n        /* \"#utility.yul\":1143:1147   */\n      0x00\n        /* \"#utility.yul\":1181:1183   */\n      0x20\n        /* \"#utility.yul\":1170:1179   */\n      dup3\n        /* \"#utility.yul\":1166:1184   */\n      add\n        /* \"#utility.yul\":1158:1184   */\n      swap1\n      pop\n        /* \"#utility.yul\":1230:1239   */\n      dup2\n        /* \"#utility.yul\":1224:1228   */\n      dup2\n        /* \"#utility.yul\":1220:1240   */\n      sub\n        /* \"#utility.yul\":1216:1217   */\n      0x00\n        /* \"#utility.yul\":1205:1214   */\n      dup4\n        /* \"#utility.yul\":1201:1218   */\n      add\n        /* \"#utility.yul\":1194:1241   */\n      mstore\n        /* \"#utility.yul\":1258:1336   */\n      tag_59\n        /* \"#utility.yul\":1331:1335   */\n      dup2\n        /* \"#utility.yul\":1322:1328   */\n      dup5\n        /* \"#utility.yul\":1258:1336   */\n      tag_26\n      jump\t// in\n    tag_59:\n        /* \"#utility.yul\":1250:1336   */\n      swap1\n      pop\n        /* \"#utility.yul\":1030:1343   */\n      swap3\n      swap2\n      pop\n      pop\n      jump\t// out\n        /* \"#utility.yul\":1349:1529   */\n    tag_27:\n        /* \"#utility.yul\":1397:1474   */\n      0x4e487b7100000000000000000000000000000000000000000000000000000000\n        /* \"#utility.yul\":1394:1395   */\n      0x00\n        /* \"#utility.yul\":1387:1475   */\n      mstore\n        /* \"#utility.yul\":1494:1498   */\n      0x22\n        /* \"#utility.yul\":1491:1492   */\n      0x04\n        /* \"#utility.yul\":1484:1499   */\n      mstore\n        /* \"#utility.yul\":1518:1522   */\n      0x24\n        /* \"#utility.yul\":1515:1516   */\n      0x00\n        /* \"#utility.yul\":1508:1523   */\n      revert\n        /* \"#utility.yul\":1535:1855   */\n    tag_13:\n        /* \"#utility.yul\":1579:1585   */\n      0x00\n        /* \"#utility.yul\":1616:1617   */\n      0x02\n        /* \"#utility.yul\":1610:1614   */\n      dup3\n        /* \"#utility.yul\":1606:1618   */\n      div\n        /* \"#utility.yul\":1596:1618   */\n      swap1\n      pop\n        /* \"#utility.yul\":1663:1664   */\n      0x01\n        /* \"#utility.yul\":1657:1661   */\n      dup3\n        /* \"#utility.yul\":1653:1665   */\n      and\n        /* \"#utility.yul\":1684:1702   */\n      dup1\n        /* \"#utility.yul\":1674:1755   */\n      tag_62\n      jumpi\n        /* \"#utility.yul\":1740:1744   */\n      0x7f\n        /* \"#utility.yul\":1732:1738   */\n      dup3\n        /* \"#utility.yul\":1728:1745   */\n      and\n        /* \"#utility.yul\":1718:1745   */\n      swap2\n      pop\n        /* \"#utility.yul\":1674:1755   */\n    tag_62:\n        /* \"#utility.yul\":1802:1804   */\n      0x20\n        /* \"#utility.yul\":1794:1800   */\n      dup3\n        /* \"#utility.yul\":1791:1805   */\n      lt\n        /* \"#utility.yul\":1771:1789   */\n      dup2\n        /* \"#utility.yul\":1768:1806   */\n      sub\n        /* \"#utility.yul\":1765:1849   */\n      tag_63\n      jumpi\n        /* \"#utility.yul\":1821:1839   */\n      tag_64\n      tag_27\n      jump\t// in\n    tag_64:\n        /* \"#utility.yul\":1765:1849   */\n    tag_63:\n        /* \"#utility.yul\":1586:1855   */\n      pop\n        /* \"#utility.yul\":1535:1855   */\n      swap2\n      swap1\n      pop\n      jump\t// out\n        /* \"#utility.yul\":1861:2041   */\n    tag_28:\n        /* \"#utility.yul\":1909:1986   */\n      0x4e487b7100000000000000000000000000000000000000000000000000000000\n        /* \"#utility.yul\":1906:1907   */\n      0x00\n        /* \"#utility.yul\":1899:1987   */\n      mstore\n        /* \"#utility.yul\":2006:2010   */\n      0x41\n        /* \"#utility.yul\":2003:2004   */\n      0x04\n        /* \"#utility.yul\":1996:2011   */\n      mstore\n        /* \"#utility.yul\":2030:2034   */\n      0x24\n        /* \"#utility.yul\":2027:2028   */\n      0x00\n        /* \"#utility.yul\":2020:2035   */\n      revert\n        /* \"#utility.yul\":2047:2188   */\n    tag_29:\n        /* \"#utility.yul\":2096:2100   */\n      0x00\n        /* \"#utility.yul\":2119:2122   */\n      dup2\n        /* \"#utility.yul\":2111:2122   */\n      swap1\n      pop\n        /* \"#utility.yul\":2142:2145   */\n      dup2\n        /* \"#utility.yul\":2139:2140   */\n      0x00\n        /* \"#utility.yul\":2132:2146   */\n      mstore\n        /* \"#utility.yul\":2176:2180   */\n      0x20\n        /* \"#utility.yul\":2173:2174   */\n      0x00\n        /* \"#utility.yul\":2163:2181   */\n      keccak256\n        /* \"#utility.yul\":2155:2181   */\n      swap1\n      pop\n        /* \"#utility.yul\":2047:2188   */\n      swap2\n      swap1\n      pop\n      jump\t// out\n        /* \"#utility.yul\":2194:2287   */\n    tag_30:\n        /* \"#utility.yul\":2231:2237   */\n      0x00\n        /* \"#utility.yul\":2278:2280   */\n      0x20\n        /* \"#utility.yul\":2273:2275   */\n      0x1f\n        /* \"#utility.yul\":2266:2271   */\n      dup4\n        /* \"#utility.yul\":2262:2276   */\n      add\n        /* \"#utility.yul\":2258:2281   */\n      div\n        /* \"#utility.yul\":2248:2281   */\n      swap1\n      pop\n        /* \"#utility.yul\":2194:2287   */\n      swap2\n      swap1\n      pop\n      jump\t// out\n        /* \"#utility.yul\":2293:2400   */\n    tag_31:\n        /* \"#utility.yul\":2337:2345   */\n      0x00\n        /* \"#utility.yul\":2387:2392   */\n      dup3\n        /* \"#utility.yul\":2381:2385   */\n      dup3\n        /* \"#utility.yul\":2377:2393   */\n      shl\n        /* \"#utility.yul\":2356:2393   */\n      swap1\n      pop\n        /* \"#utility.yul\":2293:2400   */\n      swap3\n      swap2\n      pop\n      pop\n      jump\t// out\n        /* \"#utility.yul\":2406:2799   */\n    tag_32:\n        /* \"#utility.yul\":2475:2481   */\n      0x00\n        /* \"#utility.yul\":2525:2526   */\n      0x08\n        /* \"#utility.yul\":2513:2523   */\n      dup4\n        /* \"#utility.yul\":2509:2527   */\n      mul\n        /* \"#utility.yul\":2548:2645   */\n      tag_70\n        /* \"#utility.yul\":2578:2644   */\n      0xffffffffffffffffffffffffffffffffffffffffffffffffffffffffffffffff\n        /* \"#utility.yul\":2567:2576   */\n      dup3\n        /* \"#utility.yul\":2548:2645   */\n      tag_31\n      jump\t// in\n    tag_70:\n        /* \"#utility.yul\":2666:2705   */\n      tag_71\n        /* \"#utility.yul\":2696:2704   */\n      dup7\n        /* \"#utility.yul\":2685:2694   */\n      dup4\n        /* \"#utility.yul\":2666:2705   */\n      tag_31\n      jump\t// in\n    tag_71:\n        /* \"#utility.yul\":2654:2705   */\n      swap6\n      pop\n        /* \"#utility.yul\":2738:2742   */\n      dup1\n        /* \"#utility.yul\":2734:2743   */\n      not\n        /* \"#utility.yul\":2727:2732   */\n      dup5\n        /* \"#utility.yul\":2723:2744   */\n      and\n        /* \"#utility.yul\":2714:2744   */\n      swap4\n      pop\n        /* \"#utility.yul\":2787:2791   */\n      dup1\n        /* \"#utility.yul\":2777:2785   */\n      dup7\n        /* \"#utility.yul\":2773:2792   */\n      and\n        /* \"#utility.yul\":2766:2771   */\n      dup5\n        /* \"#utility.yul\":2763:2793   */\n      or\n        /* \"#utility.yul\":2753:2793   */\n      swap3\n      pop\n        /* \"#utility.yul\":2482:2799   */\n      pop\n      pop\n        /* \"#utility.yul\":2406:2799   */\n      swap4\n      swap3\n      pop\n      pop\n      pop\n      jump\t// out\n        /* \"#utility.yul\":2805:2882   */\n    tag_33:\n        /* \"#utility.yul\":2842:2849   */\n      0x00\n        /* \"#utility.yul\":2871:2876   */\n      dup2\n        /* \"#utility.yul\":2860:2876   */\n      swap1\n      pop\n        /* \"#utility.yul\":2805:2882   */\n      swap2\n      swap1\n      pop\n      jump\t// out\n        /* \"#utility.yul\":2888:2948   */\n    tag_34:\n        /* \"#utility.yul\":2916:2919   */\n      0x00\n        /* \"#utility.yul\":2937:2942   */\n      dup2\n        /* \"#utility.yul\":2930:2942   */\n      swap1\n      pop\n        /* \"#utility.yul\":2888:2948   */\n      swap2\n      swap1\n      pop\n      jump\t// out\n        /* \"#utility.yul\":2954:3096   */\n    tag_35:\n        /* \"#utility.yul\":3004:3013   */\n      0x00\n        /* \"#utility.yul\":3037:3090   */\n      tag_75\n        /* \"#utility.yul\":3055:3089   */\n      tag_76\n        /* \"#utility.yul\":3064:3088   */\n      tag_77\n        /* \"#utility.yul\":3082:3087   */\n      dup5\n        /* \"#utility.yul\":3064:3088   */\n      tag_33\n      jump\t// in\n    tag_77:\n        /* \"#utility.yul\":3055:3089   */\n      tag_34\n      jump\t// in\n    tag_76:\n        /* \"#utility.yul\":3037:3090   */\n      tag_33\n      jump\t// in\n    tag_75:\n        /* \"#utility.yul\":3024:3090   */\n      swap1\n      pop\n        /* \"#utility.yul\":2954:3096   */\n      swap2\n      swap1\n      pop\n      jump\t// out\n        /* \"#utility.yul\":3102:3177   */\n    tag_36:\n        /* \"#utility.yul\":3145:3148   */\n      0x00\n        /* \"#utility.yul\":3166:3171   */\n      dup2\n        /* \"#utility.yul\":3159:3171   */\n      swap1\n      pop\n        /* \"#utility.yul\":3102:3177   */\n      swap2\n      swap1\n      pop\n      jump\t// out\n        /* \"#utility.yul\":3183:3452   */\n    tag_37:\n        /* \"#utility.yul\":3293:3332   */\n      tag_80\n        /* \"#utility.yul\":3324:3331   */\n      dup4\n        /* \"#utility.yul\":3293:3332   */\n      tag_35\n      jump\t// in\n    tag_80:\n        /* \"#utility.yul\":3354:3445   */\n      tag_81\n        /* \"#utility.yul\":3403:3444   */\n      tag_82\n        /* \"#utility.yul\":3427:3443   */\n      dup3\n        /* \"#utility.yul\":3403:3444   */\n      tag_36\n      jump\t// in\n    tag_82:\n        /* \"#utility.yul\":3395:3401   */\n      dup5\n        /* \"#utility.yul\":3388:3392   */\n      dup5\n        /* \"#utility.yul\":3382:3393   */\n      sload\n        /* \"#utility.yul\":3354:3445   */\n      tag_32\n      jump\t// in\n    tag_81:\n        /* \"#utility.yul\":3348:3352   */\n      dup3\n        /* \"#utility.yul\":3341:3446   */\n      sstore\n        /* \"#utility.yul\":3259:3452   */\n      pop\n        /* \"#utility.yul\":3183:3452   */\n      pop\n      pop\n      pop\n      jump\t// out\n        /* \"#utility.yul\":3458:3531   */\n    tag_38:\n        /* \"#utility.yul\":3503:3506   */\n      0x00\n        /* \"#utility.yul\":3458:3531   */\n      swap1\n      jump\t// out\n        /* \"#utility.yul\":3537:3726   */\n    tag_39:\n        /* \"#utility.yul\":3614:3646   */\n      tag_85\n      tag_38\n      jump\t// in\n    tag_85:\n        /* \"#utility.yul\":3655:3720   */\n      tag_86\n        /* \"#utility.yul\":3713:3719   */\n      dup2\n        /* \"#utility.yul\":3705:3711   */\n      dup5\n        /* \"#utility.yul\":3699:3703   */\n      dup5\n        /* \"#utility.yul\":3655:3720   */\n      tag_37\n      jump\t// in\n    tag_86:\n        /* \"#utility.yul\":3590:3726   */\n      pop\n        /* \"#utility.yul\":3537:3726   */\n      pop\n      pop\n      jump\t// out\n        /* \"#utility.yul\":3732:3918   */\n    tag_40:\n        /* \"#utility.yul\":3792:3912   */\n    tag_88:\n        /* \"#utility.yul\":3809:3812   */\n      dup2\n        /* \"#utility.yul\":3802:3807   */\n      dup2\n        /* \"#utility.yul\":3799:3813   */\n      lt\n        /* \"#utility.yul\":3792:3912   */\n      iszero\n      tag_90\n      jumpi\n        /* \"#utility.yul\":3863:3902   */\n      tag_91\n        /* \"#utility.yul\":3900:3901   */\n      0x00\n        /* \"#utility.yul\":3893:3898   */\n      dup3\n        /* \"#utility.yul\":3863:3902   */\n      tag_39\n      jump\t// in\n    tag_91:\n        /* \"#utility.yul\":3836:3837   */\n      0x01\n        /* \"#utility.yul\":3829:3834   */\n      dup2\n        /* \"#utility.yul\":3825:3838   */\n      add\n        /* \"#utility.yul\":3816:3838   */\n      swap1\n      pop\n        /* \"#utility.yul\":3792:3912   */\n      jump(tag_88)\n    tag_90:\n        /* \"#utility.yul\":3732:3918   */\n      pop\n      pop\n      jump\t// out\n        /* \"#utility.yul\":3924:4467   */\n    tag_41:\n        /* \"#utility.yul\":4025:4027   */\n      0x1f\n        /* \"#utility.yul\":4020:4023   */\n      dup3\n        /* \"#utility.yul\":4017:4028   */\n      gt\n        /* \"#utility.yul\":4014:4460   */\n      iszero\n      tag_93\n      jumpi\n        /* \"#utility.yul\":4059:4097   */\n      tag_94\n        /* \"#utility.yul\":4091:4096   */\n      dup2\n        /* \"#utility.yul\":4059:4097   */\n      tag_29\n      jump\t// in\n    tag_94:\n        /* \"#utility.yul\":4143:4172   */\n      tag_95\n        /* \"#utility.yul\":4161:4171   */\n      dup5\n        /* \"#utility.yul\":4143:4172   */\n      tag_30\n      jump\t// in\n    tag_95:\n        /* \"#utility.yul\":4133:4141   */\n      dup2\n        /* \"#utility.yul\":4129:4173   */\n      add\n        /* \"#utility.yul\":4326:4328   */\n      0x20\n        /* \"#utility.yul\":4314:4324   */\n      dup6\n        /* \"#utility.yul\":4311:4329   */\n      lt\n        /* \"#utility.yul\":4308:4357   */\n      iszero\n      tag_96\n      jumpi\n        /* \"#utility.yul\":4347:4355   */\n      dup2\n        /* \"#utility.yul\":4332:4355   */\n      swap1\n      pop\n        /* \"#utility.yul\":4308:4357   */\n    tag_96:\n        /* \"#utility.yul\":4370:4450   */\n      tag_97\n        /* \"#utility.yul\":4426:4448   */\n      tag_98\n        /* \"#utility.yul\":4444:4447   */\n      dup6\n        /* \"#utility.yul\":4426:4448   */\n      tag_30\n      jump\t// in\n    tag_98:\n        /* \"#utility.yul\":4416:4424   */\n      dup4\n        /* \"#utility.yul\":4412:4449   */\n      add\n        /* \"#utility.yul\":4399:4410   */\n      dup3\n        /* \"#utility.yul\":4370:4450   */\n      tag_40\n      jump\t// in\n    tag_97:\n        /* \"#utility.yul\":4029:4460   */\n      pop\n      pop\n        /* \"#utility.yul\":4014:4460   */\n    tag_93:\n        /* \"#utility.yul\":3924:4467   */\n      pop\n      pop\n      pop\n      jump\t// out\n        /* \"#utility.yul\":4473:4590   */\n    tag_42:\n        /* \"#utility.yul\":4527:4535   */\n      0x00\n        /* \"#utility.yul\":4577:4582   */\n      dup3\n        /* \"#utility.yul\":4571:4575   */\n      dup3\n        /* \"#utility.yul\":4567:4583   */\n      shr\n        /* \"#utility.yul\":4546:4583   */\n      swap1\n      pop\n        /* \"#utility.yul\":4473:4590   */\n      swap3\n      swap2\n      pop\n      pop\n      jump\t// out\n        /* \"#utility.yul\":4596:4765   */\n    tag_43:\n        /* \"#utility.yul\":4640:4646   */\n      0x00\n        /* \"#utility.yul\":4673:4724   */\n      tag_101\n        /* \"#utility.yul\":4721:4722   */\n      0x00\n        /* \"#utility.yul\":4717:4723   */\n      not\n        /* \"#utility.yul\":4709:4714   */\n      dup5\n        /* \"#utility.yul\":4706:4707   */\n      0x08\n        /* \"#utility.yul\":4702:4715   */\n      mul\n        /* \"#utility.yul\":4673:4724   */\n      tag_42\n      jump\t// in\n    tag_101:\n        /* \"#utility.yul\":4669:4725   */\n      not\n        /* \"#utility.yul\":4754:4758   */\n      dup1\n        /* \"#utility.yul\":4748:4752   */\n      dup4\n        /* \"#utility.yul\":4744:4759   */\n      and\n        /* \"#utility.yul\":4734:4759   */\n      swap2\n      pop\n        /* \"#utility.yul\":4647:4765   */\n      pop\n        /* \"#utility.yul\":4596:4765   */\n      swap3\n      swap2\n      pop\n      pop\n      jump\t// out\n        /* \"#utility.yul\":4770:5065   */\n    tag_44:\n        /* \"#utility.yul\":4846:4850   */\n      0x00\n        /* \"#utility.yul\":4992:5021   */\n      tag_103\n        /* \"#utility.yul\":5017:5020   */\n      dup4\n        /* \"#utility.yul\":5011:5015   */\n      dup4\n        /* \"#utility.yul\":4992:5021   */\n      tag_43\n      jump\t// in\n    tag_103:\n        /* \"#utility.yul\":4984:5021   */\n      swap2\n      pop\n        /* \"#utility.yul\":5054:5057   */\n      dup3\n        /* \"#utility.yul\":5051:5052   */\n      0x02\n        /* \"#utility.yul\":5047:5058   */\n      mul\n        /* \"#utility.yul\":5041:5045   */\n      dup3\n        /* \"#utility.yul\":5038:5059   */\n      or\n        /* \"#utility.yul\":5030:5059   */\n      swap1\n      pop\n        /* \"#utility.yul\":4770:5065   */\n      swap3\n      swap2\n      pop\n      pop\n      jump\t// out\n        /* \"#utility.yul\":5070:6465   */\n    tag_20:\n        /* \"#utility.yul\":5187:5224   */\n      tag_105\n        /* \"#utility.yul\":5220:5223   */\n      dup3\n        /* \"#utility.yul\":5187:5224   */\n      tag_22\n      jump\t// in\n    tag_105:\n        /* \"#utility.yul\":5289:5307   */\n      0xffffffffffffffff\n        /* \"#utility.yul\":5281:5287   */\n      dup2\n        /* \"#utility.yul\":5278:5308   */\n      gt\n        /* \"#utility.yul\":5275:5331   */\n      iszero\n      tag_106\n      jumpi\n        /* \"#utility.yul\":5311:5329   */\n      tag_107\n      tag_28\n      jump\t// in\n    tag_107:\n        /* \"#utility.yul\":5275:5331   */\n    tag_106:\n        /* \"#utility.yul\":5355:5393   */\n      tag_108\n        /* \"#utility.yul\":5387:5391   */\n      dup3\n        /* \"#utility.yul\":5381:5392   */\n      sload\n        /* \"#utility.yul\":5355:5393   */\n      tag_13\n      jump\t// in\n    tag_108:\n        /* \"#utility.yul\":5440:5507   */\n      tag_109\n        /* \"#utility.yul\":5500:5506   */\n      dup3\n        /* \"#utility.yul\":5492:5498   */\n      dup3\n        /* \"#utility.yul\":5486:5490   */\n      dup6\n        /* \"#utility.yul\":5440:5507   */\n      tag_41\n      jump\t// in\n    tag_109:\n        /* \"#utility.yul\":5534:5535   */\n      0x00\n        /* \"#utility.yul\":5558:5562   */\n      0x20\n        /* \"#utility.yul\":5545:5562   */\n      swap1\n      pop\n        /* \"#utility.yul\":5590:5592   */\n      0x1f\n        /* \"#utility.yul\":5582:5588   */\n      dup4\n        /* \"#utility.yul\":5579:5593   */\n      gt\n        /* \"#utility.yul\":5607:5608   */\n      0x01\n        /* \"#utility.yul\":5602:6220   */\n      dup2\n      eq\n      tag_111\n      jumpi\n        /* \"#utility.yul\":6264:6265   */\n      0x00\n        /* \"#utility.yul\":6281:6287   */\n      dup5\n        /* \"#utility.yul\":6278:6355   */\n      iszero\n      tag_112\n      jumpi\n        /* \"#utility.yul\":6330:6339   */\n      dup3\n        /* \"#utility.yul\":6325:6328   */\n      dup8\n        /* \"#utility.yul\":6321:6340   */\n      add\n        /* \"#utility.yul\":6315:6341   */\n      mload\n        /* \"#utility.yul\":6306:6341   */\n      swap1\n      pop\n        /* \"#utility.yul\":6278:6355   */\n    tag_112:\n        /* \"#utility.yul\":6381:6448   */\n      tag_113\n        /* \"#utility.yul\":6441:6447   */\n      dup6\n        /* \"#utility.yul\":6434:6439   */\n      dup3\n        /* \"#utility.yul\":6381:6448   */\n      tag_44\n      jump\t// in\n    tag_113:\n        /* \"#utility.yul\":6375:6379   */\n      dup7\n        /* \"#utility.yul\":6368:6449   */\n      sstore\n        /* \"#utility.yul\":6237:6459   */\n      pop\n        /* \"#utility.yul\":5572:6459   */\n      jump(tag_110)\n        /* \"#utility.yul\":5602:6220   */\n    tag_111:\n        /* \"#utility.yul\":5654:5658   */\n      0x1f\n        /* \"#utility.yul\":5650:5659   */\n      not\n        /* \"#utility.yul\":5642:5648   */\n      dup5\n        /* \"#utility.yul\":5638:5660   */\n      and\n        /* \"#utility.yul\":5688:5725   */\n      tag_114\n        /* \"#utility.yul\":5720:5724   */\n      dup7\n        /* \"#utility.yul\":5688:5725   */\n      tag_29\n      jump\t// in\n    tag_114:\n        /* \"#utility.yul\":5747:5748   */\n      0x00\n        /* \"#utility.yul\":5761:5969   */\n    tag_115:\n        /* \"#utility.yul\":5775:5782   */\n      dup3\n        /* \"#utility.yul\":5772:5773   */\n      dup2\n        /* \"#utility.yul\":5769:5783   */\n      lt\n        /* \"#utility.yul\":5761:5969   */\n      iszero\n      tag_117\n      jumpi\n        /* \"#utility.yul\":5854:5863   */\n      dup5\n        /* \"#utility.yul\":5849:5852   */\n      dup10\n        /* \"#utility.yul\":5845:5864   */\n      add\n        /* \"#utility.yul\":5839:5865   */\n      mload\n        /* \"#utility.yul\":5831:5837   */\n      dup3\n        /* \"#utility.yul\":5824:5866   */\n      sstore\n        /* \"#utility.yul\":5905:5906   */\n      0x01\n        /* \"#utility.yul\":5897:5903   */\n      dup3\n        /* \"#utility.yul\":5893:5907   */\n      add\n        /* \"#utility.yul\":5883:5907   */\n      swap2\n      pop\n        /* \"#utility.yul\":5952:5954   */\n      0x20\n        /* \"#utility.yul\":5941:5950   */\n      dup6\n        /* \"#utility.yul\":5937:5955   */\n      add\n        /* \"#utility.yul\":5924:5955   */\n      swap5\n      pop\n        /* \"#utility.yul\":5798:5802   */\n      0x20\n        /* \"#utility.yul\":5795:5796   */\n      dup2\n        /* \"#utility.yul\":5791:5803   */\n      add\n        /* \"#utility.yul\":5786:5803   */\n      swap1\n      pop\n        /* \"#utility.yul\":5761:5969   */\n      jump(tag_115)\n    tag_117:\n        /* \"#utility.yul\":5997:6003   */\n      dup7\n        /* \"#utility.yul\":5988:5995   */\n      dup4\n        /* \"#utility.yul\":5985:6004   */\n      lt\n        /* \"#utility.yul\":5982:6161   */\n      iszero\n      tag_118\n      jumpi\n        /* \"#utility.yul\":6055:6064   */\n      dup5\n        /* \"#utility.yul\":6050:6053   */\n      dup10\n        /* \"#utility.yul\":6046:6065   */\n      add\n        /* \"#utility.yul\":6040:6066   */\n      mload\n        /* \"#utility.yul\":6098:6146   */\n      tag_119\n        /* \"#utility.yul\":6140:6144   */\n      0x1f\n        /* \"#utility.yul\":6132:6138   */\n      dup10\n        /* \"#utility.yul\":6128:6145   */\n      and\n        /* \"#utility.yul\":6117:6126   */\n      dup3\n        /* \"#utility.yul\":6098:6146   */\n      tag_43\n      jump\t// in\n    tag_119:\n        /* \"#utility.yul\":6090:6096   */\n      dup4\n        /* \"#utility.yul\":6083:6147   */\n      sstore\n        /* \"#utility.yul\":6005:6161   */\n      pop\n        /* \"#utility.yul\":5982:6161   */\n    tag_118:\n        /* \"#utility.yul\":6207:6208   */\n      0x01\n        /* \"#utility.yul\":6203:6204   */\n      0x02\n        /* \"#utility.yul\":6195:6201   */\n      dup9\n        /* \"#utility.yul\":6191:6205   */\n      mul\n        /* \"#utility.yul\":6187:6209   */\n      add\n        /* \"#utility.yul\":6181:6185   */\n      dup9\n        /* \"#utility.yul\":6174:6210   */\n      sstore\n        /* \"#utility.yul\":5609:6220   */\n      pop\n      pop\n      pop\n        /* \"#utility.yul\":5572:6459   */\n    tag_110:\n      pop\n        /* \"#utility.yul\":5162:6465   */\n      pop\n      pop\n      pop\n        /* \"#utility.yul\":5070:6465   */\n      pop\n      pop\n      jump\t// out\n\n    auxdata: 0xa2646970667358221220e427737e8c49831b8f90a4a7de8c89129586faae82ab59a966e45f6a6a6c44a664736f6c63430008120033\n}\n",
				"bytecode": {
					"linkReferences": {},
					"object": "608060405234801561001057600080fd5b506105b9806100206000396000f3fe608060405234801561001057600080fd5b50600436106100365760003560e01c80637310d33c1461003b578063d629546c14610059575b600080fd5b610043610063565b604051610050919061024a565b60405180910390f35b6100616100f8565b005b6060600060010180546100759061029b565b80601f01602080910402602001604051908101604052809291908181526020018280546100a19061029b565b80156100ee5780601f106100c3576101008083540402835291602001916100ee565b820191906000526020600020905b8154815290600101906020018083116100d157829003601f168201915b5050505050905090565b60405180606001604052806040518060400160405280600a81526020017f4c6561726e204a6176610000000000000000000000000000000000000000000081525081526020016040518060400160405280600281526020017f54500000000000000000000000000000000000000000000000000000000000008152508152602001600181525060008082015181600001908161019491906104b1565b5060208201518160010190816101aa91906104b1565b5060408201518160020155905050565b600081519050919050565b600082825260208201905092915050565b60005b838110156101f45780820151818401526020810190506101d9565b60008484015250505050565b6000601f19601f8301169050919050565b600061021c826101ba565b61022681856101c5565b93506102368185602086016101d6565b61023f81610200565b840191505092915050565b600060208201905081810360008301526102648184610211565b905092915050565b7f4e487b7100000000000000000000000000000000000000000000000000000000600052602260045260246000fd5b600060028204905060018216806102b357607f821691505b6020821081036102c6576102c561026c565b5b50919050565b7f4e487b7100000000000000000000000000000000000000000000000000000000600052604160045260246000fd5b60008190508160005260206000209050919050565b60006020601f8301049050919050565b600082821b905092915050565b60006008830261035d7fffffffffffffffffffffffffffffffffffffffffffffffffffffffffffffffff82610320565b6103678683610320565b95508019841693508086168417925050509392505050565b6000819050919050565b6000819050919050565b60006103ae6103a96103a48461037f565b610389565b61037f565b9050919050565b6000819050919050565b6103c883610393565b6103dc6103d4826103b5565b84845461032d565b825550505050565b600090565b6103f16103e4565b6103fc8184846103bf565b505050565b5b81811015610420576104156000826103e9565b600181019050610402565b5050565b601f82111561046557610436816102fb565b61043f84610310565b8101602085101561044e578190505b61046261045a85610310565b830182610401565b50505b505050565b600082821c905092915050565b60006104886000198460080261046a565b1980831691505092915050565b60006104a18383610477565b9150826002028217905092915050565b6104ba826101ba565b67ffffffffffffffff8111156104d3576104d26102cc565b5b6104dd825461029b565b6104e8828285610424565b600060209050601f83116001811461051b5760008415610509578287015190505b6105138582610495565b86555061057b565b601f198416610529866102fb565b60005b828110156105515784890151825560018201915060208501945060208101905061052c565b8683101561056e578489015161056a601f891682610477565b8355505b6001600288020188555050505b50505050505056fea2646970667358221220e427737e8c49831b8f90a4a7de8c89129586faae82ab59a966e45f6a6a6c44a664736f6c63430008120033",
					"opcodes": "PUSH1 0x80 PUSH1 0x40 MSTORE CALLVALUE DUP1 ISZERO PUSH2 0x10 JUMPI PUSH1 0x0 DUP1 REVERT JUMPDEST POP PUSH2 0x5B9 DUP1 PUSH2 0x20 PUSH1 0x0 CODECOPY PUSH1 0x0 RETURN INVALID PUSH1 0x80 PUSH1 0x40 MSTORE CALLVALUE DUP1 ISZERO PUSH2 0x10 JUMPI PUSH1 0x0 DUP1 REVERT JUMPDEST POP PUSH1 0x4 CALLDATASIZE LT PUSH2 0x36 JUMPI PUSH1 0x0 CALLDATALOAD PUSH1 0xE0 SHR DUP1 PUSH4 0x7310D33C EQ PUSH2 0x3B JUMPI DUP1 PUSH4 0xD629546C EQ PUSH2 0x59 JUMPI JUMPDEST PUSH1 0x0 DUP1 REVERT JUMPDEST PUSH2 0x43 PUSH2 0x63 JUMP JUMPDEST PUSH1 0x40 MLOAD PUSH2 0x50 SWAP2 SWAP1 PUSH2 0x24A JUMP JUMPDEST PUSH1 0x40 MLOAD DUP1 SWAP2 SUB SWAP1 RETURN JUMPDEST PUSH2 0x61 PUSH2 0xF8 JUMP JUMPDEST STOP JUMPDEST PUSH1 0x60 PUSH1 0x0 PUSH1 0x1 ADD DUP1 SLOAD PUSH2 0x75 SWAP1 PUSH2 0x29B JUMP JUMPDEST DUP1 PUSH1 0x1F ADD PUSH1 0x20 DUP1 SWAP2 DIV MUL PUSH1 0x20 ADD PUSH1 0x40 MLOAD SWAP1 DUP2 ADD PUSH1 0x40 MSTORE DUP1 SWAP3 SWAP2 SWAP1 DUP2 DUP2 MSTORE PUSH1 0x20 ADD DUP3 DUP1 SLOAD PUSH2 0xA1 SWAP1 PUSH2 0x29B JUMP JUMPDEST DUP1 ISZERO PUSH2 0xEE JUMPI DUP1 PUSH1 0x1F LT PUSH2 0xC3 JUMPI PUSH2 0x100 DUP1 DUP4 SLOAD DIV MUL DUP4 MSTORE SWAP2 PUSH1 0x20 ADD SWAP2 PUSH2 0xEE JUMP JUMPDEST DUP3 ADD SWAP2 SWAP1 PUSH1 0x0 MSTORE PUSH1 0x20 PUSH1 0x0 KECCAK256 SWAP1 JUMPDEST DUP2 SLOAD DUP2 MSTORE SWAP1 PUSH1 0x1 ADD SWAP1 PUSH1 0x20 ADD DUP1 DUP4 GT PUSH2 0xD1 JUMPI DUP3 SWAP1 SUB PUSH1 0x1F AND DUP3 ADD SWAP2 JUMPDEST POP POP POP POP POP SWAP1 POP SWAP1 JUMP JUMPDEST PUSH1 0x40 MLOAD DUP1 PUSH1 0x60 ADD PUSH1 0x40 MSTORE DUP1 PUSH1 0x40 MLOAD DUP1 PUSH1 0x40 ADD PUSH1 0x40 MSTORE DUP1 PUSH1 0xA DUP2 MSTORE PUSH1 0x20 ADD PUSH32 0x4C6561726E204A61766100000000000000000000000000000000000000000000 DUP2 MSTORE POP DUP2 MSTORE PUSH1 0x20 ADD PUSH1 0x40 MLOAD DUP1 PUSH1 0x40 ADD PUSH1 0x40 MSTORE DUP1 PUSH1 0x2 DUP2 MSTORE PUSH1 0x20 ADD PUSH32 0x5450000000000000000000000000000000000000000000000000000000000000 DUP2 MSTORE POP DUP2 MSTORE PUSH1 0x20 ADD PUSH1 0x1 DUP2 MSTORE POP PUSH1 0x0 DUP1 DUP3 ADD MLOAD DUP2 PUSH1 0x0 ADD SWAP1 DUP2 PUSH2 0x194 SWAP2 SWAP1 PUSH2 0x4B1 JUMP JUMPDEST POP PUSH1 0x20 DUP3 ADD MLOAD DUP2 PUSH1 0x1 ADD SWAP1 DUP2 PUSH2 0x1AA SWAP2 SWAP1 PUSH2 0x4B1 JUMP JUMPDEST POP PUSH1 0x40 DUP3 ADD MLOAD DUP2 PUSH1 0x2 ADD SSTORE SWAP1 POP POP JUMP JUMPDEST PUSH1 0x0 DUP2 MLOAD SWAP1 POP SWAP2 SWAP1 POP JUMP JUMPDEST PUSH1 0x0 DUP3 DUP3 MSTORE PUSH1 0x20 DUP3 ADD SWAP1 POP SWAP3 SWAP2 POP POP JUMP JUMPDEST PUSH1 0x0 JUMPDEST DUP4 DUP2 LT ISZERO PUSH2 0x1F4 JUMPI DUP1 DUP3 ADD MLOAD DUP2 DUP5 ADD MSTORE PUSH1 0x20 DUP2 ADD SWAP1 POP PUSH2 0x1D9 JUMP JUMPDEST PUSH1 0x0 DUP5 DUP5 ADD MSTORE POP POP POP POP JUMP JUMPDEST PUSH1 0x0 PUSH1 0x1F NOT PUSH1 0x1F DUP4 ADD AND SWAP1 POP SWAP2 SWAP1 POP JUMP JUMPDEST PUSH1 0x0 PUSH2 0x21C DUP3 PUSH2 0x1BA JUMP JUMPDEST PUSH2 0x226 DUP2 DUP6 PUSH2 0x1C5 JUMP JUMPDEST SWAP4 POP PUSH2 0x236 DUP2 DUP6 PUSH1 0x20 DUP7 ADD PUSH2 0x1D6 JUMP JUMPDEST PUSH2 0x23F DUP2 PUSH2 0x200 JUMP JUMPDEST DUP5 ADD SWAP2 POP POP SWAP3 SWAP2 POP POP JUMP JUMPDEST PUSH1 0x0 PUSH1 0x20 DUP3 ADD SWAP1 POP DUP2 DUP2 SUB PUSH1 0x0 DUP4 ADD MSTORE PUSH2 0x264 DUP2 DUP5 PUSH2 0x211 JUMP JUMPDEST SWAP1 POP SWAP3 SWAP2 POP POP JUMP JUMPDEST PUSH32 0x4E487B7100000000000000000000000000000000000000000000000000000000 PUSH1 0x0 MSTORE PUSH1 0x22 PUSH1 0x4 MSTORE PUSH1 0x24 PUSH1 0x0 REVERT JUMPDEST PUSH1 0x0 PUSH1 0x2 DUP3 DIV SWAP1 POP PUSH1 0x1 DUP3 AND DUP1 PUSH2 0x2B3 JUMPI PUSH1 0x7F DUP3 AND SWAP2 POP JUMPDEST PUSH1 0x20 DUP3 LT DUP2 SUB PUSH2 0x2C6 JUMPI PUSH2 0x2C5 PUSH2 0x26C JUMP JUMPDEST JUMPDEST POP SWAP2 SWAP1 POP JUMP JUMPDEST PUSH32 0x4E487B7100000000000000000000000000000000000000000000000000000000 PUSH1 0x0 MSTORE PUSH1 0x41 PUSH1 0x4 MSTORE PUSH1 0x24 PUSH1 0x0 REVERT JUMPDEST PUSH1 0x0 DUP2 SWAP1 POP DUP2 PUSH1 0x0 MSTORE PUSH1 0x20 PUSH1 0x0 KECCAK256 SWAP1 POP SWAP2 SWAP1 POP JUMP JUMPDEST PUSH1 0x0 PUSH1 0x20 PUSH1 0x1F DUP4 ADD DIV SWAP1 POP SWAP2 SWAP1 POP JUMP JUMPDEST PUSH1 0x0 DUP3 DUP3 SHL SWAP1 POP SWAP3 SWAP2 POP POP JUMP JUMPDEST PUSH1 0x0 PUSH1 0x8 DUP4 MUL PUSH2 0x35D PUSH32 0xFFFFFFFFFFFFFFFFFFFFFFFFFFFFFFFFFFFFFFFFFFFFFFFFFFFFFFFFFFFFFFFF DUP3 PUSH2 0x320 JUMP JUMPDEST PUSH2 0x367 DUP7 DUP4 PUSH2 0x320 JUMP JUMPDEST SWAP6 POP DUP1 NOT DUP5 AND SWAP4 POP DUP1 DUP7 AND DUP5 OR SWAP3 POP POP POP SWAP4 SWAP3 POP POP POP JUMP JUMPDEST PUSH1 0x0 DUP2 SWAP1 POP SWAP2 SWAP1 POP JUMP JUMPDEST PUSH1 0x0 DUP2 SWAP1 POP SWAP2 SWAP1 POP JUMP JUMPDEST PUSH1 0x0 PUSH2 0x3AE PUSH2 0x3A9 PUSH2 0x3A4 DUP5 PUSH2 0x37F JUMP JUMPDEST PUSH2 0x389 JUMP JUMPDEST PUSH2 0x37F JUMP JUMPDEST SWAP1 POP SWAP2 SWAP1 POP JUMP JUMPDEST PUSH1 0x0 DUP2 SWAP1 POP SWAP2 SWAP1 POP JUMP JUMPDEST PUSH2 0x3C8 DUP4 PUSH2 0x393 JUMP JUMPDEST PUSH2 0x3DC PUSH2 0x3D4 DUP3 PUSH2 0x3B5 JUMP JUMPDEST DUP5 DUP5 SLOAD PUSH2 0x32D JUMP JUMPDEST DUP3 SSTORE POP POP POP POP JUMP JUMPDEST PUSH1 0x0 SWAP1 JUMP JUMPDEST PUSH2 0x3F1 PUSH2 0x3E4 JUMP JUMPDEST PUSH2 0x3FC DUP2 DUP5 DUP5 PUSH2 0x3BF JUMP JUMPDEST POP POP POP JUMP JUMPDEST JUMPDEST DUP2 DUP2 LT ISZERO PUSH2 0x420 JUMPI PUSH2 0x415 PUSH1 0x0 DUP3 PUSH2 0x3E9 JUMP JUMPDEST PUSH1 0x1 DUP2 ADD SWAP1 POP PUSH2 0x402 JUMP JUMPDEST POP POP JUMP JUMPDEST PUSH1 0x1F DUP3 GT ISZERO PUSH2 0x465 JUMPI PUSH2 0x436 DUP2 PUSH2 0x2FB JUMP JUMPDEST PUSH2 0x43F DUP5 PUSH2 0x310 JUMP JUMPDEST DUP2 ADD PUSH1 0x20 DUP6 LT ISZERO PUSH2 0x44E JUMPI DUP2 SWAP1 POP JUMPDEST PUSH2 0x462 PUSH2 0x45A DUP6 PUSH2 0x310 JUMP JUMPDEST DUP4 ADD DUP3 PUSH2 0x401 JUMP JUMPDEST POP POP JUMPDEST POP POP POP JUMP JUMPDEST PUSH1 0x0 DUP3 DUP3 SHR SWAP1 POP SWAP3 SWAP2 POP POP JUMP JUMPDEST PUSH1 0x0 PUSH2 0x488 PUSH1 0x0 NOT DUP5 PUSH1 0x8 MUL PUSH2 0x46A JUMP JUMPDEST NOT DUP1 DUP4 AND SWAP2 POP POP SWAP3 SWAP2 POP POP JUMP JUMPDEST PUSH1 0x0 PUSH2 0x4A1 DUP4 DUP4 PUSH2 0x477 JUMP JUMPDEST SWAP2 POP DUP3 PUSH1 0x2 MUL DUP3 OR SWAP1 POP SWAP3 SWAP2 POP POP JUMP JUMPDEST PUSH2 0x4BA DUP3 PUSH2 0x1BA JUMP JUMPDEST PUSH8 0xFFFFFFFFFFFFFFFF DUP2 GT ISZERO PUSH2 0x4D3 JUMPI PUSH2 0x4D2 PUSH2 0x2CC JUMP JUMPDEST JUMPDEST PUSH2 0x4DD DUP3 SLOAD PUSH2 0x29B JUMP JUMPDEST PUSH2 0x4E8 DUP3 DUP3 DUP6 PUSH2 0x424 JUMP JUMPDEST PUSH1 0x0 PUSH1 0x20 SWAP1 POP PUSH1 0x1F DUP4 GT PUSH1 0x1 DUP2 EQ PUSH2 0x51B JUMPI PUSH1 0x0 DUP5 ISZERO PUSH2 0x509 JUMPI DUP3 DUP8 ADD MLOAD SWAP1 POP JUMPDEST PUSH2 0x513 DUP6 DUP3 PUSH2 0x495 JUMP JUMPDEST DUP7 SSTORE POP PUSH2 0x57B JUMP JUMPDEST PUSH1 0x1F NOT DUP5 AND PUSH2 0x529 DUP7 PUSH2 0x2FB JUMP JUMPDEST PUSH1 0x0 JUMPDEST DUP3 DUP2 LT ISZERO PUSH2 0x551 JUMPI DUP5 DUP10 ADD MLOAD DUP3 SSTORE PUSH1 0x1 DUP3 ADD SWAP2 POP PUSH1 0x20 DUP6 ADD SWAP5 POP PUSH1 0x20 DUP2 ADD SWAP1 POP PUSH2 0x52C JUMP JUMPDEST DUP7 DUP4 LT ISZERO PUSH2 0x56E JUMPI DUP5 DUP10 ADD MLOAD PUSH2 0x56A PUSH1 0x1F DUP10 AND DUP3 PUSH2 0x477 JUMP JUMPDEST DUP4 SSTORE POP JUMPDEST PUSH1 0x1 PUSH1 0x2 DUP9 MUL ADD DUP9 SSTORE POP POP POP JUMPDEST POP POP POP POP POP POP JUMP INVALID LOG2 PUSH5 0x6970667358 0x22 SLT KECCAK256 0xE4 0x27 PUSH20 0x7E8C49831B8F90A4A7DE8C89129586FAAE82AB59 0xA9 PUSH7 0xE45F6A6A6C44A6 PUSH5 0x736F6C6343 STOP ADDMOD SLT STOP CALLER "
				},
				"gasEstimates": {
					"creation": {
						"codeDepositCost": "293000",
						"executionCost": "331",
						"totalCost": "293331"
					},
					"external": {
						"getBookId()": "infinite",
						"setBook()": "infinite"
					}
				},
				"methodIdentifiers": {
					"getBookId()": "7310d33c",
					"setBook()": "d629546c"
				}
			},
			"storageLayout": {
				"storage": [
					{
						"astId": 11,
						"contract": "six.sol:test",
						"label": "book",
						"offset": 0,
						"slot": "0",
						"type": "t_struct(Book)8_storage"
					}
				],
				"types": {
					"t_string_storage": {
						"encoding": "bytes",
						"label": "string",
						"numberOfBytes": "32"
					},
					"t_struct(Book)8_storage": {
						"encoding": "inplace",
						"label": "struct test.Book",
						"members": [
							{
								"astId": 3,
								"contract": "six.sol:test",
								"label": "title",
								"offset": 0,
								"slot": "0",
								"type": "t_string_storage"
							},
							{
								"astId": 5,
								"contract": "six.sol:test",
								"label": "author",
								"offset": 0,
								"slot": "1",
								"type": "t_string_storage"
							},
							{
								"astId": 7,
								"contract": "six.sol:test",
								"label": "book_id",
								"offset": 0,
								"slot": "2",
								"type": "t_uint256"
							}
						],
						"numberOfBytes": "96"
					},
					"t_uint256": {
						"encoding": "inplace",
						"label": "uint256",
						"numberOfBytes": "32"
					}
				}
			},
			"userdoc": {
				"kind": "user",
				"methods": {},
				"version": 1
			}
		}
	}
}