{
	"third.sol": {
		"Wallet": {
			"abi": [
				{
					"inputs": [],
					"name": "Balance",
					"outputs": [
						{
							"internalType": "uint256",
							"name": "",
							"type": "uint256"
						}
					],
					"stateMutability": "view",
					"type": "function"
				},
				{
					"inputs": [],
					"name": "DeposotMoney",
					"outputs": [],
					"stateMutability": "payable",
					"type": "function"
				},
				{
					"inputs": [
						{
							"internalType": "address",
							"name": "_daddress",
							"type": "address"
						},
						{
							"internalType": "uint256",
							"name": "_dnum",
							"type": "uint256"
						}
					],
					"name": "GetDepositData",
					"outputs": [
						{
							"components": [
								{
									"internalType": "uint256",
									"name": "amount",
									"type": "uint256"
								},
								{
									"internalType": "uint256",
									"name": "timestamp",
									"type": "uint256"
								}
							],
							"internalType": "struct Wallet.transection",
							"name": "",
							"type": "tuple"
						}
					],
					"stateMutability": "view",
					"type": "function"
				},
				{
					"inputs": [
						{
							"internalType": "address",
							"name": "_address",
							"type": "address"
						}
					],
					"name": "GetReceiverData",
					"outputs": [
						{
							"internalType": "uint256",
							"name": "",
							"type": "uint256"
						},
						{
							"internalType": "uint256",
							"name": "",
							"type": "uint256"
						}
					],
					"stateMutability": "view",
					"type": "function"
				},
				{
					"inputs": [
						{
							"internalType": "address",
							"name": "_daddress",
							"type": "address"
						},
						{
							"internalType": "uint256",
							"name": "_amount",
							"type": "uint256"
						}
					],
					"name": "GetWithdrawData",
					"outputs": [
						{
							"components": [
								{
									"internalType": "uint256",
									"name": "amount",
									"type": "uint256"
								},
								{
									"internalType": "uint256",
									"name": "timestamp",
									"type": "uint256"
								}
							],
							"internalType": "struct Wallet.transection",
							"name": "",
							"type": "tuple"
						}
					],
					"stateMutability": "view",
					"type": "function"
				},
				{
					"inputs": [
						{
							"internalType": "address",
							"name": "",
							"type": "address"
						}
					],
					"name": "data",
					"outputs": [
						{
							"internalType": "uint256",
							"name": "totalbalance",
							"type": "uint256"
						},
						{
							"internalType": "uint256",
							"name": "numdeposits",
							"type": "uint256"
						},
						{
							"internalType": "uint256",
							"name": "withdrawl",
							"type": "uint256"
						},
						{
							"internalType": "address",
							"name": "receiverd",
							"type": "address"
						}
					],
					"stateMutability": "view",
					"type": "function"
				},
				{
					"inputs": [
						{
							"internalType": "address payable",
							"name": "_receiver",
							"type": "address"
						},
						{
							"internalType": "uint256",
							"name": "_amount",
							"type": "uint256"
						}
					],
					"name": "withdraw",
					"outputs": [],
					"stateMutability": "nonpayable",
					"type": "function"
				}
			],
			"devdoc": {
				"kind": "dev",
				"methods": {},
				"version": 1
			},
			"evm": {
				"assembly": "    /* \"third.sol\":72:2249  contract Wallet{... */\n  mstore(0x40, 0x80)\n  callvalue\n  dup1\n  iszero\n  tag_1\n  jumpi\n  0x00\n  dup1\n  revert\ntag_1:\n  pop\n  dataSize(sub_0)\n  dup1\n  dataOffset(sub_0)\n  0x00\n  codecopy\n  0x00\n  return\nstop\n\nsub_0: assembly {\n        /* \"third.sol\":72:2249  contract Wallet{... */\n      mstore(0x40, 0x80)\n      jumpi(tag_1, lt(calldatasize, 0x04))\n      shr(0xe0, calldataload(0x00))\n      dup1\n      0xb082e4b5\n      gt\n      tag_9\n      jumpi\n      dup1\n      0xb082e4b5\n      eq\n      tag_5\n      jumpi\n      dup1\n      0xb90d3d0c\n      eq\n      tag_6\n      jumpi\n      dup1\n      0xbddcddeb\n      eq\n      tag_7\n      jumpi\n      dup1\n      0xf3fef3a3\n      eq\n      tag_8\n      jumpi\n      jump(tag_1)\n    tag_9:\n      dup1\n      0x0ef67887\n      eq\n      tag_2\n      jumpi\n      dup1\n      0x1ad18ffd\n      eq\n      tag_3\n      jumpi\n      dup1\n      0x6200ff4c\n      eq\n      tag_4\n      jumpi\n    tag_1:\n      0x00\n      dup1\n      revert\n        /* \"third.sol\":2149:2240  function Balance() public view returns(uint){... */\n    tag_2:\n      callvalue\n      dup1\n      iszero\n      tag_10\n      jumpi\n      0x00\n      dup1\n      revert\n    tag_10:\n      pop\n      tag_11\n      tag_12\n      jump\t// in\n    tag_11:\n      mload(0x40)\n      tag_13\n      swap2\n      swap1\n      tag_14\n      jump\t// in\n    tag_13:\n      mload(0x40)\n      dup1\n      swap2\n      sub\n      swap1\n      return\n        /* \"third.sol\":1373:1784  function DeposotMoney() public payable {... */\n    tag_3:\n      tag_15\n      tag_16\n      jump\t// in\n    tag_15:\n      stop\n        /* \"third.sol\":975:1155  function GetReceiverData(address _address) public view returns(uint, uint){... */\n    tag_4:\n      callvalue\n      dup1\n      iszero\n      tag_17\n      jumpi\n      0x00\n      dup1\n      revert\n    tag_17:\n      pop\n      tag_18\n      0x04\n      dup1\n      calldatasize\n      sub\n      dup2\n      add\n      swap1\n      tag_19\n      swap2\n      swap1\n      tag_20\n      jump\t// in\n    tag_19:\n      tag_21\n      jump\t// in\n    tag_18:\n      mload(0x40)\n      tag_22\n      swap3\n      swap2\n      swap1\n      tag_23\n      jump\t// in\n    tag_22:\n      mload(0x40)\n      dup1\n      swap2\n      sub\n      swap1\n      return\n        /* \"third.sol\":817:969  function GetDepositData(address _daddress, uint _dnum) public view returns(transection memory) {... */\n    tag_5:\n      callvalue\n      dup1\n      iszero\n      tag_24\n      jumpi\n      0x00\n      dup1\n      revert\n    tag_24:\n      pop\n      tag_25\n      0x04\n      dup1\n      calldatasize\n      sub\n      dup2\n      add\n      swap1\n      tag_26\n      swap2\n      swap1\n      tag_27\n      jump\t// in\n    tag_26:\n      tag_28\n      jump\t// in\n    tag_25:\n      mload(0x40)\n      tag_29\n      swap2\n      swap1\n      tag_30\n      jump\t// in\n    tag_29:\n      mload(0x40)\n      dup1\n      swap2\n      sub\n      swap1\n      return\n        /* \"third.sol\":459:497  mapping (address=>balance) public data */\n    tag_6:\n      callvalue\n      dup1\n      iszero\n      tag_31\n      jumpi\n      0x00\n      dup1\n      revert\n    tag_31:\n      pop\n      tag_32\n      0x04\n      dup1\n      calldatasize\n      sub\n      dup2\n      add\n      swap1\n      tag_33\n      swap2\n      swap1\n      tag_20\n      jump\t// in\n    tag_33:\n      tag_34\n      jump\t// in\n    tag_32:\n      mload(0x40)\n      tag_35\n      swap5\n      swap4\n      swap3\n      swap2\n      swap1\n      tag_36\n      jump\t// in\n    tag_35:\n      mload(0x40)\n      dup1\n      swap2\n      sub\n      swap1\n      return\n        /* \"third.sol\":1163:1322  function GetWithdrawData(address _daddress, uint _amount) public view returns(transection memory) {... */\n    tag_7:\n      callvalue\n      dup1\n      iszero\n      tag_37\n      jumpi\n      0x00\n      dup1\n      revert\n    tag_37:\n      pop\n      tag_38\n      0x04\n      dup1\n      calldatasize\n      sub\n      dup2\n      add\n      swap1\n      tag_39\n      swap2\n      swap1\n      tag_27\n      jump\t// in\n    tag_39:\n      tag_40\n      jump\t// in\n    tag_38:\n      mload(0x40)\n      tag_41\n      swap2\n      swap1\n      tag_30\n      jump\t// in\n    tag_41:\n      mload(0x40)\n      dup1\n      swap2\n      sub\n      swap1\n      return\n        /* \"third.sol\":1792:2141  function withdraw(address payable  _receiver, uint _amount) public {... */\n    tag_8:\n      callvalue\n      dup1\n      iszero\n      tag_42\n      jumpi\n      0x00\n      dup1\n      revert\n    tag_42:\n      pop\n      tag_43\n      0x04\n      dup1\n      calldatasize\n      sub\n      dup2\n      add\n      swap1\n      tag_44\n      swap2\n      swap1\n      tag_45\n      jump\t// in\n    tag_44:\n      tag_46\n      jump\t// in\n    tag_43:\n      stop\n        /* \"third.sol\":2149:2240  function Balance() public view returns(uint){... */\n    tag_12:\n        /* \"third.sol\":2188:2192  uint */\n      0x00\n        /* \"third.sol\":2211:2232  address(this).balance */\n      selfbalance\n        /* \"third.sol\":2204:2232  return address(this).balance */\n      swap1\n      pop\n        /* \"third.sol\":2149:2240  function Balance() public view returns(uint){... */\n      swap1\n      jump\t// out\n        /* \"third.sol\":1373:1784  function DeposotMoney() public payable {... */\n    tag_16:\n        /* \"third.sol\":1455:1464  msg.value */\n      callvalue\n        /* \"third.sol\":1423:1427  data */\n      0x00\n        /* \"third.sol\":1423:1439  data[msg.sender] */\n      dup1\n        /* \"third.sol\":1428:1438  msg.sender */\n      caller\n        /* \"third.sol\":1423:1439  data[msg.sender] */\n      0xffffffffffffffffffffffffffffffffffffffff\n      and\n      0xffffffffffffffffffffffffffffffffffffffff\n      and\n      dup2\n      mstore\n      0x20\n      add\n      swap1\n      dup2\n      mstore\n      0x20\n      add\n      0x00\n      keccak256\n        /* \"third.sol\":1423:1452  data[msg.sender].totalbalance */\n      0x00\n      add\n      0x00\n        /* \"third.sol\":1423:1464  data[msg.sender].totalbalance +=msg.value */\n      dup3\n      dup3\n      sload\n      tag_49\n      swap2\n      swap1\n      tag_50\n      jump\t// in\n    tag_49:\n      swap3\n      pop\n      pop\n      dup2\n      swap1\n      sstore\n      pop\n        /* \"third.sol\":1561:1570  msg.value */\n      callvalue\n        /* \"third.sol\":1550:1553  val */\n      0x01\n        /* \"third.sol\":1550:1560  val.amount */\n      0x00\n      add\n        /* \"third.sol\":1550:1570  val.amount=msg.value */\n      dup2\n      swap1\n      sstore\n      pop\n        /* \"third.sol\":1595:1610  block.timestamp */\n      timestamp\n        /* \"third.sol\":1581:1584  val */\n      0x01\n        /* \"third.sol\":1581:1594  val.timestamp */\n      dup1\n      add\n        /* \"third.sol\":1581:1610  val.timestamp=block.timestamp */\n      dup2\n      swap1\n      sstore\n      pop\n        /* \"third.sol\":1732:1735  val */\n      0x01\n        /* \"third.sol\":1676:1680  data */\n      0x00\n        /* \"third.sol\":1676:1692  data[msg.sender] */\n      dup1\n        /* \"third.sol\":1681:1691  msg.sender */\n      caller\n        /* \"third.sol\":1676:1692  data[msg.sender] */\n      0xffffffffffffffffffffffffffffffffffffffff\n      and\n      0xffffffffffffffffffffffffffffffffffffffff\n      and\n      dup2\n      mstore\n      0x20\n      add\n      swap1\n      dup2\n      mstore\n      0x20\n      add\n      0x00\n      keccak256\n        /* \"third.sol\":1676:1701  data[msg.sender].deposits */\n      0x02\n      add\n        /* \"third.sol\":1676:1731  data[msg.sender].deposits[data[msg.sender].numdeposits] */\n      0x00\n        /* \"third.sol\":1702:1706  data */\n      dup1\n        /* \"third.sol\":1702:1718  data[msg.sender] */\n      0x00\n        /* \"third.sol\":1707:1717  msg.sender */\n      caller\n        /* \"third.sol\":1702:1718  data[msg.sender] */\n      0xffffffffffffffffffffffffffffffffffffffff\n      and\n      0xffffffffffffffffffffffffffffffffffffffff\n      and\n      dup2\n      mstore\n      0x20\n      add\n      swap1\n      dup2\n      mstore\n      0x20\n      add\n      0x00\n      keccak256\n        /* \"third.sol\":1702:1730  data[msg.sender].numdeposits */\n      0x01\n      add\n      sload\n        /* \"third.sol\":1676:1731  data[msg.sender].deposits[data[msg.sender].numdeposits] */\n      dup2\n      mstore\n      0x20\n      add\n      swap1\n      dup2\n      mstore\n      0x20\n      add\n      0x00\n      keccak256\n        /* \"third.sol\":1676:1735  data[msg.sender].deposits[data[msg.sender].numdeposits]=val */\n      0x00\n      dup3\n      add\n      sload\n      dup2\n      0x00\n      add\n      sstore\n      0x01\n      dup3\n      add\n      sload\n      dup2\n      0x01\n      add\n      sstore\n      swap1\n      pop\n      pop\n        /* \"third.sol\":1746:1750  data */\n      0x00\n        /* \"third.sol\":1746:1762  data[msg.sender] */\n      dup1\n        /* \"third.sol\":1751:1761  msg.sender */\n      caller\n        /* \"third.sol\":1746:1762  data[msg.sender] */\n      0xffffffffffffffffffffffffffffffffffffffff\n      and\n      0xffffffffffffffffffffffffffffffffffffffff\n      and\n      dup2\n      mstore\n      0x20\n      add\n      swap1\n      dup2\n      mstore\n      0x20\n      add\n      0x00\n      keccak256\n        /* \"third.sol\":1746:1774  data[msg.sender].numdeposits */\n      0x01\n      add\n      0x00\n        /* \"third.sol\":1746:1776  data[msg.sender].numdeposits++ */\n      dup2\n      sload\n      dup1\n      swap3\n      swap2\n      swap1\n      tag_51\n      swap1\n      tag_52\n      jump\t// in\n    tag_51:\n      swap2\n      swap1\n      pop\n      sstore\n      pop\n        /* \"third.sol\":1373:1784  function DeposotMoney() public payable {... */\n      jump\t// out\n        /* \"third.sol\":975:1155  function GetReceiverData(address _address) public view returns(uint, uint){... */\n    tag_21:\n        /* \"third.sol\":1038:1042  uint */\n      0x00\n        /* \"third.sol\":1044:1048  uint */\n      dup1\n        /* \"third.sol\":1114:1122  _address */\n      dup3\n        /* \"third.sol\":1114:1130  _address.balance */\n      0xffffffffffffffffffffffffffffffffffffffff\n      and\n      balance\n        /* \"third.sol\":1131:1146  block.timestamp */\n      timestamp\n        /* \"third.sol\":1106:1147  return (_address.balance,block.timestamp) */\n      swap2\n      pop\n      swap2\n      pop\n        /* \"third.sol\":975:1155  function GetReceiverData(address _address) public view returns(uint, uint){... */\n      swap2\n      pop\n      swap2\n      jump\t// out\n        /* \"third.sol\":817:969  function GetDepositData(address _daddress, uint _dnum) public view returns(transection memory) {... */\n    tag_28:\n        /* \"third.sol\":892:910  transection memory */\n      tag_54\n      tag_55\n      jump\t// in\n    tag_54:\n        /* \"third.sol\":930:934  data */\n      0x00\n        /* \"third.sol\":930:945  data[_daddress] */\n      dup1\n        /* \"third.sol\":935:944  _daddress */\n      dup5\n        /* \"third.sol\":930:945  data[_daddress] */\n      0xffffffffffffffffffffffffffffffffffffffff\n      and\n      0xffffffffffffffffffffffffffffffffffffffff\n      and\n      dup2\n      mstore\n      0x20\n      add\n      swap1\n      dup2\n      mstore\n      0x20\n      add\n      0x00\n      keccak256\n        /* \"third.sol\":930:954  data[_daddress].deposits */\n      0x02\n      add\n        /* \"third.sol\":930:961  data[_daddress].deposits[_dnum] */\n      0x00\n        /* \"third.sol\":955:960  _dnum */\n      dup4\n        /* \"third.sol\":930:961  data[_daddress].deposits[_dnum] */\n      dup2\n      mstore\n      0x20\n      add\n      swap1\n      dup2\n      mstore\n      0x20\n      add\n      0x00\n      keccak256\n        /* \"third.sol\":922:961  return  data[_daddress].deposits[_dnum] */\n      mload(0x40)\n      dup1\n      0x40\n      add\n      0x40\n      mstore\n      swap1\n      dup2\n      0x00\n      dup3\n      add\n      sload\n      dup2\n      mstore\n      0x20\n      add\n      0x01\n      dup3\n      add\n      sload\n      dup2\n      mstore\n      pop\n      pop\n      swap1\n      pop\n        /* \"third.sol\":817:969  function GetDepositData(address _daddress, uint _dnum) public view returns(transection memory) {... */\n      swap3\n      swap2\n      pop\n      pop\n      jump\t// out\n        /* \"third.sol\":459:497  mapping (address=>balance) public data */\n    tag_34:\n      mstore(0x20, 0x00)\n      dup1\n      0x00\n      mstore\n      keccak256(0x00, 0x40)\n      0x00\n      swap2\n      pop\n      swap1\n      pop\n      dup1\n      0x00\n      add\n      sload\n      swap1\n      dup1\n      0x01\n      add\n      sload\n      swap1\n      dup1\n      0x03\n      add\n      sload\n      swap1\n      dup1\n      0x05\n      add\n      0x00\n      swap1\n      sload\n      swap1\n      0x0100\n      exp\n      swap1\n      div\n      0xffffffffffffffffffffffffffffffffffffffff\n      and\n      swap1\n      pop\n      dup5\n      jump\t// out\n        /* \"third.sol\":1163:1322  function GetWithdrawData(address _daddress, uint _amount) public view returns(transection memory) {... */\n    tag_40:\n        /* \"third.sol\":1241:1259  transection memory */\n      tag_57\n      tag_55\n      jump\t// in\n    tag_57:\n        /* \"third.sol\":1279:1283  data */\n      0x00\n        /* \"third.sol\":1279:1294  data[_daddress] */\n      dup1\n        /* \"third.sol\":1284:1293  _daddress */\n      dup5\n        /* \"third.sol\":1279:1294  data[_daddress] */\n      0xffffffffffffffffffffffffffffffffffffffff\n      and\n      0xffffffffffffffffffffffffffffffffffffffff\n      and\n      dup2\n      mstore\n      0x20\n      add\n      swap1\n      dup2\n      mstore\n      0x20\n      add\n      0x00\n      keccak256\n        /* \"third.sol\":1279:1305  data[_daddress].withdrawls */\n      0x04\n      add\n        /* \"third.sol\":1279:1314  data[_daddress].withdrawls[_amount] */\n      0x00\n        /* \"third.sol\":1306:1313  _amount */\n      dup4\n        /* \"third.sol\":1279:1314  data[_daddress].withdrawls[_amount] */\n      dup2\n      mstore\n      0x20\n      add\n      swap1\n      dup2\n      mstore\n      0x20\n      add\n      0x00\n      keccak256\n        /* \"third.sol\":1271:1314  return  data[_daddress].withdrawls[_amount] */\n      mload(0x40)\n      dup1\n      0x40\n      add\n      0x40\n      mstore\n      swap1\n      dup2\n      0x00\n      dup3\n      add\n      sload\n      dup2\n      mstore\n      0x20\n      add\n      0x01\n      dup3\n      add\n      sload\n      dup2\n      mstore\n      pop\n      pop\n      swap1\n      pop\n        /* \"third.sol\":1163:1322  function GetWithdrawData(address _daddress, uint _amount) public view returns(transection memory) {... */\n      swap3\n      swap2\n      pop\n      pop\n      jump\t// out\n        /* \"third.sol\":1792:2141  function withdraw(address payable  _receiver, uint _amount) public {... */\n    tag_46:\n        /* \"third.sol\":1901:1908  _amount */\n      dup1\n        /* \"third.sol\":1870:1874  data */\n      0x00\n        /* \"third.sol\":1870:1886  data[msg.sender] */\n      dup1\n        /* \"third.sol\":1875:1885  msg.sender */\n      caller\n        /* \"third.sol\":1870:1886  data[msg.sender] */\n      0xffffffffffffffffffffffffffffffffffffffff\n      and\n      0xffffffffffffffffffffffffffffffffffffffff\n      and\n      dup2\n      mstore\n      0x20\n      add\n      swap1\n      dup2\n      mstore\n      0x20\n      add\n      0x00\n      keccak256\n        /* \"third.sol\":1870:1899  data[msg.sender].totalbalance */\n      0x00\n      add\n      0x00\n        /* \"third.sol\":1870:1908  data[msg.sender].totalbalance-=_amount */\n      dup3\n      dup3\n      sload\n      tag_60\n      swap2\n      swap1\n      tag_61\n      jump\t// in\n    tag_60:\n      swap3\n      pop\n      pop\n      dup2\n      swap1\n      sstore\n      pop\n        /* \"third.sol\":1918:1941  transection memory val2 */\n      0x00\n        /* \"third.sol\":1943:1979  transection(_amount,block.timestamp) */\n      mload(0x40)\n      dup1\n      0x40\n      add\n      0x40\n      mstore\n      dup1\n        /* \"third.sol\":1955:1962  _amount */\n      dup4\n        /* \"third.sol\":1943:1979  transection(_amount,block.timestamp) */\n      dup2\n      mstore\n      0x20\n      add\n        /* \"third.sol\":1963:1978  block.timestamp */\n      timestamp\n        /* \"third.sol\":1943:1979  transection(_amount,block.timestamp) */\n      dup2\n      mstore\n      pop\n        /* \"third.sol\":1918:1979  transection memory val2= transection(_amount,block.timestamp) */\n      swap1\n      pop\n        /* \"third.sol\":2048:2052  val2 */\n      dup1\n        /* \"third.sol\":1992:1996  data */\n      0x00\n        /* \"third.sol\":1992:2008  data[msg.sender] */\n      dup1\n        /* \"third.sol\":1997:2007  msg.sender */\n      caller\n        /* \"third.sol\":1992:2008  data[msg.sender] */\n      0xffffffffffffffffffffffffffffffffffffffff\n      and\n      0xffffffffffffffffffffffffffffffffffffffff\n      and\n      dup2\n      mstore\n      0x20\n      add\n      swap1\n      dup2\n      mstore\n      0x20\n      add\n      0x00\n      keccak256\n        /* \"third.sol\":1992:2019  data[msg.sender].withdrawls */\n      0x04\n      add\n        /* \"third.sol\":1992:2047  data[msg.sender].withdrawls[data[msg.sender].withdrawl] */\n      0x00\n        /* \"third.sol\":2020:2024  data */\n      dup1\n        /* \"third.sol\":2020:2036  data[msg.sender] */\n      0x00\n        /* \"third.sol\":2025:2035  msg.sender */\n      caller\n        /* \"third.sol\":2020:2036  data[msg.sender] */\n      0xffffffffffffffffffffffffffffffffffffffff\n      and\n      0xffffffffffffffffffffffffffffffffffffffff\n      and\n      dup2\n      mstore\n      0x20\n      add\n      swap1\n      dup2\n      mstore\n      0x20\n      add\n      0x00\n      keccak256\n        /* \"third.sol\":2020:2046  data[msg.sender].withdrawl */\n      0x03\n      add\n      sload\n        /* \"third.sol\":1992:2047  data[msg.sender].withdrawls[data[msg.sender].withdrawl] */\n      dup2\n      mstore\n      0x20\n      add\n      swap1\n      dup2\n      mstore\n      0x20\n      add\n      0x00\n      keccak256\n        /* \"third.sol\":1992:2052  data[msg.sender].withdrawls[data[msg.sender].withdrawl]=val2 */\n      0x00\n      dup3\n      add\n      mload\n      dup2\n      0x00\n      add\n      sstore\n      0x20\n      dup3\n      add\n      mload\n      dup2\n      0x01\n      add\n      sstore\n      swap1\n      pop\n      pop\n        /* \"third.sol\":2063:2067  data */\n      0x00\n        /* \"third.sol\":2063:2079  data[msg.sender] */\n      dup1\n        /* \"third.sol\":2068:2078  msg.sender */\n      caller\n        /* \"third.sol\":2063:2079  data[msg.sender] */\n      0xffffffffffffffffffffffffffffffffffffffff\n      and\n      0xffffffffffffffffffffffffffffffffffffffff\n      and\n      dup2\n      mstore\n      0x20\n      add\n      swap1\n      dup2\n      mstore\n      0x20\n      add\n      0x00\n      keccak256\n        /* \"third.sol\":2063:2089  data[msg.sender].withdrawl */\n      0x03\n      add\n      0x00\n        /* \"third.sol\":2063:2091  data[msg.sender].withdrawl++ */\n      dup2\n      sload\n      dup1\n      swap3\n      swap2\n      swap1\n      tag_62\n      swap1\n      tag_52\n      jump\t// in\n    tag_62:\n      swap2\n      swap1\n      pop\n      sstore\n      pop\n        /* \"third.sol\":2104:2113  _receiver */\n      dup3\n        /* \"third.sol\":2104:2122  _receiver.transfer */\n      0xffffffffffffffffffffffffffffffffffffffff\n      and\n        /* \"third.sol\":2104:2131  _receiver.transfer(_amount) */\n      0x08fc\n        /* \"third.sol\":2123:2130  _amount */\n      dup4\n        /* \"third.sol\":2104:2131  _receiver.transfer(_amount) */\n      swap1\n      dup2\n      iszero\n      mul\n      swap1\n      mload(0x40)\n      0x00\n      mload(0x40)\n      dup1\n      dup4\n      sub\n      dup2\n      dup6\n      dup9\n      dup9\n      call\n      swap4\n      pop\n      pop\n      pop\n      pop\n      iszero\n      dup1\n      iszero\n      tag_64\n      jumpi\n      returndatasize\n      0x00\n      dup1\n      returndatacopy\n      revert(0x00, returndatasize)\n    tag_64:\n      pop\n        /* \"third.sol\":1859:2141  {... */\n      pop\n        /* \"third.sol\":1792:2141  function withdraw(address payable  _receiver, uint _amount) public {... */\n      pop\n      pop\n      jump\t// out\n    tag_55:\n      mload(0x40)\n      dup1\n      0x40\n      add\n      0x40\n      mstore\n      dup1\n      0x00\n      dup2\n      mstore\n      0x20\n      add\n      0x00\n      dup2\n      mstore\n      pop\n      swap1\n      jump\t// out\n        /* \"#utility.yul\":7:84   */\n    tag_65:\n        /* \"#utility.yul\":44:51   */\n      0x00\n        /* \"#utility.yul\":73:78   */\n      dup2\n        /* \"#utility.yul\":62:78   */\n      swap1\n      pop\n        /* \"#utility.yul\":7:84   */\n      swap2\n      swap1\n      pop\n      jump\t// out\n        /* \"#utility.yul\":90:208   */\n    tag_66:\n        /* \"#utility.yul\":177:201   */\n      tag_86\n        /* \"#utility.yul\":195:200   */\n      dup2\n        /* \"#utility.yul\":177:201   */\n      tag_65\n      jump\t// in\n    tag_86:\n        /* \"#utility.yul\":172:175   */\n      dup3\n        /* \"#utility.yul\":165:202   */\n      mstore\n        /* \"#utility.yul\":90:208   */\n      pop\n      pop\n      jump\t// out\n        /* \"#utility.yul\":214:436   */\n    tag_14:\n        /* \"#utility.yul\":307:311   */\n      0x00\n        /* \"#utility.yul\":345:347   */\n      0x20\n        /* \"#utility.yul\":334:343   */\n      dup3\n        /* \"#utility.yul\":330:348   */\n      add\n        /* \"#utility.yul\":322:348   */\n      swap1\n      pop\n        /* \"#utility.yul\":358:429   */\n      tag_88\n        /* \"#utility.yul\":426:427   */\n      0x00\n        /* \"#utility.yul\":415:424   */\n      dup4\n        /* \"#utility.yul\":411:428   */\n      add\n        /* \"#utility.yul\":402:408   */\n      dup5\n        /* \"#utility.yul\":358:429   */\n      tag_66\n      jump\t// in\n    tag_88:\n        /* \"#utility.yul\":214:436   */\n      swap3\n      swap2\n      pop\n      pop\n      jump\t// out\n        /* \"#utility.yul\":523:640   */\n    tag_68:\n        /* \"#utility.yul\":632:633   */\n      0x00\n        /* \"#utility.yul\":629:630   */\n      dup1\n        /* \"#utility.yul\":622:634   */\n      revert\n        /* \"#utility.yul\":769:895   */\n    tag_70:\n        /* \"#utility.yul\":806:813   */\n      0x00\n        /* \"#utility.yul\":846:888   */\n      0xffffffffffffffffffffffffffffffffffffffff\n        /* \"#utility.yul\":839:844   */\n      dup3\n        /* \"#utility.yul\":835:889   */\n      and\n        /* \"#utility.yul\":824:889   */\n      swap1\n      pop\n        /* \"#utility.yul\":769:895   */\n      swap2\n      swap1\n      pop\n      jump\t// out\n        /* \"#utility.yul\":901:997   */\n    tag_71:\n        /* \"#utility.yul\":938:945   */\n      0x00\n        /* \"#utility.yul\":967:991   */\n      tag_94\n        /* \"#utility.yul\":985:990   */\n      dup3\n        /* \"#utility.yul\":967:991   */\n      tag_70\n      jump\t// in\n    tag_94:\n        /* \"#utility.yul\":956:991   */\n      swap1\n      pop\n        /* \"#utility.yul\":901:997   */\n      swap2\n      swap1\n      pop\n      jump\t// out\n        /* \"#utility.yul\":1003:1125   */\n    tag_72:\n        /* \"#utility.yul\":1076:1100   */\n      tag_96\n        /* \"#utility.yul\":1094:1099   */\n      dup2\n        /* \"#utility.yul\":1076:1100   */\n      tag_71\n      jump\t// in\n    tag_96:\n        /* \"#utility.yul\":1069:1074   */\n      dup2\n        /* \"#utility.yul\":1066:1101   */\n      eq\n        /* \"#utility.yul\":1056:1119   */\n      tag_97\n      jumpi\n        /* \"#utility.yul\":1115:1116   */\n      0x00\n        /* \"#utility.yul\":1112:1113   */\n      dup1\n        /* \"#utility.yul\":1105:1117   */\n      revert\n        /* \"#utility.yul\":1056:1119   */\n    tag_97:\n        /* \"#utility.yul\":1003:1125   */\n      pop\n      jump\t// out\n        /* \"#utility.yul\":1131:1270   */\n    tag_73:\n        /* \"#utility.yul\":1177:1182   */\n      0x00\n        /* \"#utility.yul\":1215:1221   */\n      dup2\n        /* \"#utility.yul\":1202:1222   */\n      calldataload\n        /* \"#utility.yul\":1193:1222   */\n      swap1\n      pop\n        /* \"#utility.yul\":1231:1264   */\n      tag_99\n        /* \"#utility.yul\":1258:1263   */\n      dup2\n        /* \"#utility.yul\":1231:1264   */\n      tag_72\n      jump\t// in\n    tag_99:\n        /* \"#utility.yul\":1131:1270   */\n      swap3\n      swap2\n      pop\n      pop\n      jump\t// out\n        /* \"#utility.yul\":1276:1605   */\n    tag_20:\n        /* \"#utility.yul\":1335:1341   */\n      0x00\n        /* \"#utility.yul\":1384:1386   */\n      0x20\n        /* \"#utility.yul\":1372:1381   */\n      dup3\n        /* \"#utility.yul\":1363:1370   */\n      dup5\n        /* \"#utility.yul\":1359:1382   */\n      sub\n        /* \"#utility.yul\":1355:1387   */\n      slt\n        /* \"#utility.yul\":1352:1471   */\n      iszero\n      tag_101\n      jumpi\n        /* \"#utility.yul\":1390:1469   */\n      tag_102\n      tag_68\n      jump\t// in\n    tag_102:\n        /* \"#utility.yul\":1352:1471   */\n    tag_101:\n        /* \"#utility.yul\":1510:1511   */\n      0x00\n        /* \"#utility.yul\":1535:1588   */\n      tag_103\n        /* \"#utility.yul\":1580:1587   */\n      dup5\n        /* \"#utility.yul\":1571:1577   */\n      dup3\n        /* \"#utility.yul\":1560:1569   */\n      dup6\n        /* \"#utility.yul\":1556:1578   */\n      add\n        /* \"#utility.yul\":1535:1588   */\n      tag_73\n      jump\t// in\n    tag_103:\n        /* \"#utility.yul\":1525:1588   */\n      swap2\n      pop\n        /* \"#utility.yul\":1481:1598   */\n      pop\n        /* \"#utility.yul\":1276:1605   */\n      swap3\n      swap2\n      pop\n      pop\n      jump\t// out\n        /* \"#utility.yul\":1611:1943   */\n    tag_23:\n        /* \"#utility.yul\":1732:1736   */\n      0x00\n        /* \"#utility.yul\":1770:1772   */\n      0x40\n        /* \"#utility.yul\":1759:1768   */\n      dup3\n        /* \"#utility.yul\":1755:1773   */\n      add\n        /* \"#utility.yul\":1747:1773   */\n      swap1\n      pop\n        /* \"#utility.yul\":1783:1854   */\n      tag_105\n        /* \"#utility.yul\":1851:1852   */\n      0x00\n        /* \"#utility.yul\":1840:1849   */\n      dup4\n        /* \"#utility.yul\":1836:1853   */\n      add\n        /* \"#utility.yul\":1827:1833   */\n      dup6\n        /* \"#utility.yul\":1783:1854   */\n      tag_66\n      jump\t// in\n    tag_105:\n        /* \"#utility.yul\":1864:1936   */\n      tag_106\n        /* \"#utility.yul\":1932:1934   */\n      0x20\n        /* \"#utility.yul\":1921:1930   */\n      dup4\n        /* \"#utility.yul\":1917:1935   */\n      add\n        /* \"#utility.yul\":1908:1914   */\n      dup5\n        /* \"#utility.yul\":1864:1936   */\n      tag_66\n      jump\t// in\n    tag_106:\n        /* \"#utility.yul\":1611:1943   */\n      swap4\n      swap3\n      pop\n      pop\n      pop\n      jump\t// out\n        /* \"#utility.yul\":1949:2071   */\n    tag_74:\n        /* \"#utility.yul\":2022:2046   */\n      tag_108\n        /* \"#utility.yul\":2040:2045   */\n      dup2\n        /* \"#utility.yul\":2022:2046   */\n      tag_65\n      jump\t// in\n    tag_108:\n        /* \"#utility.yul\":2015:2020   */\n      dup2\n        /* \"#utility.yul\":2012:2047   */\n      eq\n        /* \"#utility.yul\":2002:2065   */\n      tag_109\n      jumpi\n        /* \"#utility.yul\":2061:2062   */\n      0x00\n        /* \"#utility.yul\":2058:2059   */\n      dup1\n        /* \"#utility.yul\":2051:2063   */\n      revert\n        /* \"#utility.yul\":2002:2065   */\n    tag_109:\n        /* \"#utility.yul\":1949:2071   */\n      pop\n      jump\t// out\n        /* \"#utility.yul\":2077:2216   */\n    tag_75:\n        /* \"#utility.yul\":2123:2128   */\n      0x00\n        /* \"#utility.yul\":2161:2167   */\n      dup2\n        /* \"#utility.yul\":2148:2168   */\n      calldataload\n        /* \"#utility.yul\":2139:2168   */\n      swap1\n      pop\n        /* \"#utility.yul\":2177:2210   */\n      tag_111\n        /* \"#utility.yul\":2204:2209   */\n      dup2\n        /* \"#utility.yul\":2177:2210   */\n      tag_74\n      jump\t// in\n    tag_111:\n        /* \"#utility.yul\":2077:2216   */\n      swap3\n      swap2\n      pop\n      pop\n      jump\t// out\n        /* \"#utility.yul\":2222:2696   */\n    tag_27:\n        /* \"#utility.yul\":2290:2296   */\n      0x00\n        /* \"#utility.yul\":2298:2304   */\n      dup1\n        /* \"#utility.yul\":2347:2349   */\n      0x40\n        /* \"#utility.yul\":2335:2344   */\n      dup4\n        /* \"#utility.yul\":2326:2333   */\n      dup6\n        /* \"#utility.yul\":2322:2345   */\n      sub\n        /* \"#utility.yul\":2318:2350   */\n      slt\n        /* \"#utility.yul\":2315:2434   */\n      iszero\n      tag_113\n      jumpi\n        /* \"#utility.yul\":2353:2432   */\n      tag_114\n      tag_68\n      jump\t// in\n    tag_114:\n        /* \"#utility.yul\":2315:2434   */\n    tag_113:\n        /* \"#utility.yul\":2473:2474   */\n      0x00\n        /* \"#utility.yul\":2498:2551   */\n      tag_115\n        /* \"#utility.yul\":2543:2550   */\n      dup6\n        /* \"#utility.yul\":2534:2540   */\n      dup3\n        /* \"#utility.yul\":2523:2532   */\n      dup7\n        /* \"#utility.yul\":2519:2541   */\n      add\n        /* \"#utility.yul\":2498:2551   */\n      tag_73\n      jump\t// in\n    tag_115:\n        /* \"#utility.yul\":2488:2551   */\n      swap3\n      pop\n        /* \"#utility.yul\":2444:2561   */\n      pop\n        /* \"#utility.yul\":2600:2602   */\n      0x20\n        /* \"#utility.yul\":2626:2679   */\n      tag_116\n        /* \"#utility.yul\":2671:2678   */\n      dup6\n        /* \"#utility.yul\":2662:2668   */\n      dup3\n        /* \"#utility.yul\":2651:2660   */\n      dup7\n        /* \"#utility.yul\":2647:2669   */\n      add\n        /* \"#utility.yul\":2626:2679   */\n      tag_75\n      jump\t// in\n    tag_116:\n        /* \"#utility.yul\":2616:2679   */\n      swap2\n      pop\n        /* \"#utility.yul\":2571:2689   */\n      pop\n        /* \"#utility.yul\":2222:2696   */\n      swap3\n      pop\n      swap3\n      swap1\n      pop\n      jump\t// out\n        /* \"#utility.yul\":2702:2810   */\n    tag_76:\n        /* \"#utility.yul\":2779:2803   */\n      tag_118\n        /* \"#utility.yul\":2797:2802   */\n      dup2\n        /* \"#utility.yul\":2779:2803   */\n      tag_65\n      jump\t// in\n    tag_118:\n        /* \"#utility.yul\":2774:2777   */\n      dup3\n        /* \"#utility.yul\":2767:2804   */\n      mstore\n        /* \"#utility.yul\":2702:2810   */\n      pop\n      pop\n      jump\t// out\n        /* \"#utility.yul\":2878:3394   */\n    tag_77:\n        /* \"#utility.yul\":3027:3031   */\n      0x40\n        /* \"#utility.yul\":3022:3025   */\n      dup3\n        /* \"#utility.yul\":3018:3032   */\n      add\n        /* \"#utility.yul\":3116:3120   */\n      0x00\n        /* \"#utility.yul\":3109:3114   */\n      dup3\n        /* \"#utility.yul\":3105:3121   */\n      add\n        /* \"#utility.yul\":3099:3122   */\n      mload\n        /* \"#utility.yul\":3135:3198   */\n      tag_120\n        /* \"#utility.yul\":3192:3196   */\n      0x00\n        /* \"#utility.yul\":3187:3190   */\n      dup6\n        /* \"#utility.yul\":3183:3197   */\n      add\n        /* \"#utility.yul\":3169:3181   */\n      dup3\n        /* \"#utility.yul\":3135:3198   */\n      tag_76\n      jump\t// in\n    tag_120:\n        /* \"#utility.yul\":3042:3208   */\n      pop\n        /* \"#utility.yul\":3295:3299   */\n      0x20\n        /* \"#utility.yul\":3288:3293   */\n      dup3\n        /* \"#utility.yul\":3284:3300   */\n      add\n        /* \"#utility.yul\":3278:3301   */\n      mload\n        /* \"#utility.yul\":3314:3377   */\n      tag_121\n        /* \"#utility.yul\":3371:3375   */\n      0x20\n        /* \"#utility.yul\":3366:3369   */\n      dup6\n        /* \"#utility.yul\":3362:3376   */\n      add\n        /* \"#utility.yul\":3348:3360   */\n      dup3\n        /* \"#utility.yul\":3314:3377   */\n      tag_76\n      jump\t// in\n    tag_121:\n        /* \"#utility.yul\":3218:3387   */\n      pop\n        /* \"#utility.yul\":2996:3394   */\n      pop\n        /* \"#utility.yul\":2878:3394   */\n      pop\n      pop\n      jump\t// out\n        /* \"#utility.yul\":3400:3726   */\n    tag_30:\n        /* \"#utility.yul\":3545:3549   */\n      0x00\n        /* \"#utility.yul\":3583:3585   */\n      0x40\n        /* \"#utility.yul\":3572:3581   */\n      dup3\n        /* \"#utility.yul\":3568:3586   */\n      add\n        /* \"#utility.yul\":3560:3586   */\n      swap1\n      pop\n        /* \"#utility.yul\":3596:3719   */\n      tag_123\n        /* \"#utility.yul\":3716:3717   */\n      0x00\n        /* \"#utility.yul\":3705:3714   */\n      dup4\n        /* \"#utility.yul\":3701:3718   */\n      add\n        /* \"#utility.yul\":3692:3698   */\n      dup5\n        /* \"#utility.yul\":3596:3719   */\n      tag_77\n      jump\t// in\n    tag_123:\n        /* \"#utility.yul\":3400:3726   */\n      swap3\n      swap2\n      pop\n      pop\n      jump\t// out\n        /* \"#utility.yul\":3732:3850   */\n    tag_78:\n        /* \"#utility.yul\":3819:3843   */\n      tag_125\n        /* \"#utility.yul\":3837:3842   */\n      dup2\n        /* \"#utility.yul\":3819:3843   */\n      tag_71\n      jump\t// in\n    tag_125:\n        /* \"#utility.yul\":3814:3817   */\n      dup3\n        /* \"#utility.yul\":3807:3844   */\n      mstore\n        /* \"#utility.yul\":3732:3850   */\n      pop\n      pop\n      jump\t// out\n        /* \"#utility.yul\":3856:4409   */\n    tag_36:\n        /* \"#utility.yul\":4033:4037   */\n      0x00\n        /* \"#utility.yul\":4071:4074   */\n      0x80\n        /* \"#utility.yul\":4060:4069   */\n      dup3\n        /* \"#utility.yul\":4056:4075   */\n      add\n        /* \"#utility.yul\":4048:4075   */\n      swap1\n      pop\n        /* \"#utility.yul\":4085:4156   */\n      tag_127\n        /* \"#utility.yul\":4153:4154   */\n      0x00\n        /* \"#utility.yul\":4142:4151   */\n      dup4\n        /* \"#utility.yul\":4138:4155   */\n      add\n        /* \"#utility.yul\":4129:4135   */\n      dup8\n        /* \"#utility.yul\":4085:4156   */\n      tag_66\n      jump\t// in\n    tag_127:\n        /* \"#utility.yul\":4166:4238   */\n      tag_128\n        /* \"#utility.yul\":4234:4236   */\n      0x20\n        /* \"#utility.yul\":4223:4232   */\n      dup4\n        /* \"#utility.yul\":4219:4237   */\n      add\n        /* \"#utility.yul\":4210:4216   */\n      dup7\n        /* \"#utility.yul\":4166:4238   */\n      tag_66\n      jump\t// in\n    tag_128:\n        /* \"#utility.yul\":4248:4320   */\n      tag_129\n        /* \"#utility.yul\":4316:4318   */\n      0x40\n        /* \"#utility.yul\":4305:4314   */\n      dup4\n        /* \"#utility.yul\":4301:4319   */\n      add\n        /* \"#utility.yul\":4292:4298   */\n      dup6\n        /* \"#utility.yul\":4248:4320   */\n      tag_66\n      jump\t// in\n    tag_129:\n        /* \"#utility.yul\":4330:4402   */\n      tag_130\n        /* \"#utility.yul\":4398:4400   */\n      0x60\n        /* \"#utility.yul\":4387:4396   */\n      dup4\n        /* \"#utility.yul\":4383:4401   */\n      add\n        /* \"#utility.yul\":4374:4380   */\n      dup5\n        /* \"#utility.yul\":4330:4402   */\n      tag_78\n      jump\t// in\n    tag_130:\n        /* \"#utility.yul\":3856:4409   */\n      swap6\n      swap5\n      pop\n      pop\n      pop\n      pop\n      pop\n      jump\t// out\n        /* \"#utility.yul\":4415:4519   */\n    tag_79:\n        /* \"#utility.yul\":4460:4467   */\n      0x00\n        /* \"#utility.yul\":4489:4513   */\n      tag_132\n        /* \"#utility.yul\":4507:4512   */\n      dup3\n        /* \"#utility.yul\":4489:4513   */\n      tag_70\n      jump\t// in\n    tag_132:\n        /* \"#utility.yul\":4478:4513   */\n      swap1\n      pop\n        /* \"#utility.yul\":4415:4519   */\n      swap2\n      swap1\n      pop\n      jump\t// out\n        /* \"#utility.yul\":4525:4663   */\n    tag_80:\n        /* \"#utility.yul\":4606:4638   */\n      tag_134\n        /* \"#utility.yul\":4632:4637   */\n      dup2\n        /* \"#utility.yul\":4606:4638   */\n      tag_79\n      jump\t// in\n    tag_134:\n        /* \"#utility.yul\":4599:4604   */\n      dup2\n        /* \"#utility.yul\":4596:4639   */\n      eq\n        /* \"#utility.yul\":4586:4657   */\n      tag_135\n      jumpi\n        /* \"#utility.yul\":4653:4654   */\n      0x00\n        /* \"#utility.yul\":4650:4651   */\n      dup1\n        /* \"#utility.yul\":4643:4655   */\n      revert\n        /* \"#utility.yul\":4586:4657   */\n    tag_135:\n        /* \"#utility.yul\":4525:4663   */\n      pop\n      jump\t// out\n        /* \"#utility.yul\":4669:4824   */\n    tag_81:\n        /* \"#utility.yul\":4723:4728   */\n      0x00\n        /* \"#utility.yul\":4761:4767   */\n      dup2\n        /* \"#utility.yul\":4748:4768   */\n      calldataload\n        /* \"#utility.yul\":4739:4768   */\n      swap1\n      pop\n        /* \"#utility.yul\":4777:4818   */\n      tag_137\n        /* \"#utility.yul\":4812:4817   */\n      dup2\n        /* \"#utility.yul\":4777:4818   */\n      tag_80\n      jump\t// in\n    tag_137:\n        /* \"#utility.yul\":4669:4824   */\n      swap3\n      swap2\n      pop\n      pop\n      jump\t// out\n        /* \"#utility.yul\":4830:5320   */\n    tag_45:\n        /* \"#utility.yul\":4906:4912   */\n      0x00\n        /* \"#utility.yul\":4914:4920   */\n      dup1\n        /* \"#utility.yul\":4963:4965   */\n      0x40\n        /* \"#utility.yul\":4951:4960   */\n      dup4\n        /* \"#utility.yul\":4942:4949   */\n      dup6\n        /* \"#utility.yul\":4938:4961   */\n      sub\n        /* \"#utility.yul\":4934:4966   */\n      slt\n        /* \"#utility.yul\":4931:5050   */\n      iszero\n      tag_139\n      jumpi\n        /* \"#utility.yul\":4969:5048   */\n      tag_140\n      tag_68\n      jump\t// in\n    tag_140:\n        /* \"#utility.yul\":4931:5050   */\n    tag_139:\n        /* \"#utility.yul\":5089:5090   */\n      0x00\n        /* \"#utility.yul\":5114:5175   */\n      tag_141\n        /* \"#utility.yul\":5167:5174   */\n      dup6\n        /* \"#utility.yul\":5158:5164   */\n      dup3\n        /* \"#utility.yul\":5147:5156   */\n      dup7\n        /* \"#utility.yul\":5143:5165   */\n      add\n        /* \"#utility.yul\":5114:5175   */\n      tag_81\n      jump\t// in\n    tag_141:\n        /* \"#utility.yul\":5104:5175   */\n      swap3\n      pop\n        /* \"#utility.yul\":5060:5185   */\n      pop\n        /* \"#utility.yul\":5224:5226   */\n      0x20\n        /* \"#utility.yul\":5250:5303   */\n      tag_142\n        /* \"#utility.yul\":5295:5302   */\n      dup6\n        /* \"#utility.yul\":5286:5292   */\n      dup3\n        /* \"#utility.yul\":5275:5284   */\n      dup7\n        /* \"#utility.yul\":5271:5293   */\n      add\n        /* \"#utility.yul\":5250:5303   */\n      tag_75\n      jump\t// in\n    tag_142:\n        /* \"#utility.yul\":5240:5303   */\n      swap2\n      pop\n        /* \"#utility.yul\":5195:5313   */\n      pop\n        /* \"#utility.yul\":4830:5320   */\n      swap3\n      pop\n      swap3\n      swap1\n      pop\n      jump\t// out\n        /* \"#utility.yul\":5326:5506   */\n    tag_82:\n        /* \"#utility.yul\":5374:5451   */\n      0x4e487b7100000000000000000000000000000000000000000000000000000000\n        /* \"#utility.yul\":5371:5372   */\n      0x00\n        /* \"#utility.yul\":5364:5452   */\n      mstore\n        /* \"#utility.yul\":5471:5475   */\n      0x11\n        /* \"#utility.yul\":5468:5469   */\n      0x04\n        /* \"#utility.yul\":5461:5476   */\n      mstore\n        /* \"#utility.yul\":5495:5499   */\n      0x24\n        /* \"#utility.yul\":5492:5493   */\n      0x00\n        /* \"#utility.yul\":5485:5500   */\n      revert\n        /* \"#utility.yul\":5512:5703   */\n    tag_50:\n        /* \"#utility.yul\":5552:5555   */\n      0x00\n        /* \"#utility.yul\":5571:5591   */\n      tag_145\n        /* \"#utility.yul\":5589:5590   */\n      dup3\n        /* \"#utility.yul\":5571:5591   */\n      tag_65\n      jump\t// in\n    tag_145:\n        /* \"#utility.yul\":5566:5591   */\n      swap2\n      pop\n        /* \"#utility.yul\":5605:5625   */\n      tag_146\n        /* \"#utility.yul\":5623:5624   */\n      dup4\n        /* \"#utility.yul\":5605:5625   */\n      tag_65\n      jump\t// in\n    tag_146:\n        /* \"#utility.yul\":5600:5625   */\n      swap3\n      pop\n        /* \"#utility.yul\":5648:5649   */\n      dup3\n        /* \"#utility.yul\":5645:5646   */\n      dup3\n        /* \"#utility.yul\":5641:5650   */\n      add\n        /* \"#utility.yul\":5634:5650   */\n      swap1\n      pop\n        /* \"#utility.yul\":5669:5672   */\n      dup1\n        /* \"#utility.yul\":5666:5667   */\n      dup3\n        /* \"#utility.yul\":5663:5673   */\n      gt\n        /* \"#utility.yul\":5660:5696   */\n      iszero\n      tag_147\n      jumpi\n        /* \"#utility.yul\":5676:5694   */\n      tag_148\n      tag_82\n      jump\t// in\n    tag_148:\n        /* \"#utility.yul\":5660:5696   */\n    tag_147:\n        /* \"#utility.yul\":5512:5703   */\n      swap3\n      swap2\n      pop\n      pop\n      jump\t// out\n        /* \"#utility.yul\":5709:5942   */\n    tag_52:\n        /* \"#utility.yul\":5748:5751   */\n      0x00\n        /* \"#utility.yul\":5771:5795   */\n      tag_150\n        /* \"#utility.yul\":5789:5794   */\n      dup3\n        /* \"#utility.yul\":5771:5795   */\n      tag_65\n      jump\t// in\n    tag_150:\n        /* \"#utility.yul\":5762:5795   */\n      swap2\n      pop\n        /* \"#utility.yul\":5817:5883   */\n      0xffffffffffffffffffffffffffffffffffffffffffffffffffffffffffffffff\n        /* \"#utility.yul\":5810:5815   */\n      dup3\n        /* \"#utility.yul\":5807:5884   */\n      sub\n        /* \"#utility.yul\":5804:5907   */\n      tag_151\n      jumpi\n        /* \"#utility.yul\":5887:5905   */\n      tag_152\n      tag_82\n      jump\t// in\n    tag_152:\n        /* \"#utility.yul\":5804:5907   */\n    tag_151:\n        /* \"#utility.yul\":5934:5935   */\n      0x01\n        /* \"#utility.yul\":5927:5932   */\n      dup3\n        /* \"#utility.yul\":5923:5936   */\n      add\n        /* \"#utility.yul\":5916:5936   */\n      swap1\n      pop\n        /* \"#utility.yul\":5709:5942   */\n      swap2\n      swap1\n      pop\n      jump\t// out\n        /* \"#utility.yul\":5948:6142   */\n    tag_61:\n        /* \"#utility.yul\":5988:5992   */\n      0x00\n        /* \"#utility.yul\":6008:6028   */\n      tag_154\n        /* \"#utility.yul\":6026:6027   */\n      dup3\n        /* \"#utility.yul\":6008:6028   */\n      tag_65\n      jump\t// in\n    tag_154:\n        /* \"#utility.yul\":6003:6028   */\n      swap2\n      pop\n        /* \"#utility.yul\":6042:6062   */\n      tag_155\n        /* \"#utility.yul\":6060:6061   */\n      dup4\n        /* \"#utility.yul\":6042:6062   */\n      tag_65\n      jump\t// in\n    tag_155:\n        /* \"#utility.yul\":6037:6062   */\n      swap3\n      pop\n        /* \"#utility.yul\":6086:6087   */\n      dup3\n        /* \"#utility.yul\":6083:6084   */\n      dup3\n        /* \"#utility.yul\":6079:6088   */\n      sub\n        /* \"#utility.yul\":6071:6088   */\n      swap1\n      pop\n        /* \"#utility.yul\":6110:6111   */\n      dup2\n        /* \"#utility.yul\":6104:6108   */\n      dup2\n        /* \"#utility.yul\":6101:6112   */\n      gt\n        /* \"#utility.yul\":6098:6135   */\n      iszero\n      tag_156\n      jumpi\n        /* \"#utility.yul\":6115:6133   */\n      tag_157\n      tag_82\n      jump\t// in\n    tag_157:\n        /* \"#utility.yul\":6098:6135   */\n    tag_156:\n        /* \"#utility.yul\":5948:6142   */\n      swap3\n      swap2\n      pop\n      pop\n      jump\t// out\n\n    auxdata: 0xa2646970667358221220100f258231b4922d5717563c9a406636cafae917f74d7d24f8dec0e005035a7764736f6c63430008120033\n}\n",
				"bytecode": {
					"linkReferences": {},
					"object": "608060405234801561001057600080fd5b50610a2c806100206000396000f3fe6080604052600436106100705760003560e01c8063b082e4b51161004e578063b082e4b5146100e8578063b90d3d0c14610125578063bddcddeb14610165578063f3fef3a3146101a257610070565b80630ef67887146100755780631ad18ffd146100a05780636200ff4c146100aa575b600080fd5b34801561008157600080fd5b5061008a6101cb565b60405161009791906106ac565b60405180910390f35b6100a86101d3565b005b3480156100b657600080fd5b506100d160048036038101906100cc919061072a565b610343565b6040516100df929190610757565b60405180910390f35b3480156100f457600080fd5b5061010f600480360381019061010a91906107ac565b610368565b60405161011c919061082a565b60405180910390f35b34801561013157600080fd5b5061014c6004803603810190610147919061072a565b6103e9565b60405161015c9493929190610854565b60405180910390f35b34801561017157600080fd5b5061018c600480360381019061018791906107ac565b610439565b604051610199919061082a565b60405180910390f35b3480156101ae57600080fd5b506101c960048036038101906101c491906108d7565b6104ba565b005b600047905090565b346000803373ffffffffffffffffffffffffffffffffffffffff1673ffffffffffffffffffffffffffffffffffffffff16815260200190815260200160002060000160008282546102249190610946565b925050819055503460016000018190555042600180018190555060016000803373ffffffffffffffffffffffffffffffffffffffff1673ffffffffffffffffffffffffffffffffffffffff16815260200190815260200160002060020160008060003373ffffffffffffffffffffffffffffffffffffffff1673ffffffffffffffffffffffffffffffffffffffff16815260200190815260200160002060010154815260200190815260200160002060008201548160000155600182015481600101559050506000803373ffffffffffffffffffffffffffffffffffffffff1673ffffffffffffffffffffffffffffffffffffffff168152602001908152602001600020600101600081548092919061033c9061097a565b9190505550565b6000808273ffffffffffffffffffffffffffffffffffffffff16314291509150915091565b610370610679565b6000808473ffffffffffffffffffffffffffffffffffffffff1673ffffffffffffffffffffffffffffffffffffffff168152602001908152602001600020600201600083815260200190815260200160002060405180604001604052908160008201548152602001600182015481525050905092915050565b60006020528060005260406000206000915090508060000154908060010154908060030154908060050160009054906101000a900473ffffffffffffffffffffffffffffffffffffffff16905084565b610441610679565b6000808473ffffffffffffffffffffffffffffffffffffffff1673ffffffffffffffffffffffffffffffffffffffff168152602001908152602001600020600401600083815260200190815260200160002060405180604001604052908160008201548152602001600182015481525050905092915050565b806000803373ffffffffffffffffffffffffffffffffffffffff1673ffffffffffffffffffffffffffffffffffffffff168152602001908152602001600020600001600082825461050b91906109c2565b9250508190555060006040518060400160405280838152602001428152509050806000803373ffffffffffffffffffffffffffffffffffffffff1673ffffffffffffffffffffffffffffffffffffffff16815260200190815260200160002060040160008060003373ffffffffffffffffffffffffffffffffffffffff1673ffffffffffffffffffffffffffffffffffffffff16815260200190815260200160002060030154815260200190815260200160002060008201518160000155602082015181600101559050506000803373ffffffffffffffffffffffffffffffffffffffff1673ffffffffffffffffffffffffffffffffffffffff16815260200190815260200160002060030160008154809291906106289061097a565b91905055508273ffffffffffffffffffffffffffffffffffffffff166108fc839081150290604051600060405180830381858888f19350505050158015610673573d6000803e3d6000fd5b50505050565b604051806040016040528060008152602001600081525090565b6000819050919050565b6106a681610693565b82525050565b60006020820190506106c1600083018461069d565b92915050565b600080fd5b600073ffffffffffffffffffffffffffffffffffffffff82169050919050565b60006106f7826106cc565b9050919050565b610707816106ec565b811461071257600080fd5b50565b600081359050610724816106fe565b92915050565b6000602082840312156107405761073f6106c7565b5b600061074e84828501610715565b91505092915050565b600060408201905061076c600083018561069d565b610779602083018461069d565b9392505050565b61078981610693565b811461079457600080fd5b50565b6000813590506107a681610780565b92915050565b600080604083850312156107c3576107c26106c7565b5b60006107d185828601610715565b92505060206107e285828601610797565b9150509250929050565b6107f581610693565b82525050565b60408201600082015161081160008501826107ec565b50602082015161082460208501826107ec565b50505050565b600060408201905061083f60008301846107fb565b92915050565b61084e816106ec565b82525050565b6000608082019050610869600083018761069d565b610876602083018661069d565b610883604083018561069d565b6108906060830184610845565b95945050505050565b60006108a4826106cc565b9050919050565b6108b481610899565b81146108bf57600080fd5b50565b6000813590506108d1816108ab565b92915050565b600080604083850312156108ee576108ed6106c7565b5b60006108fc858286016108c2565b925050602061090d85828601610797565b9150509250929050565b7f4e487b7100000000000000000000000000000000000000000000000000000000600052601160045260246000fd5b600061095182610693565b915061095c83610693565b925082820190508082111561097457610973610917565b5b92915050565b600061098582610693565b91507fffffffffffffffffffffffffffffffffffffffffffffffffffffffffffffffff82036109b7576109b6610917565b5b600182019050919050565b60006109cd82610693565b91506109d883610693565b92508282039050818111156109f0576109ef610917565b5b9291505056fea2646970667358221220100f258231b4922d5717563c9a406636cafae917f74d7d24f8dec0e005035a7764736f6c63430008120033",
					"opcodes": "PUSH1 0x80 PUSH1 0x40 MSTORE CALLVALUE DUP1 ISZERO PUSH2 0x10 JUMPI PUSH1 0x0 DUP1 REVERT JUMPDEST POP PUSH2 0xA2C DUP1 PUSH2 0x20 PUSH1 0x0 CODECOPY PUSH1 0x0 RETURN INVALID PUSH1 0x80 PUSH1 0x40 MSTORE PUSH1 0x4 CALLDATASIZE LT PUSH2 0x70 JUMPI PUSH1 0x0 CALLDATALOAD PUSH1 0xE0 SHR DUP1 PUSH4 0xB082E4B5 GT PUSH2 0x4E JUMPI DUP1 PUSH4 0xB082E4B5 EQ PUSH2 0xE8 JUMPI DUP1 PUSH4 0xB90D3D0C EQ PUSH2 0x125 JUMPI DUP1 PUSH4 0xBDDCDDEB EQ PUSH2 0x165 JUMPI DUP1 PUSH4 0xF3FEF3A3 EQ PUSH2 0x1A2 JUMPI PUSH2 0x70 JUMP JUMPDEST DUP1 PUSH4 0xEF67887 EQ PUSH2 0x75 JUMPI DUP1 PUSH4 0x1AD18FFD EQ PUSH2 0xA0 JUMPI DUP1 PUSH4 0x6200FF4C EQ PUSH2 0xAA JUMPI JUMPDEST PUSH1 0x0 DUP1 REVERT JUMPDEST CALLVALUE DUP1 ISZERO PUSH2 0x81 JUMPI PUSH1 0x0 DUP1 REVERT JUMPDEST POP PUSH2 0x8A PUSH2 0x1CB JUMP JUMPDEST PUSH1 0x40 MLOAD PUSH2 0x97 SWAP2 SWAP1 PUSH2 0x6AC JUMP JUMPDEST PUSH1 0x40 MLOAD DUP1 SWAP2 SUB SWAP1 RETURN JUMPDEST PUSH2 0xA8 PUSH2 0x1D3 JUMP JUMPDEST STOP JUMPDEST CALLVALUE DUP1 ISZERO PUSH2 0xB6 JUMPI PUSH1 0x0 DUP1 REVERT JUMPDEST POP PUSH2 0xD1 PUSH1 0x4 DUP1 CALLDATASIZE SUB DUP2 ADD SWAP1 PUSH2 0xCC SWAP2 SWAP1 PUSH2 0x72A JUMP JUMPDEST PUSH2 0x343 JUMP JUMPDEST PUSH1 0x40 MLOAD PUSH2 0xDF SWAP3 SWAP2 SWAP1 PUSH2 0x757 JUMP JUMPDEST PUSH1 0x40 MLOAD DUP1 SWAP2 SUB SWAP1 RETURN JUMPDEST CALLVALUE DUP1 ISZERO PUSH2 0xF4 JUMPI PUSH1 0x0 DUP1 REVERT JUMPDEST POP PUSH2 0x10F PUSH1 0x4 DUP1 CALLDATASIZE SUB DUP2 ADD SWAP1 PUSH2 0x10A SWAP2 SWAP1 PUSH2 0x7AC JUMP JUMPDEST PUSH2 0x368 JUMP JUMPDEST PUSH1 0x40 MLOAD PUSH2 0x11C SWAP2 SWAP1 PUSH2 0x82A JUMP JUMPDEST PUSH1 0x40 MLOAD DUP1 SWAP2 SUB SWAP1 RETURN JUMPDEST CALLVALUE DUP1 ISZERO PUSH2 0x131 JUMPI PUSH1 0x0 DUP1 REVERT JUMPDEST POP PUSH2 0x14C PUSH1 0x4 DUP1 CALLDATASIZE SUB DUP2 ADD SWAP1 PUSH2 0x147 SWAP2 SWAP1 PUSH2 0x72A JUMP JUMPDEST PUSH2 0x3E9 JUMP JUMPDEST PUSH1 0x40 MLOAD PUSH2 0x15C SWAP5 SWAP4 SWAP3 SWAP2 SWAP1 PUSH2 0x854 JUMP JUMPDEST PUSH1 0x40 MLOAD DUP1 SWAP2 SUB SWAP1 RETURN JUMPDEST CALLVALUE DUP1 ISZERO PUSH2 0x171 JUMPI PUSH1 0x0 DUP1 REVERT JUMPDEST POP PUSH2 0x18C PUSH1 0x4 DUP1 CALLDATASIZE SUB DUP2 ADD SWAP1 PUSH2 0x187 SWAP2 SWAP1 PUSH2 0x7AC JUMP JUMPDEST PUSH2 0x439 JUMP JUMPDEST PUSH1 0x40 MLOAD PUSH2 0x199 SWAP2 SWAP1 PUSH2 0x82A JUMP JUMPDEST PUSH1 0x40 MLOAD DUP1 SWAP2 SUB SWAP1 RETURN JUMPDEST CALLVALUE DUP1 ISZERO PUSH2 0x1AE JUMPI PUSH1 0x0 DUP1 REVERT JUMPDEST POP PUSH2 0x1C9 PUSH1 0x4 DUP1 CALLDATASIZE SUB DUP2 ADD SWAP1 PUSH2 0x1C4 SWAP2 SWAP1 PUSH2 0x8D7 JUMP JUMPDEST PUSH2 0x4BA JUMP JUMPDEST STOP JUMPDEST PUSH1 0x0 SELFBALANCE SWAP1 POP SWAP1 JUMP JUMPDEST CALLVALUE PUSH1 0x0 DUP1 CALLER PUSH20 0xFFFFFFFFFFFFFFFFFFFFFFFFFFFFFFFFFFFFFFFF AND PUSH20 0xFFFFFFFFFFFFFFFFFFFFFFFFFFFFFFFFFFFFFFFF AND DUP2 MSTORE PUSH1 0x20 ADD SWAP1 DUP2 MSTORE PUSH1 0x20 ADD PUSH1 0x0 KECCAK256 PUSH1 0x0 ADD PUSH1 0x0 DUP3 DUP3 SLOAD PUSH2 0x224 SWAP2 SWAP1 PUSH2 0x946 JUMP JUMPDEST SWAP3 POP POP DUP2 SWAP1 SSTORE POP CALLVALUE PUSH1 0x1 PUSH1 0x0 ADD DUP2 SWAP1 SSTORE POP TIMESTAMP PUSH1 0x1 DUP1 ADD DUP2 SWAP1 SSTORE POP PUSH1 0x1 PUSH1 0x0 DUP1 CALLER PUSH20 0xFFFFFFFFFFFFFFFFFFFFFFFFFFFFFFFFFFFFFFFF AND PUSH20 0xFFFFFFFFFFFFFFFFFFFFFFFFFFFFFFFFFFFFFFFF AND DUP2 MSTORE PUSH1 0x20 ADD SWAP1 DUP2 MSTORE PUSH1 0x20 ADD PUSH1 0x0 KECCAK256 PUSH1 0x2 ADD PUSH1 0x0 DUP1 PUSH1 0x0 CALLER PUSH20 0xFFFFFFFFFFFFFFFFFFFFFFFFFFFFFFFFFFFFFFFF AND PUSH20 0xFFFFFFFFFFFFFFFFFFFFFFFFFFFFFFFFFFFFFFFF AND DUP2 MSTORE PUSH1 0x20 ADD SWAP1 DUP2 MSTORE PUSH1 0x20 ADD PUSH1 0x0 KECCAK256 PUSH1 0x1 ADD SLOAD DUP2 MSTORE PUSH1 0x20 ADD SWAP1 DUP2 MSTORE PUSH1 0x20 ADD PUSH1 0x0 KECCAK256 PUSH1 0x0 DUP3 ADD SLOAD DUP2 PUSH1 0x0 ADD SSTORE PUSH1 0x1 DUP3 ADD SLOAD DUP2 PUSH1 0x1 ADD SSTORE SWAP1 POP POP PUSH1 0x0 DUP1 CALLER PUSH20 0xFFFFFFFFFFFFFFFFFFFFFFFFFFFFFFFFFFFFFFFF AND PUSH20 0xFFFFFFFFFFFFFFFFFFFFFFFFFFFFFFFFFFFFFFFF AND DUP2 MSTORE PUSH1 0x20 ADD SWAP1 DUP2 MSTORE PUSH1 0x20 ADD PUSH1 0x0 KECCAK256 PUSH1 0x1 ADD PUSH1 0x0 DUP2 SLOAD DUP1 SWAP3 SWAP2 SWAP1 PUSH2 0x33C SWAP1 PUSH2 0x97A JUMP JUMPDEST SWAP2 SWAP1 POP SSTORE POP JUMP JUMPDEST PUSH1 0x0 DUP1 DUP3 PUSH20 0xFFFFFFFFFFFFFFFFFFFFFFFFFFFFFFFFFFFFFFFF AND BALANCE TIMESTAMP SWAP2 POP SWAP2 POP SWAP2 POP SWAP2 JUMP JUMPDEST PUSH2 0x370 PUSH2 0x679 JUMP JUMPDEST PUSH1 0x0 DUP1 DUP5 PUSH20 0xFFFFFFFFFFFFFFFFFFFFFFFFFFFFFFFFFFFFFFFF AND PUSH20 0xFFFFFFFFFFFFFFFFFFFFFFFFFFFFFFFFFFFFFFFF AND DUP2 MSTORE PUSH1 0x20 ADD SWAP1 DUP2 MSTORE PUSH1 0x20 ADD PUSH1 0x0 KECCAK256 PUSH1 0x2 ADD PUSH1 0x0 DUP4 DUP2 MSTORE PUSH1 0x20 ADD SWAP1 DUP2 MSTORE PUSH1 0x20 ADD PUSH1 0x0 KECCAK256 PUSH1 0x40 MLOAD DUP1 PUSH1 0x40 ADD PUSH1 0x40 MSTORE SWAP1 DUP2 PUSH1 0x0 DUP3 ADD SLOAD DUP2 MSTORE PUSH1 0x20 ADD PUSH1 0x1 DUP3 ADD SLOAD DUP2 MSTORE POP POP SWAP1 POP SWAP3 SWAP2 POP POP JUMP JUMPDEST PUSH1 0x0 PUSH1 0x20 MSTORE DUP1 PUSH1 0x0 MSTORE PUSH1 0x40 PUSH1 0x0 KECCAK256 PUSH1 0x0 SWAP2 POP SWAP1 POP DUP1 PUSH1 0x0 ADD SLOAD SWAP1 DUP1 PUSH1 0x1 ADD SLOAD SWAP1 DUP1 PUSH1 0x3 ADD SLOAD SWAP1 DUP1 PUSH1 0x5 ADD PUSH1 0x0 SWAP1 SLOAD SWAP1 PUSH2 0x100 EXP SWAP1 DIV PUSH20 0xFFFFFFFFFFFFFFFFFFFFFFFFFFFFFFFFFFFFFFFF AND SWAP1 POP DUP5 JUMP JUMPDEST PUSH2 0x441 PUSH2 0x679 JUMP JUMPDEST PUSH1 0x0 DUP1 DUP5 PUSH20 0xFFFFFFFFFFFFFFFFFFFFFFFFFFFFFFFFFFFFFFFF AND PUSH20 0xFFFFFFFFFFFFFFFFFFFFFFFFFFFFFFFFFFFFFFFF AND DUP2 MSTORE PUSH1 0x20 ADD SWAP1 DUP2 MSTORE PUSH1 0x20 ADD PUSH1 0x0 KECCAK256 PUSH1 0x4 ADD PUSH1 0x0 DUP4 DUP2 MSTORE PUSH1 0x20 ADD SWAP1 DUP2 MSTORE PUSH1 0x20 ADD PUSH1 0x0 KECCAK256 PUSH1 0x40 MLOAD DUP1 PUSH1 0x40 ADD PUSH1 0x40 MSTORE SWAP1 DUP2 PUSH1 0x0 DUP3 ADD SLOAD DUP2 MSTORE PUSH1 0x20 ADD PUSH1 0x1 DUP3 ADD SLOAD DUP2 MSTORE POP POP SWAP1 POP SWAP3 SWAP2 POP POP JUMP JUMPDEST DUP1 PUSH1 0x0 DUP1 CALLER PUSH20 0xFFFFFFFFFFFFFFFFFFFFFFFFFFFFFFFFFFFFFFFF AND PUSH20 0xFFFFFFFFFFFFFFFFFFFFFFFFFFFFFFFFFFFFFFFF AND DUP2 MSTORE PUSH1 0x20 ADD SWAP1 DUP2 MSTORE PUSH1 0x20 ADD PUSH1 0x0 KECCAK256 PUSH1 0x0 ADD PUSH1 0x0 DUP3 DUP3 SLOAD PUSH2 0x50B SWAP2 SWAP1 PUSH2 0x9C2 JUMP JUMPDEST SWAP3 POP POP DUP2 SWAP1 SSTORE POP PUSH1 0x0 PUSH1 0x40 MLOAD DUP1 PUSH1 0x40 ADD PUSH1 0x40 MSTORE DUP1 DUP4 DUP2 MSTORE PUSH1 0x20 ADD TIMESTAMP DUP2 MSTORE POP SWAP1 POP DUP1 PUSH1 0x0 DUP1 CALLER PUSH20 0xFFFFFFFFFFFFFFFFFFFFFFFFFFFFFFFFFFFFFFFF AND PUSH20 0xFFFFFFFFFFFFFFFFFFFFFFFFFFFFFFFFFFFFFFFF AND DUP2 MSTORE PUSH1 0x20 ADD SWAP1 DUP2 MSTORE PUSH1 0x20 ADD PUSH1 0x0 KECCAK256 PUSH1 0x4 ADD PUSH1 0x0 DUP1 PUSH1 0x0 CALLER PUSH20 0xFFFFFFFFFFFFFFFFFFFFFFFFFFFFFFFFFFFFFFFF AND PUSH20 0xFFFFFFFFFFFFFFFFFFFFFFFFFFFFFFFFFFFFFFFF AND DUP2 MSTORE PUSH1 0x20 ADD SWAP1 DUP2 MSTORE PUSH1 0x20 ADD PUSH1 0x0 KECCAK256 PUSH1 0x3 ADD SLOAD DUP2 MSTORE PUSH1 0x20 ADD SWAP1 DUP2 MSTORE PUSH1 0x20 ADD PUSH1 0x0 KECCAK256 PUSH1 0x0 DUP3 ADD MLOAD DUP2 PUSH1 0x0 ADD SSTORE PUSH1 0x20 DUP3 ADD MLOAD DUP2 PUSH1 0x1 ADD SSTORE SWAP1 POP POP PUSH1 0x0 DUP1 CALLER PUSH20 0xFFFFFFFFFFFFFFFFFFFFFFFFFFFFFFFFFFFFFFFF AND PUSH20 0xFFFFFFFFFFFFFFFFFFFFFFFFFFFFFFFFFFFFFFFF AND DUP2 MSTORE PUSH1 0x20 ADD SWAP1 DUP2 MSTORE PUSH1 0x20 ADD PUSH1 0x0 KECCAK256 PUSH1 0x3 ADD PUSH1 0x0 DUP2 SLOAD DUP1 SWAP3 SWAP2 SWAP1 PUSH2 0x628 SWAP1 PUSH2 0x97A JUMP JUMPDEST SWAP2 SWAP1 POP SSTORE POP DUP3 PUSH20 0xFFFFFFFFFFFFFFFFFFFFFFFFFFFFFFFFFFFFFFFF AND PUSH2 0x8FC DUP4 SWAP1 DUP2 ISZERO MUL SWAP1 PUSH1 0x40 MLOAD PUSH1 0x0 PUSH1 0x40 MLOAD DUP1 DUP4 SUB DUP2 DUP6 DUP9 DUP9 CALL SWAP4 POP POP POP POP ISZERO DUP1 ISZERO PUSH2 0x673 JUMPI RETURNDATASIZE PUSH1 0x0 DUP1 RETURNDATACOPY RETURNDATASIZE PUSH1 0x0 REVERT JUMPDEST POP POP POP POP JUMP JUMPDEST PUSH1 0x40 MLOAD DUP1 PUSH1 0x40 ADD PUSH1 0x40 MSTORE DUP1 PUSH1 0x0 DUP2 MSTORE PUSH1 0x20 ADD PUSH1 0x0 DUP2 MSTORE POP SWAP1 JUMP JUMPDEST PUSH1 0x0 DUP2 SWAP1 POP SWAP2 SWAP1 POP JUMP JUMPDEST PUSH2 0x6A6 DUP2 PUSH2 0x693 JUMP JUMPDEST DUP3 MSTORE POP POP JUMP JUMPDEST PUSH1 0x0 PUSH1 0x20 DUP3 ADD SWAP1 POP PUSH2 0x6C1 PUSH1 0x0 DUP4 ADD DUP5 PUSH2 0x69D JUMP JUMPDEST SWAP3 SWAP2 POP POP JUMP JUMPDEST PUSH1 0x0 DUP1 REVERT JUMPDEST PUSH1 0x0 PUSH20 0xFFFFFFFFFFFFFFFFFFFFFFFFFFFFFFFFFFFFFFFF DUP3 AND SWAP1 POP SWAP2 SWAP1 POP JUMP JUMPDEST PUSH1 0x0 PUSH2 0x6F7 DUP3 PUSH2 0x6CC JUMP JUMPDEST SWAP1 POP SWAP2 SWAP1 POP JUMP JUMPDEST PUSH2 0x707 DUP2 PUSH2 0x6EC JUMP JUMPDEST DUP2 EQ PUSH2 0x712 JUMPI PUSH1 0x0 DUP1 REVERT JUMPDEST POP JUMP JUMPDEST PUSH1 0x0 DUP2 CALLDATALOAD SWAP1 POP PUSH2 0x724 DUP2 PUSH2 0x6FE JUMP JUMPDEST SWAP3 SWAP2 POP POP JUMP JUMPDEST PUSH1 0x0 PUSH1 0x20 DUP3 DUP5 SUB SLT ISZERO PUSH2 0x740 JUMPI PUSH2 0x73F PUSH2 0x6C7 JUMP JUMPDEST JUMPDEST PUSH1 0x0 PUSH2 0x74E DUP5 DUP3 DUP6 ADD PUSH2 0x715 JUMP JUMPDEST SWAP2 POP POP SWAP3 SWAP2 POP POP JUMP JUMPDEST PUSH1 0x0 PUSH1 0x40 DUP3 ADD SWAP1 POP PUSH2 0x76C PUSH1 0x0 DUP4 ADD DUP6 PUSH2 0x69D JUMP JUMPDEST PUSH2 0x779 PUSH1 0x20 DUP4 ADD DUP5 PUSH2 0x69D JUMP JUMPDEST SWAP4 SWAP3 POP POP POP JUMP JUMPDEST PUSH2 0x789 DUP2 PUSH2 0x693 JUMP JUMPDEST DUP2 EQ PUSH2 0x794 JUMPI PUSH1 0x0 DUP1 REVERT JUMPDEST POP JUMP JUMPDEST PUSH1 0x0 DUP2 CALLDATALOAD SWAP1 POP PUSH2 0x7A6 DUP2 PUSH2 0x780 JUMP JUMPDEST SWAP3 SWAP2 POP POP JUMP JUMPDEST PUSH1 0x0 DUP1 PUSH1 0x40 DUP4 DUP6 SUB SLT ISZERO PUSH2 0x7C3 JUMPI PUSH2 0x7C2 PUSH2 0x6C7 JUMP JUMPDEST JUMPDEST PUSH1 0x0 PUSH2 0x7D1 DUP6 DUP3 DUP7 ADD PUSH2 0x715 JUMP JUMPDEST SWAP3 POP POP PUSH1 0x20 PUSH2 0x7E2 DUP6 DUP3 DUP7 ADD PUSH2 0x797 JUMP JUMPDEST SWAP2 POP POP SWAP3 POP SWAP3 SWAP1 POP JUMP JUMPDEST PUSH2 0x7F5 DUP2 PUSH2 0x693 JUMP JUMPDEST DUP3 MSTORE POP POP JUMP JUMPDEST PUSH1 0x40 DUP3 ADD PUSH1 0x0 DUP3 ADD MLOAD PUSH2 0x811 PUSH1 0x0 DUP6 ADD DUP3 PUSH2 0x7EC JUMP JUMPDEST POP PUSH1 0x20 DUP3 ADD MLOAD PUSH2 0x824 PUSH1 0x20 DUP6 ADD DUP3 PUSH2 0x7EC JUMP JUMPDEST POP POP POP POP JUMP JUMPDEST PUSH1 0x0 PUSH1 0x40 DUP3 ADD SWAP1 POP PUSH2 0x83F PUSH1 0x0 DUP4 ADD DUP5 PUSH2 0x7FB JUMP JUMPDEST SWAP3 SWAP2 POP POP JUMP JUMPDEST PUSH2 0x84E DUP2 PUSH2 0x6EC JUMP JUMPDEST DUP3 MSTORE POP POP JUMP JUMPDEST PUSH1 0x0 PUSH1 0x80 DUP3 ADD SWAP1 POP PUSH2 0x869 PUSH1 0x0 DUP4 ADD DUP8 PUSH2 0x69D JUMP JUMPDEST PUSH2 0x876 PUSH1 0x20 DUP4 ADD DUP7 PUSH2 0x69D JUMP JUMPDEST PUSH2 0x883 PUSH1 0x40 DUP4 ADD DUP6 PUSH2 0x69D JUMP JUMPDEST PUSH2 0x890 PUSH1 0x60 DUP4 ADD DUP5 PUSH2 0x845 JUMP JUMPDEST SWAP6 SWAP5 POP POP POP POP POP JUMP JUMPDEST PUSH1 0x0 PUSH2 0x8A4 DUP3 PUSH2 0x6CC JUMP JUMPDEST SWAP1 POP SWAP2 SWAP1 POP JUMP JUMPDEST PUSH2 0x8B4 DUP2 PUSH2 0x899 JUMP JUMPDEST DUP2 EQ PUSH2 0x8BF JUMPI PUSH1 0x0 DUP1 REVERT JUMPDEST POP JUMP JUMPDEST PUSH1 0x0 DUP2 CALLDATALOAD SWAP1 POP PUSH2 0x8D1 DUP2 PUSH2 0x8AB JUMP JUMPDEST SWAP3 SWAP2 POP POP JUMP JUMPDEST PUSH1 0x0 DUP1 PUSH1 0x40 DUP4 DUP6 SUB SLT ISZERO PUSH2 0x8EE JUMPI PUSH2 0x8ED PUSH2 0x6C7 JUMP JUMPDEST JUMPDEST PUSH1 0x0 PUSH2 0x8FC DUP6 DUP3 DUP7 ADD PUSH2 0x8C2 JUMP JUMPDEST SWAP3 POP POP PUSH1 0x20 PUSH2 0x90D DUP6 DUP3 DUP7 ADD PUSH2 0x797 JUMP JUMPDEST SWAP2 POP POP SWAP3 POP SWAP3 SWAP1 POP JUMP JUMPDEST PUSH32 0x4E487B7100000000000000000000000000000000000000000000000000000000 PUSH1 0x0 MSTORE PUSH1 0x11 PUSH1 0x4 MSTORE PUSH1 0x24 PUSH1 0x0 REVERT JUMPDEST PUSH1 0x0 PUSH2 0x951 DUP3 PUSH2 0x693 JUMP JUMPDEST SWAP2 POP PUSH2 0x95C DUP4 PUSH2 0x693 JUMP JUMPDEST SWAP3 POP DUP3 DUP3 ADD SWAP1 POP DUP1 DUP3 GT ISZERO PUSH2 0x974 JUMPI PUSH2 0x973 PUSH2 0x917 JUMP JUMPDEST JUMPDEST SWAP3 SWAP2 POP POP JUMP JUMPDEST PUSH1 0x0 PUSH2 0x985 DUP3 PUSH2 0x693 JUMP JUMPDEST SWAP2 POP PUSH32 0xFFFFFFFFFFFFFFFFFFFFFFFFFFFFFFFFFFFFFFFFFFFFFFFFFFFFFFFFFFFFFFFF DUP3 SUB PUSH2 0x9B7 JUMPI PUSH2 0x9B6 PUSH2 0x917 JUMP JUMPDEST JUMPDEST PUSH1 0x1 DUP3 ADD SWAP1 POP SWAP2 SWAP1 POP JUMP JUMPDEST PUSH1 0x0 PUSH2 0x9CD DUP3 PUSH2 0x693 JUMP JUMPDEST SWAP2 POP PUSH2 0x9D8 DUP4 PUSH2 0x693 JUMP JUMPDEST SWAP3 POP DUP3 DUP3 SUB SWAP1 POP DUP2 DUP2 GT ISZERO PUSH2 0x9F0 JUMPI PUSH2 0x9EF PUSH2 0x917 JUMP JUMPDEST JUMPDEST SWAP3 SWAP2 POP POP JUMP INVALID LOG2 PUSH5 0x6970667358 0x22 SLT KECCAK256 LT 0xF 0x25 DUP3 BALANCE 0xB4 SWAP3 0x2D JUMPI OR JUMP EXTCODECOPY SWAP11 BLOCKHASH PUSH7 0x36CAFAE917F74D PUSH30 0x24F8DEC0E005035A7764736F6C6343000812003300000000000000000000 "
				},
				"gasEstimates": {
					"creation": {
						"codeDepositCost": "520800",
						"executionCost": "556",
						"totalCost": "521356"
					},
					"external": {
						"Balance()": "340",
						"DeposotMoney()": "infinite",
						"GetDepositData(address,uint256)": "infinite",
						"GetReceiverData(address)": "infinite",
						"GetWithdrawData(address,uint256)": "infinite",
						"data(address)": "infinite",
						"withdraw(address,uint256)": "infinite"
					}
				},
				"methodIdentifiers": {
					"Balance()": "0ef67887",
					"DeposotMoney()": "1ad18ffd",
					"GetDepositData(address,uint256)": "b082e4b5",
					"GetReceiverData(address)": "6200ff4c",
					"GetWithdrawData(address,uint256)": "bddcddeb",
					"data(address)": "b90d3d0c",
					"withdraw(address,uint256)": "f3fef3a3"
				}
			},
			"storageLayout": {
				"storage": [
					{
						"astId": 35,
						"contract": "third.sol:Wallet",
						"label": "data",
						"offset": 0,
						"slot": "0",
						"type": "t_mapping(t_address,t_struct(balance)30_storage)"
					},
					{
						"astId": 90,
						"contract": "third.sol:Wallet",
						"label": "val",
						"offset": 0,
						"slot": "1",
						"type": "t_struct(transection)6_storage"
					}
				],
				"types": {
					"t_address": {
						"encoding": "inplace",
						"label": "address",
						"numberOfBytes": "20"
					},
					"t_mapping(t_address,t_struct(balance)30_storage)": {
						"encoding": "mapping",
						"key": "t_address",
						"label": "mapping(address => struct Wallet.balance)",
						"numberOfBytes": "32",
						"value": "t_struct(balance)30_storage"
					},
					"t_mapping(t_address,t_struct(transection)6_storage)": {
						"encoding": "mapping",
						"key": "t_address",
						"label": "mapping(address => struct Wallet.transection)",
						"numberOfBytes": "32",
						"value": "t_struct(transection)6_storage"
					},
					"t_mapping(t_uint256,t_struct(transection)6_storage)": {
						"encoding": "mapping",
						"key": "t_uint256",
						"label": "mapping(uint256 => struct Wallet.transection)",
						"numberOfBytes": "32",
						"value": "t_struct(transection)6_storage"
					},
					"t_struct(balance)30_storage": {
						"encoding": "inplace",
						"label": "struct Wallet.balance",
						"members": [
							{
								"astId": 8,
								"contract": "third.sol:Wallet",
								"label": "totalbalance",
								"offset": 0,
								"slot": "0",
								"type": "t_uint256"
							},
							{
								"astId": 10,
								"contract": "third.sol:Wallet",
								"label": "numdeposits",
								"offset": 0,
								"slot": "1",
								"type": "t_uint256"
							},
							{
								"astId": 15,
								"contract": "third.sol:Wallet",
								"label": "deposits",
								"offset": 0,
								"slot": "2",
								"type": "t_mapping(t_uint256,t_struct(transection)6_storage)"
							},
							{
								"astId": 17,
								"contract": "third.sol:Wallet",
								"label": "withdrawl",
								"offset": 0,
								"slot": "3",
								"type": "t_uint256"
							},
							{
								"astId": 22,
								"contract": "third.sol:Wallet",
								"label": "withdrawls",
								"offset": 0,
								"slot": "4",
								"type": "t_mapping(t_uint256,t_struct(transection)6_storage)"
							},
							{
								"astId": 24,
								"contract": "third.sol:Wallet",
								"label": "receiverd",
								"offset": 0,
								"slot": "5",
								"type": "t_address"
							},
							{
								"astId": 29,
								"contract": "third.sol:Wallet",
								"label": "receiver",
								"offset": 0,
								"slot": "6",
								"type": "t_mapping(t_address,t_struct(transection)6_storage)"
							}
						],
						"numberOfBytes": "224"
					},
					"t_struct(transection)6_storage": {
						"encoding": "inplace",
						"label": "struct Wallet.transection",
						"members": [
							{
								"astId": 3,
								"contract": "third.sol:Wallet",
								"label": "amount",
								"offset": 0,
								"slot": "0",
								"type": "t_uint256"
							},
							{
								"astId": 5,
								"contract": "third.sol:Wallet",
								"label": "timestamp",
								"offset": 0,
								"slot": "1",
								"type": "t_uint256"
							}
						],
						"numberOfBytes": "64"
					},
					"t_uint256": {
						"encoding": "inplace",
						"label": "uint256",
						"numberOfBytes": "32"
					}
				}
			},
			"userdoc": {
				"kind": "user",
				"methods": {},
				"version": 1
			}
		}
	}
}