{
	"tweeter project.sol": {
		"tweeter": {
			"abi": [
				{
					"inputs": [
						{
							"internalType": "address",
							"name": "follower_address",
							"type": "address"
						}
					],
					"name": "Follow",
					"outputs": [],
					"stateMutability": "nonpayable",
					"type": "function"
				},
				{
					"inputs": [
						{
							"internalType": "uint256",
							"name": "count",
							"type": "uint256"
						}
					],
					"name": "Get_Latest_Tweet",
					"outputs": [
						{
							"components": [
								{
									"internalType": "uint256",
									"name": "id",
									"type": "uint256"
								},
								{
									"internalType": "address",
									"name": "creator",
									"type": "address"
								},
								{
									"internalType": "string",
									"name": "content",
									"type": "string"
								},
								{
									"internalType": "uint256",
									"name": "time",
									"type": "uint256"
								}
							],
							"internalType": "struct tweeter.tweetdata[]",
							"name": "",
							"type": "tuple[]"
						}
					],
					"stateMutability": "view",
					"type": "function"
				},
				{
					"inputs": [
						{
							"internalType": "address",
							"name": "from",
							"type": "address"
						},
						{
							"internalType": "address",
							"name": "to",
							"type": "address"
						},
						{
							"internalType": "string",
							"name": "content",
							"type": "string"
						}
					],
					"name": "SendMessage",
					"outputs": [],
					"stateMutability": "nonpayable",
					"type": "function"
				},
				{
					"inputs": [
						{
							"internalType": "address",
							"name": "to",
							"type": "address"
						},
						{
							"internalType": "string",
							"name": "content",
							"type": "string"
						}
					],
					"name": "SendMessage",
					"outputs": [],
					"stateMutability": "nonpayable",
					"type": "function"
				},
				{
					"inputs": [
						{
							"internalType": "uint256",
							"name": "",
							"type": "uint256"
						}
					],
					"name": "Tweet",
					"outputs": [
						{
							"internalType": "uint256",
							"name": "id",
							"type": "uint256"
						},
						{
							"internalType": "address",
							"name": "creator",
							"type": "address"
						},
						{
							"internalType": "string",
							"name": "content",
							"type": "string"
						},
						{
							"internalType": "uint256",
							"name": "time",
							"type": "uint256"
						}
					],
					"stateMutability": "view",
					"type": "function"
				},
				{
					"inputs": [
						{
							"internalType": "string",
							"name": "content",
							"type": "string"
						}
					],
					"name": "Tweett",
					"outputs": [],
					"stateMutability": "nonpayable",
					"type": "function"
				},
				{
					"inputs": [
						{
							"internalType": "address",
							"name": "from",
							"type": "address"
						},
						{
							"internalType": "string",
							"name": "content",
							"type": "string"
						}
					],
					"name": "Tweett",
					"outputs": [],
					"stateMutability": "nonpayable",
					"type": "function"
				},
				{
					"inputs": [
						{
							"internalType": "address",
							"name": "addr",
							"type": "address"
						}
					],
					"name": "allow",
					"outputs": [],
					"stateMutability": "nonpayable",
					"type": "function"
				},
				{
					"inputs": [
						{
							"internalType": "address",
							"name": "",
							"type": "address"
						},
						{
							"internalType": "uint256",
							"name": "",
							"type": "uint256"
						}
					],
					"name": "conversation",
					"outputs": [
						{
							"internalType": "uint256",
							"name": "id",
							"type": "uint256"
						},
						{
							"internalType": "address",
							"name": "from",
							"type": "address"
						},
						{
							"internalType": "address",
							"name": "to",
							"type": "address"
						},
						{
							"internalType": "uint256",
							"name": "time",
							"type": "uint256"
						},
						{
							"internalType": "string",
							"name": "msgcontent",
							"type": "string"
						}
					],
					"stateMutability": "view",
					"type": "function"
				},
				{
					"inputs": [
						{
							"internalType": "address",
							"name": "addr",
							"type": "address"
						}
					],
					"name": "disallow",
					"outputs": [],
					"stateMutability": "nonpayable",
					"type": "function"
				},
				{
					"inputs": [
						{
							"internalType": "address",
							"name": "",
							"type": "address"
						},
						{
							"internalType": "uint256",
							"name": "",
							"type": "uint256"
						}
					],
					"name": "following",
					"outputs": [
						{
							"internalType": "address",
							"name": "",
							"type": "address"
						}
					],
					"stateMutability": "view",
					"type": "function"
				},
				{
					"inputs": [
						{
							"internalType": "address",
							"name": "",
							"type": "address"
						},
						{
							"internalType": "address",
							"name": "",
							"type": "address"
						}
					],
					"name": "operators",
					"outputs": [
						{
							"internalType": "bool",
							"name": "",
							"type": "bool"
						}
					],
					"stateMutability": "view",
					"type": "function"
				},
				{
					"inputs": [
						{
							"internalType": "address",
							"name": "",
							"type": "address"
						},
						{
							"internalType": "uint256",
							"name": "",
							"type": "uint256"
						}
					],
					"name": "tweetof",
					"outputs": [
						{
							"internalType": "uint256",
							"name": "",
							"type": "uint256"
						}
					],
					"stateMutability": "view",
					"type": "function"
				}
			],
			"devdoc": {
				"kind": "dev",
				"methods": {},
				"version": 1
			},
			"evm": {
				"assembly": "    /* \"tweeter project.sol\":74:2315  contract tweeter{... */\n  mstore(0x40, 0x80)\n  callvalue\n  dup1\n  iszero\n  tag_1\n  jumpi\n  0x00\n  dup1\n  revert\ntag_1:\n  pop\n  dataSize(sub_0)\n  dup1\n  dataOffset(sub_0)\n  0x00\n  codecopy\n  0x00\n  return\nstop\n\nsub_0: assembly {\n        /* \"tweeter project.sol\":74:2315  contract tweeter{... */\n      mstore(0x40, 0x80)\n      callvalue\n      dup1\n      iszero\n      tag_1\n      jumpi\n      0x00\n      dup1\n      revert\n    tag_1:\n      pop\n      jumpi(tag_2, lt(calldatasize, 0x04))\n      shr(0xe0, calldataload(0x00))\n      dup1\n      0x6e10beaf\n      gt\n      tag_16\n      jumpi\n      dup1\n      0xd088db40\n      gt\n      tag_17\n      jumpi\n      dup1\n      0xd088db40\n      eq\n      tag_12\n      jumpi\n      dup1\n      0xe06da1cb\n      eq\n      tag_13\n      jumpi\n      dup1\n      0xe15a1e33\n      eq\n      tag_14\n      jumpi\n      dup1\n      0xff9913e8\n      eq\n      tag_15\n      jumpi\n      jump(tag_2)\n    tag_17:\n      dup1\n      0x6e10beaf\n      eq\n      tag_9\n      jumpi\n      dup1\n      0x9139cda5\n      eq\n      tag_10\n      jumpi\n      dup1\n      0xa9ed9cb8\n      eq\n      tag_11\n      jumpi\n      jump(tag_2)\n    tag_16:\n      dup1\n      0x151a39c6\n      eq\n      tag_3\n      jumpi\n      dup1\n      0x1c32166a\n      eq\n      tag_4\n      jumpi\n      dup1\n      0x2637588e\n      eq\n      tag_5\n      jumpi\n      dup1\n      0x41e5ed76\n      eq\n      tag_6\n      jumpi\n      dup1\n      0x5ab8f8bc\n      eq\n      tag_7\n      jumpi\n      dup1\n      0x5dfcaebf\n      eq\n      tag_8\n      jumpi\n    tag_2:\n      0x00\n      dup1\n      revert\n        /* \"tweeter project.sol\":1806:2296  function Get_Latest_Tweet(uint count) public view returns(tweetdata[] memory) {... */\n    tag_3:\n      tag_18\n      0x04\n      dup1\n      calldatasize\n      sub\n      dup2\n      add\n      swap1\n      tag_19\n      swap2\n      swap1\n      tag_20\n      jump\t// in\n    tag_19:\n      tag_21\n      jump\t// in\n    tag_18:\n      mload(0x40)\n      tag_22\n      swap2\n      swap1\n      tag_23\n      jump\t// in\n    tag_22:\n      mload(0x40)\n      dup1\n      swap2\n      sub\n      swap1\n      return\n        /* \"tweeter project.sol\":360:397  mapping(uint=>tweetdata) public Tweet */\n    tag_4:\n      tag_24\n      0x04\n      dup1\n      calldatasize\n      sub\n      dup2\n      add\n      swap1\n      tag_25\n      swap2\n      swap1\n      tag_20\n      jump\t// in\n    tag_25:\n      tag_26\n      jump\t// in\n    tag_24:\n      mload(0x40)\n      tag_27\n      swap5\n      swap4\n      swap3\n      swap2\n      swap1\n      tag_28\n      jump\t// in\n    tag_27:\n      mload(0x40)\n      dup1\n      swap2\n      sub\n      swap1\n      return\n        /* \"tweeter project.sol\":504:561  mapping(address=>mapping(address=>bool)) public operators */\n    tag_5:\n      tag_29\n      0x04\n      dup1\n      calldatasize\n      sub\n      dup2\n      add\n      swap1\n      tag_30\n      swap2\n      swap1\n      tag_31\n      jump\t// in\n    tag_30:\n      tag_32\n      jump\t// in\n    tag_29:\n      mload(0x40)\n      tag_33\n      swap2\n      swap1\n      tag_34\n      jump\t// in\n    tag_33:\n      mload(0x40)\n      dup1\n      swap2\n      sub\n      swap1\n      return\n        /* \"tweeter project.sol\":1355:1481  function SendMessage(address from, address to, string memory content)public {... */\n    tag_6:\n      tag_35\n      0x04\n      dup1\n      calldatasize\n      sub\n      dup2\n      add\n      swap1\n      tag_36\n      swap2\n      swap1\n      tag_37\n      jump\t// in\n    tag_36:\n      tag_38\n      jump\t// in\n    tag_35:\n      stop\n        /* \"tweeter project.sol\":1017:1112  function Tweett(string memory content) public {... */\n    tag_7:\n      tag_39\n      0x04\n      dup1\n      calldatasize\n      sub\n      dup2\n      add\n      swap1\n      tag_40\n      swap2\n      swap1\n      tag_41\n      jump\t// in\n    tag_40:\n      tag_42\n      jump\t// in\n    tag_39:\n      stop\n        /* \"tweeter project.sol\":450:497  mapping(address=>message[]) public conversation */\n    tag_8:\n      tag_43\n      0x04\n      dup1\n      calldatasize\n      sub\n      dup2\n      add\n      swap1\n      tag_44\n      swap2\n      swap1\n      tag_45\n      jump\t// in\n    tag_44:\n      tag_46\n      jump\t// in\n    tag_43:\n      mload(0x40)\n      tag_47\n      swap6\n      swap5\n      swap4\n      swap3\n      swap2\n      swap1\n      tag_48\n      jump\t// in\n    tag_47:\n      mload(0x40)\n      dup1\n      swap2\n      sub\n      swap1\n      return\n        /* \"tweeter project.sol\":404:443  mapping(address=>uint[]) public tweetof */\n    tag_9:\n      tag_49\n      0x04\n      dup1\n      calldatasize\n      sub\n      dup2\n      add\n      swap1\n      tag_50\n      swap2\n      swap1\n      tag_45\n      jump\t// in\n    tag_50:\n      tag_51\n      jump\t// in\n    tag_49:\n      mload(0x40)\n      tag_52\n      swap2\n      swap1\n      tag_53\n      jump\t// in\n    tag_52:\n      mload(0x40)\n      dup1\n      swap2\n      sub\n      swap1\n      return\n        /* \"tweeter project.sol\":568:612  mapping(address=>address[]) public following */\n    tag_10:\n      tag_54\n      0x04\n      dup1\n      calldatasize\n      sub\n      dup2\n      add\n      swap1\n      tag_55\n      swap2\n      swap1\n      tag_45\n      jump\t// in\n    tag_55:\n      tag_56\n      jump\t// in\n    tag_54:\n      mload(0x40)\n      tag_57\n      swap2\n      swap1\n      tag_58\n      jump\t// in\n    tag_57:\n      mload(0x40)\n      dup1\n      swap2\n      sub\n      swap1\n      return\n        /* \"tweeter project.sol\":1703:1794  function disallow(address addr) public {... */\n    tag_11:\n      tag_59\n      0x04\n      dup1\n      calldatasize\n      sub\n      dup2\n      add\n      swap1\n      tag_60\n      swap2\n      swap1\n      tag_61\n      jump\t// in\n    tag_60:\n      tag_62\n      jump\t// in\n    tag_59:\n      stop\n        /* \"tweeter project.sol\":1229:1347  function SendMessage(address to,string memory content) public {... */\n    tag_12:\n      tag_63\n      0x04\n      dup1\n      calldatasize\n      sub\n      dup2\n      add\n      swap1\n      tag_64\n      swap2\n      swap1\n      tag_65\n      jump\t// in\n    tag_64:\n      tag_66\n      jump\t// in\n    tag_63:\n      stop\n        /* \"tweeter project.sol\":1487:1600  function Follow(address follower_address) public  {... */\n    tag_13:\n      tag_67\n      0x04\n      dup1\n      calldatasize\n      sub\n      dup2\n      add\n      swap1\n      tag_68\n      swap2\n      swap1\n      tag_61\n      jump\t// in\n    tag_68:\n      tag_69\n      jump\t// in\n    tag_67:\n      stop\n        /* \"tweeter project.sol\":1120:1221  function Tweett(address from,string memory content) public {... */\n    tag_14:\n      tag_70\n      0x04\n      dup1\n      calldatasize\n      sub\n      dup2\n      add\n      swap1\n      tag_71\n      swap2\n      swap1\n      tag_65\n      jump\t// in\n    tag_71:\n      tag_72\n      jump\t// in\n    tag_70:\n      stop\n        /* \"tweeter project.sol\":1608:1695  function allow(address addr) public {... */\n    tag_15:\n      tag_73\n      0x04\n      dup1\n      calldatasize\n      sub\n      dup2\n      add\n      swap1\n      tag_74\n      swap2\n      swap1\n      tag_61\n      jump\t// in\n    tag_74:\n      tag_75\n      jump\t// in\n    tag_73:\n      stop\n        /* \"tweeter project.sol\":1806:2296  function Get_Latest_Tweet(uint count) public view returns(tweetdata[] memory) {... */\n    tag_21:\n        /* \"tweeter project.sol\":1864:1882  tweetdata[] memory */\n      0x60\n        /* \"tweeter project.sol\":1909:1910  0 */\n      0x00\n        /* \"tweeter project.sol\":1903:1908  count */\n      dup3\n        /* \"tweeter project.sol\":1903:1910  count>0 */\n      gt\n        /* \"tweeter project.sol\":1903:1927  count>0 && count<=nextid */\n      dup1\n      iszero\n      tag_77\n      jumpi\n      pop\n        /* \"tweeter project.sol\":1921:1927  nextid */\n      sload(0x05)\n        /* \"tweeter project.sol\":1914:1919  count */\n      dup3\n        /* \"tweeter project.sol\":1914:1927  count<=nextid */\n      gt\n      iszero\n        /* \"tweeter project.sol\":1903:1927  count>0 && count<=nextid */\n    tag_77:\n        /* \"tweeter project.sol\":1895:1945  require(count>0 && count<=nextid, \"Invalid Count\") */\n      tag_78\n      jumpi\n      mload(0x40)\n      0x08c379a000000000000000000000000000000000000000000000000000000000\n      dup2\n      mstore\n      0x04\n      add\n      tag_79\n      swap1\n      tag_80\n      jump\t// in\n    tag_79:\n      mload(0x40)\n      dup1\n      swap2\n      sub\n      swap1\n      revert\n    tag_78:\n        /* \"tweeter project.sol\":1956:1985  tweetdata[] memory _tweetdata */\n      0x00\n        /* \"tweeter project.sol\":2003:2008  count */\n      dup3\n        /* \"tweeter project.sol\":1987:2009  new tweetdata[](count) */\n      0xffffffffffffffff\n      dup2\n      gt\n      iszero\n      tag_81\n      jumpi\n      tag_82\n      tag_83\n      jump\t// in\n    tag_82:\n    tag_81:\n      mload(0x40)\n      swap1\n      dup1\n      dup3\n      mstore\n      dup1\n      0x20\n      mul\n      0x20\n      add\n      dup3\n      add\n      0x40\n      mstore\n      dup1\n      iszero\n      tag_84\n      jumpi\n      dup2\n      0x20\n      add\n    tag_85:\n      tag_86\n      tag_87\n      jump\t// in\n    tag_86:\n      dup2\n      mstore\n      0x20\n      add\n      swap1\n      0x01\n      swap1\n      sub\n      swap1\n      dup2\n      tag_85\n      jumpi\n      swap1\n      pop\n    tag_84:\n      pop\n        /* \"tweeter project.sol\":1956:2009  tweetdata[] memory _tweetdata= new tweetdata[](count) */\n      swap1\n      pop\n        /* \"tweeter project.sol\":2022:2028  uint j */\n      0x00\n        /* \"tweeter project.sol\":2043:2049  uint i */\n      dup1\n        /* \"tweeter project.sol\":2057:2062  count */\n      dup5\n        /* \"tweeter project.sol\":2050:2056  nextid */\n      sload(0x05)\n        /* \"tweeter project.sol\":2050:2062  nextid-count */\n      tag_91\n      swap2\n      swap1\n      tag_92\n      jump\t// in\n    tag_91:\n        /* \"tweeter project.sol\":2043:2062  uint i=nextid-count */\n      swap1\n      pop\n        /* \"tweeter project.sol\":2039:2261  for(uint i=nextid-count;i<nextid;i++){... */\n    tag_88:\n        /* \"tweeter project.sol\":2065:2071  nextid */\n      sload(0x05)\n        /* \"tweeter project.sol\":2063:2064  i */\n      dup2\n        /* \"tweeter project.sol\":2063:2071  i<nextid */\n      lt\n        /* \"tweeter project.sol\":2039:2261  for(uint i=nextid-count;i<nextid;i++){... */\n      iszero\n      tag_89\n      jumpi\n        /* \"tweeter project.sol\":2091:2118  tweetdata storage structure */\n      0x00\n        /* \"tweeter project.sol\":2120:2125  Tweet */\n      dup1\n        /* \"tweeter project.sol\":2120:2128  Tweet[i] */\n      0x00\n        /* \"tweeter project.sol\":2126:2127  i */\n      dup4\n        /* \"tweeter project.sol\":2120:2128  Tweet[i] */\n      dup2\n      mstore\n      0x20\n      add\n      swap1\n      dup2\n      mstore\n      0x20\n      add\n      0x00\n      keccak256\n        /* \"tweeter project.sol\":2091:2128  tweetdata storage structure= Tweet[i] */\n      swap1\n      pop\n        /* \"tweeter project.sol\":2157:2231  tweetdata(structure.id,structure.creator,structure.content,structure.time) */\n      mload(0x40)\n      dup1\n      0x80\n      add\n      0x40\n      mstore\n      dup1\n        /* \"tweeter project.sol\":2167:2176  structure */\n      dup3\n        /* \"tweeter project.sol\":2167:2179  structure.id */\n      0x00\n      add\n      sload\n        /* \"tweeter project.sol\":2157:2231  tweetdata(structure.id,structure.creator,structure.content,structure.time) */\n      dup2\n      mstore\n      0x20\n      add\n        /* \"tweeter project.sol\":2180:2189  structure */\n      dup3\n        /* \"tweeter project.sol\":2180:2197  structure.creator */\n      0x01\n      add\n      0x00\n      swap1\n      sload\n      swap1\n      0x0100\n      exp\n      swap1\n      div\n      0xffffffffffffffffffffffffffffffffffffffff\n      and\n        /* \"tweeter project.sol\":2157:2231  tweetdata(structure.id,structure.creator,structure.content,structure.time) */\n      0xffffffffffffffffffffffffffffffffffffffff\n      and\n      dup2\n      mstore\n      0x20\n      add\n        /* \"tweeter project.sol\":2198:2207  structure */\n      dup3\n        /* \"tweeter project.sol\":2198:2215  structure.content */\n      0x02\n      add\n        /* \"tweeter project.sol\":2157:2231  tweetdata(structure.id,structure.creator,structure.content,structure.time) */\n      dup1\n      sload\n      tag_93\n      swap1\n      tag_94\n      jump\t// in\n    tag_93:\n      dup1\n      0x1f\n      add\n      0x20\n      dup1\n      swap2\n      div\n      mul\n      0x20\n      add\n      mload(0x40)\n      swap1\n      dup2\n      add\n      0x40\n      mstore\n      dup1\n      swap3\n      swap2\n      swap1\n      dup2\n      dup2\n      mstore\n      0x20\n      add\n      dup3\n      dup1\n      sload\n      tag_95\n      swap1\n      tag_94\n      jump\t// in\n    tag_95:\n      dup1\n      iszero\n      tag_96\n      jumpi\n      dup1\n      0x1f\n      lt\n      tag_97\n      jumpi\n      0x0100\n      dup1\n      dup4\n      sload\n      div\n      mul\n      dup4\n      mstore\n      swap2\n      0x20\n      add\n      swap2\n      jump(tag_96)\n    tag_97:\n      dup3\n      add\n      swap2\n      swap1\n      0x00\n      mstore\n      keccak256(0x00, 0x20)\n      swap1\n    tag_98:\n      dup2\n      sload\n      dup2\n      mstore\n      swap1\n      0x01\n      add\n      swap1\n      0x20\n      add\n      dup1\n      dup4\n      gt\n      tag_98\n      jumpi\n      dup3\n      swap1\n      sub\n      0x1f\n      and\n      dup3\n      add\n      swap2\n    tag_96:\n      pop\n      pop\n      pop\n      pop\n      pop\n      dup2\n      mstore\n      0x20\n      add\n        /* \"tweeter project.sol\":2216:2225  structure */\n      dup3\n        /* \"tweeter project.sol\":2216:2230  structure.time */\n      0x03\n      add\n      sload\n        /* \"tweeter project.sol\":2157:2231  tweetdata(structure.id,structure.creator,structure.content,structure.time) */\n      dup2\n      mstore\n      pop\n        /* \"tweeter project.sol\":2143:2153  _tweetdata */\n      dup5\n        /* \"tweeter project.sol\":2154:2155  j */\n      dup5\n        /* \"tweeter project.sol\":2143:2156  _tweetdata[j] */\n      dup2\n      mload\n      dup2\n      lt\n      tag_99\n      jumpi\n      tag_100\n      tag_101\n      jump\t// in\n    tag_100:\n    tag_99:\n      0x20\n      mul\n      0x20\n      add\n      add\n        /* \"tweeter project.sol\":2143:2231  _tweetdata[j]=tweetdata(structure.id,structure.creator,structure.content,structure.time) */\n      dup2\n      swap1\n      mstore\n      pop\n        /* \"tweeter project.sol\":2246:2249  j++ */\n      dup3\n      dup1\n      tag_102\n      swap1\n      tag_103\n      jump\t// in\n    tag_102:\n      swap4\n      pop\n      pop\n        /* \"tweeter project.sol\":2076:2261  {... */\n      pop\n        /* \"tweeter project.sol\":2072:2075  i++ */\n      dup1\n      dup1\n      tag_104\n      swap1\n      tag_103\n      jump\t// in\n    tag_104:\n      swap2\n      pop\n      pop\n        /* \"tweeter project.sol\":2039:2261  for(uint i=nextid-count;i<nextid;i++){... */\n      jump(tag_88)\n    tag_89:\n      pop\n        /* \"tweeter project.sol\":2278:2288  _tweetdata */\n      dup2\n        /* \"tweeter project.sol\":2271:2288  return _tweetdata */\n      swap3\n      pop\n      pop\n      pop\n        /* \"tweeter project.sol\":1806:2296  function Get_Latest_Tweet(uint count) public view returns(tweetdata[] memory) {... */\n      swap2\n      swap1\n      pop\n      jump\t// out\n        /* \"tweeter project.sol\":360:397  mapping(uint=>tweetdata) public Tweet */\n    tag_26:\n      mstore(0x20, 0x00)\n      dup1\n      0x00\n      mstore\n      keccak256(0x00, 0x40)\n      0x00\n      swap2\n      pop\n      swap1\n      pop\n      dup1\n      0x00\n      add\n      sload\n      swap1\n      dup1\n      0x01\n      add\n      0x00\n      swap1\n      sload\n      swap1\n      0x0100\n      exp\n      swap1\n      div\n      0xffffffffffffffffffffffffffffffffffffffff\n      and\n      swap1\n      dup1\n      0x02\n      add\n      dup1\n      sload\n      tag_105\n      swap1\n      tag_94\n      jump\t// in\n    tag_105:\n      dup1\n      0x1f\n      add\n      0x20\n      dup1\n      swap2\n      div\n      mul\n      0x20\n      add\n      mload(0x40)\n      swap1\n      dup2\n      add\n      0x40\n      mstore\n      dup1\n      swap3\n      swap2\n      swap1\n      dup2\n      dup2\n      mstore\n      0x20\n      add\n      dup3\n      dup1\n      sload\n      tag_106\n      swap1\n      tag_94\n      jump\t// in\n    tag_106:\n      dup1\n      iszero\n      tag_107\n      jumpi\n      dup1\n      0x1f\n      lt\n      tag_108\n      jumpi\n      0x0100\n      dup1\n      dup4\n      sload\n      div\n      mul\n      dup4\n      mstore\n      swap2\n      0x20\n      add\n      swap2\n      jump(tag_107)\n    tag_108:\n      dup3\n      add\n      swap2\n      swap1\n      0x00\n      mstore\n      keccak256(0x00, 0x20)\n      swap1\n    tag_109:\n      dup2\n      sload\n      dup2\n      mstore\n      swap1\n      0x01\n      add\n      swap1\n      0x20\n      add\n      dup1\n      dup4\n      gt\n      tag_109\n      jumpi\n      dup3\n      swap1\n      sub\n      0x1f\n      and\n      dup3\n      add\n      swap2\n    tag_107:\n      pop\n      pop\n      pop\n      pop\n      pop\n      swap1\n      dup1\n      0x03\n      add\n      sload\n      swap1\n      pop\n      dup5\n      jump\t// out\n        /* \"tweeter project.sol\":504:561  mapping(address=>mapping(address=>bool)) public operators */\n    tag_32:\n      mstore(0x20, 0x03)\n      dup2\n      0x00\n      mstore\n      mstore(0x20, keccak256(0x00, 0x40))\n      dup1\n      0x00\n      mstore\n      keccak256(0x00, 0x40)\n      0x00\n      swap2\n      pop\n      swap2\n      pop\n      swap1\n      sload\n      swap1\n      0x0100\n      exp\n      swap1\n      div\n      0xff\n      and\n      dup2\n      jump\t// out\n        /* \"tweeter project.sol\":1355:1481  function SendMessage(address from, address to, string memory content)public {... */\n    tag_38:\n        /* \"tweeter project.sol\":1442:1473  Send_Message(from, to, content) */\n      tag_111\n        /* \"tweeter project.sol\":1455:1459  from */\n      dup4\n        /* \"tweeter project.sol\":1461:1463  to */\n      dup4\n        /* \"tweeter project.sol\":1465:1472  content */\n      dup4\n        /* \"tweeter project.sol\":1442:1454  Send_Message */\n      tag_112\n        /* \"tweeter project.sol\":1442:1473  Send_Message(from, to, content) */\n      jump\t// in\n    tag_111:\n        /* \"tweeter project.sol\":1355:1481  function SendMessage(address from, address to, string memory content)public {... */\n      pop\n      pop\n      pop\n      jump\t// out\n        /* \"tweeter project.sol\":1017:1112  function Tweett(string memory content) public {... */\n    tag_42:\n        /* \"tweeter project.sol\":1074:1104  posttweet(msg.sender, content) */\n      tag_114\n        /* \"tweeter project.sol\":1084:1094  msg.sender */\n      caller\n        /* \"tweeter project.sol\":1096:1103  content */\n      dup3\n        /* \"tweeter project.sol\":1074:1083  posttweet */\n      tag_115\n        /* \"tweeter project.sol\":1074:1104  posttweet(msg.sender, content) */\n      jump\t// in\n    tag_114:\n        /* \"tweeter project.sol\":1017:1112  function Tweett(string memory content) public {... */\n      pop\n      jump\t// out\n        /* \"tweeter project.sol\":450:497  mapping(address=>message[]) public conversation */\n    tag_46:\n      mstore(0x20, 0x02)\n      dup2\n      0x00\n      mstore\n      keccak256(0x00, 0x40)\n      dup2\n      dup2\n      sload\n      dup2\n      lt\n      tag_116\n      jumpi\n      0x00\n      dup1\n      revert\n    tag_116:\n      swap1\n      0x00\n      mstore\n      keccak256(0x00, 0x20)\n      swap1\n      0x05\n      mul\n      add\n      0x00\n      swap2\n      pop\n      swap2\n      pop\n      pop\n      dup1\n      0x00\n      add\n      sload\n      swap1\n      dup1\n      0x01\n      add\n      0x00\n      swap1\n      sload\n      swap1\n      0x0100\n      exp\n      swap1\n      div\n      0xffffffffffffffffffffffffffffffffffffffff\n      and\n      swap1\n      dup1\n      0x02\n      add\n      0x00\n      swap1\n      sload\n      swap1\n      0x0100\n      exp\n      swap1\n      div\n      0xffffffffffffffffffffffffffffffffffffffff\n      and\n      swap1\n      dup1\n      0x03\n      add\n      sload\n      swap1\n      dup1\n      0x04\n      add\n      dup1\n      sload\n      tag_118\n      swap1\n      tag_94\n      jump\t// in\n    tag_118:\n      dup1\n      0x1f\n      add\n      0x20\n      dup1\n      swap2\n      div\n      mul\n      0x20\n      add\n      mload(0x40)\n      swap1\n      dup2\n      add\n      0x40\n      mstore\n      dup1\n      swap3\n      swap2\n      swap1\n      dup2\n      dup2\n      mstore\n      0x20\n      add\n      dup3\n      dup1\n      sload\n      tag_119\n      swap1\n      tag_94\n      jump\t// in\n    tag_119:\n      dup1\n      iszero\n      tag_120\n      jumpi\n      dup1\n      0x1f\n      lt\n      tag_121\n      jumpi\n      0x0100\n      dup1\n      dup4\n      sload\n      div\n      mul\n      dup4\n      mstore\n      swap2\n      0x20\n      add\n      swap2\n      jump(tag_120)\n    tag_121:\n      dup3\n      add\n      swap2\n      swap1\n      0x00\n      mstore\n      keccak256(0x00, 0x20)\n      swap1\n    tag_122:\n      dup2\n      sload\n      dup2\n      mstore\n      swap1\n      0x01\n      add\n      swap1\n      0x20\n      add\n      dup1\n      dup4\n      gt\n      tag_122\n      jumpi\n      dup3\n      swap1\n      sub\n      0x1f\n      and\n      dup3\n      add\n      swap2\n    tag_120:\n      pop\n      pop\n      pop\n      pop\n      pop\n      swap1\n      pop\n      dup6\n      jump\t// out\n        /* \"tweeter project.sol\":404:443  mapping(address=>uint[]) public tweetof */\n    tag_51:\n      mstore(0x20, 0x01)\n      dup2\n      0x00\n      mstore\n      keccak256(0x00, 0x40)\n      dup2\n      dup2\n      sload\n      dup2\n      lt\n      tag_123\n      jumpi\n      0x00\n      dup1\n      revert\n    tag_123:\n      swap1\n      0x00\n      mstore\n      keccak256(0x00, 0x20)\n      add\n      0x00\n      swap2\n      pop\n      swap2\n      pop\n      pop\n      sload\n      dup2\n      jump\t// out\n        /* \"tweeter project.sol\":568:612  mapping(address=>address[]) public following */\n    tag_56:\n      mstore(0x20, 0x04)\n      dup2\n      0x00\n      mstore\n      keccak256(0x00, 0x40)\n      dup2\n      dup2\n      sload\n      dup2\n      lt\n      tag_125\n      jumpi\n      0x00\n      dup1\n      revert\n    tag_125:\n      swap1\n      0x00\n      mstore\n      keccak256(0x00, 0x20)\n      add\n      0x00\n      swap2\n      pop\n      swap2\n      pop\n      swap1\n      sload\n      swap1\n      0x0100\n      exp\n      swap1\n      div\n      0xffffffffffffffffffffffffffffffffffffffff\n      and\n      dup2\n      jump\t// out\n        /* \"tweeter project.sol\":1703:1794  function disallow(address addr) public {... */\n    tag_62:\n        /* \"tweeter project.sol\":1781:1786  false */\n      0x00\n        /* \"tweeter project.sol\":1753:1762  operators */\n      0x03\n        /* \"tweeter project.sol\":1753:1774  operators[msg.sender] */\n      0x00\n        /* \"tweeter project.sol\":1763:1773  msg.sender */\n      caller\n        /* \"tweeter project.sol\":1753:1774  operators[msg.sender] */\n      0xffffffffffffffffffffffffffffffffffffffff\n      and\n      0xffffffffffffffffffffffffffffffffffffffff\n      and\n      dup2\n      mstore\n      0x20\n      add\n      swap1\n      dup2\n      mstore\n      0x20\n      add\n      0x00\n      keccak256\n        /* \"tweeter project.sol\":1753:1780  operators[msg.sender][addr] */\n      0x00\n        /* \"tweeter project.sol\":1775:1779  addr */\n      dup4\n        /* \"tweeter project.sol\":1753:1780  operators[msg.sender][addr] */\n      0xffffffffffffffffffffffffffffffffffffffff\n      and\n      0xffffffffffffffffffffffffffffffffffffffff\n      and\n      dup2\n      mstore\n      0x20\n      add\n      swap1\n      dup2\n      mstore\n      0x20\n      add\n      0x00\n      keccak256\n      0x00\n        /* \"tweeter project.sol\":1753:1786  operators[msg.sender][addr]=false */\n      0x0100\n      exp\n      dup2\n      sload\n      dup2\n      0xff\n      mul\n      not\n      and\n      swap1\n      dup4\n      iszero\n      iszero\n      mul\n      or\n      swap1\n      sstore\n      pop\n        /* \"tweeter project.sol\":1703:1794  function disallow(address addr) public {... */\n      pop\n      jump\t// out\n        /* \"tweeter project.sol\":1229:1347  function SendMessage(address to,string memory content) public {... */\n    tag_66:\n        /* \"tweeter project.sol\":1302:1339  Send_Message(msg.sender, to, content) */\n      tag_129\n        /* \"tweeter project.sol\":1315:1325  msg.sender */\n      caller\n        /* \"tweeter project.sol\":1327:1329  to */\n      dup4\n        /* \"tweeter project.sol\":1331:1338  content */\n      dup4\n        /* \"tweeter project.sol\":1302:1314  Send_Message */\n      tag_112\n        /* \"tweeter project.sol\":1302:1339  Send_Message(msg.sender, to, content) */\n      jump\t// in\n    tag_129:\n        /* \"tweeter project.sol\":1229:1347  function SendMessage(address to,string memory content) public {... */\n      pop\n      pop\n      jump\t// out\n        /* \"tweeter project.sol\":1487:1600  function Follow(address follower_address) public  {... */\n    tag_69:\n        /* \"tweeter project.sol\":1548:1557  following */\n      0x04\n        /* \"tweeter project.sol\":1548:1569  following[msg.sender] */\n      0x00\n        /* \"tweeter project.sol\":1558:1568  msg.sender */\n      caller\n        /* \"tweeter project.sol\":1548:1569  following[msg.sender] */\n      0xffffffffffffffffffffffffffffffffffffffff\n      and\n      0xffffffffffffffffffffffffffffffffffffffff\n      and\n      dup2\n      mstore\n      0x20\n      add\n      swap1\n      dup2\n      mstore\n      0x20\n      add\n      0x00\n      keccak256\n        /* \"tweeter project.sol\":1575:1591  follower_address */\n      dup2\n        /* \"tweeter project.sol\":1548:1592  following[msg.sender].push(follower_address) */\n      swap1\n      dup1\n      0x01\n      dup2\n      sload\n      add\n      dup1\n      dup3\n      sstore\n      dup1\n      swap2\n      pop\n      pop\n      0x01\n      swap1\n      sub\n      swap1\n      0x00\n      mstore\n      keccak256(0x00, 0x20)\n      add\n      0x00\n      swap1\n      swap2\n      swap1\n      swap2\n      swap1\n      swap2\n      0x0100\n      exp\n      dup2\n      sload\n      dup2\n      0xffffffffffffffffffffffffffffffffffffffff\n      mul\n      not\n      and\n      swap1\n      dup4\n      0xffffffffffffffffffffffffffffffffffffffff\n      and\n      mul\n      or\n      swap1\n      sstore\n      pop\n        /* \"tweeter project.sol\":1487:1600  function Follow(address follower_address) public  {... */\n      pop\n      jump\t// out\n        /* \"tweeter project.sol\":1120:1221  function Tweett(address from,string memory content) public {... */\n    tag_72:\n        /* \"tweeter project.sol\":1190:1213  posttweet(from,content) */\n      tag_133\n        /* \"tweeter project.sol\":1200:1204  from */\n      dup3\n        /* \"tweeter project.sol\":1205:1212  content */\n      dup3\n        /* \"tweeter project.sol\":1190:1199  posttweet */\n      tag_115\n        /* \"tweeter project.sol\":1190:1213  posttweet(from,content) */\n      jump\t// in\n    tag_133:\n        /* \"tweeter project.sol\":1120:1221  function Tweett(address from,string memory content) public {... */\n      pop\n      pop\n      jump\t// out\n        /* \"tweeter project.sol\":1608:1695  function allow(address addr) public {... */\n    tag_75:\n        /* \"tweeter project.sol\":1683:1687  true */\n      0x01\n        /* \"tweeter project.sol\":1655:1664  operators */\n      0x03\n        /* \"tweeter project.sol\":1655:1676  operators[msg.sender] */\n      0x00\n        /* \"tweeter project.sol\":1665:1675  msg.sender */\n      caller\n        /* \"tweeter project.sol\":1655:1676  operators[msg.sender] */\n      0xffffffffffffffffffffffffffffffffffffffff\n      and\n      0xffffffffffffffffffffffffffffffffffffffff\n      and\n      dup2\n      mstore\n      0x20\n      add\n      swap1\n      dup2\n      mstore\n      0x20\n      add\n      0x00\n      keccak256\n        /* \"tweeter project.sol\":1655:1682  operators[msg.sender][addr] */\n      0x00\n        /* \"tweeter project.sol\":1677:1681  addr */\n      dup4\n        /* \"tweeter project.sol\":1655:1682  operators[msg.sender][addr] */\n      0xffffffffffffffffffffffffffffffffffffffff\n      and\n      0xffffffffffffffffffffffffffffffffffffffff\n      and\n      dup2\n      mstore\n      0x20\n      add\n      swap1\n      dup2\n      mstore\n      0x20\n      add\n      0x00\n      keccak256\n      0x00\n        /* \"tweeter project.sol\":1655:1687  operators[msg.sender][addr]=true */\n      0x0100\n      exp\n      dup2\n      sload\n      dup2\n      0xff\n      mul\n      not\n      and\n      swap1\n      dup4\n      iszero\n      iszero\n      mul\n      or\n      swap1\n      sstore\n      pop\n        /* \"tweeter project.sol\":1608:1695  function allow(address addr) public {... */\n      pop\n      jump\t// out\n        /* \"tweeter project.sol\":835:1009  function Send_Message(address from, address to, string memory content) internal {... */\n    tag_112:\n        /* \"tweeter project.sol\":926:938  conversation */\n      0x02\n        /* \"tweeter project.sol\":926:944  conversation[from] */\n      0x00\n        /* \"tweeter project.sol\":939:943  from */\n      dup5\n        /* \"tweeter project.sol\":926:944  conversation[from] */\n      0xffffffffffffffffffffffffffffffffffffffff\n      and\n      0xffffffffffffffffffffffffffffffffffffffff\n      and\n      dup2\n      mstore\n      0x20\n      add\n      swap1\n      dup2\n      mstore\n      0x20\n      add\n      0x00\n      keccak256\n        /* \"tweeter project.sol\":950:1000  message(nextmsgid,from,to,block.timestamp,content) */\n      mload(0x40)\n      dup1\n      0xa0\n      add\n      0x40\n      mstore\n      dup1\n        /* \"tweeter project.sol\":958:967  nextmsgid */\n      sload(0x06)\n        /* \"tweeter project.sol\":950:1000  message(nextmsgid,from,to,block.timestamp,content) */\n      dup2\n      mstore\n      0x20\n      add\n        /* \"tweeter project.sol\":968:972  from */\n      dup6\n        /* \"tweeter project.sol\":950:1000  message(nextmsgid,from,to,block.timestamp,content) */\n      0xffffffffffffffffffffffffffffffffffffffff\n      and\n      dup2\n      mstore\n      0x20\n      add\n        /* \"tweeter project.sol\":973:975  to */\n      dup5\n        /* \"tweeter project.sol\":950:1000  message(nextmsgid,from,to,block.timestamp,content) */\n      0xffffffffffffffffffffffffffffffffffffffff\n      and\n      dup2\n      mstore\n      0x20\n      add\n        /* \"tweeter project.sol\":976:991  block.timestamp */\n      timestamp\n        /* \"tweeter project.sol\":950:1000  message(nextmsgid,from,to,block.timestamp,content) */\n      dup2\n      mstore\n      0x20\n      add\n        /* \"tweeter project.sol\":992:999  content */\n      dup4\n        /* \"tweeter project.sol\":950:1000  message(nextmsgid,from,to,block.timestamp,content) */\n      dup2\n      mstore\n      pop\n        /* \"tweeter project.sol\":926:1001  conversation[from].push(message(nextmsgid,from,to,block.timestamp,content)) */\n      swap1\n      dup1\n      0x01\n      dup2\n      sload\n      add\n      dup1\n      dup3\n      sstore\n      dup1\n      swap2\n      pop\n      pop\n      0x01\n      swap1\n      sub\n      swap1\n      0x00\n      mstore\n      keccak256(0x00, 0x20)\n      swap1\n      0x05\n      mul\n      add\n      0x00\n      swap1\n      swap2\n      swap1\n      swap2\n      swap1\n      swap2\n      pop\n      0x00\n      dup3\n      add\n      mload\n      dup2\n      0x00\n      add\n      sstore\n      0x20\n      dup3\n      add\n      mload\n      dup2\n      0x01\n      add\n      exp(0x0100, 0x00)\n      dup2\n      sload\n      dup2\n      0xffffffffffffffffffffffffffffffffffffffff\n      mul\n      not\n      and\n      swap1\n      dup4\n      0xffffffffffffffffffffffffffffffffffffffff\n      and\n      mul\n      or\n      swap1\n      sstore\n      pop\n      0x40\n      dup3\n      add\n      mload\n      dup2\n      0x02\n      add\n      exp(0x0100, 0x00)\n      dup2\n      sload\n      dup2\n      0xffffffffffffffffffffffffffffffffffffffff\n      mul\n      not\n      and\n      swap1\n      dup4\n      0xffffffffffffffffffffffffffffffffffffffff\n      and\n      mul\n      or\n      swap1\n      sstore\n      pop\n      0x60\n      dup3\n      add\n      mload\n      dup2\n      0x03\n      add\n      sstore\n      0x80\n      dup3\n      add\n      mload\n      dup2\n      0x04\n      add\n      swap1\n      dup2\n      tag_137\n      swap2\n      swap1\n      tag_138\n      jump\t// in\n    tag_137:\n      pop\n      pop\n      pop\n        /* \"tweeter project.sol\":835:1009  function Send_Message(address from, address to, string memory content) internal {... */\n      pop\n      pop\n      pop\n      jump\t// out\n        /* \"tweeter project.sol\":662:827  function posttweet(address from, string memory content) internal  {... */\n    tag_115:\n        /* \"tweeter project.sol\":753:800  tweetdata (nextid,from,content,block.timestamp) */\n      mload(0x40)\n      dup1\n      0x80\n      add\n      0x40\n      mstore\n      dup1\n        /* \"tweeter project.sol\":764:770  nextid */\n      sload(0x05)\n        /* \"tweeter project.sol\":753:800  tweetdata (nextid,from,content,block.timestamp) */\n      dup2\n      mstore\n      0x20\n      add\n        /* \"tweeter project.sol\":771:775  from */\n      dup4\n        /* \"tweeter project.sol\":753:800  tweetdata (nextid,from,content,block.timestamp) */\n      0xffffffffffffffffffffffffffffffffffffffff\n      and\n      dup2\n      mstore\n      0x20\n      add\n        /* \"tweeter project.sol\":776:783  content */\n      dup3\n        /* \"tweeter project.sol\":753:800  tweetdata (nextid,from,content,block.timestamp) */\n      dup2\n      mstore\n      0x20\n      add\n        /* \"tweeter project.sol\":784:799  block.timestamp */\n      timestamp\n        /* \"tweeter project.sol\":753:800  tweetdata (nextid,from,content,block.timestamp) */\n      dup2\n      mstore\n      pop\n        /* \"tweeter project.sol\":739:744  Tweet */\n      0x00\n        /* \"tweeter project.sol\":739:752  Tweet[nextid] */\n      dup1\n        /* \"tweeter project.sol\":745:751  nextid */\n      sload(0x05)\n        /* \"tweeter project.sol\":739:752  Tweet[nextid] */\n      dup2\n      mstore\n      0x20\n      add\n      swap1\n      dup2\n      mstore\n      0x20\n      add\n      0x00\n      keccak256\n        /* \"tweeter project.sol\":739:800  Tweet[nextid]=tweetdata (nextid,from,content,block.timestamp) */\n      0x00\n      dup3\n      add\n      mload\n      dup2\n      0x00\n      add\n      sstore\n      0x20\n      dup3\n      add\n      mload\n      dup2\n      0x01\n      add\n      exp(0x0100, 0x00)\n      dup2\n      sload\n      dup2\n      0xffffffffffffffffffffffffffffffffffffffff\n      mul\n      not\n      and\n      swap1\n      dup4\n      0xffffffffffffffffffffffffffffffffffffffff\n      and\n      mul\n      or\n      swap1\n      sstore\n      pop\n      0x40\n      dup3\n      add\n      mload\n      dup2\n      0x02\n      add\n      swap1\n      dup2\n      tag_140\n      swap2\n      swap1\n      tag_138\n      jump\t// in\n    tag_140:\n      pop\n      0x60\n      dup3\n      add\n      mload\n      dup2\n      0x03\n      add\n      sstore\n      swap1\n      pop\n      pop\n        /* \"tweeter project.sol\":811:817  nextid */\n      0x05\n      0x00\n        /* \"tweeter project.sol\":811:819  nextid++ */\n      dup2\n      sload\n      dup1\n      swap3\n      swap2\n      swap1\n      tag_141\n      swap1\n      tag_103\n      jump\t// in\n    tag_141:\n      swap2\n      swap1\n      pop\n      sstore\n      pop\n        /* \"tweeter project.sol\":662:827  function posttweet(address from, string memory content) internal  {... */\n      pop\n      pop\n      jump\t// out\n    tag_87:\n      mload(0x40)\n      dup1\n      0x80\n      add\n      0x40\n      mstore\n      dup1\n      0x00\n      dup2\n      mstore\n      0x20\n      add\n      and(0xffffffffffffffffffffffffffffffffffffffff, 0x00)\n      dup2\n      mstore\n      0x20\n      add\n      0x60\n      dup2\n      mstore\n      0x20\n      add\n      0x00\n      dup2\n      mstore\n      pop\n      swap1\n      jump\t// out\n        /* \"#utility.yul\":7:82   */\n    tag_142:\n        /* \"#utility.yul\":40:46   */\n      0x00\n        /* \"#utility.yul\":73:75   */\n      0x40\n        /* \"#utility.yul\":67:76   */\n      mload\n        /* \"#utility.yul\":57:76   */\n      swap1\n      pop\n        /* \"#utility.yul\":7:82   */\n      swap1\n      jump\t// out\n        /* \"#utility.yul\":88:205   */\n    tag_143:\n        /* \"#utility.yul\":197:198   */\n      0x00\n        /* \"#utility.yul\":194:195   */\n      dup1\n        /* \"#utility.yul\":187:199   */\n      revert\n        /* \"#utility.yul\":211:328   */\n    tag_144:\n        /* \"#utility.yul\":320:321   */\n      0x00\n        /* \"#utility.yul\":317:318   */\n      dup1\n        /* \"#utility.yul\":310:322   */\n      revert\n        /* \"#utility.yul\":334:411   */\n    tag_145:\n        /* \"#utility.yul\":371:378   */\n      0x00\n        /* \"#utility.yul\":400:405   */\n      dup2\n        /* \"#utility.yul\":389:405   */\n      swap1\n      pop\n        /* \"#utility.yul\":334:411   */\n      swap2\n      swap1\n      pop\n      jump\t// out\n        /* \"#utility.yul\":417:539   */\n    tag_146:\n        /* \"#utility.yul\":490:514   */\n      tag_205\n        /* \"#utility.yul\":508:513   */\n      dup2\n        /* \"#utility.yul\":490:514   */\n      tag_145\n      jump\t// in\n    tag_205:\n        /* \"#utility.yul\":483:488   */\n      dup2\n        /* \"#utility.yul\":480:515   */\n      eq\n        /* \"#utility.yul\":470:533   */\n      tag_206\n      jumpi\n        /* \"#utility.yul\":529:530   */\n      0x00\n        /* \"#utility.yul\":526:527   */\n      dup1\n        /* \"#utility.yul\":519:531   */\n      revert\n        /* \"#utility.yul\":470:533   */\n    tag_206:\n        /* \"#utility.yul\":417:539   */\n      pop\n      jump\t// out\n        /* \"#utility.yul\":545:684   */\n    tag_147:\n        /* \"#utility.yul\":591:596   */\n      0x00\n        /* \"#utility.yul\":629:635   */\n      dup2\n        /* \"#utility.yul\":616:636   */\n      calldataload\n        /* \"#utility.yul\":607:636   */\n      swap1\n      pop\n        /* \"#utility.yul\":645:678   */\n      tag_208\n        /* \"#utility.yul\":672:677   */\n      dup2\n        /* \"#utility.yul\":645:678   */\n      tag_146\n      jump\t// in\n    tag_208:\n        /* \"#utility.yul\":545:684   */\n      swap3\n      swap2\n      pop\n      pop\n      jump\t// out\n        /* \"#utility.yul\":690:1019   */\n    tag_20:\n        /* \"#utility.yul\":749:755   */\n      0x00\n        /* \"#utility.yul\":798:800   */\n      0x20\n        /* \"#utility.yul\":786:795   */\n      dup3\n        /* \"#utility.yul\":777:784   */\n      dup5\n        /* \"#utility.yul\":773:796   */\n      sub\n        /* \"#utility.yul\":769:801   */\n      slt\n        /* \"#utility.yul\":766:885   */\n      iszero\n      tag_210\n      jumpi\n        /* \"#utility.yul\":804:883   */\n      tag_211\n      tag_143\n      jump\t// in\n    tag_211:\n        /* \"#utility.yul\":766:885   */\n    tag_210:\n        /* \"#utility.yul\":924:925   */\n      0x00\n        /* \"#utility.yul\":949:1002   */\n      tag_212\n        /* \"#utility.yul\":994:1001   */\n      dup5\n        /* \"#utility.yul\":985:991   */\n      dup3\n        /* \"#utility.yul\":974:983   */\n      dup6\n        /* \"#utility.yul\":970:992   */\n      add\n        /* \"#utility.yul\":949:1002   */\n      tag_147\n      jump\t// in\n    tag_212:\n        /* \"#utility.yul\":939:1002   */\n      swap2\n      pop\n        /* \"#utility.yul\":895:1012   */\n      pop\n        /* \"#utility.yul\":690:1019   */\n      swap3\n      swap2\n      pop\n      pop\n      jump\t// out\n        /* \"#utility.yul\":1025:1164   */\n    tag_148:\n        /* \"#utility.yul\":1117:1123   */\n      0x00\n        /* \"#utility.yul\":1151:1156   */\n      dup2\n        /* \"#utility.yul\":1145:1157   */\n      mload\n        /* \"#utility.yul\":1135:1157   */\n      swap1\n      pop\n        /* \"#utility.yul\":1025:1164   */\n      swap2\n      swap1\n      pop\n      jump\t// out\n        /* \"#utility.yul\":1170:1379   */\n    tag_149:\n        /* \"#utility.yul\":1294:1305   */\n      0x00\n        /* \"#utility.yul\":1328:1334   */\n      dup3\n        /* \"#utility.yul\":1323:1326   */\n      dup3\n        /* \"#utility.yul\":1316:1335   */\n      mstore\n        /* \"#utility.yul\":1368:1372   */\n      0x20\n        /* \"#utility.yul\":1363:1366   */\n      dup3\n        /* \"#utility.yul\":1359:1373   */\n      add\n        /* \"#utility.yul\":1344:1373   */\n      swap1\n      pop\n        /* \"#utility.yul\":1170:1379   */\n      swap3\n      swap2\n      pop\n      pop\n      jump\t// out\n        /* \"#utility.yul\":1385:1542   */\n    tag_150:\n        /* \"#utility.yul\":1477:1481   */\n      0x00\n        /* \"#utility.yul\":1500:1503   */\n      dup2\n        /* \"#utility.yul\":1492:1503   */\n      swap1\n      pop\n        /* \"#utility.yul\":1530:1534   */\n      0x20\n        /* \"#utility.yul\":1525:1528   */\n      dup3\n        /* \"#utility.yul\":1521:1535   */\n      add\n        /* \"#utility.yul\":1513:1535   */\n      swap1\n      pop\n        /* \"#utility.yul\":1385:1542   */\n      swap2\n      swap1\n      pop\n      jump\t// out\n        /* \"#utility.yul\":1548:1656   */\n    tag_151:\n        /* \"#utility.yul\":1625:1649   */\n      tag_217\n        /* \"#utility.yul\":1643:1648   */\n      dup2\n        /* \"#utility.yul\":1625:1649   */\n      tag_145\n      jump\t// in\n    tag_217:\n        /* \"#utility.yul\":1620:1623   */\n      dup3\n        /* \"#utility.yul\":1613:1650   */\n      mstore\n        /* \"#utility.yul\":1548:1656   */\n      pop\n      pop\n      jump\t// out\n        /* \"#utility.yul\":1662:1788   */\n    tag_152:\n        /* \"#utility.yul\":1699:1706   */\n      0x00\n        /* \"#utility.yul\":1739:1781   */\n      0xffffffffffffffffffffffffffffffffffffffff\n        /* \"#utility.yul\":1732:1737   */\n      dup3\n        /* \"#utility.yul\":1728:1782   */\n      and\n        /* \"#utility.yul\":1717:1782   */\n      swap1\n      pop\n        /* \"#utility.yul\":1662:1788   */\n      swap2\n      swap1\n      pop\n      jump\t// out\n        /* \"#utility.yul\":1794:1890   */\n    tag_153:\n        /* \"#utility.yul\":1831:1838   */\n      0x00\n        /* \"#utility.yul\":1860:1884   */\n      tag_220\n        /* \"#utility.yul\":1878:1883   */\n      dup3\n        /* \"#utility.yul\":1860:1884   */\n      tag_152\n      jump\t// in\n    tag_220:\n        /* \"#utility.yul\":1849:1884   */\n      swap1\n      pop\n        /* \"#utility.yul\":1794:1890   */\n      swap2\n      swap1\n      pop\n      jump\t// out\n        /* \"#utility.yul\":1896:2004   */\n    tag_154:\n        /* \"#utility.yul\":1973:1997   */\n      tag_222\n        /* \"#utility.yul\":1991:1996   */\n      dup2\n        /* \"#utility.yul\":1973:1997   */\n      tag_153\n      jump\t// in\n    tag_222:\n        /* \"#utility.yul\":1968:1971   */\n      dup3\n        /* \"#utility.yul\":1961:1998   */\n      mstore\n        /* \"#utility.yul\":1896:2004   */\n      pop\n      pop\n      jump\t// out\n        /* \"#utility.yul\":2010:2109   */\n    tag_155:\n        /* \"#utility.yul\":2062:2068   */\n      0x00\n        /* \"#utility.yul\":2096:2101   */\n      dup2\n        /* \"#utility.yul\":2090:2102   */\n      mload\n        /* \"#utility.yul\":2080:2102   */\n      swap1\n      pop\n        /* \"#utility.yul\":2010:2109   */\n      swap2\n      swap1\n      pop\n      jump\t// out\n        /* \"#utility.yul\":2115:2274   */\n    tag_156:\n        /* \"#utility.yul\":2189:2200   */\n      0x00\n        /* \"#utility.yul\":2223:2229   */\n      dup3\n        /* \"#utility.yul\":2218:2221   */\n      dup3\n        /* \"#utility.yul\":2211:2230   */\n      mstore\n        /* \"#utility.yul\":2263:2267   */\n      0x20\n        /* \"#utility.yul\":2258:2261   */\n      dup3\n        /* \"#utility.yul\":2254:2268   */\n      add\n        /* \"#utility.yul\":2239:2268   */\n      swap1\n      pop\n        /* \"#utility.yul\":2115:2274   */\n      swap3\n      swap2\n      pop\n      pop\n      jump\t// out\n        /* \"#utility.yul\":2280:2526   */\n    tag_157:\n        /* \"#utility.yul\":2361:2362   */\n      0x00\n        /* \"#utility.yul\":2371:2484   */\n    tag_226:\n        /* \"#utility.yul\":2385:2391   */\n      dup4\n        /* \"#utility.yul\":2382:2383   */\n      dup2\n        /* \"#utility.yul\":2379:2392   */\n      lt\n        /* \"#utility.yul\":2371:2484   */\n      iszero\n      tag_228\n      jumpi\n        /* \"#utility.yul\":2470:2471   */\n      dup1\n        /* \"#utility.yul\":2465:2468   */\n      dup3\n        /* \"#utility.yul\":2461:2472   */\n      add\n        /* \"#utility.yul\":2455:2473   */\n      mload\n        /* \"#utility.yul\":2451:2452   */\n      dup2\n        /* \"#utility.yul\":2446:2449   */\n      dup5\n        /* \"#utility.yul\":2442:2453   */\n      add\n        /* \"#utility.yul\":2435:2474   */\n      mstore\n        /* \"#utility.yul\":2407:2409   */\n      0x20\n        /* \"#utility.yul\":2404:2405   */\n      dup2\n        /* \"#utility.yul\":2400:2410   */\n      add\n        /* \"#utility.yul\":2395:2410   */\n      swap1\n      pop\n        /* \"#utility.yul\":2371:2484   */\n      jump(tag_226)\n    tag_228:\n        /* \"#utility.yul\":2518:2519   */\n      0x00\n        /* \"#utility.yul\":2509:2515   */\n      dup5\n        /* \"#utility.yul\":2504:2507   */\n      dup5\n        /* \"#utility.yul\":2500:2516   */\n      add\n        /* \"#utility.yul\":2493:2520   */\n      mstore\n        /* \"#utility.yul\":2342:2526   */\n      pop\n        /* \"#utility.yul\":2280:2526   */\n      pop\n      pop\n      pop\n      jump\t// out\n        /* \"#utility.yul\":2532:2634   */\n    tag_158:\n        /* \"#utility.yul\":2573:2579   */\n      0x00\n        /* \"#utility.yul\":2624:2626   */\n      0x1f\n        /* \"#utility.yul\":2620:2627   */\n      not\n        /* \"#utility.yul\":2615:2617   */\n      0x1f\n        /* \"#utility.yul\":2608:2613   */\n      dup4\n        /* \"#utility.yul\":2604:2618   */\n      add\n        /* \"#utility.yul\":2600:2628   */\n      and\n        /* \"#utility.yul\":2590:2628   */\n      swap1\n      pop\n        /* \"#utility.yul\":2532:2634   */\n      swap2\n      swap1\n      pop\n      jump\t// out\n        /* \"#utility.yul\":2640:2997   */\n    tag_159:\n        /* \"#utility.yul\":2718:2721   */\n      0x00\n        /* \"#utility.yul\":2746:2785   */\n      tag_231\n        /* \"#utility.yul\":2779:2784   */\n      dup3\n        /* \"#utility.yul\":2746:2785   */\n      tag_155\n      jump\t// in\n    tag_231:\n        /* \"#utility.yul\":2801:2862   */\n      tag_232\n        /* \"#utility.yul\":2855:2861   */\n      dup2\n        /* \"#utility.yul\":2850:2853   */\n      dup6\n        /* \"#utility.yul\":2801:2862   */\n      tag_156\n      jump\t// in\n    tag_232:\n        /* \"#utility.yul\":2794:2862   */\n      swap4\n      pop\n        /* \"#utility.yul\":2871:2936   */\n      tag_233\n        /* \"#utility.yul\":2929:2935   */\n      dup2\n        /* \"#utility.yul\":2924:2927   */\n      dup6\n        /* \"#utility.yul\":2917:2921   */\n      0x20\n        /* \"#utility.yul\":2910:2915   */\n      dup7\n        /* \"#utility.yul\":2906:2922   */\n      add\n        /* \"#utility.yul\":2871:2936   */\n      tag_157\n      jump\t// in\n    tag_233:\n        /* \"#utility.yul\":2961:2990   */\n      tag_234\n        /* \"#utility.yul\":2983:2989   */\n      dup2\n        /* \"#utility.yul\":2961:2990   */\n      tag_158\n      jump\t// in\n    tag_234:\n        /* \"#utility.yul\":2956:2959   */\n      dup5\n        /* \"#utility.yul\":2952:2991   */\n      add\n        /* \"#utility.yul\":2945:2991   */\n      swap2\n      pop\n        /* \"#utility.yul\":2722:2997   */\n      pop\n        /* \"#utility.yul\":2640:2997   */\n      swap3\n      swap2\n      pop\n      pop\n      jump\t// out\n        /* \"#utility.yul\":3063:4011   */\n    tag_160:\n        /* \"#utility.yul\":3172:3175   */\n      0x00\n        /* \"#utility.yul\":3208:3212   */\n      0x80\n        /* \"#utility.yul\":3203:3206   */\n      dup4\n        /* \"#utility.yul\":3199:3213   */\n      add\n        /* \"#utility.yul\":3293:3297   */\n      0x00\n        /* \"#utility.yul\":3286:3291   */\n      dup4\n        /* \"#utility.yul\":3282:3298   */\n      add\n        /* \"#utility.yul\":3276:3299   */\n      mload\n        /* \"#utility.yul\":3312:3375   */\n      tag_236\n        /* \"#utility.yul\":3369:3373   */\n      0x00\n        /* \"#utility.yul\":3364:3367   */\n      dup7\n        /* \"#utility.yul\":3360:3374   */\n      add\n        /* \"#utility.yul\":3346:3358   */\n      dup3\n        /* \"#utility.yul\":3312:3375   */\n      tag_151\n      jump\t// in\n    tag_236:\n        /* \"#utility.yul\":3223:3385   */\n      pop\n        /* \"#utility.yul\":3470:3474   */\n      0x20\n        /* \"#utility.yul\":3463:3468   */\n      dup4\n        /* \"#utility.yul\":3459:3475   */\n      add\n        /* \"#utility.yul\":3453:3476   */\n      mload\n        /* \"#utility.yul\":3489:3552   */\n      tag_237\n        /* \"#utility.yul\":3546:3550   */\n      0x20\n        /* \"#utility.yul\":3541:3544   */\n      dup7\n        /* \"#utility.yul\":3537:3551   */\n      add\n        /* \"#utility.yul\":3523:3535   */\n      dup3\n        /* \"#utility.yul\":3489:3552   */\n      tag_154\n      jump\t// in\n    tag_237:\n        /* \"#utility.yul\":3395:3562   */\n      pop\n        /* \"#utility.yul\":3647:3651   */\n      0x40\n        /* \"#utility.yul\":3640:3645   */\n      dup4\n        /* \"#utility.yul\":3636:3652   */\n      add\n        /* \"#utility.yul\":3630:3653   */\n      mload\n        /* \"#utility.yul\":3700:3703   */\n      dup5\n        /* \"#utility.yul\":3694:3698   */\n      dup3\n        /* \"#utility.yul\":3690:3704   */\n      sub\n        /* \"#utility.yul\":3683:3687   */\n      0x40\n        /* \"#utility.yul\":3678:3681   */\n      dup7\n        /* \"#utility.yul\":3674:3688   */\n      add\n        /* \"#utility.yul\":3667:3705   */\n      mstore\n        /* \"#utility.yul\":3726:3799   */\n      tag_238\n        /* \"#utility.yul\":3794:3798   */\n      dup3\n        /* \"#utility.yul\":3780:3792   */\n      dup3\n        /* \"#utility.yul\":3726:3799   */\n      tag_159\n      jump\t// in\n    tag_238:\n        /* \"#utility.yul\":3718:3799   */\n      swap2\n      pop\n        /* \"#utility.yul\":3572:3810   */\n      pop\n        /* \"#utility.yul\":3892:3896   */\n      0x60\n        /* \"#utility.yul\":3885:3890   */\n      dup4\n        /* \"#utility.yul\":3881:3897   */\n      add\n        /* \"#utility.yul\":3875:3898   */\n      mload\n        /* \"#utility.yul\":3911:3974   */\n      tag_239\n        /* \"#utility.yul\":3968:3972   */\n      0x60\n        /* \"#utility.yul\":3963:3966   */\n      dup7\n        /* \"#utility.yul\":3959:3973   */\n      add\n        /* \"#utility.yul\":3945:3957   */\n      dup3\n        /* \"#utility.yul\":3911:3974   */\n      tag_151\n      jump\t// in\n    tag_239:\n        /* \"#utility.yul\":3820:3984   */\n      pop\n        /* \"#utility.yul\":4001:4005   */\n      dup1\n        /* \"#utility.yul\":3994:4005   */\n      swap2\n      pop\n        /* \"#utility.yul\":3177:4011   */\n      pop\n        /* \"#utility.yul\":3063:4011   */\n      swap3\n      swap2\n      pop\n      pop\n      jump\t// out\n        /* \"#utility.yul\":4017:4273   */\n    tag_161:\n        /* \"#utility.yul\":4136:4146   */\n      0x00\n        /* \"#utility.yul\":4171:4267   */\n      tag_241\n        /* \"#utility.yul\":4263:4266   */\n      dup4\n        /* \"#utility.yul\":4255:4261   */\n      dup4\n        /* \"#utility.yul\":4171:4267   */\n      tag_160\n      jump\t// in\n    tag_241:\n        /* \"#utility.yul\":4157:4267   */\n      swap1\n      pop\n        /* \"#utility.yul\":4017:4273   */\n      swap3\n      swap2\n      pop\n      pop\n      jump\t// out\n        /* \"#utility.yul\":4279:4417   */\n    tag_162:\n        /* \"#utility.yul\":4374:4378   */\n      0x00\n        /* \"#utility.yul\":4406:4410   */\n      0x20\n        /* \"#utility.yul\":4401:4404   */\n      dup3\n        /* \"#utility.yul\":4397:4411   */\n      add\n        /* \"#utility.yul\":4389:4411   */\n      swap1\n      pop\n        /* \"#utility.yul\":4279:4417   */\n      swap2\n      swap1\n      pop\n      jump\t// out\n        /* \"#utility.yul\":4487:5598   */\n    tag_163:\n        /* \"#utility.yul\":4656:4659   */\n      0x00\n        /* \"#utility.yul\":4685:4764   */\n      tag_244\n        /* \"#utility.yul\":4758:4763   */\n      dup3\n        /* \"#utility.yul\":4685:4764   */\n      tag_148\n      jump\t// in\n    tag_244:\n        /* \"#utility.yul\":4780:4891   */\n      tag_245\n        /* \"#utility.yul\":4884:4890   */\n      dup2\n        /* \"#utility.yul\":4879:4882   */\n      dup6\n        /* \"#utility.yul\":4780:4891   */\n      tag_149\n      jump\t// in\n    tag_245:\n        /* \"#utility.yul\":4773:4891   */\n      swap4\n      pop\n        /* \"#utility.yul\":4917:4920   */\n      dup4\n        /* \"#utility.yul\":4962:4966   */\n      0x20\n        /* \"#utility.yul\":4954:4960   */\n      dup3\n        /* \"#utility.yul\":4950:4967   */\n      mul\n        /* \"#utility.yul\":4945:4948   */\n      dup6\n        /* \"#utility.yul\":4941:4968   */\n      add\n        /* \"#utility.yul\":4992:5073   */\n      tag_246\n        /* \"#utility.yul\":5067:5072   */\n      dup6\n        /* \"#utility.yul\":4992:5073   */\n      tag_150\n      jump\t// in\n    tag_246:\n        /* \"#utility.yul\":5096:5103   */\n      dup1\n        /* \"#utility.yul\":5127:5128   */\n      0x00\n        /* \"#utility.yul\":5112:5553   */\n    tag_247:\n        /* \"#utility.yul\":5137:5143   */\n      dup6\n        /* \"#utility.yul\":5134:5135   */\n      dup2\n        /* \"#utility.yul\":5131:5144   */\n      lt\n        /* \"#utility.yul\":5112:5553   */\n      iszero\n      tag_249\n      jumpi\n        /* \"#utility.yul\":5208:5217   */\n      dup5\n        /* \"#utility.yul\":5202:5206   */\n      dup5\n        /* \"#utility.yul\":5198:5218   */\n      sub\n        /* \"#utility.yul\":5193:5196   */\n      dup10\n        /* \"#utility.yul\":5186:5219   */\n      mstore\n        /* \"#utility.yul\":5259:5265   */\n      dup2\n        /* \"#utility.yul\":5253:5266   */\n      mload\n        /* \"#utility.yul\":5287:5401   */\n      tag_250\n        /* \"#utility.yul\":5396:5400   */\n      dup6\n        /* \"#utility.yul\":5381:5394   */\n      dup3\n        /* \"#utility.yul\":5287:5401   */\n      tag_161\n      jump\t// in\n    tag_250:\n        /* \"#utility.yul\":5279:5401   */\n      swap5\n      pop\n        /* \"#utility.yul\":5424:5509   */\n      tag_251\n        /* \"#utility.yul\":5502:5508   */\n      dup4\n        /* \"#utility.yul\":5424:5509   */\n      tag_162\n      jump\t// in\n    tag_251:\n        /* \"#utility.yul\":5414:5509   */\n      swap3\n      pop\n        /* \"#utility.yul\":5538:5542   */\n      0x20\n        /* \"#utility.yul\":5533:5536   */\n      dup11\n        /* \"#utility.yul\":5529:5543   */\n      add\n        /* \"#utility.yul\":5522:5543   */\n      swap10\n      pop\n        /* \"#utility.yul\":5172:5553   */\n      pop\n        /* \"#utility.yul\":5159:5160   */\n      0x01\n        /* \"#utility.yul\":5156:5157   */\n      dup2\n        /* \"#utility.yul\":5152:5161   */\n      add\n        /* \"#utility.yul\":5147:5161   */\n      swap1\n      pop\n        /* \"#utility.yul\":5112:5553   */\n      jump(tag_247)\n    tag_249:\n        /* \"#utility.yul\":5116:5130   */\n      pop\n        /* \"#utility.yul\":5569:5573   */\n      dup3\n        /* \"#utility.yul\":5562:5573   */\n      swap8\n      pop\n        /* \"#utility.yul\":5589:5592   */\n      dup8\n        /* \"#utility.yul\":5582:5592   */\n      swap6\n      pop\n        /* \"#utility.yul\":4661:5598   */\n      pop\n      pop\n      pop\n      pop\n      pop\n        /* \"#utility.yul\":4487:5598   */\n      swap3\n      swap2\n      pop\n      pop\n      jump\t// out\n        /* \"#utility.yul\":5604:6077   */\n    tag_23:\n        /* \"#utility.yul\":5797:5801   */\n      0x00\n        /* \"#utility.yul\":5835:5837   */\n      0x20\n        /* \"#utility.yul\":5824:5833   */\n      dup3\n        /* \"#utility.yul\":5820:5838   */\n      add\n        /* \"#utility.yul\":5812:5838   */\n      swap1\n      pop\n        /* \"#utility.yul\":5884:5893   */\n      dup2\n        /* \"#utility.yul\":5878:5882   */\n      dup2\n        /* \"#utility.yul\":5874:5894   */\n      sub\n        /* \"#utility.yul\":5870:5871   */\n      0x00\n        /* \"#utility.yul\":5859:5868   */\n      dup4\n        /* \"#utility.yul\":5855:5872   */\n      add\n        /* \"#utility.yul\":5848:5895   */\n      mstore\n        /* \"#utility.yul\":5912:6070   */\n      tag_253\n        /* \"#utility.yul\":6065:6069   */\n      dup2\n        /* \"#utility.yul\":6056:6062   */\n      dup5\n        /* \"#utility.yul\":5912:6070   */\n      tag_163\n      jump\t// in\n    tag_253:\n        /* \"#utility.yul\":5904:6070   */\n      swap1\n      pop\n        /* \"#utility.yul\":5604:6077   */\n      swap3\n      swap2\n      pop\n      pop\n      jump\t// out\n        /* \"#utility.yul\":6083:6201   */\n    tag_164:\n        /* \"#utility.yul\":6170:6194   */\n      tag_255\n        /* \"#utility.yul\":6188:6193   */\n      dup2\n        /* \"#utility.yul\":6170:6194   */\n      tag_145\n      jump\t// in\n    tag_255:\n        /* \"#utility.yul\":6165:6168   */\n      dup3\n        /* \"#utility.yul\":6158:6195   */\n      mstore\n        /* \"#utility.yul\":6083:6201   */\n      pop\n      pop\n      jump\t// out\n        /* \"#utility.yul\":6207:6325   */\n    tag_165:\n        /* \"#utility.yul\":6294:6318   */\n      tag_257\n        /* \"#utility.yul\":6312:6317   */\n      dup2\n        /* \"#utility.yul\":6294:6318   */\n      tag_153\n      jump\t// in\n    tag_257:\n        /* \"#utility.yul\":6289:6292   */\n      dup3\n        /* \"#utility.yul\":6282:6319   */\n      mstore\n        /* \"#utility.yul\":6207:6325   */\n      pop\n      pop\n      jump\t// out\n        /* \"#utility.yul\":6331:6500   */\n    tag_166:\n        /* \"#utility.yul\":6415:6426   */\n      0x00\n        /* \"#utility.yul\":6449:6455   */\n      dup3\n        /* \"#utility.yul\":6444:6447   */\n      dup3\n        /* \"#utility.yul\":6437:6456   */\n      mstore\n        /* \"#utility.yul\":6489:6493   */\n      0x20\n        /* \"#utility.yul\":6484:6487   */\n      dup3\n        /* \"#utility.yul\":6480:6494   */\n      add\n        /* \"#utility.yul\":6465:6494   */\n      swap1\n      pop\n        /* \"#utility.yul\":6331:6500   */\n      swap3\n      swap2\n      pop\n      pop\n      jump\t// out\n        /* \"#utility.yul\":6506:6883   */\n    tag_167:\n        /* \"#utility.yul\":6594:6597   */\n      0x00\n        /* \"#utility.yul\":6622:6661   */\n      tag_260\n        /* \"#utility.yul\":6655:6660   */\n      dup3\n        /* \"#utility.yul\":6622:6661   */\n      tag_155\n      jump\t// in\n    tag_260:\n        /* \"#utility.yul\":6677:6748   */\n      tag_261\n        /* \"#utility.yul\":6741:6747   */\n      dup2\n        /* \"#utility.yul\":6736:6739   */\n      dup6\n        /* \"#utility.yul\":6677:6748   */\n      tag_166\n      jump\t// in\n    tag_261:\n        /* \"#utility.yul\":6670:6748   */\n      swap4\n      pop\n        /* \"#utility.yul\":6757:6822   */\n      tag_262\n        /* \"#utility.yul\":6815:6821   */\n      dup2\n        /* \"#utility.yul\":6810:6813   */\n      dup6\n        /* \"#utility.yul\":6803:6807   */\n      0x20\n        /* \"#utility.yul\":6796:6801   */\n      dup7\n        /* \"#utility.yul\":6792:6808   */\n      add\n        /* \"#utility.yul\":6757:6822   */\n      tag_157\n      jump\t// in\n    tag_262:\n        /* \"#utility.yul\":6847:6876   */\n      tag_263\n        /* \"#utility.yul\":6869:6875   */\n      dup2\n        /* \"#utility.yul\":6847:6876   */\n      tag_158\n      jump\t// in\n    tag_263:\n        /* \"#utility.yul\":6842:6845   */\n      dup5\n        /* \"#utility.yul\":6838:6877   */\n      add\n        /* \"#utility.yul\":6831:6877   */\n      swap2\n      pop\n        /* \"#utility.yul\":6598:6883   */\n      pop\n        /* \"#utility.yul\":6506:6883   */\n      swap3\n      swap2\n      pop\n      pop\n      jump\t// out\n        /* \"#utility.yul\":6889:7533   */\n    tag_28:\n        /* \"#utility.yul\":7086:7090   */\n      0x00\n        /* \"#utility.yul\":7124:7127   */\n      0x80\n        /* \"#utility.yul\":7113:7122   */\n      dup3\n        /* \"#utility.yul\":7109:7128   */\n      add\n        /* \"#utility.yul\":7101:7128   */\n      swap1\n      pop\n        /* \"#utility.yul\":7138:7209   */\n      tag_265\n        /* \"#utility.yul\":7206:7207   */\n      0x00\n        /* \"#utility.yul\":7195:7204   */\n      dup4\n        /* \"#utility.yul\":7191:7208   */\n      add\n        /* \"#utility.yul\":7182:7188   */\n      dup8\n        /* \"#utility.yul\":7138:7209   */\n      tag_164\n      jump\t// in\n    tag_265:\n        /* \"#utility.yul\":7219:7291   */\n      tag_266\n        /* \"#utility.yul\":7287:7289   */\n      0x20\n        /* \"#utility.yul\":7276:7285   */\n      dup4\n        /* \"#utility.yul\":7272:7290   */\n      add\n        /* \"#utility.yul\":7263:7269   */\n      dup7\n        /* \"#utility.yul\":7219:7291   */\n      tag_165\n      jump\t// in\n    tag_266:\n        /* \"#utility.yul\":7338:7347   */\n      dup2\n        /* \"#utility.yul\":7332:7336   */\n      dup2\n        /* \"#utility.yul\":7328:7348   */\n      sub\n        /* \"#utility.yul\":7323:7325   */\n      0x40\n        /* \"#utility.yul\":7312:7321   */\n      dup4\n        /* \"#utility.yul\":7308:7326   */\n      add\n        /* \"#utility.yul\":7301:7349   */\n      mstore\n        /* \"#utility.yul\":7366:7444   */\n      tag_267\n        /* \"#utility.yul\":7439:7443   */\n      dup2\n        /* \"#utility.yul\":7430:7436   */\n      dup6\n        /* \"#utility.yul\":7366:7444   */\n      tag_167\n      jump\t// in\n    tag_267:\n        /* \"#utility.yul\":7358:7444   */\n      swap1\n      pop\n        /* \"#utility.yul\":7454:7526   */\n      tag_268\n        /* \"#utility.yul\":7522:7524   */\n      0x60\n        /* \"#utility.yul\":7511:7520   */\n      dup4\n        /* \"#utility.yul\":7507:7525   */\n      add\n        /* \"#utility.yul\":7498:7504   */\n      dup5\n        /* \"#utility.yul\":7454:7526   */\n      tag_164\n      jump\t// in\n    tag_268:\n        /* \"#utility.yul\":6889:7533   */\n      swap6\n      swap5\n      pop\n      pop\n      pop\n      pop\n      pop\n      jump\t// out\n        /* \"#utility.yul\":7539:7661   */\n    tag_168:\n        /* \"#utility.yul\":7612:7636   */\n      tag_270\n        /* \"#utility.yul\":7630:7635   */\n      dup2\n        /* \"#utility.yul\":7612:7636   */\n      tag_153\n      jump\t// in\n    tag_270:\n        /* \"#utility.yul\":7605:7610   */\n      dup2\n        /* \"#utility.yul\":7602:7637   */\n      eq\n        /* \"#utility.yul\":7592:7655   */\n      tag_271\n      jumpi\n        /* \"#utility.yul\":7651:7652   */\n      0x00\n        /* \"#utility.yul\":7648:7649   */\n      dup1\n        /* \"#utility.yul\":7641:7653   */\n      revert\n        /* \"#utility.yul\":7592:7655   */\n    tag_271:\n        /* \"#utility.yul\":7539:7661   */\n      pop\n      jump\t// out\n        /* \"#utility.yul\":7667:7806   */\n    tag_169:\n        /* \"#utility.yul\":7713:7718   */\n      0x00\n        /* \"#utility.yul\":7751:7757   */\n      dup2\n        /* \"#utility.yul\":7738:7758   */\n      calldataload\n        /* \"#utility.yul\":7729:7758   */\n      swap1\n      pop\n        /* \"#utility.yul\":7767:7800   */\n      tag_273\n        /* \"#utility.yul\":7794:7799   */\n      dup2\n        /* \"#utility.yul\":7767:7800   */\n      tag_168\n      jump\t// in\n    tag_273:\n        /* \"#utility.yul\":7667:7806   */\n      swap3\n      swap2\n      pop\n      pop\n      jump\t// out\n        /* \"#utility.yul\":7812:8286   */\n    tag_31:\n        /* \"#utility.yul\":7880:7886   */\n      0x00\n        /* \"#utility.yul\":7888:7894   */\n      dup1\n        /* \"#utility.yul\":7937:7939   */\n      0x40\n        /* \"#utility.yul\":7925:7934   */\n      dup4\n        /* \"#utility.yul\":7916:7923   */\n      dup6\n        /* \"#utility.yul\":7912:7935   */\n      sub\n        /* \"#utility.yul\":7908:7940   */\n      slt\n        /* \"#utility.yul\":7905:8024   */\n      iszero\n      tag_275\n      jumpi\n        /* \"#utility.yul\":7943:8022   */\n      tag_276\n      tag_143\n      jump\t// in\n    tag_276:\n        /* \"#utility.yul\":7905:8024   */\n    tag_275:\n        /* \"#utility.yul\":8063:8064   */\n      0x00\n        /* \"#utility.yul\":8088:8141   */\n      tag_277\n        /* \"#utility.yul\":8133:8140   */\n      dup6\n        /* \"#utility.yul\":8124:8130   */\n      dup3\n        /* \"#utility.yul\":8113:8122   */\n      dup7\n        /* \"#utility.yul\":8109:8131   */\n      add\n        /* \"#utility.yul\":8088:8141   */\n      tag_169\n      jump\t// in\n    tag_277:\n        /* \"#utility.yul\":8078:8141   */\n      swap3\n      pop\n        /* \"#utility.yul\":8034:8151   */\n      pop\n        /* \"#utility.yul\":8190:8192   */\n      0x20\n        /* \"#utility.yul\":8216:8269   */\n      tag_278\n        /* \"#utility.yul\":8261:8268   */\n      dup6\n        /* \"#utility.yul\":8252:8258   */\n      dup3\n        /* \"#utility.yul\":8241:8250   */\n      dup7\n        /* \"#utility.yul\":8237:8259   */\n      add\n        /* \"#utility.yul\":8216:8269   */\n      tag_169\n      jump\t// in\n    tag_278:\n        /* \"#utility.yul\":8206:8269   */\n      swap2\n      pop\n        /* \"#utility.yul\":8161:8279   */\n      pop\n        /* \"#utility.yul\":7812:8286   */\n      swap3\n      pop\n      swap3\n      swap1\n      pop\n      jump\t// out\n        /* \"#utility.yul\":8292:8382   */\n    tag_170:\n        /* \"#utility.yul\":8326:8333   */\n      0x00\n        /* \"#utility.yul\":8369:8374   */\n      dup2\n        /* \"#utility.yul\":8362:8375   */\n      iszero\n        /* \"#utility.yul\":8355:8376   */\n      iszero\n        /* \"#utility.yul\":8344:8376   */\n      swap1\n      pop\n        /* \"#utility.yul\":8292:8382   */\n      swap2\n      swap1\n      pop\n      jump\t// out\n        /* \"#utility.yul\":8388:8497   */\n    tag_171:\n        /* \"#utility.yul\":8469:8490   */\n      tag_281\n        /* \"#utility.yul\":8484:8489   */\n      dup2\n        /* \"#utility.yul\":8469:8490   */\n      tag_170\n      jump\t// in\n    tag_281:\n        /* \"#utility.yul\":8464:8467   */\n      dup3\n        /* \"#utility.yul\":8457:8491   */\n      mstore\n        /* \"#utility.yul\":8388:8497   */\n      pop\n      pop\n      jump\t// out\n        /* \"#utility.yul\":8503:8713   */\n    tag_34:\n        /* \"#utility.yul\":8590:8594   */\n      0x00\n        /* \"#utility.yul\":8628:8630   */\n      0x20\n        /* \"#utility.yul\":8617:8626   */\n      dup3\n        /* \"#utility.yul\":8613:8631   */\n      add\n        /* \"#utility.yul\":8605:8631   */\n      swap1\n      pop\n        /* \"#utility.yul\":8641:8706   */\n      tag_283\n        /* \"#utility.yul\":8703:8704   */\n      0x00\n        /* \"#utility.yul\":8692:8701   */\n      dup4\n        /* \"#utility.yul\":8688:8705   */\n      add\n        /* \"#utility.yul\":8679:8685   */\n      dup5\n        /* \"#utility.yul\":8641:8706   */\n      tag_171\n      jump\t// in\n    tag_283:\n        /* \"#utility.yul\":8503:8713   */\n      swap3\n      swap2\n      pop\n      pop\n      jump\t// out\n        /* \"#utility.yul\":8719:8836   */\n    tag_172:\n        /* \"#utility.yul\":8828:8829   */\n      0x00\n        /* \"#utility.yul\":8825:8826   */\n      dup1\n        /* \"#utility.yul\":8818:8830   */\n      revert\n        /* \"#utility.yul\":8842:8959   */\n    tag_173:\n        /* \"#utility.yul\":8951:8952   */\n      0x00\n        /* \"#utility.yul\":8948:8949   */\n      dup1\n        /* \"#utility.yul\":8941:8953   */\n      revert\n        /* \"#utility.yul\":8965:9145   */\n    tag_83:\n        /* \"#utility.yul\":9013:9090   */\n      0x4e487b7100000000000000000000000000000000000000000000000000000000\n        /* \"#utility.yul\":9010:9011   */\n      0x00\n        /* \"#utility.yul\":9003:9091   */\n      mstore\n        /* \"#utility.yul\":9110:9114   */\n      0x41\n        /* \"#utility.yul\":9107:9108   */\n      0x04\n        /* \"#utility.yul\":9100:9115   */\n      mstore\n        /* \"#utility.yul\":9134:9138   */\n      0x24\n        /* \"#utility.yul\":9131:9132   */\n      0x00\n        /* \"#utility.yul\":9124:9139   */\n      revert\n        /* \"#utility.yul\":9151:9432   */\n    tag_174:\n        /* \"#utility.yul\":9234:9261   */\n      tag_288\n        /* \"#utility.yul\":9256:9260   */\n      dup3\n        /* \"#utility.yul\":9234:9261   */\n      tag_158\n      jump\t// in\n    tag_288:\n        /* \"#utility.yul\":9226:9232   */\n      dup2\n        /* \"#utility.yul\":9222:9262   */\n      add\n        /* \"#utility.yul\":9364:9370   */\n      dup2\n        /* \"#utility.yul\":9352:9362   */\n      dup2\n        /* \"#utility.yul\":9349:9371   */\n      lt\n        /* \"#utility.yul\":9328:9346   */\n      0xffffffffffffffff\n        /* \"#utility.yul\":9316:9326   */\n      dup3\n        /* \"#utility.yul\":9313:9347   */\n      gt\n        /* \"#utility.yul\":9310:9372   */\n      or\n        /* \"#utility.yul\":9307:9395   */\n      iszero\n      tag_289\n      jumpi\n        /* \"#utility.yul\":9375:9393   */\n      tag_290\n      tag_83\n      jump\t// in\n    tag_290:\n        /* \"#utility.yul\":9307:9395   */\n    tag_289:\n        /* \"#utility.yul\":9415:9425   */\n      dup1\n        /* \"#utility.yul\":9411:9413   */\n      0x40\n        /* \"#utility.yul\":9404:9426   */\n      mstore\n        /* \"#utility.yul\":9194:9432   */\n      pop\n        /* \"#utility.yul\":9151:9432   */\n      pop\n      pop\n      jump\t// out\n        /* \"#utility.yul\":9438:9567   */\n    tag_175:\n        /* \"#utility.yul\":9472:9478   */\n      0x00\n        /* \"#utility.yul\":9499:9519   */\n      tag_292\n      tag_142\n      jump\t// in\n    tag_292:\n        /* \"#utility.yul\":9489:9519   */\n      swap1\n      pop\n        /* \"#utility.yul\":9528:9561   */\n      tag_293\n        /* \"#utility.yul\":9556:9560   */\n      dup3\n        /* \"#utility.yul\":9548:9554   */\n      dup3\n        /* \"#utility.yul\":9528:9561   */\n      tag_174\n      jump\t// in\n    tag_293:\n        /* \"#utility.yul\":9438:9567   */\n      swap2\n      swap1\n      pop\n      jump\t// out\n        /* \"#utility.yul\":9573:9881   */\n    tag_176:\n        /* \"#utility.yul\":9635:9639   */\n      0x00\n        /* \"#utility.yul\":9725:9743   */\n      0xffffffffffffffff\n        /* \"#utility.yul\":9717:9723   */\n      dup3\n        /* \"#utility.yul\":9714:9744   */\n      gt\n        /* \"#utility.yul\":9711:9767   */\n      iszero\n      tag_295\n      jumpi\n        /* \"#utility.yul\":9747:9765   */\n      tag_296\n      tag_83\n      jump\t// in\n    tag_296:\n        /* \"#utility.yul\":9711:9767   */\n    tag_295:\n        /* \"#utility.yul\":9785:9814   */\n      tag_297\n        /* \"#utility.yul\":9807:9813   */\n      dup3\n        /* \"#utility.yul\":9785:9814   */\n      tag_158\n      jump\t// in\n    tag_297:\n        /* \"#utility.yul\":9777:9814   */\n      swap1\n      pop\n        /* \"#utility.yul\":9869:9873   */\n      0x20\n        /* \"#utility.yul\":9863:9867   */\n      dup2\n        /* \"#utility.yul\":9859:9874   */\n      add\n        /* \"#utility.yul\":9851:9874   */\n      swap1\n      pop\n        /* \"#utility.yul\":9573:9881   */\n      swap2\n      swap1\n      pop\n      jump\t// out\n        /* \"#utility.yul\":9887:10033   */\n    tag_177:\n        /* \"#utility.yul\":9984:9990   */\n      dup3\n        /* \"#utility.yul\":9979:9982   */\n      dup2\n        /* \"#utility.yul\":9974:9977   */\n      dup4\n        /* \"#utility.yul\":9961:9991   */\n      calldatacopy\n        /* \"#utility.yul\":10025:10026   */\n      0x00\n        /* \"#utility.yul\":10016:10022   */\n      dup4\n        /* \"#utility.yul\":10011:10014   */\n      dup4\n        /* \"#utility.yul\":10007:10023   */\n      add\n        /* \"#utility.yul\":10000:10027   */\n      mstore\n        /* \"#utility.yul\":9887:10033   */\n      pop\n      pop\n      pop\n      jump\t// out\n        /* \"#utility.yul\":10039:10464   */\n    tag_178:\n        /* \"#utility.yul\":10117:10122   */\n      0x00\n        /* \"#utility.yul\":10142:10208   */\n      tag_300\n        /* \"#utility.yul\":10158:10207   */\n      tag_301\n        /* \"#utility.yul\":10200:10206   */\n      dup5\n        /* \"#utility.yul\":10158:10207   */\n      tag_176\n      jump\t// in\n    tag_301:\n        /* \"#utility.yul\":10142:10208   */\n      tag_175\n      jump\t// in\n    tag_300:\n        /* \"#utility.yul\":10133:10208   */\n      swap1\n      pop\n        /* \"#utility.yul\":10231:10237   */\n      dup3\n        /* \"#utility.yul\":10224:10229   */\n      dup2\n        /* \"#utility.yul\":10217:10238   */\n      mstore\n        /* \"#utility.yul\":10269:10273   */\n      0x20\n        /* \"#utility.yul\":10262:10267   */\n      dup2\n        /* \"#utility.yul\":10258:10274   */\n      add\n        /* \"#utility.yul\":10307:10310   */\n      dup5\n        /* \"#utility.yul\":10298:10304   */\n      dup5\n        /* \"#utility.yul\":10293:10296   */\n      dup5\n        /* \"#utility.yul\":10289:10305   */\n      add\n        /* \"#utility.yul\":10286:10311   */\n      gt\n        /* \"#utility.yul\":10283:10395   */\n      iszero\n      tag_302\n      jumpi\n        /* \"#utility.yul\":10314:10393   */\n      tag_303\n      tag_173\n      jump\t// in\n    tag_303:\n        /* \"#utility.yul\":10283:10395   */\n    tag_302:\n        /* \"#utility.yul\":10404:10458   */\n      tag_304\n        /* \"#utility.yul\":10451:10457   */\n      dup5\n        /* \"#utility.yul\":10446:10449   */\n      dup3\n        /* \"#utility.yul\":10441:10444   */\n      dup6\n        /* \"#utility.yul\":10404:10458   */\n      tag_177\n      jump\t// in\n    tag_304:\n        /* \"#utility.yul\":10123:10464   */\n      pop\n        /* \"#utility.yul\":10039:10464   */\n      swap4\n      swap3\n      pop\n      pop\n      pop\n      jump\t// out\n        /* \"#utility.yul\":10484:10824   */\n    tag_179:\n        /* \"#utility.yul\":10540:10545   */\n      0x00\n        /* \"#utility.yul\":10589:10592   */\n      dup3\n        /* \"#utility.yul\":10582:10586   */\n      0x1f\n        /* \"#utility.yul\":10574:10580   */\n      dup4\n        /* \"#utility.yul\":10570:10587   */\n      add\n        /* \"#utility.yul\":10566:10593   */\n      slt\n        /* \"#utility.yul\":10556:10678   */\n      tag_306\n      jumpi\n        /* \"#utility.yul\":10597:10676   */\n      tag_307\n      tag_172\n      jump\t// in\n    tag_307:\n        /* \"#utility.yul\":10556:10678   */\n    tag_306:\n        /* \"#utility.yul\":10714:10720   */\n      dup2\n        /* \"#utility.yul\":10701:10721   */\n      calldataload\n        /* \"#utility.yul\":10739:10818   */\n      tag_308\n        /* \"#utility.yul\":10814:10817   */\n      dup5\n        /* \"#utility.yul\":10806:10812   */\n      dup3\n        /* \"#utility.yul\":10799:10803   */\n      0x20\n        /* \"#utility.yul\":10791:10797   */\n      dup7\n        /* \"#utility.yul\":10787:10804   */\n      add\n        /* \"#utility.yul\":10739:10818   */\n      tag_178\n      jump\t// in\n    tag_308:\n        /* \"#utility.yul\":10730:10818   */\n      swap2\n      pop\n        /* \"#utility.yul\":10546:10824   */\n      pop\n        /* \"#utility.yul\":10484:10824   */\n      swap3\n      swap2\n      pop\n      pop\n      jump\t// out\n        /* \"#utility.yul\":10830:11629   */\n    tag_37:\n        /* \"#utility.yul\":10917:10923   */\n      0x00\n        /* \"#utility.yul\":10925:10931   */\n      dup1\n        /* \"#utility.yul\":10933:10939   */\n      0x00\n        /* \"#utility.yul\":10982:10984   */\n      0x60\n        /* \"#utility.yul\":10970:10979   */\n      dup5\n        /* \"#utility.yul\":10961:10968   */\n      dup7\n        /* \"#utility.yul\":10957:10980   */\n      sub\n        /* \"#utility.yul\":10953:10985   */\n      slt\n        /* \"#utility.yul\":10950:11069   */\n      iszero\n      tag_310\n      jumpi\n        /* \"#utility.yul\":10988:11067   */\n      tag_311\n      tag_143\n      jump\t// in\n    tag_311:\n        /* \"#utility.yul\":10950:11069   */\n    tag_310:\n        /* \"#utility.yul\":11108:11109   */\n      0x00\n        /* \"#utility.yul\":11133:11186   */\n      tag_312\n        /* \"#utility.yul\":11178:11185   */\n      dup7\n        /* \"#utility.yul\":11169:11175   */\n      dup3\n        /* \"#utility.yul\":11158:11167   */\n      dup8\n        /* \"#utility.yul\":11154:11176   */\n      add\n        /* \"#utility.yul\":11133:11186   */\n      tag_169\n      jump\t// in\n    tag_312:\n        /* \"#utility.yul\":11123:11186   */\n      swap4\n      pop\n        /* \"#utility.yul\":11079:11196   */\n      pop\n        /* \"#utility.yul\":11235:11237   */\n      0x20\n        /* \"#utility.yul\":11261:11314   */\n      tag_313\n        /* \"#utility.yul\":11306:11313   */\n      dup7\n        /* \"#utility.yul\":11297:11303   */\n      dup3\n        /* \"#utility.yul\":11286:11295   */\n      dup8\n        /* \"#utility.yul\":11282:11304   */\n      add\n        /* \"#utility.yul\":11261:11314   */\n      tag_169\n      jump\t// in\n    tag_313:\n        /* \"#utility.yul\":11251:11314   */\n      swap3\n      pop\n        /* \"#utility.yul\":11206:11324   */\n      pop\n        /* \"#utility.yul\":11391:11393   */\n      0x40\n        /* \"#utility.yul\":11380:11389   */\n      dup5\n        /* \"#utility.yul\":11376:11394   */\n      add\n        /* \"#utility.yul\":11363:11395   */\n      calldataload\n        /* \"#utility.yul\":11422:11440   */\n      0xffffffffffffffff\n        /* \"#utility.yul\":11414:11420   */\n      dup2\n        /* \"#utility.yul\":11411:11441   */\n      gt\n        /* \"#utility.yul\":11408:11525   */\n      iszero\n      tag_314\n      jumpi\n        /* \"#utility.yul\":11444:11523   */\n      tag_315\n      tag_144\n      jump\t// in\n    tag_315:\n        /* \"#utility.yul\":11408:11525   */\n    tag_314:\n        /* \"#utility.yul\":11549:11612   */\n      tag_316\n        /* \"#utility.yul\":11604:11611   */\n      dup7\n        /* \"#utility.yul\":11595:11601   */\n      dup3\n        /* \"#utility.yul\":11584:11593   */\n      dup8\n        /* \"#utility.yul\":11580:11602   */\n      add\n        /* \"#utility.yul\":11549:11612   */\n      tag_179\n      jump\t// in\n    tag_316:\n        /* \"#utility.yul\":11539:11612   */\n      swap2\n      pop\n        /* \"#utility.yul\":11334:11622   */\n      pop\n        /* \"#utility.yul\":10830:11629   */\n      swap3\n      pop\n      swap3\n      pop\n      swap3\n      jump\t// out\n        /* \"#utility.yul\":11635:12144   */\n    tag_41:\n        /* \"#utility.yul\":11704:11710   */\n      0x00\n        /* \"#utility.yul\":11753:11755   */\n      0x20\n        /* \"#utility.yul\":11741:11750   */\n      dup3\n        /* \"#utility.yul\":11732:11739   */\n      dup5\n        /* \"#utility.yul\":11728:11751   */\n      sub\n        /* \"#utility.yul\":11724:11756   */\n      slt\n        /* \"#utility.yul\":11721:11840   */\n      iszero\n      tag_318\n      jumpi\n        /* \"#utility.yul\":11759:11838   */\n      tag_319\n      tag_143\n      jump\t// in\n    tag_319:\n        /* \"#utility.yul\":11721:11840   */\n    tag_318:\n        /* \"#utility.yul\":11907:11908   */\n      0x00\n        /* \"#utility.yul\":11896:11905   */\n      dup3\n        /* \"#utility.yul\":11892:11909   */\n      add\n        /* \"#utility.yul\":11879:11910   */\n      calldataload\n        /* \"#utility.yul\":11937:11955   */\n      0xffffffffffffffff\n        /* \"#utility.yul\":11929:11935   */\n      dup2\n        /* \"#utility.yul\":11926:11956   */\n      gt\n        /* \"#utility.yul\":11923:12040   */\n      iszero\n      tag_320\n      jumpi\n        /* \"#utility.yul\":11959:12038   */\n      tag_321\n      tag_144\n      jump\t// in\n    tag_321:\n        /* \"#utility.yul\":11923:12040   */\n    tag_320:\n        /* \"#utility.yul\":12064:12127   */\n      tag_322\n        /* \"#utility.yul\":12119:12126   */\n      dup5\n        /* \"#utility.yul\":12110:12116   */\n      dup3\n        /* \"#utility.yul\":12099:12108   */\n      dup6\n        /* \"#utility.yul\":12095:12117   */\n      add\n        /* \"#utility.yul\":12064:12127   */\n      tag_179\n      jump\t// in\n    tag_322:\n        /* \"#utility.yul\":12054:12127   */\n      swap2\n      pop\n        /* \"#utility.yul\":11850:12137   */\n      pop\n        /* \"#utility.yul\":11635:12144   */\n      swap3\n      swap2\n      pop\n      pop\n      jump\t// out\n        /* \"#utility.yul\":12150:12624   */\n    tag_45:\n        /* \"#utility.yul\":12218:12224   */\n      0x00\n        /* \"#utility.yul\":12226:12232   */\n      dup1\n        /* \"#utility.yul\":12275:12277   */\n      0x40\n        /* \"#utility.yul\":12263:12272   */\n      dup4\n        /* \"#utility.yul\":12254:12261   */\n      dup6\n        /* \"#utility.yul\":12250:12273   */\n      sub\n        /* \"#utility.yul\":12246:12278   */\n      slt\n        /* \"#utility.yul\":12243:12362   */\n      iszero\n      tag_324\n      jumpi\n        /* \"#utility.yul\":12281:12360   */\n      tag_325\n      tag_143\n      jump\t// in\n    tag_325:\n        /* \"#utility.yul\":12243:12362   */\n    tag_324:\n        /* \"#utility.yul\":12401:12402   */\n      0x00\n        /* \"#utility.yul\":12426:12479   */\n      tag_326\n        /* \"#utility.yul\":12471:12478   */\n      dup6\n        /* \"#utility.yul\":12462:12468   */\n      dup3\n        /* \"#utility.yul\":12451:12460   */\n      dup7\n        /* \"#utility.yul\":12447:12469   */\n      add\n        /* \"#utility.yul\":12426:12479   */\n      tag_169\n      jump\t// in\n    tag_326:\n        /* \"#utility.yul\":12416:12479   */\n      swap3\n      pop\n        /* \"#utility.yul\":12372:12489   */\n      pop\n        /* \"#utility.yul\":12528:12530   */\n      0x20\n        /* \"#utility.yul\":12554:12607   */\n      tag_327\n        /* \"#utility.yul\":12599:12606   */\n      dup6\n        /* \"#utility.yul\":12590:12596   */\n      dup3\n        /* \"#utility.yul\":12579:12588   */\n      dup7\n        /* \"#utility.yul\":12575:12597   */\n      add\n        /* \"#utility.yul\":12554:12607   */\n      tag_147\n      jump\t// in\n    tag_327:\n        /* \"#utility.yul\":12544:12607   */\n      swap2\n      pop\n        /* \"#utility.yul\":12499:12617   */\n      pop\n        /* \"#utility.yul\":12150:12624   */\n      swap3\n      pop\n      swap3\n      swap1\n      pop\n      jump\t// out\n        /* \"#utility.yul\":12630:13385   */\n    tag_48:\n        /* \"#utility.yul\":12855:12859   */\n      0x00\n        /* \"#utility.yul\":12893:12896   */\n      0xa0\n        /* \"#utility.yul\":12882:12891   */\n      dup3\n        /* \"#utility.yul\":12878:12897   */\n      add\n        /* \"#utility.yul\":12870:12897   */\n      swap1\n      pop\n        /* \"#utility.yul\":12907:12978   */\n      tag_329\n        /* \"#utility.yul\":12975:12976   */\n      0x00\n        /* \"#utility.yul\":12964:12973   */\n      dup4\n        /* \"#utility.yul\":12960:12977   */\n      add\n        /* \"#utility.yul\":12951:12957   */\n      dup9\n        /* \"#utility.yul\":12907:12978   */\n      tag_164\n      jump\t// in\n    tag_329:\n        /* \"#utility.yul\":12988:13060   */\n      tag_330\n        /* \"#utility.yul\":13056:13058   */\n      0x20\n        /* \"#utility.yul\":13045:13054   */\n      dup4\n        /* \"#utility.yul\":13041:13059   */\n      add\n        /* \"#utility.yul\":13032:13038   */\n      dup8\n        /* \"#utility.yul\":12988:13060   */\n      tag_165\n      jump\t// in\n    tag_330:\n        /* \"#utility.yul\":13070:13142   */\n      tag_331\n        /* \"#utility.yul\":13138:13140   */\n      0x40\n        /* \"#utility.yul\":13127:13136   */\n      dup4\n        /* \"#utility.yul\":13123:13141   */\n      add\n        /* \"#utility.yul\":13114:13120   */\n      dup7\n        /* \"#utility.yul\":13070:13142   */\n      tag_165\n      jump\t// in\n    tag_331:\n        /* \"#utility.yul\":13152:13224   */\n      tag_332\n        /* \"#utility.yul\":13220:13222   */\n      0x60\n        /* \"#utility.yul\":13209:13218   */\n      dup4\n        /* \"#utility.yul\":13205:13223   */\n      add\n        /* \"#utility.yul\":13196:13202   */\n      dup6\n        /* \"#utility.yul\":13152:13224   */\n      tag_164\n      jump\t// in\n    tag_332:\n        /* \"#utility.yul\":13272:13281   */\n      dup2\n        /* \"#utility.yul\":13266:13270   */\n      dup2\n        /* \"#utility.yul\":13262:13282   */\n      sub\n        /* \"#utility.yul\":13256:13259   */\n      0x80\n        /* \"#utility.yul\":13245:13254   */\n      dup4\n        /* \"#utility.yul\":13241:13260   */\n      add\n        /* \"#utility.yul\":13234:13283   */\n      mstore\n        /* \"#utility.yul\":13300:13378   */\n      tag_333\n        /* \"#utility.yul\":13373:13377   */\n      dup2\n        /* \"#utility.yul\":13364:13370   */\n      dup5\n        /* \"#utility.yul\":13300:13378   */\n      tag_167\n      jump\t// in\n    tag_333:\n        /* \"#utility.yul\":13292:13378   */\n      swap1\n      pop\n        /* \"#utility.yul\":12630:13385   */\n      swap7\n      swap6\n      pop\n      pop\n      pop\n      pop\n      pop\n      pop\n      jump\t// out\n        /* \"#utility.yul\":13391:13613   */\n    tag_53:\n        /* \"#utility.yul\":13484:13488   */\n      0x00\n        /* \"#utility.yul\":13522:13524   */\n      0x20\n        /* \"#utility.yul\":13511:13520   */\n      dup3\n        /* \"#utility.yul\":13507:13525   */\n      add\n        /* \"#utility.yul\":13499:13525   */\n      swap1\n      pop\n        /* \"#utility.yul\":13535:13606   */\n      tag_335\n        /* \"#utility.yul\":13603:13604   */\n      0x00\n        /* \"#utility.yul\":13592:13601   */\n      dup4\n        /* \"#utility.yul\":13588:13605   */\n      add\n        /* \"#utility.yul\":13579:13585   */\n      dup5\n        /* \"#utility.yul\":13535:13606   */\n      tag_164\n      jump\t// in\n    tag_335:\n        /* \"#utility.yul\":13391:13613   */\n      swap3\n      swap2\n      pop\n      pop\n      jump\t// out\n        /* \"#utility.yul\":13619:13841   */\n    tag_58:\n        /* \"#utility.yul\":13712:13716   */\n      0x00\n        /* \"#utility.yul\":13750:13752   */\n      0x20\n        /* \"#utility.yul\":13739:13748   */\n      dup3\n        /* \"#utility.yul\":13735:13753   */\n      add\n        /* \"#utility.yul\":13727:13753   */\n      swap1\n      pop\n        /* \"#utility.yul\":13763:13834   */\n      tag_337\n        /* \"#utility.yul\":13831:13832   */\n      0x00\n        /* \"#utility.yul\":13820:13829   */\n      dup4\n        /* \"#utility.yul\":13816:13833   */\n      add\n        /* \"#utility.yul\":13807:13813   */\n      dup5\n        /* \"#utility.yul\":13763:13834   */\n      tag_165\n      jump\t// in\n    tag_337:\n        /* \"#utility.yul\":13619:13841   */\n      swap3\n      swap2\n      pop\n      pop\n      jump\t// out\n        /* \"#utility.yul\":13847:14176   */\n    tag_61:\n        /* \"#utility.yul\":13906:13912   */\n      0x00\n        /* \"#utility.yul\":13955:13957   */\n      0x20\n        /* \"#utility.yul\":13943:13952   */\n      dup3\n        /* \"#utility.yul\":13934:13941   */\n      dup5\n        /* \"#utility.yul\":13930:13953   */\n      sub\n        /* \"#utility.yul\":13926:13958   */\n      slt\n        /* \"#utility.yul\":13923:14042   */\n      iszero\n      tag_339\n      jumpi\n        /* \"#utility.yul\":13961:14040   */\n      tag_340\n      tag_143\n      jump\t// in\n    tag_340:\n        /* \"#utility.yul\":13923:14042   */\n    tag_339:\n        /* \"#utility.yul\":14081:14082   */\n      0x00\n        /* \"#utility.yul\":14106:14159   */\n      tag_341\n        /* \"#utility.yul\":14151:14158   */\n      dup5\n        /* \"#utility.yul\":14142:14148   */\n      dup3\n        /* \"#utility.yul\":14131:14140   */\n      dup6\n        /* \"#utility.yul\":14127:14149   */\n      add\n        /* \"#utility.yul\":14106:14159   */\n      tag_169\n      jump\t// in\n    tag_341:\n        /* \"#utility.yul\":14096:14159   */\n      swap2\n      pop\n        /* \"#utility.yul\":14052:14169   */\n      pop\n        /* \"#utility.yul\":13847:14176   */\n      swap3\n      swap2\n      pop\n      pop\n      jump\t// out\n        /* \"#utility.yul\":14182:14836   */\n    tag_65:\n        /* \"#utility.yul\":14260:14266   */\n      0x00\n        /* \"#utility.yul\":14268:14274   */\n      dup1\n        /* \"#utility.yul\":14317:14319   */\n      0x40\n        /* \"#utility.yul\":14305:14314   */\n      dup4\n        /* \"#utility.yul\":14296:14303   */\n      dup6\n        /* \"#utility.yul\":14292:14315   */\n      sub\n        /* \"#utility.yul\":14288:14320   */\n      slt\n        /* \"#utility.yul\":14285:14404   */\n      iszero\n      tag_343\n      jumpi\n        /* \"#utility.yul\":14323:14402   */\n      tag_344\n      tag_143\n      jump\t// in\n    tag_344:\n        /* \"#utility.yul\":14285:14404   */\n    tag_343:\n        /* \"#utility.yul\":14443:14444   */\n      0x00\n        /* \"#utility.yul\":14468:14521   */\n      tag_345\n        /* \"#utility.yul\":14513:14520   */\n      dup6\n        /* \"#utility.yul\":14504:14510   */\n      dup3\n        /* \"#utility.yul\":14493:14502   */\n      dup7\n        /* \"#utility.yul\":14489:14511   */\n      add\n        /* \"#utility.yul\":14468:14521   */\n      tag_169\n      jump\t// in\n    tag_345:\n        /* \"#utility.yul\":14458:14521   */\n      swap3\n      pop\n        /* \"#utility.yul\":14414:14531   */\n      pop\n        /* \"#utility.yul\":14598:14600   */\n      0x20\n        /* \"#utility.yul\":14587:14596   */\n      dup4\n        /* \"#utility.yul\":14583:14601   */\n      add\n        /* \"#utility.yul\":14570:14602   */\n      calldataload\n        /* \"#utility.yul\":14629:14647   */\n      0xffffffffffffffff\n        /* \"#utility.yul\":14621:14627   */\n      dup2\n        /* \"#utility.yul\":14618:14648   */\n      gt\n        /* \"#utility.yul\":14615:14732   */\n      iszero\n      tag_346\n      jumpi\n        /* \"#utility.yul\":14651:14730   */\n      tag_347\n      tag_144\n      jump\t// in\n    tag_347:\n        /* \"#utility.yul\":14615:14732   */\n    tag_346:\n        /* \"#utility.yul\":14756:14819   */\n      tag_348\n        /* \"#utility.yul\":14811:14818   */\n      dup6\n        /* \"#utility.yul\":14802:14808   */\n      dup3\n        /* \"#utility.yul\":14791:14800   */\n      dup7\n        /* \"#utility.yul\":14787:14809   */\n      add\n        /* \"#utility.yul\":14756:14819   */\n      tag_179\n      jump\t// in\n    tag_348:\n        /* \"#utility.yul\":14746:14819   */\n      swap2\n      pop\n        /* \"#utility.yul\":14541:14829   */\n      pop\n        /* \"#utility.yul\":14182:14836   */\n      swap3\n      pop\n      swap3\n      swap1\n      pop\n      jump\t// out\n        /* \"#utility.yul\":14842:15005   */\n    tag_180:\n        /* \"#utility.yul\":14982:14997   */\n      0x496e76616c696420436f756e7400000000000000000000000000000000000000\n        /* \"#utility.yul\":14978:14979   */\n      0x00\n        /* \"#utility.yul\":14970:14976   */\n      dup3\n        /* \"#utility.yul\":14966:14980   */\n      add\n        /* \"#utility.yul\":14959:14998   */\n      mstore\n        /* \"#utility.yul\":14842:15005   */\n      pop\n      jump\t// out\n        /* \"#utility.yul\":15011:15377   */\n    tag_181:\n        /* \"#utility.yul\":15153:15156   */\n      0x00\n        /* \"#utility.yul\":15174:15241   */\n      tag_351\n        /* \"#utility.yul\":15238:15240   */\n      0x0d\n        /* \"#utility.yul\":15233:15236   */\n      dup4\n        /* \"#utility.yul\":15174:15241   */\n      tag_166\n      jump\t// in\n    tag_351:\n        /* \"#utility.yul\":15167:15241   */\n      swap2\n      pop\n        /* \"#utility.yul\":15250:15343   */\n      tag_352\n        /* \"#utility.yul\":15339:15342   */\n      dup3\n        /* \"#utility.yul\":15250:15343   */\n      tag_180\n      jump\t// in\n    tag_352:\n        /* \"#utility.yul\":15368:15370   */\n      0x20\n        /* \"#utility.yul\":15363:15366   */\n      dup3\n        /* \"#utility.yul\":15359:15371   */\n      add\n        /* \"#utility.yul\":15352:15371   */\n      swap1\n      pop\n        /* \"#utility.yul\":15011:15377   */\n      swap2\n      swap1\n      pop\n      jump\t// out\n        /* \"#utility.yul\":15383:15802   */\n    tag_80:\n        /* \"#utility.yul\":15549:15553   */\n      0x00\n        /* \"#utility.yul\":15587:15589   */\n      0x20\n        /* \"#utility.yul\":15576:15585   */\n      dup3\n        /* \"#utility.yul\":15572:15590   */\n      add\n        /* \"#utility.yul\":15564:15590   */\n      swap1\n      pop\n        /* \"#utility.yul\":15636:15645   */\n      dup2\n        /* \"#utility.yul\":15630:15634   */\n      dup2\n        /* \"#utility.yul\":15626:15646   */\n      sub\n        /* \"#utility.yul\":15622:15623   */\n      0x00\n        /* \"#utility.yul\":15611:15620   */\n      dup4\n        /* \"#utility.yul\":15607:15624   */\n      add\n        /* \"#utility.yul\":15600:15647   */\n      mstore\n        /* \"#utility.yul\":15664:15795   */\n      tag_354\n        /* \"#utility.yul\":15790:15794   */\n      dup2\n        /* \"#utility.yul\":15664:15795   */\n      tag_181\n      jump\t// in\n    tag_354:\n        /* \"#utility.yul\":15656:15795   */\n      swap1\n      pop\n        /* \"#utility.yul\":15383:15802   */\n      swap2\n      swap1\n      pop\n      jump\t// out\n        /* \"#utility.yul\":15808:15988   */\n    tag_182:\n        /* \"#utility.yul\":15856:15933   */\n      0x4e487b7100000000000000000000000000000000000000000000000000000000\n        /* \"#utility.yul\":15853:15854   */\n      0x00\n        /* \"#utility.yul\":15846:15934   */\n      mstore\n        /* \"#utility.yul\":15953:15957   */\n      0x11\n        /* \"#utility.yul\":15950:15951   */\n      0x04\n        /* \"#utility.yul\":15943:15958   */\n      mstore\n        /* \"#utility.yul\":15977:15981   */\n      0x24\n        /* \"#utility.yul\":15974:15975   */\n      0x00\n        /* \"#utility.yul\":15967:15982   */\n      revert\n        /* \"#utility.yul\":15994:16188   */\n    tag_92:\n        /* \"#utility.yul\":16034:16038   */\n      0x00\n        /* \"#utility.yul\":16054:16074   */\n      tag_357\n        /* \"#utility.yul\":16072:16073   */\n      dup3\n        /* \"#utility.yul\":16054:16074   */\n      tag_145\n      jump\t// in\n    tag_357:\n        /* \"#utility.yul\":16049:16074   */\n      swap2\n      pop\n        /* \"#utility.yul\":16088:16108   */\n      tag_358\n        /* \"#utility.yul\":16106:16107   */\n      dup4\n        /* \"#utility.yul\":16088:16108   */\n      tag_145\n      jump\t// in\n    tag_358:\n        /* \"#utility.yul\":16083:16108   */\n      swap3\n      pop\n        /* \"#utility.yul\":16132:16133   */\n      dup3\n        /* \"#utility.yul\":16129:16130   */\n      dup3\n        /* \"#utility.yul\":16125:16134   */\n      sub\n        /* \"#utility.yul\":16117:16134   */\n      swap1\n      pop\n        /* \"#utility.yul\":16156:16157   */\n      dup2\n        /* \"#utility.yul\":16150:16154   */\n      dup2\n        /* \"#utility.yul\":16147:16158   */\n      gt\n        /* \"#utility.yul\":16144:16181   */\n      iszero\n      tag_359\n      jumpi\n        /* \"#utility.yul\":16161:16179   */\n      tag_360\n      tag_182\n      jump\t// in\n    tag_360:\n        /* \"#utility.yul\":16144:16181   */\n    tag_359:\n        /* \"#utility.yul\":15994:16188   */\n      swap3\n      swap2\n      pop\n      pop\n      jump\t// out\n        /* \"#utility.yul\":16194:16374   */\n    tag_183:\n        /* \"#utility.yul\":16242:16319   */\n      0x4e487b7100000000000000000000000000000000000000000000000000000000\n        /* \"#utility.yul\":16239:16240   */\n      0x00\n        /* \"#utility.yul\":16232:16320   */\n      mstore\n        /* \"#utility.yul\":16339:16343   */\n      0x22\n        /* \"#utility.yul\":16336:16337   */\n      0x04\n        /* \"#utility.yul\":16329:16344   */\n      mstore\n        /* \"#utility.yul\":16363:16367   */\n      0x24\n        /* \"#utility.yul\":16360:16361   */\n      0x00\n        /* \"#utility.yul\":16353:16368   */\n      revert\n        /* \"#utility.yul\":16380:16700   */\n    tag_94:\n        /* \"#utility.yul\":16424:16430   */\n      0x00\n        /* \"#utility.yul\":16461:16462   */\n      0x02\n        /* \"#utility.yul\":16455:16459   */\n      dup3\n        /* \"#utility.yul\":16451:16463   */\n      div\n        /* \"#utility.yul\":16441:16463   */\n      swap1\n      pop\n        /* \"#utility.yul\":16508:16509   */\n      0x01\n        /* \"#utility.yul\":16502:16506   */\n      dup3\n        /* \"#utility.yul\":16498:16510   */\n      and\n        /* \"#utility.yul\":16529:16547   */\n      dup1\n        /* \"#utility.yul\":16519:16600   */\n      tag_363\n      jumpi\n        /* \"#utility.yul\":16585:16589   */\n      0x7f\n        /* \"#utility.yul\":16577:16583   */\n      dup3\n        /* \"#utility.yul\":16573:16590   */\n      and\n        /* \"#utility.yul\":16563:16590   */\n      swap2\n      pop\n        /* \"#utility.yul\":16519:16600   */\n    tag_363:\n        /* \"#utility.yul\":16647:16649   */\n      0x20\n        /* \"#utility.yul\":16639:16645   */\n      dup3\n        /* \"#utility.yul\":16636:16650   */\n      lt\n        /* \"#utility.yul\":16616:16634   */\n      dup2\n        /* \"#utility.yul\":16613:16651   */\n      sub\n        /* \"#utility.yul\":16610:16694   */\n      tag_364\n      jumpi\n        /* \"#utility.yul\":16666:16684   */\n      tag_365\n      tag_183\n      jump\t// in\n    tag_365:\n        /* \"#utility.yul\":16610:16694   */\n    tag_364:\n        /* \"#utility.yul\":16431:16700   */\n      pop\n        /* \"#utility.yul\":16380:16700   */\n      swap2\n      swap1\n      pop\n      jump\t// out\n        /* \"#utility.yul\":16706:16886   */\n    tag_101:\n        /* \"#utility.yul\":16754:16831   */\n      0x4e487b7100000000000000000000000000000000000000000000000000000000\n        /* \"#utility.yul\":16751:16752   */\n      0x00\n        /* \"#utility.yul\":16744:16832   */\n      mstore\n        /* \"#utility.yul\":16851:16855   */\n      0x32\n        /* \"#utility.yul\":16848:16849   */\n      0x04\n        /* \"#utility.yul\":16841:16856   */\n      mstore\n        /* \"#utility.yul\":16875:16879   */\n      0x24\n        /* \"#utility.yul\":16872:16873   */\n      0x00\n        /* \"#utility.yul\":16865:16880   */\n      revert\n        /* \"#utility.yul\":16892:17125   */\n    tag_103:\n        /* \"#utility.yul\":16931:16934   */\n      0x00\n        /* \"#utility.yul\":16954:16978   */\n      tag_368\n        /* \"#utility.yul\":16972:16977   */\n      dup3\n        /* \"#utility.yul\":16954:16978   */\n      tag_145\n      jump\t// in\n    tag_368:\n        /* \"#utility.yul\":16945:16978   */\n      swap2\n      pop\n        /* \"#utility.yul\":17000:17066   */\n      0xffffffffffffffffffffffffffffffffffffffffffffffffffffffffffffffff\n        /* \"#utility.yul\":16993:16998   */\n      dup3\n        /* \"#utility.yul\":16990:17067   */\n      sub\n        /* \"#utility.yul\":16987:17090   */\n      tag_369\n      jumpi\n        /* \"#utility.yul\":17070:17088   */\n      tag_370\n      tag_182\n      jump\t// in\n    tag_370:\n        /* \"#utility.yul\":16987:17090   */\n    tag_369:\n        /* \"#utility.yul\":17117:17118   */\n      0x01\n        /* \"#utility.yul\":17110:17115   */\n      dup3\n        /* \"#utility.yul\":17106:17119   */\n      add\n        /* \"#utility.yul\":17099:17119   */\n      swap1\n      pop\n        /* \"#utility.yul\":16892:17125   */\n      swap2\n      swap1\n      pop\n      jump\t// out\n        /* \"#utility.yul\":17131:17272   */\n    tag_184:\n        /* \"#utility.yul\":17180:17184   */\n      0x00\n        /* \"#utility.yul\":17203:17206   */\n      dup2\n        /* \"#utility.yul\":17195:17206   */\n      swap1\n      pop\n        /* \"#utility.yul\":17226:17229   */\n      dup2\n        /* \"#utility.yul\":17223:17224   */\n      0x00\n        /* \"#utility.yul\":17216:17230   */\n      mstore\n        /* \"#utility.yul\":17260:17264   */\n      0x20\n        /* \"#utility.yul\":17257:17258   */\n      0x00\n        /* \"#utility.yul\":17247:17265   */\n      keccak256\n        /* \"#utility.yul\":17239:17265   */\n      swap1\n      pop\n        /* \"#utility.yul\":17131:17272   */\n      swap2\n      swap1\n      pop\n      jump\t// out\n        /* \"#utility.yul\":17278:17371   */\n    tag_185:\n        /* \"#utility.yul\":17315:17321   */\n      0x00\n        /* \"#utility.yul\":17362:17364   */\n      0x20\n        /* \"#utility.yul\":17357:17359   */\n      0x1f\n        /* \"#utility.yul\":17350:17355   */\n      dup4\n        /* \"#utility.yul\":17346:17360   */\n      add\n        /* \"#utility.yul\":17342:17365   */\n      div\n        /* \"#utility.yul\":17332:17365   */\n      swap1\n      pop\n        /* \"#utility.yul\":17278:17371   */\n      swap2\n      swap1\n      pop\n      jump\t// out\n        /* \"#utility.yul\":17377:17484   */\n    tag_186:\n        /* \"#utility.yul\":17421:17429   */\n      0x00\n        /* \"#utility.yul\":17471:17476   */\n      dup3\n        /* \"#utility.yul\":17465:17469   */\n      dup3\n        /* \"#utility.yul\":17461:17477   */\n      shl\n        /* \"#utility.yul\":17440:17477   */\n      swap1\n      pop\n        /* \"#utility.yul\":17377:17484   */\n      swap3\n      swap2\n      pop\n      pop\n      jump\t// out\n        /* \"#utility.yul\":17490:17883   */\n    tag_187:\n        /* \"#utility.yul\":17559:17565   */\n      0x00\n        /* \"#utility.yul\":17609:17610   */\n      0x08\n        /* \"#utility.yul\":17597:17607   */\n      dup4\n        /* \"#utility.yul\":17593:17611   */\n      mul\n        /* \"#utility.yul\":17632:17729   */\n      tag_375\n        /* \"#utility.yul\":17662:17728   */\n      0xffffffffffffffffffffffffffffffffffffffffffffffffffffffffffffffff\n        /* \"#utility.yul\":17651:17660   */\n      dup3\n        /* \"#utility.yul\":17632:17729   */\n      tag_186\n      jump\t// in\n    tag_375:\n        /* \"#utility.yul\":17750:17789   */\n      tag_376\n        /* \"#utility.yul\":17780:17788   */\n      dup7\n        /* \"#utility.yul\":17769:17778   */\n      dup4\n        /* \"#utility.yul\":17750:17789   */\n      tag_186\n      jump\t// in\n    tag_376:\n        /* \"#utility.yul\":17738:17789   */\n      swap6\n      pop\n        /* \"#utility.yul\":17822:17826   */\n      dup1\n        /* \"#utility.yul\":17818:17827   */\n      not\n        /* \"#utility.yul\":17811:17816   */\n      dup5\n        /* \"#utility.yul\":17807:17828   */\n      and\n        /* \"#utility.yul\":17798:17828   */\n      swap4\n      pop\n        /* \"#utility.yul\":17871:17875   */\n      dup1\n        /* \"#utility.yul\":17861:17869   */\n      dup7\n        /* \"#utility.yul\":17857:17876   */\n      and\n        /* \"#utility.yul\":17850:17855   */\n      dup5\n        /* \"#utility.yul\":17847:17877   */\n      or\n        /* \"#utility.yul\":17837:17877   */\n      swap3\n      pop\n        /* \"#utility.yul\":17566:17883   */\n      pop\n      pop\n        /* \"#utility.yul\":17490:17883   */\n      swap4\n      swap3\n      pop\n      pop\n      pop\n      jump\t// out\n        /* \"#utility.yul\":17889:17949   */\n    tag_188:\n        /* \"#utility.yul\":17917:17920   */\n      0x00\n        /* \"#utility.yul\":17938:17943   */\n      dup2\n        /* \"#utility.yul\":17931:17943   */\n      swap1\n      pop\n        /* \"#utility.yul\":17889:17949   */\n      swap2\n      swap1\n      pop\n      jump\t// out\n        /* \"#utility.yul\":17955:18097   */\n    tag_189:\n        /* \"#utility.yul\":18005:18014   */\n      0x00\n        /* \"#utility.yul\":18038:18091   */\n      tag_379\n        /* \"#utility.yul\":18056:18090   */\n      tag_380\n        /* \"#utility.yul\":18065:18089   */\n      tag_381\n        /* \"#utility.yul\":18083:18088   */\n      dup5\n        /* \"#utility.yul\":18065:18089   */\n      tag_145\n      jump\t// in\n    tag_381:\n        /* \"#utility.yul\":18056:18090   */\n      tag_188\n      jump\t// in\n    tag_380:\n        /* \"#utility.yul\":18038:18091   */\n      tag_145\n      jump\t// in\n    tag_379:\n        /* \"#utility.yul\":18025:18091   */\n      swap1\n      pop\n        /* \"#utility.yul\":17955:18097   */\n      swap2\n      swap1\n      pop\n      jump\t// out\n        /* \"#utility.yul\":18103:18178   */\n    tag_190:\n        /* \"#utility.yul\":18146:18149   */\n      0x00\n        /* \"#utility.yul\":18167:18172   */\n      dup2\n        /* \"#utility.yul\":18160:18172   */\n      swap1\n      pop\n        /* \"#utility.yul\":18103:18178   */\n      swap2\n      swap1\n      pop\n      jump\t// out\n        /* \"#utility.yul\":18184:18453   */\n    tag_191:\n        /* \"#utility.yul\":18294:18333   */\n      tag_384\n        /* \"#utility.yul\":18325:18332   */\n      dup4\n        /* \"#utility.yul\":18294:18333   */\n      tag_189\n      jump\t// in\n    tag_384:\n        /* \"#utility.yul\":18355:18446   */\n      tag_385\n        /* \"#utility.yul\":18404:18445   */\n      tag_386\n        /* \"#utility.yul\":18428:18444   */\n      dup3\n        /* \"#utility.yul\":18404:18445   */\n      tag_190\n      jump\t// in\n    tag_386:\n        /* \"#utility.yul\":18396:18402   */\n      dup5\n        /* \"#utility.yul\":18389:18393   */\n      dup5\n        /* \"#utility.yul\":18383:18394   */\n      sload\n        /* \"#utility.yul\":18355:18446   */\n      tag_187\n      jump\t// in\n    tag_385:\n        /* \"#utility.yul\":18349:18353   */\n      dup3\n        /* \"#utility.yul\":18342:18447   */\n      sstore\n        /* \"#utility.yul\":18260:18453   */\n      pop\n        /* \"#utility.yul\":18184:18453   */\n      pop\n      pop\n      pop\n      jump\t// out\n        /* \"#utility.yul\":18459:18532   */\n    tag_192:\n        /* \"#utility.yul\":18504:18507   */\n      0x00\n        /* \"#utility.yul\":18459:18532   */\n      swap1\n      jump\t// out\n        /* \"#utility.yul\":18538:18727   */\n    tag_193:\n        /* \"#utility.yul\":18615:18647   */\n      tag_389\n      tag_192\n      jump\t// in\n    tag_389:\n        /* \"#utility.yul\":18656:18721   */\n      tag_390\n        /* \"#utility.yul\":18714:18720   */\n      dup2\n        /* \"#utility.yul\":18706:18712   */\n      dup5\n        /* \"#utility.yul\":18700:18704   */\n      dup5\n        /* \"#utility.yul\":18656:18721   */\n      tag_191\n      jump\t// in\n    tag_390:\n        /* \"#utility.yul\":18591:18727   */\n      pop\n        /* \"#utility.yul\":18538:18727   */\n      pop\n      pop\n      jump\t// out\n        /* \"#utility.yul\":18733:18919   */\n    tag_194:\n        /* \"#utility.yul\":18793:18913   */\n    tag_392:\n        /* \"#utility.yul\":18810:18813   */\n      dup2\n        /* \"#utility.yul\":18803:18808   */\n      dup2\n        /* \"#utility.yul\":18800:18814   */\n      lt\n        /* \"#utility.yul\":18793:18913   */\n      iszero\n      tag_394\n      jumpi\n        /* \"#utility.yul\":18864:18903   */\n      tag_395\n        /* \"#utility.yul\":18901:18902   */\n      0x00\n        /* \"#utility.yul\":18894:18899   */\n      dup3\n        /* \"#utility.yul\":18864:18903   */\n      tag_193\n      jump\t// in\n    tag_395:\n        /* \"#utility.yul\":18837:18838   */\n      0x01\n        /* \"#utility.yul\":18830:18835   */\n      dup2\n        /* \"#utility.yul\":18826:18839   */\n      add\n        /* \"#utility.yul\":18817:18839   */\n      swap1\n      pop\n        /* \"#utility.yul\":18793:18913   */\n      jump(tag_392)\n    tag_394:\n        /* \"#utility.yul\":18733:18919   */\n      pop\n      pop\n      jump\t// out\n        /* \"#utility.yul\":18925:19468   */\n    tag_195:\n        /* \"#utility.yul\":19026:19028   */\n      0x1f\n        /* \"#utility.yul\":19021:19024   */\n      dup3\n        /* \"#utility.yul\":19018:19029   */\n      gt\n        /* \"#utility.yul\":19015:19461   */\n      iszero\n      tag_397\n      jumpi\n        /* \"#utility.yul\":19060:19098   */\n      tag_398\n        /* \"#utility.yul\":19092:19097   */\n      dup2\n        /* \"#utility.yul\":19060:19098   */\n      tag_184\n      jump\t// in\n    tag_398:\n        /* \"#utility.yul\":19144:19173   */\n      tag_399\n        /* \"#utility.yul\":19162:19172   */\n      dup5\n        /* \"#utility.yul\":19144:19173   */\n      tag_185\n      jump\t// in\n    tag_399:\n        /* \"#utility.yul\":19134:19142   */\n      dup2\n        /* \"#utility.yul\":19130:19174   */\n      add\n        /* \"#utility.yul\":19327:19329   */\n      0x20\n        /* \"#utility.yul\":19315:19325   */\n      dup6\n        /* \"#utility.yul\":19312:19330   */\n      lt\n        /* \"#utility.yul\":19309:19358   */\n      iszero\n      tag_400\n      jumpi\n        /* \"#utility.yul\":19348:19356   */\n      dup2\n        /* \"#utility.yul\":19333:19356   */\n      swap1\n      pop\n        /* \"#utility.yul\":19309:19358   */\n    tag_400:\n        /* \"#utility.yul\":19371:19451   */\n      tag_401\n        /* \"#utility.yul\":19427:19449   */\n      tag_402\n        /* \"#utility.yul\":19445:19448   */\n      dup6\n        /* \"#utility.yul\":19427:19449   */\n      tag_185\n      jump\t// in\n    tag_402:\n        /* \"#utility.yul\":19417:19425   */\n      dup4\n        /* \"#utility.yul\":19413:19450   */\n      add\n        /* \"#utility.yul\":19400:19411   */\n      dup3\n        /* \"#utility.yul\":19371:19451   */\n      tag_194\n      jump\t// in\n    tag_401:\n        /* \"#utility.yul\":19030:19461   */\n      pop\n      pop\n        /* \"#utility.yul\":19015:19461   */\n    tag_397:\n        /* \"#utility.yul\":18925:19468   */\n      pop\n      pop\n      pop\n      jump\t// out\n        /* \"#utility.yul\":19474:19591   */\n    tag_196:\n        /* \"#utility.yul\":19528:19536   */\n      0x00\n        /* \"#utility.yul\":19578:19583   */\n      dup3\n        /* \"#utility.yul\":19572:19576   */\n      dup3\n        /* \"#utility.yul\":19568:19584   */\n      shr\n        /* \"#utility.yul\":19547:19584   */\n      swap1\n      pop\n        /* \"#utility.yul\":19474:19591   */\n      swap3\n      swap2\n      pop\n      pop\n      jump\t// out\n        /* \"#utility.yul\":19597:19766   */\n    tag_197:\n        /* \"#utility.yul\":19641:19647   */\n      0x00\n        /* \"#utility.yul\":19674:19725   */\n      tag_405\n        /* \"#utility.yul\":19722:19723   */\n      0x00\n        /* \"#utility.yul\":19718:19724   */\n      not\n        /* \"#utility.yul\":19710:19715   */\n      dup5\n        /* \"#utility.yul\":19707:19708   */\n      0x08\n        /* \"#utility.yul\":19703:19716   */\n      mul\n        /* \"#utility.yul\":19674:19725   */\n      tag_196\n      jump\t// in\n    tag_405:\n        /* \"#utility.yul\":19670:19726   */\n      not\n        /* \"#utility.yul\":19755:19759   */\n      dup1\n        /* \"#utility.yul\":19749:19753   */\n      dup4\n        /* \"#utility.yul\":19745:19760   */\n      and\n        /* \"#utility.yul\":19735:19760   */\n      swap2\n      pop\n        /* \"#utility.yul\":19648:19766   */\n      pop\n        /* \"#utility.yul\":19597:19766   */\n      swap3\n      swap2\n      pop\n      pop\n      jump\t// out\n        /* \"#utility.yul\":19771:20066   */\n    tag_198:\n        /* \"#utility.yul\":19847:19851   */\n      0x00\n        /* \"#utility.yul\":19993:20022   */\n      tag_407\n        /* \"#utility.yul\":20018:20021   */\n      dup4\n        /* \"#utility.yul\":20012:20016   */\n      dup4\n        /* \"#utility.yul\":19993:20022   */\n      tag_197\n      jump\t// in\n    tag_407:\n        /* \"#utility.yul\":19985:20022   */\n      swap2\n      pop\n        /* \"#utility.yul\":20055:20058   */\n      dup3\n        /* \"#utility.yul\":20052:20053   */\n      0x02\n        /* \"#utility.yul\":20048:20059   */\n      mul\n        /* \"#utility.yul\":20042:20046   */\n      dup3\n        /* \"#utility.yul\":20039:20060   */\n      or\n        /* \"#utility.yul\":20031:20060   */\n      swap1\n      pop\n        /* \"#utility.yul\":19771:20066   */\n      swap3\n      swap2\n      pop\n      pop\n      jump\t// out\n        /* \"#utility.yul\":20071:21466   */\n    tag_138:\n        /* \"#utility.yul\":20188:20225   */\n      tag_409\n        /* \"#utility.yul\":20221:20224   */\n      dup3\n        /* \"#utility.yul\":20188:20225   */\n      tag_155\n      jump\t// in\n    tag_409:\n        /* \"#utility.yul\":20290:20308   */\n      0xffffffffffffffff\n        /* \"#utility.yul\":20282:20288   */\n      dup2\n        /* \"#utility.yul\":20279:20309   */\n      gt\n        /* \"#utility.yul\":20276:20332   */\n      iszero\n      tag_410\n      jumpi\n        /* \"#utility.yul\":20312:20330   */\n      tag_411\n      tag_83\n      jump\t// in\n    tag_411:\n        /* \"#utility.yul\":20276:20332   */\n    tag_410:\n        /* \"#utility.yul\":20356:20394   */\n      tag_412\n        /* \"#utility.yul\":20388:20392   */\n      dup3\n        /* \"#utility.yul\":20382:20393   */\n      sload\n        /* \"#utility.yul\":20356:20394   */\n      tag_94\n      jump\t// in\n    tag_412:\n        /* \"#utility.yul\":20441:20508   */\n      tag_413\n        /* \"#utility.yul\":20501:20507   */\n      dup3\n        /* \"#utility.yul\":20493:20499   */\n      dup3\n        /* \"#utility.yul\":20487:20491   */\n      dup6\n        /* \"#utility.yul\":20441:20508   */\n      tag_195\n      jump\t// in\n    tag_413:\n        /* \"#utility.yul\":20535:20536   */\n      0x00\n        /* \"#utility.yul\":20559:20563   */\n      0x20\n        /* \"#utility.yul\":20546:20563   */\n      swap1\n      pop\n        /* \"#utility.yul\":20591:20593   */\n      0x1f\n        /* \"#utility.yul\":20583:20589   */\n      dup4\n        /* \"#utility.yul\":20580:20594   */\n      gt\n        /* \"#utility.yul\":20608:20609   */\n      0x01\n        /* \"#utility.yul\":20603:21221   */\n      dup2\n      eq\n      tag_415\n      jumpi\n        /* \"#utility.yul\":21265:21266   */\n      0x00\n        /* \"#utility.yul\":21282:21288   */\n      dup5\n        /* \"#utility.yul\":21279:21356   */\n      iszero\n      tag_416\n      jumpi\n        /* \"#utility.yul\":21331:21340   */\n      dup3\n        /* \"#utility.yul\":21326:21329   */\n      dup8\n        /* \"#utility.yul\":21322:21341   */\n      add\n        /* \"#utility.yul\":21316:21342   */\n      mload\n        /* \"#utility.yul\":21307:21342   */\n      swap1\n      pop\n        /* \"#utility.yul\":21279:21356   */\n    tag_416:\n        /* \"#utility.yul\":21382:21449   */\n      tag_417\n        /* \"#utility.yul\":21442:21448   */\n      dup6\n        /* \"#utility.yul\":21435:21440   */\n      dup3\n        /* \"#utility.yul\":21382:21449   */\n      tag_198\n      jump\t// in\n    tag_417:\n        /* \"#utility.yul\":21376:21380   */\n      dup7\n        /* \"#utility.yul\":21369:21450   */\n      sstore\n        /* \"#utility.yul\":21238:21460   */\n      pop\n        /* \"#utility.yul\":20573:21460   */\n      jump(tag_414)\n        /* \"#utility.yul\":20603:21221   */\n    tag_415:\n        /* \"#utility.yul\":20655:20659   */\n      0x1f\n        /* \"#utility.yul\":20651:20660   */\n      not\n        /* \"#utility.yul\":20643:20649   */\n      dup5\n        /* \"#utility.yul\":20639:20661   */\n      and\n        /* \"#utility.yul\":20689:20726   */\n      tag_418\n        /* \"#utility.yul\":20721:20725   */\n      dup7\n        /* \"#utility.yul\":20689:20726   */\n      tag_184\n      jump\t// in\n    tag_418:\n        /* \"#utility.yul\":20748:20749   */\n      0x00\n        /* \"#utility.yul\":20762:20970   */\n    tag_419:\n        /* \"#utility.yul\":20776:20783   */\n      dup3\n        /* \"#utility.yul\":20773:20774   */\n      dup2\n        /* \"#utility.yul\":20770:20784   */\n      lt\n        /* \"#utility.yul\":20762:20970   */\n      iszero\n      tag_421\n      jumpi\n        /* \"#utility.yul\":20855:20864   */\n      dup5\n        /* \"#utility.yul\":20850:20853   */\n      dup10\n        /* \"#utility.yul\":20846:20865   */\n      add\n        /* \"#utility.yul\":20840:20866   */\n      mload\n        /* \"#utility.yul\":20832:20838   */\n      dup3\n        /* \"#utility.yul\":20825:20867   */\n      sstore\n        /* \"#utility.yul\":20906:20907   */\n      0x01\n        /* \"#utility.yul\":20898:20904   */\n      dup3\n        /* \"#utility.yul\":20894:20908   */\n      add\n        /* \"#utility.yul\":20884:20908   */\n      swap2\n      pop\n        /* \"#utility.yul\":20953:20955   */\n      0x20\n        /* \"#utility.yul\":20942:20951   */\n      dup6\n        /* \"#utility.yul\":20938:20956   */\n      add\n        /* \"#utility.yul\":20925:20956   */\n      swap5\n      pop\n        /* \"#utility.yul\":20799:20803   */\n      0x20\n        /* \"#utility.yul\":20796:20797   */\n      dup2\n        /* \"#utility.yul\":20792:20804   */\n      add\n        /* \"#utility.yul\":20787:20804   */\n      swap1\n      pop\n        /* \"#utility.yul\":20762:20970   */\n      jump(tag_419)\n    tag_421:\n        /* \"#utility.yul\":20998:21004   */\n      dup7\n        /* \"#utility.yul\":20989:20996   */\n      dup4\n        /* \"#utility.yul\":20986:21005   */\n      lt\n        /* \"#utility.yul\":20983:21162   */\n      iszero\n      tag_422\n      jumpi\n        /* \"#utility.yul\":21056:21065   */\n      dup5\n        /* \"#utility.yul\":21051:21054   */\n      dup10\n        /* \"#utility.yul\":21047:21066   */\n      add\n        /* \"#utility.yul\":21041:21067   */\n      mload\n        /* \"#utility.yul\":21099:21147   */\n      tag_423\n        /* \"#utility.yul\":21141:21145   */\n      0x1f\n        /* \"#utility.yul\":21133:21139   */\n      dup10\n        /* \"#utility.yul\":21129:21146   */\n      and\n        /* \"#utility.yul\":21118:21127   */\n      dup3\n        /* \"#utility.yul\":21099:21147   */\n      tag_197\n      jump\t// in\n    tag_423:\n        /* \"#utility.yul\":21091:21097   */\n      dup4\n        /* \"#utility.yul\":21084:21148   */\n      sstore\n        /* \"#utility.yul\":21006:21162   */\n      pop\n        /* \"#utility.yul\":20983:21162   */\n    tag_422:\n        /* \"#utility.yul\":21208:21209   */\n      0x01\n        /* \"#utility.yul\":21204:21205   */\n      0x02\n        /* \"#utility.yul\":21196:21202   */\n      dup9\n        /* \"#utility.yul\":21192:21206   */\n      mul\n        /* \"#utility.yul\":21188:21210   */\n      add\n        /* \"#utility.yul\":21182:21186   */\n      dup9\n        /* \"#utility.yul\":21175:21211   */\n      sstore\n        /* \"#utility.yul\":20610:21221   */\n      pop\n      pop\n      pop\n        /* \"#utility.yul\":20573:21460   */\n    tag_414:\n      pop\n        /* \"#utility.yul\":20163:21466   */\n      pop\n      pop\n      pop\n        /* \"#utility.yul\":20071:21466   */\n      pop\n      pop\n      jump\t// out\n\n    auxdata: 0xa26469706673582212203d3005e905e70fb5b043ccc5c17d3c47da2ac7a58f240cb47ad7cbcec38bdfa764736f6c63430008120033\n}\n",
				"bytecode": {
					"linkReferences": {},
					"object": "608060405234801561001057600080fd5b506117b1806100206000396000f3fe608060405234801561001057600080fd5b50600436106100cf5760003560e01c80636e10beaf1161008c578063d088db4011610066578063d088db401461024f578063e06da1cb1461026b578063e15a1e3314610287578063ff9913e8146102a3576100cf565b80636e10beaf146101d35780639139cda514610203578063a9ed9cb814610233576100cf565b8063151a39c6146100d45780631c32166a146101045780632637588e1461013757806341e5ed76146101675780635ab8f8bc146101835780635dfcaebf1461019f575b600080fd5b6100ee60048036038101906100e99190610c67565b6102bf565b6040516100fb9190610e99565b60405180910390f35b61011e60048036038101906101199190610c67565b6104d8565b60405161012e9493929190610f23565b60405180910390f35b610151600480360381019061014c9190610f9b565b6105b0565b60405161015e9190610ff6565b60405180910390f35b610181600480360381019061017c9190611146565b6105df565b005b61019d600480360381019061019891906111b5565b6105ef565b005b6101b960048036038101906101b491906111fe565b6105fc565b6040516101ca95949392919061123e565b60405180910390f35b6101ed60048036038101906101e891906111fe565b610717565b6040516101fa9190611298565b60405180910390f35b61021d600480360381019061021891906111fe565b610748565b60405161022a91906112b3565b60405180910390f35b61024d600480360381019061024891906112ce565b610796565b005b610269600480360381019061026491906112fb565b61082e565b005b610285600480360381019061028091906112ce565b61083d565b005b6102a1600480360381019061029c91906112fb565b6108e0565b005b6102bd60048036038101906102b891906112ce565b6108ee565b005b60606000821180156102d357506005548211155b610312576040517f08c379a0000000000000000000000000000000000000000000000000000000008152600401610309906113a3565b60405180910390fd5b60008267ffffffffffffffff81111561032e5761032d61101b565b5b60405190808252806020026020018201604052801561036757816020015b610354610bdf565b81526020019060019003908161034c5790505b5090506000808460055461037b91906113f2565b90505b6005548110156104cd57600080600083815260200190815260200160002090506040518060800160405280826000015481526020018260010160009054906101000a900473ffffffffffffffffffffffffffffffffffffffff1673ffffffffffffffffffffffffffffffffffffffff16815260200182600201805461040290611455565b80601f016020809104026020016040519081016040528092919081815260200182805461042e90611455565b801561047b5780601f106104505761010080835404028352916020019161047b565b820191906000526020600020905b81548152906001019060200180831161045e57829003601f168201915b5050505050815260200182600301548152508484815181106104a05761049f611486565b5b602002602001018190525082806104b6906114b5565b9350505080806104c5906114b5565b91505061037e565b508192505050919050565b60006020528060005260406000206000915090508060000154908060010160009054906101000a900473ffffffffffffffffffffffffffffffffffffffff169080600201805461052790611455565b80601f016020809104026020016040519081016040528092919081815260200182805461055390611455565b80156105a05780601f10610575576101008083540402835291602001916105a0565b820191906000526020600020905b81548152906001019060200180831161058357829003601f168201915b5050505050908060030154905084565b60036020528160005260406000206020528060005260406000206000915091509054906101000a900460ff1681565b6105ea838383610986565b505050565b6105f93382610b02565b50565b6002602052816000526040600020818154811061061857600080fd5b9060005260206000209060050201600091509150508060000154908060010160009054906101000a900473ffffffffffffffffffffffffffffffffffffffff16908060020160009054906101000a900473ffffffffffffffffffffffffffffffffffffffff169080600301549080600401805461069490611455565b80601f01602080910402602001604051908101604052809291908181526020018280546106c090611455565b801561070d5780601f106106e25761010080835404028352916020019161070d565b820191906000526020600020905b8154815290600101906020018083116106f057829003601f168201915b5050505050905085565b6001602052816000526040600020818154811061073357600080fd5b90600052602060002001600091509150505481565b6004602052816000526040600020818154811061076457600080fd5b906000526020600020016000915091509054906101000a900473ffffffffffffffffffffffffffffffffffffffff1681565b6000600360003373ffffffffffffffffffffffffffffffffffffffff1673ffffffffffffffffffffffffffffffffffffffff16815260200190815260200160002060008373ffffffffffffffffffffffffffffffffffffffff1673ffffffffffffffffffffffffffffffffffffffff16815260200190815260200160002060006101000a81548160ff02191690831515021790555050565b610839338383610986565b5050565b600460003373ffffffffffffffffffffffffffffffffffffffff1673ffffffffffffffffffffffffffffffffffffffff168152602001908152602001600020819080600181540180825580915050600190039060005260206000200160009091909190916101000a81548173ffffffffffffffffffffffffffffffffffffffff021916908373ffffffffffffffffffffffffffffffffffffffff16021790555050565b6108ea8282610b02565b5050565b6001600360003373ffffffffffffffffffffffffffffffffffffffff1673ffffffffffffffffffffffffffffffffffffffff16815260200190815260200160002060008373ffffffffffffffffffffffffffffffffffffffff1673ffffffffffffffffffffffffffffffffffffffff16815260200190815260200160002060006101000a81548160ff02191690831515021790555050565b600260008473ffffffffffffffffffffffffffffffffffffffff1673ffffffffffffffffffffffffffffffffffffffff1681526020019081526020016000206040518060a0016040528060065481526020018573ffffffffffffffffffffffffffffffffffffffff1681526020018473ffffffffffffffffffffffffffffffffffffffff1681526020014281526020018381525090806001815401808255809150506001900390600052602060002090600502016000909190919091506000820151816000015560208201518160010160006101000a81548173ffffffffffffffffffffffffffffffffffffffff021916908373ffffffffffffffffffffffffffffffffffffffff16021790555060408201518160020160006101000a81548173ffffffffffffffffffffffffffffffffffffffff021916908373ffffffffffffffffffffffffffffffffffffffff160217905550606082015181600301556080820151816004019081610afa91906116a9565b505050505050565b604051806080016040528060055481526020018373ffffffffffffffffffffffffffffffffffffffff1681526020018281526020014281525060008060055481526020019081526020016000206000820151816000015560208201518160010160006101000a81548173ffffffffffffffffffffffffffffffffffffffff021916908373ffffffffffffffffffffffffffffffffffffffff1602179055506040820151816002019081610bb591906116a9565b506060820151816003015590505060056000815480929190610bd6906114b5565b91905055505050565b604051806080016040528060008152602001600073ffffffffffffffffffffffffffffffffffffffff16815260200160608152602001600081525090565b6000604051905090565b600080fd5b600080fd5b6000819050919050565b610c4481610c31565b8114610c4f57600080fd5b50565b600081359050610c6181610c3b565b92915050565b600060208284031215610c7d57610c7c610c27565b5b6000610c8b84828501610c52565b91505092915050565b600081519050919050565b600082825260208201905092915050565b6000819050602082019050919050565b610cc981610c31565b82525050565b600073ffffffffffffffffffffffffffffffffffffffff82169050919050565b6000610cfa82610ccf565b9050919050565b610d0a81610cef565b82525050565b600081519050919050565b600082825260208201905092915050565b60005b83811015610d4a578082015181840152602081019050610d2f565b60008484015250505050565b6000601f19601f8301169050919050565b6000610d7282610d10565b610d7c8185610d1b565b9350610d8c818560208601610d2c565b610d9581610d56565b840191505092915050565b6000608083016000830151610db86000860182610cc0565b506020830151610dcb6020860182610d01565b5060408301518482036040860152610de38282610d67565b9150506060830151610df86060860182610cc0565b508091505092915050565b6000610e0f8383610da0565b905092915050565b6000602082019050919050565b6000610e2f82610c94565b610e398185610c9f565b935083602082028501610e4b85610cb0565b8060005b85811015610e875784840389528151610e688582610e03565b9450610e7383610e17565b925060208a01995050600181019050610e4f565b50829750879550505050505092915050565b60006020820190508181036000830152610eb38184610e24565b905092915050565b610ec481610c31565b82525050565b610ed381610cef565b82525050565b600082825260208201905092915050565b6000610ef582610d10565b610eff8185610ed9565b9350610f0f818560208601610d2c565b610f1881610d56565b840191505092915050565b6000608082019050610f386000830187610ebb565b610f456020830186610eca565b8181036040830152610f578185610eea565b9050610f666060830184610ebb565b95945050505050565b610f7881610cef565b8114610f8357600080fd5b50565b600081359050610f9581610f6f565b92915050565b60008060408385031215610fb257610fb1610c27565b5b6000610fc085828601610f86565b9250506020610fd185828601610f86565b9150509250929050565b60008115159050919050565b610ff081610fdb565b82525050565b600060208201905061100b6000830184610fe7565b92915050565b600080fd5b600080fd5b7f4e487b7100000000000000000000000000000000000000000000000000000000600052604160045260246000fd5b61105382610d56565b810181811067ffffffffffffffff821117156110725761107161101b565b5b80604052505050565b6000611085610c1d565b9050611091828261104a565b919050565b600067ffffffffffffffff8211156110b1576110b061101b565b5b6110ba82610d56565b9050602081019050919050565b82818337600083830152505050565b60006110e96110e484611096565b61107b565b90508281526020810184848401111561110557611104611016565b5b6111108482856110c7565b509392505050565b600082601f83011261112d5761112c611011565b5b813561113d8482602086016110d6565b91505092915050565b60008060006060848603121561115f5761115e610c27565b5b600061116d86828701610f86565b935050602061117e86828701610f86565b925050604084013567ffffffffffffffff81111561119f5761119e610c2c565b5b6111ab86828701611118565b9150509250925092565b6000602082840312156111cb576111ca610c27565b5b600082013567ffffffffffffffff8111156111e9576111e8610c2c565b5b6111f584828501611118565b91505092915050565b6000806040838503121561121557611214610c27565b5b600061122385828601610f86565b925050602061123485828601610c52565b9150509250929050565b600060a0820190506112536000830188610ebb565b6112606020830187610eca565b61126d6040830186610eca565b61127a6060830185610ebb565b818103608083015261128c8184610eea565b90509695505050505050565b60006020820190506112ad6000830184610ebb565b92915050565b60006020820190506112c86000830184610eca565b92915050565b6000602082840312156112e4576112e3610c27565b5b60006112f284828501610f86565b91505092915050565b6000806040838503121561131257611311610c27565b5b600061132085828601610f86565b925050602083013567ffffffffffffffff81111561134157611340610c2c565b5b61134d85828601611118565b9150509250929050565b7f496e76616c696420436f756e7400000000000000000000000000000000000000600082015250565b600061138d600d83610ed9565b915061139882611357565b602082019050919050565b600060208201905081810360008301526113bc81611380565b9050919050565b7f4e487b7100000000000000000000000000000000000000000000000000000000600052601160045260246000fd5b60006113fd82610c31565b915061140883610c31565b92508282039050818111156114205761141f6113c3565b5b92915050565b7f4e487b7100000000000000000000000000000000000000000000000000000000600052602260045260246000fd5b6000600282049050600182168061146d57607f821691505b6020821081036114805761147f611426565b5b50919050565b7f4e487b7100000000000000000000000000000000000000000000000000000000600052603260045260246000fd5b60006114c082610c31565b91507fffffffffffffffffffffffffffffffffffffffffffffffffffffffffffffffff82036114f2576114f16113c3565b5b600182019050919050565b60008190508160005260206000209050919050565b60006020601f8301049050919050565b600082821b905092915050565b60006008830261155f7fffffffffffffffffffffffffffffffffffffffffffffffffffffffffffffffff82611522565b6115698683611522565b95508019841693508086168417925050509392505050565b6000819050919050565b60006115a66115a161159c84610c31565b611581565b610c31565b9050919050565b6000819050919050565b6115c08361158b565b6115d46115cc826115ad565b84845461152f565b825550505050565b600090565b6115e96115dc565b6115f48184846115b7565b505050565b5b818110156116185761160d6000826115e1565b6001810190506115fa565b5050565b601f82111561165d5761162e816114fd565b61163784611512565b81016020851015611646578190505b61165a61165285611512565b8301826115f9565b50505b505050565b600082821c905092915050565b600061168060001984600802611662565b1980831691505092915050565b6000611699838361166f565b9150826002028217905092915050565b6116b282610d10565b67ffffffffffffffff8111156116cb576116ca61101b565b5b6116d58254611455565b6116e082828561161c565b600060209050601f8311600181146117135760008415611701578287015190505b61170b858261168d565b865550611773565b601f198416611721866114fd565b60005b8281101561174957848901518255600182019150602085019450602081019050611724565b868310156117665784890151611762601f89168261166f565b8355505b6001600288020188555050505b50505050505056fea26469706673582212203d3005e905e70fb5b043ccc5c17d3c47da2ac7a58f240cb47ad7cbcec38bdfa764736f6c63430008120033",
					"opcodes": "PUSH1 0x80 PUSH1 0x40 MSTORE CALLVALUE DUP1 ISZERO PUSH2 0x10 JUMPI PUSH1 0x0 DUP1 REVERT JUMPDEST POP PUSH2 0x17B1 DUP1 PUSH2 0x20 PUSH1 0x0 CODECOPY PUSH1 0x0 RETURN INVALID PUSH1 0x80 PUSH1 0x40 MSTORE CALLVALUE DUP1 ISZERO PUSH2 0x10 JUMPI PUSH1 0x0 DUP1 REVERT JUMPDEST POP PUSH1 0x4 CALLDATASIZE LT PUSH2 0xCF JUMPI PUSH1 0x0 CALLDATALOAD PUSH1 0xE0 SHR DUP1 PUSH4 0x6E10BEAF GT PUSH2 0x8C JUMPI DUP1 PUSH4 0xD088DB40 GT PUSH2 0x66 JUMPI DUP1 PUSH4 0xD088DB40 EQ PUSH2 0x24F JUMPI DUP1 PUSH4 0xE06DA1CB EQ PUSH2 0x26B JUMPI DUP1 PUSH4 0xE15A1E33 EQ PUSH2 0x287 JUMPI DUP1 PUSH4 0xFF9913E8 EQ PUSH2 0x2A3 JUMPI PUSH2 0xCF JUMP JUMPDEST DUP1 PUSH4 0x6E10BEAF EQ PUSH2 0x1D3 JUMPI DUP1 PUSH4 0x9139CDA5 EQ PUSH2 0x203 JUMPI DUP1 PUSH4 0xA9ED9CB8 EQ PUSH2 0x233 JUMPI PUSH2 0xCF JUMP JUMPDEST DUP1 PUSH4 0x151A39C6 EQ PUSH2 0xD4 JUMPI DUP1 PUSH4 0x1C32166A EQ PUSH2 0x104 JUMPI DUP1 PUSH4 0x2637588E EQ PUSH2 0x137 JUMPI DUP1 PUSH4 0x41E5ED76 EQ PUSH2 0x167 JUMPI DUP1 PUSH4 0x5AB8F8BC EQ PUSH2 0x183 JUMPI DUP1 PUSH4 0x5DFCAEBF EQ PUSH2 0x19F JUMPI JUMPDEST PUSH1 0x0 DUP1 REVERT JUMPDEST PUSH2 0xEE PUSH1 0x4 DUP1 CALLDATASIZE SUB DUP2 ADD SWAP1 PUSH2 0xE9 SWAP2 SWAP1 PUSH2 0xC67 JUMP JUMPDEST PUSH2 0x2BF JUMP JUMPDEST PUSH1 0x40 MLOAD PUSH2 0xFB SWAP2 SWAP1 PUSH2 0xE99 JUMP JUMPDEST PUSH1 0x40 MLOAD DUP1 SWAP2 SUB SWAP1 RETURN JUMPDEST PUSH2 0x11E PUSH1 0x4 DUP1 CALLDATASIZE SUB DUP2 ADD SWAP1 PUSH2 0x119 SWAP2 SWAP1 PUSH2 0xC67 JUMP JUMPDEST PUSH2 0x4D8 JUMP JUMPDEST PUSH1 0x40 MLOAD PUSH2 0x12E SWAP5 SWAP4 SWAP3 SWAP2 SWAP1 PUSH2 0xF23 JUMP JUMPDEST PUSH1 0x40 MLOAD DUP1 SWAP2 SUB SWAP1 RETURN JUMPDEST PUSH2 0x151 PUSH1 0x4 DUP1 CALLDATASIZE SUB DUP2 ADD SWAP1 PUSH2 0x14C SWAP2 SWAP1 PUSH2 0xF9B JUMP JUMPDEST PUSH2 0x5B0 JUMP JUMPDEST PUSH1 0x40 MLOAD PUSH2 0x15E SWAP2 SWAP1 PUSH2 0xFF6 JUMP JUMPDEST PUSH1 0x40 MLOAD DUP1 SWAP2 SUB SWAP1 RETURN JUMPDEST PUSH2 0x181 PUSH1 0x4 DUP1 CALLDATASIZE SUB DUP2 ADD SWAP1 PUSH2 0x17C SWAP2 SWAP1 PUSH2 0x1146 JUMP JUMPDEST PUSH2 0x5DF JUMP JUMPDEST STOP JUMPDEST PUSH2 0x19D PUSH1 0x4 DUP1 CALLDATASIZE SUB DUP2 ADD SWAP1 PUSH2 0x198 SWAP2 SWAP1 PUSH2 0x11B5 JUMP JUMPDEST PUSH2 0x5EF JUMP JUMPDEST STOP JUMPDEST PUSH2 0x1B9 PUSH1 0x4 DUP1 CALLDATASIZE SUB DUP2 ADD SWAP1 PUSH2 0x1B4 SWAP2 SWAP1 PUSH2 0x11FE JUMP JUMPDEST PUSH2 0x5FC JUMP JUMPDEST PUSH1 0x40 MLOAD PUSH2 0x1CA SWAP6 SWAP5 SWAP4 SWAP3 SWAP2 SWAP1 PUSH2 0x123E JUMP JUMPDEST PUSH1 0x40 MLOAD DUP1 SWAP2 SUB SWAP1 RETURN JUMPDEST PUSH2 0x1ED PUSH1 0x4 DUP1 CALLDATASIZE SUB DUP2 ADD SWAP1 PUSH2 0x1E8 SWAP2 SWAP1 PUSH2 0x11FE JUMP JUMPDEST PUSH2 0x717 JUMP JUMPDEST PUSH1 0x40 MLOAD PUSH2 0x1FA SWAP2 SWAP1 PUSH2 0x1298 JUMP JUMPDEST PUSH1 0x40 MLOAD DUP1 SWAP2 SUB SWAP1 RETURN JUMPDEST PUSH2 0x21D PUSH1 0x4 DUP1 CALLDATASIZE SUB DUP2 ADD SWAP1 PUSH2 0x218 SWAP2 SWAP1 PUSH2 0x11FE JUMP JUMPDEST PUSH2 0x748 JUMP JUMPDEST PUSH1 0x40 MLOAD PUSH2 0x22A SWAP2 SWAP1 PUSH2 0x12B3 JUMP JUMPDEST PUSH1 0x40 MLOAD DUP1 SWAP2 SUB SWAP1 RETURN JUMPDEST PUSH2 0x24D PUSH1 0x4 DUP1 CALLDATASIZE SUB DUP2 ADD SWAP1 PUSH2 0x248 SWAP2 SWAP1 PUSH2 0x12CE JUMP JUMPDEST PUSH2 0x796 JUMP JUMPDEST STOP JUMPDEST PUSH2 0x269 PUSH1 0x4 DUP1 CALLDATASIZE SUB DUP2 ADD SWAP1 PUSH2 0x264 SWAP2 SWAP1 PUSH2 0x12FB JUMP JUMPDEST PUSH2 0x82E JUMP JUMPDEST STOP JUMPDEST PUSH2 0x285 PUSH1 0x4 DUP1 CALLDATASIZE SUB DUP2 ADD SWAP1 PUSH2 0x280 SWAP2 SWAP1 PUSH2 0x12CE JUMP JUMPDEST PUSH2 0x83D JUMP JUMPDEST STOP JUMPDEST PUSH2 0x2A1 PUSH1 0x4 DUP1 CALLDATASIZE SUB DUP2 ADD SWAP1 PUSH2 0x29C SWAP2 SWAP1 PUSH2 0x12FB JUMP JUMPDEST PUSH2 0x8E0 JUMP JUMPDEST STOP JUMPDEST PUSH2 0x2BD PUSH1 0x4 DUP1 CALLDATASIZE SUB DUP2 ADD SWAP1 PUSH2 0x2B8 SWAP2 SWAP1 PUSH2 0x12CE JUMP JUMPDEST PUSH2 0x8EE JUMP JUMPDEST STOP JUMPDEST PUSH1 0x60 PUSH1 0x0 DUP3 GT DUP1 ISZERO PUSH2 0x2D3 JUMPI POP PUSH1 0x5 SLOAD DUP3 GT ISZERO JUMPDEST PUSH2 0x312 JUMPI PUSH1 0x40 MLOAD PUSH32 0x8C379A000000000000000000000000000000000000000000000000000000000 DUP2 MSTORE PUSH1 0x4 ADD PUSH2 0x309 SWAP1 PUSH2 0x13A3 JUMP JUMPDEST PUSH1 0x40 MLOAD DUP1 SWAP2 SUB SWAP1 REVERT JUMPDEST PUSH1 0x0 DUP3 PUSH8 0xFFFFFFFFFFFFFFFF DUP2 GT ISZERO PUSH2 0x32E JUMPI PUSH2 0x32D PUSH2 0x101B JUMP JUMPDEST JUMPDEST PUSH1 0x40 MLOAD SWAP1 DUP1 DUP3 MSTORE DUP1 PUSH1 0x20 MUL PUSH1 0x20 ADD DUP3 ADD PUSH1 0x40 MSTORE DUP1 ISZERO PUSH2 0x367 JUMPI DUP2 PUSH1 0x20 ADD JUMPDEST PUSH2 0x354 PUSH2 0xBDF JUMP JUMPDEST DUP2 MSTORE PUSH1 0x20 ADD SWAP1 PUSH1 0x1 SWAP1 SUB SWAP1 DUP2 PUSH2 0x34C JUMPI SWAP1 POP JUMPDEST POP SWAP1 POP PUSH1 0x0 DUP1 DUP5 PUSH1 0x5 SLOAD PUSH2 0x37B SWAP2 SWAP1 PUSH2 0x13F2 JUMP JUMPDEST SWAP1 POP JUMPDEST PUSH1 0x5 SLOAD DUP2 LT ISZERO PUSH2 0x4CD JUMPI PUSH1 0x0 DUP1 PUSH1 0x0 DUP4 DUP2 MSTORE PUSH1 0x20 ADD SWAP1 DUP2 MSTORE PUSH1 0x20 ADD PUSH1 0x0 KECCAK256 SWAP1 POP PUSH1 0x40 MLOAD DUP1 PUSH1 0x80 ADD PUSH1 0x40 MSTORE DUP1 DUP3 PUSH1 0x0 ADD SLOAD DUP2 MSTORE PUSH1 0x20 ADD DUP3 PUSH1 0x1 ADD PUSH1 0x0 SWAP1 SLOAD SWAP1 PUSH2 0x100 EXP SWAP1 DIV PUSH20 0xFFFFFFFFFFFFFFFFFFFFFFFFFFFFFFFFFFFFFFFF AND PUSH20 0xFFFFFFFFFFFFFFFFFFFFFFFFFFFFFFFFFFFFFFFF AND DUP2 MSTORE PUSH1 0x20 ADD DUP3 PUSH1 0x2 ADD DUP1 SLOAD PUSH2 0x402 SWAP1 PUSH2 0x1455 JUMP JUMPDEST DUP1 PUSH1 0x1F ADD PUSH1 0x20 DUP1 SWAP2 DIV MUL PUSH1 0x20 ADD PUSH1 0x40 MLOAD SWAP1 DUP2 ADD PUSH1 0x40 MSTORE DUP1 SWAP3 SWAP2 SWAP1 DUP2 DUP2 MSTORE PUSH1 0x20 ADD DUP3 DUP1 SLOAD PUSH2 0x42E SWAP1 PUSH2 0x1455 JUMP JUMPDEST DUP1 ISZERO PUSH2 0x47B JUMPI DUP1 PUSH1 0x1F LT PUSH2 0x450 JUMPI PUSH2 0x100 DUP1 DUP4 SLOAD DIV MUL DUP4 MSTORE SWAP2 PUSH1 0x20 ADD SWAP2 PUSH2 0x47B JUMP JUMPDEST DUP3 ADD SWAP2 SWAP1 PUSH1 0x0 MSTORE PUSH1 0x20 PUSH1 0x0 KECCAK256 SWAP1 JUMPDEST DUP2 SLOAD DUP2 MSTORE SWAP1 PUSH1 0x1 ADD SWAP1 PUSH1 0x20 ADD DUP1 DUP4 GT PUSH2 0x45E JUMPI DUP3 SWAP1 SUB PUSH1 0x1F AND DUP3 ADD SWAP2 JUMPDEST POP POP POP POP POP DUP2 MSTORE PUSH1 0x20 ADD DUP3 PUSH1 0x3 ADD SLOAD DUP2 MSTORE POP DUP5 DUP5 DUP2 MLOAD DUP2 LT PUSH2 0x4A0 JUMPI PUSH2 0x49F PUSH2 0x1486 JUMP JUMPDEST JUMPDEST PUSH1 0x20 MUL PUSH1 0x20 ADD ADD DUP2 SWAP1 MSTORE POP DUP3 DUP1 PUSH2 0x4B6 SWAP1 PUSH2 0x14B5 JUMP JUMPDEST SWAP4 POP POP POP DUP1 DUP1 PUSH2 0x4C5 SWAP1 PUSH2 0x14B5 JUMP JUMPDEST SWAP2 POP POP PUSH2 0x37E JUMP JUMPDEST POP DUP2 SWAP3 POP POP POP SWAP2 SWAP1 POP JUMP JUMPDEST PUSH1 0x0 PUSH1 0x20 MSTORE DUP1 PUSH1 0x0 MSTORE PUSH1 0x40 PUSH1 0x0 KECCAK256 PUSH1 0x0 SWAP2 POP SWAP1 POP DUP1 PUSH1 0x0 ADD SLOAD SWAP1 DUP1 PUSH1 0x1 ADD PUSH1 0x0 SWAP1 SLOAD SWAP1 PUSH2 0x100 EXP SWAP1 DIV PUSH20 0xFFFFFFFFFFFFFFFFFFFFFFFFFFFFFFFFFFFFFFFF AND SWAP1 DUP1 PUSH1 0x2 ADD DUP1 SLOAD PUSH2 0x527 SWAP1 PUSH2 0x1455 JUMP JUMPDEST DUP1 PUSH1 0x1F ADD PUSH1 0x20 DUP1 SWAP2 DIV MUL PUSH1 0x20 ADD PUSH1 0x40 MLOAD SWAP1 DUP2 ADD PUSH1 0x40 MSTORE DUP1 SWAP3 SWAP2 SWAP1 DUP2 DUP2 MSTORE PUSH1 0x20 ADD DUP3 DUP1 SLOAD PUSH2 0x553 SWAP1 PUSH2 0x1455 JUMP JUMPDEST DUP1 ISZERO PUSH2 0x5A0 JUMPI DUP1 PUSH1 0x1F LT PUSH2 0x575 JUMPI PUSH2 0x100 DUP1 DUP4 SLOAD DIV MUL DUP4 MSTORE SWAP2 PUSH1 0x20 ADD SWAP2 PUSH2 0x5A0 JUMP JUMPDEST DUP3 ADD SWAP2 SWAP1 PUSH1 0x0 MSTORE PUSH1 0x20 PUSH1 0x0 KECCAK256 SWAP1 JUMPDEST DUP2 SLOAD DUP2 MSTORE SWAP1 PUSH1 0x1 ADD SWAP1 PUSH1 0x20 ADD DUP1 DUP4 GT PUSH2 0x583 JUMPI DUP3 SWAP1 SUB PUSH1 0x1F AND DUP3 ADD SWAP2 JUMPDEST POP POP POP POP POP SWAP1 DUP1 PUSH1 0x3 ADD SLOAD SWAP1 POP DUP5 JUMP JUMPDEST PUSH1 0x3 PUSH1 0x20 MSTORE DUP2 PUSH1 0x0 MSTORE PUSH1 0x40 PUSH1 0x0 KECCAK256 PUSH1 0x20 MSTORE DUP1 PUSH1 0x0 MSTORE PUSH1 0x40 PUSH1 0x0 KECCAK256 PUSH1 0x0 SWAP2 POP SWAP2 POP SWAP1 SLOAD SWAP1 PUSH2 0x100 EXP SWAP1 DIV PUSH1 0xFF AND DUP2 JUMP JUMPDEST PUSH2 0x5EA DUP4 DUP4 DUP4 PUSH2 0x986 JUMP JUMPDEST POP POP POP JUMP JUMPDEST PUSH2 0x5F9 CALLER DUP3 PUSH2 0xB02 JUMP JUMPDEST POP JUMP JUMPDEST PUSH1 0x2 PUSH1 0x20 MSTORE DUP2 PUSH1 0x0 MSTORE PUSH1 0x40 PUSH1 0x0 KECCAK256 DUP2 DUP2 SLOAD DUP2 LT PUSH2 0x618 JUMPI PUSH1 0x0 DUP1 REVERT JUMPDEST SWAP1 PUSH1 0x0 MSTORE PUSH1 0x20 PUSH1 0x0 KECCAK256 SWAP1 PUSH1 0x5 MUL ADD PUSH1 0x0 SWAP2 POP SWAP2 POP POP DUP1 PUSH1 0x0 ADD SLOAD SWAP1 DUP1 PUSH1 0x1 ADD PUSH1 0x0 SWAP1 SLOAD SWAP1 PUSH2 0x100 EXP SWAP1 DIV PUSH20 0xFFFFFFFFFFFFFFFFFFFFFFFFFFFFFFFFFFFFFFFF AND SWAP1 DUP1 PUSH1 0x2 ADD PUSH1 0x0 SWAP1 SLOAD SWAP1 PUSH2 0x100 EXP SWAP1 DIV PUSH20 0xFFFFFFFFFFFFFFFFFFFFFFFFFFFFFFFFFFFFFFFF AND SWAP1 DUP1 PUSH1 0x3 ADD SLOAD SWAP1 DUP1 PUSH1 0x4 ADD DUP1 SLOAD PUSH2 0x694 SWAP1 PUSH2 0x1455 JUMP JUMPDEST DUP1 PUSH1 0x1F ADD PUSH1 0x20 DUP1 SWAP2 DIV MUL PUSH1 0x20 ADD PUSH1 0x40 MLOAD SWAP1 DUP2 ADD PUSH1 0x40 MSTORE DUP1 SWAP3 SWAP2 SWAP1 DUP2 DUP2 MSTORE PUSH1 0x20 ADD DUP3 DUP1 SLOAD PUSH2 0x6C0 SWAP1 PUSH2 0x1455 JUMP JUMPDEST DUP1 ISZERO PUSH2 0x70D JUMPI DUP1 PUSH1 0x1F LT PUSH2 0x6E2 JUMPI PUSH2 0x100 DUP1 DUP4 SLOAD DIV MUL DUP4 MSTORE SWAP2 PUSH1 0x20 ADD SWAP2 PUSH2 0x70D JUMP JUMPDEST DUP3 ADD SWAP2 SWAP1 PUSH1 0x0 MSTORE PUSH1 0x20 PUSH1 0x0 KECCAK256 SWAP1 JUMPDEST DUP2 SLOAD DUP2 MSTORE SWAP1 PUSH1 0x1 ADD SWAP1 PUSH1 0x20 ADD DUP1 DUP4 GT PUSH2 0x6F0 JUMPI DUP3 SWAP1 SUB PUSH1 0x1F AND DUP3 ADD SWAP2 JUMPDEST POP POP POP POP POP SWAP1 POP DUP6 JUMP JUMPDEST PUSH1 0x1 PUSH1 0x20 MSTORE DUP2 PUSH1 0x0 MSTORE PUSH1 0x40 PUSH1 0x0 KECCAK256 DUP2 DUP2 SLOAD DUP2 LT PUSH2 0x733 JUMPI PUSH1 0x0 DUP1 REVERT JUMPDEST SWAP1 PUSH1 0x0 MSTORE PUSH1 0x20 PUSH1 0x0 KECCAK256 ADD PUSH1 0x0 SWAP2 POP SWAP2 POP POP SLOAD DUP2 JUMP JUMPDEST PUSH1 0x4 PUSH1 0x20 MSTORE DUP2 PUSH1 0x0 MSTORE PUSH1 0x40 PUSH1 0x0 KECCAK256 DUP2 DUP2 SLOAD DUP2 LT PUSH2 0x764 JUMPI PUSH1 0x0 DUP1 REVERT JUMPDEST SWAP1 PUSH1 0x0 MSTORE PUSH1 0x20 PUSH1 0x0 KECCAK256 ADD PUSH1 0x0 SWAP2 POP SWAP2 POP SWAP1 SLOAD SWAP1 PUSH2 0x100 EXP SWAP1 DIV PUSH20 0xFFFFFFFFFFFFFFFFFFFFFFFFFFFFFFFFFFFFFFFF AND DUP2 JUMP JUMPDEST PUSH1 0x0 PUSH1 0x3 PUSH1 0x0 CALLER PUSH20 0xFFFFFFFFFFFFFFFFFFFFFFFFFFFFFFFFFFFFFFFF AND PUSH20 0xFFFFFFFFFFFFFFFFFFFFFFFFFFFFFFFFFFFFFFFF AND DUP2 MSTORE PUSH1 0x20 ADD SWAP1 DUP2 MSTORE PUSH1 0x20 ADD PUSH1 0x0 KECCAK256 PUSH1 0x0 DUP4 PUSH20 0xFFFFFFFFFFFFFFFFFFFFFFFFFFFFFFFFFFFFFFFF AND PUSH20 0xFFFFFFFFFFFFFFFFFFFFFFFFFFFFFFFFFFFFFFFF AND DUP2 MSTORE PUSH1 0x20 ADD SWAP1 DUP2 MSTORE PUSH1 0x20 ADD PUSH1 0x0 KECCAK256 PUSH1 0x0 PUSH2 0x100 EXP DUP2 SLOAD DUP2 PUSH1 0xFF MUL NOT AND SWAP1 DUP4 ISZERO ISZERO MUL OR SWAP1 SSTORE POP POP JUMP JUMPDEST PUSH2 0x839 CALLER DUP4 DUP4 PUSH2 0x986 JUMP JUMPDEST POP POP JUMP JUMPDEST PUSH1 0x4 PUSH1 0x0 CALLER PUSH20 0xFFFFFFFFFFFFFFFFFFFFFFFFFFFFFFFFFFFFFFFF AND PUSH20 0xFFFFFFFFFFFFFFFFFFFFFFFFFFFFFFFFFFFFFFFF AND DUP2 MSTORE PUSH1 0x20 ADD SWAP1 DUP2 MSTORE PUSH1 0x20 ADD PUSH1 0x0 KECCAK256 DUP2 SWAP1 DUP1 PUSH1 0x1 DUP2 SLOAD ADD DUP1 DUP3 SSTORE DUP1 SWAP2 POP POP PUSH1 0x1 SWAP1 SUB SWAP1 PUSH1 0x0 MSTORE PUSH1 0x20 PUSH1 0x0 KECCAK256 ADD PUSH1 0x0 SWAP1 SWAP2 SWAP1 SWAP2 SWAP1 SWAP2 PUSH2 0x100 EXP DUP2 SLOAD DUP2 PUSH20 0xFFFFFFFFFFFFFFFFFFFFFFFFFFFFFFFFFFFFFFFF MUL NOT AND SWAP1 DUP4 PUSH20 0xFFFFFFFFFFFFFFFFFFFFFFFFFFFFFFFFFFFFFFFF AND MUL OR SWAP1 SSTORE POP POP JUMP JUMPDEST PUSH2 0x8EA DUP3 DUP3 PUSH2 0xB02 JUMP JUMPDEST POP POP JUMP JUMPDEST PUSH1 0x1 PUSH1 0x3 PUSH1 0x0 CALLER PUSH20 0xFFFFFFFFFFFFFFFFFFFFFFFFFFFFFFFFFFFFFFFF AND PUSH20 0xFFFFFFFFFFFFFFFFFFFFFFFFFFFFFFFFFFFFFFFF AND DUP2 MSTORE PUSH1 0x20 ADD SWAP1 DUP2 MSTORE PUSH1 0x20 ADD PUSH1 0x0 KECCAK256 PUSH1 0x0 DUP4 PUSH20 0xFFFFFFFFFFFFFFFFFFFFFFFFFFFFFFFFFFFFFFFF AND PUSH20 0xFFFFFFFFFFFFFFFFFFFFFFFFFFFFFFFFFFFFFFFF AND DUP2 MSTORE PUSH1 0x20 ADD SWAP1 DUP2 MSTORE PUSH1 0x20 ADD PUSH1 0x0 KECCAK256 PUSH1 0x0 PUSH2 0x100 EXP DUP2 SLOAD DUP2 PUSH1 0xFF MUL NOT AND SWAP1 DUP4 ISZERO ISZERO MUL OR SWAP1 SSTORE POP POP JUMP JUMPDEST PUSH1 0x2 PUSH1 0x0 DUP5 PUSH20 0xFFFFFFFFFFFFFFFFFFFFFFFFFFFFFFFFFFFFFFFF AND PUSH20 0xFFFFFFFFFFFFFFFFFFFFFFFFFFFFFFFFFFFFFFFF AND DUP2 MSTORE PUSH1 0x20 ADD SWAP1 DUP2 MSTORE PUSH1 0x20 ADD PUSH1 0x0 KECCAK256 PUSH1 0x40 MLOAD DUP1 PUSH1 0xA0 ADD PUSH1 0x40 MSTORE DUP1 PUSH1 0x6 SLOAD DUP2 MSTORE PUSH1 0x20 ADD DUP6 PUSH20 0xFFFFFFFFFFFFFFFFFFFFFFFFFFFFFFFFFFFFFFFF AND DUP2 MSTORE PUSH1 0x20 ADD DUP5 PUSH20 0xFFFFFFFFFFFFFFFFFFFFFFFFFFFFFFFFFFFFFFFF AND DUP2 MSTORE PUSH1 0x20 ADD TIMESTAMP DUP2 MSTORE PUSH1 0x20 ADD DUP4 DUP2 MSTORE POP SWAP1 DUP1 PUSH1 0x1 DUP2 SLOAD ADD DUP1 DUP3 SSTORE DUP1 SWAP2 POP POP PUSH1 0x1 SWAP1 SUB SWAP1 PUSH1 0x0 MSTORE PUSH1 0x20 PUSH1 0x0 KECCAK256 SWAP1 PUSH1 0x5 MUL ADD PUSH1 0x0 SWAP1 SWAP2 SWAP1 SWAP2 SWAP1 SWAP2 POP PUSH1 0x0 DUP3 ADD MLOAD DUP2 PUSH1 0x0 ADD SSTORE PUSH1 0x20 DUP3 ADD MLOAD DUP2 PUSH1 0x1 ADD PUSH1 0x0 PUSH2 0x100 EXP DUP2 SLOAD DUP2 PUSH20 0xFFFFFFFFFFFFFFFFFFFFFFFFFFFFFFFFFFFFFFFF MUL NOT AND SWAP1 DUP4 PUSH20 0xFFFFFFFFFFFFFFFFFFFFFFFFFFFFFFFFFFFFFFFF AND MUL OR SWAP1 SSTORE POP PUSH1 0x40 DUP3 ADD MLOAD DUP2 PUSH1 0x2 ADD PUSH1 0x0 PUSH2 0x100 EXP DUP2 SLOAD DUP2 PUSH20 0xFFFFFFFFFFFFFFFFFFFFFFFFFFFFFFFFFFFFFFFF MUL NOT AND SWAP1 DUP4 PUSH20 0xFFFFFFFFFFFFFFFFFFFFFFFFFFFFFFFFFFFFFFFF AND MUL OR SWAP1 SSTORE POP PUSH1 0x60 DUP3 ADD MLOAD DUP2 PUSH1 0x3 ADD SSTORE PUSH1 0x80 DUP3 ADD MLOAD DUP2 PUSH1 0x4 ADD SWAP1 DUP2 PUSH2 0xAFA SWAP2 SWAP1 PUSH2 0x16A9 JUMP JUMPDEST POP POP POP POP POP POP JUMP JUMPDEST PUSH1 0x40 MLOAD DUP1 PUSH1 0x80 ADD PUSH1 0x40 MSTORE DUP1 PUSH1 0x5 SLOAD DUP2 MSTORE PUSH1 0x20 ADD DUP4 PUSH20 0xFFFFFFFFFFFFFFFFFFFFFFFFFFFFFFFFFFFFFFFF AND DUP2 MSTORE PUSH1 0x20 ADD DUP3 DUP2 MSTORE PUSH1 0x20 ADD TIMESTAMP DUP2 MSTORE POP PUSH1 0x0 DUP1 PUSH1 0x5 SLOAD DUP2 MSTORE PUSH1 0x20 ADD SWAP1 DUP2 MSTORE PUSH1 0x20 ADD PUSH1 0x0 KECCAK256 PUSH1 0x0 DUP3 ADD MLOAD DUP2 PUSH1 0x0 ADD SSTORE PUSH1 0x20 DUP3 ADD MLOAD DUP2 PUSH1 0x1 ADD PUSH1 0x0 PUSH2 0x100 EXP DUP2 SLOAD DUP2 PUSH20 0xFFFFFFFFFFFFFFFFFFFFFFFFFFFFFFFFFFFFFFFF MUL NOT AND SWAP1 DUP4 PUSH20 0xFFFFFFFFFFFFFFFFFFFFFFFFFFFFFFFFFFFFFFFF AND MUL OR SWAP1 SSTORE POP PUSH1 0x40 DUP3 ADD MLOAD DUP2 PUSH1 0x2 ADD SWAP1 DUP2 PUSH2 0xBB5 SWAP2 SWAP1 PUSH2 0x16A9 JUMP JUMPDEST POP PUSH1 0x60 DUP3 ADD MLOAD DUP2 PUSH1 0x3 ADD SSTORE SWAP1 POP POP PUSH1 0x5 PUSH1 0x0 DUP2 SLOAD DUP1 SWAP3 SWAP2 SWAP1 PUSH2 0xBD6 SWAP1 PUSH2 0x14B5 JUMP JUMPDEST SWAP2 SWAP1 POP SSTORE POP POP POP JUMP JUMPDEST PUSH1 0x40 MLOAD DUP1 PUSH1 0x80 ADD PUSH1 0x40 MSTORE DUP1 PUSH1 0x0 DUP2 MSTORE PUSH1 0x20 ADD PUSH1 0x0 PUSH20 0xFFFFFFFFFFFFFFFFFFFFFFFFFFFFFFFFFFFFFFFF AND DUP2 MSTORE PUSH1 0x20 ADD PUSH1 0x60 DUP2 MSTORE PUSH1 0x20 ADD PUSH1 0x0 DUP2 MSTORE POP SWAP1 JUMP JUMPDEST PUSH1 0x0 PUSH1 0x40 MLOAD SWAP1 POP SWAP1 JUMP JUMPDEST PUSH1 0x0 DUP1 REVERT JUMPDEST PUSH1 0x0 DUP1 REVERT JUMPDEST PUSH1 0x0 DUP2 SWAP1 POP SWAP2 SWAP1 POP JUMP JUMPDEST PUSH2 0xC44 DUP2 PUSH2 0xC31 JUMP JUMPDEST DUP2 EQ PUSH2 0xC4F JUMPI PUSH1 0x0 DUP1 REVERT JUMPDEST POP JUMP JUMPDEST PUSH1 0x0 DUP2 CALLDATALOAD SWAP1 POP PUSH2 0xC61 DUP2 PUSH2 0xC3B JUMP JUMPDEST SWAP3 SWAP2 POP POP JUMP JUMPDEST PUSH1 0x0 PUSH1 0x20 DUP3 DUP5 SUB SLT ISZERO PUSH2 0xC7D JUMPI PUSH2 0xC7C PUSH2 0xC27 JUMP JUMPDEST JUMPDEST PUSH1 0x0 PUSH2 0xC8B DUP5 DUP3 DUP6 ADD PUSH2 0xC52 JUMP JUMPDEST SWAP2 POP POP SWAP3 SWAP2 POP POP JUMP JUMPDEST PUSH1 0x0 DUP2 MLOAD SWAP1 POP SWAP2 SWAP1 POP JUMP JUMPDEST PUSH1 0x0 DUP3 DUP3 MSTORE PUSH1 0x20 DUP3 ADD SWAP1 POP SWAP3 SWAP2 POP POP JUMP JUMPDEST PUSH1 0x0 DUP2 SWAP1 POP PUSH1 0x20 DUP3 ADD SWAP1 POP SWAP2 SWAP1 POP JUMP JUMPDEST PUSH2 0xCC9 DUP2 PUSH2 0xC31 JUMP JUMPDEST DUP3 MSTORE POP POP JUMP JUMPDEST PUSH1 0x0 PUSH20 0xFFFFFFFFFFFFFFFFFFFFFFFFFFFFFFFFFFFFFFFF DUP3 AND SWAP1 POP SWAP2 SWAP1 POP JUMP JUMPDEST PUSH1 0x0 PUSH2 0xCFA DUP3 PUSH2 0xCCF JUMP JUMPDEST SWAP1 POP SWAP2 SWAP1 POP JUMP JUMPDEST PUSH2 0xD0A DUP2 PUSH2 0xCEF JUMP JUMPDEST DUP3 MSTORE POP POP JUMP JUMPDEST PUSH1 0x0 DUP2 MLOAD SWAP1 POP SWAP2 SWAP1 POP JUMP JUMPDEST PUSH1 0x0 DUP3 DUP3 MSTORE PUSH1 0x20 DUP3 ADD SWAP1 POP SWAP3 SWAP2 POP POP JUMP JUMPDEST PUSH1 0x0 JUMPDEST DUP4 DUP2 LT ISZERO PUSH2 0xD4A JUMPI DUP1 DUP3 ADD MLOAD DUP2 DUP5 ADD MSTORE PUSH1 0x20 DUP2 ADD SWAP1 POP PUSH2 0xD2F JUMP JUMPDEST PUSH1 0x0 DUP5 DUP5 ADD MSTORE POP POP POP POP JUMP JUMPDEST PUSH1 0x0 PUSH1 0x1F NOT PUSH1 0x1F DUP4 ADD AND SWAP1 POP SWAP2 SWAP1 POP JUMP JUMPDEST PUSH1 0x0 PUSH2 0xD72 DUP3 PUSH2 0xD10 JUMP JUMPDEST PUSH2 0xD7C DUP2 DUP6 PUSH2 0xD1B JUMP JUMPDEST SWAP4 POP PUSH2 0xD8C DUP2 DUP6 PUSH1 0x20 DUP7 ADD PUSH2 0xD2C JUMP JUMPDEST PUSH2 0xD95 DUP2 PUSH2 0xD56 JUMP JUMPDEST DUP5 ADD SWAP2 POP POP SWAP3 SWAP2 POP POP JUMP JUMPDEST PUSH1 0x0 PUSH1 0x80 DUP4 ADD PUSH1 0x0 DUP4 ADD MLOAD PUSH2 0xDB8 PUSH1 0x0 DUP7 ADD DUP3 PUSH2 0xCC0 JUMP JUMPDEST POP PUSH1 0x20 DUP4 ADD MLOAD PUSH2 0xDCB PUSH1 0x20 DUP7 ADD DUP3 PUSH2 0xD01 JUMP JUMPDEST POP PUSH1 0x40 DUP4 ADD MLOAD DUP5 DUP3 SUB PUSH1 0x40 DUP7 ADD MSTORE PUSH2 0xDE3 DUP3 DUP3 PUSH2 0xD67 JUMP JUMPDEST SWAP2 POP POP PUSH1 0x60 DUP4 ADD MLOAD PUSH2 0xDF8 PUSH1 0x60 DUP7 ADD DUP3 PUSH2 0xCC0 JUMP JUMPDEST POP DUP1 SWAP2 POP POP SWAP3 SWAP2 POP POP JUMP JUMPDEST PUSH1 0x0 PUSH2 0xE0F DUP4 DUP4 PUSH2 0xDA0 JUMP JUMPDEST SWAP1 POP SWAP3 SWAP2 POP POP JUMP JUMPDEST PUSH1 0x0 PUSH1 0x20 DUP3 ADD SWAP1 POP SWAP2 SWAP1 POP JUMP JUMPDEST PUSH1 0x0 PUSH2 0xE2F DUP3 PUSH2 0xC94 JUMP JUMPDEST PUSH2 0xE39 DUP2 DUP6 PUSH2 0xC9F JUMP JUMPDEST SWAP4 POP DUP4 PUSH1 0x20 DUP3 MUL DUP6 ADD PUSH2 0xE4B DUP6 PUSH2 0xCB0 JUMP JUMPDEST DUP1 PUSH1 0x0 JUMPDEST DUP6 DUP2 LT ISZERO PUSH2 0xE87 JUMPI DUP5 DUP5 SUB DUP10 MSTORE DUP2 MLOAD PUSH2 0xE68 DUP6 DUP3 PUSH2 0xE03 JUMP JUMPDEST SWAP5 POP PUSH2 0xE73 DUP4 PUSH2 0xE17 JUMP JUMPDEST SWAP3 POP PUSH1 0x20 DUP11 ADD SWAP10 POP POP PUSH1 0x1 DUP2 ADD SWAP1 POP PUSH2 0xE4F JUMP JUMPDEST POP DUP3 SWAP8 POP DUP8 SWAP6 POP POP POP POP POP POP SWAP3 SWAP2 POP POP JUMP JUMPDEST PUSH1 0x0 PUSH1 0x20 DUP3 ADD SWAP1 POP DUP2 DUP2 SUB PUSH1 0x0 DUP4 ADD MSTORE PUSH2 0xEB3 DUP2 DUP5 PUSH2 0xE24 JUMP JUMPDEST SWAP1 POP SWAP3 SWAP2 POP POP JUMP JUMPDEST PUSH2 0xEC4 DUP2 PUSH2 0xC31 JUMP JUMPDEST DUP3 MSTORE POP POP JUMP JUMPDEST PUSH2 0xED3 DUP2 PUSH2 0xCEF JUMP JUMPDEST DUP3 MSTORE POP POP JUMP JUMPDEST PUSH1 0x0 DUP3 DUP3 MSTORE PUSH1 0x20 DUP3 ADD SWAP1 POP SWAP3 SWAP2 POP POP JUMP JUMPDEST PUSH1 0x0 PUSH2 0xEF5 DUP3 PUSH2 0xD10 JUMP JUMPDEST PUSH2 0xEFF DUP2 DUP6 PUSH2 0xED9 JUMP JUMPDEST SWAP4 POP PUSH2 0xF0F DUP2 DUP6 PUSH1 0x20 DUP7 ADD PUSH2 0xD2C JUMP JUMPDEST PUSH2 0xF18 DUP2 PUSH2 0xD56 JUMP JUMPDEST DUP5 ADD SWAP2 POP POP SWAP3 SWAP2 POP POP JUMP JUMPDEST PUSH1 0x0 PUSH1 0x80 DUP3 ADD SWAP1 POP PUSH2 0xF38 PUSH1 0x0 DUP4 ADD DUP8 PUSH2 0xEBB JUMP JUMPDEST PUSH2 0xF45 PUSH1 0x20 DUP4 ADD DUP7 PUSH2 0xECA JUMP JUMPDEST DUP2 DUP2 SUB PUSH1 0x40 DUP4 ADD MSTORE PUSH2 0xF57 DUP2 DUP6 PUSH2 0xEEA JUMP JUMPDEST SWAP1 POP PUSH2 0xF66 PUSH1 0x60 DUP4 ADD DUP5 PUSH2 0xEBB JUMP JUMPDEST SWAP6 SWAP5 POP POP POP POP POP JUMP JUMPDEST PUSH2 0xF78 DUP2 PUSH2 0xCEF JUMP JUMPDEST DUP2 EQ PUSH2 0xF83 JUMPI PUSH1 0x0 DUP1 REVERT JUMPDEST POP JUMP JUMPDEST PUSH1 0x0 DUP2 CALLDATALOAD SWAP1 POP PUSH2 0xF95 DUP2 PUSH2 0xF6F JUMP JUMPDEST SWAP3 SWAP2 POP POP JUMP JUMPDEST PUSH1 0x0 DUP1 PUSH1 0x40 DUP4 DUP6 SUB SLT ISZERO PUSH2 0xFB2 JUMPI PUSH2 0xFB1 PUSH2 0xC27 JUMP JUMPDEST JUMPDEST PUSH1 0x0 PUSH2 0xFC0 DUP6 DUP3 DUP7 ADD PUSH2 0xF86 JUMP JUMPDEST SWAP3 POP POP PUSH1 0x20 PUSH2 0xFD1 DUP6 DUP3 DUP7 ADD PUSH2 0xF86 JUMP JUMPDEST SWAP2 POP POP SWAP3 POP SWAP3 SWAP1 POP JUMP JUMPDEST PUSH1 0x0 DUP2 ISZERO ISZERO SWAP1 POP SWAP2 SWAP1 POP JUMP JUMPDEST PUSH2 0xFF0 DUP2 PUSH2 0xFDB JUMP JUMPDEST DUP3 MSTORE POP POP JUMP JUMPDEST PUSH1 0x0 PUSH1 0x20 DUP3 ADD SWAP1 POP PUSH2 0x100B PUSH1 0x0 DUP4 ADD DUP5 PUSH2 0xFE7 JUMP JUMPDEST SWAP3 SWAP2 POP POP JUMP JUMPDEST PUSH1 0x0 DUP1 REVERT JUMPDEST PUSH1 0x0 DUP1 REVERT JUMPDEST PUSH32 0x4E487B7100000000000000000000000000000000000000000000000000000000 PUSH1 0x0 MSTORE PUSH1 0x41 PUSH1 0x4 MSTORE PUSH1 0x24 PUSH1 0x0 REVERT JUMPDEST PUSH2 0x1053 DUP3 PUSH2 0xD56 JUMP JUMPDEST DUP2 ADD DUP2 DUP2 LT PUSH8 0xFFFFFFFFFFFFFFFF DUP3 GT OR ISZERO PUSH2 0x1072 JUMPI PUSH2 0x1071 PUSH2 0x101B JUMP JUMPDEST JUMPDEST DUP1 PUSH1 0x40 MSTORE POP POP POP JUMP JUMPDEST PUSH1 0x0 PUSH2 0x1085 PUSH2 0xC1D JUMP JUMPDEST SWAP1 POP PUSH2 0x1091 DUP3 DUP3 PUSH2 0x104A JUMP JUMPDEST SWAP2 SWAP1 POP JUMP JUMPDEST PUSH1 0x0 PUSH8 0xFFFFFFFFFFFFFFFF DUP3 GT ISZERO PUSH2 0x10B1 JUMPI PUSH2 0x10B0 PUSH2 0x101B JUMP JUMPDEST JUMPDEST PUSH2 0x10BA DUP3 PUSH2 0xD56 JUMP JUMPDEST SWAP1 POP PUSH1 0x20 DUP2 ADD SWAP1 POP SWAP2 SWAP1 POP JUMP JUMPDEST DUP3 DUP2 DUP4 CALLDATACOPY PUSH1 0x0 DUP4 DUP4 ADD MSTORE POP POP POP JUMP JUMPDEST PUSH1 0x0 PUSH2 0x10E9 PUSH2 0x10E4 DUP5 PUSH2 0x1096 JUMP JUMPDEST PUSH2 0x107B JUMP JUMPDEST SWAP1 POP DUP3 DUP2 MSTORE PUSH1 0x20 DUP2 ADD DUP5 DUP5 DUP5 ADD GT ISZERO PUSH2 0x1105 JUMPI PUSH2 0x1104 PUSH2 0x1016 JUMP JUMPDEST JUMPDEST PUSH2 0x1110 DUP5 DUP3 DUP6 PUSH2 0x10C7 JUMP JUMPDEST POP SWAP4 SWAP3 POP POP POP JUMP JUMPDEST PUSH1 0x0 DUP3 PUSH1 0x1F DUP4 ADD SLT PUSH2 0x112D JUMPI PUSH2 0x112C PUSH2 0x1011 JUMP JUMPDEST JUMPDEST DUP2 CALLDATALOAD PUSH2 0x113D DUP5 DUP3 PUSH1 0x20 DUP7 ADD PUSH2 0x10D6 JUMP JUMPDEST SWAP2 POP POP SWAP3 SWAP2 POP POP JUMP JUMPDEST PUSH1 0x0 DUP1 PUSH1 0x0 PUSH1 0x60 DUP5 DUP7 SUB SLT ISZERO PUSH2 0x115F JUMPI PUSH2 0x115E PUSH2 0xC27 JUMP JUMPDEST JUMPDEST PUSH1 0x0 PUSH2 0x116D DUP7 DUP3 DUP8 ADD PUSH2 0xF86 JUMP JUMPDEST SWAP4 POP POP PUSH1 0x20 PUSH2 0x117E DUP7 DUP3 DUP8 ADD PUSH2 0xF86 JUMP JUMPDEST SWAP3 POP POP PUSH1 0x40 DUP5 ADD CALLDATALOAD PUSH8 0xFFFFFFFFFFFFFFFF DUP2 GT ISZERO PUSH2 0x119F JUMPI PUSH2 0x119E PUSH2 0xC2C JUMP JUMPDEST JUMPDEST PUSH2 0x11AB DUP7 DUP3 DUP8 ADD PUSH2 0x1118 JUMP JUMPDEST SWAP2 POP POP SWAP3 POP SWAP3 POP SWAP3 JUMP JUMPDEST PUSH1 0x0 PUSH1 0x20 DUP3 DUP5 SUB SLT ISZERO PUSH2 0x11CB JUMPI PUSH2 0x11CA PUSH2 0xC27 JUMP JUMPDEST JUMPDEST PUSH1 0x0 DUP3 ADD CALLDATALOAD PUSH8 0xFFFFFFFFFFFFFFFF DUP2 GT ISZERO PUSH2 0x11E9 JUMPI PUSH2 0x11E8 PUSH2 0xC2C JUMP JUMPDEST JUMPDEST PUSH2 0x11F5 DUP5 DUP3 DUP6 ADD PUSH2 0x1118 JUMP JUMPDEST SWAP2 POP POP SWAP3 SWAP2 POP POP JUMP JUMPDEST PUSH1 0x0 DUP1 PUSH1 0x40 DUP4 DUP6 SUB SLT ISZERO PUSH2 0x1215 JUMPI PUSH2 0x1214 PUSH2 0xC27 JUMP JUMPDEST JUMPDEST PUSH1 0x0 PUSH2 0x1223 DUP6 DUP3 DUP7 ADD PUSH2 0xF86 JUMP JUMPDEST SWAP3 POP POP PUSH1 0x20 PUSH2 0x1234 DUP6 DUP3 DUP7 ADD PUSH2 0xC52 JUMP JUMPDEST SWAP2 POP POP SWAP3 POP SWAP3 SWAP1 POP JUMP JUMPDEST PUSH1 0x0 PUSH1 0xA0 DUP3 ADD SWAP1 POP PUSH2 0x1253 PUSH1 0x0 DUP4 ADD DUP9 PUSH2 0xEBB JUMP JUMPDEST PUSH2 0x1260 PUSH1 0x20 DUP4 ADD DUP8 PUSH2 0xECA JUMP JUMPDEST PUSH2 0x126D PUSH1 0x40 DUP4 ADD DUP7 PUSH2 0xECA JUMP JUMPDEST PUSH2 0x127A PUSH1 0x60 DUP4 ADD DUP6 PUSH2 0xEBB JUMP JUMPDEST DUP2 DUP2 SUB PUSH1 0x80 DUP4 ADD MSTORE PUSH2 0x128C DUP2 DUP5 PUSH2 0xEEA JUMP JUMPDEST SWAP1 POP SWAP7 SWAP6 POP POP POP POP POP POP JUMP JUMPDEST PUSH1 0x0 PUSH1 0x20 DUP3 ADD SWAP1 POP PUSH2 0x12AD PUSH1 0x0 DUP4 ADD DUP5 PUSH2 0xEBB JUMP JUMPDEST SWAP3 SWAP2 POP POP JUMP JUMPDEST PUSH1 0x0 PUSH1 0x20 DUP3 ADD SWAP1 POP PUSH2 0x12C8 PUSH1 0x0 DUP4 ADD DUP5 PUSH2 0xECA JUMP JUMPDEST SWAP3 SWAP2 POP POP JUMP JUMPDEST PUSH1 0x0 PUSH1 0x20 DUP3 DUP5 SUB SLT ISZERO PUSH2 0x12E4 JUMPI PUSH2 0x12E3 PUSH2 0xC27 JUMP JUMPDEST JUMPDEST PUSH1 0x0 PUSH2 0x12F2 DUP5 DUP3 DUP6 ADD PUSH2 0xF86 JUMP JUMPDEST SWAP2 POP POP SWAP3 SWAP2 POP POP JUMP JUMPDEST PUSH1 0x0 DUP1 PUSH1 0x40 DUP4 DUP6 SUB SLT ISZERO PUSH2 0x1312 JUMPI PUSH2 0x1311 PUSH2 0xC27 JUMP JUMPDEST JUMPDEST PUSH1 0x0 PUSH2 0x1320 DUP6 DUP3 DUP7 ADD PUSH2 0xF86 JUMP JUMPDEST SWAP3 POP POP PUSH1 0x20 DUP4 ADD CALLDATALOAD PUSH8 0xFFFFFFFFFFFFFFFF DUP2 GT ISZERO PUSH2 0x1341 JUMPI PUSH2 0x1340 PUSH2 0xC2C JUMP JUMPDEST JUMPDEST PUSH2 0x134D DUP6 DUP3 DUP7 ADD PUSH2 0x1118 JUMP JUMPDEST SWAP2 POP POP SWAP3 POP SWAP3 SWAP1 POP JUMP JUMPDEST PUSH32 0x496E76616C696420436F756E7400000000000000000000000000000000000000 PUSH1 0x0 DUP3 ADD MSTORE POP JUMP JUMPDEST PUSH1 0x0 PUSH2 0x138D PUSH1 0xD DUP4 PUSH2 0xED9 JUMP JUMPDEST SWAP2 POP PUSH2 0x1398 DUP3 PUSH2 0x1357 JUMP JUMPDEST PUSH1 0x20 DUP3 ADD SWAP1 POP SWAP2 SWAP1 POP JUMP JUMPDEST PUSH1 0x0 PUSH1 0x20 DUP3 ADD SWAP1 POP DUP2 DUP2 SUB PUSH1 0x0 DUP4 ADD MSTORE PUSH2 0x13BC DUP2 PUSH2 0x1380 JUMP JUMPDEST SWAP1 POP SWAP2 SWAP1 POP JUMP JUMPDEST PUSH32 0x4E487B7100000000000000000000000000000000000000000000000000000000 PUSH1 0x0 MSTORE PUSH1 0x11 PUSH1 0x4 MSTORE PUSH1 0x24 PUSH1 0x0 REVERT JUMPDEST PUSH1 0x0 PUSH2 0x13FD DUP3 PUSH2 0xC31 JUMP JUMPDEST SWAP2 POP PUSH2 0x1408 DUP4 PUSH2 0xC31 JUMP JUMPDEST SWAP3 POP DUP3 DUP3 SUB SWAP1 POP DUP2 DUP2 GT ISZERO PUSH2 0x1420 JUMPI PUSH2 0x141F PUSH2 0x13C3 JUMP JUMPDEST JUMPDEST SWAP3 SWAP2 POP POP JUMP JUMPDEST PUSH32 0x4E487B7100000000000000000000000000000000000000000000000000000000 PUSH1 0x0 MSTORE PUSH1 0x22 PUSH1 0x4 MSTORE PUSH1 0x24 PUSH1 0x0 REVERT JUMPDEST PUSH1 0x0 PUSH1 0x2 DUP3 DIV SWAP1 POP PUSH1 0x1 DUP3 AND DUP1 PUSH2 0x146D JUMPI PUSH1 0x7F DUP3 AND SWAP2 POP JUMPDEST PUSH1 0x20 DUP3 LT DUP2 SUB PUSH2 0x1480 JUMPI PUSH2 0x147F PUSH2 0x1426 JUMP JUMPDEST JUMPDEST POP SWAP2 SWAP1 POP JUMP JUMPDEST PUSH32 0x4E487B7100000000000000000000000000000000000000000000000000000000 PUSH1 0x0 MSTORE PUSH1 0x32 PUSH1 0x4 MSTORE PUSH1 0x24 PUSH1 0x0 REVERT JUMPDEST PUSH1 0x0 PUSH2 0x14C0 DUP3 PUSH2 0xC31 JUMP JUMPDEST SWAP2 POP PUSH32 0xFFFFFFFFFFFFFFFFFFFFFFFFFFFFFFFFFFFFFFFFFFFFFFFFFFFFFFFFFFFFFFFF DUP3 SUB PUSH2 0x14F2 JUMPI PUSH2 0x14F1 PUSH2 0x13C3 JUMP JUMPDEST JUMPDEST PUSH1 0x1 DUP3 ADD SWAP1 POP SWAP2 SWAP1 POP JUMP JUMPDEST PUSH1 0x0 DUP2 SWAP1 POP DUP2 PUSH1 0x0 MSTORE PUSH1 0x20 PUSH1 0x0 KECCAK256 SWAP1 POP SWAP2 SWAP1 POP JUMP JUMPDEST PUSH1 0x0 PUSH1 0x20 PUSH1 0x1F DUP4 ADD DIV SWAP1 POP SWAP2 SWAP1 POP JUMP JUMPDEST PUSH1 0x0 DUP3 DUP3 SHL SWAP1 POP SWAP3 SWAP2 POP POP JUMP JUMPDEST PUSH1 0x0 PUSH1 0x8 DUP4 MUL PUSH2 0x155F PUSH32 0xFFFFFFFFFFFFFFFFFFFFFFFFFFFFFFFFFFFFFFFFFFFFFFFFFFFFFFFFFFFFFFFF DUP3 PUSH2 0x1522 JUMP JUMPDEST PUSH2 0x1569 DUP7 DUP4 PUSH2 0x1522 JUMP JUMPDEST SWAP6 POP DUP1 NOT DUP5 AND SWAP4 POP DUP1 DUP7 AND DUP5 OR SWAP3 POP POP POP SWAP4 SWAP3 POP POP POP JUMP JUMPDEST PUSH1 0x0 DUP2 SWAP1 POP SWAP2 SWAP1 POP JUMP JUMPDEST PUSH1 0x0 PUSH2 0x15A6 PUSH2 0x15A1 PUSH2 0x159C DUP5 PUSH2 0xC31 JUMP JUMPDEST PUSH2 0x1581 JUMP JUMPDEST PUSH2 0xC31 JUMP JUMPDEST SWAP1 POP SWAP2 SWAP1 POP JUMP JUMPDEST PUSH1 0x0 DUP2 SWAP1 POP SWAP2 SWAP1 POP JUMP JUMPDEST PUSH2 0x15C0 DUP4 PUSH2 0x158B JUMP JUMPDEST PUSH2 0x15D4 PUSH2 0x15CC DUP3 PUSH2 0x15AD JUMP JUMPDEST DUP5 DUP5 SLOAD PUSH2 0x152F JUMP JUMPDEST DUP3 SSTORE POP POP POP POP JUMP JUMPDEST PUSH1 0x0 SWAP1 JUMP JUMPDEST PUSH2 0x15E9 PUSH2 0x15DC JUMP JUMPDEST PUSH2 0x15F4 DUP2 DUP5 DUP5 PUSH2 0x15B7 JUMP JUMPDEST POP POP POP JUMP JUMPDEST JUMPDEST DUP2 DUP2 LT ISZERO PUSH2 0x1618 JUMPI PUSH2 0x160D PUSH1 0x0 DUP3 PUSH2 0x15E1 JUMP JUMPDEST PUSH1 0x1 DUP2 ADD SWAP1 POP PUSH2 0x15FA JUMP JUMPDEST POP POP JUMP JUMPDEST PUSH1 0x1F DUP3 GT ISZERO PUSH2 0x165D JUMPI PUSH2 0x162E DUP2 PUSH2 0x14FD JUMP JUMPDEST PUSH2 0x1637 DUP5 PUSH2 0x1512 JUMP JUMPDEST DUP2 ADD PUSH1 0x20 DUP6 LT ISZERO PUSH2 0x1646 JUMPI DUP2 SWAP1 POP JUMPDEST PUSH2 0x165A PUSH2 0x1652 DUP6 PUSH2 0x1512 JUMP JUMPDEST DUP4 ADD DUP3 PUSH2 0x15F9 JUMP JUMPDEST POP POP JUMPDEST POP POP POP JUMP JUMPDEST PUSH1 0x0 DUP3 DUP3 SHR SWAP1 POP SWAP3 SWAP2 POP POP JUMP JUMPDEST PUSH1 0x0 PUSH2 0x1680 PUSH1 0x0 NOT DUP5 PUSH1 0x8 MUL PUSH2 0x1662 JUMP JUMPDEST NOT DUP1 DUP4 AND SWAP2 POP POP SWAP3 SWAP2 POP POP JUMP JUMPDEST PUSH1 0x0 PUSH2 0x1699 DUP4 DUP4 PUSH2 0x166F JUMP JUMPDEST SWAP2 POP DUP3 PUSH1 0x2 MUL DUP3 OR SWAP1 POP SWAP3 SWAP2 POP POP JUMP JUMPDEST PUSH2 0x16B2 DUP3 PUSH2 0xD10 JUMP JUMPDEST PUSH8 0xFFFFFFFFFFFFFFFF DUP2 GT ISZERO PUSH2 0x16CB JUMPI PUSH2 0x16CA PUSH2 0x101B JUMP JUMPDEST JUMPDEST PUSH2 0x16D5 DUP3 SLOAD PUSH2 0x1455 JUMP JUMPDEST PUSH2 0x16E0 DUP3 DUP3 DUP6 PUSH2 0x161C JUMP JUMPDEST PUSH1 0x0 PUSH1 0x20 SWAP1 POP PUSH1 0x1F DUP4 GT PUSH1 0x1 DUP2 EQ PUSH2 0x1713 JUMPI PUSH1 0x0 DUP5 ISZERO PUSH2 0x1701 JUMPI DUP3 DUP8 ADD MLOAD SWAP1 POP JUMPDEST PUSH2 0x170B DUP6 DUP3 PUSH2 0x168D JUMP JUMPDEST DUP7 SSTORE POP PUSH2 0x1773 JUMP JUMPDEST PUSH1 0x1F NOT DUP5 AND PUSH2 0x1721 DUP7 PUSH2 0x14FD JUMP JUMPDEST PUSH1 0x0 JUMPDEST DUP3 DUP2 LT ISZERO PUSH2 0x1749 JUMPI DUP5 DUP10 ADD MLOAD DUP3 SSTORE PUSH1 0x1 DUP3 ADD SWAP2 POP PUSH1 0x20 DUP6 ADD SWAP5 POP PUSH1 0x20 DUP2 ADD SWAP1 POP PUSH2 0x1724 JUMP JUMPDEST DUP7 DUP4 LT ISZERO PUSH2 0x1766 JUMPI DUP5 DUP10 ADD MLOAD PUSH2 0x1762 PUSH1 0x1F DUP10 AND DUP3 PUSH2 0x166F JUMP JUMPDEST DUP4 SSTORE POP JUMPDEST PUSH1 0x1 PUSH1 0x2 DUP9 MUL ADD DUP9 SSTORE POP POP POP JUMPDEST POP POP POP POP POP POP JUMP INVALID LOG2 PUSH5 0x6970667358 0x22 SLT KECCAK256 RETURNDATASIZE ADDRESS SDIV 0xE9 SDIV 0xE7 0xF 0xB5 0xB0 NUMBER 0xCC 0xC5 0xC1 PUSH30 0x3C47DA2AC7A58F240CB47AD7CBCEC38BDFA764736F6C6343000812003300 "
				},
				"gasEstimates": {
					"creation": {
						"codeDepositCost": "1213000",
						"executionCost": "1261",
						"totalCost": "1214261"
					},
					"external": {
						"Follow(address)": "49167",
						"Get_Latest_Tweet(uint256)": "infinite",
						"SendMessage(address,address,string)": "infinite",
						"SendMessage(address,string)": "infinite",
						"Tweet(uint256)": "infinite",
						"Tweett(address,string)": "infinite",
						"Tweett(string)": "infinite",
						"allow(address)": "24989",
						"conversation(address,uint256)": "infinite",
						"disallow(address)": "24968",
						"following(address,uint256)": "infinite",
						"operators(address,address)": "infinite",
						"tweetof(address,uint256)": "infinite"
					},
					"internal": {
						"Send_Message(address,address,string memory)": "infinite",
						"posttweet(address,string memory)": "infinite"
					}
				},
				"methodIdentifiers": {
					"Follow(address)": "e06da1cb",
					"Get_Latest_Tweet(uint256)": "151a39c6",
					"SendMessage(address,address,string)": "41e5ed76",
					"SendMessage(address,string)": "d088db40",
					"Tweet(uint256)": "1c32166a",
					"Tweett(address,string)": "e15a1e33",
					"Tweett(string)": "5ab8f8bc",
					"allow(address)": "ff9913e8",
					"conversation(address,uint256)": "5dfcaebf",
					"disallow(address)": "a9ed9cb8",
					"following(address,uint256)": "9139cda5",
					"operators(address,address)": "2637588e",
					"tweetof(address,uint256)": "6e10beaf"
				}
			},
			"storageLayout": {
				"storage": [
					{
						"astId": 26,
						"contract": "tweeter project.sol:tweeter",
						"label": "Tweet",
						"offset": 0,
						"slot": "0",
						"type": "t_mapping(t_uint256,t_struct(tweetdata)10_storage)"
					},
					{
						"astId": 31,
						"contract": "tweeter project.sol:tweeter",
						"label": "tweetof",
						"offset": 0,
						"slot": "1",
						"type": "t_mapping(t_address,t_array(t_uint256)dyn_storage)"
					},
					{
						"astId": 37,
						"contract": "tweeter project.sol:tweeter",
						"label": "conversation",
						"offset": 0,
						"slot": "2",
						"type": "t_mapping(t_address,t_array(t_struct(message)21_storage)dyn_storage)"
					},
					{
						"astId": 43,
						"contract": "tweeter project.sol:tweeter",
						"label": "operators",
						"offset": 0,
						"slot": "3",
						"type": "t_mapping(t_address,t_mapping(t_address,t_bool))"
					},
					{
						"astId": 48,
						"contract": "tweeter project.sol:tweeter",
						"label": "following",
						"offset": 0,
						"slot": "4",
						"type": "t_mapping(t_address,t_array(t_address)dyn_storage)"
					},
					{
						"astId": 50,
						"contract": "tweeter project.sol:tweeter",
						"label": "nextid",
						"offset": 0,
						"slot": "5",
						"type": "t_uint256"
					},
					{
						"astId": 52,
						"contract": "tweeter project.sol:tweeter",
						"label": "nextmsgid",
						"offset": 0,
						"slot": "6",
						"type": "t_uint256"
					}
				],
				"types": {
					"t_address": {
						"encoding": "inplace",
						"label": "address",
						"numberOfBytes": "20"
					},
					"t_array(t_address)dyn_storage": {
						"base": "t_address",
						"encoding": "dynamic_array",
						"label": "address[]",
						"numberOfBytes": "32"
					},
					"t_array(t_struct(message)21_storage)dyn_storage": {
						"base": "t_struct(message)21_storage",
						"encoding": "dynamic_array",
						"label": "struct tweeter.message[]",
						"numberOfBytes": "32"
					},
					"t_array(t_uint256)dyn_storage": {
						"base": "t_uint256",
						"encoding": "dynamic_array",
						"label": "uint256[]",
						"numberOfBytes": "32"
					},
					"t_bool": {
						"encoding": "inplace",
						"label": "bool",
						"numberOfBytes": "1"
					},
					"t_mapping(t_address,t_array(t_address)dyn_storage)": {
						"encoding": "mapping",
						"key": "t_address",
						"label": "mapping(address => address[])",
						"numberOfBytes": "32",
						"value": "t_array(t_address)dyn_storage"
					},
					"t_mapping(t_address,t_array(t_struct(message)21_storage)dyn_storage)": {
						"encoding": "mapping",
						"key": "t_address",
						"label": "mapping(address => struct tweeter.message[])",
						"numberOfBytes": "32",
						"value": "t_array(t_struct(message)21_storage)dyn_storage"
					},
					"t_mapping(t_address,t_array(t_uint256)dyn_storage)": {
						"encoding": "mapping",
						"key": "t_address",
						"label": "mapping(address => uint256[])",
						"numberOfBytes": "32",
						"value": "t_array(t_uint256)dyn_storage"
					},
					"t_mapping(t_address,t_bool)": {
						"encoding": "mapping",
						"key": "t_address",
						"label": "mapping(address => bool)",
						"numberOfBytes": "32",
						"value": "t_bool"
					},
					"t_mapping(t_address,t_mapping(t_address,t_bool))": {
						"encoding": "mapping",
						"key": "t_address",
						"label": "mapping(address => mapping(address => bool))",
						"numberOfBytes": "32",
						"value": "t_mapping(t_address,t_bool)"
					},
					"t_mapping(t_uint256,t_struct(tweetdata)10_storage)": {
						"encoding": "mapping",
						"key": "t_uint256",
						"label": "mapping(uint256 => struct tweeter.tweetdata)",
						"numberOfBytes": "32",
						"value": "t_struct(tweetdata)10_storage"
					},
					"t_string_storage": {
						"encoding": "bytes",
						"label": "string",
						"numberOfBytes": "32"
					},
					"t_struct(message)21_storage": {
						"encoding": "inplace",
						"label": "struct tweeter.message",
						"members": [
							{
								"astId": 12,
								"contract": "tweeter project.sol:tweeter",
								"label": "id",
								"offset": 0,
								"slot": "0",
								"type": "t_uint256"
							},
							{
								"astId": 14,
								"contract": "tweeter project.sol:tweeter",
								"label": "from",
								"offset": 0,
								"slot": "1",
								"type": "t_address"
							},
							{
								"astId": 16,
								"contract": "tweeter project.sol:tweeter",
								"label": "to",
								"offset": 0,
								"slot": "2",
								"type": "t_address"
							},
							{
								"astId": 18,
								"contract": "tweeter project.sol:tweeter",
								"label": "time",
								"offset": 0,
								"slot": "3",
								"type": "t_uint256"
							},
							{
								"astId": 20,
								"contract": "tweeter project.sol:tweeter",
								"label": "msgcontent",
								"offset": 0,
								"slot": "4",
								"type": "t_string_storage"
							}
						],
						"numberOfBytes": "160"
					},
					"t_struct(tweetdata)10_storage": {
						"encoding": "inplace",
						"label": "struct tweeter.tweetdata",
						"members": [
							{
								"astId": 3,
								"contract": "tweeter project.sol:tweeter",
								"label": "id",
								"offset": 0,
								"slot": "0",
								"type": "t_uint256"
							},
							{
								"astId": 5,
								"contract": "tweeter project.sol:tweeter",
								"label": "creator",
								"offset": 0,
								"slot": "1",
								"type": "t_address"
							},
							{
								"astId": 7,
								"contract": "tweeter project.sol:tweeter",
								"label": "content",
								"offset": 0,
								"slot": "2",
								"type": "t_string_storage"
							},
							{
								"astId": 9,
								"contract": "tweeter project.sol:tweeter",
								"label": "time",
								"offset": 0,
								"slot": "3",
								"type": "t_uint256"
							}
						],
						"numberOfBytes": "128"
					},
					"t_uint256": {
						"encoding": "inplace",
						"label": "uint256",
						"numberOfBytes": "32"
					}
				}
			},
			"userdoc": {
				"kind": "user",
				"methods": {},
				"version": 1
			}
		}
	}
}