{
	"wallet.sol": {
		"wal": {
			"abi": [
				{
					"inputs": [
						{
							"internalType": "address payable",
							"name": "_addr",
							"type": "address"
						},
						{
							"internalType": "uint256",
							"name": "_amount",
							"type": "uint256"
						}
					],
					"name": "CashOut",
					"outputs": [],
					"stateMutability": "nonpayable",
					"type": "function"
				},
				{
					"inputs": [],
					"name": "Deposit",
					"outputs": [],
					"stateMutability": "payable",
					"type": "function"
				},
				{
					"inputs": [
						{
							"internalType": "address",
							"name": "_addr",
							"type": "address"
						},
						{
							"internalType": "uint256",
							"name": "_num",
							"type": "uint256"
						}
					],
					"name": "DetWithdrawls",
					"outputs": [
						{
							"components": [
								{
									"internalType": "uint256",
									"name": "amount",
									"type": "uint256"
								},
								{
									"internalType": "uint256",
									"name": "timestamp",
									"type": "uint256"
								}
							],
							"internalType": "struct wal.transection",
							"name": "",
							"type": "tuple"
						}
					],
					"stateMutability": "view",
					"type": "function"
				},
				{
					"inputs": [
						{
							"internalType": "address",
							"name": "_addr",
							"type": "address"
						},
						{
							"internalType": "uint256",
							"name": "_num",
							"type": "uint256"
						}
					],
					"name": "GetDeposit",
					"outputs": [
						{
							"components": [
								{
									"internalType": "uint256",
									"name": "amount",
									"type": "uint256"
								},
								{
									"internalType": "uint256",
									"name": "timestamp",
									"type": "uint256"
								}
							],
							"internalType": "struct wal.transection",
							"name": "",
							"type": "tuple"
						}
					],
					"stateMutability": "view",
					"type": "function"
				},
				{
					"inputs": [],
					"name": "getbalance",
					"outputs": [],
					"stateMutability": "view",
					"type": "function"
				},
				{
					"inputs": [
						{
							"internalType": "address",
							"name": "_addr",
							"type": "address"
						},
						{
							"internalType": "uint256",
							"name": "_num",
							"type": "uint256"
						}
					],
					"name": "getr",
					"outputs": [
						{
							"components": [
								{
									"internalType": "uint256",
									"name": "amount",
									"type": "uint256"
								},
								{
									"internalType": "uint256",
									"name": "timestamp",
									"type": "uint256"
								}
							],
							"internalType": "struct wal.transection",
							"name": "",
							"type": "tuple"
						}
					],
					"stateMutability": "view",
					"type": "function"
				},
				{
					"inputs": [
						{
							"internalType": "uint256",
							"name": "_amount",
							"type": "uint256"
						},
						{
							"internalType": "address",
							"name": "_addr",
							"type": "address"
						}
					],
					"name": "rr",
					"outputs": [],
					"stateMutability": "nonpayable",
					"type": "function"
				},
				{
					"inputs": [
						{
							"internalType": "address",
							"name": "",
							"type": "address"
						}
					],
					"name": "wdata",
					"outputs": [
						{
							"internalType": "uint256",
							"name": "totalbalance",
							"type": "uint256"
						},
						{
							"internalType": "uint256",
							"name": "numdeposits",
							"type": "uint256"
						},
						{
							"internalType": "uint256",
							"name": "numcashout",
							"type": "uint256"
						},
						{
							"internalType": "uint256",
							"name": "numr",
							"type": "uint256"
						}
					],
					"stateMutability": "view",
					"type": "function"
				}
			],
			"devdoc": {
				"kind": "dev",
				"methods": {},
				"version": 1
			},
			"evm": {
				"assembly": "    /* \"wallet.sol\":72:2173  contract wal{... */\n  mstore(0x40, 0x80)\n  callvalue\n  dup1\n  iszero\n  tag_1\n  jumpi\n  0x00\n  dup1\n  revert\ntag_1:\n  pop\n  dataSize(sub_0)\n  dup1\n  dataOffset(sub_0)\n  0x00\n  codecopy\n  0x00\n  return\nstop\n\nsub_0: assembly {\n        /* \"wallet.sol\":72:2173  contract wal{... */\n      mstore(0x40, 0x80)\n      jumpi(tag_1, lt(calldatasize, 0x04))\n      shr(0xe0, calldataload(0x00))\n      dup1\n      0x7878ad47\n      gt\n      tag_10\n      jumpi\n      dup1\n      0x7878ad47\n      eq\n      tag_6\n      jumpi\n      dup1\n      0x92601e12\n      eq\n      tag_7\n      jumpi\n      dup1\n      0xab933177\n      eq\n      tag_8\n      jumpi\n      dup1\n      0xed21248c\n      eq\n      tag_9\n      jumpi\n      jump(tag_1)\n    tag_10:\n      dup1\n      0x09e9bd25\n      eq\n      tag_2\n      jumpi\n      dup1\n      0x1b72f9de\n      eq\n      tag_3\n      jumpi\n      dup1\n      0x2591e9f6\n      eq\n      tag_4\n      jumpi\n      dup1\n      0x4d9b3d5d\n      eq\n      tag_5\n      jumpi\n    tag_1:\n      0x00\n      dup1\n      revert\n        /* \"wallet.sol\":680:825  function getr(address _addr, uint _num) public view  returns(transection memory){... */\n    tag_2:\n      callvalue\n      dup1\n      iszero\n      tag_11\n      jumpi\n      0x00\n      dup1\n      revert\n    tag_11:\n      pop\n      tag_12\n      0x04\n      dup1\n      calldatasize\n      sub\n      dup2\n      add\n      swap1\n      tag_13\n      swap2\n      swap1\n      tag_14\n      jump\t// in\n    tag_13:\n      tag_15\n      jump\t// in\n    tag_12:\n      mload(0x40)\n      tag_16\n      swap2\n      swap1\n      tag_17\n      jump\t// in\n    tag_16:\n      mload(0x40)\n      dup1\n      swap2\n      sub\n      swap1\n      return\n        /* \"wallet.sol\":1026:1168  function DetWithdrawls(address _addr,uint _num) public view returns(transection memory){... */\n    tag_3:\n      callvalue\n      dup1\n      iszero\n      tag_18\n      jumpi\n      0x00\n      dup1\n      revert\n    tag_18:\n      pop\n      tag_19\n      0x04\n      dup1\n      calldatasize\n      sub\n      dup2\n      add\n      swap1\n      tag_20\n      swap2\n      swap1\n      tag_14\n      jump\t// in\n    tag_20:\n      tag_21\n      jump\t// in\n    tag_19:\n      mload(0x40)\n      tag_22\n      swap2\n      swap1\n      tag_17\n      jump\t// in\n    tag_22:\n      mload(0x40)\n      dup1\n      swap2\n      sub\n      swap1\n      return\n        /* \"wallet.sol\":467:672  function rr(uint _amount,address _addr) public {... */\n    tag_4:\n      callvalue\n      dup1\n      iszero\n      tag_23\n      jumpi\n      0x00\n      dup1\n      revert\n    tag_23:\n      pop\n      tag_24\n      0x04\n      dup1\n      calldatasize\n      sub\n      dup2\n      add\n      swap1\n      tag_25\n      swap2\n      swap1\n      tag_26\n      jump\t// in\n    tag_25:\n      tag_27\n      jump\t// in\n    tag_24:\n      stop\n        /* \"wallet.sol\":1176:1250  function getbalance() public view {... */\n    tag_5:\n      callvalue\n      dup1\n      iszero\n      tag_28\n      jumpi\n      0x00\n      dup1\n      revert\n    tag_28:\n      pop\n      tag_29\n      tag_30\n      jump\t// in\n    tag_29:\n      stop\n        /* \"wallet.sol\":881:1018  function GetDeposit(address _addr,uint _num) public view returns(transection memory){... */\n    tag_6:\n      callvalue\n      dup1\n      iszero\n      tag_31\n      jumpi\n      0x00\n      dup1\n      revert\n    tag_31:\n      pop\n      tag_32\n      0x04\n      dup1\n      calldatasize\n      sub\n      dup2\n      add\n      swap1\n      tag_33\n      swap2\n      swap1\n      tag_14\n      jump\t// in\n    tag_33:\n      tag_34\n      jump\t// in\n    tag_32:\n      mload(0x40)\n      tag_35\n      swap2\n      swap1\n      tag_17\n      jump\t// in\n    tag_35:\n      mload(0x40)\n      dup1\n      swap2\n      sub\n      swap1\n      return\n        /* \"wallet.sol\":837:874  mapping (address=> data) public wdata */\n    tag_7:\n      callvalue\n      dup1\n      iszero\n      tag_36\n      jumpi\n      0x00\n      dup1\n      revert\n    tag_36:\n      pop\n      tag_37\n      0x04\n      dup1\n      calldatasize\n      sub\n      dup2\n      add\n      swap1\n      tag_38\n      swap2\n      swap1\n      tag_39\n      jump\t// in\n    tag_38:\n      tag_40\n      jump\t// in\n    tag_37:\n      mload(0x40)\n      tag_41\n      swap5\n      swap4\n      swap3\n      swap2\n      swap1\n      tag_42\n      jump\t// in\n    tag_41:\n      mload(0x40)\n      dup1\n      swap2\n      sub\n      swap1\n      return\n        /* \"wallet.sol\":1765:2170  function CashOut( address payable  _addr, uint _amount) public {... */\n    tag_8:\n      callvalue\n      dup1\n      iszero\n      tag_43\n      jumpi\n      0x00\n      dup1\n      revert\n    tag_43:\n      pop\n      tag_44\n      0x04\n      dup1\n      calldatasize\n      sub\n      dup2\n      add\n      swap1\n      tag_45\n      swap2\n      swap1\n      tag_46\n      jump\t// in\n    tag_45:\n      tag_47\n      jump\t// in\n    tag_44:\n      stop\n        /* \"wallet.sol\":1477:1757  function Deposit() public payable  {... */\n    tag_9:\n      tag_48\n      tag_49\n      jump\t// in\n    tag_48:\n      stop\n        /* \"wallet.sol\":680:825  function getr(address _addr, uint _num) public view  returns(transection memory){... */\n    tag_15:\n        /* \"wallet.sol\":741:759  transection memory */\n      tag_50\n      tag_51\n      jump\t// in\n    tag_50:\n        /* \"wallet.sol\":779:784  wdata */\n      0x02\n        /* \"wallet.sol\":779:791  wdata[_addr] */\n      0x00\n        /* \"wallet.sol\":785:790  _addr */\n      dup5\n        /* \"wallet.sol\":779:791  wdata[_addr] */\n      0xffffffffffffffffffffffffffffffffffffffff\n      and\n      0xffffffffffffffffffffffffffffffffffffffff\n      and\n      dup2\n      mstore\n      0x20\n      add\n      swap1\n      dup2\n      mstore\n      0x20\n      add\n      0x00\n      keccak256\n        /* \"wallet.sol\":779:800  wdata[_addr].receiver */\n      0x05\n      add\n        /* \"wallet.sol\":779:806  wdata[_addr].receiver[_num] */\n      0x00\n        /* \"wallet.sol\":801:805  _num */\n      dup4\n        /* \"wallet.sol\":779:806  wdata[_addr].receiver[_num] */\n      dup2\n      mstore\n      0x20\n      add\n      swap1\n      dup2\n      mstore\n      0x20\n      add\n      0x00\n      keccak256\n        /* \"wallet.sol\":772:806  return wdata[_addr].receiver[_num] */\n      mload(0x40)\n      dup1\n      0x40\n      add\n      0x40\n      mstore\n      swap1\n      dup2\n      0x00\n      dup3\n      add\n      sload\n      dup2\n      mstore\n      0x20\n      add\n      0x01\n      dup3\n      add\n      sload\n      dup2\n      mstore\n      pop\n      pop\n      swap1\n      pop\n        /* \"wallet.sol\":680:825  function getr(address _addr, uint _num) public view  returns(transection memory){... */\n      swap3\n      swap2\n      pop\n      pop\n      jump\t// out\n        /* \"wallet.sol\":1026:1168  function DetWithdrawls(address _addr,uint _num) public view returns(transection memory){... */\n    tag_21:\n        /* \"wallet.sol\":1094:1112  transection memory */\n      tag_53\n      tag_51\n      jump\t// in\n    tag_53:\n        /* \"wallet.sol\":1131:1136  wdata */\n      0x02\n        /* \"wallet.sol\":1131:1143  wdata[_addr] */\n      0x00\n        /* \"wallet.sol\":1137:1142  _addr */\n      dup5\n        /* \"wallet.sol\":1131:1143  wdata[_addr] */\n      0xffffffffffffffffffffffffffffffffffffffff\n      and\n      0xffffffffffffffffffffffffffffffffffffffff\n      and\n      dup2\n      mstore\n      0x20\n      add\n      swap1\n      dup2\n      mstore\n      0x20\n      add\n      0x00\n      keccak256\n        /* \"wallet.sol\":1131:1154  wdata[_addr].withdrawls */\n      0x04\n      add\n        /* \"wallet.sol\":1131:1160  wdata[_addr].withdrawls[_num] */\n      0x00\n        /* \"wallet.sol\":1155:1159  _num */\n      dup4\n        /* \"wallet.sol\":1131:1160  wdata[_addr].withdrawls[_num] */\n      dup2\n      mstore\n      0x20\n      add\n      swap1\n      dup2\n      mstore\n      0x20\n      add\n      0x00\n      keccak256\n        /* \"wallet.sol\":1124:1160  return wdata[_addr].withdrawls[_num] */\n      mload(0x40)\n      dup1\n      0x40\n      add\n      0x40\n      mstore\n      swap1\n      dup2\n      0x00\n      dup3\n      add\n      sload\n      dup2\n      mstore\n      0x20\n      add\n      0x01\n      dup3\n      add\n      sload\n      dup2\n      mstore\n      pop\n      pop\n      swap1\n      pop\n        /* \"wallet.sol\":1026:1168  function DetWithdrawls(address _addr,uint _num) public view returns(transection memory){... */\n      swap3\n      swap2\n      pop\n      pop\n      jump\t// out\n        /* \"wallet.sol\":467:672  function rr(uint _amount,address _addr) public {... */\n    tag_27:\n        /* \"wallet.sol\":537:544  _amount */\n      dup2\n        /* \"wallet.sol\":525:529  valr */\n      0x00\n        /* \"wallet.sol\":525:536  valr.amount */\n      dup1\n      add\n        /* \"wallet.sol\":525:544  valr.amount=_amount */\n      dup2\n      swap1\n      sstore\n      pop\n        /* \"wallet.sol\":566:581  block.timestamp */\n      timestamp\n        /* \"wallet.sol\":551:555  valr */\n      0x00\n        /* \"wallet.sol\":551:565  valr.timestamp */\n      0x01\n      add\n        /* \"wallet.sol\":551:581  valr.timestamp=block.timestamp */\n      dup2\n      swap1\n      sstore\n      pop\n        /* \"wallet.sol\":629:633  valr */\n      0x00\n        /* \"wallet.sol\":588:593  wdata */\n      0x02\n        /* \"wallet.sol\":588:600  wdata[_addr] */\n      0x00\n        /* \"wallet.sol\":594:599  _addr */\n      dup4\n        /* \"wallet.sol\":588:600  wdata[_addr] */\n      0xffffffffffffffffffffffffffffffffffffffff\n      and\n      0xffffffffffffffffffffffffffffffffffffffff\n      and\n      dup2\n      mstore\n      0x20\n      add\n      swap1\n      dup2\n      mstore\n      0x20\n      add\n      0x00\n      keccak256\n        /* \"wallet.sol\":588:609  wdata[_addr].receiver */\n      0x05\n      add\n        /* \"wallet.sol\":588:628  wdata[_addr].receiver[wdata[_addr].numr] */\n      0x00\n        /* \"wallet.sol\":610:615  wdata */\n      0x02\n        /* \"wallet.sol\":610:622  wdata[_addr] */\n      0x00\n        /* \"wallet.sol\":616:621  _addr */\n      dup6\n        /* \"wallet.sol\":610:622  wdata[_addr] */\n      0xffffffffffffffffffffffffffffffffffffffff\n      and\n      0xffffffffffffffffffffffffffffffffffffffff\n      and\n      dup2\n      mstore\n      0x20\n      add\n      swap1\n      dup2\n      mstore\n      0x20\n      add\n      0x00\n      keccak256\n        /* \"wallet.sol\":610:627  wdata[_addr].numr */\n      0x06\n      add\n      sload\n        /* \"wallet.sol\":588:628  wdata[_addr].receiver[wdata[_addr].numr] */\n      dup2\n      mstore\n      0x20\n      add\n      swap1\n      dup2\n      mstore\n      0x20\n      add\n      0x00\n      keccak256\n        /* \"wallet.sol\":588:633  wdata[_addr].receiver[wdata[_addr].numr]=valr */\n      0x00\n      dup3\n      add\n      sload\n      dup2\n      0x00\n      add\n      sstore\n      0x01\n      dup3\n      add\n      sload\n      dup2\n      0x01\n      add\n      sstore\n      swap1\n      pop\n      pop\n        /* \"wallet.sol\":640:645  wdata */\n      0x02\n        /* \"wallet.sol\":640:657  wdata[msg.sender] */\n      0x00\n        /* \"wallet.sol\":646:656  msg.sender */\n      caller\n        /* \"wallet.sol\":640:657  wdata[msg.sender] */\n      0xffffffffffffffffffffffffffffffffffffffff\n      and\n      0xffffffffffffffffffffffffffffffffffffffff\n      and\n      dup2\n      mstore\n      0x20\n      add\n      swap1\n      dup2\n      mstore\n      0x20\n      add\n      0x00\n      keccak256\n        /* \"wallet.sol\":640:662  wdata[msg.sender].numr */\n      0x06\n      add\n      0x00\n        /* \"wallet.sol\":640:664  wdata[msg.sender].numr++ */\n      dup2\n      sload\n      dup1\n      swap3\n      swap2\n      swap1\n      tag_56\n      swap1\n      tag_57\n      jump\t// in\n    tag_56:\n      swap2\n      swap1\n      pop\n      sstore\n      pop\n        /* \"wallet.sol\":467:672  function rr(uint _amount,address _addr) public {... */\n      pop\n      pop\n      jump\t// out\n        /* \"wallet.sol\":1176:1250  function getbalance() public view {... */\n    tag_30:\n      jump\t// out\n        /* \"wallet.sol\":881:1018  function GetDeposit(address _addr,uint _num) public view returns(transection memory){... */\n    tag_34:\n        /* \"wallet.sol\":946:964  transection memory */\n      tag_59\n      tag_51\n      jump\t// in\n    tag_59:\n        /* \"wallet.sol\":983:988  wdata */\n      0x02\n        /* \"wallet.sol\":983:995  wdata[_addr] */\n      0x00\n        /* \"wallet.sol\":989:994  _addr */\n      dup5\n        /* \"wallet.sol\":983:995  wdata[_addr] */\n      0xffffffffffffffffffffffffffffffffffffffff\n      and\n      0xffffffffffffffffffffffffffffffffffffffff\n      and\n      dup2\n      mstore\n      0x20\n      add\n      swap1\n      dup2\n      mstore\n      0x20\n      add\n      0x00\n      keccak256\n        /* \"wallet.sol\":983:1004  wdata[_addr].deposits */\n      0x02\n      add\n        /* \"wallet.sol\":983:1010  wdata[_addr].deposits[_num] */\n      0x00\n        /* \"wallet.sol\":1005:1009  _num */\n      dup4\n        /* \"wallet.sol\":983:1010  wdata[_addr].deposits[_num] */\n      dup2\n      mstore\n      0x20\n      add\n      swap1\n      dup2\n      mstore\n      0x20\n      add\n      0x00\n      keccak256\n        /* \"wallet.sol\":976:1010  return wdata[_addr].deposits[_num] */\n      mload(0x40)\n      dup1\n      0x40\n      add\n      0x40\n      mstore\n      swap1\n      dup2\n      0x00\n      dup3\n      add\n      sload\n      dup2\n      mstore\n      0x20\n      add\n      0x01\n      dup3\n      add\n      sload\n      dup2\n      mstore\n      pop\n      pop\n      swap1\n      pop\n        /* \"wallet.sol\":881:1018  function GetDeposit(address _addr,uint _num) public view returns(transection memory){... */\n      swap3\n      swap2\n      pop\n      pop\n      jump\t// out\n        /* \"wallet.sol\":837:874  mapping (address=> data) public wdata */\n    tag_40:\n      mstore(0x20, 0x02)\n      dup1\n      0x00\n      mstore\n      keccak256(0x00, 0x40)\n      0x00\n      swap2\n      pop\n      swap1\n      pop\n      dup1\n      0x00\n      add\n      sload\n      swap1\n      dup1\n      0x01\n      add\n      sload\n      swap1\n      dup1\n      0x03\n      add\n      sload\n      swap1\n      dup1\n      0x06\n      add\n      sload\n      swap1\n      pop\n      dup5\n      jump\t// out\n        /* \"wallet.sol\":1765:2170  function CashOut( address payable  _addr, uint _amount) public {... */\n    tag_47:\n        /* \"wallet.sol\":1871:1878  _amount */\n      dup1\n        /* \"wallet.sol\":1839:1844  wdata */\n      0x02\n        /* \"wallet.sol\":1839:1856  wdata[msg.sender] */\n      0x00\n        /* \"wallet.sol\":1845:1855  msg.sender */\n      caller\n        /* \"wallet.sol\":1839:1856  wdata[msg.sender] */\n      0xffffffffffffffffffffffffffffffffffffffff\n      and\n      0xffffffffffffffffffffffffffffffffffffffff\n      and\n      dup2\n      mstore\n      0x20\n      add\n      swap1\n      dup2\n      mstore\n      0x20\n      add\n      0x00\n      keccak256\n        /* \"wallet.sol\":1839:1869  wdata[msg.sender].totalbalance */\n      0x00\n      add\n      0x00\n        /* \"wallet.sol\":1839:1878  wdata[msg.sender].totalbalance-=_amount */\n      dup3\n      dup3\n      sload\n      tag_62\n      swap2\n      swap1\n      tag_63\n      jump\t// in\n    tag_62:\n      swap3\n      pop\n      pop\n      dup2\n      swap1\n      sstore\n      pop\n        /* \"wallet.sol\":1953:1976  transection memory val2 */\n      0x00\n        /* \"wallet.sol\":1977:2013  transection(_amount,block.timestamp) */\n      mload(0x40)\n      dup1\n      0x40\n      add\n      0x40\n      mstore\n      dup1\n        /* \"wallet.sol\":1989:1996  _amount */\n      dup4\n        /* \"wallet.sol\":1977:2013  transection(_amount,block.timestamp) */\n      dup2\n      mstore\n      0x20\n      add\n        /* \"wallet.sol\":1997:2012  block.timestamp */\n      timestamp\n        /* \"wallet.sol\":1977:2013  transection(_amount,block.timestamp) */\n      dup2\n      mstore\n      pop\n        /* \"wallet.sol\":1953:2013  transection memory val2=transection(_amount,block.timestamp) */\n      swap1\n      pop\n        /* \"wallet.sol\":2083:2087  val2 */\n      dup1\n        /* \"wallet.sol\":2024:2029  wdata */\n      0x02\n        /* \"wallet.sol\":2024:2041  wdata[msg.sender] */\n      0x00\n        /* \"wallet.sol\":2030:2040  msg.sender */\n      caller\n        /* \"wallet.sol\":2024:2041  wdata[msg.sender] */\n      0xffffffffffffffffffffffffffffffffffffffff\n      and\n      0xffffffffffffffffffffffffffffffffffffffff\n      and\n      dup2\n      mstore\n      0x20\n      add\n      swap1\n      dup2\n      mstore\n      0x20\n      add\n      0x00\n      keccak256\n        /* \"wallet.sol\":2024:2052  wdata[msg.sender].withdrawls */\n      0x04\n      add\n        /* \"wallet.sol\":2024:2082  wdata[msg.sender].withdrawls[wdata[msg.sender].numcashout] */\n      0x00\n        /* \"wallet.sol\":2053:2058  wdata */\n      0x02\n        /* \"wallet.sol\":2053:2070  wdata[msg.sender] */\n      0x00\n        /* \"wallet.sol\":2059:2069  msg.sender */\n      caller\n        /* \"wallet.sol\":2053:2070  wdata[msg.sender] */\n      0xffffffffffffffffffffffffffffffffffffffff\n      and\n      0xffffffffffffffffffffffffffffffffffffffff\n      and\n      dup2\n      mstore\n      0x20\n      add\n      swap1\n      dup2\n      mstore\n      0x20\n      add\n      0x00\n      keccak256\n        /* \"wallet.sol\":2053:2081  wdata[msg.sender].numcashout */\n      0x03\n      add\n      sload\n        /* \"wallet.sol\":2024:2082  wdata[msg.sender].withdrawls[wdata[msg.sender].numcashout] */\n      dup2\n      mstore\n      0x20\n      add\n      swap1\n      dup2\n      mstore\n      0x20\n      add\n      0x00\n      keccak256\n        /* \"wallet.sol\":2024:2087  wdata[msg.sender].withdrawls[wdata[msg.sender].numcashout]=val2 */\n      0x00\n      dup3\n      add\n      mload\n      dup2\n      0x00\n      add\n      sstore\n      0x20\n      dup3\n      add\n      mload\n      dup2\n      0x01\n      add\n      sstore\n      swap1\n      pop\n      pop\n        /* \"wallet.sol\":2098:2103  wdata */\n      0x02\n        /* \"wallet.sol\":2098:2115  wdata[msg.sender] */\n      0x00\n        /* \"wallet.sol\":2104:2114  msg.sender */\n      caller\n        /* \"wallet.sol\":2098:2115  wdata[msg.sender] */\n      0xffffffffffffffffffffffffffffffffffffffff\n      and\n      0xffffffffffffffffffffffffffffffffffffffff\n      and\n      dup2\n      mstore\n      0x20\n      add\n      swap1\n      dup2\n      mstore\n      0x20\n      add\n      0x00\n      keccak256\n        /* \"wallet.sol\":2098:2126  wdata[msg.sender].numcashout */\n      0x03\n      add\n      0x00\n        /* \"wallet.sol\":2098:2128  wdata[msg.sender].numcashout++ */\n      dup2\n      sload\n      dup1\n      swap3\n      swap2\n      swap1\n      tag_64\n      swap1\n      tag_57\n      jump\t// in\n    tag_64:\n      swap2\n      swap1\n      pop\n      sstore\n      pop\n        /* \"wallet.sol\":2139:2144  _addr */\n      dup3\n        /* \"wallet.sol\":2139:2153  _addr.transfer */\n      0xffffffffffffffffffffffffffffffffffffffff\n      and\n        /* \"wallet.sol\":2139:2162  _addr.transfer(_amount) */\n      0x08fc\n        /* \"wallet.sol\":2154:2161  _amount */\n      dup4\n        /* \"wallet.sol\":2139:2162  _addr.transfer(_amount) */\n      swap1\n      dup2\n      iszero\n      mul\n      swap1\n      mload(0x40)\n      0x00\n      mload(0x40)\n      dup1\n      dup4\n      sub\n      dup2\n      dup6\n      dup9\n      dup9\n      call\n      swap4\n      pop\n      pop\n      pop\n      pop\n      iszero\n      dup1\n      iszero\n      tag_66\n      jumpi\n      returndatasize\n      0x00\n      dup1\n      returndatacopy\n      revert(0x00, returndatasize)\n    tag_66:\n      pop\n        /* \"wallet.sol\":1828:2170  {... */\n      pop\n        /* \"wallet.sol\":1765:2170  function CashOut( address payable  _addr, uint _amount) public {... */\n      pop\n      pop\n      jump\t// out\n        /* \"wallet.sol\":1477:1757  function Deposit() public payable  {... */\n    tag_49:\n        /* \"wallet.sol\":1554:1563  msg.value */\n      callvalue\n        /* \"wallet.sol\":1522:1527  wdata */\n      0x02\n        /* \"wallet.sol\":1522:1539  wdata[msg.sender] */\n      0x00\n        /* \"wallet.sol\":1528:1538  msg.sender */\n      caller\n        /* \"wallet.sol\":1522:1539  wdata[msg.sender] */\n      0xffffffffffffffffffffffffffffffffffffffff\n      and\n      0xffffffffffffffffffffffffffffffffffffffff\n      and\n      dup2\n      mstore\n      0x20\n      add\n      swap1\n      dup2\n      mstore\n      0x20\n      add\n      0x00\n      keccak256\n        /* \"wallet.sol\":1522:1552  wdata[msg.sender].totalbalance */\n      0x00\n      add\n      0x00\n        /* \"wallet.sol\":1522:1563  wdata[msg.sender].totalbalance+=msg.value */\n      dup3\n      dup3\n      sload\n      tag_68\n      swap2\n      swap1\n      tag_69\n      jump\t// in\n    tag_68:\n      swap3\n      pop\n      pop\n      dup2\n      swap1\n      sstore\n      pop\n        /* \"wallet.sol\":1574:1596  transection memory val */\n      0x00\n        /* \"wallet.sol\":1597:1635  transection(msg.value,block.timestamp) */\n      mload(0x40)\n      dup1\n      0x40\n      add\n      0x40\n      mstore\n      dup1\n        /* \"wallet.sol\":1609:1618  msg.value */\n      callvalue\n        /* \"wallet.sol\":1597:1635  transection(msg.value,block.timestamp) */\n      dup2\n      mstore\n      0x20\n      add\n        /* \"wallet.sol\":1619:1634  block.timestamp */\n      timestamp\n        /* \"wallet.sol\":1597:1635  transection(msg.value,block.timestamp) */\n      dup2\n      mstore\n      pop\n        /* \"wallet.sol\":1574:1635  transection memory val=transection(msg.value,block.timestamp) */\n      swap1\n      pop\n        /* \"wallet.sol\":1704:1707  val */\n      dup1\n        /* \"wallet.sol\":1646:1651  wdata */\n      0x02\n        /* \"wallet.sol\":1646:1663  wdata[msg.sender] */\n      0x00\n        /* \"wallet.sol\":1652:1662  msg.sender */\n      caller\n        /* \"wallet.sol\":1646:1663  wdata[msg.sender] */\n      0xffffffffffffffffffffffffffffffffffffffff\n      and\n      0xffffffffffffffffffffffffffffffffffffffff\n      and\n      dup2\n      mstore\n      0x20\n      add\n      swap1\n      dup2\n      mstore\n      0x20\n      add\n      0x00\n      keccak256\n        /* \"wallet.sol\":1646:1672  wdata[msg.sender].deposits */\n      0x02\n      add\n        /* \"wallet.sol\":1646:1703  wdata[msg.sender].deposits[wdata[msg.sender].numdeposits] */\n      0x00\n        /* \"wallet.sol\":1673:1678  wdata */\n      0x02\n        /* \"wallet.sol\":1673:1690  wdata[msg.sender] */\n      0x00\n        /* \"wallet.sol\":1679:1689  msg.sender */\n      caller\n        /* \"wallet.sol\":1673:1690  wdata[msg.sender] */\n      0xffffffffffffffffffffffffffffffffffffffff\n      and\n      0xffffffffffffffffffffffffffffffffffffffff\n      and\n      dup2\n      mstore\n      0x20\n      add\n      swap1\n      dup2\n      mstore\n      0x20\n      add\n      0x00\n      keccak256\n        /* \"wallet.sol\":1673:1702  wdata[msg.sender].numdeposits */\n      0x01\n      add\n      sload\n        /* \"wallet.sol\":1646:1703  wdata[msg.sender].deposits[wdata[msg.sender].numdeposits] */\n      dup2\n      mstore\n      0x20\n      add\n      swap1\n      dup2\n      mstore\n      0x20\n      add\n      0x00\n      keccak256\n        /* \"wallet.sol\":1646:1707  wdata[msg.sender].deposits[wdata[msg.sender].numdeposits]=val */\n      0x00\n      dup3\n      add\n      mload\n      dup2\n      0x00\n      add\n      sstore\n      0x20\n      dup3\n      add\n      mload\n      dup2\n      0x01\n      add\n      sstore\n      swap1\n      pop\n      pop\n        /* \"wallet.sol\":1718:1723  wdata */\n      0x02\n        /* \"wallet.sol\":1718:1735  wdata[msg.sender] */\n      0x00\n        /* \"wallet.sol\":1724:1734  msg.sender */\n      caller\n        /* \"wallet.sol\":1718:1735  wdata[msg.sender] */\n      0xffffffffffffffffffffffffffffffffffffffff\n      and\n      0xffffffffffffffffffffffffffffffffffffffff\n      and\n      dup2\n      mstore\n      0x20\n      add\n      swap1\n      dup2\n      mstore\n      0x20\n      add\n      0x00\n      keccak256\n        /* \"wallet.sol\":1718:1747  wdata[msg.sender].numdeposits */\n      0x01\n      add\n      0x00\n        /* \"wallet.sol\":1718:1749  wdata[msg.sender].numdeposits++ */\n      dup2\n      sload\n      dup1\n      swap3\n      swap2\n      swap1\n      tag_70\n      swap1\n      tag_57\n      jump\t// in\n    tag_70:\n      swap2\n      swap1\n      pop\n      sstore\n      pop\n        /* \"wallet.sol\":1512:1757  {... */\n      pop\n        /* \"wallet.sol\":1477:1757  function Deposit() public payable  {... */\n      jump\t// out\n    tag_51:\n      mload(0x40)\n      dup1\n      0x40\n      add\n      0x40\n      mstore\n      dup1\n      0x00\n      dup2\n      mstore\n      0x20\n      add\n      0x00\n      dup2\n      mstore\n      pop\n      swap1\n      jump\t// out\n        /* \"#utility.yul\":88:205   */\n    tag_72:\n        /* \"#utility.yul\":197:198   */\n      0x00\n        /* \"#utility.yul\":194:195   */\n      dup1\n        /* \"#utility.yul\":187:199   */\n      revert\n        /* \"#utility.yul\":334:460   */\n    tag_74:\n        /* \"#utility.yul\":371:378   */\n      0x00\n        /* \"#utility.yul\":411:453   */\n      0xffffffffffffffffffffffffffffffffffffffff\n        /* \"#utility.yul\":404:409   */\n      dup3\n        /* \"#utility.yul\":400:454   */\n      and\n        /* \"#utility.yul\":389:454   */\n      swap1\n      pop\n        /* \"#utility.yul\":334:460   */\n      swap2\n      swap1\n      pop\n      jump\t// out\n        /* \"#utility.yul\":466:562   */\n    tag_75:\n        /* \"#utility.yul\":503:510   */\n      0x00\n        /* \"#utility.yul\":532:556   */\n      tag_94\n        /* \"#utility.yul\":550:555   */\n      dup3\n        /* \"#utility.yul\":532:556   */\n      tag_74\n      jump\t// in\n    tag_94:\n        /* \"#utility.yul\":521:556   */\n      swap1\n      pop\n        /* \"#utility.yul\":466:562   */\n      swap2\n      swap1\n      pop\n      jump\t// out\n        /* \"#utility.yul\":568:690   */\n    tag_76:\n        /* \"#utility.yul\":641:665   */\n      tag_96\n        /* \"#utility.yul\":659:664   */\n      dup2\n        /* \"#utility.yul\":641:665   */\n      tag_75\n      jump\t// in\n    tag_96:\n        /* \"#utility.yul\":634:639   */\n      dup2\n        /* \"#utility.yul\":631:666   */\n      eq\n        /* \"#utility.yul\":621:684   */\n      tag_97\n      jumpi\n        /* \"#utility.yul\":680:681   */\n      0x00\n        /* \"#utility.yul\":677:678   */\n      dup1\n        /* \"#utility.yul\":670:682   */\n      revert\n        /* \"#utility.yul\":621:684   */\n    tag_97:\n        /* \"#utility.yul\":568:690   */\n      pop\n      jump\t// out\n        /* \"#utility.yul\":696:835   */\n    tag_77:\n        /* \"#utility.yul\":742:747   */\n      0x00\n        /* \"#utility.yul\":780:786   */\n      dup2\n        /* \"#utility.yul\":767:787   */\n      calldataload\n        /* \"#utility.yul\":758:787   */\n      swap1\n      pop\n        /* \"#utility.yul\":796:829   */\n      tag_99\n        /* \"#utility.yul\":823:828   */\n      dup2\n        /* \"#utility.yul\":796:829   */\n      tag_76\n      jump\t// in\n    tag_99:\n        /* \"#utility.yul\":696:835   */\n      swap3\n      swap2\n      pop\n      pop\n      jump\t// out\n        /* \"#utility.yul\":841:918   */\n    tag_78:\n        /* \"#utility.yul\":878:885   */\n      0x00\n        /* \"#utility.yul\":907:912   */\n      dup2\n        /* \"#utility.yul\":896:912   */\n      swap1\n      pop\n        /* \"#utility.yul\":841:918   */\n      swap2\n      swap1\n      pop\n      jump\t// out\n        /* \"#utility.yul\":924:1046   */\n    tag_79:\n        /* \"#utility.yul\":997:1021   */\n      tag_102\n        /* \"#utility.yul\":1015:1020   */\n      dup2\n        /* \"#utility.yul\":997:1021   */\n      tag_78\n      jump\t// in\n    tag_102:\n        /* \"#utility.yul\":990:995   */\n      dup2\n        /* \"#utility.yul\":987:1022   */\n      eq\n        /* \"#utility.yul\":977:1040   */\n      tag_103\n      jumpi\n        /* \"#utility.yul\":1036:1037   */\n      0x00\n        /* \"#utility.yul\":1033:1034   */\n      dup1\n        /* \"#utility.yul\":1026:1038   */\n      revert\n        /* \"#utility.yul\":977:1040   */\n    tag_103:\n        /* \"#utility.yul\":924:1046   */\n      pop\n      jump\t// out\n        /* \"#utility.yul\":1052:1191   */\n    tag_80:\n        /* \"#utility.yul\":1098:1103   */\n      0x00\n        /* \"#utility.yul\":1136:1142   */\n      dup2\n        /* \"#utility.yul\":1123:1143   */\n      calldataload\n        /* \"#utility.yul\":1114:1143   */\n      swap1\n      pop\n        /* \"#utility.yul\":1152:1185   */\n      tag_105\n        /* \"#utility.yul\":1179:1184   */\n      dup2\n        /* \"#utility.yul\":1152:1185   */\n      tag_79\n      jump\t// in\n    tag_105:\n        /* \"#utility.yul\":1052:1191   */\n      swap3\n      swap2\n      pop\n      pop\n      jump\t// out\n        /* \"#utility.yul\":1197:1671   */\n    tag_14:\n        /* \"#utility.yul\":1265:1271   */\n      0x00\n        /* \"#utility.yul\":1273:1279   */\n      dup1\n        /* \"#utility.yul\":1322:1324   */\n      0x40\n        /* \"#utility.yul\":1310:1319   */\n      dup4\n        /* \"#utility.yul\":1301:1308   */\n      dup6\n        /* \"#utility.yul\":1297:1320   */\n      sub\n        /* \"#utility.yul\":1293:1325   */\n      slt\n        /* \"#utility.yul\":1290:1409   */\n      iszero\n      tag_107\n      jumpi\n        /* \"#utility.yul\":1328:1407   */\n      tag_108\n      tag_72\n      jump\t// in\n    tag_108:\n        /* \"#utility.yul\":1290:1409   */\n    tag_107:\n        /* \"#utility.yul\":1448:1449   */\n      0x00\n        /* \"#utility.yul\":1473:1526   */\n      tag_109\n        /* \"#utility.yul\":1518:1525   */\n      dup6\n        /* \"#utility.yul\":1509:1515   */\n      dup3\n        /* \"#utility.yul\":1498:1507   */\n      dup7\n        /* \"#utility.yul\":1494:1516   */\n      add\n        /* \"#utility.yul\":1473:1526   */\n      tag_77\n      jump\t// in\n    tag_109:\n        /* \"#utility.yul\":1463:1526   */\n      swap3\n      pop\n        /* \"#utility.yul\":1419:1536   */\n      pop\n        /* \"#utility.yul\":1575:1577   */\n      0x20\n        /* \"#utility.yul\":1601:1654   */\n      tag_110\n        /* \"#utility.yul\":1646:1653   */\n      dup6\n        /* \"#utility.yul\":1637:1643   */\n      dup3\n        /* \"#utility.yul\":1626:1635   */\n      dup7\n        /* \"#utility.yul\":1622:1644   */\n      add\n        /* \"#utility.yul\":1601:1654   */\n      tag_80\n      jump\t// in\n    tag_110:\n        /* \"#utility.yul\":1591:1654   */\n      swap2\n      pop\n        /* \"#utility.yul\":1546:1664   */\n      pop\n        /* \"#utility.yul\":1197:1671   */\n      swap3\n      pop\n      swap3\n      swap1\n      pop\n      jump\t// out\n        /* \"#utility.yul\":1677:1785   */\n    tag_81:\n        /* \"#utility.yul\":1754:1778   */\n      tag_112\n        /* \"#utility.yul\":1772:1777   */\n      dup2\n        /* \"#utility.yul\":1754:1778   */\n      tag_78\n      jump\t// in\n    tag_112:\n        /* \"#utility.yul\":1749:1752   */\n      dup3\n        /* \"#utility.yul\":1742:1779   */\n      mstore\n        /* \"#utility.yul\":1677:1785   */\n      pop\n      pop\n      jump\t// out\n        /* \"#utility.yul\":1847:2363   */\n    tag_82:\n        /* \"#utility.yul\":1996:2000   */\n      0x40\n        /* \"#utility.yul\":1991:1994   */\n      dup3\n        /* \"#utility.yul\":1987:2001   */\n      add\n        /* \"#utility.yul\":2085:2089   */\n      0x00\n        /* \"#utility.yul\":2078:2083   */\n      dup3\n        /* \"#utility.yul\":2074:2090   */\n      add\n        /* \"#utility.yul\":2068:2091   */\n      mload\n        /* \"#utility.yul\":2104:2167   */\n      tag_114\n        /* \"#utility.yul\":2161:2165   */\n      0x00\n        /* \"#utility.yul\":2156:2159   */\n      dup6\n        /* \"#utility.yul\":2152:2166   */\n      add\n        /* \"#utility.yul\":2138:2150   */\n      dup3\n        /* \"#utility.yul\":2104:2167   */\n      tag_81\n      jump\t// in\n    tag_114:\n        /* \"#utility.yul\":2011:2177   */\n      pop\n        /* \"#utility.yul\":2264:2268   */\n      0x20\n        /* \"#utility.yul\":2257:2262   */\n      dup3\n        /* \"#utility.yul\":2253:2269   */\n      add\n        /* \"#utility.yul\":2247:2270   */\n      mload\n        /* \"#utility.yul\":2283:2346   */\n      tag_115\n        /* \"#utility.yul\":2340:2344   */\n      0x20\n        /* \"#utility.yul\":2335:2338   */\n      dup6\n        /* \"#utility.yul\":2331:2345   */\n      add\n        /* \"#utility.yul\":2317:2329   */\n      dup3\n        /* \"#utility.yul\":2283:2346   */\n      tag_81\n      jump\t// in\n    tag_115:\n        /* \"#utility.yul\":2187:2356   */\n      pop\n        /* \"#utility.yul\":1965:2363   */\n      pop\n        /* \"#utility.yul\":1847:2363   */\n      pop\n      pop\n      jump\t// out\n        /* \"#utility.yul\":2369:2695   */\n    tag_17:\n        /* \"#utility.yul\":2514:2518   */\n      0x00\n        /* \"#utility.yul\":2552:2554   */\n      0x40\n        /* \"#utility.yul\":2541:2550   */\n      dup3\n        /* \"#utility.yul\":2537:2555   */\n      add\n        /* \"#utility.yul\":2529:2555   */\n      swap1\n      pop\n        /* \"#utility.yul\":2565:2688   */\n      tag_117\n        /* \"#utility.yul\":2685:2686   */\n      0x00\n        /* \"#utility.yul\":2674:2683   */\n      dup4\n        /* \"#utility.yul\":2670:2687   */\n      add\n        /* \"#utility.yul\":2661:2667   */\n      dup5\n        /* \"#utility.yul\":2565:2688   */\n      tag_82\n      jump\t// in\n    tag_117:\n        /* \"#utility.yul\":2369:2695   */\n      swap3\n      swap2\n      pop\n      pop\n      jump\t// out\n        /* \"#utility.yul\":2701:3175   */\n    tag_26:\n        /* \"#utility.yul\":2769:2775   */\n      0x00\n        /* \"#utility.yul\":2777:2783   */\n      dup1\n        /* \"#utility.yul\":2826:2828   */\n      0x40\n        /* \"#utility.yul\":2814:2823   */\n      dup4\n        /* \"#utility.yul\":2805:2812   */\n      dup6\n        /* \"#utility.yul\":2801:2824   */\n      sub\n        /* \"#utility.yul\":2797:2829   */\n      slt\n        /* \"#utility.yul\":2794:2913   */\n      iszero\n      tag_119\n      jumpi\n        /* \"#utility.yul\":2832:2911   */\n      tag_120\n      tag_72\n      jump\t// in\n    tag_120:\n        /* \"#utility.yul\":2794:2913   */\n    tag_119:\n        /* \"#utility.yul\":2952:2953   */\n      0x00\n        /* \"#utility.yul\":2977:3030   */\n      tag_121\n        /* \"#utility.yul\":3022:3029   */\n      dup6\n        /* \"#utility.yul\":3013:3019   */\n      dup3\n        /* \"#utility.yul\":3002:3011   */\n      dup7\n        /* \"#utility.yul\":2998:3020   */\n      add\n        /* \"#utility.yul\":2977:3030   */\n      tag_80\n      jump\t// in\n    tag_121:\n        /* \"#utility.yul\":2967:3030   */\n      swap3\n      pop\n        /* \"#utility.yul\":2923:3040   */\n      pop\n        /* \"#utility.yul\":3079:3081   */\n      0x20\n        /* \"#utility.yul\":3105:3158   */\n      tag_122\n        /* \"#utility.yul\":3150:3157   */\n      dup6\n        /* \"#utility.yul\":3141:3147   */\n      dup3\n        /* \"#utility.yul\":3130:3139   */\n      dup7\n        /* \"#utility.yul\":3126:3148   */\n      add\n        /* \"#utility.yul\":3105:3158   */\n      tag_77\n      jump\t// in\n    tag_122:\n        /* \"#utility.yul\":3095:3158   */\n      swap2\n      pop\n        /* \"#utility.yul\":3050:3168   */\n      pop\n        /* \"#utility.yul\":2701:3175   */\n      swap3\n      pop\n      swap3\n      swap1\n      pop\n      jump\t// out\n        /* \"#utility.yul\":3181:3510   */\n    tag_39:\n        /* \"#utility.yul\":3240:3246   */\n      0x00\n        /* \"#utility.yul\":3289:3291   */\n      0x20\n        /* \"#utility.yul\":3277:3286   */\n      dup3\n        /* \"#utility.yul\":3268:3275   */\n      dup5\n        /* \"#utility.yul\":3264:3287   */\n      sub\n        /* \"#utility.yul\":3260:3292   */\n      slt\n        /* \"#utility.yul\":3257:3376   */\n      iszero\n      tag_124\n      jumpi\n        /* \"#utility.yul\":3295:3374   */\n      tag_125\n      tag_72\n      jump\t// in\n    tag_125:\n        /* \"#utility.yul\":3257:3376   */\n    tag_124:\n        /* \"#utility.yul\":3415:3416   */\n      0x00\n        /* \"#utility.yul\":3440:3493   */\n      tag_126\n        /* \"#utility.yul\":3485:3492   */\n      dup5\n        /* \"#utility.yul\":3476:3482   */\n      dup3\n        /* \"#utility.yul\":3465:3474   */\n      dup6\n        /* \"#utility.yul\":3461:3483   */\n      add\n        /* \"#utility.yul\":3440:3493   */\n      tag_77\n      jump\t// in\n    tag_126:\n        /* \"#utility.yul\":3430:3493   */\n      swap2\n      pop\n        /* \"#utility.yul\":3386:3503   */\n      pop\n        /* \"#utility.yul\":3181:3510   */\n      swap3\n      swap2\n      pop\n      pop\n      jump\t// out\n        /* \"#utility.yul\":3516:3634   */\n    tag_83:\n        /* \"#utility.yul\":3603:3627   */\n      tag_128\n        /* \"#utility.yul\":3621:3626   */\n      dup2\n        /* \"#utility.yul\":3603:3627   */\n      tag_78\n      jump\t// in\n    tag_128:\n        /* \"#utility.yul\":3598:3601   */\n      dup3\n        /* \"#utility.yul\":3591:3628   */\n      mstore\n        /* \"#utility.yul\":3516:3634   */\n      pop\n      pop\n      jump\t// out\n        /* \"#utility.yul\":3640:4193   */\n    tag_42:\n        /* \"#utility.yul\":3817:3821   */\n      0x00\n        /* \"#utility.yul\":3855:3858   */\n      0x80\n        /* \"#utility.yul\":3844:3853   */\n      dup3\n        /* \"#utility.yul\":3840:3859   */\n      add\n        /* \"#utility.yul\":3832:3859   */\n      swap1\n      pop\n        /* \"#utility.yul\":3869:3940   */\n      tag_130\n        /* \"#utility.yul\":3937:3938   */\n      0x00\n        /* \"#utility.yul\":3926:3935   */\n      dup4\n        /* \"#utility.yul\":3922:3939   */\n      add\n        /* \"#utility.yul\":3913:3919   */\n      dup8\n        /* \"#utility.yul\":3869:3940   */\n      tag_83\n      jump\t// in\n    tag_130:\n        /* \"#utility.yul\":3950:4022   */\n      tag_131\n        /* \"#utility.yul\":4018:4020   */\n      0x20\n        /* \"#utility.yul\":4007:4016   */\n      dup4\n        /* \"#utility.yul\":4003:4021   */\n      add\n        /* \"#utility.yul\":3994:4000   */\n      dup7\n        /* \"#utility.yul\":3950:4022   */\n      tag_83\n      jump\t// in\n    tag_131:\n        /* \"#utility.yul\":4032:4104   */\n      tag_132\n        /* \"#utility.yul\":4100:4102   */\n      0x40\n        /* \"#utility.yul\":4089:4098   */\n      dup4\n        /* \"#utility.yul\":4085:4103   */\n      add\n        /* \"#utility.yul\":4076:4082   */\n      dup6\n        /* \"#utility.yul\":4032:4104   */\n      tag_83\n      jump\t// in\n    tag_132:\n        /* \"#utility.yul\":4114:4186   */\n      tag_133\n        /* \"#utility.yul\":4182:4184   */\n      0x60\n        /* \"#utility.yul\":4171:4180   */\n      dup4\n        /* \"#utility.yul\":4167:4185   */\n      add\n        /* \"#utility.yul\":4158:4164   */\n      dup5\n        /* \"#utility.yul\":4114:4186   */\n      tag_83\n      jump\t// in\n    tag_133:\n        /* \"#utility.yul\":3640:4193   */\n      swap6\n      swap5\n      pop\n      pop\n      pop\n      pop\n      pop\n      jump\t// out\n        /* \"#utility.yul\":4199:4303   */\n    tag_84:\n        /* \"#utility.yul\":4244:4251   */\n      0x00\n        /* \"#utility.yul\":4273:4297   */\n      tag_135\n        /* \"#utility.yul\":4291:4296   */\n      dup3\n        /* \"#utility.yul\":4273:4297   */\n      tag_74\n      jump\t// in\n    tag_135:\n        /* \"#utility.yul\":4262:4297   */\n      swap1\n      pop\n        /* \"#utility.yul\":4199:4303   */\n      swap2\n      swap1\n      pop\n      jump\t// out\n        /* \"#utility.yul\":4309:4447   */\n    tag_85:\n        /* \"#utility.yul\":4390:4422   */\n      tag_137\n        /* \"#utility.yul\":4416:4421   */\n      dup2\n        /* \"#utility.yul\":4390:4422   */\n      tag_84\n      jump\t// in\n    tag_137:\n        /* \"#utility.yul\":4383:4388   */\n      dup2\n        /* \"#utility.yul\":4380:4423   */\n      eq\n        /* \"#utility.yul\":4370:4441   */\n      tag_138\n      jumpi\n        /* \"#utility.yul\":4437:4438   */\n      0x00\n        /* \"#utility.yul\":4434:4435   */\n      dup1\n        /* \"#utility.yul\":4427:4439   */\n      revert\n        /* \"#utility.yul\":4370:4441   */\n    tag_138:\n        /* \"#utility.yul\":4309:4447   */\n      pop\n      jump\t// out\n        /* \"#utility.yul\":4453:4608   */\n    tag_86:\n        /* \"#utility.yul\":4507:4512   */\n      0x00\n        /* \"#utility.yul\":4545:4551   */\n      dup2\n        /* \"#utility.yul\":4532:4552   */\n      calldataload\n        /* \"#utility.yul\":4523:4552   */\n      swap1\n      pop\n        /* \"#utility.yul\":4561:4602   */\n      tag_140\n        /* \"#utility.yul\":4596:4601   */\n      dup2\n        /* \"#utility.yul\":4561:4602   */\n      tag_85\n      jump\t// in\n    tag_140:\n        /* \"#utility.yul\":4453:4608   */\n      swap3\n      swap2\n      pop\n      pop\n      jump\t// out\n        /* \"#utility.yul\":4614:5104   */\n    tag_46:\n        /* \"#utility.yul\":4690:4696   */\n      0x00\n        /* \"#utility.yul\":4698:4704   */\n      dup1\n        /* \"#utility.yul\":4747:4749   */\n      0x40\n        /* \"#utility.yul\":4735:4744   */\n      dup4\n        /* \"#utility.yul\":4726:4733   */\n      dup6\n        /* \"#utility.yul\":4722:4745   */\n      sub\n        /* \"#utility.yul\":4718:4750   */\n      slt\n        /* \"#utility.yul\":4715:4834   */\n      iszero\n      tag_142\n      jumpi\n        /* \"#utility.yul\":4753:4832   */\n      tag_143\n      tag_72\n      jump\t// in\n    tag_143:\n        /* \"#utility.yul\":4715:4834   */\n    tag_142:\n        /* \"#utility.yul\":4873:4874   */\n      0x00\n        /* \"#utility.yul\":4898:4959   */\n      tag_144\n        /* \"#utility.yul\":4951:4958   */\n      dup6\n        /* \"#utility.yul\":4942:4948   */\n      dup3\n        /* \"#utility.yul\":4931:4940   */\n      dup7\n        /* \"#utility.yul\":4927:4949   */\n      add\n        /* \"#utility.yul\":4898:4959   */\n      tag_86\n      jump\t// in\n    tag_144:\n        /* \"#utility.yul\":4888:4959   */\n      swap3\n      pop\n        /* \"#utility.yul\":4844:4969   */\n      pop\n        /* \"#utility.yul\":5008:5010   */\n      0x20\n        /* \"#utility.yul\":5034:5087   */\n      tag_145\n        /* \"#utility.yul\":5079:5086   */\n      dup6\n        /* \"#utility.yul\":5070:5076   */\n      dup3\n        /* \"#utility.yul\":5059:5068   */\n      dup7\n        /* \"#utility.yul\":5055:5077   */\n      add\n        /* \"#utility.yul\":5034:5087   */\n      tag_80\n      jump\t// in\n    tag_145:\n        /* \"#utility.yul\":5024:5087   */\n      swap2\n      pop\n        /* \"#utility.yul\":4979:5097   */\n      pop\n        /* \"#utility.yul\":4614:5104   */\n      swap3\n      pop\n      swap3\n      swap1\n      pop\n      jump\t// out\n        /* \"#utility.yul\":5110:5290   */\n    tag_87:\n        /* \"#utility.yul\":5158:5235   */\n      0x4e487b7100000000000000000000000000000000000000000000000000000000\n        /* \"#utility.yul\":5155:5156   */\n      0x00\n        /* \"#utility.yul\":5148:5236   */\n      mstore\n        /* \"#utility.yul\":5255:5259   */\n      0x11\n        /* \"#utility.yul\":5252:5253   */\n      0x04\n        /* \"#utility.yul\":5245:5260   */\n      mstore\n        /* \"#utility.yul\":5279:5283   */\n      0x24\n        /* \"#utility.yul\":5276:5277   */\n      0x00\n        /* \"#utility.yul\":5269:5284   */\n      revert\n        /* \"#utility.yul\":5296:5529   */\n    tag_57:\n        /* \"#utility.yul\":5335:5338   */\n      0x00\n        /* \"#utility.yul\":5358:5382   */\n      tag_148\n        /* \"#utility.yul\":5376:5381   */\n      dup3\n        /* \"#utility.yul\":5358:5382   */\n      tag_78\n      jump\t// in\n    tag_148:\n        /* \"#utility.yul\":5349:5382   */\n      swap2\n      pop\n        /* \"#utility.yul\":5404:5470   */\n      0xffffffffffffffffffffffffffffffffffffffffffffffffffffffffffffffff\n        /* \"#utility.yul\":5397:5402   */\n      dup3\n        /* \"#utility.yul\":5394:5471   */\n      sub\n        /* \"#utility.yul\":5391:5494   */\n      tag_149\n      jumpi\n        /* \"#utility.yul\":5474:5492   */\n      tag_150\n      tag_87\n      jump\t// in\n    tag_150:\n        /* \"#utility.yul\":5391:5494   */\n    tag_149:\n        /* \"#utility.yul\":5521:5522   */\n      0x01\n        /* \"#utility.yul\":5514:5519   */\n      dup3\n        /* \"#utility.yul\":5510:5523   */\n      add\n        /* \"#utility.yul\":5503:5523   */\n      swap1\n      pop\n        /* \"#utility.yul\":5296:5529   */\n      swap2\n      swap1\n      pop\n      jump\t// out\n        /* \"#utility.yul\":5535:5729   */\n    tag_63:\n        /* \"#utility.yul\":5575:5579   */\n      0x00\n        /* \"#utility.yul\":5595:5615   */\n      tag_152\n        /* \"#utility.yul\":5613:5614   */\n      dup3\n        /* \"#utility.yul\":5595:5615   */\n      tag_78\n      jump\t// in\n    tag_152:\n        /* \"#utility.yul\":5590:5615   */\n      swap2\n      pop\n        /* \"#utility.yul\":5629:5649   */\n      tag_153\n        /* \"#utility.yul\":5647:5648   */\n      dup4\n        /* \"#utility.yul\":5629:5649   */\n      tag_78\n      jump\t// in\n    tag_153:\n        /* \"#utility.yul\":5624:5649   */\n      swap3\n      pop\n        /* \"#utility.yul\":5673:5674   */\n      dup3\n        /* \"#utility.yul\":5670:5671   */\n      dup3\n        /* \"#utility.yul\":5666:5675   */\n      sub\n        /* \"#utility.yul\":5658:5675   */\n      swap1\n      pop\n        /* \"#utility.yul\":5697:5698   */\n      dup2\n        /* \"#utility.yul\":5691:5695   */\n      dup2\n        /* \"#utility.yul\":5688:5699   */\n      gt\n        /* \"#utility.yul\":5685:5722   */\n      iszero\n      tag_154\n      jumpi\n        /* \"#utility.yul\":5702:5720   */\n      tag_155\n      tag_87\n      jump\t// in\n    tag_155:\n        /* \"#utility.yul\":5685:5722   */\n    tag_154:\n        /* \"#utility.yul\":5535:5729   */\n      swap3\n      swap2\n      pop\n      pop\n      jump\t// out\n        /* \"#utility.yul\":5735:5926   */\n    tag_69:\n        /* \"#utility.yul\":5775:5778   */\n      0x00\n        /* \"#utility.yul\":5794:5814   */\n      tag_157\n        /* \"#utility.yul\":5812:5813   */\n      dup3\n        /* \"#utility.yul\":5794:5814   */\n      tag_78\n      jump\t// in\n    tag_157:\n        /* \"#utility.yul\":5789:5814   */\n      swap2\n      pop\n        /* \"#utility.yul\":5828:5848   */\n      tag_158\n        /* \"#utility.yul\":5846:5847   */\n      dup4\n        /* \"#utility.yul\":5828:5848   */\n      tag_78\n      jump\t// in\n    tag_158:\n        /* \"#utility.yul\":5823:5848   */\n      swap3\n      pop\n        /* \"#utility.yul\":5871:5872   */\n      dup3\n        /* \"#utility.yul\":5868:5869   */\n      dup3\n        /* \"#utility.yul\":5864:5873   */\n      add\n        /* \"#utility.yul\":5857:5873   */\n      swap1\n      pop\n        /* \"#utility.yul\":5892:5895   */\n      dup1\n        /* \"#utility.yul\":5889:5890   */\n      dup3\n        /* \"#utility.yul\":5886:5896   */\n      gt\n        /* \"#utility.yul\":5883:5919   */\n      iszero\n      tag_159\n      jumpi\n        /* \"#utility.yul\":5899:5917   */\n      tag_160\n      tag_87\n      jump\t// in\n    tag_160:\n        /* \"#utility.yul\":5883:5919   */\n    tag_159:\n        /* \"#utility.yul\":5735:5926   */\n      swap3\n      swap2\n      pop\n      pop\n      jump\t// out\n\n    auxdata: 0xa26469706673582212204f780f0681f7185516b700e1e52bd8a18179103f8b8c2d6b5c1ac5c817d9e79564736f6c63430008120033\n}\n",
				"bytecode": {
					"linkReferences": {},
					"object": "608060405234801561001057600080fd5b50610b9c806100206000396000f3fe60806040526004361061007b5760003560e01c80637878ad471161004e5780637878ad471461013a57806392601e1214610177578063ab933177146101b7578063ed21248c146101e05761007b565b806309e9bd25146100805780631b72f9de146100bd5780632591e9f6146100fa5780634d9b3d5d14610123575b600080fd5b34801561008c57600080fd5b506100a760048036038101906100a291906108af565b6101ea565b6040516100b4919061092d565b60405180910390f35b3480156100c957600080fd5b506100e460048036038101906100df91906108af565b61026c565b6040516100f1919061092d565b60405180910390f35b34801561010657600080fd5b50610121600480360381019061011c9190610948565b6102ee565b005b34801561012f57600080fd5b5061013861040b565b005b34801561014657600080fd5b50610161600480360381019061015c91906108af565b61040d565b60405161016e919061092d565b60405180910390f35b34801561018357600080fd5b5061019e60048036038101906101999190610988565b61048f565b6040516101ae94939291906109c4565b60405180910390f35b3480156101c357600080fd5b506101de60048036038101906101d99190610a47565b6104bf565b005b6101e8610682565b005b6101f26107fc565b600260008473ffffffffffffffffffffffffffffffffffffffff1673ffffffffffffffffffffffffffffffffffffffff168152602001908152602001600020600501600083815260200190815260200160002060405180604001604052908160008201548152602001600182015481525050905092915050565b6102746107fc565b600260008473ffffffffffffffffffffffffffffffffffffffff1673ffffffffffffffffffffffffffffffffffffffff168152602001908152602001600020600401600083815260200190815260200160002060405180604001604052908160008201548152602001600182015481525050905092915050565b816000800181905550426000600101819055506000600260008373ffffffffffffffffffffffffffffffffffffffff1673ffffffffffffffffffffffffffffffffffffffff1681526020019081526020016000206005016000600260008573ffffffffffffffffffffffffffffffffffffffff1673ffffffffffffffffffffffffffffffffffffffff1681526020019081526020016000206006015481526020019081526020016000206000820154816000015560018201548160010155905050600260003373ffffffffffffffffffffffffffffffffffffffff1673ffffffffffffffffffffffffffffffffffffffff168152602001908152602001600020600601600081548092919061040290610ab6565b91905055505050565b565b6104156107fc565b600260008473ffffffffffffffffffffffffffffffffffffffff1673ffffffffffffffffffffffffffffffffffffffff168152602001908152602001600020600201600083815260200190815260200160002060405180604001604052908160008201548152602001600182015481525050905092915050565b60026020528060005260406000206000915090508060000154908060010154908060030154908060060154905084565b80600260003373ffffffffffffffffffffffffffffffffffffffff1673ffffffffffffffffffffffffffffffffffffffff16815260200190815260200160002060000160008282546105119190610afe565b925050819055506000604051806040016040528083815260200142815250905080600260003373ffffffffffffffffffffffffffffffffffffffff1673ffffffffffffffffffffffffffffffffffffffff1681526020019081526020016000206004016000600260003373ffffffffffffffffffffffffffffffffffffffff1673ffffffffffffffffffffffffffffffffffffffff1681526020019081526020016000206003015481526020019081526020016000206000820151816000015560208201518160010155905050600260003373ffffffffffffffffffffffffffffffffffffffff1673ffffffffffffffffffffffffffffffffffffffff168152602001908152602001600020600301600081548092919061063190610ab6565b91905055508273ffffffffffffffffffffffffffffffffffffffff166108fc839081150290604051600060405180830381858888f1935050505015801561067c573d6000803e3d6000fd5b50505050565b34600260003373ffffffffffffffffffffffffffffffffffffffff1673ffffffffffffffffffffffffffffffffffffffff16815260200190815260200160002060000160008282546106d49190610b32565b925050819055506000604051806040016040528034815260200142815250905080600260003373ffffffffffffffffffffffffffffffffffffffff1673ffffffffffffffffffffffffffffffffffffffff1681526020019081526020016000206002016000600260003373ffffffffffffffffffffffffffffffffffffffff1673ffffffffffffffffffffffffffffffffffffffff1681526020019081526020016000206001015481526020019081526020016000206000820151816000015560208201518160010155905050600260003373ffffffffffffffffffffffffffffffffffffffff1673ffffffffffffffffffffffffffffffffffffffff16815260200190815260200160002060010160008154809291906107f490610ab6565b919050555050565b604051806040016040528060008152602001600081525090565b600080fd5b600073ffffffffffffffffffffffffffffffffffffffff82169050919050565b60006108468261081b565b9050919050565b6108568161083b565b811461086157600080fd5b50565b6000813590506108738161084d565b92915050565b6000819050919050565b61088c81610879565b811461089757600080fd5b50565b6000813590506108a981610883565b92915050565b600080604083850312156108c6576108c5610816565b5b60006108d485828601610864565b92505060206108e58582860161089a565b9150509250929050565b6108f881610879565b82525050565b60408201600082015161091460008501826108ef565b50602082015161092760208501826108ef565b50505050565b600060408201905061094260008301846108fe565b92915050565b6000806040838503121561095f5761095e610816565b5b600061096d8582860161089a565b925050602061097e85828601610864565b9150509250929050565b60006020828403121561099e5761099d610816565b5b60006109ac84828501610864565b91505092915050565b6109be81610879565b82525050565b60006080820190506109d960008301876109b5565b6109e660208301866109b5565b6109f360408301856109b5565b610a0060608301846109b5565b95945050505050565b6000610a148261081b565b9050919050565b610a2481610a09565b8114610a2f57600080fd5b50565b600081359050610a4181610a1b565b92915050565b60008060408385031215610a5e57610a5d610816565b5b6000610a6c85828601610a32565b9250506020610a7d8582860161089a565b9150509250929050565b7f4e487b7100000000000000000000000000000000000000000000000000000000600052601160045260246000fd5b6000610ac182610879565b91507fffffffffffffffffffffffffffffffffffffffffffffffffffffffffffffffff8203610af357610af2610a87565b5b600182019050919050565b6000610b0982610879565b9150610b1483610879565b9250828203905081811115610b2c57610b2b610a87565b5b92915050565b6000610b3d82610879565b9150610b4883610879565b9250828201905080821115610b6057610b5f610a87565b5b9291505056fea26469706673582212204f780f0681f7185516b700e1e52bd8a18179103f8b8c2d6b5c1ac5c817d9e79564736f6c63430008120033",
					"opcodes": "PUSH1 0x80 PUSH1 0x40 MSTORE CALLVALUE DUP1 ISZERO PUSH2 0x10 JUMPI PUSH1 0x0 DUP1 REVERT JUMPDEST POP PUSH2 0xB9C DUP1 PUSH2 0x20 PUSH1 0x0 CODECOPY PUSH1 0x0 RETURN INVALID PUSH1 0x80 PUSH1 0x40 MSTORE PUSH1 0x4 CALLDATASIZE LT PUSH2 0x7B JUMPI PUSH1 0x0 CALLDATALOAD PUSH1 0xE0 SHR DUP1 PUSH4 0x7878AD47 GT PUSH2 0x4E JUMPI DUP1 PUSH4 0x7878AD47 EQ PUSH2 0x13A JUMPI DUP1 PUSH4 0x92601E12 EQ PUSH2 0x177 JUMPI DUP1 PUSH4 0xAB933177 EQ PUSH2 0x1B7 JUMPI DUP1 PUSH4 0xED21248C EQ PUSH2 0x1E0 JUMPI PUSH2 0x7B JUMP JUMPDEST DUP1 PUSH4 0x9E9BD25 EQ PUSH2 0x80 JUMPI DUP1 PUSH4 0x1B72F9DE EQ PUSH2 0xBD JUMPI DUP1 PUSH4 0x2591E9F6 EQ PUSH2 0xFA JUMPI DUP1 PUSH4 0x4D9B3D5D EQ PUSH2 0x123 JUMPI JUMPDEST PUSH1 0x0 DUP1 REVERT JUMPDEST CALLVALUE DUP1 ISZERO PUSH2 0x8C JUMPI PUSH1 0x0 DUP1 REVERT JUMPDEST POP PUSH2 0xA7 PUSH1 0x4 DUP1 CALLDATASIZE SUB DUP2 ADD SWAP1 PUSH2 0xA2 SWAP2 SWAP1 PUSH2 0x8AF JUMP JUMPDEST PUSH2 0x1EA JUMP JUMPDEST PUSH1 0x40 MLOAD PUSH2 0xB4 SWAP2 SWAP1 PUSH2 0x92D JUMP JUMPDEST PUSH1 0x40 MLOAD DUP1 SWAP2 SUB SWAP1 RETURN JUMPDEST CALLVALUE DUP1 ISZERO PUSH2 0xC9 JUMPI PUSH1 0x0 DUP1 REVERT JUMPDEST POP PUSH2 0xE4 PUSH1 0x4 DUP1 CALLDATASIZE SUB DUP2 ADD SWAP1 PUSH2 0xDF SWAP2 SWAP1 PUSH2 0x8AF JUMP JUMPDEST PUSH2 0x26C JUMP JUMPDEST PUSH1 0x40 MLOAD PUSH2 0xF1 SWAP2 SWAP1 PUSH2 0x92D JUMP JUMPDEST PUSH1 0x40 MLOAD DUP1 SWAP2 SUB SWAP1 RETURN JUMPDEST CALLVALUE DUP1 ISZERO PUSH2 0x106 JUMPI PUSH1 0x0 DUP1 REVERT JUMPDEST POP PUSH2 0x121 PUSH1 0x4 DUP1 CALLDATASIZE SUB DUP2 ADD SWAP1 PUSH2 0x11C SWAP2 SWAP1 PUSH2 0x948 JUMP JUMPDEST PUSH2 0x2EE JUMP JUMPDEST STOP JUMPDEST CALLVALUE DUP1 ISZERO PUSH2 0x12F JUMPI PUSH1 0x0 DUP1 REVERT JUMPDEST POP PUSH2 0x138 PUSH2 0x40B JUMP JUMPDEST STOP JUMPDEST CALLVALUE DUP1 ISZERO PUSH2 0x146 JUMPI PUSH1 0x0 DUP1 REVERT JUMPDEST POP PUSH2 0x161 PUSH1 0x4 DUP1 CALLDATASIZE SUB DUP2 ADD SWAP1 PUSH2 0x15C SWAP2 SWAP1 PUSH2 0x8AF JUMP JUMPDEST PUSH2 0x40D JUMP JUMPDEST PUSH1 0x40 MLOAD PUSH2 0x16E SWAP2 SWAP1 PUSH2 0x92D JUMP JUMPDEST PUSH1 0x40 MLOAD DUP1 SWAP2 SUB SWAP1 RETURN JUMPDEST CALLVALUE DUP1 ISZERO PUSH2 0x183 JUMPI PUSH1 0x0 DUP1 REVERT JUMPDEST POP PUSH2 0x19E PUSH1 0x4 DUP1 CALLDATASIZE SUB DUP2 ADD SWAP1 PUSH2 0x199 SWAP2 SWAP1 PUSH2 0x988 JUMP JUMPDEST PUSH2 0x48F JUMP JUMPDEST PUSH1 0x40 MLOAD PUSH2 0x1AE SWAP5 SWAP4 SWAP3 SWAP2 SWAP1 PUSH2 0x9C4 JUMP JUMPDEST PUSH1 0x40 MLOAD DUP1 SWAP2 SUB SWAP1 RETURN JUMPDEST CALLVALUE DUP1 ISZERO PUSH2 0x1C3 JUMPI PUSH1 0x0 DUP1 REVERT JUMPDEST POP PUSH2 0x1DE PUSH1 0x4 DUP1 CALLDATASIZE SUB DUP2 ADD SWAP1 PUSH2 0x1D9 SWAP2 SWAP1 PUSH2 0xA47 JUMP JUMPDEST PUSH2 0x4BF JUMP JUMPDEST STOP JUMPDEST PUSH2 0x1E8 PUSH2 0x682 JUMP JUMPDEST STOP JUMPDEST PUSH2 0x1F2 PUSH2 0x7FC JUMP JUMPDEST PUSH1 0x2 PUSH1 0x0 DUP5 PUSH20 0xFFFFFFFFFFFFFFFFFFFFFFFFFFFFFFFFFFFFFFFF AND PUSH20 0xFFFFFFFFFFFFFFFFFFFFFFFFFFFFFFFFFFFFFFFF AND DUP2 MSTORE PUSH1 0x20 ADD SWAP1 DUP2 MSTORE PUSH1 0x20 ADD PUSH1 0x0 KECCAK256 PUSH1 0x5 ADD PUSH1 0x0 DUP4 DUP2 MSTORE PUSH1 0x20 ADD SWAP1 DUP2 MSTORE PUSH1 0x20 ADD PUSH1 0x0 KECCAK256 PUSH1 0x40 MLOAD DUP1 PUSH1 0x40 ADD PUSH1 0x40 MSTORE SWAP1 DUP2 PUSH1 0x0 DUP3 ADD SLOAD DUP2 MSTORE PUSH1 0x20 ADD PUSH1 0x1 DUP3 ADD SLOAD DUP2 MSTORE POP POP SWAP1 POP SWAP3 SWAP2 POP POP JUMP JUMPDEST PUSH2 0x274 PUSH2 0x7FC JUMP JUMPDEST PUSH1 0x2 PUSH1 0x0 DUP5 PUSH20 0xFFFFFFFFFFFFFFFFFFFFFFFFFFFFFFFFFFFFFFFF AND PUSH20 0xFFFFFFFFFFFFFFFFFFFFFFFFFFFFFFFFFFFFFFFF AND DUP2 MSTORE PUSH1 0x20 ADD SWAP1 DUP2 MSTORE PUSH1 0x20 ADD PUSH1 0x0 KECCAK256 PUSH1 0x4 ADD PUSH1 0x0 DUP4 DUP2 MSTORE PUSH1 0x20 ADD SWAP1 DUP2 MSTORE PUSH1 0x20 ADD PUSH1 0x0 KECCAK256 PUSH1 0x40 MLOAD DUP1 PUSH1 0x40 ADD PUSH1 0x40 MSTORE SWAP1 DUP2 PUSH1 0x0 DUP3 ADD SLOAD DUP2 MSTORE PUSH1 0x20 ADD PUSH1 0x1 DUP3 ADD SLOAD DUP2 MSTORE POP POP SWAP1 POP SWAP3 SWAP2 POP POP JUMP JUMPDEST DUP2 PUSH1 0x0 DUP1 ADD DUP2 SWAP1 SSTORE POP TIMESTAMP PUSH1 0x0 PUSH1 0x1 ADD DUP2 SWAP1 SSTORE POP PUSH1 0x0 PUSH1 0x2 PUSH1 0x0 DUP4 PUSH20 0xFFFFFFFFFFFFFFFFFFFFFFFFFFFFFFFFFFFFFFFF AND PUSH20 0xFFFFFFFFFFFFFFFFFFFFFFFFFFFFFFFFFFFFFFFF AND DUP2 MSTORE PUSH1 0x20 ADD SWAP1 DUP2 MSTORE PUSH1 0x20 ADD PUSH1 0x0 KECCAK256 PUSH1 0x5 ADD PUSH1 0x0 PUSH1 0x2 PUSH1 0x0 DUP6 PUSH20 0xFFFFFFFFFFFFFFFFFFFFFFFFFFFFFFFFFFFFFFFF AND PUSH20 0xFFFFFFFFFFFFFFFFFFFFFFFFFFFFFFFFFFFFFFFF AND DUP2 MSTORE PUSH1 0x20 ADD SWAP1 DUP2 MSTORE PUSH1 0x20 ADD PUSH1 0x0 KECCAK256 PUSH1 0x6 ADD SLOAD DUP2 MSTORE PUSH1 0x20 ADD SWAP1 DUP2 MSTORE PUSH1 0x20 ADD PUSH1 0x0 KECCAK256 PUSH1 0x0 DUP3 ADD SLOAD DUP2 PUSH1 0x0 ADD SSTORE PUSH1 0x1 DUP3 ADD SLOAD DUP2 PUSH1 0x1 ADD SSTORE SWAP1 POP POP PUSH1 0x2 PUSH1 0x0 CALLER PUSH20 0xFFFFFFFFFFFFFFFFFFFFFFFFFFFFFFFFFFFFFFFF AND PUSH20 0xFFFFFFFFFFFFFFFFFFFFFFFFFFFFFFFFFFFFFFFF AND DUP2 MSTORE PUSH1 0x20 ADD SWAP1 DUP2 MSTORE PUSH1 0x20 ADD PUSH1 0x0 KECCAK256 PUSH1 0x6 ADD PUSH1 0x0 DUP2 SLOAD DUP1 SWAP3 SWAP2 SWAP1 PUSH2 0x402 SWAP1 PUSH2 0xAB6 JUMP JUMPDEST SWAP2 SWAP1 POP SSTORE POP POP POP JUMP JUMPDEST JUMP JUMPDEST PUSH2 0x415 PUSH2 0x7FC JUMP JUMPDEST PUSH1 0x2 PUSH1 0x0 DUP5 PUSH20 0xFFFFFFFFFFFFFFFFFFFFFFFFFFFFFFFFFFFFFFFF AND PUSH20 0xFFFFFFFFFFFFFFFFFFFFFFFFFFFFFFFFFFFFFFFF AND DUP2 MSTORE PUSH1 0x20 ADD SWAP1 DUP2 MSTORE PUSH1 0x20 ADD PUSH1 0x0 KECCAK256 PUSH1 0x2 ADD PUSH1 0x0 DUP4 DUP2 MSTORE PUSH1 0x20 ADD SWAP1 DUP2 MSTORE PUSH1 0x20 ADD PUSH1 0x0 KECCAK256 PUSH1 0x40 MLOAD DUP1 PUSH1 0x40 ADD PUSH1 0x40 MSTORE SWAP1 DUP2 PUSH1 0x0 DUP3 ADD SLOAD DUP2 MSTORE PUSH1 0x20 ADD PUSH1 0x1 DUP3 ADD SLOAD DUP2 MSTORE POP POP SWAP1 POP SWAP3 SWAP2 POP POP JUMP JUMPDEST PUSH1 0x2 PUSH1 0x20 MSTORE DUP1 PUSH1 0x0 MSTORE PUSH1 0x40 PUSH1 0x0 KECCAK256 PUSH1 0x0 SWAP2 POP SWAP1 POP DUP1 PUSH1 0x0 ADD SLOAD SWAP1 DUP1 PUSH1 0x1 ADD SLOAD SWAP1 DUP1 PUSH1 0x3 ADD SLOAD SWAP1 DUP1 PUSH1 0x6 ADD SLOAD SWAP1 POP DUP5 JUMP JUMPDEST DUP1 PUSH1 0x2 PUSH1 0x0 CALLER PUSH20 0xFFFFFFFFFFFFFFFFFFFFFFFFFFFFFFFFFFFFFFFF AND PUSH20 0xFFFFFFFFFFFFFFFFFFFFFFFFFFFFFFFFFFFFFFFF AND DUP2 MSTORE PUSH1 0x20 ADD SWAP1 DUP2 MSTORE PUSH1 0x20 ADD PUSH1 0x0 KECCAK256 PUSH1 0x0 ADD PUSH1 0x0 DUP3 DUP3 SLOAD PUSH2 0x511 SWAP2 SWAP1 PUSH2 0xAFE JUMP JUMPDEST SWAP3 POP POP DUP2 SWAP1 SSTORE POP PUSH1 0x0 PUSH1 0x40 MLOAD DUP1 PUSH1 0x40 ADD PUSH1 0x40 MSTORE DUP1 DUP4 DUP2 MSTORE PUSH1 0x20 ADD TIMESTAMP DUP2 MSTORE POP SWAP1 POP DUP1 PUSH1 0x2 PUSH1 0x0 CALLER PUSH20 0xFFFFFFFFFFFFFFFFFFFFFFFFFFFFFFFFFFFFFFFF AND PUSH20 0xFFFFFFFFFFFFFFFFFFFFFFFFFFFFFFFFFFFFFFFF AND DUP2 MSTORE PUSH1 0x20 ADD SWAP1 DUP2 MSTORE PUSH1 0x20 ADD PUSH1 0x0 KECCAK256 PUSH1 0x4 ADD PUSH1 0x0 PUSH1 0x2 PUSH1 0x0 CALLER PUSH20 0xFFFFFFFFFFFFFFFFFFFFFFFFFFFFFFFFFFFFFFFF AND PUSH20 0xFFFFFFFFFFFFFFFFFFFFFFFFFFFFFFFFFFFFFFFF AND DUP2 MSTORE PUSH1 0x20 ADD SWAP1 DUP2 MSTORE PUSH1 0x20 ADD PUSH1 0x0 KECCAK256 PUSH1 0x3 ADD SLOAD DUP2 MSTORE PUSH1 0x20 ADD SWAP1 DUP2 MSTORE PUSH1 0x20 ADD PUSH1 0x0 KECCAK256 PUSH1 0x0 DUP3 ADD MLOAD DUP2 PUSH1 0x0 ADD SSTORE PUSH1 0x20 DUP3 ADD MLOAD DUP2 PUSH1 0x1 ADD SSTORE SWAP1 POP POP PUSH1 0x2 PUSH1 0x0 CALLER PUSH20 0xFFFFFFFFFFFFFFFFFFFFFFFFFFFFFFFFFFFFFFFF AND PUSH20 0xFFFFFFFFFFFFFFFFFFFFFFFFFFFFFFFFFFFFFFFF AND DUP2 MSTORE PUSH1 0x20 ADD SWAP1 DUP2 MSTORE PUSH1 0x20 ADD PUSH1 0x0 KECCAK256 PUSH1 0x3 ADD PUSH1 0x0 DUP2 SLOAD DUP1 SWAP3 SWAP2 SWAP1 PUSH2 0x631 SWAP1 PUSH2 0xAB6 JUMP JUMPDEST SWAP2 SWAP1 POP SSTORE POP DUP3 PUSH20 0xFFFFFFFFFFFFFFFFFFFFFFFFFFFFFFFFFFFFFFFF AND PUSH2 0x8FC DUP4 SWAP1 DUP2 ISZERO MUL SWAP1 PUSH1 0x40 MLOAD PUSH1 0x0 PUSH1 0x40 MLOAD DUP1 DUP4 SUB DUP2 DUP6 DUP9 DUP9 CALL SWAP4 POP POP POP POP ISZERO DUP1 ISZERO PUSH2 0x67C JUMPI RETURNDATASIZE PUSH1 0x0 DUP1 RETURNDATACOPY RETURNDATASIZE PUSH1 0x0 REVERT JUMPDEST POP POP POP POP JUMP JUMPDEST CALLVALUE PUSH1 0x2 PUSH1 0x0 CALLER PUSH20 0xFFFFFFFFFFFFFFFFFFFFFFFFFFFFFFFFFFFFFFFF AND PUSH20 0xFFFFFFFFFFFFFFFFFFFFFFFFFFFFFFFFFFFFFFFF AND DUP2 MSTORE PUSH1 0x20 ADD SWAP1 DUP2 MSTORE PUSH1 0x20 ADD PUSH1 0x0 KECCAK256 PUSH1 0x0 ADD PUSH1 0x0 DUP3 DUP3 SLOAD PUSH2 0x6D4 SWAP2 SWAP1 PUSH2 0xB32 JUMP JUMPDEST SWAP3 POP POP DUP2 SWAP1 SSTORE POP PUSH1 0x0 PUSH1 0x40 MLOAD DUP1 PUSH1 0x40 ADD PUSH1 0x40 MSTORE DUP1 CALLVALUE DUP2 MSTORE PUSH1 0x20 ADD TIMESTAMP DUP2 MSTORE POP SWAP1 POP DUP1 PUSH1 0x2 PUSH1 0x0 CALLER PUSH20 0xFFFFFFFFFFFFFFFFFFFFFFFFFFFFFFFFFFFFFFFF AND PUSH20 0xFFFFFFFFFFFFFFFFFFFFFFFFFFFFFFFFFFFFFFFF AND DUP2 MSTORE PUSH1 0x20 ADD SWAP1 DUP2 MSTORE PUSH1 0x20 ADD PUSH1 0x0 KECCAK256 PUSH1 0x2 ADD PUSH1 0x0 PUSH1 0x2 PUSH1 0x0 CALLER PUSH20 0xFFFFFFFFFFFFFFFFFFFFFFFFFFFFFFFFFFFFFFFF AND PUSH20 0xFFFFFFFFFFFFFFFFFFFFFFFFFFFFFFFFFFFFFFFF AND DUP2 MSTORE PUSH1 0x20 ADD SWAP1 DUP2 MSTORE PUSH1 0x20 ADD PUSH1 0x0 KECCAK256 PUSH1 0x1 ADD SLOAD DUP2 MSTORE PUSH1 0x20 ADD SWAP1 DUP2 MSTORE PUSH1 0x20 ADD PUSH1 0x0 KECCAK256 PUSH1 0x0 DUP3 ADD MLOAD DUP2 PUSH1 0x0 ADD SSTORE PUSH1 0x20 DUP3 ADD MLOAD DUP2 PUSH1 0x1 ADD SSTORE SWAP1 POP POP PUSH1 0x2 PUSH1 0x0 CALLER PUSH20 0xFFFFFFFFFFFFFFFFFFFFFFFFFFFFFFFFFFFFFFFF AND PUSH20 0xFFFFFFFFFFFFFFFFFFFFFFFFFFFFFFFFFFFFFFFF AND DUP2 MSTORE PUSH1 0x20 ADD SWAP1 DUP2 MSTORE PUSH1 0x20 ADD PUSH1 0x0 KECCAK256 PUSH1 0x1 ADD PUSH1 0x0 DUP2 SLOAD DUP1 SWAP3 SWAP2 SWAP1 PUSH2 0x7F4 SWAP1 PUSH2 0xAB6 JUMP JUMPDEST SWAP2 SWAP1 POP SSTORE POP POP JUMP JUMPDEST PUSH1 0x40 MLOAD DUP1 PUSH1 0x40 ADD PUSH1 0x40 MSTORE DUP1 PUSH1 0x0 DUP2 MSTORE PUSH1 0x20 ADD PUSH1 0x0 DUP2 MSTORE POP SWAP1 JUMP JUMPDEST PUSH1 0x0 DUP1 REVERT JUMPDEST PUSH1 0x0 PUSH20 0xFFFFFFFFFFFFFFFFFFFFFFFFFFFFFFFFFFFFFFFF DUP3 AND SWAP1 POP SWAP2 SWAP1 POP JUMP JUMPDEST PUSH1 0x0 PUSH2 0x846 DUP3 PUSH2 0x81B JUMP JUMPDEST SWAP1 POP SWAP2 SWAP1 POP JUMP JUMPDEST PUSH2 0x856 DUP2 PUSH2 0x83B JUMP JUMPDEST DUP2 EQ PUSH2 0x861 JUMPI PUSH1 0x0 DUP1 REVERT JUMPDEST POP JUMP JUMPDEST PUSH1 0x0 DUP2 CALLDATALOAD SWAP1 POP PUSH2 0x873 DUP2 PUSH2 0x84D JUMP JUMPDEST SWAP3 SWAP2 POP POP JUMP JUMPDEST PUSH1 0x0 DUP2 SWAP1 POP SWAP2 SWAP1 POP JUMP JUMPDEST PUSH2 0x88C DUP2 PUSH2 0x879 JUMP JUMPDEST DUP2 EQ PUSH2 0x897 JUMPI PUSH1 0x0 DUP1 REVERT JUMPDEST POP JUMP JUMPDEST PUSH1 0x0 DUP2 CALLDATALOAD SWAP1 POP PUSH2 0x8A9 DUP2 PUSH2 0x883 JUMP JUMPDEST SWAP3 SWAP2 POP POP JUMP JUMPDEST PUSH1 0x0 DUP1 PUSH1 0x40 DUP4 DUP6 SUB SLT ISZERO PUSH2 0x8C6 JUMPI PUSH2 0x8C5 PUSH2 0x816 JUMP JUMPDEST JUMPDEST PUSH1 0x0 PUSH2 0x8D4 DUP6 DUP3 DUP7 ADD PUSH2 0x864 JUMP JUMPDEST SWAP3 POP POP PUSH1 0x20 PUSH2 0x8E5 DUP6 DUP3 DUP7 ADD PUSH2 0x89A JUMP JUMPDEST SWAP2 POP POP SWAP3 POP SWAP3 SWAP1 POP JUMP JUMPDEST PUSH2 0x8F8 DUP2 PUSH2 0x879 JUMP JUMPDEST DUP3 MSTORE POP POP JUMP JUMPDEST PUSH1 0x40 DUP3 ADD PUSH1 0x0 DUP3 ADD MLOAD PUSH2 0x914 PUSH1 0x0 DUP6 ADD DUP3 PUSH2 0x8EF JUMP JUMPDEST POP PUSH1 0x20 DUP3 ADD MLOAD PUSH2 0x927 PUSH1 0x20 DUP6 ADD DUP3 PUSH2 0x8EF JUMP JUMPDEST POP POP POP POP JUMP JUMPDEST PUSH1 0x0 PUSH1 0x40 DUP3 ADD SWAP1 POP PUSH2 0x942 PUSH1 0x0 DUP4 ADD DUP5 PUSH2 0x8FE JUMP JUMPDEST SWAP3 SWAP2 POP POP JUMP JUMPDEST PUSH1 0x0 DUP1 PUSH1 0x40 DUP4 DUP6 SUB SLT ISZERO PUSH2 0x95F JUMPI PUSH2 0x95E PUSH2 0x816 JUMP JUMPDEST JUMPDEST PUSH1 0x0 PUSH2 0x96D DUP6 DUP3 DUP7 ADD PUSH2 0x89A JUMP JUMPDEST SWAP3 POP POP PUSH1 0x20 PUSH2 0x97E DUP6 DUP3 DUP7 ADD PUSH2 0x864 JUMP JUMPDEST SWAP2 POP POP SWAP3 POP SWAP3 SWAP1 POP JUMP JUMPDEST PUSH1 0x0 PUSH1 0x20 DUP3 DUP5 SUB SLT ISZERO PUSH2 0x99E JUMPI PUSH2 0x99D PUSH2 0x816 JUMP JUMPDEST JUMPDEST PUSH1 0x0 PUSH2 0x9AC DUP5 DUP3 DUP6 ADD PUSH2 0x864 JUMP JUMPDEST SWAP2 POP POP SWAP3 SWAP2 POP POP JUMP JUMPDEST PUSH2 0x9BE DUP2 PUSH2 0x879 JUMP JUMPDEST DUP3 MSTORE POP POP JUMP JUMPDEST PUSH1 0x0 PUSH1 0x80 DUP3 ADD SWAP1 POP PUSH2 0x9D9 PUSH1 0x0 DUP4 ADD DUP8 PUSH2 0x9B5 JUMP JUMPDEST PUSH2 0x9E6 PUSH1 0x20 DUP4 ADD DUP7 PUSH2 0x9B5 JUMP JUMPDEST PUSH2 0x9F3 PUSH1 0x40 DUP4 ADD DUP6 PUSH2 0x9B5 JUMP JUMPDEST PUSH2 0xA00 PUSH1 0x60 DUP4 ADD DUP5 PUSH2 0x9B5 JUMP JUMPDEST SWAP6 SWAP5 POP POP POP POP POP JUMP JUMPDEST PUSH1 0x0 PUSH2 0xA14 DUP3 PUSH2 0x81B JUMP JUMPDEST SWAP1 POP SWAP2 SWAP1 POP JUMP JUMPDEST PUSH2 0xA24 DUP2 PUSH2 0xA09 JUMP JUMPDEST DUP2 EQ PUSH2 0xA2F JUMPI PUSH1 0x0 DUP1 REVERT JUMPDEST POP JUMP JUMPDEST PUSH1 0x0 DUP2 CALLDATALOAD SWAP1 POP PUSH2 0xA41 DUP2 PUSH2 0xA1B JUMP JUMPDEST SWAP3 SWAP2 POP POP JUMP JUMPDEST PUSH1 0x0 DUP1 PUSH1 0x40 DUP4 DUP6 SUB SLT ISZERO PUSH2 0xA5E JUMPI PUSH2 0xA5D PUSH2 0x816 JUMP JUMPDEST JUMPDEST PUSH1 0x0 PUSH2 0xA6C DUP6 DUP3 DUP7 ADD PUSH2 0xA32 JUMP JUMPDEST SWAP3 POP POP PUSH1 0x20 PUSH2 0xA7D DUP6 DUP3 DUP7 ADD PUSH2 0x89A JUMP JUMPDEST SWAP2 POP POP SWAP3 POP SWAP3 SWAP1 POP JUMP JUMPDEST PUSH32 0x4E487B7100000000000000000000000000000000000000000000000000000000 PUSH1 0x0 MSTORE PUSH1 0x11 PUSH1 0x4 MSTORE PUSH1 0x24 PUSH1 0x0 REVERT JUMPDEST PUSH1 0x0 PUSH2 0xAC1 DUP3 PUSH2 0x879 JUMP JUMPDEST SWAP2 POP PUSH32 0xFFFFFFFFFFFFFFFFFFFFFFFFFFFFFFFFFFFFFFFFFFFFFFFFFFFFFFFFFFFFFFFF DUP3 SUB PUSH2 0xAF3 JUMPI PUSH2 0xAF2 PUSH2 0xA87 JUMP JUMPDEST JUMPDEST PUSH1 0x1 DUP3 ADD SWAP1 POP SWAP2 SWAP1 POP JUMP JUMPDEST PUSH1 0x0 PUSH2 0xB09 DUP3 PUSH2 0x879 JUMP JUMPDEST SWAP2 POP PUSH2 0xB14 DUP4 PUSH2 0x879 JUMP JUMPDEST SWAP3 POP DUP3 DUP3 SUB SWAP1 POP DUP2 DUP2 GT ISZERO PUSH2 0xB2C JUMPI PUSH2 0xB2B PUSH2 0xA87 JUMP JUMPDEST JUMPDEST SWAP3 SWAP2 POP POP JUMP JUMPDEST PUSH1 0x0 PUSH2 0xB3D DUP3 PUSH2 0x879 JUMP JUMPDEST SWAP2 POP PUSH2 0xB48 DUP4 PUSH2 0x879 JUMP JUMPDEST SWAP3 POP DUP3 DUP3 ADD SWAP1 POP DUP1 DUP3 GT ISZERO PUSH2 0xB60 JUMPI PUSH2 0xB5F PUSH2 0xA87 JUMP JUMPDEST JUMPDEST SWAP3 SWAP2 POP POP JUMP INVALID LOG2 PUSH5 0x6970667358 0x22 SLT KECCAK256 0x4F PUSH25 0xF0681F7185516B700E1E52BD8A18179103F8B8C2D6B5C1AC5 0xC8 OR 0xD9 0xE7 SWAP6 PUSH5 0x736F6C6343 STOP ADDMOD SLT STOP CALLER "
				},
				"gasEstimates": {
					"creation": {
						"codeDepositCost": "594400",
						"executionCost": "625",
						"totalCost": "595025"
					},
					"external": {
						"CashOut(address,uint256)": "infinite",
						"Deposit()": "infinite",
						"DetWithdrawls(address,uint256)": "infinite",
						"GetDeposit(address,uint256)": "infinite",
						"getbalance()": "211",
						"getr(address,uint256)": "infinite",
						"rr(uint256,address)": "infinite",
						"wdata(address)": "infinite"
					}
				},
				"methodIdentifiers": {
					"CashOut(address,uint256)": "ab933177",
					"Deposit()": "ed21248c",
					"DetWithdrawls(address,uint256)": "1b72f9de",
					"GetDeposit(address,uint256)": "7878ad47",
					"getbalance()": "4d9b3d5d",
					"getr(address,uint256)": "09e9bd25",
					"rr(uint256,address)": "2591e9f6",
					"wdata(address)": "92601e12"
				}
			},
			"storageLayout": {
				"storage": [
					{
						"astId": 33,
						"contract": "wallet.sol:wal",
						"label": "valr",
						"offset": 0,
						"slot": "0",
						"type": "t_struct(transection)6_storage"
					},
					{
						"astId": 96,
						"contract": "wallet.sol:wal",
						"label": "wdata",
						"offset": 0,
						"slot": "2",
						"type": "t_mapping(t_address,t_struct(data)30_storage)"
					}
				],
				"types": {
					"t_address": {
						"encoding": "inplace",
						"label": "address",
						"numberOfBytes": "20"
					},
					"t_mapping(t_address,t_struct(data)30_storage)": {
						"encoding": "mapping",
						"key": "t_address",
						"label": "mapping(address => struct wal.data)",
						"numberOfBytes": "32",
						"value": "t_struct(data)30_storage"
					},
					"t_mapping(t_uint256,t_struct(transection)6_storage)": {
						"encoding": "mapping",
						"key": "t_uint256",
						"label": "mapping(uint256 => struct wal.transection)",
						"numberOfBytes": "32",
						"value": "t_struct(transection)6_storage"
					},
					"t_struct(data)30_storage": {
						"encoding": "inplace",
						"label": "struct wal.data",
						"members": [
							{
								"astId": 8,
								"contract": "wallet.sol:wal",
								"label": "totalbalance",
								"offset": 0,
								"slot": "0",
								"type": "t_uint256"
							},
							{
								"astId": 10,
								"contract": "wallet.sol:wal",
								"label": "numdeposits",
								"offset": 0,
								"slot": "1",
								"type": "t_uint256"
							},
							{
								"astId": 15,
								"contract": "wallet.sol:wal",
								"label": "deposits",
								"offset": 0,
								"slot": "2",
								"type": "t_mapping(t_uint256,t_struct(transection)6_storage)"
							},
							{
								"astId": 17,
								"contract": "wallet.sol:wal",
								"label": "numcashout",
								"offset": 0,
								"slot": "3",
								"type": "t_uint256"
							},
							{
								"astId": 22,
								"contract": "wallet.sol:wal",
								"label": "withdrawls",
								"offset": 0,
								"slot": "4",
								"type": "t_mapping(t_uint256,t_struct(transection)6_storage)"
							},
							{
								"astId": 27,
								"contract": "wallet.sol:wal",
								"label": "receiver",
								"offset": 0,
								"slot": "5",
								"type": "t_mapping(t_uint256,t_struct(transection)6_storage)"
							},
							{
								"astId": 29,
								"contract": "wallet.sol:wal",
								"label": "numr",
								"offset": 0,
								"slot": "6",
								"type": "t_uint256"
							}
						],
						"numberOfBytes": "224"
					},
					"t_struct(transection)6_storage": {
						"encoding": "inplace",
						"label": "struct wal.transection",
						"members": [
							{
								"astId": 3,
								"contract": "wallet.sol:wal",
								"label": "amount",
								"offset": 0,
								"slot": "0",
								"type": "t_uint256"
							},
							{
								"astId": 5,
								"contract": "wallet.sol:wal",
								"label": "timestamp",
								"offset": 0,
								"slot": "1",
								"type": "t_uint256"
							}
						],
						"numberOfBytes": "64"
					},
					"t_uint256": {
						"encoding": "inplace",
						"label": "uint256",
						"numberOfBytes": "32"
					}
				}
			},
			"userdoc": {
				"kind": "user",
				"methods": {},
				"version": 1
			}
		}
	}
}