{
	"walletnew11.sol": {
		"wallet": {
			"abi": [
				{
					"inputs": [
						{
							"internalType": "uint256",
							"name": "id",
							"type": "uint256"
						},
						{
							"internalType": "address",
							"name": "addr",
							"type": "address"
						}
					],
					"name": "Get_Deposit_Data",
					"outputs": [
						{
							"components": [
								{
									"internalType": "uint256",
									"name": "amount",
									"type": "uint256"
								},
								{
									"internalType": "uint256",
									"name": "time",
									"type": "uint256"
								}
							],
							"internalType": "struct wallet.transection",
							"name": "",
							"type": "tuple"
						}
					],
					"stateMutability": "view",
					"type": "function"
				},
				{
					"inputs": [],
					"name": "Send_Money",
					"outputs": [],
					"stateMutability": "payable",
					"type": "function"
				},
				{
					"inputs": [
						{
							"internalType": "address",
							"name": "",
							"type": "address"
						}
					],
					"name": "Transaction_data",
					"outputs": [
						{
							"internalType": "uint256",
							"name": "balance",
							"type": "uint256"
						},
						{
							"internalType": "uint256",
							"name": "depositid",
							"type": "uint256"
						},
						{
							"internalType": "uint256",
							"name": "withdrawid",
							"type": "uint256"
						}
					],
					"stateMutability": "view",
					"type": "function"
				},
				{
					"inputs": [
						{
							"internalType": "uint256",
							"name": "_amount",
							"type": "uint256"
						}
					],
					"name": "Withdraw",
					"outputs": [],
					"stateMutability": "nonpayable",
					"type": "function"
				},
				{
					"inputs": [
						{
							"internalType": "uint256",
							"name": "id",
							"type": "uint256"
						},
						{
							"internalType": "address",
							"name": "addr",
							"type": "address"
						}
					],
					"name": "Withdraw_Data",
					"outputs": [
						{
							"components": [
								{
									"internalType": "uint256",
									"name": "amount",
									"type": "uint256"
								},
								{
									"internalType": "uint256",
									"name": "time",
									"type": "uint256"
								}
							],
							"internalType": "struct wallet.transection",
							"name": "",
							"type": "tuple"
						}
					],
					"stateMutability": "view",
					"type": "function"
				}
			],
			"devdoc": {
				"kind": "dev",
				"methods": {},
				"version": 1
			},
			"evm": {
				"assembly": "    /* \"walletnew11.sol\":72:1370  contract wallet{... */\n  mstore(0x40, 0x80)\n  callvalue\n  dup1\n  iszero\n  tag_1\n  jumpi\n  0x00\n  dup1\n  revert\ntag_1:\n  pop\n  dataSize(sub_0)\n  dup1\n  dataOffset(sub_0)\n  0x00\n  codecopy\n  0x00\n  return\nstop\n\nsub_0: assembly {\n        /* \"walletnew11.sol\":72:1370  contract wallet{... */\n      mstore(0x40, 0x80)\n      jumpi(tag_1, lt(calldatasize, 0x04))\n      shr(0xe0, calldataload(0x00))\n      dup1\n      0x5b6b431d\n      eq\n      tag_2\n      jumpi\n      dup1\n      0x900a1ec9\n      eq\n      tag_3\n      jumpi\n      dup1\n      0xb515940a\n      eq\n      tag_4\n      jumpi\n      dup1\n      0xe7df9ebe\n      eq\n      tag_5\n      jumpi\n      dup1\n      0xf36ed819\n      eq\n      tag_6\n      jumpi\n    tag_1:\n      0x00\n      dup1\n      revert\n        /* \"walletnew11.sol\":699:1044  function Withdraw(uint _amount) public {... */\n    tag_2:\n      callvalue\n      dup1\n      iszero\n      tag_7\n      jumpi\n      0x00\n      dup1\n      revert\n    tag_7:\n      pop\n      tag_8\n      0x04\n      dup1\n      calldatasize\n      sub\n      dup2\n      add\n      swap1\n      tag_9\n      swap2\n      swap1\n      tag_10\n      jump\t// in\n    tag_9:\n      tag_11\n      jump\t// in\n    tag_8:\n      stop\n        /* \"walletnew11.sol\":1052:1204  function Get_Deposit_Data(uint id, address addr) public view returns(transection memory){... */\n    tag_3:\n      callvalue\n      dup1\n      iszero\n      tag_12\n      jumpi\n      0x00\n      dup1\n      revert\n    tag_12:\n      pop\n      tag_13\n      0x04\n      dup1\n      calldatasize\n      sub\n      dup2\n      add\n      swap1\n      tag_14\n      swap2\n      swap1\n      tag_15\n      jump\t// in\n    tag_14:\n      tag_16\n      jump\t// in\n    tag_13:\n      mload(0x40)\n      tag_17\n      swap2\n      swap1\n      tag_18\n      jump\t// in\n    tag_17:\n      mload(0x40)\n      dup1\n      swap2\n      sub\n      swap1\n      return\n        /* \"walletnew11.sol\":1212:1361  function Withdraw_Data(uint id,address addr) public view returns(transection memory){... */\n    tag_4:\n      callvalue\n      dup1\n      iszero\n      tag_19\n      jumpi\n      0x00\n      dup1\n      revert\n    tag_19:\n      pop\n      tag_20\n      0x04\n      dup1\n      calldatasize\n      sub\n      dup2\n      add\n      swap1\n      tag_21\n      swap2\n      swap1\n      tag_15\n      jump\t// in\n    tag_21:\n      tag_22\n      jump\t// in\n    tag_20:\n      mload(0x40)\n      tag_23\n      swap2\n      swap1\n      tag_18\n      jump\t// in\n    tag_23:\n      mload(0x40)\n      dup1\n      swap2\n      sub\n      swap1\n      return\n        /* \"walletnew11.sol\":369:691  function Send_Money() public payable {... */\n    tag_5:\n      tag_24\n      tag_25\n      jump\t// in\n    tag_24:\n      stop\n        /* \"walletnew11.sol\":318:364  mapping(address=>data) public Transaction_data */\n    tag_6:\n      callvalue\n      dup1\n      iszero\n      tag_26\n      jumpi\n      0x00\n      dup1\n      revert\n    tag_26:\n      pop\n      tag_27\n      0x04\n      dup1\n      calldatasize\n      sub\n      dup2\n      add\n      swap1\n      tag_28\n      swap2\n      swap1\n      tag_29\n      jump\t// in\n    tag_28:\n      tag_30\n      jump\t// in\n    tag_27:\n      mload(0x40)\n      tag_31\n      swap4\n      swap3\n      swap2\n      swap1\n      tag_32\n      jump\t// in\n    tag_31:\n      mload(0x40)\n      dup1\n      swap2\n      sub\n      swap1\n      return\n        /* \"walletnew11.sol\":699:1044  function Withdraw(uint _amount) public {... */\n    tag_11:\n        /* \"walletnew11.sol\":787:794  _amount */\n      dup1\n        /* \"walletnew11.sol\":749:765  Transaction_data */\n      0x00\n        /* \"walletnew11.sol\":749:777  Transaction_data[msg.sender] */\n      dup1\n        /* \"walletnew11.sol\":766:776  msg.sender */\n      caller\n        /* \"walletnew11.sol\":749:777  Transaction_data[msg.sender] */\n      0xffffffffffffffffffffffffffffffffffffffff\n      and\n      0xffffffffffffffffffffffffffffffffffffffff\n      and\n      dup2\n      mstore\n      0x20\n      add\n      swap1\n      dup2\n      mstore\n      0x20\n      add\n      0x00\n      keccak256\n        /* \"walletnew11.sol\":749:785  Transaction_data[msg.sender].balance */\n      0x00\n      add\n      0x00\n        /* \"walletnew11.sol\":749:794  Transaction_data[msg.sender].balance-=_amount */\n      dup3\n      dup3\n      sload\n      tag_34\n      swap2\n      swap1\n      tag_35\n      jump\t// in\n    tag_34:\n      swap3\n      pop\n      pop\n      dup2\n      swap1\n      sstore\n      pop\n        /* \"walletnew11.sol\":805:826  transection memory t2 */\n      tag_36\n      tag_37\n      jump\t// in\n    tag_36:\n        /* \"walletnew11.sol\":847:854  _amount */\n      dup2\n        /* \"walletnew11.sol\":837:839  t2 */\n      dup2\n        /* \"walletnew11.sol\":837:846  t2.amount */\n      0x00\n      add\n        /* \"walletnew11.sol\":837:854  t2.amount=_amount */\n      dup2\n      dup2\n      mstore\n      pop\n      pop\n        /* \"walletnew11.sol\":873:888  block.timestamp */\n      timestamp\n        /* \"walletnew11.sol\":865:867  t2 */\n      dup2\n        /* \"walletnew11.sol\":865:872  t2.time */\n      0x20\n      add\n        /* \"walletnew11.sol\":865:888  t2.time=block.timestamp */\n      dup2\n      dup2\n      mstore\n      pop\n      pop\n        /* \"walletnew11.sol\":982:984  t2 */\n      dup1\n        /* \"walletnew11.sol\":899:915  Transaction_data */\n      0x00\n        /* \"walletnew11.sol\":899:927  Transaction_data[msg.sender] */\n      dup1\n        /* \"walletnew11.sol\":916:926  msg.sender */\n      caller\n        /* \"walletnew11.sol\":899:927  Transaction_data[msg.sender] */\n      0xffffffffffffffffffffffffffffffffffffffff\n      and\n      0xffffffffffffffffffffffffffffffffffffffff\n      and\n      dup2\n      mstore\n      0x20\n      add\n      swap1\n      dup2\n      mstore\n      0x20\n      add\n      0x00\n      keccak256\n        /* \"walletnew11.sol\":899:940  Transaction_data[msg.sender].withdrawdata */\n      0x04\n      add\n        /* \"walletnew11.sol\":899:981  Transaction_data[msg.sender].withdrawdata[Transaction_data[msg.sender].withdrawid] */\n      0x00\n        /* \"walletnew11.sol\":941:957  Transaction_data */\n      dup1\n        /* \"walletnew11.sol\":941:969  Transaction_data[msg.sender] */\n      0x00\n        /* \"walletnew11.sol\":958:968  msg.sender */\n      caller\n        /* \"walletnew11.sol\":941:969  Transaction_data[msg.sender] */\n      0xffffffffffffffffffffffffffffffffffffffff\n      and\n      0xffffffffffffffffffffffffffffffffffffffff\n      and\n      dup2\n      mstore\n      0x20\n      add\n      swap1\n      dup2\n      mstore\n      0x20\n      add\n      0x00\n      keccak256\n        /* \"walletnew11.sol\":941:980  Transaction_data[msg.sender].withdrawid */\n      0x03\n      add\n      sload\n        /* \"walletnew11.sol\":899:981  Transaction_data[msg.sender].withdrawdata[Transaction_data[msg.sender].withdrawid] */\n      dup2\n      mstore\n      0x20\n      add\n      swap1\n      dup2\n      mstore\n      0x20\n      add\n      0x00\n      keccak256\n        /* \"walletnew11.sol\":899:984  Transaction_data[msg.sender].withdrawdata[Transaction_data[msg.sender].withdrawid]=t2 */\n      0x00\n      dup3\n      add\n      mload\n      dup2\n      0x00\n      add\n      sstore\n      0x20\n      dup3\n      add\n      mload\n      dup2\n      0x01\n      add\n      sstore\n      swap1\n      pop\n      pop\n        /* \"walletnew11.sol\":995:1011  Transaction_data */\n      0x00\n        /* \"walletnew11.sol\":995:1023  Transaction_data[msg.sender] */\n      dup1\n        /* \"walletnew11.sol\":1012:1022  msg.sender */\n      caller\n        /* \"walletnew11.sol\":995:1023  Transaction_data[msg.sender] */\n      0xffffffffffffffffffffffffffffffffffffffff\n      and\n      0xffffffffffffffffffffffffffffffffffffffff\n      and\n      dup2\n      mstore\n      0x20\n      add\n      swap1\n      dup2\n      mstore\n      0x20\n      add\n      0x00\n      keccak256\n        /* \"walletnew11.sol\":995:1034  Transaction_data[msg.sender].withdrawid */\n      0x03\n      add\n      0x00\n        /* \"walletnew11.sol\":995:1036  Transaction_data[msg.sender].withdrawid++ */\n      dup2\n      sload\n      dup1\n      swap3\n      swap2\n      swap1\n      tag_38\n      swap1\n      tag_39\n      jump\t// in\n    tag_38:\n      swap2\n      swap1\n      pop\n      sstore\n      pop\n        /* \"walletnew11.sol\":738:1044  {... */\n      pop\n        /* \"walletnew11.sol\":699:1044  function Withdraw(uint _amount) public {... */\n      pop\n      jump\t// out\n        /* \"walletnew11.sol\":1052:1204  function Get_Deposit_Data(uint id, address addr) public view returns(transection memory){... */\n    tag_16:\n        /* \"walletnew11.sol\":1121:1139  transection memory */\n      tag_40\n      tag_37\n      jump\t// in\n    tag_40:\n        /* \"walletnew11.sol\":1158:1174  Transaction_data */\n      0x00\n        /* \"walletnew11.sol\":1158:1180  Transaction_data[addr] */\n      dup1\n        /* \"walletnew11.sol\":1175:1179  addr */\n      dup4\n        /* \"walletnew11.sol\":1158:1180  Transaction_data[addr] */\n      0xffffffffffffffffffffffffffffffffffffffff\n      and\n      0xffffffffffffffffffffffffffffffffffffffff\n      and\n      dup2\n      mstore\n      0x20\n      add\n      swap1\n      dup2\n      mstore\n      0x20\n      add\n      0x00\n      keccak256\n        /* \"walletnew11.sol\":1158:1192  Transaction_data[addr].depositdata */\n      0x02\n      add\n        /* \"walletnew11.sol\":1158:1196  Transaction_data[addr].depositdata[id] */\n      0x00\n        /* \"walletnew11.sol\":1193:1195  id */\n      dup5\n        /* \"walletnew11.sol\":1158:1196  Transaction_data[addr].depositdata[id] */\n      dup2\n      mstore\n      0x20\n      add\n      swap1\n      dup2\n      mstore\n      0x20\n      add\n      0x00\n      keccak256\n        /* \"walletnew11.sol\":1151:1196  return Transaction_data[addr].depositdata[id] */\n      mload(0x40)\n      dup1\n      0x40\n      add\n      0x40\n      mstore\n      swap1\n      dup2\n      0x00\n      dup3\n      add\n      sload\n      dup2\n      mstore\n      0x20\n      add\n      0x01\n      dup3\n      add\n      sload\n      dup2\n      mstore\n      pop\n      pop\n      swap1\n      pop\n        /* \"walletnew11.sol\":1052:1204  function Get_Deposit_Data(uint id, address addr) public view returns(transection memory){... */\n      swap3\n      swap2\n      pop\n      pop\n      jump\t// out\n        /* \"walletnew11.sol\":1212:1361  function Withdraw_Data(uint id,address addr) public view returns(transection memory){... */\n    tag_22:\n        /* \"walletnew11.sol\":1277:1295  transection memory */\n      tag_42\n      tag_37\n      jump\t// in\n    tag_42:\n        /* \"walletnew11.sol\":1314:1330  Transaction_data */\n      0x00\n        /* \"walletnew11.sol\":1314:1336  Transaction_data[addr] */\n      dup1\n        /* \"walletnew11.sol\":1331:1335  addr */\n      dup4\n        /* \"walletnew11.sol\":1314:1336  Transaction_data[addr] */\n      0xffffffffffffffffffffffffffffffffffffffff\n      and\n      0xffffffffffffffffffffffffffffffffffffffff\n      and\n      dup2\n      mstore\n      0x20\n      add\n      swap1\n      dup2\n      mstore\n      0x20\n      add\n      0x00\n      keccak256\n        /* \"walletnew11.sol\":1314:1349  Transaction_data[addr].withdrawdata */\n      0x04\n      add\n        /* \"walletnew11.sol\":1314:1353  Transaction_data[addr].withdrawdata[id] */\n      0x00\n        /* \"walletnew11.sol\":1350:1352  id */\n      dup5\n        /* \"walletnew11.sol\":1314:1353  Transaction_data[addr].withdrawdata[id] */\n      dup2\n      mstore\n      0x20\n      add\n      swap1\n      dup2\n      mstore\n      0x20\n      add\n      0x00\n      keccak256\n        /* \"walletnew11.sol\":1307:1353  return Transaction_data[addr].withdrawdata[id] */\n      mload(0x40)\n      dup1\n      0x40\n      add\n      0x40\n      mstore\n      swap1\n      dup2\n      0x00\n      dup3\n      add\n      sload\n      dup2\n      mstore\n      0x20\n      add\n      0x01\n      dup3\n      add\n      sload\n      dup2\n      mstore\n      pop\n      pop\n      swap1\n      pop\n        /* \"walletnew11.sol\":1212:1361  function Withdraw_Data(uint id,address addr) public view returns(transection memory){... */\n      swap3\n      swap2\n      pop\n      pop\n      jump\t// out\n        /* \"walletnew11.sol\":369:691  function Send_Money() public payable {... */\n    tag_25:\n        /* \"walletnew11.sol\":451:460  msg.value */\n      callvalue\n        /* \"walletnew11.sol\":413:429  Transaction_data */\n      0x00\n        /* \"walletnew11.sol\":413:441  Transaction_data[msg.sender] */\n      dup1\n        /* \"walletnew11.sol\":430:440  msg.sender */\n      caller\n        /* \"walletnew11.sol\":413:441  Transaction_data[msg.sender] */\n      0xffffffffffffffffffffffffffffffffffffffff\n      and\n      0xffffffffffffffffffffffffffffffffffffffff\n      and\n      dup2\n      mstore\n      0x20\n      add\n      swap1\n      dup2\n      mstore\n      0x20\n      add\n      0x00\n      keccak256\n        /* \"walletnew11.sol\":413:449  Transaction_data[msg.sender].balance */\n      0x00\n      add\n      0x00\n        /* \"walletnew11.sol\":413:460  Transaction_data[msg.sender].balance+=msg.value */\n      dup3\n      dup3\n      sload\n      tag_45\n      swap2\n      swap1\n      tag_46\n      jump\t// in\n    tag_45:\n      swap3\n      pop\n      pop\n      dup2\n      swap1\n      sstore\n      pop\n        /* \"walletnew11.sol\":467:488  transection memory t1 */\n      tag_47\n      tag_37\n      jump\t// in\n    tag_47:\n        /* \"walletnew11.sol\":505:514  msg.value */\n      callvalue\n        /* \"walletnew11.sol\":495:497  t1 */\n      dup2\n        /* \"walletnew11.sol\":495:504  t1.amount */\n      0x00\n      add\n        /* \"walletnew11.sol\":495:514  t1.amount=msg.value */\n      dup2\n      dup2\n      mstore\n      pop\n      pop\n        /* \"walletnew11.sol\":529:544  block.timestamp */\n      timestamp\n        /* \"walletnew11.sol\":521:523  t1 */\n      dup2\n        /* \"walletnew11.sol\":521:528  t1.time */\n      0x20\n      add\n        /* \"walletnew11.sol\":521:544  t1.time=block.timestamp */\n      dup2\n      dup2\n      mstore\n      pop\n      pop\n        /* \"walletnew11.sol\":632:634  t1 */\n      dup1\n        /* \"walletnew11.sol\":551:567  Transaction_data */\n      0x00\n        /* \"walletnew11.sol\":551:579  Transaction_data[msg.sender] */\n      dup1\n        /* \"walletnew11.sol\":568:578  msg.sender */\n      caller\n        /* \"walletnew11.sol\":551:579  Transaction_data[msg.sender] */\n      0xffffffffffffffffffffffffffffffffffffffff\n      and\n      0xffffffffffffffffffffffffffffffffffffffff\n      and\n      dup2\n      mstore\n      0x20\n      add\n      swap1\n      dup2\n      mstore\n      0x20\n      add\n      0x00\n      keccak256\n        /* \"walletnew11.sol\":551:591  Transaction_data[msg.sender].depositdata */\n      0x02\n      add\n        /* \"walletnew11.sol\":551:631  Transaction_data[msg.sender].depositdata[Transaction_data[msg.sender].depositid] */\n      0x00\n        /* \"walletnew11.sol\":592:608  Transaction_data */\n      dup1\n        /* \"walletnew11.sol\":592:620  Transaction_data[msg.sender] */\n      0x00\n        /* \"walletnew11.sol\":609:619  msg.sender */\n      caller\n        /* \"walletnew11.sol\":592:620  Transaction_data[msg.sender] */\n      0xffffffffffffffffffffffffffffffffffffffff\n      and\n      0xffffffffffffffffffffffffffffffffffffffff\n      and\n      dup2\n      mstore\n      0x20\n      add\n      swap1\n      dup2\n      mstore\n      0x20\n      add\n      0x00\n      keccak256\n        /* \"walletnew11.sol\":592:630  Transaction_data[msg.sender].depositid */\n      0x01\n      add\n      sload\n        /* \"walletnew11.sol\":551:631  Transaction_data[msg.sender].depositdata[Transaction_data[msg.sender].depositid] */\n      dup2\n      mstore\n      0x20\n      add\n      swap1\n      dup2\n      mstore\n      0x20\n      add\n      0x00\n      keccak256\n        /* \"walletnew11.sol\":551:634  Transaction_data[msg.sender].depositdata[Transaction_data[msg.sender].depositid]=t1 */\n      0x00\n      dup3\n      add\n      mload\n      dup2\n      0x00\n      add\n      sstore\n      0x20\n      dup3\n      add\n      mload\n      dup2\n      0x01\n      add\n      sstore\n      swap1\n      pop\n      pop\n        /* \"walletnew11.sol\":641:657  Transaction_data */\n      0x00\n        /* \"walletnew11.sol\":641:669  Transaction_data[msg.sender] */\n      dup1\n        /* \"walletnew11.sol\":658:668  msg.sender */\n      caller\n        /* \"walletnew11.sol\":641:669  Transaction_data[msg.sender] */\n      0xffffffffffffffffffffffffffffffffffffffff\n      and\n      0xffffffffffffffffffffffffffffffffffffffff\n      and\n      dup2\n      mstore\n      0x20\n      add\n      swap1\n      dup2\n      mstore\n      0x20\n      add\n      0x00\n      keccak256\n        /* \"walletnew11.sol\":641:679  Transaction_data[msg.sender].depositid */\n      0x01\n      add\n      0x00\n        /* \"walletnew11.sol\":641:681  Transaction_data[msg.sender].depositid++ */\n      dup2\n      sload\n      dup1\n      swap3\n      swap2\n      swap1\n      tag_48\n      swap1\n      tag_39\n      jump\t// in\n    tag_48:\n      swap2\n      swap1\n      pop\n      sstore\n      pop\n        /* \"walletnew11.sol\":406:691  {... */\n      pop\n        /* \"walletnew11.sol\":369:691  function Send_Money() public payable {... */\n      jump\t// out\n        /* \"walletnew11.sol\":318:364  mapping(address=>data) public Transaction_data */\n    tag_30:\n      mstore(0x20, 0x00)\n      dup1\n      0x00\n      mstore\n      keccak256(0x00, 0x40)\n      0x00\n      swap2\n      pop\n      swap1\n      pop\n      dup1\n      0x00\n      add\n      sload\n      swap1\n      dup1\n      0x01\n      add\n      sload\n      swap1\n      dup1\n      0x03\n      add\n      sload\n      swap1\n      pop\n      dup4\n      jump\t// out\n    tag_37:\n      mload(0x40)\n      dup1\n      0x40\n      add\n      0x40\n      mstore\n      dup1\n      0x00\n      dup2\n      mstore\n      0x20\n      add\n      0x00\n      dup2\n      mstore\n      pop\n      swap1\n      jump\t// out\n        /* \"#utility.yul\":88:205   */\n    tag_50:\n        /* \"#utility.yul\":197:198   */\n      0x00\n        /* \"#utility.yul\":194:195   */\n      dup1\n        /* \"#utility.yul\":187:199   */\n      revert\n        /* \"#utility.yul\":334:411   */\n    tag_52:\n        /* \"#utility.yul\":371:378   */\n      0x00\n        /* \"#utility.yul\":400:405   */\n      dup2\n        /* \"#utility.yul\":389:405   */\n      swap1\n      pop\n        /* \"#utility.yul\":334:411   */\n      swap2\n      swap1\n      pop\n      jump\t// out\n        /* \"#utility.yul\":417:539   */\n    tag_53:\n        /* \"#utility.yul\":490:514   */\n      tag_69\n        /* \"#utility.yul\":508:513   */\n      dup2\n        /* \"#utility.yul\":490:514   */\n      tag_52\n      jump\t// in\n    tag_69:\n        /* \"#utility.yul\":483:488   */\n      dup2\n        /* \"#utility.yul\":480:515   */\n      eq\n        /* \"#utility.yul\":470:533   */\n      tag_70\n      jumpi\n        /* \"#utility.yul\":529:530   */\n      0x00\n        /* \"#utility.yul\":526:527   */\n      dup1\n        /* \"#utility.yul\":519:531   */\n      revert\n        /* \"#utility.yul\":470:533   */\n    tag_70:\n        /* \"#utility.yul\":417:539   */\n      pop\n      jump\t// out\n        /* \"#utility.yul\":545:684   */\n    tag_54:\n        /* \"#utility.yul\":591:596   */\n      0x00\n        /* \"#utility.yul\":629:635   */\n      dup2\n        /* \"#utility.yul\":616:636   */\n      calldataload\n        /* \"#utility.yul\":607:636   */\n      swap1\n      pop\n        /* \"#utility.yul\":645:678   */\n      tag_72\n        /* \"#utility.yul\":672:677   */\n      dup2\n        /* \"#utility.yul\":645:678   */\n      tag_53\n      jump\t// in\n    tag_72:\n        /* \"#utility.yul\":545:684   */\n      swap3\n      swap2\n      pop\n      pop\n      jump\t// out\n        /* \"#utility.yul\":690:1019   */\n    tag_10:\n        /* \"#utility.yul\":749:755   */\n      0x00\n        /* \"#utility.yul\":798:800   */\n      0x20\n        /* \"#utility.yul\":786:795   */\n      dup3\n        /* \"#utility.yul\":777:784   */\n      dup5\n        /* \"#utility.yul\":773:796   */\n      sub\n        /* \"#utility.yul\":769:801   */\n      slt\n        /* \"#utility.yul\":766:885   */\n      iszero\n      tag_74\n      jumpi\n        /* \"#utility.yul\":804:883   */\n      tag_75\n      tag_50\n      jump\t// in\n    tag_75:\n        /* \"#utility.yul\":766:885   */\n    tag_74:\n        /* \"#utility.yul\":924:925   */\n      0x00\n        /* \"#utility.yul\":949:1002   */\n      tag_76\n        /* \"#utility.yul\":994:1001   */\n      dup5\n        /* \"#utility.yul\":985:991   */\n      dup3\n        /* \"#utility.yul\":974:983   */\n      dup6\n        /* \"#utility.yul\":970:992   */\n      add\n        /* \"#utility.yul\":949:1002   */\n      tag_54\n      jump\t// in\n    tag_76:\n        /* \"#utility.yul\":939:1002   */\n      swap2\n      pop\n        /* \"#utility.yul\":895:1012   */\n      pop\n        /* \"#utility.yul\":690:1019   */\n      swap3\n      swap2\n      pop\n      pop\n      jump\t// out\n        /* \"#utility.yul\":1025:1151   */\n    tag_55:\n        /* \"#utility.yul\":1062:1069   */\n      0x00\n        /* \"#utility.yul\":1102:1144   */\n      0xffffffffffffffffffffffffffffffffffffffff\n        /* \"#utility.yul\":1095:1100   */\n      dup3\n        /* \"#utility.yul\":1091:1145   */\n      and\n        /* \"#utility.yul\":1080:1145   */\n      swap1\n      pop\n        /* \"#utility.yul\":1025:1151   */\n      swap2\n      swap1\n      pop\n      jump\t// out\n        /* \"#utility.yul\":1157:1253   */\n    tag_56:\n        /* \"#utility.yul\":1194:1201   */\n      0x00\n        /* \"#utility.yul\":1223:1247   */\n      tag_79\n        /* \"#utility.yul\":1241:1246   */\n      dup3\n        /* \"#utility.yul\":1223:1247   */\n      tag_55\n      jump\t// in\n    tag_79:\n        /* \"#utility.yul\":1212:1247   */\n      swap1\n      pop\n        /* \"#utility.yul\":1157:1253   */\n      swap2\n      swap1\n      pop\n      jump\t// out\n        /* \"#utility.yul\":1259:1381   */\n    tag_57:\n        /* \"#utility.yul\":1332:1356   */\n      tag_81\n        /* \"#utility.yul\":1350:1355   */\n      dup2\n        /* \"#utility.yul\":1332:1356   */\n      tag_56\n      jump\t// in\n    tag_81:\n        /* \"#utility.yul\":1325:1330   */\n      dup2\n        /* \"#utility.yul\":1322:1357   */\n      eq\n        /* \"#utility.yul\":1312:1375   */\n      tag_82\n      jumpi\n        /* \"#utility.yul\":1371:1372   */\n      0x00\n        /* \"#utility.yul\":1368:1369   */\n      dup1\n        /* \"#utility.yul\":1361:1373   */\n      revert\n        /* \"#utility.yul\":1312:1375   */\n    tag_82:\n        /* \"#utility.yul\":1259:1381   */\n      pop\n      jump\t// out\n        /* \"#utility.yul\":1387:1526   */\n    tag_58:\n        /* \"#utility.yul\":1433:1438   */\n      0x00\n        /* \"#utility.yul\":1471:1477   */\n      dup2\n        /* \"#utility.yul\":1458:1478   */\n      calldataload\n        /* \"#utility.yul\":1449:1478   */\n      swap1\n      pop\n        /* \"#utility.yul\":1487:1520   */\n      tag_84\n        /* \"#utility.yul\":1514:1519   */\n      dup2\n        /* \"#utility.yul\":1487:1520   */\n      tag_57\n      jump\t// in\n    tag_84:\n        /* \"#utility.yul\":1387:1526   */\n      swap3\n      swap2\n      pop\n      pop\n      jump\t// out\n        /* \"#utility.yul\":1532:2006   */\n    tag_15:\n        /* \"#utility.yul\":1600:1606   */\n      0x00\n        /* \"#utility.yul\":1608:1614   */\n      dup1\n        /* \"#utility.yul\":1657:1659   */\n      0x40\n        /* \"#utility.yul\":1645:1654   */\n      dup4\n        /* \"#utility.yul\":1636:1643   */\n      dup6\n        /* \"#utility.yul\":1632:1655   */\n      sub\n        /* \"#utility.yul\":1628:1660   */\n      slt\n        /* \"#utility.yul\":1625:1744   */\n      iszero\n      tag_86\n      jumpi\n        /* \"#utility.yul\":1663:1742   */\n      tag_87\n      tag_50\n      jump\t// in\n    tag_87:\n        /* \"#utility.yul\":1625:1744   */\n    tag_86:\n        /* \"#utility.yul\":1783:1784   */\n      0x00\n        /* \"#utility.yul\":1808:1861   */\n      tag_88\n        /* \"#utility.yul\":1853:1860   */\n      dup6\n        /* \"#utility.yul\":1844:1850   */\n      dup3\n        /* \"#utility.yul\":1833:1842   */\n      dup7\n        /* \"#utility.yul\":1829:1851   */\n      add\n        /* \"#utility.yul\":1808:1861   */\n      tag_54\n      jump\t// in\n    tag_88:\n        /* \"#utility.yul\":1798:1861   */\n      swap3\n      pop\n        /* \"#utility.yul\":1754:1871   */\n      pop\n        /* \"#utility.yul\":1910:1912   */\n      0x20\n        /* \"#utility.yul\":1936:1989   */\n      tag_89\n        /* \"#utility.yul\":1981:1988   */\n      dup6\n        /* \"#utility.yul\":1972:1978   */\n      dup3\n        /* \"#utility.yul\":1961:1970   */\n      dup7\n        /* \"#utility.yul\":1957:1979   */\n      add\n        /* \"#utility.yul\":1936:1989   */\n      tag_58\n      jump\t// in\n    tag_89:\n        /* \"#utility.yul\":1926:1989   */\n      swap2\n      pop\n        /* \"#utility.yul\":1881:1999   */\n      pop\n        /* \"#utility.yul\":1532:2006   */\n      swap3\n      pop\n      swap3\n      swap1\n      pop\n      jump\t// out\n        /* \"#utility.yul\":2012:2120   */\n    tag_59:\n        /* \"#utility.yul\":2089:2113   */\n      tag_91\n        /* \"#utility.yul\":2107:2112   */\n      dup2\n        /* \"#utility.yul\":2089:2113   */\n      tag_52\n      jump\t// in\n    tag_91:\n        /* \"#utility.yul\":2084:2087   */\n      dup3\n        /* \"#utility.yul\":2077:2114   */\n      mstore\n        /* \"#utility.yul\":2012:2120   */\n      pop\n      pop\n      jump\t// out\n        /* \"#utility.yul\":2188:2699   */\n    tag_60:\n        /* \"#utility.yul\":2337:2341   */\n      0x40\n        /* \"#utility.yul\":2332:2335   */\n      dup3\n        /* \"#utility.yul\":2328:2342   */\n      add\n        /* \"#utility.yul\":2426:2430   */\n      0x00\n        /* \"#utility.yul\":2419:2424   */\n      dup3\n        /* \"#utility.yul\":2415:2431   */\n      add\n        /* \"#utility.yul\":2409:2432   */\n      mload\n        /* \"#utility.yul\":2445:2508   */\n      tag_93\n        /* \"#utility.yul\":2502:2506   */\n      0x00\n        /* \"#utility.yul\":2497:2500   */\n      dup6\n        /* \"#utility.yul\":2493:2507   */\n      add\n        /* \"#utility.yul\":2479:2491   */\n      dup3\n        /* \"#utility.yul\":2445:2508   */\n      tag_59\n      jump\t// in\n    tag_93:\n        /* \"#utility.yul\":2352:2518   */\n      pop\n        /* \"#utility.yul\":2600:2604   */\n      0x20\n        /* \"#utility.yul\":2593:2598   */\n      dup3\n        /* \"#utility.yul\":2589:2605   */\n      add\n        /* \"#utility.yul\":2583:2606   */\n      mload\n        /* \"#utility.yul\":2619:2682   */\n      tag_94\n        /* \"#utility.yul\":2676:2680   */\n      0x20\n        /* \"#utility.yul\":2671:2674   */\n      dup6\n        /* \"#utility.yul\":2667:2681   */\n      add\n        /* \"#utility.yul\":2653:2665   */\n      dup3\n        /* \"#utility.yul\":2619:2682   */\n      tag_59\n      jump\t// in\n    tag_94:\n        /* \"#utility.yul\":2528:2692   */\n      pop\n        /* \"#utility.yul\":2306:2699   */\n      pop\n        /* \"#utility.yul\":2188:2699   */\n      pop\n      pop\n      jump\t// out\n        /* \"#utility.yul\":2705:3031   */\n    tag_18:\n        /* \"#utility.yul\":2850:2854   */\n      0x00\n        /* \"#utility.yul\":2888:2890   */\n      0x40\n        /* \"#utility.yul\":2877:2886   */\n      dup3\n        /* \"#utility.yul\":2873:2891   */\n      add\n        /* \"#utility.yul\":2865:2891   */\n      swap1\n      pop\n        /* \"#utility.yul\":2901:3024   */\n      tag_96\n        /* \"#utility.yul\":3021:3022   */\n      0x00\n        /* \"#utility.yul\":3010:3019   */\n      dup4\n        /* \"#utility.yul\":3006:3023   */\n      add\n        /* \"#utility.yul\":2997:3003   */\n      dup5\n        /* \"#utility.yul\":2901:3024   */\n      tag_60\n      jump\t// in\n    tag_96:\n        /* \"#utility.yul\":2705:3031   */\n      swap3\n      swap2\n      pop\n      pop\n      jump\t// out\n        /* \"#utility.yul\":3037:3366   */\n    tag_29:\n        /* \"#utility.yul\":3096:3102   */\n      0x00\n        /* \"#utility.yul\":3145:3147   */\n      0x20\n        /* \"#utility.yul\":3133:3142   */\n      dup3\n        /* \"#utility.yul\":3124:3131   */\n      dup5\n        /* \"#utility.yul\":3120:3143   */\n      sub\n        /* \"#utility.yul\":3116:3148   */\n      slt\n        /* \"#utility.yul\":3113:3232   */\n      iszero\n      tag_98\n      jumpi\n        /* \"#utility.yul\":3151:3230   */\n      tag_99\n      tag_50\n      jump\t// in\n    tag_99:\n        /* \"#utility.yul\":3113:3232   */\n    tag_98:\n        /* \"#utility.yul\":3271:3272   */\n      0x00\n        /* \"#utility.yul\":3296:3349   */\n      tag_100\n        /* \"#utility.yul\":3341:3348   */\n      dup5\n        /* \"#utility.yul\":3332:3338   */\n      dup3\n        /* \"#utility.yul\":3321:3330   */\n      dup6\n        /* \"#utility.yul\":3317:3339   */\n      add\n        /* \"#utility.yul\":3296:3349   */\n      tag_58\n      jump\t// in\n    tag_100:\n        /* \"#utility.yul\":3286:3349   */\n      swap2\n      pop\n        /* \"#utility.yul\":3242:3359   */\n      pop\n        /* \"#utility.yul\":3037:3366   */\n      swap3\n      swap2\n      pop\n      pop\n      jump\t// out\n        /* \"#utility.yul\":3372:3490   */\n    tag_61:\n        /* \"#utility.yul\":3459:3483   */\n      tag_102\n        /* \"#utility.yul\":3477:3482   */\n      dup2\n        /* \"#utility.yul\":3459:3483   */\n      tag_52\n      jump\t// in\n    tag_102:\n        /* \"#utility.yul\":3454:3457   */\n      dup3\n        /* \"#utility.yul\":3447:3484   */\n      mstore\n        /* \"#utility.yul\":3372:3490   */\n      pop\n      pop\n      jump\t// out\n        /* \"#utility.yul\":3496:3938   */\n    tag_32:\n        /* \"#utility.yul\":3645:3649   */\n      0x00\n        /* \"#utility.yul\":3683:3685   */\n      0x60\n        /* \"#utility.yul\":3672:3681   */\n      dup3\n        /* \"#utility.yul\":3668:3686   */\n      add\n        /* \"#utility.yul\":3660:3686   */\n      swap1\n      pop\n        /* \"#utility.yul\":3696:3767   */\n      tag_104\n        /* \"#utility.yul\":3764:3765   */\n      0x00\n        /* \"#utility.yul\":3753:3762   */\n      dup4\n        /* \"#utility.yul\":3749:3766   */\n      add\n        /* \"#utility.yul\":3740:3746   */\n      dup7\n        /* \"#utility.yul\":3696:3767   */\n      tag_61\n      jump\t// in\n    tag_104:\n        /* \"#utility.yul\":3777:3849   */\n      tag_105\n        /* \"#utility.yul\":3845:3847   */\n      0x20\n        /* \"#utility.yul\":3834:3843   */\n      dup4\n        /* \"#utility.yul\":3830:3848   */\n      add\n        /* \"#utility.yul\":3821:3827   */\n      dup6\n        /* \"#utility.yul\":3777:3849   */\n      tag_61\n      jump\t// in\n    tag_105:\n        /* \"#utility.yul\":3859:3931   */\n      tag_106\n        /* \"#utility.yul\":3927:3929   */\n      0x40\n        /* \"#utility.yul\":3916:3925   */\n      dup4\n        /* \"#utility.yul\":3912:3930   */\n      add\n        /* \"#utility.yul\":3903:3909   */\n      dup5\n        /* \"#utility.yul\":3859:3931   */\n      tag_61\n      jump\t// in\n    tag_106:\n        /* \"#utility.yul\":3496:3938   */\n      swap5\n      swap4\n      pop\n      pop\n      pop\n      pop\n      jump\t// out\n        /* \"#utility.yul\":3944:4124   */\n    tag_62:\n        /* \"#utility.yul\":3992:4069   */\n      0x4e487b7100000000000000000000000000000000000000000000000000000000\n        /* \"#utility.yul\":3989:3990   */\n      0x00\n        /* \"#utility.yul\":3982:4070   */\n      mstore\n        /* \"#utility.yul\":4089:4093   */\n      0x11\n        /* \"#utility.yul\":4086:4087   */\n      0x04\n        /* \"#utility.yul\":4079:4094   */\n      mstore\n        /* \"#utility.yul\":4113:4117   */\n      0x24\n        /* \"#utility.yul\":4110:4111   */\n      0x00\n        /* \"#utility.yul\":4103:4118   */\n      revert\n        /* \"#utility.yul\":4130:4324   */\n    tag_35:\n        /* \"#utility.yul\":4170:4174   */\n      0x00\n        /* \"#utility.yul\":4190:4210   */\n      tag_109\n        /* \"#utility.yul\":4208:4209   */\n      dup3\n        /* \"#utility.yul\":4190:4210   */\n      tag_52\n      jump\t// in\n    tag_109:\n        /* \"#utility.yul\":4185:4210   */\n      swap2\n      pop\n        /* \"#utility.yul\":4224:4244   */\n      tag_110\n        /* \"#utility.yul\":4242:4243   */\n      dup4\n        /* \"#utility.yul\":4224:4244   */\n      tag_52\n      jump\t// in\n    tag_110:\n        /* \"#utility.yul\":4219:4244   */\n      swap3\n      pop\n        /* \"#utility.yul\":4268:4269   */\n      dup3\n        /* \"#utility.yul\":4265:4266   */\n      dup3\n        /* \"#utility.yul\":4261:4270   */\n      sub\n        /* \"#utility.yul\":4253:4270   */\n      swap1\n      pop\n        /* \"#utility.yul\":4292:4293   */\n      dup2\n        /* \"#utility.yul\":4286:4290   */\n      dup2\n        /* \"#utility.yul\":4283:4294   */\n      gt\n        /* \"#utility.yul\":4280:4317   */\n      iszero\n      tag_111\n      jumpi\n        /* \"#utility.yul\":4297:4315   */\n      tag_112\n      tag_62\n      jump\t// in\n    tag_112:\n        /* \"#utility.yul\":4280:4317   */\n    tag_111:\n        /* \"#utility.yul\":4130:4324   */\n      swap3\n      swap2\n      pop\n      pop\n      jump\t// out\n        /* \"#utility.yul\":4330:4563   */\n    tag_39:\n        /* \"#utility.yul\":4369:4372   */\n      0x00\n        /* \"#utility.yul\":4392:4416   */\n      tag_114\n        /* \"#utility.yul\":4410:4415   */\n      dup3\n        /* \"#utility.yul\":4392:4416   */\n      tag_52\n      jump\t// in\n    tag_114:\n        /* \"#utility.yul\":4383:4416   */\n      swap2\n      pop\n        /* \"#utility.yul\":4438:4504   */\n      0xffffffffffffffffffffffffffffffffffffffffffffffffffffffffffffffff\n        /* \"#utility.yul\":4431:4436   */\n      dup3\n        /* \"#utility.yul\":4428:4505   */\n      sub\n        /* \"#utility.yul\":4425:4528   */\n      tag_115\n      jumpi\n        /* \"#utility.yul\":4508:4526   */\n      tag_116\n      tag_62\n      jump\t// in\n    tag_116:\n        /* \"#utility.yul\":4425:4528   */\n    tag_115:\n        /* \"#utility.yul\":4555:4556   */\n      0x01\n        /* \"#utility.yul\":4548:4553   */\n      dup3\n        /* \"#utility.yul\":4544:4557   */\n      add\n        /* \"#utility.yul\":4537:4557   */\n      swap1\n      pop\n        /* \"#utility.yul\":4330:4563   */\n      swap2\n      swap1\n      pop\n      jump\t// out\n        /* \"#utility.yul\":4569:4760   */\n    tag_46:\n        /* \"#utility.yul\":4609:4612   */\n      0x00\n        /* \"#utility.yul\":4628:4648   */\n      tag_118\n        /* \"#utility.yul\":4646:4647   */\n      dup3\n        /* \"#utility.yul\":4628:4648   */\n      tag_52\n      jump\t// in\n    tag_118:\n        /* \"#utility.yul\":4623:4648   */\n      swap2\n      pop\n        /* \"#utility.yul\":4662:4682   */\n      tag_119\n        /* \"#utility.yul\":4680:4681   */\n      dup4\n        /* \"#utility.yul\":4662:4682   */\n      tag_52\n      jump\t// in\n    tag_119:\n        /* \"#utility.yul\":4657:4682   */\n      swap3\n      pop\n        /* \"#utility.yul\":4705:4706   */\n      dup3\n        /* \"#utility.yul\":4702:4703   */\n      dup3\n        /* \"#utility.yul\":4698:4707   */\n      add\n        /* \"#utility.yul\":4691:4707   */\n      swap1\n      pop\n        /* \"#utility.yul\":4726:4729   */\n      dup1\n        /* \"#utility.yul\":4723:4724   */\n      dup3\n        /* \"#utility.yul\":4720:4730   */\n      gt\n        /* \"#utility.yul\":4717:4753   */\n      iszero\n      tag_120\n      jumpi\n        /* \"#utility.yul\":4733:4751   */\n      tag_121\n      tag_62\n      jump\t// in\n    tag_121:\n        /* \"#utility.yul\":4717:4753   */\n    tag_120:\n        /* \"#utility.yul\":4569:4760   */\n      swap3\n      swap2\n      pop\n      pop\n      jump\t// out\n\n    auxdata: 0xa264697066735822122075b0074cb2d53058e714c87077161fde7fc58ba9f70a5a2b917d63bfff6c01e964736f6c63430008120033\n}\n",
				"bytecode": {
					"linkReferences": {},
					"object": "608060405234801561001057600080fd5b5061085b806100206000396000f3fe60806040526004361061004a5760003560e01c80635b6b431d1461004f578063900a1ec914610078578063b515940a146100b5578063e7df9ebe146100f2578063f36ed819146100fc575b600080fd5b34801561005b57600080fd5b50610076600480360381019061007191906105af565b61013b565b005b34801561008457600080fd5b5061009f600480360381019061009a919061063a565b6102b5565b6040516100ac91906106b8565b60405180910390f35b3480156100c157600080fd5b506100dc60048036038101906100d7919061063a565b610336565b6040516100e991906106b8565b60405180910390f35b6100fa6103b7565b005b34801561010857600080fd5b50610123600480360381019061011e91906106d3565b610530565b6040516101329392919061070f565b60405180910390f35b806000803373ffffffffffffffffffffffffffffffffffffffff1673ffffffffffffffffffffffffffffffffffffffff168152602001908152602001600020600001600082825461018c9190610775565b9250508190555061019b61055a565b8181600001818152505042816020018181525050806000803373ffffffffffffffffffffffffffffffffffffffff1673ffffffffffffffffffffffffffffffffffffffff16815260200190815260200160002060040160008060003373ffffffffffffffffffffffffffffffffffffffff1673ffffffffffffffffffffffffffffffffffffffff16815260200190815260200160002060030154815260200190815260200160002060008201518160000155602082015181600101559050506000803373ffffffffffffffffffffffffffffffffffffffff1673ffffffffffffffffffffffffffffffffffffffff16815260200190815260200160002060030160008154809291906102ac906107a9565b91905055505050565b6102bd61055a565b6000808373ffffffffffffffffffffffffffffffffffffffff1673ffffffffffffffffffffffffffffffffffffffff168152602001908152602001600020600201600084815260200190815260200160002060405180604001604052908160008201548152602001600182015481525050905092915050565b61033e61055a565b6000808373ffffffffffffffffffffffffffffffffffffffff1673ffffffffffffffffffffffffffffffffffffffff168152602001908152602001600020600401600084815260200190815260200160002060405180604001604052908160008201548152602001600182015481525050905092915050565b346000803373ffffffffffffffffffffffffffffffffffffffff1673ffffffffffffffffffffffffffffffffffffffff168152602001908152602001600020600001600082825461040891906107f1565b9250508190555061041761055a565b3481600001818152505042816020018181525050806000803373ffffffffffffffffffffffffffffffffffffffff1673ffffffffffffffffffffffffffffffffffffffff16815260200190815260200160002060020160008060003373ffffffffffffffffffffffffffffffffffffffff1673ffffffffffffffffffffffffffffffffffffffff16815260200190815260200160002060010154815260200190815260200160002060008201518160000155602082015181600101559050506000803373ffffffffffffffffffffffffffffffffffffffff1673ffffffffffffffffffffffffffffffffffffffff1681526020019081526020016000206001016000815480929190610528906107a9565b919050555050565b60006020528060005260406000206000915090508060000154908060010154908060030154905083565b604051806040016040528060008152602001600081525090565b600080fd5b6000819050919050565b61058c81610579565b811461059757600080fd5b50565b6000813590506105a981610583565b92915050565b6000602082840312156105c5576105c4610574565b5b60006105d38482850161059a565b91505092915050565b600073ffffffffffffffffffffffffffffffffffffffff82169050919050565b6000610607826105dc565b9050919050565b610617816105fc565b811461062257600080fd5b50565b6000813590506106348161060e565b92915050565b6000806040838503121561065157610650610574565b5b600061065f8582860161059a565b925050602061067085828601610625565b9150509250929050565b61068381610579565b82525050565b60408201600082015161069f600085018261067a565b5060208201516106b2602085018261067a565b50505050565b60006040820190506106cd6000830184610689565b92915050565b6000602082840312156106e9576106e8610574565b5b60006106f784828501610625565b91505092915050565b61070981610579565b82525050565b60006060820190506107246000830186610700565b6107316020830185610700565b61073e6040830184610700565b949350505050565b7f4e487b7100000000000000000000000000000000000000000000000000000000600052601160045260246000fd5b600061078082610579565b915061078b83610579565b92508282039050818111156107a3576107a2610746565b5b92915050565b60006107b482610579565b91507fffffffffffffffffffffffffffffffffffffffffffffffffffffffffffffffff82036107e6576107e5610746565b5b600182019050919050565b60006107fc82610579565b915061080783610579565b925082820190508082111561081f5761081e610746565b5b9291505056fea264697066735822122075b0074cb2d53058e714c87077161fde7fc58ba9f70a5a2b917d63bfff6c01e964736f6c63430008120033",
					"opcodes": "PUSH1 0x80 PUSH1 0x40 MSTORE CALLVALUE DUP1 ISZERO PUSH2 0x10 JUMPI PUSH1 0x0 DUP1 REVERT JUMPDEST POP PUSH2 0x85B DUP1 PUSH2 0x20 PUSH1 0x0 CODECOPY PUSH1 0x0 RETURN INVALID PUSH1 0x80 PUSH1 0x40 MSTORE PUSH1 0x4 CALLDATASIZE LT PUSH2 0x4A JUMPI PUSH1 0x0 CALLDATALOAD PUSH1 0xE0 SHR DUP1 PUSH4 0x5B6B431D EQ PUSH2 0x4F JUMPI DUP1 PUSH4 0x900A1EC9 EQ PUSH2 0x78 JUMPI DUP1 PUSH4 0xB515940A EQ PUSH2 0xB5 JUMPI DUP1 PUSH4 0xE7DF9EBE EQ PUSH2 0xF2 JUMPI DUP1 PUSH4 0xF36ED819 EQ PUSH2 0xFC JUMPI JUMPDEST PUSH1 0x0 DUP1 REVERT JUMPDEST CALLVALUE DUP1 ISZERO PUSH2 0x5B JUMPI PUSH1 0x0 DUP1 REVERT JUMPDEST POP PUSH2 0x76 PUSH1 0x4 DUP1 CALLDATASIZE SUB DUP2 ADD SWAP1 PUSH2 0x71 SWAP2 SWAP1 PUSH2 0x5AF JUMP JUMPDEST PUSH2 0x13B JUMP JUMPDEST STOP JUMPDEST CALLVALUE DUP1 ISZERO PUSH2 0x84 JUMPI PUSH1 0x0 DUP1 REVERT JUMPDEST POP PUSH2 0x9F PUSH1 0x4 DUP1 CALLDATASIZE SUB DUP2 ADD SWAP1 PUSH2 0x9A SWAP2 SWAP1 PUSH2 0x63A JUMP JUMPDEST PUSH2 0x2B5 JUMP JUMPDEST PUSH1 0x40 MLOAD PUSH2 0xAC SWAP2 SWAP1 PUSH2 0x6B8 JUMP JUMPDEST PUSH1 0x40 MLOAD DUP1 SWAP2 SUB SWAP1 RETURN JUMPDEST CALLVALUE DUP1 ISZERO PUSH2 0xC1 JUMPI PUSH1 0x0 DUP1 REVERT JUMPDEST POP PUSH2 0xDC PUSH1 0x4 DUP1 CALLDATASIZE SUB DUP2 ADD SWAP1 PUSH2 0xD7 SWAP2 SWAP1 PUSH2 0x63A JUMP JUMPDEST PUSH2 0x336 JUMP JUMPDEST PUSH1 0x40 MLOAD PUSH2 0xE9 SWAP2 SWAP1 PUSH2 0x6B8 JUMP JUMPDEST PUSH1 0x40 MLOAD DUP1 SWAP2 SUB SWAP1 RETURN JUMPDEST PUSH2 0xFA PUSH2 0x3B7 JUMP JUMPDEST STOP JUMPDEST CALLVALUE DUP1 ISZERO PUSH2 0x108 JUMPI PUSH1 0x0 DUP1 REVERT JUMPDEST POP PUSH2 0x123 PUSH1 0x4 DUP1 CALLDATASIZE SUB DUP2 ADD SWAP1 PUSH2 0x11E SWAP2 SWAP1 PUSH2 0x6D3 JUMP JUMPDEST PUSH2 0x530 JUMP JUMPDEST PUSH1 0x40 MLOAD PUSH2 0x132 SWAP4 SWAP3 SWAP2 SWAP1 PUSH2 0x70F JUMP JUMPDEST PUSH1 0x40 MLOAD DUP1 SWAP2 SUB SWAP1 RETURN JUMPDEST DUP1 PUSH1 0x0 DUP1 CALLER PUSH20 0xFFFFFFFFFFFFFFFFFFFFFFFFFFFFFFFFFFFFFFFF AND PUSH20 0xFFFFFFFFFFFFFFFFFFFFFFFFFFFFFFFFFFFFFFFF AND DUP2 MSTORE PUSH1 0x20 ADD SWAP1 DUP2 MSTORE PUSH1 0x20 ADD PUSH1 0x0 KECCAK256 PUSH1 0x0 ADD PUSH1 0x0 DUP3 DUP3 SLOAD PUSH2 0x18C SWAP2 SWAP1 PUSH2 0x775 JUMP JUMPDEST SWAP3 POP POP DUP2 SWAP1 SSTORE POP PUSH2 0x19B PUSH2 0x55A JUMP JUMPDEST DUP2 DUP2 PUSH1 0x0 ADD DUP2 DUP2 MSTORE POP POP TIMESTAMP DUP2 PUSH1 0x20 ADD DUP2 DUP2 MSTORE POP POP DUP1 PUSH1 0x0 DUP1 CALLER PUSH20 0xFFFFFFFFFFFFFFFFFFFFFFFFFFFFFFFFFFFFFFFF AND PUSH20 0xFFFFFFFFFFFFFFFFFFFFFFFFFFFFFFFFFFFFFFFF AND DUP2 MSTORE PUSH1 0x20 ADD SWAP1 DUP2 MSTORE PUSH1 0x20 ADD PUSH1 0x0 KECCAK256 PUSH1 0x4 ADD PUSH1 0x0 DUP1 PUSH1 0x0 CALLER PUSH20 0xFFFFFFFFFFFFFFFFFFFFFFFFFFFFFFFFFFFFFFFF AND PUSH20 0xFFFFFFFFFFFFFFFFFFFFFFFFFFFFFFFFFFFFFFFF AND DUP2 MSTORE PUSH1 0x20 ADD SWAP1 DUP2 MSTORE PUSH1 0x20 ADD PUSH1 0x0 KECCAK256 PUSH1 0x3 ADD SLOAD DUP2 MSTORE PUSH1 0x20 ADD SWAP1 DUP2 MSTORE PUSH1 0x20 ADD PUSH1 0x0 KECCAK256 PUSH1 0x0 DUP3 ADD MLOAD DUP2 PUSH1 0x0 ADD SSTORE PUSH1 0x20 DUP3 ADD MLOAD DUP2 PUSH1 0x1 ADD SSTORE SWAP1 POP POP PUSH1 0x0 DUP1 CALLER PUSH20 0xFFFFFFFFFFFFFFFFFFFFFFFFFFFFFFFFFFFFFFFF AND PUSH20 0xFFFFFFFFFFFFFFFFFFFFFFFFFFFFFFFFFFFFFFFF AND DUP2 MSTORE PUSH1 0x20 ADD SWAP1 DUP2 MSTORE PUSH1 0x20 ADD PUSH1 0x0 KECCAK256 PUSH1 0x3 ADD PUSH1 0x0 DUP2 SLOAD DUP1 SWAP3 SWAP2 SWAP1 PUSH2 0x2AC SWAP1 PUSH2 0x7A9 JUMP JUMPDEST SWAP2 SWAP1 POP SSTORE POP POP POP JUMP JUMPDEST PUSH2 0x2BD PUSH2 0x55A JUMP JUMPDEST PUSH1 0x0 DUP1 DUP4 PUSH20 0xFFFFFFFFFFFFFFFFFFFFFFFFFFFFFFFFFFFFFFFF AND PUSH20 0xFFFFFFFFFFFFFFFFFFFFFFFFFFFFFFFFFFFFFFFF AND DUP2 MSTORE PUSH1 0x20 ADD SWAP1 DUP2 MSTORE PUSH1 0x20 ADD PUSH1 0x0 KECCAK256 PUSH1 0x2 ADD PUSH1 0x0 DUP5 DUP2 MSTORE PUSH1 0x20 ADD SWAP1 DUP2 MSTORE PUSH1 0x20 ADD PUSH1 0x0 KECCAK256 PUSH1 0x40 MLOAD DUP1 PUSH1 0x40 ADD PUSH1 0x40 MSTORE SWAP1 DUP2 PUSH1 0x0 DUP3 ADD SLOAD DUP2 MSTORE PUSH1 0x20 ADD PUSH1 0x1 DUP3 ADD SLOAD DUP2 MSTORE POP POP SWAP1 POP SWAP3 SWAP2 POP POP JUMP JUMPDEST PUSH2 0x33E PUSH2 0x55A JUMP JUMPDEST PUSH1 0x0 DUP1 DUP4 PUSH20 0xFFFFFFFFFFFFFFFFFFFFFFFFFFFFFFFFFFFFFFFF AND PUSH20 0xFFFFFFFFFFFFFFFFFFFFFFFFFFFFFFFFFFFFFFFF AND DUP2 MSTORE PUSH1 0x20 ADD SWAP1 DUP2 MSTORE PUSH1 0x20 ADD PUSH1 0x0 KECCAK256 PUSH1 0x4 ADD PUSH1 0x0 DUP5 DUP2 MSTORE PUSH1 0x20 ADD SWAP1 DUP2 MSTORE PUSH1 0x20 ADD PUSH1 0x0 KECCAK256 PUSH1 0x40 MLOAD DUP1 PUSH1 0x40 ADD PUSH1 0x40 MSTORE SWAP1 DUP2 PUSH1 0x0 DUP3 ADD SLOAD DUP2 MSTORE PUSH1 0x20 ADD PUSH1 0x1 DUP3 ADD SLOAD DUP2 MSTORE POP POP SWAP1 POP SWAP3 SWAP2 POP POP JUMP JUMPDEST CALLVALUE PUSH1 0x0 DUP1 CALLER PUSH20 0xFFFFFFFFFFFFFFFFFFFFFFFFFFFFFFFFFFFFFFFF AND PUSH20 0xFFFFFFFFFFFFFFFFFFFFFFFFFFFFFFFFFFFFFFFF AND DUP2 MSTORE PUSH1 0x20 ADD SWAP1 DUP2 MSTORE PUSH1 0x20 ADD PUSH1 0x0 KECCAK256 PUSH1 0x0 ADD PUSH1 0x0 DUP3 DUP3 SLOAD PUSH2 0x408 SWAP2 SWAP1 PUSH2 0x7F1 JUMP JUMPDEST SWAP3 POP POP DUP2 SWAP1 SSTORE POP PUSH2 0x417 PUSH2 0x55A JUMP JUMPDEST CALLVALUE DUP2 PUSH1 0x0 ADD DUP2 DUP2 MSTORE POP POP TIMESTAMP DUP2 PUSH1 0x20 ADD DUP2 DUP2 MSTORE POP POP DUP1 PUSH1 0x0 DUP1 CALLER PUSH20 0xFFFFFFFFFFFFFFFFFFFFFFFFFFFFFFFFFFFFFFFF AND PUSH20 0xFFFFFFFFFFFFFFFFFFFFFFFFFFFFFFFFFFFFFFFF AND DUP2 MSTORE PUSH1 0x20 ADD SWAP1 DUP2 MSTORE PUSH1 0x20 ADD PUSH1 0x0 KECCAK256 PUSH1 0x2 ADD PUSH1 0x0 DUP1 PUSH1 0x0 CALLER PUSH20 0xFFFFFFFFFFFFFFFFFFFFFFFFFFFFFFFFFFFFFFFF AND PUSH20 0xFFFFFFFFFFFFFFFFFFFFFFFFFFFFFFFFFFFFFFFF AND DUP2 MSTORE PUSH1 0x20 ADD SWAP1 DUP2 MSTORE PUSH1 0x20 ADD PUSH1 0x0 KECCAK256 PUSH1 0x1 ADD SLOAD DUP2 MSTORE PUSH1 0x20 ADD SWAP1 DUP2 MSTORE PUSH1 0x20 ADD PUSH1 0x0 KECCAK256 PUSH1 0x0 DUP3 ADD MLOAD DUP2 PUSH1 0x0 ADD SSTORE PUSH1 0x20 DUP3 ADD MLOAD DUP2 PUSH1 0x1 ADD SSTORE SWAP1 POP POP PUSH1 0x0 DUP1 CALLER PUSH20 0xFFFFFFFFFFFFFFFFFFFFFFFFFFFFFFFFFFFFFFFF AND PUSH20 0xFFFFFFFFFFFFFFFFFFFFFFFFFFFFFFFFFFFFFFFF AND DUP2 MSTORE PUSH1 0x20 ADD SWAP1 DUP2 MSTORE PUSH1 0x20 ADD PUSH1 0x0 KECCAK256 PUSH1 0x1 ADD PUSH1 0x0 DUP2 SLOAD DUP1 SWAP3 SWAP2 SWAP1 PUSH2 0x528 SWAP1 PUSH2 0x7A9 JUMP JUMPDEST SWAP2 SWAP1 POP SSTORE POP POP JUMP JUMPDEST PUSH1 0x0 PUSH1 0x20 MSTORE DUP1 PUSH1 0x0 MSTORE PUSH1 0x40 PUSH1 0x0 KECCAK256 PUSH1 0x0 SWAP2 POP SWAP1 POP DUP1 PUSH1 0x0 ADD SLOAD SWAP1 DUP1 PUSH1 0x1 ADD SLOAD SWAP1 DUP1 PUSH1 0x3 ADD SLOAD SWAP1 POP DUP4 JUMP JUMPDEST PUSH1 0x40 MLOAD DUP1 PUSH1 0x40 ADD PUSH1 0x40 MSTORE DUP1 PUSH1 0x0 DUP2 MSTORE PUSH1 0x20 ADD PUSH1 0x0 DUP2 MSTORE POP SWAP1 JUMP JUMPDEST PUSH1 0x0 DUP1 REVERT JUMPDEST PUSH1 0x0 DUP2 SWAP1 POP SWAP2 SWAP1 POP JUMP JUMPDEST PUSH2 0x58C DUP2 PUSH2 0x579 JUMP JUMPDEST DUP2 EQ PUSH2 0x597 JUMPI PUSH1 0x0 DUP1 REVERT JUMPDEST POP JUMP JUMPDEST PUSH1 0x0 DUP2 CALLDATALOAD SWAP1 POP PUSH2 0x5A9 DUP2 PUSH2 0x583 JUMP JUMPDEST SWAP3 SWAP2 POP POP JUMP JUMPDEST PUSH1 0x0 PUSH1 0x20 DUP3 DUP5 SUB SLT ISZERO PUSH2 0x5C5 JUMPI PUSH2 0x5C4 PUSH2 0x574 JUMP JUMPDEST JUMPDEST PUSH1 0x0 PUSH2 0x5D3 DUP5 DUP3 DUP6 ADD PUSH2 0x59A JUMP JUMPDEST SWAP2 POP POP SWAP3 SWAP2 POP POP JUMP JUMPDEST PUSH1 0x0 PUSH20 0xFFFFFFFFFFFFFFFFFFFFFFFFFFFFFFFFFFFFFFFF DUP3 AND SWAP1 POP SWAP2 SWAP1 POP JUMP JUMPDEST PUSH1 0x0 PUSH2 0x607 DUP3 PUSH2 0x5DC JUMP JUMPDEST SWAP1 POP SWAP2 SWAP1 POP JUMP JUMPDEST PUSH2 0x617 DUP2 PUSH2 0x5FC JUMP JUMPDEST DUP2 EQ PUSH2 0x622 JUMPI PUSH1 0x0 DUP1 REVERT JUMPDEST POP JUMP JUMPDEST PUSH1 0x0 DUP2 CALLDATALOAD SWAP1 POP PUSH2 0x634 DUP2 PUSH2 0x60E JUMP JUMPDEST SWAP3 SWAP2 POP POP JUMP JUMPDEST PUSH1 0x0 DUP1 PUSH1 0x40 DUP4 DUP6 SUB SLT ISZERO PUSH2 0x651 JUMPI PUSH2 0x650 PUSH2 0x574 JUMP JUMPDEST JUMPDEST PUSH1 0x0 PUSH2 0x65F DUP6 DUP3 DUP7 ADD PUSH2 0x59A JUMP JUMPDEST SWAP3 POP POP PUSH1 0x20 PUSH2 0x670 DUP6 DUP3 DUP7 ADD PUSH2 0x625 JUMP JUMPDEST SWAP2 POP POP SWAP3 POP SWAP3 SWAP1 POP JUMP JUMPDEST PUSH2 0x683 DUP2 PUSH2 0x579 JUMP JUMPDEST DUP3 MSTORE POP POP JUMP JUMPDEST PUSH1 0x40 DUP3 ADD PUSH1 0x0 DUP3 ADD MLOAD PUSH2 0x69F PUSH1 0x0 DUP6 ADD DUP3 PUSH2 0x67A JUMP JUMPDEST POP PUSH1 0x20 DUP3 ADD MLOAD PUSH2 0x6B2 PUSH1 0x20 DUP6 ADD DUP3 PUSH2 0x67A JUMP JUMPDEST POP POP POP POP JUMP JUMPDEST PUSH1 0x0 PUSH1 0x40 DUP3 ADD SWAP1 POP PUSH2 0x6CD PUSH1 0x0 DUP4 ADD DUP5 PUSH2 0x689 JUMP JUMPDEST SWAP3 SWAP2 POP POP JUMP JUMPDEST PUSH1 0x0 PUSH1 0x20 DUP3 DUP5 SUB SLT ISZERO PUSH2 0x6E9 JUMPI PUSH2 0x6E8 PUSH2 0x574 JUMP JUMPDEST JUMPDEST PUSH1 0x0 PUSH2 0x6F7 DUP5 DUP3 DUP6 ADD PUSH2 0x625 JUMP JUMPDEST SWAP2 POP POP SWAP3 SWAP2 POP POP JUMP JUMPDEST PUSH2 0x709 DUP2 PUSH2 0x579 JUMP JUMPDEST DUP3 MSTORE POP POP JUMP JUMPDEST PUSH1 0x0 PUSH1 0x60 DUP3 ADD SWAP1 POP PUSH2 0x724 PUSH1 0x0 DUP4 ADD DUP7 PUSH2 0x700 JUMP JUMPDEST PUSH2 0x731 PUSH1 0x20 DUP4 ADD DUP6 PUSH2 0x700 JUMP JUMPDEST PUSH2 0x73E PUSH1 0x40 DUP4 ADD DUP5 PUSH2 0x700 JUMP JUMPDEST SWAP5 SWAP4 POP POP POP POP JUMP JUMPDEST PUSH32 0x4E487B7100000000000000000000000000000000000000000000000000000000 PUSH1 0x0 MSTORE PUSH1 0x11 PUSH1 0x4 MSTORE PUSH1 0x24 PUSH1 0x0 REVERT JUMPDEST PUSH1 0x0 PUSH2 0x780 DUP3 PUSH2 0x579 JUMP JUMPDEST SWAP2 POP PUSH2 0x78B DUP4 PUSH2 0x579 JUMP JUMPDEST SWAP3 POP DUP3 DUP3 SUB SWAP1 POP DUP2 DUP2 GT ISZERO PUSH2 0x7A3 JUMPI PUSH2 0x7A2 PUSH2 0x746 JUMP JUMPDEST JUMPDEST SWAP3 SWAP2 POP POP JUMP JUMPDEST PUSH1 0x0 PUSH2 0x7B4 DUP3 PUSH2 0x579 JUMP JUMPDEST SWAP2 POP PUSH32 0xFFFFFFFFFFFFFFFFFFFFFFFFFFFFFFFFFFFFFFFFFFFFFFFFFFFFFFFFFFFFFFFF DUP3 SUB PUSH2 0x7E6 JUMPI PUSH2 0x7E5 PUSH2 0x746 JUMP JUMPDEST JUMPDEST PUSH1 0x1 DUP3 ADD SWAP1 POP SWAP2 SWAP1 POP JUMP JUMPDEST PUSH1 0x0 PUSH2 0x7FC DUP3 PUSH2 0x579 JUMP JUMPDEST SWAP2 POP PUSH2 0x807 DUP4 PUSH2 0x579 JUMP JUMPDEST SWAP3 POP DUP3 DUP3 ADD SWAP1 POP DUP1 DUP3 GT ISZERO PUSH2 0x81F JUMPI PUSH2 0x81E PUSH2 0x746 JUMP JUMPDEST JUMPDEST SWAP3 SWAP2 POP POP JUMP INVALID LOG2 PUSH5 0x6970667358 0x22 SLT KECCAK256 PUSH22 0xB0074CB2D53058E714C87077161FDE7FC58BA9F70A5A 0x2B SWAP2 PUSH30 0x63BFFF6C01E964736F6C6343000812003300000000000000000000000000 "
				},
				"gasEstimates": {
					"creation": {
						"codeDepositCost": "427800",
						"executionCost": "461",
						"totalCost": "428261"
					},
					"external": {
						"Get_Deposit_Data(uint256,address)": "infinite",
						"Send_Money()": "infinite",
						"Transaction_data(address)": "infinite",
						"Withdraw(uint256)": "infinite",
						"Withdraw_Data(uint256,address)": "infinite"
					}
				},
				"methodIdentifiers": {
					"Get_Deposit_Data(uint256,address)": "900a1ec9",
					"Send_Money()": "e7df9ebe",
					"Transaction_data(address)": "f36ed819",
					"Withdraw(uint256)": "5b6b431d",
					"Withdraw_Data(uint256,address)": "b515940a"
				}
			},
			"storageLayout": {
				"storage": [
					{
						"astId": 28,
						"contract": "walletnew11.sol:wallet",
						"label": "Transaction_data",
						"offset": 0,
						"slot": "0",
						"type": "t_mapping(t_address,t_struct(data)23_storage)"
					}
				],
				"types": {
					"t_address": {
						"encoding": "inplace",
						"label": "address",
						"numberOfBytes": "20"
					},
					"t_mapping(t_address,t_struct(data)23_storage)": {
						"encoding": "mapping",
						"key": "t_address",
						"label": "mapping(address => struct wallet.data)",
						"numberOfBytes": "32",
						"value": "t_struct(data)23_storage"
					},
					"t_mapping(t_uint256,t_struct(transection)6_storage)": {
						"encoding": "mapping",
						"key": "t_uint256",
						"label": "mapping(uint256 => struct wallet.transection)",
						"numberOfBytes": "32",
						"value": "t_struct(transection)6_storage"
					},
					"t_struct(data)23_storage": {
						"encoding": "inplace",
						"label": "struct wallet.data",
						"members": [
							{
								"astId": 8,
								"contract": "walletnew11.sol:wallet",
								"label": "balance",
								"offset": 0,
								"slot": "0",
								"type": "t_uint256"
							},
							{
								"astId": 10,
								"contract": "walletnew11.sol:wallet",
								"label": "depositid",
								"offset": 0,
								"slot": "1",
								"type": "t_uint256"
							},
							{
								"astId": 15,
								"contract": "walletnew11.sol:wallet",
								"label": "depositdata",
								"offset": 0,
								"slot": "2",
								"type": "t_mapping(t_uint256,t_struct(transection)6_storage)"
							},
							{
								"astId": 17,
								"contract": "walletnew11.sol:wallet",
								"label": "withdrawid",
								"offset": 0,
								"slot": "3",
								"type": "t_uint256"
							},
							{
								"astId": 22,
								"contract": "walletnew11.sol:wallet",
								"label": "withdrawdata",
								"offset": 0,
								"slot": "4",
								"type": "t_mapping(t_uint256,t_struct(transection)6_storage)"
							}
						],
						"numberOfBytes": "160"
					},
					"t_struct(transection)6_storage": {
						"encoding": "inplace",
						"label": "struct wallet.transection",
						"members": [
							{
								"astId": 3,
								"contract": "walletnew11.sol:wallet",
								"label": "amount",
								"offset": 0,
								"slot": "0",
								"type": "t_uint256"
							},
							{
								"astId": 5,
								"contract": "walletnew11.sol:wallet",
								"label": "time",
								"offset": 0,
								"slot": "1",
								"type": "t_uint256"
							}
						],
						"numberOfBytes": "64"
					},
					"t_uint256": {
						"encoding": "inplace",
						"label": "uint256",
						"numberOfBytes": "32"
					}
				}
			},
			"userdoc": {
				"kind": "user",
				"methods": {},
				"version": 1
			}
		}
	}
}