{
	"event2.sol": {
		"organizer": {
			"abi": [
				{
					"inputs": [
						{
							"internalType": "uint256",
							"name": "id",
							"type": "uint256"
						},
						{
							"internalType": "string",
							"name": "name",
							"type": "string"
						},
						{
							"internalType": "uint256",
							"name": "price",
							"type": "uint256"
						},
						{
							"internalType": "uint256",
							"name": "tcount",
							"type": "uint256"
						},
						{
							"internalType": "uint256",
							"name": "tremain",
							"type": "uint256"
						},
						{
							"internalType": "string",
							"name": "speaker",
							"type": "string"
						}
					],
					"name": "Register",
					"outputs": [],
					"stateMutability": "nonpayable",
					"type": "function"
				}
			],
			"devdoc": {
				"kind": "dev",
				"methods": {},
				"version": 1
			},
			"evm": {
				"assembly": "    /* \"event2.sol\":72:866  contract organizer{... */\n  mstore(0x40, 0x80)\n  callvalue\n  dup1\n  iszero\n  tag_1\n  jumpi\n  0x00\n  dup1\n  revert\ntag_1:\n  pop\n  dataSize(sub_0)\n  dup1\n  dataOffset(sub_0)\n  0x00\n  codecopy\n  0x00\n  return\nstop\n\nsub_0: assembly {\n        /* \"event2.sol\":72:866  contract organizer{... */\n      mstore(0x40, 0x80)\n      callvalue\n      dup1\n      iszero\n      tag_1\n      jumpi\n      0x00\n      dup1\n      revert\n    tag_1:\n      pop\n      jumpi(tag_2, lt(calldatasize, 0x04))\n      shr(0xe0, calldataload(0x00))\n      dup1\n      0x3775a378\n      eq\n      tag_3\n      jumpi\n    tag_2:\n      0x00\n      dup1\n      revert\n        /* \"event2.sol\":566:848  function Register(uint id,string memory name,uint price,uint tcount,uint tremain,string memory speaker) public{... */\n    tag_3:\n      tag_4\n      0x04\n      dup1\n      calldatasize\n      sub\n      dup2\n      add\n      swap1\n      tag_5\n      swap2\n      swap1\n      tag_6\n      jump\t// in\n    tag_5:\n      tag_7\n      jump\t// in\n    tag_4:\n      stop\n    tag_7:\n        /* \"event2.sol\":691:706  Event memory e1 */\n      0x00\n        /* \"event2.sol\":707:758  Event(msg.sender,name,price,tcount,tremain,speaker) */\n      mload(0x40)\n      dup1\n      0xc0\n      add\n      0x40\n      mstore\n      dup1\n        /* \"event2.sol\":713:723  msg.sender */\n      caller\n        /* \"event2.sol\":707:758  Event(msg.sender,name,price,tcount,tremain,speaker) */\n      0xffffffffffffffffffffffffffffffffffffffff\n      and\n      dup2\n      mstore\n      0x20\n      add\n        /* \"event2.sol\":724:728  name */\n      dup8\n        /* \"event2.sol\":707:758  Event(msg.sender,name,price,tcount,tremain,speaker) */\n      dup2\n      mstore\n      0x20\n      add\n        /* \"event2.sol\":729:734  price */\n      dup7\n        /* \"event2.sol\":707:758  Event(msg.sender,name,price,tcount,tremain,speaker) */\n      dup2\n      mstore\n      0x20\n      add\n        /* \"event2.sol\":735:741  tcount */\n      dup6\n        /* \"event2.sol\":707:758  Event(msg.sender,name,price,tcount,tremain,speaker) */\n      dup2\n      mstore\n      0x20\n      add\n        /* \"event2.sol\":742:749  tremain */\n      dup5\n        /* \"event2.sol\":707:758  Event(msg.sender,name,price,tcount,tremain,speaker) */\n      dup2\n      mstore\n      0x20\n      add\n        /* \"event2.sol\":750:757  speaker */\n      dup4\n        /* \"event2.sol\":707:758  Event(msg.sender,name,price,tcount,tremain,speaker) */\n      dup2\n      mstore\n      pop\n        /* \"event2.sol\":691:758  Event memory e1=Event(msg.sender,name,price,tcount,tremain,speaker) */\n      swap1\n      pop\n        /* \"event2.sol\":773:789  count storage e2 */\n      0x00\n        /* \"event2.sol\":818:820  e1 */\n      dup2\n        /* \"event2.sol\":804:813  eventdata */\n      0x00\n        /* \"event2.sol\":804:817  eventdata[id] */\n      dup1\n        /* \"event2.sol\":814:816  id */\n      dup11\n        /* \"event2.sol\":804:817  eventdata[id] */\n      dup2\n      mstore\n      0x20\n      add\n      swap1\n      dup2\n      mstore\n      0x20\n      add\n      0x00\n      keccak256\n        /* \"event2.sol\":804:820  eventdata[id]=e1 */\n      0x00\n      dup3\n      add\n      mload\n      dup2\n      0x00\n      add\n      exp(0x0100, 0x00)\n      dup2\n      sload\n      dup2\n      0xffffffffffffffffffffffffffffffffffffffff\n      mul\n      not\n      and\n      swap1\n      dup4\n      0xffffffffffffffffffffffffffffffffffffffff\n      and\n      mul\n      or\n      swap1\n      sstore\n      pop\n      0x20\n      dup3\n      add\n      mload\n      dup2\n      0x01\n      add\n      swap1\n      dup2\n      tag_9\n      swap2\n      swap1\n      tag_10\n      jump\t// in\n    tag_9:\n      pop\n      0x40\n      dup3\n      add\n      mload\n      dup2\n      0x02\n      add\n      sstore\n      0x60\n      dup3\n      add\n      mload\n      dup2\n      0x03\n      add\n      sstore\n      0x80\n      dup3\n      add\n      mload\n      dup2\n      0x04\n      add\n      sstore\n      0xa0\n      dup3\n      add\n      mload\n      dup2\n      0x05\n      add\n      swap1\n      dup2\n      tag_11\n      swap2\n      swap1\n      tag_10\n      jump\t// in\n    tag_11:\n      pop\n      swap1\n      pop\n      pop\n        /* \"event2.sol\":676:848  {... */\n      pop\n      pop\n        /* \"event2.sol\":566:848  function Register(uint id,string memory name,uint price,uint tcount,uint tremain,string memory speaker) public{... */\n      pop\n      pop\n      pop\n      pop\n      pop\n      pop\n      jump\t// out\n        /* \"#utility.yul\":7:82   */\n    tag_12:\n        /* \"#utility.yul\":40:46   */\n      0x00\n        /* \"#utility.yul\":73:75   */\n      0x40\n        /* \"#utility.yul\":67:76   */\n      mload\n        /* \"#utility.yul\":57:76   */\n      swap1\n      pop\n        /* \"#utility.yul\":7:82   */\n      swap1\n      jump\t// out\n        /* \"#utility.yul\":88:205   */\n    tag_13:\n        /* \"#utility.yul\":197:198   */\n      0x00\n        /* \"#utility.yul\":194:195   */\n      dup1\n        /* \"#utility.yul\":187:199   */\n      revert\n        /* \"#utility.yul\":211:328   */\n    tag_14:\n        /* \"#utility.yul\":320:321   */\n      0x00\n        /* \"#utility.yul\":317:318   */\n      dup1\n        /* \"#utility.yul\":310:322   */\n      revert\n        /* \"#utility.yul\":334:411   */\n    tag_15:\n        /* \"#utility.yul\":371:378   */\n      0x00\n        /* \"#utility.yul\":400:405   */\n      dup2\n        /* \"#utility.yul\":389:405   */\n      swap1\n      pop\n        /* \"#utility.yul\":334:411   */\n      swap2\n      swap1\n      pop\n      jump\t// out\n        /* \"#utility.yul\":417:539   */\n    tag_16:\n        /* \"#utility.yul\":490:514   */\n      tag_52\n        /* \"#utility.yul\":508:513   */\n      dup2\n        /* \"#utility.yul\":490:514   */\n      tag_15\n      jump\t// in\n    tag_52:\n        /* \"#utility.yul\":483:488   */\n      dup2\n        /* \"#utility.yul\":480:515   */\n      eq\n        /* \"#utility.yul\":470:533   */\n      tag_53\n      jumpi\n        /* \"#utility.yul\":529:530   */\n      0x00\n        /* \"#utility.yul\":526:527   */\n      dup1\n        /* \"#utility.yul\":519:531   */\n      revert\n        /* \"#utility.yul\":470:533   */\n    tag_53:\n        /* \"#utility.yul\":417:539   */\n      pop\n      jump\t// out\n        /* \"#utility.yul\":545:684   */\n    tag_17:\n        /* \"#utility.yul\":591:596   */\n      0x00\n        /* \"#utility.yul\":629:635   */\n      dup2\n        /* \"#utility.yul\":616:636   */\n      calldataload\n        /* \"#utility.yul\":607:636   */\n      swap1\n      pop\n        /* \"#utility.yul\":645:678   */\n      tag_55\n        /* \"#utility.yul\":672:677   */\n      dup2\n        /* \"#utility.yul\":645:678   */\n      tag_16\n      jump\t// in\n    tag_55:\n        /* \"#utility.yul\":545:684   */\n      swap3\n      swap2\n      pop\n      pop\n      jump\t// out\n        /* \"#utility.yul\":690:807   */\n    tag_18:\n        /* \"#utility.yul\":799:800   */\n      0x00\n        /* \"#utility.yul\":796:797   */\n      dup1\n        /* \"#utility.yul\":789:801   */\n      revert\n        /* \"#utility.yul\":813:930   */\n    tag_19:\n        /* \"#utility.yul\":922:923   */\n      0x00\n        /* \"#utility.yul\":919:920   */\n      dup1\n        /* \"#utility.yul\":912:924   */\n      revert\n        /* \"#utility.yul\":936:1038   */\n    tag_20:\n        /* \"#utility.yul\":977:983   */\n      0x00\n        /* \"#utility.yul\":1028:1030   */\n      0x1f\n        /* \"#utility.yul\":1024:1031   */\n      not\n        /* \"#utility.yul\":1019:1021   */\n      0x1f\n        /* \"#utility.yul\":1012:1017   */\n      dup4\n        /* \"#utility.yul\":1008:1022   */\n      add\n        /* \"#utility.yul\":1004:1032   */\n      and\n        /* \"#utility.yul\":994:1032   */\n      swap1\n      pop\n        /* \"#utility.yul\":936:1038   */\n      swap2\n      swap1\n      pop\n      jump\t// out\n        /* \"#utility.yul\":1044:1224   */\n    tag_21:\n        /* \"#utility.yul\":1092:1169   */\n      0x4e487b7100000000000000000000000000000000000000000000000000000000\n        /* \"#utility.yul\":1089:1090   */\n      0x00\n        /* \"#utility.yul\":1082:1170   */\n      mstore\n        /* \"#utility.yul\":1189:1193   */\n      0x41\n        /* \"#utility.yul\":1186:1187   */\n      0x04\n        /* \"#utility.yul\":1179:1194   */\n      mstore\n        /* \"#utility.yul\":1213:1217   */\n      0x24\n        /* \"#utility.yul\":1210:1211   */\n      0x00\n        /* \"#utility.yul\":1203:1218   */\n      revert\n        /* \"#utility.yul\":1230:1511   */\n    tag_22:\n        /* \"#utility.yul\":1313:1340   */\n      tag_61\n        /* \"#utility.yul\":1335:1339   */\n      dup3\n        /* \"#utility.yul\":1313:1340   */\n      tag_20\n      jump\t// in\n    tag_61:\n        /* \"#utility.yul\":1305:1311   */\n      dup2\n        /* \"#utility.yul\":1301:1341   */\n      add\n        /* \"#utility.yul\":1443:1449   */\n      dup2\n        /* \"#utility.yul\":1431:1441   */\n      dup2\n        /* \"#utility.yul\":1428:1450   */\n      lt\n        /* \"#utility.yul\":1407:1425   */\n      0xffffffffffffffff\n        /* \"#utility.yul\":1395:1405   */\n      dup3\n        /* \"#utility.yul\":1392:1426   */\n      gt\n        /* \"#utility.yul\":1389:1451   */\n      or\n        /* \"#utility.yul\":1386:1474   */\n      iszero\n      tag_62\n      jumpi\n        /* \"#utility.yul\":1454:1472   */\n      tag_63\n      tag_21\n      jump\t// in\n    tag_63:\n        /* \"#utility.yul\":1386:1474   */\n    tag_62:\n        /* \"#utility.yul\":1494:1504   */\n      dup1\n        /* \"#utility.yul\":1490:1492   */\n      0x40\n        /* \"#utility.yul\":1483:1505   */\n      mstore\n        /* \"#utility.yul\":1273:1511   */\n      pop\n        /* \"#utility.yul\":1230:1511   */\n      pop\n      pop\n      jump\t// out\n        /* \"#utility.yul\":1517:1646   */\n    tag_23:\n        /* \"#utility.yul\":1551:1557   */\n      0x00\n        /* \"#utility.yul\":1578:1598   */\n      tag_65\n      tag_12\n      jump\t// in\n    tag_65:\n        /* \"#utility.yul\":1568:1598   */\n      swap1\n      pop\n        /* \"#utility.yul\":1607:1640   */\n      tag_66\n        /* \"#utility.yul\":1635:1639   */\n      dup3\n        /* \"#utility.yul\":1627:1633   */\n      dup3\n        /* \"#utility.yul\":1607:1640   */\n      tag_22\n      jump\t// in\n    tag_66:\n        /* \"#utility.yul\":1517:1646   */\n      swap2\n      swap1\n      pop\n      jump\t// out\n        /* \"#utility.yul\":1652:1960   */\n    tag_24:\n        /* \"#utility.yul\":1714:1718   */\n      0x00\n        /* \"#utility.yul\":1804:1822   */\n      0xffffffffffffffff\n        /* \"#utility.yul\":1796:1802   */\n      dup3\n        /* \"#utility.yul\":1793:1823   */\n      gt\n        /* \"#utility.yul\":1790:1846   */\n      iszero\n      tag_68\n      jumpi\n        /* \"#utility.yul\":1826:1844   */\n      tag_69\n      tag_21\n      jump\t// in\n    tag_69:\n        /* \"#utility.yul\":1790:1846   */\n    tag_68:\n        /* \"#utility.yul\":1864:1893   */\n      tag_70\n        /* \"#utility.yul\":1886:1892   */\n      dup3\n        /* \"#utility.yul\":1864:1893   */\n      tag_20\n      jump\t// in\n    tag_70:\n        /* \"#utility.yul\":1856:1893   */\n      swap1\n      pop\n        /* \"#utility.yul\":1948:1952   */\n      0x20\n        /* \"#utility.yul\":1942:1946   */\n      dup2\n        /* \"#utility.yul\":1938:1953   */\n      add\n        /* \"#utility.yul\":1930:1953   */\n      swap1\n      pop\n        /* \"#utility.yul\":1652:1960   */\n      swap2\n      swap1\n      pop\n      jump\t// out\n        /* \"#utility.yul\":1966:2112   */\n    tag_25:\n        /* \"#utility.yul\":2063:2069   */\n      dup3\n        /* \"#utility.yul\":2058:2061   */\n      dup2\n        /* \"#utility.yul\":2053:2056   */\n      dup4\n        /* \"#utility.yul\":2040:2070   */\n      calldatacopy\n        /* \"#utility.yul\":2104:2105   */\n      0x00\n        /* \"#utility.yul\":2095:2101   */\n      dup4\n        /* \"#utility.yul\":2090:2093   */\n      dup4\n        /* \"#utility.yul\":2086:2102   */\n      add\n        /* \"#utility.yul\":2079:2106   */\n      mstore\n        /* \"#utility.yul\":1966:2112   */\n      pop\n      pop\n      pop\n      jump\t// out\n        /* \"#utility.yul\":2118:2543   */\n    tag_26:\n        /* \"#utility.yul\":2196:2201   */\n      0x00\n        /* \"#utility.yul\":2221:2287   */\n      tag_73\n        /* \"#utility.yul\":2237:2286   */\n      tag_74\n        /* \"#utility.yul\":2279:2285   */\n      dup5\n        /* \"#utility.yul\":2237:2286   */\n      tag_24\n      jump\t// in\n    tag_74:\n        /* \"#utility.yul\":2221:2287   */\n      tag_23\n      jump\t// in\n    tag_73:\n        /* \"#utility.yul\":2212:2287   */\n      swap1\n      pop\n        /* \"#utility.yul\":2310:2316   */\n      dup3\n        /* \"#utility.yul\":2303:2308   */\n      dup2\n        /* \"#utility.yul\":2296:2317   */\n      mstore\n        /* \"#utility.yul\":2348:2352   */\n      0x20\n        /* \"#utility.yul\":2341:2346   */\n      dup2\n        /* \"#utility.yul\":2337:2353   */\n      add\n        /* \"#utility.yul\":2386:2389   */\n      dup5\n        /* \"#utility.yul\":2377:2383   */\n      dup5\n        /* \"#utility.yul\":2372:2375   */\n      dup5\n        /* \"#utility.yul\":2368:2384   */\n      add\n        /* \"#utility.yul\":2365:2390   */\n      gt\n        /* \"#utility.yul\":2362:2474   */\n      iszero\n      tag_75\n      jumpi\n        /* \"#utility.yul\":2393:2472   */\n      tag_76\n      tag_19\n      jump\t// in\n    tag_76:\n        /* \"#utility.yul\":2362:2474   */\n    tag_75:\n        /* \"#utility.yul\":2483:2537   */\n      tag_77\n        /* \"#utility.yul\":2530:2536   */\n      dup5\n        /* \"#utility.yul\":2525:2528   */\n      dup3\n        /* \"#utility.yul\":2520:2523   */\n      dup6\n        /* \"#utility.yul\":2483:2537   */\n      tag_25\n      jump\t// in\n    tag_77:\n        /* \"#utility.yul\":2202:2543   */\n      pop\n        /* \"#utility.yul\":2118:2543   */\n      swap4\n      swap3\n      pop\n      pop\n      pop\n      jump\t// out\n        /* \"#utility.yul\":2563:2903   */\n    tag_27:\n        /* \"#utility.yul\":2619:2624   */\n      0x00\n        /* \"#utility.yul\":2668:2671   */\n      dup3\n        /* \"#utility.yul\":2661:2665   */\n      0x1f\n        /* \"#utility.yul\":2653:2659   */\n      dup4\n        /* \"#utility.yul\":2649:2666   */\n      add\n        /* \"#utility.yul\":2645:2672   */\n      slt\n        /* \"#utility.yul\":2635:2757   */\n      tag_79\n      jumpi\n        /* \"#utility.yul\":2676:2755   */\n      tag_80\n      tag_18\n      jump\t// in\n    tag_80:\n        /* \"#utility.yul\":2635:2757   */\n    tag_79:\n        /* \"#utility.yul\":2793:2799   */\n      dup2\n        /* \"#utility.yul\":2780:2800   */\n      calldataload\n        /* \"#utility.yul\":2818:2897   */\n      tag_81\n        /* \"#utility.yul\":2893:2896   */\n      dup5\n        /* \"#utility.yul\":2885:2891   */\n      dup3\n        /* \"#utility.yul\":2878:2882   */\n      0x20\n        /* \"#utility.yul\":2870:2876   */\n      dup7\n        /* \"#utility.yul\":2866:2883   */\n      add\n        /* \"#utility.yul\":2818:2897   */\n      tag_26\n      jump\t// in\n    tag_81:\n        /* \"#utility.yul\":2809:2897   */\n      swap2\n      pop\n        /* \"#utility.yul\":2625:2903   */\n      pop\n        /* \"#utility.yul\":2563:2903   */\n      swap3\n      swap2\n      pop\n      pop\n      jump\t// out\n        /* \"#utility.yul\":2909:4326   */\n    tag_6:\n        /* \"#utility.yul\":3033:3039   */\n      0x00\n        /* \"#utility.yul\":3041:3047   */\n      dup1\n        /* \"#utility.yul\":3049:3055   */\n      0x00\n        /* \"#utility.yul\":3057:3063   */\n      dup1\n        /* \"#utility.yul\":3065:3071   */\n      0x00\n        /* \"#utility.yul\":3073:3079   */\n      dup1\n        /* \"#utility.yul\":3122:3125   */\n      0xc0\n        /* \"#utility.yul\":3110:3119   */\n      dup8\n        /* \"#utility.yul\":3101:3108   */\n      dup10\n        /* \"#utility.yul\":3097:3120   */\n      sub\n        /* \"#utility.yul\":3093:3126   */\n      slt\n        /* \"#utility.yul\":3090:3210   */\n      iszero\n      tag_83\n      jumpi\n        /* \"#utility.yul\":3129:3208   */\n      tag_84\n      tag_13\n      jump\t// in\n    tag_84:\n        /* \"#utility.yul\":3090:3210   */\n    tag_83:\n        /* \"#utility.yul\":3249:3250   */\n      0x00\n        /* \"#utility.yul\":3274:3327   */\n      tag_85\n        /* \"#utility.yul\":3319:3326   */\n      dup10\n        /* \"#utility.yul\":3310:3316   */\n      dup3\n        /* \"#utility.yul\":3299:3308   */\n      dup11\n        /* \"#utility.yul\":3295:3317   */\n      add\n        /* \"#utility.yul\":3274:3327   */\n      tag_17\n      jump\t// in\n    tag_85:\n        /* \"#utility.yul\":3264:3327   */\n      swap7\n      pop\n        /* \"#utility.yul\":3220:3337   */\n      pop\n        /* \"#utility.yul\":3404:3406   */\n      0x20\n        /* \"#utility.yul\":3393:3402   */\n      dup8\n        /* \"#utility.yul\":3389:3407   */\n      add\n        /* \"#utility.yul\":3376:3408   */\n      calldataload\n        /* \"#utility.yul\":3435:3453   */\n      0xffffffffffffffff\n        /* \"#utility.yul\":3427:3433   */\n      dup2\n        /* \"#utility.yul\":3424:3454   */\n      gt\n        /* \"#utility.yul\":3421:3538   */\n      iszero\n      tag_86\n      jumpi\n        /* \"#utility.yul\":3457:3536   */\n      tag_87\n      tag_14\n      jump\t// in\n    tag_87:\n        /* \"#utility.yul\":3421:3538   */\n    tag_86:\n        /* \"#utility.yul\":3562:3625   */\n      tag_88\n        /* \"#utility.yul\":3617:3624   */\n      dup10\n        /* \"#utility.yul\":3608:3614   */\n      dup3\n        /* \"#utility.yul\":3597:3606   */\n      dup11\n        /* \"#utility.yul\":3593:3615   */\n      add\n        /* \"#utility.yul\":3562:3625   */\n      tag_27\n      jump\t// in\n    tag_88:\n        /* \"#utility.yul\":3552:3625   */\n      swap6\n      pop\n        /* \"#utility.yul\":3347:3635   */\n      pop\n        /* \"#utility.yul\":3674:3676   */\n      0x40\n        /* \"#utility.yul\":3700:3753   */\n      tag_89\n        /* \"#utility.yul\":3745:3752   */\n      dup10\n        /* \"#utility.yul\":3736:3742   */\n      dup3\n        /* \"#utility.yul\":3725:3734   */\n      dup11\n        /* \"#utility.yul\":3721:3743   */\n      add\n        /* \"#utility.yul\":3700:3753   */\n      tag_17\n      jump\t// in\n    tag_89:\n        /* \"#utility.yul\":3690:3753   */\n      swap5\n      pop\n        /* \"#utility.yul\":3645:3763   */\n      pop\n        /* \"#utility.yul\":3802:3804   */\n      0x60\n        /* \"#utility.yul\":3828:3881   */\n      tag_90\n        /* \"#utility.yul\":3873:3880   */\n      dup10\n        /* \"#utility.yul\":3864:3870   */\n      dup3\n        /* \"#utility.yul\":3853:3862   */\n      dup11\n        /* \"#utility.yul\":3849:3871   */\n      add\n        /* \"#utility.yul\":3828:3881   */\n      tag_17\n      jump\t// in\n    tag_90:\n        /* \"#utility.yul\":3818:3881   */\n      swap4\n      pop\n        /* \"#utility.yul\":3773:3891   */\n      pop\n        /* \"#utility.yul\":3930:3933   */\n      0x80\n        /* \"#utility.yul\":3957:4010   */\n      tag_91\n        /* \"#utility.yul\":4002:4009   */\n      dup10\n        /* \"#utility.yul\":3993:3999   */\n      dup3\n        /* \"#utility.yul\":3982:3991   */\n      dup11\n        /* \"#utility.yul\":3978:4000   */\n      add\n        /* \"#utility.yul\":3957:4010   */\n      tag_17\n      jump\t// in\n    tag_91:\n        /* \"#utility.yul\":3947:4010   */\n      swap3\n      pop\n        /* \"#utility.yul\":3901:4020   */\n      pop\n        /* \"#utility.yul\":4087:4090   */\n      0xa0\n        /* \"#utility.yul\":4076:4085   */\n      dup8\n        /* \"#utility.yul\":4072:4091   */\n      add\n        /* \"#utility.yul\":4059:4092   */\n      calldataload\n        /* \"#utility.yul\":4119:4137   */\n      0xffffffffffffffff\n        /* \"#utility.yul\":4111:4117   */\n      dup2\n        /* \"#utility.yul\":4108:4138   */\n      gt\n        /* \"#utility.yul\":4105:4222   */\n      iszero\n      tag_92\n      jumpi\n        /* \"#utility.yul\":4141:4220   */\n      tag_93\n      tag_14\n      jump\t// in\n    tag_93:\n        /* \"#utility.yul\":4105:4222   */\n    tag_92:\n        /* \"#utility.yul\":4246:4309   */\n      tag_94\n        /* \"#utility.yul\":4301:4308   */\n      dup10\n        /* \"#utility.yul\":4292:4298   */\n      dup3\n        /* \"#utility.yul\":4281:4290   */\n      dup11\n        /* \"#utility.yul\":4277:4299   */\n      add\n        /* \"#utility.yul\":4246:4309   */\n      tag_27\n      jump\t// in\n    tag_94:\n        /* \"#utility.yul\":4236:4309   */\n      swap2\n      pop\n        /* \"#utility.yul\":4030:4319   */\n      pop\n        /* \"#utility.yul\":2909:4326   */\n      swap3\n      swap6\n      pop\n      swap3\n      swap6\n      pop\n      swap3\n      swap6\n      jump\t// out\n        /* \"#utility.yul\":4332:4431   */\n    tag_28:\n        /* \"#utility.yul\":4384:4390   */\n      0x00\n        /* \"#utility.yul\":4418:4423   */\n      dup2\n        /* \"#utility.yul\":4412:4424   */\n      mload\n        /* \"#utility.yul\":4402:4424   */\n      swap1\n      pop\n        /* \"#utility.yul\":4332:4431   */\n      swap2\n      swap1\n      pop\n      jump\t// out\n        /* \"#utility.yul\":4437:4617   */\n    tag_29:\n        /* \"#utility.yul\":4485:4562   */\n      0x4e487b7100000000000000000000000000000000000000000000000000000000\n        /* \"#utility.yul\":4482:4483   */\n      0x00\n        /* \"#utility.yul\":4475:4563   */\n      mstore\n        /* \"#utility.yul\":4582:4586   */\n      0x22\n        /* \"#utility.yul\":4579:4580   */\n      0x04\n        /* \"#utility.yul\":4572:4587   */\n      mstore\n        /* \"#utility.yul\":4606:4610   */\n      0x24\n        /* \"#utility.yul\":4603:4604   */\n      0x00\n        /* \"#utility.yul\":4596:4611   */\n      revert\n        /* \"#utility.yul\":4623:4943   */\n    tag_30:\n        /* \"#utility.yul\":4667:4673   */\n      0x00\n        /* \"#utility.yul\":4704:4705   */\n      0x02\n        /* \"#utility.yul\":4698:4702   */\n      dup3\n        /* \"#utility.yul\":4694:4706   */\n      div\n        /* \"#utility.yul\":4684:4706   */\n      swap1\n      pop\n        /* \"#utility.yul\":4751:4752   */\n      0x01\n        /* \"#utility.yul\":4745:4749   */\n      dup3\n        /* \"#utility.yul\":4741:4753   */\n      and\n        /* \"#utility.yul\":4772:4790   */\n      dup1\n        /* \"#utility.yul\":4762:4843   */\n      tag_98\n      jumpi\n        /* \"#utility.yul\":4828:4832   */\n      0x7f\n        /* \"#utility.yul\":4820:4826   */\n      dup3\n        /* \"#utility.yul\":4816:4833   */\n      and\n        /* \"#utility.yul\":4806:4833   */\n      swap2\n      pop\n        /* \"#utility.yul\":4762:4843   */\n    tag_98:\n        /* \"#utility.yul\":4890:4892   */\n      0x20\n        /* \"#utility.yul\":4882:4888   */\n      dup3\n        /* \"#utility.yul\":4879:4893   */\n      lt\n        /* \"#utility.yul\":4859:4877   */\n      dup2\n        /* \"#utility.yul\":4856:4894   */\n      sub\n        /* \"#utility.yul\":4853:4937   */\n      tag_99\n      jumpi\n        /* \"#utility.yul\":4909:4927   */\n      tag_100\n      tag_29\n      jump\t// in\n    tag_100:\n        /* \"#utility.yul\":4853:4937   */\n    tag_99:\n        /* \"#utility.yul\":4674:4943   */\n      pop\n        /* \"#utility.yul\":4623:4943   */\n      swap2\n      swap1\n      pop\n      jump\t// out\n        /* \"#utility.yul\":4949:5090   */\n    tag_31:\n        /* \"#utility.yul\":4998:5002   */\n      0x00\n        /* \"#utility.yul\":5021:5024   */\n      dup2\n        /* \"#utility.yul\":5013:5024   */\n      swap1\n      pop\n        /* \"#utility.yul\":5044:5047   */\n      dup2\n        /* \"#utility.yul\":5041:5042   */\n      0x00\n        /* \"#utility.yul\":5034:5048   */\n      mstore\n        /* \"#utility.yul\":5078:5082   */\n      0x20\n        /* \"#utility.yul\":5075:5076   */\n      0x00\n        /* \"#utility.yul\":5065:5083   */\n      keccak256\n        /* \"#utility.yul\":5057:5083   */\n      swap1\n      pop\n        /* \"#utility.yul\":4949:5090   */\n      swap2\n      swap1\n      pop\n      jump\t// out\n        /* \"#utility.yul\":5096:5189   */\n    tag_32:\n        /* \"#utility.yul\":5133:5139   */\n      0x00\n        /* \"#utility.yul\":5180:5182   */\n      0x20\n        /* \"#utility.yul\":5175:5177   */\n      0x1f\n        /* \"#utility.yul\":5168:5173   */\n      dup4\n        /* \"#utility.yul\":5164:5178   */\n      add\n        /* \"#utility.yul\":5160:5183   */\n      div\n        /* \"#utility.yul\":5150:5183   */\n      swap1\n      pop\n        /* \"#utility.yul\":5096:5189   */\n      swap2\n      swap1\n      pop\n      jump\t// out\n        /* \"#utility.yul\":5195:5302   */\n    tag_33:\n        /* \"#utility.yul\":5239:5247   */\n      0x00\n        /* \"#utility.yul\":5289:5294   */\n      dup3\n        /* \"#utility.yul\":5283:5287   */\n      dup3\n        /* \"#utility.yul\":5279:5295   */\n      shl\n        /* \"#utility.yul\":5258:5295   */\n      swap1\n      pop\n        /* \"#utility.yul\":5195:5302   */\n      swap3\n      swap2\n      pop\n      pop\n      jump\t// out\n        /* \"#utility.yul\":5308:5701   */\n    tag_34:\n        /* \"#utility.yul\":5377:5383   */\n      0x00\n        /* \"#utility.yul\":5427:5428   */\n      0x08\n        /* \"#utility.yul\":5415:5425   */\n      dup4\n        /* \"#utility.yul\":5411:5429   */\n      mul\n        /* \"#utility.yul\":5450:5547   */\n      tag_105\n        /* \"#utility.yul\":5480:5546   */\n      0xffffffffffffffffffffffffffffffffffffffffffffffffffffffffffffffff\n        /* \"#utility.yul\":5469:5478   */\n      dup3\n        /* \"#utility.yul\":5450:5547   */\n      tag_33\n      jump\t// in\n    tag_105:\n        /* \"#utility.yul\":5568:5607   */\n      tag_106\n        /* \"#utility.yul\":5598:5606   */\n      dup7\n        /* \"#utility.yul\":5587:5596   */\n      dup4\n        /* \"#utility.yul\":5568:5607   */\n      tag_33\n      jump\t// in\n    tag_106:\n        /* \"#utility.yul\":5556:5607   */\n      swap6\n      pop\n        /* \"#utility.yul\":5640:5644   */\n      dup1\n        /* \"#utility.yul\":5636:5645   */\n      not\n        /* \"#utility.yul\":5629:5634   */\n      dup5\n        /* \"#utility.yul\":5625:5646   */\n      and\n        /* \"#utility.yul\":5616:5646   */\n      swap4\n      pop\n        /* \"#utility.yul\":5689:5693   */\n      dup1\n        /* \"#utility.yul\":5679:5687   */\n      dup7\n        /* \"#utility.yul\":5675:5694   */\n      and\n        /* \"#utility.yul\":5668:5673   */\n      dup5\n        /* \"#utility.yul\":5665:5695   */\n      or\n        /* \"#utility.yul\":5655:5695   */\n      swap3\n      pop\n        /* \"#utility.yul\":5384:5701   */\n      pop\n      pop\n        /* \"#utility.yul\":5308:5701   */\n      swap4\n      swap3\n      pop\n      pop\n      pop\n      jump\t// out\n        /* \"#utility.yul\":5707:5767   */\n    tag_35:\n        /* \"#utility.yul\":5735:5738   */\n      0x00\n        /* \"#utility.yul\":5756:5761   */\n      dup2\n        /* \"#utility.yul\":5749:5761   */\n      swap1\n      pop\n        /* \"#utility.yul\":5707:5767   */\n      swap2\n      swap1\n      pop\n      jump\t// out\n        /* \"#utility.yul\":5773:5915   */\n    tag_36:\n        /* \"#utility.yul\":5823:5832   */\n      0x00\n        /* \"#utility.yul\":5856:5909   */\n      tag_109\n        /* \"#utility.yul\":5874:5908   */\n      tag_110\n        /* \"#utility.yul\":5883:5907   */\n      tag_111\n        /* \"#utility.yul\":5901:5906   */\n      dup5\n        /* \"#utility.yul\":5883:5907   */\n      tag_15\n      jump\t// in\n    tag_111:\n        /* \"#utility.yul\":5874:5908   */\n      tag_35\n      jump\t// in\n    tag_110:\n        /* \"#utility.yul\":5856:5909   */\n      tag_15\n      jump\t// in\n    tag_109:\n        /* \"#utility.yul\":5843:5909   */\n      swap1\n      pop\n        /* \"#utility.yul\":5773:5915   */\n      swap2\n      swap1\n      pop\n      jump\t// out\n        /* \"#utility.yul\":5921:5996   */\n    tag_37:\n        /* \"#utility.yul\":5964:5967   */\n      0x00\n        /* \"#utility.yul\":5985:5990   */\n      dup2\n        /* \"#utility.yul\":5978:5990   */\n      swap1\n      pop\n        /* \"#utility.yul\":5921:5996   */\n      swap2\n      swap1\n      pop\n      jump\t// out\n        /* \"#utility.yul\":6002:6271   */\n    tag_38:\n        /* \"#utility.yul\":6112:6151   */\n      tag_114\n        /* \"#utility.yul\":6143:6150   */\n      dup4\n        /* \"#utility.yul\":6112:6151   */\n      tag_36\n      jump\t// in\n    tag_114:\n        /* \"#utility.yul\":6173:6264   */\n      tag_115\n        /* \"#utility.yul\":6222:6263   */\n      tag_116\n        /* \"#utility.yul\":6246:6262   */\n      dup3\n        /* \"#utility.yul\":6222:6263   */\n      tag_37\n      jump\t// in\n    tag_116:\n        /* \"#utility.yul\":6214:6220   */\n      dup5\n        /* \"#utility.yul\":6207:6211   */\n      dup5\n        /* \"#utility.yul\":6201:6212   */\n      sload\n        /* \"#utility.yul\":6173:6264   */\n      tag_34\n      jump\t// in\n    tag_115:\n        /* \"#utility.yul\":6167:6171   */\n      dup3\n        /* \"#utility.yul\":6160:6265   */\n      sstore\n        /* \"#utility.yul\":6078:6271   */\n      pop\n        /* \"#utility.yul\":6002:6271   */\n      pop\n      pop\n      pop\n      jump\t// out\n        /* \"#utility.yul\":6277:6350   */\n    tag_39:\n        /* \"#utility.yul\":6322:6325   */\n      0x00\n        /* \"#utility.yul\":6277:6350   */\n      swap1\n      jump\t// out\n        /* \"#utility.yul\":6356:6545   */\n    tag_40:\n        /* \"#utility.yul\":6433:6465   */\n      tag_119\n      tag_39\n      jump\t// in\n    tag_119:\n        /* \"#utility.yul\":6474:6539   */\n      tag_120\n        /* \"#utility.yul\":6532:6538   */\n      dup2\n        /* \"#utility.yul\":6524:6530   */\n      dup5\n        /* \"#utility.yul\":6518:6522   */\n      dup5\n        /* \"#utility.yul\":6474:6539   */\n      tag_38\n      jump\t// in\n    tag_120:\n        /* \"#utility.yul\":6409:6545   */\n      pop\n        /* \"#utility.yul\":6356:6545   */\n      pop\n      pop\n      jump\t// out\n        /* \"#utility.yul\":6551:6737   */\n    tag_41:\n        /* \"#utility.yul\":6611:6731   */\n    tag_122:\n        /* \"#utility.yul\":6628:6631   */\n      dup2\n        /* \"#utility.yul\":6621:6626   */\n      dup2\n        /* \"#utility.yul\":6618:6632   */\n      lt\n        /* \"#utility.yul\":6611:6731   */\n      iszero\n      tag_124\n      jumpi\n        /* \"#utility.yul\":6682:6721   */\n      tag_125\n        /* \"#utility.yul\":6719:6720   */\n      0x00\n        /* \"#utility.yul\":6712:6717   */\n      dup3\n        /* \"#utility.yul\":6682:6721   */\n      tag_40\n      jump\t// in\n    tag_125:\n        /* \"#utility.yul\":6655:6656   */\n      0x01\n        /* \"#utility.yul\":6648:6653   */\n      dup2\n        /* \"#utility.yul\":6644:6657   */\n      add\n        /* \"#utility.yul\":6635:6657   */\n      swap1\n      pop\n        /* \"#utility.yul\":6611:6731   */\n      jump(tag_122)\n    tag_124:\n        /* \"#utility.yul\":6551:6737   */\n      pop\n      pop\n      jump\t// out\n        /* \"#utility.yul\":6743:7286   */\n    tag_42:\n        /* \"#utility.yul\":6844:6846   */\n      0x1f\n        /* \"#utility.yul\":6839:6842   */\n      dup3\n        /* \"#utility.yul\":6836:6847   */\n      gt\n        /* \"#utility.yul\":6833:7279   */\n      iszero\n      tag_127\n      jumpi\n        /* \"#utility.yul\":6878:6916   */\n      tag_128\n        /* \"#utility.yul\":6910:6915   */\n      dup2\n        /* \"#utility.yul\":6878:6916   */\n      tag_31\n      jump\t// in\n    tag_128:\n        /* \"#utility.yul\":6962:6991   */\n      tag_129\n        /* \"#utility.yul\":6980:6990   */\n      dup5\n        /* \"#utility.yul\":6962:6991   */\n      tag_32\n      jump\t// in\n    tag_129:\n        /* \"#utility.yul\":6952:6960   */\n      dup2\n        /* \"#utility.yul\":6948:6992   */\n      add\n        /* \"#utility.yul\":7145:7147   */\n      0x20\n        /* \"#utility.yul\":7133:7143   */\n      dup6\n        /* \"#utility.yul\":7130:7148   */\n      lt\n        /* \"#utility.yul\":7127:7176   */\n      iszero\n      tag_130\n      jumpi\n        /* \"#utility.yul\":7166:7174   */\n      dup2\n        /* \"#utility.yul\":7151:7174   */\n      swap1\n      pop\n        /* \"#utility.yul\":7127:7176   */\n    tag_130:\n        /* \"#utility.yul\":7189:7269   */\n      tag_131\n        /* \"#utility.yul\":7245:7267   */\n      tag_132\n        /* \"#utility.yul\":7263:7266   */\n      dup6\n        /* \"#utility.yul\":7245:7267   */\n      tag_32\n      jump\t// in\n    tag_132:\n        /* \"#utility.yul\":7235:7243   */\n      dup4\n        /* \"#utility.yul\":7231:7268   */\n      add\n        /* \"#utility.yul\":7218:7229   */\n      dup3\n        /* \"#utility.yul\":7189:7269   */\n      tag_41\n      jump\t// in\n    tag_131:\n        /* \"#utility.yul\":6848:7279   */\n      pop\n      pop\n        /* \"#utility.yul\":6833:7279   */\n    tag_127:\n        /* \"#utility.yul\":6743:7286   */\n      pop\n      pop\n      pop\n      jump\t// out\n        /* \"#utility.yul\":7292:7409   */\n    tag_43:\n        /* \"#utility.yul\":7346:7354   */\n      0x00\n        /* \"#utility.yul\":7396:7401   */\n      dup3\n        /* \"#utility.yul\":7390:7394   */\n      dup3\n        /* \"#utility.yul\":7386:7402   */\n      shr\n        /* \"#utility.yul\":7365:7402   */\n      swap1\n      pop\n        /* \"#utility.yul\":7292:7409   */\n      swap3\n      swap2\n      pop\n      pop\n      jump\t// out\n        /* \"#utility.yul\":7415:7584   */\n    tag_44:\n        /* \"#utility.yul\":7459:7465   */\n      0x00\n        /* \"#utility.yul\":7492:7543   */\n      tag_135\n        /* \"#utility.yul\":7540:7541   */\n      0x00\n        /* \"#utility.yul\":7536:7542   */\n      not\n        /* \"#utility.yul\":7528:7533   */\n      dup5\n        /* \"#utility.yul\":7525:7526   */\n      0x08\n        /* \"#utility.yul\":7521:7534   */\n      mul\n        /* \"#utility.yul\":7492:7543   */\n      tag_43\n      jump\t// in\n    tag_135:\n        /* \"#utility.yul\":7488:7544   */\n      not\n        /* \"#utility.yul\":7573:7577   */\n      dup1\n        /* \"#utility.yul\":7567:7571   */\n      dup4\n        /* \"#utility.yul\":7563:7578   */\n      and\n        /* \"#utility.yul\":7553:7578   */\n      swap2\n      pop\n        /* \"#utility.yul\":7466:7584   */\n      pop\n        /* \"#utility.yul\":7415:7584   */\n      swap3\n      swap2\n      pop\n      pop\n      jump\t// out\n        /* \"#utility.yul\":7589:7884   */\n    tag_45:\n        /* \"#utility.yul\":7665:7669   */\n      0x00\n        /* \"#utility.yul\":7811:7840   */\n      tag_137\n        /* \"#utility.yul\":7836:7839   */\n      dup4\n        /* \"#utility.yul\":7830:7834   */\n      dup4\n        /* \"#utility.yul\":7811:7840   */\n      tag_44\n      jump\t// in\n    tag_137:\n        /* \"#utility.yul\":7803:7840   */\n      swap2\n      pop\n        /* \"#utility.yul\":7873:7876   */\n      dup3\n        /* \"#utility.yul\":7870:7871   */\n      0x02\n        /* \"#utility.yul\":7866:7877   */\n      mul\n        /* \"#utility.yul\":7860:7864   */\n      dup3\n        /* \"#utility.yul\":7857:7878   */\n      or\n        /* \"#utility.yul\":7849:7878   */\n      swap1\n      pop\n        /* \"#utility.yul\":7589:7884   */\n      swap3\n      swap2\n      pop\n      pop\n      jump\t// out\n        /* \"#utility.yul\":7889:9284   */\n    tag_10:\n        /* \"#utility.yul\":8006:8043   */\n      tag_139\n        /* \"#utility.yul\":8039:8042   */\n      dup3\n        /* \"#utility.yul\":8006:8043   */\n      tag_28\n      jump\t// in\n    tag_139:\n        /* \"#utility.yul\":8108:8126   */\n      0xffffffffffffffff\n        /* \"#utility.yul\":8100:8106   */\n      dup2\n        /* \"#utility.yul\":8097:8127   */\n      gt\n        /* \"#utility.yul\":8094:8150   */\n      iszero\n      tag_140\n      jumpi\n        /* \"#utility.yul\":8130:8148   */\n      tag_141\n      tag_21\n      jump\t// in\n    tag_141:\n        /* \"#utility.yul\":8094:8150   */\n    tag_140:\n        /* \"#utility.yul\":8174:8212   */\n      tag_142\n        /* \"#utility.yul\":8206:8210   */\n      dup3\n        /* \"#utility.yul\":8200:8211   */\n      sload\n        /* \"#utility.yul\":8174:8212   */\n      tag_30\n      jump\t// in\n    tag_142:\n        /* \"#utility.yul\":8259:8326   */\n      tag_143\n        /* \"#utility.yul\":8319:8325   */\n      dup3\n        /* \"#utility.yul\":8311:8317   */\n      dup3\n        /* \"#utility.yul\":8305:8309   */\n      dup6\n        /* \"#utility.yul\":8259:8326   */\n      tag_42\n      jump\t// in\n    tag_143:\n        /* \"#utility.yul\":8353:8354   */\n      0x00\n        /* \"#utility.yul\":8377:8381   */\n      0x20\n        /* \"#utility.yul\":8364:8381   */\n      swap1\n      pop\n        /* \"#utility.yul\":8409:8411   */\n      0x1f\n        /* \"#utility.yul\":8401:8407   */\n      dup4\n        /* \"#utility.yul\":8398:8412   */\n      gt\n        /* \"#utility.yul\":8426:8427   */\n      0x01\n        /* \"#utility.yul\":8421:9039   */\n      dup2\n      eq\n      tag_145\n      jumpi\n        /* \"#utility.yul\":9083:9084   */\n      0x00\n        /* \"#utility.yul\":9100:9106   */\n      dup5\n        /* \"#utility.yul\":9097:9174   */\n      iszero\n      tag_146\n      jumpi\n        /* \"#utility.yul\":9149:9158   */\n      dup3\n        /* \"#utility.yul\":9144:9147   */\n      dup8\n        /* \"#utility.yul\":9140:9159   */\n      add\n        /* \"#utility.yul\":9134:9160   */\n      mload\n        /* \"#utility.yul\":9125:9160   */\n      swap1\n      pop\n        /* \"#utility.yul\":9097:9174   */\n    tag_146:\n        /* \"#utility.yul\":9200:9267   */\n      tag_147\n        /* \"#utility.yul\":9260:9266   */\n      dup6\n        /* \"#utility.yul\":9253:9258   */\n      dup3\n        /* \"#utility.yul\":9200:9267   */\n      tag_45\n      jump\t// in\n    tag_147:\n        /* \"#utility.yul\":9194:9198   */\n      dup7\n        /* \"#utility.yul\":9187:9268   */\n      sstore\n        /* \"#utility.yul\":9056:9278   */\n      pop\n        /* \"#utility.yul\":8391:9278   */\n      jump(tag_144)\n        /* \"#utility.yul\":8421:9039   */\n    tag_145:\n        /* \"#utility.yul\":8473:8477   */\n      0x1f\n        /* \"#utility.yul\":8469:8478   */\n      not\n        /* \"#utility.yul\":8461:8467   */\n      dup5\n        /* \"#utility.yul\":8457:8479   */\n      and\n        /* \"#utility.yul\":8507:8544   */\n      tag_148\n        /* \"#utility.yul\":8539:8543   */\n      dup7\n        /* \"#utility.yul\":8507:8544   */\n      tag_31\n      jump\t// in\n    tag_148:\n        /* \"#utility.yul\":8566:8567   */\n      0x00\n        /* \"#utility.yul\":8580:8788   */\n    tag_149:\n        /* \"#utility.yul\":8594:8601   */\n      dup3\n        /* \"#utility.yul\":8591:8592   */\n      dup2\n        /* \"#utility.yul\":8588:8602   */\n      lt\n        /* \"#utility.yul\":8580:8788   */\n      iszero\n      tag_151\n      jumpi\n        /* \"#utility.yul\":8673:8682   */\n      dup5\n        /* \"#utility.yul\":8668:8671   */\n      dup10\n        /* \"#utility.yul\":8664:8683   */\n      add\n        /* \"#utility.yul\":8658:8684   */\n      mload\n        /* \"#utility.yul\":8650:8656   */\n      dup3\n        /* \"#utility.yul\":8643:8685   */\n      sstore\n        /* \"#utility.yul\":8724:8725   */\n      0x01\n        /* \"#utility.yul\":8716:8722   */\n      dup3\n        /* \"#utility.yul\":8712:8726   */\n      add\n        /* \"#utility.yul\":8702:8726   */\n      swap2\n      pop\n        /* \"#utility.yul\":8771:8773   */\n      0x20\n        /* \"#utility.yul\":8760:8769   */\n      dup6\n        /* \"#utility.yul\":8756:8774   */\n      add\n        /* \"#utility.yul\":8743:8774   */\n      swap5\n      pop\n        /* \"#utility.yul\":8617:8621   */\n      0x20\n        /* \"#utility.yul\":8614:8615   */\n      dup2\n        /* \"#utility.yul\":8610:8622   */\n      add\n        /* \"#utility.yul\":8605:8622   */\n      swap1\n      pop\n        /* \"#utility.yul\":8580:8788   */\n      jump(tag_149)\n    tag_151:\n        /* \"#utility.yul\":8816:8822   */\n      dup7\n        /* \"#utility.yul\":8807:8814   */\n      dup4\n        /* \"#utility.yul\":8804:8823   */\n      lt\n        /* \"#utility.yul\":8801:8980   */\n      iszero\n      tag_152\n      jumpi\n        /* \"#utility.yul\":8874:8883   */\n      dup5\n        /* \"#utility.yul\":8869:8872   */\n      dup10\n        /* \"#utility.yul\":8865:8884   */\n      add\n        /* \"#utility.yul\":8859:8885   */\n      mload\n        /* \"#utility.yul\":8917:8965   */\n      tag_153\n        /* \"#utility.yul\":8959:8963   */\n      0x1f\n        /* \"#utility.yul\":8951:8957   */\n      dup10\n        /* \"#utility.yul\":8947:8964   */\n      and\n        /* \"#utility.yul\":8936:8945   */\n      dup3\n        /* \"#utility.yul\":8917:8965   */\n      tag_44\n      jump\t// in\n    tag_153:\n        /* \"#utility.yul\":8909:8915   */\n      dup4\n        /* \"#utility.yul\":8902:8966   */\n      sstore\n        /* \"#utility.yul\":8824:8980   */\n      pop\n        /* \"#utility.yul\":8801:8980   */\n    tag_152:\n        /* \"#utility.yul\":9026:9027   */\n      0x01\n        /* \"#utility.yul\":9022:9023   */\n      0x02\n        /* \"#utility.yul\":9014:9020   */\n      dup9\n        /* \"#utility.yul\":9010:9024   */\n      mul\n        /* \"#utility.yul\":9006:9028   */\n      add\n        /* \"#utility.yul\":9000:9004   */\n      dup9\n        /* \"#utility.yul\":8993:9029   */\n      sstore\n        /* \"#utility.yul\":8428:9039   */\n      pop\n      pop\n      pop\n        /* \"#utility.yul\":8391:9278   */\n    tag_144:\n      pop\n        /* \"#utility.yul\":7981:9284   */\n      pop\n      pop\n      pop\n        /* \"#utility.yul\":7889:9284   */\n      pop\n      pop\n      jump\t// out\n\n    auxdata: 0xa264697066735822122020fdcdec9c99256d7eafc6dea0e76a2e0eb74eefb2d6cd66f778054af8d4a95f64736f6c63430008120033\n}\n",
				"bytecode": {
					"linkReferences": {},
					"object": "608060405234801561001057600080fd5b506106ba806100206000396000f3fe608060405234801561001057600080fd5b506004361061002b5760003560e01c80633775a37814610030575b600080fd5b61004a600480360381019061004591906102d6565b61004c565b005b60006040518060c001604052803373ffffffffffffffffffffffffffffffffffffffff1681526020018781526020018681526020018581526020018481526020018381525090506000816000808a815260200190815260200160002060008201518160000160006101000a81548173ffffffffffffffffffffffffffffffffffffffff021916908373ffffffffffffffffffffffffffffffffffffffff160217905550602082015181600101908161010491906105b2565b5060408201518160020155606082015181600301556080820151816004015560a082015181600501908161013891906105b2565b509050505050505050505050565b6000604051905090565b600080fd5b600080fd5b6000819050919050565b61016d8161015a565b811461017857600080fd5b50565b60008135905061018a81610164565b92915050565b600080fd5b600080fd5b6000601f19601f8301169050919050565b7f4e487b7100000000000000000000000000000000000000000000000000000000600052604160045260246000fd5b6101e38261019a565b810181811067ffffffffffffffff82111715610202576102016101ab565b5b80604052505050565b6000610215610146565b905061022182826101da565b919050565b600067ffffffffffffffff821115610241576102406101ab565b5b61024a8261019a565b9050602081019050919050565b82818337600083830152505050565b600061027961027484610226565b61020b565b90508281526020810184848401111561029557610294610195565b5b6102a0848285610257565b509392505050565b600082601f8301126102bd576102bc610190565b5b81356102cd848260208601610266565b91505092915050565b60008060008060008060c087890312156102f3576102f2610150565b5b600061030189828a0161017b565b965050602087013567ffffffffffffffff81111561032257610321610155565b5b61032e89828a016102a8565b955050604061033f89828a0161017b565b945050606061035089828a0161017b565b935050608061036189828a0161017b565b92505060a087013567ffffffffffffffff81111561038257610381610155565b5b61038e89828a016102a8565b9150509295509295509295565b600081519050919050565b7f4e487b7100000000000000000000000000000000000000000000000000000000600052602260045260246000fd5b600060028204905060018216806103ed57607f821691505b602082108103610400576103ff6103a6565b5b50919050565b60008190508160005260206000209050919050565b60006020601f8301049050919050565b600082821b905092915050565b6000600883026104687fffffffffffffffffffffffffffffffffffffffffffffffffffffffffffffffff8261042b565b610472868361042b565b95508019841693508086168417925050509392505050565b6000819050919050565b60006104af6104aa6104a58461015a565b61048a565b61015a565b9050919050565b6000819050919050565b6104c983610494565b6104dd6104d5826104b6565b848454610438565b825550505050565b600090565b6104f26104e5565b6104fd8184846104c0565b505050565b5b81811015610521576105166000826104ea565b600181019050610503565b5050565b601f8211156105665761053781610406565b6105408461041b565b8101602085101561054f578190505b61056361055b8561041b565b830182610502565b50505b505050565b600082821c905092915050565b60006105896000198460080261056b565b1980831691505092915050565b60006105a28383610578565b9150826002028217905092915050565b6105bb8261039b565b67ffffffffffffffff8111156105d4576105d36101ab565b5b6105de82546103d5565b6105e9828285610525565b600060209050601f83116001811461061c576000841561060a578287015190505b6106148582610596565b86555061067c565b601f19841661062a86610406565b60005b828110156106525784890151825560018201915060208501945060208101905061062d565b8683101561066f578489015161066b601f891682610578565b8355505b6001600288020188555050505b50505050505056fea264697066735822122020fdcdec9c99256d7eafc6dea0e76a2e0eb74eefb2d6cd66f778054af8d4a95f64736f6c63430008120033",
					"opcodes": "PUSH1 0x80 PUSH1 0x40 MSTORE CALLVALUE DUP1 ISZERO PUSH2 0x10 JUMPI PUSH1 0x0 DUP1 REVERT JUMPDEST POP PUSH2 0x6BA DUP1 PUSH2 0x20 PUSH1 0x0 CODECOPY PUSH1 0x0 RETURN INVALID PUSH1 0x80 PUSH1 0x40 MSTORE CALLVALUE DUP1 ISZERO PUSH2 0x10 JUMPI PUSH1 0x0 DUP1 REVERT JUMPDEST POP PUSH1 0x4 CALLDATASIZE LT PUSH2 0x2B JUMPI PUSH1 0x0 CALLDATALOAD PUSH1 0xE0 SHR DUP1 PUSH4 0x3775A378 EQ PUSH2 0x30 JUMPI JUMPDEST PUSH1 0x0 DUP1 REVERT JUMPDEST PUSH2 0x4A PUSH1 0x4 DUP1 CALLDATASIZE SUB DUP2 ADD SWAP1 PUSH2 0x45 SWAP2 SWAP1 PUSH2 0x2D6 JUMP JUMPDEST PUSH2 0x4C JUMP JUMPDEST STOP JUMPDEST PUSH1 0x0 PUSH1 0x40 MLOAD DUP1 PUSH1 0xC0 ADD PUSH1 0x40 MSTORE DUP1 CALLER PUSH20 0xFFFFFFFFFFFFFFFFFFFFFFFFFFFFFFFFFFFFFFFF AND DUP2 MSTORE PUSH1 0x20 ADD DUP8 DUP2 MSTORE PUSH1 0x20 ADD DUP7 DUP2 MSTORE PUSH1 0x20 ADD DUP6 DUP2 MSTORE PUSH1 0x20 ADD DUP5 DUP2 MSTORE PUSH1 0x20 ADD DUP4 DUP2 MSTORE POP SWAP1 POP PUSH1 0x0 DUP2 PUSH1 0x0 DUP1 DUP11 DUP2 MSTORE PUSH1 0x20 ADD SWAP1 DUP2 MSTORE PUSH1 0x20 ADD PUSH1 0x0 KECCAK256 PUSH1 0x0 DUP3 ADD MLOAD DUP2 PUSH1 0x0 ADD PUSH1 0x0 PUSH2 0x100 EXP DUP2 SLOAD DUP2 PUSH20 0xFFFFFFFFFFFFFFFFFFFFFFFFFFFFFFFFFFFFFFFF MUL NOT AND SWAP1 DUP4 PUSH20 0xFFFFFFFFFFFFFFFFFFFFFFFFFFFFFFFFFFFFFFFF AND MUL OR SWAP1 SSTORE POP PUSH1 0x20 DUP3 ADD MLOAD DUP2 PUSH1 0x1 ADD SWAP1 DUP2 PUSH2 0x104 SWAP2 SWAP1 PUSH2 0x5B2 JUMP JUMPDEST POP PUSH1 0x40 DUP3 ADD MLOAD DUP2 PUSH1 0x2 ADD SSTORE PUSH1 0x60 DUP3 ADD MLOAD DUP2 PUSH1 0x3 ADD SSTORE PUSH1 0x80 DUP3 ADD MLOAD DUP2 PUSH1 0x4 ADD SSTORE PUSH1 0xA0 DUP3 ADD MLOAD DUP2 PUSH1 0x5 ADD SWAP1 DUP2 PUSH2 0x138 SWAP2 SWAP1 PUSH2 0x5B2 JUMP JUMPDEST POP SWAP1 POP POP POP POP POP POP POP POP POP POP JUMP JUMPDEST PUSH1 0x0 PUSH1 0x40 MLOAD SWAP1 POP SWAP1 JUMP JUMPDEST PUSH1 0x0 DUP1 REVERT JUMPDEST PUSH1 0x0 DUP1 REVERT JUMPDEST PUSH1 0x0 DUP2 SWAP1 POP SWAP2 SWAP1 POP JUMP JUMPDEST PUSH2 0x16D DUP2 PUSH2 0x15A JUMP JUMPDEST DUP2 EQ PUSH2 0x178 JUMPI PUSH1 0x0 DUP1 REVERT JUMPDEST POP JUMP JUMPDEST PUSH1 0x0 DUP2 CALLDATALOAD SWAP1 POP PUSH2 0x18A DUP2 PUSH2 0x164 JUMP JUMPDEST SWAP3 SWAP2 POP POP JUMP JUMPDEST PUSH1 0x0 DUP1 REVERT JUMPDEST PUSH1 0x0 DUP1 REVERT JUMPDEST PUSH1 0x0 PUSH1 0x1F NOT PUSH1 0x1F DUP4 ADD AND SWAP1 POP SWAP2 SWAP1 POP JUMP JUMPDEST PUSH32 0x4E487B7100000000000000000000000000000000000000000000000000000000 PUSH1 0x0 MSTORE PUSH1 0x41 PUSH1 0x4 MSTORE PUSH1 0x24 PUSH1 0x0 REVERT JUMPDEST PUSH2 0x1E3 DUP3 PUSH2 0x19A JUMP JUMPDEST DUP2 ADD DUP2 DUP2 LT PUSH8 0xFFFFFFFFFFFFFFFF DUP3 GT OR ISZERO PUSH2 0x202 JUMPI PUSH2 0x201 PUSH2 0x1AB JUMP JUMPDEST JUMPDEST DUP1 PUSH1 0x40 MSTORE POP POP POP JUMP JUMPDEST PUSH1 0x0 PUSH2 0x215 PUSH2 0x146 JUMP JUMPDEST SWAP1 POP PUSH2 0x221 DUP3 DUP3 PUSH2 0x1DA JUMP JUMPDEST SWAP2 SWAP1 POP JUMP JUMPDEST PUSH1 0x0 PUSH8 0xFFFFFFFFFFFFFFFF DUP3 GT ISZERO PUSH2 0x241 JUMPI PUSH2 0x240 PUSH2 0x1AB JUMP JUMPDEST JUMPDEST PUSH2 0x24A DUP3 PUSH2 0x19A JUMP JUMPDEST SWAP1 POP PUSH1 0x20 DUP2 ADD SWAP1 POP SWAP2 SWAP1 POP JUMP JUMPDEST DUP3 DUP2 DUP4 CALLDATACOPY PUSH1 0x0 DUP4 DUP4 ADD MSTORE POP POP POP JUMP JUMPDEST PUSH1 0x0 PUSH2 0x279 PUSH2 0x274 DUP5 PUSH2 0x226 JUMP JUMPDEST PUSH2 0x20B JUMP JUMPDEST SWAP1 POP DUP3 DUP2 MSTORE PUSH1 0x20 DUP2 ADD DUP5 DUP5 DUP5 ADD GT ISZERO PUSH2 0x295 JUMPI PUSH2 0x294 PUSH2 0x195 JUMP JUMPDEST JUMPDEST PUSH2 0x2A0 DUP5 DUP3 DUP6 PUSH2 0x257 JUMP JUMPDEST POP SWAP4 SWAP3 POP POP POP JUMP JUMPDEST PUSH1 0x0 DUP3 PUSH1 0x1F DUP4 ADD SLT PUSH2 0x2BD JUMPI PUSH2 0x2BC PUSH2 0x190 JUMP JUMPDEST JUMPDEST DUP2 CALLDATALOAD PUSH2 0x2CD DUP5 DUP3 PUSH1 0x20 DUP7 ADD PUSH2 0x266 JUMP JUMPDEST SWAP2 POP POP SWAP3 SWAP2 POP POP JUMP JUMPDEST PUSH1 0x0 DUP1 PUSH1 0x0 DUP1 PUSH1 0x0 DUP1 PUSH1 0xC0 DUP8 DUP10 SUB SLT ISZERO PUSH2 0x2F3 JUMPI PUSH2 0x2F2 PUSH2 0x150 JUMP JUMPDEST JUMPDEST PUSH1 0x0 PUSH2 0x301 DUP10 DUP3 DUP11 ADD PUSH2 0x17B JUMP JUMPDEST SWAP7 POP POP PUSH1 0x20 DUP8 ADD CALLDATALOAD PUSH8 0xFFFFFFFFFFFFFFFF DUP2 GT ISZERO PUSH2 0x322 JUMPI PUSH2 0x321 PUSH2 0x155 JUMP JUMPDEST JUMPDEST PUSH2 0x32E DUP10 DUP3 DUP11 ADD PUSH2 0x2A8 JUMP JUMPDEST SWAP6 POP POP PUSH1 0x40 PUSH2 0x33F DUP10 DUP3 DUP11 ADD PUSH2 0x17B JUMP JUMPDEST SWAP5 POP POP PUSH1 0x60 PUSH2 0x350 DUP10 DUP3 DUP11 ADD PUSH2 0x17B JUMP JUMPDEST SWAP4 POP POP PUSH1 0x80 PUSH2 0x361 DUP10 DUP3 DUP11 ADD PUSH2 0x17B JUMP JUMPDEST SWAP3 POP POP PUSH1 0xA0 DUP8 ADD CALLDATALOAD PUSH8 0xFFFFFFFFFFFFFFFF DUP2 GT ISZERO PUSH2 0x382 JUMPI PUSH2 0x381 PUSH2 0x155 JUMP JUMPDEST JUMPDEST PUSH2 0x38E DUP10 DUP3 DUP11 ADD PUSH2 0x2A8 JUMP JUMPDEST SWAP2 POP POP SWAP3 SWAP6 POP SWAP3 SWAP6 POP SWAP3 SWAP6 JUMP JUMPDEST PUSH1 0x0 DUP2 MLOAD SWAP1 POP SWAP2 SWAP1 POP JUMP JUMPDEST PUSH32 0x4E487B7100000000000000000000000000000000000000000000000000000000 PUSH1 0x0 MSTORE PUSH1 0x22 PUSH1 0x4 MSTORE PUSH1 0x24 PUSH1 0x0 REVERT JUMPDEST PUSH1 0x0 PUSH1 0x2 DUP3 DIV SWAP1 POP PUSH1 0x1 DUP3 AND DUP1 PUSH2 0x3ED JUMPI PUSH1 0x7F DUP3 AND SWAP2 POP JUMPDEST PUSH1 0x20 DUP3 LT DUP2 SUB PUSH2 0x400 JUMPI PUSH2 0x3FF PUSH2 0x3A6 JUMP JUMPDEST JUMPDEST POP SWAP2 SWAP1 POP JUMP JUMPDEST PUSH1 0x0 DUP2 SWAP1 POP DUP2 PUSH1 0x0 MSTORE PUSH1 0x20 PUSH1 0x0 KECCAK256 SWAP1 POP SWAP2 SWAP1 POP JUMP JUMPDEST PUSH1 0x0 PUSH1 0x20 PUSH1 0x1F DUP4 ADD DIV SWAP1 POP SWAP2 SWAP1 POP JUMP JUMPDEST PUSH1 0x0 DUP3 DUP3 SHL SWAP1 POP SWAP3 SWAP2 POP POP JUMP JUMPDEST PUSH1 0x0 PUSH1 0x8 DUP4 MUL PUSH2 0x468 PUSH32 0xFFFFFFFFFFFFFFFFFFFFFFFFFFFFFFFFFFFFFFFFFFFFFFFFFFFFFFFFFFFFFFFF DUP3 PUSH2 0x42B JUMP JUMPDEST PUSH2 0x472 DUP7 DUP4 PUSH2 0x42B JUMP JUMPDEST SWAP6 POP DUP1 NOT DUP5 AND SWAP4 POP DUP1 DUP7 AND DUP5 OR SWAP3 POP POP POP SWAP4 SWAP3 POP POP POP JUMP JUMPDEST PUSH1 0x0 DUP2 SWAP1 POP SWAP2 SWAP1 POP JUMP JUMPDEST PUSH1 0x0 PUSH2 0x4AF PUSH2 0x4AA PUSH2 0x4A5 DUP5 PUSH2 0x15A JUMP JUMPDEST PUSH2 0x48A JUMP JUMPDEST PUSH2 0x15A JUMP JUMPDEST SWAP1 POP SWAP2 SWAP1 POP JUMP JUMPDEST PUSH1 0x0 DUP2 SWAP1 POP SWAP2 SWAP1 POP JUMP JUMPDEST PUSH2 0x4C9 DUP4 PUSH2 0x494 JUMP JUMPDEST PUSH2 0x4DD PUSH2 0x4D5 DUP3 PUSH2 0x4B6 JUMP JUMPDEST DUP5 DUP5 SLOAD PUSH2 0x438 JUMP JUMPDEST DUP3 SSTORE POP POP POP POP JUMP JUMPDEST PUSH1 0x0 SWAP1 JUMP JUMPDEST PUSH2 0x4F2 PUSH2 0x4E5 JUMP JUMPDEST PUSH2 0x4FD DUP2 DUP5 DUP5 PUSH2 0x4C0 JUMP JUMPDEST POP POP POP JUMP JUMPDEST JUMPDEST DUP2 DUP2 LT ISZERO PUSH2 0x521 JUMPI PUSH2 0x516 PUSH1 0x0 DUP3 PUSH2 0x4EA JUMP JUMPDEST PUSH1 0x1 DUP2 ADD SWAP1 POP PUSH2 0x503 JUMP JUMPDEST POP POP JUMP JUMPDEST PUSH1 0x1F DUP3 GT ISZERO PUSH2 0x566 JUMPI PUSH2 0x537 DUP2 PUSH2 0x406 JUMP JUMPDEST PUSH2 0x540 DUP5 PUSH2 0x41B JUMP JUMPDEST DUP2 ADD PUSH1 0x20 DUP6 LT ISZERO PUSH2 0x54F JUMPI DUP2 SWAP1 POP JUMPDEST PUSH2 0x563 PUSH2 0x55B DUP6 PUSH2 0x41B JUMP JUMPDEST DUP4 ADD DUP3 PUSH2 0x502 JUMP JUMPDEST POP POP JUMPDEST POP POP POP JUMP JUMPDEST PUSH1 0x0 DUP3 DUP3 SHR SWAP1 POP SWAP3 SWAP2 POP POP JUMP JUMPDEST PUSH1 0x0 PUSH2 0x589 PUSH1 0x0 NOT DUP5 PUSH1 0x8 MUL PUSH2 0x56B JUMP JUMPDEST NOT DUP1 DUP4 AND SWAP2 POP POP SWAP3 SWAP2 POP POP JUMP JUMPDEST PUSH1 0x0 PUSH2 0x5A2 DUP4 DUP4 PUSH2 0x578 JUMP JUMPDEST SWAP2 POP DUP3 PUSH1 0x2 MUL DUP3 OR SWAP1 POP SWAP3 SWAP2 POP POP JUMP JUMPDEST PUSH2 0x5BB DUP3 PUSH2 0x39B JUMP JUMPDEST PUSH8 0xFFFFFFFFFFFFFFFF DUP2 GT ISZERO PUSH2 0x5D4 JUMPI PUSH2 0x5D3 PUSH2 0x1AB JUMP JUMPDEST JUMPDEST PUSH2 0x5DE DUP3 SLOAD PUSH2 0x3D5 JUMP JUMPDEST PUSH2 0x5E9 DUP3 DUP3 DUP6 PUSH2 0x525 JUMP JUMPDEST PUSH1 0x0 PUSH1 0x20 SWAP1 POP PUSH1 0x1F DUP4 GT PUSH1 0x1 DUP2 EQ PUSH2 0x61C JUMPI PUSH1 0x0 DUP5 ISZERO PUSH2 0x60A JUMPI DUP3 DUP8 ADD MLOAD SWAP1 POP JUMPDEST PUSH2 0x614 DUP6 DUP3 PUSH2 0x596 JUMP JUMPDEST DUP7 SSTORE POP PUSH2 0x67C JUMP JUMPDEST PUSH1 0x1F NOT DUP5 AND PUSH2 0x62A DUP7 PUSH2 0x406 JUMP JUMPDEST PUSH1 0x0 JUMPDEST DUP3 DUP2 LT ISZERO PUSH2 0x652 JUMPI DUP5 DUP10 ADD MLOAD DUP3 SSTORE PUSH1 0x1 DUP3 ADD SWAP2 POP PUSH1 0x20 DUP6 ADD SWAP5 POP PUSH1 0x20 DUP2 ADD SWAP1 POP PUSH2 0x62D JUMP JUMPDEST DUP7 DUP4 LT ISZERO PUSH2 0x66F JUMPI DUP5 DUP10 ADD MLOAD PUSH2 0x66B PUSH1 0x1F DUP10 AND DUP3 PUSH2 0x578 JUMP JUMPDEST DUP4 SSTORE POP JUMPDEST PUSH1 0x1 PUSH1 0x2 DUP9 MUL ADD DUP9 SSTORE POP POP POP JUMPDEST POP POP POP POP POP POP JUMP INVALID LOG2 PUSH5 0x6970667358 0x22 SLT KECCAK256 KECCAK256 REVERT 0xCD 0xEC SWAP13 SWAP10 0x25 PUSH14 0x7EAFC6DEA0E76A2E0EB74EEFB2D6 0xCD PUSH7 0xF778054AF8D4A9 0x5F PUSH5 0x736F6C6343 STOP ADDMOD SLT STOP CALLER "
				},
				"gasEstimates": {
					"creation": {
						"codeDepositCost": "344400",
						"executionCost": "380",
						"totalCost": "344780"
					},
					"external": {
						"Register(uint256,string,uint256,uint256,uint256,string)": "infinite"
					}
				},
				"methodIdentifiers": {
					"Register(uint256,string,uint256,uint256,uint256,string)": "3775a378"
				}
			},
			"storageLayout": {
				"storage": [
					{
						"astId": 27,
						"contract": "event2.sol:organizer",
						"label": "eventdata",
						"offset": 0,
						"slot": "0",
						"type": "t_mapping(t_uint256,t_struct(Event)14_storage)"
					}
				],
				"types": {
					"t_address": {
						"encoding": "inplace",
						"label": "address",
						"numberOfBytes": "20"
					},
					"t_mapping(t_uint256,t_struct(Event)14_storage)": {
						"encoding": "mapping",
						"key": "t_uint256",
						"label": "mapping(uint256 => struct organizer.Event)",
						"numberOfBytes": "32",
						"value": "t_struct(Event)14_storage"
					},
					"t_string_storage": {
						"encoding": "bytes",
						"label": "string",
						"numberOfBytes": "32"
					},
					"t_struct(Event)14_storage": {
						"encoding": "inplace",
						"label": "struct organizer.Event",
						"members": [
							{
								"astId": 3,
								"contract": "event2.sol:organizer",
								"label": "organizer",
								"offset": 0,
								"slot": "0",
								"type": "t_address"
							},
							{
								"astId": 5,
								"contract": "event2.sol:organizer",
								"label": "Event_Name",
								"offset": 0,
								"slot": "1",
								"type": "t_string_storage"
							},
							{
								"astId": 7,
								"contract": "event2.sol:organizer",
								"label": "price",
								"offset": 0,
								"slot": "2",
								"type": "t_uint256"
							},
							{
								"astId": 9,
								"contract": "event2.sol:organizer",
								"label": "ticket_Count",
								"offset": 0,
								"slot": "3",
								"type": "t_uint256"
							},
							{
								"astId": 11,
								"contract": "event2.sol:organizer",
								"label": "remaining_tickets",
								"offset": 0,
								"slot": "4",
								"type": "t_uint256"
							},
							{
								"astId": 13,
								"contract": "event2.sol:organizer",
								"label": "speaker",
								"offset": 0,
								"slot": "5",
								"type": "t_string_storage"
							}
						],
						"numberOfBytes": "192"
					},
					"t_uint256": {
						"encoding": "inplace",
						"label": "uint256",
						"numberOfBytes": "32"
					}
				}
			},
			"userdoc": {
				"kind": "user",
				"methods": {},
				"version": 1
			}
		}
	}
}