{
	"event new.sol": {
		"organizer": {
			"abi": [
				{
					"inputs": [
						{
							"internalType": "uint256",
							"name": "_id",
							"type": "uint256"
						}
					],
					"name": "Getedata",
					"outputs": [
						{
							"internalType": "string",
							"name": "",
							"type": "string"
						}
					],
					"stateMutability": "view",
					"type": "function"
				},
				{
					"inputs": [
						{
							"internalType": "string",
							"name": "_name",
							"type": "string"
						},
						{
							"internalType": "uint256",
							"name": "date",
							"type": "uint256"
						},
						{
							"internalType": "uint256",
							"name": "_price",
							"type": "uint256"
						},
						{
							"internalType": "uint256",
							"name": "_count",
							"type": "uint256"
						},
						{
							"internalType": "string",
							"name": "_speaker",
							"type": "string"
						}
					],
					"name": "Register_Event",
					"outputs": [],
					"stateMutability": "nonpayable",
					"type": "function"
				},
				{
					"inputs": [],
					"name": "e2",
					"outputs": [
						{
							"internalType": "address",
							"name": "organizer",
							"type": "address"
						},
						{
							"internalType": "string",
							"name": "Event_Name",
							"type": "string"
						},
						{
							"internalType": "uint256",
							"name": "date",
							"type": "uint256"
						},
						{
							"internalType": "uint256",
							"name": "price",
							"type": "uint256"
						},
						{
							"internalType": "uint256",
							"name": "ticket_Count",
							"type": "uint256"
						},
						{
							"internalType": "uint256",
							"name": "remaining_tickets",
							"type": "uint256"
						},
						{
							"internalType": "string",
							"name": "speaker",
							"type": "string"
						},
						{
							"internalType": "uint256",
							"name": "nextid",
							"type": "uint256"
						}
					],
					"stateMutability": "view",
					"type": "function"
				},
				{
					"inputs": [
						{
							"internalType": "uint256",
							"name": "",
							"type": "uint256"
						}
					],
					"name": "eventdata",
					"outputs": [
						{
							"internalType": "address",
							"name": "organizer",
							"type": "address"
						},
						{
							"internalType": "string",
							"name": "Event_Name",
							"type": "string"
						},
						{
							"internalType": "uint256",
							"name": "date",
							"type": "uint256"
						},
						{
							"internalType": "uint256",
							"name": "price",
							"type": "uint256"
						},
						{
							"internalType": "uint256",
							"name": "ticket_Count",
							"type": "uint256"
						},
						{
							"internalType": "uint256",
							"name": "remaining_tickets",
							"type": "uint256"
						},
						{
							"internalType": "string",
							"name": "speaker",
							"type": "string"
						},
						{
							"internalType": "uint256",
							"name": "nextid",
							"type": "uint256"
						}
					],
					"stateMutability": "view",
					"type": "function"
				},
				{
					"inputs": [],
					"name": "newid",
					"outputs": [
						{
							"internalType": "uint256",
							"name": "",
							"type": "uint256"
						}
					],
					"stateMutability": "view",
					"type": "function"
				}
			],
			"devdoc": {
				"kind": "dev",
				"methods": {},
				"version": 1
			},
			"evm": {
				"assembly": "    /* \"event new.sol\":72:1720  contract organizer{... */\n  mstore(0x40, 0x80)\n  callvalue\n  dup1\n  iszero\n  tag_1\n  jumpi\n  0x00\n  dup1\n  revert\ntag_1:\n  pop\n  dataSize(sub_0)\n  dup1\n  dataOffset(sub_0)\n  0x00\n  codecopy\n  0x00\n  return\nstop\n\nsub_0: assembly {\n        /* \"event new.sol\":72:1720  contract organizer{... */\n      mstore(0x40, 0x80)\n      callvalue\n      dup1\n      iszero\n      tag_1\n      jumpi\n      0x00\n      dup1\n      revert\n    tag_1:\n      pop\n      jumpi(tag_2, lt(calldatasize, 0x04))\n      shr(0xe0, calldataload(0x00))\n      dup1\n      0x08e1d21e\n      eq\n      tag_3\n      jumpi\n      dup1\n      0x9b31f9e8\n      eq\n      tag_4\n      jumpi\n      dup1\n      0xbf9ef1e6\n      eq\n      tag_5\n      jumpi\n      dup1\n      0xc9931b35\n      eq\n      tag_6\n      jumpi\n      dup1\n      0xd8c7c8de\n      eq\n      tag_7\n      jumpi\n    tag_2:\n      0x00\n      dup1\n      revert\n        /* \"event new.sol\":864:1581  function Register_Event(string memory _name,uint date,uint _price,uint _count,string memory _speaker) public{... */\n    tag_3:\n      tag_8\n      0x04\n      dup1\n      calldatasize\n      sub\n      dup2\n      add\n      swap1\n      tag_9\n      swap2\n      swap1\n      tag_10\n      jump\t// in\n    tag_9:\n      tag_11\n      jump\t// in\n    tag_8:\n      stop\n        /* \"event new.sol\":401:416  Event public e2 */\n    tag_4:\n      tag_12\n      tag_13\n      jump\t// in\n    tag_12:\n      mload(0x40)\n      tag_14\n      swap9\n      swap8\n      swap7\n      swap6\n      swap5\n      swap4\n      swap3\n      swap2\n      swap1\n      tag_15\n      jump\t// in\n    tag_14:\n      mload(0x40)\n      dup1\n      swap2\n      sub\n      swap1\n      return\n        /* \"event new.sol\":1589:1717  function Getedata(uint _id) public  view returns(string memory){... */\n    tag_5:\n      tag_16\n      0x04\n      dup1\n      calldatasize\n      sub\n      dup2\n      add\n      swap1\n      tag_17\n      swap2\n      swap1\n      tag_18\n      jump\t// in\n    tag_17:\n      tag_19\n      jump\t// in\n    tag_16:\n      mload(0x40)\n      tag_20\n      swap2\n      swap1\n      tag_21\n      jump\t// in\n    tag_20:\n      mload(0x40)\n      dup1\n      swap2\n      sub\n      swap1\n      return\n        /* \"event new.sol\":376:394  uint public  newid */\n    tag_6:\n      tag_22\n      tag_23\n      jump\t// in\n    tag_22:\n      mload(0x40)\n      tag_24\n      swap2\n      swap1\n      tag_25\n      jump\t// in\n    tag_24:\n      mload(0x40)\n      dup1\n      swap2\n      sub\n      swap1\n      return\n        /* \"event new.sol\":633:670  mapping(uint=>Event) public eventdata */\n    tag_7:\n      tag_26\n      0x04\n      dup1\n      calldatasize\n      sub\n      dup2\n      add\n      swap1\n      tag_27\n      swap2\n      swap1\n      tag_18\n      jump\t// in\n    tag_27:\n      tag_28\n      jump\t// in\n    tag_26:\n      mload(0x40)\n      tag_29\n      swap9\n      swap8\n      swap7\n      swap6\n      swap5\n      swap4\n      swap3\n      swap2\n      swap1\n      tag_15\n      jump\t// in\n    tag_29:\n      mload(0x40)\n      dup1\n      swap2\n      sub\n      swap1\n      return\n        /* \"event new.sol\":864:1581  function Register_Event(string memory _name,uint date,uint _price,uint _count,string memory _speaker) public{... */\n    tag_11:\n        /* \"event new.sol\":1086:1096  msg.sender */\n      caller\n        /* \"event new.sol\":1073:1075  e2 */\n      0x01\n        /* \"event new.sol\":1073:1085  e2.organizer */\n      0x00\n      add\n      0x00\n        /* \"event new.sol\":1073:1096  e2.organizer=msg.sender */\n      0x0100\n      exp\n      dup2\n      sload\n      dup2\n      0xffffffffffffffffffffffffffffffffffffffff\n      mul\n      not\n      and\n      swap1\n      dup4\n      0xffffffffffffffffffffffffffffffffffffffff\n      and\n      mul\n      or\n      swap1\n      sstore\n      pop\n        /* \"event new.sol\":1121:1126  _name */\n      dup5\n        /* \"event new.sol\":1107:1109  e2 */\n      0x01\n        /* \"event new.sol\":1107:1120  e2.Event_Name */\n      dup1\n      add\n        /* \"event new.sol\":1107:1126  e2.Event_Name=_name */\n      swap1\n      dup2\n      tag_31\n      swap2\n      swap1\n      tag_32\n      jump\t// in\n    tag_31:\n      pop\n        /* \"event new.sol\":1145:1149  date */\n      dup4\n        /* \"event new.sol\":1137:1139  e2 */\n      0x01\n        /* \"event new.sol\":1137:1144  e2.date */\n      0x02\n      add\n        /* \"event new.sol\":1137:1149  e2.date=date */\n      dup2\n      swap1\n      sstore\n      pop\n        /* \"event new.sol\":1169:1175  _price */\n      dup3\n        /* \"event new.sol\":1160:1162  e2 */\n      0x01\n        /* \"event new.sol\":1160:1168  e2.price */\n      0x03\n      add\n        /* \"event new.sol\":1160:1175  e2.price=_price */\n      dup2\n      swap1\n      sstore\n      pop\n        /* \"event new.sol\":1202:1208  _count */\n      dup2\n        /* \"event new.sol\":1186:1188  e2 */\n      0x01\n        /* \"event new.sol\":1186:1201  e2.ticket_Count */\n      0x04\n      add\n        /* \"event new.sol\":1186:1208  e2.ticket_Count=_count */\n      dup2\n      swap1\n      sstore\n      pop\n        /* \"event new.sol\":1240:1246  _count */\n      dup2\n        /* \"event new.sol\":1219:1221  e2 */\n      0x01\n        /* \"event new.sol\":1219:1239  e2.remaining_tickets */\n      0x05\n      add\n        /* \"event new.sol\":1219:1246  e2.remaining_tickets=_count */\n      dup2\n      swap1\n      sstore\n      pop\n        /* \"event new.sol\":1268:1276  _speaker */\n      dup1\n        /* \"event new.sol\":1257:1259  e2 */\n      0x01\n        /* \"event new.sol\":1257:1267  e2.speaker */\n      0x06\n      add\n        /* \"event new.sol\":1257:1276  e2.speaker=_speaker */\n      swap1\n      dup2\n      tag_33\n      swap2\n      swap1\n      tag_32\n      jump\t// in\n    tag_33:\n      pop\n        /* \"event new.sol\":1484:1486  e2 */\n      0x01\n        /* \"event new.sol\":1484:1497  e2.Event_Name */\n      dup1\n      add\n        /* \"event new.sol\":1431:1440  eventdata */\n      0x0a\n        /* \"event new.sol\":1431:1447  eventdata[newid] */\n      0x00\n        /* \"event new.sol\":1441:1446  newid */\n      dup1\n      sload\n        /* \"event new.sol\":1431:1447  eventdata[newid] */\n      dup2\n      mstore\n      0x20\n      add\n      swap1\n      dup2\n      mstore\n      0x20\n      add\n      0x00\n      keccak256\n        /* \"event new.sol\":1431:1454  eventdata[newid].edataa */\n      0x08\n      add\n        /* \"event new.sol\":1431:1483  eventdata[newid].edataa[eventdata[e2.nextid].nextid] */\n      0x00\n        /* \"event new.sol\":1455:1464  eventdata */\n      0x0a\n        /* \"event new.sol\":1455:1475  eventdata[e2.nextid] */\n      0x00\n        /* \"event new.sol\":1465:1467  e2 */\n      0x01\n        /* \"event new.sol\":1465:1474  e2.nextid */\n      0x07\n      add\n      sload\n        /* \"event new.sol\":1455:1475  eventdata[e2.nextid] */\n      dup2\n      mstore\n      0x20\n      add\n      swap1\n      dup2\n      mstore\n      0x20\n      add\n      0x00\n      keccak256\n        /* \"event new.sol\":1455:1482  eventdata[e2.nextid].nextid */\n      0x07\n      add\n      sload\n        /* \"event new.sol\":1431:1483  eventdata[newid].edataa[eventdata[e2.nextid].nextid] */\n      dup2\n      mstore\n      0x20\n      add\n      swap1\n      dup2\n      mstore\n      0x20\n      add\n      0x00\n      keccak256\n        /* \"event new.sol\":1431:1497  eventdata[newid].edataa[eventdata[e2.nextid].nextid]=e2.Event_Name */\n      swap1\n      dup2\n      tag_34\n      swap2\n      swap1\n      tag_35\n      jump\t// in\n    tag_34:\n      pop\n        /* \"event new.sol\":1508:1517  eventdata */\n      0x0a\n        /* \"event new.sol\":1508:1524  eventdata[newid] */\n      0x00\n        /* \"event new.sol\":1518:1523  newid */\n      dup1\n      sload\n        /* \"event new.sol\":1508:1524  eventdata[newid] */\n      dup2\n      mstore\n      0x20\n      add\n      swap1\n      dup2\n      mstore\n      0x20\n      add\n      0x00\n      keccak256\n        /* \"event new.sol\":1508:1531  eventdata[newid].nextid */\n      0x07\n      add\n      0x00\n        /* \"event new.sol\":1508:1533  eventdata[newid].nextid++ */\n      dup2\n      sload\n      dup1\n      swap3\n      swap2\n      swap1\n      tag_36\n      swap1\n      tag_37\n      jump\t// in\n    tag_36:\n      swap2\n      swap1\n      pop\n      sstore\n      pop\n        /* \"event new.sol\":864:1581  function Register_Event(string memory _name,uint date,uint _price,uint _count,string memory _speaker) public{... */\n      pop\n      pop\n      pop\n      pop\n      pop\n      jump\t// out\n        /* \"event new.sol\":401:416  Event public e2 */\n    tag_13:\n      0x01\n      dup1\n      0x00\n      add\n      0x00\n      swap1\n      sload\n      swap1\n      0x0100\n      exp\n      swap1\n      div\n      0xffffffffffffffffffffffffffffffffffffffff\n      and\n      swap1\n      dup1\n      0x01\n      add\n      dup1\n      sload\n      tag_38\n      swap1\n      tag_39\n      jump\t// in\n    tag_38:\n      dup1\n      0x1f\n      add\n      0x20\n      dup1\n      swap2\n      div\n      mul\n      0x20\n      add\n      mload(0x40)\n      swap1\n      dup2\n      add\n      0x40\n      mstore\n      dup1\n      swap3\n      swap2\n      swap1\n      dup2\n      dup2\n      mstore\n      0x20\n      add\n      dup3\n      dup1\n      sload\n      tag_40\n      swap1\n      tag_39\n      jump\t// in\n    tag_40:\n      dup1\n      iszero\n      tag_41\n      jumpi\n      dup1\n      0x1f\n      lt\n      tag_42\n      jumpi\n      0x0100\n      dup1\n      dup4\n      sload\n      div\n      mul\n      dup4\n      mstore\n      swap2\n      0x20\n      add\n      swap2\n      jump(tag_41)\n    tag_42:\n      dup3\n      add\n      swap2\n      swap1\n      0x00\n      mstore\n      keccak256(0x00, 0x20)\n      swap1\n    tag_43:\n      dup2\n      sload\n      dup2\n      mstore\n      swap1\n      0x01\n      add\n      swap1\n      0x20\n      add\n      dup1\n      dup4\n      gt\n      tag_43\n      jumpi\n      dup3\n      swap1\n      sub\n      0x1f\n      and\n      dup3\n      add\n      swap2\n    tag_41:\n      pop\n      pop\n      pop\n      pop\n      pop\n      swap1\n      dup1\n      0x02\n      add\n      sload\n      swap1\n      dup1\n      0x03\n      add\n      sload\n      swap1\n      dup1\n      0x04\n      add\n      sload\n      swap1\n      dup1\n      0x05\n      add\n      sload\n      swap1\n      dup1\n      0x06\n      add\n      dup1\n      sload\n      tag_44\n      swap1\n      tag_39\n      jump\t// in\n    tag_44:\n      dup1\n      0x1f\n      add\n      0x20\n      dup1\n      swap2\n      div\n      mul\n      0x20\n      add\n      mload(0x40)\n      swap1\n      dup2\n      add\n      0x40\n      mstore\n      dup1\n      swap3\n      swap2\n      swap1\n      dup2\n      dup2\n      mstore\n      0x20\n      add\n      dup3\n      dup1\n      sload\n      tag_45\n      swap1\n      tag_39\n      jump\t// in\n    tag_45:\n      dup1\n      iszero\n      tag_46\n      jumpi\n      dup1\n      0x1f\n      lt\n      tag_47\n      jumpi\n      0x0100\n      dup1\n      dup4\n      sload\n      div\n      mul\n      dup4\n      mstore\n      swap2\n      0x20\n      add\n      swap2\n      jump(tag_46)\n    tag_47:\n      dup3\n      add\n      swap2\n      swap1\n      0x00\n      mstore\n      keccak256(0x00, 0x20)\n      swap1\n    tag_48:\n      dup2\n      sload\n      dup2\n      mstore\n      swap1\n      0x01\n      add\n      swap1\n      0x20\n      add\n      dup1\n      dup4\n      gt\n      tag_48\n      jumpi\n      dup3\n      swap1\n      sub\n      0x1f\n      and\n      dup3\n      add\n      swap2\n    tag_46:\n      pop\n      pop\n      pop\n      pop\n      pop\n      swap1\n      dup1\n      0x07\n      add\n      sload\n      swap1\n      pop\n      dup9\n      jump\t// out\n        /* \"event new.sol\":1589:1717  function Getedata(uint _id) public  view returns(string memory){... */\n    tag_19:\n        /* \"event new.sol\":1638:1651  string memory */\n      0x60\n        /* \"event new.sol\":1671:1680  eventdata */\n      0x0a\n        /* \"event new.sol\":1671:1685  eventdata[_id] */\n      0x00\n        /* \"event new.sol\":1681:1684  _id */\n      dup4\n        /* \"event new.sol\":1671:1685  eventdata[_id] */\n      dup2\n      mstore\n      0x20\n      add\n      swap1\n      dup2\n      mstore\n      0x20\n      add\n      0x00\n      keccak256\n        /* \"event new.sol\":1671:1692  eventdata[_id].edataa */\n      0x08\n      add\n        /* \"event new.sol\":1671:1699  eventdata[_id].edataa[newid] */\n      0x00\n        /* \"event new.sol\":1693:1698  newid */\n      dup1\n      sload\n        /* \"event new.sol\":1671:1699  eventdata[_id].edataa[newid] */\n      dup2\n      mstore\n      0x20\n      add\n      swap1\n      dup2\n      mstore\n      0x20\n      add\n      0x00\n      keccak256\n        /* \"event new.sol\":1663:1699  return  eventdata[_id].edataa[newid] */\n      dup1\n      sload\n      tag_50\n      swap1\n      tag_39\n      jump\t// in\n    tag_50:\n      dup1\n      0x1f\n      add\n      0x20\n      dup1\n      swap2\n      div\n      mul\n      0x20\n      add\n      mload(0x40)\n      swap1\n      dup2\n      add\n      0x40\n      mstore\n      dup1\n      swap3\n      swap2\n      swap1\n      dup2\n      dup2\n      mstore\n      0x20\n      add\n      dup3\n      dup1\n      sload\n      tag_51\n      swap1\n      tag_39\n      jump\t// in\n    tag_51:\n      dup1\n      iszero\n      tag_52\n      jumpi\n      dup1\n      0x1f\n      lt\n      tag_53\n      jumpi\n      0x0100\n      dup1\n      dup4\n      sload\n      div\n      mul\n      dup4\n      mstore\n      swap2\n      0x20\n      add\n      swap2\n      jump(tag_52)\n    tag_53:\n      dup3\n      add\n      swap2\n      swap1\n      0x00\n      mstore\n      keccak256(0x00, 0x20)\n      swap1\n    tag_54:\n      dup2\n      sload\n      dup2\n      mstore\n      swap1\n      0x01\n      add\n      swap1\n      0x20\n      add\n      dup1\n      dup4\n      gt\n      tag_54\n      jumpi\n      dup3\n      swap1\n      sub\n      0x1f\n      and\n      dup3\n      add\n      swap2\n    tag_52:\n      pop\n      pop\n      pop\n      pop\n      pop\n      swap1\n      pop\n        /* \"event new.sol\":1589:1717  function Getedata(uint _id) public  view returns(string memory){... */\n      swap2\n      swap1\n      pop\n      jump\t// out\n        /* \"event new.sol\":376:394  uint public  newid */\n    tag_23:\n      sload(0x00)\n      dup2\n      jump\t// out\n        /* \"event new.sol\":633:670  mapping(uint=>Event) public eventdata */\n    tag_28:\n      mstore(0x20, 0x0a)\n      dup1\n      0x00\n      mstore\n      keccak256(0x00, 0x40)\n      0x00\n      swap2\n      pop\n      swap1\n      pop\n      dup1\n      0x00\n      add\n      0x00\n      swap1\n      sload\n      swap1\n      0x0100\n      exp\n      swap1\n      div\n      0xffffffffffffffffffffffffffffffffffffffff\n      and\n      swap1\n      dup1\n      0x01\n      add\n      dup1\n      sload\n      tag_55\n      swap1\n      tag_39\n      jump\t// in\n    tag_55:\n      dup1\n      0x1f\n      add\n      0x20\n      dup1\n      swap2\n      div\n      mul\n      0x20\n      add\n      mload(0x40)\n      swap1\n      dup2\n      add\n      0x40\n      mstore\n      dup1\n      swap3\n      swap2\n      swap1\n      dup2\n      dup2\n      mstore\n      0x20\n      add\n      dup3\n      dup1\n      sload\n      tag_56\n      swap1\n      tag_39\n      jump\t// in\n    tag_56:\n      dup1\n      iszero\n      tag_57\n      jumpi\n      dup1\n      0x1f\n      lt\n      tag_58\n      jumpi\n      0x0100\n      dup1\n      dup4\n      sload\n      div\n      mul\n      dup4\n      mstore\n      swap2\n      0x20\n      add\n      swap2\n      jump(tag_57)\n    tag_58:\n      dup3\n      add\n      swap2\n      swap1\n      0x00\n      mstore\n      keccak256(0x00, 0x20)\n      swap1\n    tag_59:\n      dup2\n      sload\n      dup2\n      mstore\n      swap1\n      0x01\n      add\n      swap1\n      0x20\n      add\n      dup1\n      dup4\n      gt\n      tag_59\n      jumpi\n      dup3\n      swap1\n      sub\n      0x1f\n      and\n      dup3\n      add\n      swap2\n    tag_57:\n      pop\n      pop\n      pop\n      pop\n      pop\n      swap1\n      dup1\n      0x02\n      add\n      sload\n      swap1\n      dup1\n      0x03\n      add\n      sload\n      swap1\n      dup1\n      0x04\n      add\n      sload\n      swap1\n      dup1\n      0x05\n      add\n      sload\n      swap1\n      dup1\n      0x06\n      add\n      dup1\n      sload\n      tag_60\n      swap1\n      tag_39\n      jump\t// in\n    tag_60:\n      dup1\n      0x1f\n      add\n      0x20\n      dup1\n      swap2\n      div\n      mul\n      0x20\n      add\n      mload(0x40)\n      swap1\n      dup2\n      add\n      0x40\n      mstore\n      dup1\n      swap3\n      swap2\n      swap1\n      dup2\n      dup2\n      mstore\n      0x20\n      add\n      dup3\n      dup1\n      sload\n      tag_61\n      swap1\n      tag_39\n      jump\t// in\n    tag_61:\n      dup1\n      iszero\n      tag_62\n      jumpi\n      dup1\n      0x1f\n      lt\n      tag_63\n      jumpi\n      0x0100\n      dup1\n      dup4\n      sload\n      div\n      mul\n      dup4\n      mstore\n      swap2\n      0x20\n      add\n      swap2\n      jump(tag_62)\n    tag_63:\n      dup3\n      add\n      swap2\n      swap1\n      0x00\n      mstore\n      keccak256(0x00, 0x20)\n      swap1\n    tag_64:\n      dup2\n      sload\n      dup2\n      mstore\n      swap1\n      0x01\n      add\n      swap1\n      0x20\n      add\n      dup1\n      dup4\n      gt\n      tag_64\n      jumpi\n      dup3\n      swap1\n      sub\n      0x1f\n      and\n      dup3\n      add\n      swap2\n    tag_62:\n      pop\n      pop\n      pop\n      pop\n      pop\n      swap1\n      dup1\n      0x07\n      add\n      sload\n      swap1\n      pop\n      dup9\n      jump\t// out\n        /* \"#utility.yul\":7:82   */\n    tag_65:\n        /* \"#utility.yul\":40:46   */\n      0x00\n        /* \"#utility.yul\":73:75   */\n      0x40\n        /* \"#utility.yul\":67:76   */\n      mload\n        /* \"#utility.yul\":57:76   */\n      swap1\n      pop\n        /* \"#utility.yul\":7:82   */\n      swap1\n      jump\t// out\n        /* \"#utility.yul\":88:205   */\n    tag_66:\n        /* \"#utility.yul\":197:198   */\n      0x00\n        /* \"#utility.yul\":194:195   */\n      dup1\n        /* \"#utility.yul\":187:199   */\n      revert\n        /* \"#utility.yul\":211:328   */\n    tag_67:\n        /* \"#utility.yul\":320:321   */\n      0x00\n        /* \"#utility.yul\":317:318   */\n      dup1\n        /* \"#utility.yul\":310:322   */\n      revert\n        /* \"#utility.yul\":334:451   */\n    tag_68:\n        /* \"#utility.yul\":443:444   */\n      0x00\n        /* \"#utility.yul\":440:441   */\n      dup1\n        /* \"#utility.yul\":433:445   */\n      revert\n        /* \"#utility.yul\":457:574   */\n    tag_69:\n        /* \"#utility.yul\":566:567   */\n      0x00\n        /* \"#utility.yul\":563:564   */\n      dup1\n        /* \"#utility.yul\":556:568   */\n      revert\n        /* \"#utility.yul\":580:682   */\n    tag_70:\n        /* \"#utility.yul\":621:627   */\n      0x00\n        /* \"#utility.yul\":672:674   */\n      0x1f\n        /* \"#utility.yul\":668:675   */\n      not\n        /* \"#utility.yul\":663:665   */\n      0x1f\n        /* \"#utility.yul\":656:661   */\n      dup4\n        /* \"#utility.yul\":652:666   */\n      add\n        /* \"#utility.yul\":648:676   */\n      and\n        /* \"#utility.yul\":638:676   */\n      swap1\n      pop\n        /* \"#utility.yul\":580:682   */\n      swap2\n      swap1\n      pop\n      jump\t// out\n        /* \"#utility.yul\":688:868   */\n    tag_71:\n        /* \"#utility.yul\":736:813   */\n      0x4e487b7100000000000000000000000000000000000000000000000000000000\n        /* \"#utility.yul\":733:734   */\n      0x00\n        /* \"#utility.yul\":726:814   */\n      mstore\n        /* \"#utility.yul\":833:837   */\n      0x41\n        /* \"#utility.yul\":830:831   */\n      0x04\n        /* \"#utility.yul\":823:838   */\n      mstore\n        /* \"#utility.yul\":857:861   */\n      0x24\n        /* \"#utility.yul\":854:855   */\n      0x00\n        /* \"#utility.yul\":847:862   */\n      revert\n        /* \"#utility.yul\":874:1155   */\n    tag_72:\n        /* \"#utility.yul\":957:984   */\n      tag_117\n        /* \"#utility.yul\":979:983   */\n      dup3\n        /* \"#utility.yul\":957:984   */\n      tag_70\n      jump\t// in\n    tag_117:\n        /* \"#utility.yul\":949:955   */\n      dup2\n        /* \"#utility.yul\":945:985   */\n      add\n        /* \"#utility.yul\":1087:1093   */\n      dup2\n        /* \"#utility.yul\":1075:1085   */\n      dup2\n        /* \"#utility.yul\":1072:1094   */\n      lt\n        /* \"#utility.yul\":1051:1069   */\n      0xffffffffffffffff\n        /* \"#utility.yul\":1039:1049   */\n      dup3\n        /* \"#utility.yul\":1036:1070   */\n      gt\n        /* \"#utility.yul\":1033:1095   */\n      or\n        /* \"#utility.yul\":1030:1118   */\n      iszero\n      tag_118\n      jumpi\n        /* \"#utility.yul\":1098:1116   */\n      tag_119\n      tag_71\n      jump\t// in\n    tag_119:\n        /* \"#utility.yul\":1030:1118   */\n    tag_118:\n        /* \"#utility.yul\":1138:1148   */\n      dup1\n        /* \"#utility.yul\":1134:1136   */\n      0x40\n        /* \"#utility.yul\":1127:1149   */\n      mstore\n        /* \"#utility.yul\":917:1155   */\n      pop\n        /* \"#utility.yul\":874:1155   */\n      pop\n      pop\n      jump\t// out\n        /* \"#utility.yul\":1161:1290   */\n    tag_73:\n        /* \"#utility.yul\":1195:1201   */\n      0x00\n        /* \"#utility.yul\":1222:1242   */\n      tag_121\n      tag_65\n      jump\t// in\n    tag_121:\n        /* \"#utility.yul\":1212:1242   */\n      swap1\n      pop\n        /* \"#utility.yul\":1251:1284   */\n      tag_122\n        /* \"#utility.yul\":1279:1283   */\n      dup3\n        /* \"#utility.yul\":1271:1277   */\n      dup3\n        /* \"#utility.yul\":1251:1284   */\n      tag_72\n      jump\t// in\n    tag_122:\n        /* \"#utility.yul\":1161:1290   */\n      swap2\n      swap1\n      pop\n      jump\t// out\n        /* \"#utility.yul\":1296:1604   */\n    tag_74:\n        /* \"#utility.yul\":1358:1362   */\n      0x00\n        /* \"#utility.yul\":1448:1466   */\n      0xffffffffffffffff\n        /* \"#utility.yul\":1440:1446   */\n      dup3\n        /* \"#utility.yul\":1437:1467   */\n      gt\n        /* \"#utility.yul\":1434:1490   */\n      iszero\n      tag_124\n      jumpi\n        /* \"#utility.yul\":1470:1488   */\n      tag_125\n      tag_71\n      jump\t// in\n    tag_125:\n        /* \"#utility.yul\":1434:1490   */\n    tag_124:\n        /* \"#utility.yul\":1508:1537   */\n      tag_126\n        /* \"#utility.yul\":1530:1536   */\n      dup3\n        /* \"#utility.yul\":1508:1537   */\n      tag_70\n      jump\t// in\n    tag_126:\n        /* \"#utility.yul\":1500:1537   */\n      swap1\n      pop\n        /* \"#utility.yul\":1592:1596   */\n      0x20\n        /* \"#utility.yul\":1586:1590   */\n      dup2\n        /* \"#utility.yul\":1582:1597   */\n      add\n        /* \"#utility.yul\":1574:1597   */\n      swap1\n      pop\n        /* \"#utility.yul\":1296:1604   */\n      swap2\n      swap1\n      pop\n      jump\t// out\n        /* \"#utility.yul\":1610:1756   */\n    tag_75:\n        /* \"#utility.yul\":1707:1713   */\n      dup3\n        /* \"#utility.yul\":1702:1705   */\n      dup2\n        /* \"#utility.yul\":1697:1700   */\n      dup4\n        /* \"#utility.yul\":1684:1714   */\n      calldatacopy\n        /* \"#utility.yul\":1748:1749   */\n      0x00\n        /* \"#utility.yul\":1739:1745   */\n      dup4\n        /* \"#utility.yul\":1734:1737   */\n      dup4\n        /* \"#utility.yul\":1730:1746   */\n      add\n        /* \"#utility.yul\":1723:1750   */\n      mstore\n        /* \"#utility.yul\":1610:1756   */\n      pop\n      pop\n      pop\n      jump\t// out\n        /* \"#utility.yul\":1762:2187   */\n    tag_76:\n        /* \"#utility.yul\":1840:1845   */\n      0x00\n        /* \"#utility.yul\":1865:1931   */\n      tag_129\n        /* \"#utility.yul\":1881:1930   */\n      tag_130\n        /* \"#utility.yul\":1923:1929   */\n      dup5\n        /* \"#utility.yul\":1881:1930   */\n      tag_74\n      jump\t// in\n    tag_130:\n        /* \"#utility.yul\":1865:1931   */\n      tag_73\n      jump\t// in\n    tag_129:\n        /* \"#utility.yul\":1856:1931   */\n      swap1\n      pop\n        /* \"#utility.yul\":1954:1960   */\n      dup3\n        /* \"#utility.yul\":1947:1952   */\n      dup2\n        /* \"#utility.yul\":1940:1961   */\n      mstore\n        /* \"#utility.yul\":1992:1996   */\n      0x20\n        /* \"#utility.yul\":1985:1990   */\n      dup2\n        /* \"#utility.yul\":1981:1997   */\n      add\n        /* \"#utility.yul\":2030:2033   */\n      dup5\n        /* \"#utility.yul\":2021:2027   */\n      dup5\n        /* \"#utility.yul\":2016:2019   */\n      dup5\n        /* \"#utility.yul\":2012:2028   */\n      add\n        /* \"#utility.yul\":2009:2034   */\n      gt\n        /* \"#utility.yul\":2006:2118   */\n      iszero\n      tag_131\n      jumpi\n        /* \"#utility.yul\":2037:2116   */\n      tag_132\n      tag_69\n      jump\t// in\n    tag_132:\n        /* \"#utility.yul\":2006:2118   */\n    tag_131:\n        /* \"#utility.yul\":2127:2181   */\n      tag_133\n        /* \"#utility.yul\":2174:2180   */\n      dup5\n        /* \"#utility.yul\":2169:2172   */\n      dup3\n        /* \"#utility.yul\":2164:2167   */\n      dup6\n        /* \"#utility.yul\":2127:2181   */\n      tag_75\n      jump\t// in\n    tag_133:\n        /* \"#utility.yul\":1846:2187   */\n      pop\n        /* \"#utility.yul\":1762:2187   */\n      swap4\n      swap3\n      pop\n      pop\n      pop\n      jump\t// out\n        /* \"#utility.yul\":2207:2547   */\n    tag_77:\n        /* \"#utility.yul\":2263:2268   */\n      0x00\n        /* \"#utility.yul\":2312:2315   */\n      dup3\n        /* \"#utility.yul\":2305:2309   */\n      0x1f\n        /* \"#utility.yul\":2297:2303   */\n      dup4\n        /* \"#utility.yul\":2293:2310   */\n      add\n        /* \"#utility.yul\":2289:2316   */\n      slt\n        /* \"#utility.yul\":2279:2401   */\n      tag_135\n      jumpi\n        /* \"#utility.yul\":2320:2399   */\n      tag_136\n      tag_68\n      jump\t// in\n    tag_136:\n        /* \"#utility.yul\":2279:2401   */\n    tag_135:\n        /* \"#utility.yul\":2437:2443   */\n      dup2\n        /* \"#utility.yul\":2424:2444   */\n      calldataload\n        /* \"#utility.yul\":2462:2541   */\n      tag_137\n        /* \"#utility.yul\":2537:2540   */\n      dup5\n        /* \"#utility.yul\":2529:2535   */\n      dup3\n        /* \"#utility.yul\":2522:2526   */\n      0x20\n        /* \"#utility.yul\":2514:2520   */\n      dup7\n        /* \"#utility.yul\":2510:2527   */\n      add\n        /* \"#utility.yul\":2462:2541   */\n      tag_76\n      jump\t// in\n    tag_137:\n        /* \"#utility.yul\":2453:2541   */\n      swap2\n      pop\n        /* \"#utility.yul\":2269:2547   */\n      pop\n        /* \"#utility.yul\":2207:2547   */\n      swap3\n      swap2\n      pop\n      pop\n      jump\t// out\n        /* \"#utility.yul\":2553:2630   */\n    tag_78:\n        /* \"#utility.yul\":2590:2597   */\n      0x00\n        /* \"#utility.yul\":2619:2624   */\n      dup2\n        /* \"#utility.yul\":2608:2624   */\n      swap1\n      pop\n        /* \"#utility.yul\":2553:2630   */\n      swap2\n      swap1\n      pop\n      jump\t// out\n        /* \"#utility.yul\":2636:2758   */\n    tag_79:\n        /* \"#utility.yul\":2709:2733   */\n      tag_140\n        /* \"#utility.yul\":2727:2732   */\n      dup2\n        /* \"#utility.yul\":2709:2733   */\n      tag_78\n      jump\t// in\n    tag_140:\n        /* \"#utility.yul\":2702:2707   */\n      dup2\n        /* \"#utility.yul\":2699:2734   */\n      eq\n        /* \"#utility.yul\":2689:2752   */\n      tag_141\n      jumpi\n        /* \"#utility.yul\":2748:2749   */\n      0x00\n        /* \"#utility.yul\":2745:2746   */\n      dup1\n        /* \"#utility.yul\":2738:2750   */\n      revert\n        /* \"#utility.yul\":2689:2752   */\n    tag_141:\n        /* \"#utility.yul\":2636:2758   */\n      pop\n      jump\t// out\n        /* \"#utility.yul\":2764:2903   */\n    tag_80:\n        /* \"#utility.yul\":2810:2815   */\n      0x00\n        /* \"#utility.yul\":2848:2854   */\n      dup2\n        /* \"#utility.yul\":2835:2855   */\n      calldataload\n        /* \"#utility.yul\":2826:2855   */\n      swap1\n      pop\n        /* \"#utility.yul\":2864:2897   */\n      tag_143\n        /* \"#utility.yul\":2891:2896   */\n      dup2\n        /* \"#utility.yul\":2864:2897   */\n      tag_79\n      jump\t// in\n    tag_143:\n        /* \"#utility.yul\":2764:2903   */\n      swap3\n      swap2\n      pop\n      pop\n      jump\t// out\n        /* \"#utility.yul\":2909:4180   */\n    tag_10:\n        /* \"#utility.yul\":3024:3030   */\n      0x00\n        /* \"#utility.yul\":3032:3038   */\n      dup1\n        /* \"#utility.yul\":3040:3046   */\n      0x00\n        /* \"#utility.yul\":3048:3054   */\n      dup1\n        /* \"#utility.yul\":3056:3062   */\n      0x00\n        /* \"#utility.yul\":3105:3108   */\n      0xa0\n        /* \"#utility.yul\":3093:3102   */\n      dup7\n        /* \"#utility.yul\":3084:3091   */\n      dup9\n        /* \"#utility.yul\":3080:3103   */\n      sub\n        /* \"#utility.yul\":3076:3109   */\n      slt\n        /* \"#utility.yul\":3073:3193   */\n      iszero\n      tag_145\n      jumpi\n        /* \"#utility.yul\":3112:3191   */\n      tag_146\n      tag_66\n      jump\t// in\n    tag_146:\n        /* \"#utility.yul\":3073:3193   */\n    tag_145:\n        /* \"#utility.yul\":3260:3261   */\n      0x00\n        /* \"#utility.yul\":3249:3258   */\n      dup7\n        /* \"#utility.yul\":3245:3262   */\n      add\n        /* \"#utility.yul\":3232:3263   */\n      calldataload\n        /* \"#utility.yul\":3290:3308   */\n      0xffffffffffffffff\n        /* \"#utility.yul\":3282:3288   */\n      dup2\n        /* \"#utility.yul\":3279:3309   */\n      gt\n        /* \"#utility.yul\":3276:3393   */\n      iszero\n      tag_147\n      jumpi\n        /* \"#utility.yul\":3312:3391   */\n      tag_148\n      tag_67\n      jump\t// in\n    tag_148:\n        /* \"#utility.yul\":3276:3393   */\n    tag_147:\n        /* \"#utility.yul\":3417:3480   */\n      tag_149\n        /* \"#utility.yul\":3472:3479   */\n      dup9\n        /* \"#utility.yul\":3463:3469   */\n      dup3\n        /* \"#utility.yul\":3452:3461   */\n      dup10\n        /* \"#utility.yul\":3448:3470   */\n      add\n        /* \"#utility.yul\":3417:3480   */\n      tag_77\n      jump\t// in\n    tag_149:\n        /* \"#utility.yul\":3407:3480   */\n      swap6\n      pop\n        /* \"#utility.yul\":3203:3490   */\n      pop\n        /* \"#utility.yul\":3529:3531   */\n      0x20\n        /* \"#utility.yul\":3555:3608   */\n      tag_150\n        /* \"#utility.yul\":3600:3607   */\n      dup9\n        /* \"#utility.yul\":3591:3597   */\n      dup3\n        /* \"#utility.yul\":3580:3589   */\n      dup10\n        /* \"#utility.yul\":3576:3598   */\n      add\n        /* \"#utility.yul\":3555:3608   */\n      tag_80\n      jump\t// in\n    tag_150:\n        /* \"#utility.yul\":3545:3608   */\n      swap5\n      pop\n        /* \"#utility.yul\":3500:3618   */\n      pop\n        /* \"#utility.yul\":3657:3659   */\n      0x40\n        /* \"#utility.yul\":3683:3736   */\n      tag_151\n        /* \"#utility.yul\":3728:3735   */\n      dup9\n        /* \"#utility.yul\":3719:3725   */\n      dup3\n        /* \"#utility.yul\":3708:3717   */\n      dup10\n        /* \"#utility.yul\":3704:3726   */\n      add\n        /* \"#utility.yul\":3683:3736   */\n      tag_80\n      jump\t// in\n    tag_151:\n        /* \"#utility.yul\":3673:3736   */\n      swap4\n      pop\n        /* \"#utility.yul\":3628:3746   */\n      pop\n        /* \"#utility.yul\":3785:3787   */\n      0x60\n        /* \"#utility.yul\":3811:3864   */\n      tag_152\n        /* \"#utility.yul\":3856:3863   */\n      dup9\n        /* \"#utility.yul\":3847:3853   */\n      dup3\n        /* \"#utility.yul\":3836:3845   */\n      dup10\n        /* \"#utility.yul\":3832:3854   */\n      add\n        /* \"#utility.yul\":3811:3864   */\n      tag_80\n      jump\t// in\n    tag_152:\n        /* \"#utility.yul\":3801:3864   */\n      swap3\n      pop\n        /* \"#utility.yul\":3756:3874   */\n      pop\n        /* \"#utility.yul\":3941:3944   */\n      0x80\n        /* \"#utility.yul\":3930:3939   */\n      dup7\n        /* \"#utility.yul\":3926:3945   */\n      add\n        /* \"#utility.yul\":3913:3946   */\n      calldataload\n        /* \"#utility.yul\":3973:3991   */\n      0xffffffffffffffff\n        /* \"#utility.yul\":3965:3971   */\n      dup2\n        /* \"#utility.yul\":3962:3992   */\n      gt\n        /* \"#utility.yul\":3959:4076   */\n      iszero\n      tag_153\n      jumpi\n        /* \"#utility.yul\":3995:4074   */\n      tag_154\n      tag_67\n      jump\t// in\n    tag_154:\n        /* \"#utility.yul\":3959:4076   */\n    tag_153:\n        /* \"#utility.yul\":4100:4163   */\n      tag_155\n        /* \"#utility.yul\":4155:4162   */\n      dup9\n        /* \"#utility.yul\":4146:4152   */\n      dup3\n        /* \"#utility.yul\":4135:4144   */\n      dup10\n        /* \"#utility.yul\":4131:4153   */\n      add\n        /* \"#utility.yul\":4100:4163   */\n      tag_77\n      jump\t// in\n    tag_155:\n        /* \"#utility.yul\":4090:4163   */\n      swap2\n      pop\n        /* \"#utility.yul\":3884:4173   */\n      pop\n        /* \"#utility.yul\":2909:4180   */\n      swap3\n      swap6\n      pop\n      swap3\n      swap6\n      swap1\n      swap4\n      pop\n      jump\t// out\n        /* \"#utility.yul\":4186:4312   */\n    tag_81:\n        /* \"#utility.yul\":4223:4230   */\n      0x00\n        /* \"#utility.yul\":4263:4305   */\n      0xffffffffffffffffffffffffffffffffffffffff\n        /* \"#utility.yul\":4256:4261   */\n      dup3\n        /* \"#utility.yul\":4252:4306   */\n      and\n        /* \"#utility.yul\":4241:4306   */\n      swap1\n      pop\n        /* \"#utility.yul\":4186:4312   */\n      swap2\n      swap1\n      pop\n      jump\t// out\n        /* \"#utility.yul\":4318:4414   */\n    tag_82:\n        /* \"#utility.yul\":4355:4362   */\n      0x00\n        /* \"#utility.yul\":4384:4408   */\n      tag_158\n        /* \"#utility.yul\":4402:4407   */\n      dup3\n        /* \"#utility.yul\":4384:4408   */\n      tag_81\n      jump\t// in\n    tag_158:\n        /* \"#utility.yul\":4373:4408   */\n      swap1\n      pop\n        /* \"#utility.yul\":4318:4414   */\n      swap2\n      swap1\n      pop\n      jump\t// out\n        /* \"#utility.yul\":4420:4538   */\n    tag_83:\n        /* \"#utility.yul\":4507:4531   */\n      tag_160\n        /* \"#utility.yul\":4525:4530   */\n      dup2\n        /* \"#utility.yul\":4507:4531   */\n      tag_82\n      jump\t// in\n    tag_160:\n        /* \"#utility.yul\":4502:4505   */\n      dup3\n        /* \"#utility.yul\":4495:4532   */\n      mstore\n        /* \"#utility.yul\":4420:4538   */\n      pop\n      pop\n      jump\t// out\n        /* \"#utility.yul\":4544:4643   */\n    tag_84:\n        /* \"#utility.yul\":4596:4602   */\n      0x00\n        /* \"#utility.yul\":4630:4635   */\n      dup2\n        /* \"#utility.yul\":4624:4636   */\n      mload\n        /* \"#utility.yul\":4614:4636   */\n      swap1\n      pop\n        /* \"#utility.yul\":4544:4643   */\n      swap2\n      swap1\n      pop\n      jump\t// out\n        /* \"#utility.yul\":4649:4818   */\n    tag_85:\n        /* \"#utility.yul\":4733:4744   */\n      0x00\n        /* \"#utility.yul\":4767:4773   */\n      dup3\n        /* \"#utility.yul\":4762:4765   */\n      dup3\n        /* \"#utility.yul\":4755:4774   */\n      mstore\n        /* \"#utility.yul\":4807:4811   */\n      0x20\n        /* \"#utility.yul\":4802:4805   */\n      dup3\n        /* \"#utility.yul\":4798:4812   */\n      add\n        /* \"#utility.yul\":4783:4812   */\n      swap1\n      pop\n        /* \"#utility.yul\":4649:4818   */\n      swap3\n      swap2\n      pop\n      pop\n      jump\t// out\n        /* \"#utility.yul\":4824:5070   */\n    tag_86:\n        /* \"#utility.yul\":4905:4906   */\n      0x00\n        /* \"#utility.yul\":4915:5028   */\n    tag_164:\n        /* \"#utility.yul\":4929:4935   */\n      dup4\n        /* \"#utility.yul\":4926:4927   */\n      dup2\n        /* \"#utility.yul\":4923:4936   */\n      lt\n        /* \"#utility.yul\":4915:5028   */\n      iszero\n      tag_166\n      jumpi\n        /* \"#utility.yul\":5014:5015   */\n      dup1\n        /* \"#utility.yul\":5009:5012   */\n      dup3\n        /* \"#utility.yul\":5005:5016   */\n      add\n        /* \"#utility.yul\":4999:5017   */\n      mload\n        /* \"#utility.yul\":4995:4996   */\n      dup2\n        /* \"#utility.yul\":4990:4993   */\n      dup5\n        /* \"#utility.yul\":4986:4997   */\n      add\n        /* \"#utility.yul\":4979:5018   */\n      mstore\n        /* \"#utility.yul\":4951:4953   */\n      0x20\n        /* \"#utility.yul\":4948:4949   */\n      dup2\n        /* \"#utility.yul\":4944:4954   */\n      add\n        /* \"#utility.yul\":4939:4954   */\n      swap1\n      pop\n        /* \"#utility.yul\":4915:5028   */\n      jump(tag_164)\n    tag_166:\n        /* \"#utility.yul\":5062:5063   */\n      0x00\n        /* \"#utility.yul\":5053:5059   */\n      dup5\n        /* \"#utility.yul\":5048:5051   */\n      dup5\n        /* \"#utility.yul\":5044:5060   */\n      add\n        /* \"#utility.yul\":5037:5064   */\n      mstore\n        /* \"#utility.yul\":4886:5070   */\n      pop\n        /* \"#utility.yul\":4824:5070   */\n      pop\n      pop\n      pop\n      jump\t// out\n        /* \"#utility.yul\":5076:5453   */\n    tag_87:\n        /* \"#utility.yul\":5164:5167   */\n      0x00\n        /* \"#utility.yul\":5192:5231   */\n      tag_168\n        /* \"#utility.yul\":5225:5230   */\n      dup3\n        /* \"#utility.yul\":5192:5231   */\n      tag_84\n      jump\t// in\n    tag_168:\n        /* \"#utility.yul\":5247:5318   */\n      tag_169\n        /* \"#utility.yul\":5311:5317   */\n      dup2\n        /* \"#utility.yul\":5306:5309   */\n      dup6\n        /* \"#utility.yul\":5247:5318   */\n      tag_85\n      jump\t// in\n    tag_169:\n        /* \"#utility.yul\":5240:5318   */\n      swap4\n      pop\n        /* \"#utility.yul\":5327:5392   */\n      tag_170\n        /* \"#utility.yul\":5385:5391   */\n      dup2\n        /* \"#utility.yul\":5380:5383   */\n      dup6\n        /* \"#utility.yul\":5373:5377   */\n      0x20\n        /* \"#utility.yul\":5366:5371   */\n      dup7\n        /* \"#utility.yul\":5362:5378   */\n      add\n        /* \"#utility.yul\":5327:5392   */\n      tag_86\n      jump\t// in\n    tag_170:\n        /* \"#utility.yul\":5417:5446   */\n      tag_171\n        /* \"#utility.yul\":5439:5445   */\n      dup2\n        /* \"#utility.yul\":5417:5446   */\n      tag_70\n      jump\t// in\n    tag_171:\n        /* \"#utility.yul\":5412:5415   */\n      dup5\n        /* \"#utility.yul\":5408:5447   */\n      add\n        /* \"#utility.yul\":5401:5447   */\n      swap2\n      pop\n        /* \"#utility.yul\":5168:5453   */\n      pop\n        /* \"#utility.yul\":5076:5453   */\n      swap3\n      swap2\n      pop\n      pop\n      jump\t// out\n        /* \"#utility.yul\":5459:5577   */\n    tag_88:\n        /* \"#utility.yul\":5546:5570   */\n      tag_173\n        /* \"#utility.yul\":5564:5569   */\n      dup2\n        /* \"#utility.yul\":5546:5570   */\n      tag_78\n      jump\t// in\n    tag_173:\n        /* \"#utility.yul\":5541:5544   */\n      dup3\n        /* \"#utility.yul\":5534:5571   */\n      mstore\n        /* \"#utility.yul\":5459:5577   */\n      pop\n      pop\n      jump\t// out\n        /* \"#utility.yul\":5583:6762   */\n    tag_15:\n        /* \"#utility.yul\":5912:5916   */\n      0x00\n        /* \"#utility.yul\":5950:5953   */\n      0x0100\n        /* \"#utility.yul\":5939:5948   */\n      dup3\n        /* \"#utility.yul\":5935:5954   */\n      add\n        /* \"#utility.yul\":5927:5954   */\n      swap1\n      pop\n        /* \"#utility.yul\":5964:6035   */\n      tag_175\n        /* \"#utility.yul\":6032:6033   */\n      0x00\n        /* \"#utility.yul\":6021:6030   */\n      dup4\n        /* \"#utility.yul\":6017:6034   */\n      add\n        /* \"#utility.yul\":6008:6014   */\n      dup12\n        /* \"#utility.yul\":5964:6035   */\n      tag_83\n      jump\t// in\n    tag_175:\n        /* \"#utility.yul\":6082:6091   */\n      dup2\n        /* \"#utility.yul\":6076:6080   */\n      dup2\n        /* \"#utility.yul\":6072:6092   */\n      sub\n        /* \"#utility.yul\":6067:6069   */\n      0x20\n        /* \"#utility.yul\":6056:6065   */\n      dup4\n        /* \"#utility.yul\":6052:6070   */\n      add\n        /* \"#utility.yul\":6045:6093   */\n      mstore\n        /* \"#utility.yul\":6110:6188   */\n      tag_176\n        /* \"#utility.yul\":6183:6187   */\n      dup2\n        /* \"#utility.yul\":6174:6180   */\n      dup11\n        /* \"#utility.yul\":6110:6188   */\n      tag_87\n      jump\t// in\n    tag_176:\n        /* \"#utility.yul\":6102:6188   */\n      swap1\n      pop\n        /* \"#utility.yul\":6198:6270   */\n      tag_177\n        /* \"#utility.yul\":6266:6268   */\n      0x40\n        /* \"#utility.yul\":6255:6264   */\n      dup4\n        /* \"#utility.yul\":6251:6269   */\n      add\n        /* \"#utility.yul\":6242:6248   */\n      dup10\n        /* \"#utility.yul\":6198:6270   */\n      tag_88\n      jump\t// in\n    tag_177:\n        /* \"#utility.yul\":6280:6352   */\n      tag_178\n        /* \"#utility.yul\":6348:6350   */\n      0x60\n        /* \"#utility.yul\":6337:6346   */\n      dup4\n        /* \"#utility.yul\":6333:6351   */\n      add\n        /* \"#utility.yul\":6324:6330   */\n      dup9\n        /* \"#utility.yul\":6280:6352   */\n      tag_88\n      jump\t// in\n    tag_178:\n        /* \"#utility.yul\":6362:6435   */\n      tag_179\n        /* \"#utility.yul\":6430:6433   */\n      0x80\n        /* \"#utility.yul\":6419:6428   */\n      dup4\n        /* \"#utility.yul\":6415:6434   */\n      add\n        /* \"#utility.yul\":6406:6412   */\n      dup8\n        /* \"#utility.yul\":6362:6435   */\n      tag_88\n      jump\t// in\n    tag_179:\n        /* \"#utility.yul\":6445:6518   */\n      tag_180\n        /* \"#utility.yul\":6513:6516   */\n      0xa0\n        /* \"#utility.yul\":6502:6511   */\n      dup4\n        /* \"#utility.yul\":6498:6517   */\n      add\n        /* \"#utility.yul\":6489:6495   */\n      dup7\n        /* \"#utility.yul\":6445:6518   */\n      tag_88\n      jump\t// in\n    tag_180:\n        /* \"#utility.yul\":6566:6575   */\n      dup2\n        /* \"#utility.yul\":6560:6564   */\n      dup2\n        /* \"#utility.yul\":6556:6576   */\n      sub\n        /* \"#utility.yul\":6550:6553   */\n      0xc0\n        /* \"#utility.yul\":6539:6548   */\n      dup4\n        /* \"#utility.yul\":6535:6554   */\n      add\n        /* \"#utility.yul\":6528:6577   */\n      mstore\n        /* \"#utility.yul\":6594:6672   */\n      tag_181\n        /* \"#utility.yul\":6667:6671   */\n      dup2\n        /* \"#utility.yul\":6658:6664   */\n      dup6\n        /* \"#utility.yul\":6594:6672   */\n      tag_87\n      jump\t// in\n    tag_181:\n        /* \"#utility.yul\":6586:6672   */\n      swap1\n      pop\n        /* \"#utility.yul\":6682:6755   */\n      tag_182\n        /* \"#utility.yul\":6750:6753   */\n      0xe0\n        /* \"#utility.yul\":6739:6748   */\n      dup4\n        /* \"#utility.yul\":6735:6754   */\n      add\n        /* \"#utility.yul\":6726:6732   */\n      dup5\n        /* \"#utility.yul\":6682:6755   */\n      tag_88\n      jump\t// in\n    tag_182:\n        /* \"#utility.yul\":5583:6762   */\n      swap10\n      swap9\n      pop\n      pop\n      pop\n      pop\n      pop\n      pop\n      pop\n      pop\n      pop\n      jump\t// out\n        /* \"#utility.yul\":6768:7097   */\n    tag_18:\n        /* \"#utility.yul\":6827:6833   */\n      0x00\n        /* \"#utility.yul\":6876:6878   */\n      0x20\n        /* \"#utility.yul\":6864:6873   */\n      dup3\n        /* \"#utility.yul\":6855:6862   */\n      dup5\n        /* \"#utility.yul\":6851:6874   */\n      sub\n        /* \"#utility.yul\":6847:6879   */\n      slt\n        /* \"#utility.yul\":6844:6963   */\n      iszero\n      tag_184\n      jumpi\n        /* \"#utility.yul\":6882:6961   */\n      tag_185\n      tag_66\n      jump\t// in\n    tag_185:\n        /* \"#utility.yul\":6844:6963   */\n    tag_184:\n        /* \"#utility.yul\":7002:7003   */\n      0x00\n        /* \"#utility.yul\":7027:7080   */\n      tag_186\n        /* \"#utility.yul\":7072:7079   */\n      dup5\n        /* \"#utility.yul\":7063:7069   */\n      dup3\n        /* \"#utility.yul\":7052:7061   */\n      dup6\n        /* \"#utility.yul\":7048:7070   */\n      add\n        /* \"#utility.yul\":7027:7080   */\n      tag_80\n      jump\t// in\n    tag_186:\n        /* \"#utility.yul\":7017:7080   */\n      swap2\n      pop\n        /* \"#utility.yul\":6973:7090   */\n      pop\n        /* \"#utility.yul\":6768:7097   */\n      swap3\n      swap2\n      pop\n      pop\n      jump\t// out\n        /* \"#utility.yul\":7103:7416   */\n    tag_21:\n        /* \"#utility.yul\":7216:7220   */\n      0x00\n        /* \"#utility.yul\":7254:7256   */\n      0x20\n        /* \"#utility.yul\":7243:7252   */\n      dup3\n        /* \"#utility.yul\":7239:7257   */\n      add\n        /* \"#utility.yul\":7231:7257   */\n      swap1\n      pop\n        /* \"#utility.yul\":7303:7312   */\n      dup2\n        /* \"#utility.yul\":7297:7301   */\n      dup2\n        /* \"#utility.yul\":7293:7313   */\n      sub\n        /* \"#utility.yul\":7289:7290   */\n      0x00\n        /* \"#utility.yul\":7278:7287   */\n      dup4\n        /* \"#utility.yul\":7274:7291   */\n      add\n        /* \"#utility.yul\":7267:7314   */\n      mstore\n        /* \"#utility.yul\":7331:7409   */\n      tag_188\n        /* \"#utility.yul\":7404:7408   */\n      dup2\n        /* \"#utility.yul\":7395:7401   */\n      dup5\n        /* \"#utility.yul\":7331:7409   */\n      tag_87\n      jump\t// in\n    tag_188:\n        /* \"#utility.yul\":7323:7409   */\n      swap1\n      pop\n        /* \"#utility.yul\":7103:7416   */\n      swap3\n      swap2\n      pop\n      pop\n      jump\t// out\n        /* \"#utility.yul\":7422:7644   */\n    tag_25:\n        /* \"#utility.yul\":7515:7519   */\n      0x00\n        /* \"#utility.yul\":7553:7555   */\n      0x20\n        /* \"#utility.yul\":7542:7551   */\n      dup3\n        /* \"#utility.yul\":7538:7556   */\n      add\n        /* \"#utility.yul\":7530:7556   */\n      swap1\n      pop\n        /* \"#utility.yul\":7566:7637   */\n      tag_190\n        /* \"#utility.yul\":7634:7635   */\n      0x00\n        /* \"#utility.yul\":7623:7632   */\n      dup4\n        /* \"#utility.yul\":7619:7636   */\n      add\n        /* \"#utility.yul\":7610:7616   */\n      dup5\n        /* \"#utility.yul\":7566:7637   */\n      tag_88\n      jump\t// in\n    tag_190:\n        /* \"#utility.yul\":7422:7644   */\n      swap3\n      swap2\n      pop\n      pop\n      jump\t// out\n        /* \"#utility.yul\":7650:7830   */\n    tag_89:\n        /* \"#utility.yul\":7698:7775   */\n      0x4e487b7100000000000000000000000000000000000000000000000000000000\n        /* \"#utility.yul\":7695:7696   */\n      0x00\n        /* \"#utility.yul\":7688:7776   */\n      mstore\n        /* \"#utility.yul\":7795:7799   */\n      0x22\n        /* \"#utility.yul\":7792:7793   */\n      0x04\n        /* \"#utility.yul\":7785:7800   */\n      mstore\n        /* \"#utility.yul\":7819:7823   */\n      0x24\n        /* \"#utility.yul\":7816:7817   */\n      0x00\n        /* \"#utility.yul\":7809:7824   */\n      revert\n        /* \"#utility.yul\":7836:8156   */\n    tag_39:\n        /* \"#utility.yul\":7880:7886   */\n      0x00\n        /* \"#utility.yul\":7917:7918   */\n      0x02\n        /* \"#utility.yul\":7911:7915   */\n      dup3\n        /* \"#utility.yul\":7907:7919   */\n      div\n        /* \"#utility.yul\":7897:7919   */\n      swap1\n      pop\n        /* \"#utility.yul\":7964:7965   */\n      0x01\n        /* \"#utility.yul\":7958:7962   */\n      dup3\n        /* \"#utility.yul\":7954:7966   */\n      and\n        /* \"#utility.yul\":7985:8003   */\n      dup1\n        /* \"#utility.yul\":7975:8056   */\n      tag_193\n      jumpi\n        /* \"#utility.yul\":8041:8045   */\n      0x7f\n        /* \"#utility.yul\":8033:8039   */\n      dup3\n        /* \"#utility.yul\":8029:8046   */\n      and\n        /* \"#utility.yul\":8019:8046   */\n      swap2\n      pop\n        /* \"#utility.yul\":7975:8056   */\n    tag_193:\n        /* \"#utility.yul\":8103:8105   */\n      0x20\n        /* \"#utility.yul\":8095:8101   */\n      dup3\n        /* \"#utility.yul\":8092:8106   */\n      lt\n        /* \"#utility.yul\":8072:8090   */\n      dup2\n        /* \"#utility.yul\":8069:8107   */\n      sub\n        /* \"#utility.yul\":8066:8150   */\n      tag_194\n      jumpi\n        /* \"#utility.yul\":8122:8140   */\n      tag_195\n      tag_89\n      jump\t// in\n    tag_195:\n        /* \"#utility.yul\":8066:8150   */\n    tag_194:\n        /* \"#utility.yul\":7887:8156   */\n      pop\n        /* \"#utility.yul\":7836:8156   */\n      swap2\n      swap1\n      pop\n      jump\t// out\n        /* \"#utility.yul\":8162:8303   */\n    tag_90:\n        /* \"#utility.yul\":8211:8215   */\n      0x00\n        /* \"#utility.yul\":8234:8237   */\n      dup2\n        /* \"#utility.yul\":8226:8237   */\n      swap1\n      pop\n        /* \"#utility.yul\":8257:8260   */\n      dup2\n        /* \"#utility.yul\":8254:8255   */\n      0x00\n        /* \"#utility.yul\":8247:8261   */\n      mstore\n        /* \"#utility.yul\":8291:8295   */\n      0x20\n        /* \"#utility.yul\":8288:8289   */\n      0x00\n        /* \"#utility.yul\":8278:8296   */\n      keccak256\n        /* \"#utility.yul\":8270:8296   */\n      swap1\n      pop\n        /* \"#utility.yul\":8162:8303   */\n      swap2\n      swap1\n      pop\n      jump\t// out\n        /* \"#utility.yul\":8309:8402   */\n    tag_91:\n        /* \"#utility.yul\":8346:8352   */\n      0x00\n        /* \"#utility.yul\":8393:8395   */\n      0x20\n        /* \"#utility.yul\":8388:8390   */\n      0x1f\n        /* \"#utility.yul\":8381:8386   */\n      dup4\n        /* \"#utility.yul\":8377:8391   */\n      add\n        /* \"#utility.yul\":8373:8396   */\n      div\n        /* \"#utility.yul\":8363:8396   */\n      swap1\n      pop\n        /* \"#utility.yul\":8309:8402   */\n      swap2\n      swap1\n      pop\n      jump\t// out\n        /* \"#utility.yul\":8408:8515   */\n    tag_92:\n        /* \"#utility.yul\":8452:8460   */\n      0x00\n        /* \"#utility.yul\":8502:8507   */\n      dup3\n        /* \"#utility.yul\":8496:8500   */\n      dup3\n        /* \"#utility.yul\":8492:8508   */\n      shl\n        /* \"#utility.yul\":8471:8508   */\n      swap1\n      pop\n        /* \"#utility.yul\":8408:8515   */\n      swap3\n      swap2\n      pop\n      pop\n      jump\t// out\n        /* \"#utility.yul\":8521:8914   */\n    tag_93:\n        /* \"#utility.yul\":8590:8596   */\n      0x00\n        /* \"#utility.yul\":8640:8641   */\n      0x08\n        /* \"#utility.yul\":8628:8638   */\n      dup4\n        /* \"#utility.yul\":8624:8642   */\n      mul\n        /* \"#utility.yul\":8663:8760   */\n      tag_200\n        /* \"#utility.yul\":8693:8759   */\n      0xffffffffffffffffffffffffffffffffffffffffffffffffffffffffffffffff\n        /* \"#utility.yul\":8682:8691   */\n      dup3\n        /* \"#utility.yul\":8663:8760   */\n      tag_92\n      jump\t// in\n    tag_200:\n        /* \"#utility.yul\":8781:8820   */\n      tag_201\n        /* \"#utility.yul\":8811:8819   */\n      dup7\n        /* \"#utility.yul\":8800:8809   */\n      dup4\n        /* \"#utility.yul\":8781:8820   */\n      tag_92\n      jump\t// in\n    tag_201:\n        /* \"#utility.yul\":8769:8820   */\n      swap6\n      pop\n        /* \"#utility.yul\":8853:8857   */\n      dup1\n        /* \"#utility.yul\":8849:8858   */\n      not\n        /* \"#utility.yul\":8842:8847   */\n      dup5\n        /* \"#utility.yul\":8838:8859   */\n      and\n        /* \"#utility.yul\":8829:8859   */\n      swap4\n      pop\n        /* \"#utility.yul\":8902:8906   */\n      dup1\n        /* \"#utility.yul\":8892:8900   */\n      dup7\n        /* \"#utility.yul\":8888:8907   */\n      and\n        /* \"#utility.yul\":8881:8886   */\n      dup5\n        /* \"#utility.yul\":8878:8908   */\n      or\n        /* \"#utility.yul\":8868:8908   */\n      swap3\n      pop\n        /* \"#utility.yul\":8597:8914   */\n      pop\n      pop\n        /* \"#utility.yul\":8521:8914   */\n      swap4\n      swap3\n      pop\n      pop\n      pop\n      jump\t// out\n        /* \"#utility.yul\":8920:8980   */\n    tag_94:\n        /* \"#utility.yul\":8948:8951   */\n      0x00\n        /* \"#utility.yul\":8969:8974   */\n      dup2\n        /* \"#utility.yul\":8962:8974   */\n      swap1\n      pop\n        /* \"#utility.yul\":8920:8980   */\n      swap2\n      swap1\n      pop\n      jump\t// out\n        /* \"#utility.yul\":8986:9128   */\n    tag_95:\n        /* \"#utility.yul\":9036:9045   */\n      0x00\n        /* \"#utility.yul\":9069:9122   */\n      tag_204\n        /* \"#utility.yul\":9087:9121   */\n      tag_205\n        /* \"#utility.yul\":9096:9120   */\n      tag_206\n        /* \"#utility.yul\":9114:9119   */\n      dup5\n        /* \"#utility.yul\":9096:9120   */\n      tag_78\n      jump\t// in\n    tag_206:\n        /* \"#utility.yul\":9087:9121   */\n      tag_94\n      jump\t// in\n    tag_205:\n        /* \"#utility.yul\":9069:9122   */\n      tag_78\n      jump\t// in\n    tag_204:\n        /* \"#utility.yul\":9056:9122   */\n      swap1\n      pop\n        /* \"#utility.yul\":8986:9128   */\n      swap2\n      swap1\n      pop\n      jump\t// out\n        /* \"#utility.yul\":9134:9209   */\n    tag_96:\n        /* \"#utility.yul\":9177:9180   */\n      0x00\n        /* \"#utility.yul\":9198:9203   */\n      dup2\n        /* \"#utility.yul\":9191:9203   */\n      swap1\n      pop\n        /* \"#utility.yul\":9134:9209   */\n      swap2\n      swap1\n      pop\n      jump\t// out\n        /* \"#utility.yul\":9215:9484   */\n    tag_97:\n        /* \"#utility.yul\":9325:9364   */\n      tag_209\n        /* \"#utility.yul\":9356:9363   */\n      dup4\n        /* \"#utility.yul\":9325:9364   */\n      tag_95\n      jump\t// in\n    tag_209:\n        /* \"#utility.yul\":9386:9477   */\n      tag_210\n        /* \"#utility.yul\":9435:9476   */\n      tag_211\n        /* \"#utility.yul\":9459:9475   */\n      dup3\n        /* \"#utility.yul\":9435:9476   */\n      tag_96\n      jump\t// in\n    tag_211:\n        /* \"#utility.yul\":9427:9433   */\n      dup5\n        /* \"#utility.yul\":9420:9424   */\n      dup5\n        /* \"#utility.yul\":9414:9425   */\n      sload\n        /* \"#utility.yul\":9386:9477   */\n      tag_93\n      jump\t// in\n    tag_210:\n        /* \"#utility.yul\":9380:9384   */\n      dup3\n        /* \"#utility.yul\":9373:9478   */\n      sstore\n        /* \"#utility.yul\":9291:9484   */\n      pop\n        /* \"#utility.yul\":9215:9484   */\n      pop\n      pop\n      pop\n      jump\t// out\n        /* \"#utility.yul\":9490:9563   */\n    tag_98:\n        /* \"#utility.yul\":9535:9538   */\n      0x00\n        /* \"#utility.yul\":9490:9563   */\n      swap1\n      jump\t// out\n        /* \"#utility.yul\":9569:9758   */\n    tag_99:\n        /* \"#utility.yul\":9646:9678   */\n      tag_214\n      tag_98\n      jump\t// in\n    tag_214:\n        /* \"#utility.yul\":9687:9752   */\n      tag_215\n        /* \"#utility.yul\":9745:9751   */\n      dup2\n        /* \"#utility.yul\":9737:9743   */\n      dup5\n        /* \"#utility.yul\":9731:9735   */\n      dup5\n        /* \"#utility.yul\":9687:9752   */\n      tag_97\n      jump\t// in\n    tag_215:\n        /* \"#utility.yul\":9622:9758   */\n      pop\n        /* \"#utility.yul\":9569:9758   */\n      pop\n      pop\n      jump\t// out\n        /* \"#utility.yul\":9764:9950   */\n    tag_100:\n        /* \"#utility.yul\":9824:9944   */\n    tag_217:\n        /* \"#utility.yul\":9841:9844   */\n      dup2\n        /* \"#utility.yul\":9834:9839   */\n      dup2\n        /* \"#utility.yul\":9831:9845   */\n      lt\n        /* \"#utility.yul\":9824:9944   */\n      iszero\n      tag_219\n      jumpi\n        /* \"#utility.yul\":9895:9934   */\n      tag_220\n        /* \"#utility.yul\":9932:9933   */\n      0x00\n        /* \"#utility.yul\":9925:9930   */\n      dup3\n        /* \"#utility.yul\":9895:9934   */\n      tag_99\n      jump\t// in\n    tag_220:\n        /* \"#utility.yul\":9868:9869   */\n      0x01\n        /* \"#utility.yul\":9861:9866   */\n      dup2\n        /* \"#utility.yul\":9857:9870   */\n      add\n        /* \"#utility.yul\":9848:9870   */\n      swap1\n      pop\n        /* \"#utility.yul\":9824:9944   */\n      jump(tag_217)\n    tag_219:\n        /* \"#utility.yul\":9764:9950   */\n      pop\n      pop\n      jump\t// out\n        /* \"#utility.yul\":9956:10499   */\n    tag_101:\n        /* \"#utility.yul\":10057:10059   */\n      0x1f\n        /* \"#utility.yul\":10052:10055   */\n      dup3\n        /* \"#utility.yul\":10049:10060   */\n      gt\n        /* \"#utility.yul\":10046:10492   */\n      iszero\n      tag_222\n      jumpi\n        /* \"#utility.yul\":10091:10129   */\n      tag_223\n        /* \"#utility.yul\":10123:10128   */\n      dup2\n        /* \"#utility.yul\":10091:10129   */\n      tag_90\n      jump\t// in\n    tag_223:\n        /* \"#utility.yul\":10175:10204   */\n      tag_224\n        /* \"#utility.yul\":10193:10203   */\n      dup5\n        /* \"#utility.yul\":10175:10204   */\n      tag_91\n      jump\t// in\n    tag_224:\n        /* \"#utility.yul\":10165:10173   */\n      dup2\n        /* \"#utility.yul\":10161:10205   */\n      add\n        /* \"#utility.yul\":10358:10360   */\n      0x20\n        /* \"#utility.yul\":10346:10356   */\n      dup6\n        /* \"#utility.yul\":10343:10361   */\n      lt\n        /* \"#utility.yul\":10340:10389   */\n      iszero\n      tag_225\n      jumpi\n        /* \"#utility.yul\":10379:10387   */\n      dup2\n        /* \"#utility.yul\":10364:10387   */\n      swap1\n      pop\n        /* \"#utility.yul\":10340:10389   */\n    tag_225:\n        /* \"#utility.yul\":10402:10482   */\n      tag_226\n        /* \"#utility.yul\":10458:10480   */\n      tag_227\n        /* \"#utility.yul\":10476:10479   */\n      dup6\n        /* \"#utility.yul\":10458:10480   */\n      tag_91\n      jump\t// in\n    tag_227:\n        /* \"#utility.yul\":10448:10456   */\n      dup4\n        /* \"#utility.yul\":10444:10481   */\n      add\n        /* \"#utility.yul\":10431:10442   */\n      dup3\n        /* \"#utility.yul\":10402:10482   */\n      tag_100\n      jump\t// in\n    tag_226:\n        /* \"#utility.yul\":10061:10492   */\n      pop\n      pop\n        /* \"#utility.yul\":10046:10492   */\n    tag_222:\n        /* \"#utility.yul\":9956:10499   */\n      pop\n      pop\n      pop\n      jump\t// out\n        /* \"#utility.yul\":10505:10622   */\n    tag_102:\n        /* \"#utility.yul\":10559:10567   */\n      0x00\n        /* \"#utility.yul\":10609:10614   */\n      dup3\n        /* \"#utility.yul\":10603:10607   */\n      dup3\n        /* \"#utility.yul\":10599:10615   */\n      shr\n        /* \"#utility.yul\":10578:10615   */\n      swap1\n      pop\n        /* \"#utility.yul\":10505:10622   */\n      swap3\n      swap2\n      pop\n      pop\n      jump\t// out\n        /* \"#utility.yul\":10628:10797   */\n    tag_103:\n        /* \"#utility.yul\":10672:10678   */\n      0x00\n        /* \"#utility.yul\":10705:10756   */\n      tag_230\n        /* \"#utility.yul\":10753:10754   */\n      0x00\n        /* \"#utility.yul\":10749:10755   */\n      not\n        /* \"#utility.yul\":10741:10746   */\n      dup5\n        /* \"#utility.yul\":10738:10739   */\n      0x08\n        /* \"#utility.yul\":10734:10747   */\n      mul\n        /* \"#utility.yul\":10705:10756   */\n      tag_102\n      jump\t// in\n    tag_230:\n        /* \"#utility.yul\":10701:10757   */\n      not\n        /* \"#utility.yul\":10786:10790   */\n      dup1\n        /* \"#utility.yul\":10780:10784   */\n      dup4\n        /* \"#utility.yul\":10776:10791   */\n      and\n        /* \"#utility.yul\":10766:10791   */\n      swap2\n      pop\n        /* \"#utility.yul\":10679:10797   */\n      pop\n        /* \"#utility.yul\":10628:10797   */\n      swap3\n      swap2\n      pop\n      pop\n      jump\t// out\n        /* \"#utility.yul\":10802:11097   */\n    tag_104:\n        /* \"#utility.yul\":10878:10882   */\n      0x00\n        /* \"#utility.yul\":11024:11053   */\n      tag_232\n        /* \"#utility.yul\":11049:11052   */\n      dup4\n        /* \"#utility.yul\":11043:11047   */\n      dup4\n        /* \"#utility.yul\":11024:11053   */\n      tag_103\n      jump\t// in\n    tag_232:\n        /* \"#utility.yul\":11016:11053   */\n      swap2\n      pop\n        /* \"#utility.yul\":11086:11089   */\n      dup3\n        /* \"#utility.yul\":11083:11084   */\n      0x02\n        /* \"#utility.yul\":11079:11090   */\n      mul\n        /* \"#utility.yul\":11073:11077   */\n      dup3\n        /* \"#utility.yul\":11070:11091   */\n      or\n        /* \"#utility.yul\":11062:11091   */\n      swap1\n      pop\n        /* \"#utility.yul\":10802:11097   */\n      swap3\n      swap2\n      pop\n      pop\n      jump\t// out\n        /* \"#utility.yul\":11102:12497   */\n    tag_32:\n        /* \"#utility.yul\":11219:11256   */\n      tag_234\n        /* \"#utility.yul\":11252:11255   */\n      dup3\n        /* \"#utility.yul\":11219:11256   */\n      tag_84\n      jump\t// in\n    tag_234:\n        /* \"#utility.yul\":11321:11339   */\n      0xffffffffffffffff\n        /* \"#utility.yul\":11313:11319   */\n      dup2\n        /* \"#utility.yul\":11310:11340   */\n      gt\n        /* \"#utility.yul\":11307:11363   */\n      iszero\n      tag_235\n      jumpi\n        /* \"#utility.yul\":11343:11361   */\n      tag_236\n      tag_71\n      jump\t// in\n    tag_236:\n        /* \"#utility.yul\":11307:11363   */\n    tag_235:\n        /* \"#utility.yul\":11387:11425   */\n      tag_237\n        /* \"#utility.yul\":11419:11423   */\n      dup3\n        /* \"#utility.yul\":11413:11424   */\n      sload\n        /* \"#utility.yul\":11387:11425   */\n      tag_39\n      jump\t// in\n    tag_237:\n        /* \"#utility.yul\":11472:11539   */\n      tag_238\n        /* \"#utility.yul\":11532:11538   */\n      dup3\n        /* \"#utility.yul\":11524:11530   */\n      dup3\n        /* \"#utility.yul\":11518:11522   */\n      dup6\n        /* \"#utility.yul\":11472:11539   */\n      tag_101\n      jump\t// in\n    tag_238:\n        /* \"#utility.yul\":11566:11567   */\n      0x00\n        /* \"#utility.yul\":11590:11594   */\n      0x20\n        /* \"#utility.yul\":11577:11594   */\n      swap1\n      pop\n        /* \"#utility.yul\":11622:11624   */\n      0x1f\n        /* \"#utility.yul\":11614:11620   */\n      dup4\n        /* \"#utility.yul\":11611:11625   */\n      gt\n        /* \"#utility.yul\":11639:11640   */\n      0x01\n        /* \"#utility.yul\":11634:12252   */\n      dup2\n      eq\n      tag_240\n      jumpi\n        /* \"#utility.yul\":12296:12297   */\n      0x00\n        /* \"#utility.yul\":12313:12319   */\n      dup5\n        /* \"#utility.yul\":12310:12387   */\n      iszero\n      tag_241\n      jumpi\n        /* \"#utility.yul\":12362:12371   */\n      dup3\n        /* \"#utility.yul\":12357:12360   */\n      dup8\n        /* \"#utility.yul\":12353:12372   */\n      add\n        /* \"#utility.yul\":12347:12373   */\n      mload\n        /* \"#utility.yul\":12338:12373   */\n      swap1\n      pop\n        /* \"#utility.yul\":12310:12387   */\n    tag_241:\n        /* \"#utility.yul\":12413:12480   */\n      tag_242\n        /* \"#utility.yul\":12473:12479   */\n      dup6\n        /* \"#utility.yul\":12466:12471   */\n      dup3\n        /* \"#utility.yul\":12413:12480   */\n      tag_104\n      jump\t// in\n    tag_242:\n        /* \"#utility.yul\":12407:12411   */\n      dup7\n        /* \"#utility.yul\":12400:12481   */\n      sstore\n        /* \"#utility.yul\":12269:12491   */\n      pop\n        /* \"#utility.yul\":11604:12491   */\n      jump(tag_239)\n        /* \"#utility.yul\":11634:12252   */\n    tag_240:\n        /* \"#utility.yul\":11686:11690   */\n      0x1f\n        /* \"#utility.yul\":11682:11691   */\n      not\n        /* \"#utility.yul\":11674:11680   */\n      dup5\n        /* \"#utility.yul\":11670:11692   */\n      and\n        /* \"#utility.yul\":11720:11757   */\n      tag_243\n        /* \"#utility.yul\":11752:11756   */\n      dup7\n        /* \"#utility.yul\":11720:11757   */\n      tag_90\n      jump\t// in\n    tag_243:\n        /* \"#utility.yul\":11779:11780   */\n      0x00\n        /* \"#utility.yul\":11793:12001   */\n    tag_244:\n        /* \"#utility.yul\":11807:11814   */\n      dup3\n        /* \"#utility.yul\":11804:11805   */\n      dup2\n        /* \"#utility.yul\":11801:11815   */\n      lt\n        /* \"#utility.yul\":11793:12001   */\n      iszero\n      tag_246\n      jumpi\n        /* \"#utility.yul\":11886:11895   */\n      dup5\n        /* \"#utility.yul\":11881:11884   */\n      dup10\n        /* \"#utility.yul\":11877:11896   */\n      add\n        /* \"#utility.yul\":11871:11897   */\n      mload\n        /* \"#utility.yul\":11863:11869   */\n      dup3\n        /* \"#utility.yul\":11856:11898   */\n      sstore\n        /* \"#utility.yul\":11937:11938   */\n      0x01\n        /* \"#utility.yul\":11929:11935   */\n      dup3\n        /* \"#utility.yul\":11925:11939   */\n      add\n        /* \"#utility.yul\":11915:11939   */\n      swap2\n      pop\n        /* \"#utility.yul\":11984:11986   */\n      0x20\n        /* \"#utility.yul\":11973:11982   */\n      dup6\n        /* \"#utility.yul\":11969:11987   */\n      add\n        /* \"#utility.yul\":11956:11987   */\n      swap5\n      pop\n        /* \"#utility.yul\":11830:11834   */\n      0x20\n        /* \"#utility.yul\":11827:11828   */\n      dup2\n        /* \"#utility.yul\":11823:11835   */\n      add\n        /* \"#utility.yul\":11818:11835   */\n      swap1\n      pop\n        /* \"#utility.yul\":11793:12001   */\n      jump(tag_244)\n    tag_246:\n        /* \"#utility.yul\":12029:12035   */\n      dup7\n        /* \"#utility.yul\":12020:12027   */\n      dup4\n        /* \"#utility.yul\":12017:12036   */\n      lt\n        /* \"#utility.yul\":12014:12193   */\n      iszero\n      tag_247\n      jumpi\n        /* \"#utility.yul\":12087:12096   */\n      dup5\n        /* \"#utility.yul\":12082:12085   */\n      dup10\n        /* \"#utility.yul\":12078:12097   */\n      add\n        /* \"#utility.yul\":12072:12098   */\n      mload\n        /* \"#utility.yul\":12130:12178   */\n      tag_248\n        /* \"#utility.yul\":12172:12176   */\n      0x1f\n        /* \"#utility.yul\":12164:12170   */\n      dup10\n        /* \"#utility.yul\":12160:12177   */\n      and\n        /* \"#utility.yul\":12149:12158   */\n      dup3\n        /* \"#utility.yul\":12130:12178   */\n      tag_103\n      jump\t// in\n    tag_248:\n        /* \"#utility.yul\":12122:12128   */\n      dup4\n        /* \"#utility.yul\":12115:12179   */\n      sstore\n        /* \"#utility.yul\":12037:12193   */\n      pop\n        /* \"#utility.yul\":12014:12193   */\n    tag_247:\n        /* \"#utility.yul\":12239:12240   */\n      0x01\n        /* \"#utility.yul\":12235:12236   */\n      0x02\n        /* \"#utility.yul\":12227:12233   */\n      dup9\n        /* \"#utility.yul\":12223:12237   */\n      mul\n        /* \"#utility.yul\":12219:12241   */\n      add\n        /* \"#utility.yul\":12213:12217   */\n      dup9\n        /* \"#utility.yul\":12206:12242   */\n      sstore\n        /* \"#utility.yul\":11641:12252   */\n      pop\n      pop\n      pop\n        /* \"#utility.yul\":11604:12491   */\n    tag_239:\n      pop\n        /* \"#utility.yul\":11194:12497   */\n      pop\n      pop\n      pop\n        /* \"#utility.yul\":11102:12497   */\n      pop\n      pop\n      jump\t// out\n        /* \"#utility.yul\":12503:12656   */\n    tag_105:\n        /* \"#utility.yul\":12556:12562   */\n      0x00\n        /* \"#utility.yul\":12590:12595   */\n      dup2\n        /* \"#utility.yul\":12584:12596   */\n      sload\n        /* \"#utility.yul\":12574:12596   */\n      swap1\n      pop\n        /* \"#utility.yul\":12616:12649   */\n      tag_250\n        /* \"#utility.yul\":12642:12648   */\n      dup2\n        /* \"#utility.yul\":12616:12649   */\n      tag_39\n      jump\t// in\n    tag_250:\n        /* \"#utility.yul\":12606:12649   */\n      swap1\n      pop\n        /* \"#utility.yul\":12503:12656   */\n      swap2\n      swap1\n      pop\n      jump\t// out\n        /* \"#utility.yul\":12662:12807   */\n    tag_106:\n        /* \"#utility.yul\":12715:12719   */\n      0x00\n        /* \"#utility.yul\":12738:12741   */\n      dup2\n        /* \"#utility.yul\":12730:12741   */\n      swap1\n      pop\n        /* \"#utility.yul\":12761:12764   */\n      dup2\n        /* \"#utility.yul\":12758:12759   */\n      0x00\n        /* \"#utility.yul\":12751:12765   */\n      mstore\n        /* \"#utility.yul\":12795:12799   */\n      0x20\n        /* \"#utility.yul\":12792:12793   */\n      0x00\n        /* \"#utility.yul\":12782:12800   */\n      keccak256\n        /* \"#utility.yul\":12774:12800   */\n      swap1\n      pop\n        /* \"#utility.yul\":12662:12807   */\n      swap2\n      swap1\n      pop\n      jump\t// out\n        /* \"#utility.yul\":12813:14276   */\n    tag_35:\n        /* \"#utility.yul\":12928:12931   */\n      dup2\n        /* \"#utility.yul\":12922:12926   */\n      dup2\n        /* \"#utility.yul\":12919:12932   */\n      sub\n        /* \"#utility.yul\":12916:12942   */\n      tag_253\n      jumpi\n        /* \"#utility.yul\":12935:12940   */\n      pop\n      pop\n      jump(tag_252)\n        /* \"#utility.yul\":12916:12942   */\n    tag_253:\n        /* \"#utility.yul\":12966:13004   */\n      tag_254\n        /* \"#utility.yul\":13000:13003   */\n      dup3\n        /* \"#utility.yul\":12966:13004   */\n      tag_105\n      jump\t// in\n    tag_254:\n        /* \"#utility.yul\":13069:13087   */\n      0xffffffffffffffff\n        /* \"#utility.yul\":13061:13067   */\n      dup2\n        /* \"#utility.yul\":13058:13088   */\n      gt\n        /* \"#utility.yul\":13055:13111   */\n      iszero\n      tag_255\n      jumpi\n        /* \"#utility.yul\":13091:13109   */\n      tag_256\n      tag_71\n      jump\t// in\n    tag_256:\n        /* \"#utility.yul\":13055:13111   */\n    tag_255:\n        /* \"#utility.yul\":13135:13173   */\n      tag_257\n        /* \"#utility.yul\":13167:13171   */\n      dup3\n        /* \"#utility.yul\":13161:13172   */\n      sload\n        /* \"#utility.yul\":13135:13173   */\n      tag_39\n      jump\t// in\n    tag_257:\n        /* \"#utility.yul\":13220:13287   */\n      tag_258\n        /* \"#utility.yul\":13280:13286   */\n      dup3\n        /* \"#utility.yul\":13272:13278   */\n      dup3\n        /* \"#utility.yul\":13266:13270   */\n      dup6\n        /* \"#utility.yul\":13220:13287   */\n      tag_101\n      jump\t// in\n    tag_258:\n        /* \"#utility.yul\":13314:13315   */\n      0x00\n        /* \"#utility.yul\":13343:13345   */\n      0x1f\n        /* \"#utility.yul\":13335:13341   */\n      dup4\n        /* \"#utility.yul\":13332:13346   */\n      gt\n        /* \"#utility.yul\":13360:13361   */\n      0x01\n        /* \"#utility.yul\":13355:14031   */\n      dup2\n      eq\n      tag_260\n      jumpi\n        /* \"#utility.yul\":14075:14076   */\n      0x00\n        /* \"#utility.yul\":14092:14098   */\n      dup5\n        /* \"#utility.yul\":14089:14166   */\n      iszero\n      tag_261\n      jumpi\n        /* \"#utility.yul\":14141:14150   */\n      dup3\n        /* \"#utility.yul\":14136:14139   */\n      dup8\n        /* \"#utility.yul\":14132:14151   */\n      add\n        /* \"#utility.yul\":14126:14152   */\n      sload\n        /* \"#utility.yul\":14117:14152   */\n      swap1\n      pop\n        /* \"#utility.yul\":14089:14166   */\n    tag_261:\n        /* \"#utility.yul\":14192:14259   */\n      tag_262\n        /* \"#utility.yul\":14252:14258   */\n      dup6\n        /* \"#utility.yul\":14245:14250   */\n      dup3\n        /* \"#utility.yul\":14192:14259   */\n      tag_104\n      jump\t// in\n    tag_262:\n        /* \"#utility.yul\":14186:14190   */\n      dup7\n        /* \"#utility.yul\":14179:14260   */\n      sstore\n        /* \"#utility.yul\":14048:14270   */\n      pop\n        /* \"#utility.yul\":13325:14270   */\n      jump(tag_259)\n        /* \"#utility.yul\":13355:14031   */\n    tag_260:\n        /* \"#utility.yul\":13407:13411   */\n      0x1f\n        /* \"#utility.yul\":13403:13412   */\n      not\n        /* \"#utility.yul\":13395:13401   */\n      dup5\n        /* \"#utility.yul\":13391:13413   */\n      and\n        /* \"#utility.yul\":13433:13473   */\n      tag_263\n        /* \"#utility.yul\":13469:13472   */\n      dup8\n        /* \"#utility.yul\":13433:13473   */\n      tag_106\n      jump\t// in\n    tag_263:\n        /* \"#utility.yul\":13426:13473   */\n      swap7\n      pop\n        /* \"#utility.yul\":13500:13537   */\n      tag_264\n        /* \"#utility.yul\":13532:13536   */\n      dup7\n        /* \"#utility.yul\":13500:13537   */\n      tag_90\n      jump\t// in\n    tag_264:\n        /* \"#utility.yul\":13559:13560   */\n      0x00\n        /* \"#utility.yul\":13573:13780   */\n    tag_265:\n        /* \"#utility.yul\":13587:13594   */\n      dup3\n        /* \"#utility.yul\":13584:13585   */\n      dup2\n        /* \"#utility.yul\":13581:13595   */\n      lt\n        /* \"#utility.yul\":13573:13780   */\n      iszero\n      tag_267\n      jumpi\n        /* \"#utility.yul\":13666:13675   */\n      dup5\n        /* \"#utility.yul\":13661:13664   */\n      dup10\n        /* \"#utility.yul\":13657:13676   */\n      add\n        /* \"#utility.yul\":13651:13677   */\n      sload\n        /* \"#utility.yul\":13643:13649   */\n      dup3\n        /* \"#utility.yul\":13636:13678   */\n      sstore\n        /* \"#utility.yul\":13717:13718   */\n      0x01\n        /* \"#utility.yul\":13709:13715   */\n      dup3\n        /* \"#utility.yul\":13705:13719   */\n      add\n        /* \"#utility.yul\":13695:13719   */\n      swap2\n      pop\n        /* \"#utility.yul\":13764:13765   */\n      0x01\n        /* \"#utility.yul\":13753:13762   */\n      dup6\n        /* \"#utility.yul\":13749:13766   */\n      add\n        /* \"#utility.yul\":13736:13766   */\n      swap5\n      pop\n        /* \"#utility.yul\":13610:13614   */\n      0x20\n        /* \"#utility.yul\":13607:13608   */\n      dup2\n        /* \"#utility.yul\":13603:13615   */\n      add\n        /* \"#utility.yul\":13598:13615   */\n      swap1\n      pop\n        /* \"#utility.yul\":13573:13780   */\n      jump(tag_265)\n    tag_267:\n        /* \"#utility.yul\":13808:13814   */\n      dup7\n        /* \"#utility.yul\":13799:13806   */\n      dup4\n        /* \"#utility.yul\":13796:13815   */\n      lt\n        /* \"#utility.yul\":13793:13972   */\n      iszero\n      tag_268\n      jumpi\n        /* \"#utility.yul\":13866:13875   */\n      dup5\n        /* \"#utility.yul\":13861:13864   */\n      dup10\n        /* \"#utility.yul\":13857:13876   */\n      add\n        /* \"#utility.yul\":13851:13877   */\n      sload\n        /* \"#utility.yul\":13909:13957   */\n      tag_269\n        /* \"#utility.yul\":13951:13955   */\n      0x1f\n        /* \"#utility.yul\":13943:13949   */\n      dup10\n        /* \"#utility.yul\":13939:13956   */\n      and\n        /* \"#utility.yul\":13928:13937   */\n      dup3\n        /* \"#utility.yul\":13909:13957   */\n      tag_103\n      jump\t// in\n    tag_269:\n        /* \"#utility.yul\":13901:13907   */\n      dup4\n        /* \"#utility.yul\":13894:13958   */\n      sstore\n        /* \"#utility.yul\":13816:13972   */\n      pop\n        /* \"#utility.yul\":13793:13972   */\n    tag_268:\n        /* \"#utility.yul\":14018:14019   */\n      0x01\n        /* \"#utility.yul\":14014:14015   */\n      0x02\n        /* \"#utility.yul\":14006:14012   */\n      dup9\n        /* \"#utility.yul\":14002:14016   */\n      mul\n        /* \"#utility.yul\":13998:14020   */\n      add\n        /* \"#utility.yul\":13992:13996   */\n      dup9\n        /* \"#utility.yul\":13985:14021   */\n      sstore\n        /* \"#utility.yul\":13362:14031   */\n      pop\n      pop\n      pop\n        /* \"#utility.yul\":13325:14270   */\n    tag_259:\n      pop\n        /* \"#utility.yul\":12906:14276   */\n      pop\n      pop\n      pop\n        /* \"#utility.yul\":12813:14276   */\n      pop\n      pop\n    tag_252:\n      jump\t// out\n        /* \"#utility.yul\":14282:14462   */\n    tag_107:\n        /* \"#utility.yul\":14330:14407   */\n      0x4e487b7100000000000000000000000000000000000000000000000000000000\n        /* \"#utility.yul\":14327:14328   */\n      0x00\n        /* \"#utility.yul\":14320:14408   */\n      mstore\n        /* \"#utility.yul\":14427:14431   */\n      0x11\n        /* \"#utility.yul\":14424:14425   */\n      0x04\n        /* \"#utility.yul\":14417:14432   */\n      mstore\n        /* \"#utility.yul\":14451:14455   */\n      0x24\n        /* \"#utility.yul\":14448:14449   */\n      0x00\n        /* \"#utility.yul\":14441:14456   */\n      revert\n        /* \"#utility.yul\":14468:14701   */\n    tag_37:\n        /* \"#utility.yul\":14507:14510   */\n      0x00\n        /* \"#utility.yul\":14530:14554   */\n      tag_272\n        /* \"#utility.yul\":14548:14553   */\n      dup3\n        /* \"#utility.yul\":14530:14554   */\n      tag_78\n      jump\t// in\n    tag_272:\n        /* \"#utility.yul\":14521:14554   */\n      swap2\n      pop\n        /* \"#utility.yul\":14576:14642   */\n      0xffffffffffffffffffffffffffffffffffffffffffffffffffffffffffffffff\n        /* \"#utility.yul\":14569:14574   */\n      dup3\n        /* \"#utility.yul\":14566:14643   */\n      sub\n        /* \"#utility.yul\":14563:14666   */\n      tag_273\n      jumpi\n        /* \"#utility.yul\":14646:14664   */\n      tag_274\n      tag_107\n      jump\t// in\n    tag_274:\n        /* \"#utility.yul\":14563:14666   */\n    tag_273:\n        /* \"#utility.yul\":14693:14694   */\n      0x01\n        /* \"#utility.yul\":14686:14691   */\n      dup3\n        /* \"#utility.yul\":14682:14695   */\n      add\n        /* \"#utility.yul\":14675:14695   */\n      swap1\n      pop\n        /* \"#utility.yul\":14468:14701   */\n      swap2\n      swap1\n      pop\n      jump\t// out\n\n    auxdata: 0xa2646970667358221220c64c5e431be6b4407e36ed19067cceb617c83f97bf34e58c5433eaac73fe5ce064736f6c63430008120033\n}\n",
				"bytecode": {
					"linkReferences": {},
					"object": "608060405234801561001057600080fd5b50610e7f806100206000396000f3fe608060405234801561001057600080fd5b50600436106100575760003560e01c806308e1d21e1461005c5780639b31f9e814610078578063bf9ef1e61461009d578063c9931b35146100cd578063d8c7c8de146100eb575b600080fd5b61007660048036038101906100719190610769565b610122565b005b61008061023b565b6040516100949897969594939291906108eb565b60405180910390f35b6100b760048036038101906100b29190610977565b6103a1565b6040516100c491906109a4565b60405180910390f35b6100d561045b565b6040516100e291906109c6565b60405180910390f35b61010560048036038101906101009190610977565b610461565b6040516101199897969594939291906108eb565b60405180910390f35b33600160000160006101000a81548173ffffffffffffffffffffffffffffffffffffffff021916908373ffffffffffffffffffffffffffffffffffffffff160217905550846001800190816101779190610bed565b508360016002018190555082600160030181905550816001600401819055508160016005018190555080600160060190816101b29190610bed565b5060018001600a6000805481526020019081526020016000206008016000600a6000600160070154815260200190815260200160002060070154815260200190815260200160002090816102069190610cea565b50600a600080548152602001908152602001600020600701600081548092919061022f90610e01565b91905055505050505050565b60018060000160009054906101000a900473ffffffffffffffffffffffffffffffffffffffff169080600101805461027290610a10565b80601f016020809104026020016040519081016040528092919081815260200182805461029e90610a10565b80156102eb5780601f106102c0576101008083540402835291602001916102eb565b820191906000526020600020905b8154815290600101906020018083116102ce57829003601f168201915b50505050509080600201549080600301549080600401549080600501549080600601805461031890610a10565b80601f016020809104026020016040519081016040528092919081815260200182805461034490610a10565b80156103915780601f1061036657610100808354040283529160200191610391565b820191906000526020600020905b81548152906001019060200180831161037457829003601f168201915b5050505050908060070154905088565b6060600a600083815260200190815260200160002060080160008054815260200190815260200160002080546103d690610a10565b80601f016020809104026020016040519081016040528092919081815260200182805461040290610a10565b801561044f5780601f106104245761010080835404028352916020019161044f565b820191906000526020600020905b81548152906001019060200180831161043257829003601f168201915b50505050509050919050565b60005481565b600a6020528060005260406000206000915090508060000160009054906101000a900473ffffffffffffffffffffffffffffffffffffffff16908060010180546104aa90610a10565b80601f01602080910402602001604051908101604052809291908181526020018280546104d690610a10565b80156105235780601f106104f857610100808354040283529160200191610523565b820191906000526020600020905b81548152906001019060200180831161050657829003601f168201915b50505050509080600201549080600301549080600401549080600501549080600601805461055090610a10565b80601f016020809104026020016040519081016040528092919081815260200182805461057c90610a10565b80156105c95780601f1061059e576101008083540402835291602001916105c9565b820191906000526020600020905b8154815290600101906020018083116105ac57829003601f168201915b5050505050908060070154905088565b6000604051905090565b600080fd5b600080fd5b600080fd5b600080fd5b6000601f19601f8301169050919050565b7f4e487b7100000000000000000000000000000000000000000000000000000000600052604160045260246000fd5b610640826105f7565b810181811067ffffffffffffffff8211171561065f5761065e610608565b5b80604052505050565b60006106726105d9565b905061067e8282610637565b919050565b600067ffffffffffffffff82111561069e5761069d610608565b5b6106a7826105f7565b9050602081019050919050565b82818337600083830152505050565b60006106d66106d184610683565b610668565b9050828152602081018484840111156106f2576106f16105f2565b5b6106fd8482856106b4565b509392505050565b600082601f83011261071a576107196105ed565b5b813561072a8482602086016106c3565b91505092915050565b6000819050919050565b61074681610733565b811461075157600080fd5b50565b6000813590506107638161073d565b92915050565b600080600080600060a08688031215610785576107846105e3565b5b600086013567ffffffffffffffff8111156107a3576107a26105e8565b5b6107af88828901610705565b95505060206107c088828901610754565b94505060406107d188828901610754565b93505060606107e288828901610754565b925050608086013567ffffffffffffffff811115610803576108026105e8565b5b61080f88828901610705565b9150509295509295909350565b600073ffffffffffffffffffffffffffffffffffffffff82169050919050565b60006108478261081c565b9050919050565b6108578161083c565b82525050565b600081519050919050565b600082825260208201905092915050565b60005b8381101561089757808201518184015260208101905061087c565b60008484015250505050565b60006108ae8261085d565b6108b88185610868565b93506108c8818560208601610879565b6108d1816105f7565b840191505092915050565b6108e581610733565b82525050565b600061010082019050610901600083018b61084e565b8181036020830152610913818a6108a3565b905061092260408301896108dc565b61092f60608301886108dc565b61093c60808301876108dc565b61094960a08301866108dc565b81810360c083015261095b81856108a3565b905061096a60e08301846108dc565b9998505050505050505050565b60006020828403121561098d5761098c6105e3565b5b600061099b84828501610754565b91505092915050565b600060208201905081810360008301526109be81846108a3565b905092915050565b60006020820190506109db60008301846108dc565b92915050565b7f4e487b7100000000000000000000000000000000000000000000000000000000600052602260045260246000fd5b60006002820490506001821680610a2857607f821691505b602082108103610a3b57610a3a6109e1565b5b50919050565b60008190508160005260206000209050919050565b60006020601f8301049050919050565b600082821b905092915050565b600060088302610aa37fffffffffffffffffffffffffffffffffffffffffffffffffffffffffffffffff82610a66565b610aad8683610a66565b95508019841693508086168417925050509392505050565b6000819050919050565b6000610aea610ae5610ae084610733565b610ac5565b610733565b9050919050565b6000819050919050565b610b0483610acf565b610b18610b1082610af1565b848454610a73565b825550505050565b600090565b610b2d610b20565b610b38818484610afb565b505050565b5b81811015610b5c57610b51600082610b25565b600181019050610b3e565b5050565b601f821115610ba157610b7281610a41565b610b7b84610a56565b81016020851015610b8a578190505b610b9e610b9685610a56565b830182610b3d565b50505b505050565b600082821c905092915050565b6000610bc460001984600802610ba6565b1980831691505092915050565b6000610bdd8383610bb3565b9150826002028217905092915050565b610bf68261085d565b67ffffffffffffffff811115610c0f57610c0e610608565b5b610c198254610a10565b610c24828285610b60565b600060209050601f831160018114610c575760008415610c45578287015190505b610c4f8582610bd1565b865550610cb7565b601f198416610c6586610a41565b60005b82811015610c8d57848901518255600182019150602085019450602081019050610c68565b86831015610caa5784890151610ca6601f891682610bb3565b8355505b6001600288020188555050505b505050505050565b600081549050610cce81610a10565b9050919050565b60008190508160005260206000209050919050565b818103610cf8575050610dd0565b610d0182610cbf565b67ffffffffffffffff811115610d1a57610d19610608565b5b610d248254610a10565b610d2f828285610b60565b6000601f831160018114610d5e5760008415610d4c578287015490505b610d568582610bd1565b865550610dc9565b601f198416610d6c87610cd5565b9650610d7786610a41565b60005b82811015610d9f57848901548255600182019150600185019450602081019050610d7a565b86831015610dbc5784890154610db8601f891682610bb3565b8355505b6001600288020188555050505b5050505050505b565b7f4e487b7100000000000000000000000000000000000000000000000000000000600052601160045260246000fd5b6000610e0c82610733565b91507fffffffffffffffffffffffffffffffffffffffffffffffffffffffffffffffff8203610e3e57610e3d610dd2565b5b60018201905091905056fea2646970667358221220c64c5e431be6b4407e36ed19067cceb617c83f97bf34e58c5433eaac73fe5ce064736f6c63430008120033",
					"opcodes": "PUSH1 0x80 PUSH1 0x40 MSTORE CALLVALUE DUP1 ISZERO PUSH2 0x10 JUMPI PUSH1 0x0 DUP1 REVERT JUMPDEST POP PUSH2 0xE7F DUP1 PUSH2 0x20 PUSH1 0x0 CODECOPY PUSH1 0x0 RETURN INVALID PUSH1 0x80 PUSH1 0x40 MSTORE CALLVALUE DUP1 ISZERO PUSH2 0x10 JUMPI PUSH1 0x0 DUP1 REVERT JUMPDEST POP PUSH1 0x4 CALLDATASIZE LT PUSH2 0x57 JUMPI PUSH1 0x0 CALLDATALOAD PUSH1 0xE0 SHR DUP1 PUSH4 0x8E1D21E EQ PUSH2 0x5C JUMPI DUP1 PUSH4 0x9B31F9E8 EQ PUSH2 0x78 JUMPI DUP1 PUSH4 0xBF9EF1E6 EQ PUSH2 0x9D JUMPI DUP1 PUSH4 0xC9931B35 EQ PUSH2 0xCD JUMPI DUP1 PUSH4 0xD8C7C8DE EQ PUSH2 0xEB JUMPI JUMPDEST PUSH1 0x0 DUP1 REVERT JUMPDEST PUSH2 0x76 PUSH1 0x4 DUP1 CALLDATASIZE SUB DUP2 ADD SWAP1 PUSH2 0x71 SWAP2 SWAP1 PUSH2 0x769 JUMP JUMPDEST PUSH2 0x122 JUMP JUMPDEST STOP JUMPDEST PUSH2 0x80 PUSH2 0x23B JUMP JUMPDEST PUSH1 0x40 MLOAD PUSH2 0x94 SWAP9 SWAP8 SWAP7 SWAP6 SWAP5 SWAP4 SWAP3 SWAP2 SWAP1 PUSH2 0x8EB JUMP JUMPDEST PUSH1 0x40 MLOAD DUP1 SWAP2 SUB SWAP1 RETURN JUMPDEST PUSH2 0xB7 PUSH1 0x4 DUP1 CALLDATASIZE SUB DUP2 ADD SWAP1 PUSH2 0xB2 SWAP2 SWAP1 PUSH2 0x977 JUMP JUMPDEST PUSH2 0x3A1 JUMP JUMPDEST PUSH1 0x40 MLOAD PUSH2 0xC4 SWAP2 SWAP1 PUSH2 0x9A4 JUMP JUMPDEST PUSH1 0x40 MLOAD DUP1 SWAP2 SUB SWAP1 RETURN JUMPDEST PUSH2 0xD5 PUSH2 0x45B JUMP JUMPDEST PUSH1 0x40 MLOAD PUSH2 0xE2 SWAP2 SWAP1 PUSH2 0x9C6 JUMP JUMPDEST PUSH1 0x40 MLOAD DUP1 SWAP2 SUB SWAP1 RETURN JUMPDEST PUSH2 0x105 PUSH1 0x4 DUP1 CALLDATASIZE SUB DUP2 ADD SWAP1 PUSH2 0x100 SWAP2 SWAP1 PUSH2 0x977 JUMP JUMPDEST PUSH2 0x461 JUMP JUMPDEST PUSH1 0x40 MLOAD PUSH2 0x119 SWAP9 SWAP8 SWAP7 SWAP6 SWAP5 SWAP4 SWAP3 SWAP2 SWAP1 PUSH2 0x8EB JUMP JUMPDEST PUSH1 0x40 MLOAD DUP1 SWAP2 SUB SWAP1 RETURN JUMPDEST CALLER PUSH1 0x1 PUSH1 0x0 ADD PUSH1 0x0 PUSH2 0x100 EXP DUP2 SLOAD DUP2 PUSH20 0xFFFFFFFFFFFFFFFFFFFFFFFFFFFFFFFFFFFFFFFF MUL NOT AND SWAP1 DUP4 PUSH20 0xFFFFFFFFFFFFFFFFFFFFFFFFFFFFFFFFFFFFFFFF AND MUL OR SWAP1 SSTORE POP DUP5 PUSH1 0x1 DUP1 ADD SWAP1 DUP2 PUSH2 0x177 SWAP2 SWAP1 PUSH2 0xBED JUMP JUMPDEST POP DUP4 PUSH1 0x1 PUSH1 0x2 ADD DUP2 SWAP1 SSTORE POP DUP3 PUSH1 0x1 PUSH1 0x3 ADD DUP2 SWAP1 SSTORE POP DUP2 PUSH1 0x1 PUSH1 0x4 ADD DUP2 SWAP1 SSTORE POP DUP2 PUSH1 0x1 PUSH1 0x5 ADD DUP2 SWAP1 SSTORE POP DUP1 PUSH1 0x1 PUSH1 0x6 ADD SWAP1 DUP2 PUSH2 0x1B2 SWAP2 SWAP1 PUSH2 0xBED JUMP JUMPDEST POP PUSH1 0x1 DUP1 ADD PUSH1 0xA PUSH1 0x0 DUP1 SLOAD DUP2 MSTORE PUSH1 0x20 ADD SWAP1 DUP2 MSTORE PUSH1 0x20 ADD PUSH1 0x0 KECCAK256 PUSH1 0x8 ADD PUSH1 0x0 PUSH1 0xA PUSH1 0x0 PUSH1 0x1 PUSH1 0x7 ADD SLOAD DUP2 MSTORE PUSH1 0x20 ADD SWAP1 DUP2 MSTORE PUSH1 0x20 ADD PUSH1 0x0 KECCAK256 PUSH1 0x7 ADD SLOAD DUP2 MSTORE PUSH1 0x20 ADD SWAP1 DUP2 MSTORE PUSH1 0x20 ADD PUSH1 0x0 KECCAK256 SWAP1 DUP2 PUSH2 0x206 SWAP2 SWAP1 PUSH2 0xCEA JUMP JUMPDEST POP PUSH1 0xA PUSH1 0x0 DUP1 SLOAD DUP2 MSTORE PUSH1 0x20 ADD SWAP1 DUP2 MSTORE PUSH1 0x20 ADD PUSH1 0x0 KECCAK256 PUSH1 0x7 ADD PUSH1 0x0 DUP2 SLOAD DUP1 SWAP3 SWAP2 SWAP1 PUSH2 0x22F SWAP1 PUSH2 0xE01 JUMP JUMPDEST SWAP2 SWAP1 POP SSTORE POP POP POP POP POP POP JUMP JUMPDEST PUSH1 0x1 DUP1 PUSH1 0x0 ADD PUSH1 0x0 SWAP1 SLOAD SWAP1 PUSH2 0x100 EXP SWAP1 DIV PUSH20 0xFFFFFFFFFFFFFFFFFFFFFFFFFFFFFFFFFFFFFFFF AND SWAP1 DUP1 PUSH1 0x1 ADD DUP1 SLOAD PUSH2 0x272 SWAP1 PUSH2 0xA10 JUMP JUMPDEST DUP1 PUSH1 0x1F ADD PUSH1 0x20 DUP1 SWAP2 DIV MUL PUSH1 0x20 ADD PUSH1 0x40 MLOAD SWAP1 DUP2 ADD PUSH1 0x40 MSTORE DUP1 SWAP3 SWAP2 SWAP1 DUP2 DUP2 MSTORE PUSH1 0x20 ADD DUP3 DUP1 SLOAD PUSH2 0x29E SWAP1 PUSH2 0xA10 JUMP JUMPDEST DUP1 ISZERO PUSH2 0x2EB JUMPI DUP1 PUSH1 0x1F LT PUSH2 0x2C0 JUMPI PUSH2 0x100 DUP1 DUP4 SLOAD DIV MUL DUP4 MSTORE SWAP2 PUSH1 0x20 ADD SWAP2 PUSH2 0x2EB JUMP JUMPDEST DUP3 ADD SWAP2 SWAP1 PUSH1 0x0 MSTORE PUSH1 0x20 PUSH1 0x0 KECCAK256 SWAP1 JUMPDEST DUP2 SLOAD DUP2 MSTORE SWAP1 PUSH1 0x1 ADD SWAP1 PUSH1 0x20 ADD DUP1 DUP4 GT PUSH2 0x2CE JUMPI DUP3 SWAP1 SUB PUSH1 0x1F AND DUP3 ADD SWAP2 JUMPDEST POP POP POP POP POP SWAP1 DUP1 PUSH1 0x2 ADD SLOAD SWAP1 DUP1 PUSH1 0x3 ADD SLOAD SWAP1 DUP1 PUSH1 0x4 ADD SLOAD SWAP1 DUP1 PUSH1 0x5 ADD SLOAD SWAP1 DUP1 PUSH1 0x6 ADD DUP1 SLOAD PUSH2 0x318 SWAP1 PUSH2 0xA10 JUMP JUMPDEST DUP1 PUSH1 0x1F ADD PUSH1 0x20 DUP1 SWAP2 DIV MUL PUSH1 0x20 ADD PUSH1 0x40 MLOAD SWAP1 DUP2 ADD PUSH1 0x40 MSTORE DUP1 SWAP3 SWAP2 SWAP1 DUP2 DUP2 MSTORE PUSH1 0x20 ADD DUP3 DUP1 SLOAD PUSH2 0x344 SWAP1 PUSH2 0xA10 JUMP JUMPDEST DUP1 ISZERO PUSH2 0x391 JUMPI DUP1 PUSH1 0x1F LT PUSH2 0x366 JUMPI PUSH2 0x100 DUP1 DUP4 SLOAD DIV MUL DUP4 MSTORE SWAP2 PUSH1 0x20 ADD SWAP2 PUSH2 0x391 JUMP JUMPDEST DUP3 ADD SWAP2 SWAP1 PUSH1 0x0 MSTORE PUSH1 0x20 PUSH1 0x0 KECCAK256 SWAP1 JUMPDEST DUP2 SLOAD DUP2 MSTORE SWAP1 PUSH1 0x1 ADD SWAP1 PUSH1 0x20 ADD DUP1 DUP4 GT PUSH2 0x374 JUMPI DUP3 SWAP1 SUB PUSH1 0x1F AND DUP3 ADD SWAP2 JUMPDEST POP POP POP POP POP SWAP1 DUP1 PUSH1 0x7 ADD SLOAD SWAP1 POP DUP9 JUMP JUMPDEST PUSH1 0x60 PUSH1 0xA PUSH1 0x0 DUP4 DUP2 MSTORE PUSH1 0x20 ADD SWAP1 DUP2 MSTORE PUSH1 0x20 ADD PUSH1 0x0 KECCAK256 PUSH1 0x8 ADD PUSH1 0x0 DUP1 SLOAD DUP2 MSTORE PUSH1 0x20 ADD SWAP1 DUP2 MSTORE PUSH1 0x20 ADD PUSH1 0x0 KECCAK256 DUP1 SLOAD PUSH2 0x3D6 SWAP1 PUSH2 0xA10 JUMP JUMPDEST DUP1 PUSH1 0x1F ADD PUSH1 0x20 DUP1 SWAP2 DIV MUL PUSH1 0x20 ADD PUSH1 0x40 MLOAD SWAP1 DUP2 ADD PUSH1 0x40 MSTORE DUP1 SWAP3 SWAP2 SWAP1 DUP2 DUP2 MSTORE PUSH1 0x20 ADD DUP3 DUP1 SLOAD PUSH2 0x402 SWAP1 PUSH2 0xA10 JUMP JUMPDEST DUP1 ISZERO PUSH2 0x44F JUMPI DUP1 PUSH1 0x1F LT PUSH2 0x424 JUMPI PUSH2 0x100 DUP1 DUP4 SLOAD DIV MUL DUP4 MSTORE SWAP2 PUSH1 0x20 ADD SWAP2 PUSH2 0x44F JUMP JUMPDEST DUP3 ADD SWAP2 SWAP1 PUSH1 0x0 MSTORE PUSH1 0x20 PUSH1 0x0 KECCAK256 SWAP1 JUMPDEST DUP2 SLOAD DUP2 MSTORE SWAP1 PUSH1 0x1 ADD SWAP1 PUSH1 0x20 ADD DUP1 DUP4 GT PUSH2 0x432 JUMPI DUP3 SWAP1 SUB PUSH1 0x1F AND DUP3 ADD SWAP2 JUMPDEST POP POP POP POP POP SWAP1 POP SWAP2 SWAP1 POP JUMP JUMPDEST PUSH1 0x0 SLOAD DUP2 JUMP JUMPDEST PUSH1 0xA PUSH1 0x20 MSTORE DUP1 PUSH1 0x0 MSTORE PUSH1 0x40 PUSH1 0x0 KECCAK256 PUSH1 0x0 SWAP2 POP SWAP1 POP DUP1 PUSH1 0x0 ADD PUSH1 0x0 SWAP1 SLOAD SWAP1 PUSH2 0x100 EXP SWAP1 DIV PUSH20 0xFFFFFFFFFFFFFFFFFFFFFFFFFFFFFFFFFFFFFFFF AND SWAP1 DUP1 PUSH1 0x1 ADD DUP1 SLOAD PUSH2 0x4AA SWAP1 PUSH2 0xA10 JUMP JUMPDEST DUP1 PUSH1 0x1F ADD PUSH1 0x20 DUP1 SWAP2 DIV MUL PUSH1 0x20 ADD PUSH1 0x40 MLOAD SWAP1 DUP2 ADD PUSH1 0x40 MSTORE DUP1 SWAP3 SWAP2 SWAP1 DUP2 DUP2 MSTORE PUSH1 0x20 ADD DUP3 DUP1 SLOAD PUSH2 0x4D6 SWAP1 PUSH2 0xA10 JUMP JUMPDEST DUP1 ISZERO PUSH2 0x523 JUMPI DUP1 PUSH1 0x1F LT PUSH2 0x4F8 JUMPI PUSH2 0x100 DUP1 DUP4 SLOAD DIV MUL DUP4 MSTORE SWAP2 PUSH1 0x20 ADD SWAP2 PUSH2 0x523 JUMP JUMPDEST DUP3 ADD SWAP2 SWAP1 PUSH1 0x0 MSTORE PUSH1 0x20 PUSH1 0x0 KECCAK256 SWAP1 JUMPDEST DUP2 SLOAD DUP2 MSTORE SWAP1 PUSH1 0x1 ADD SWAP1 PUSH1 0x20 ADD DUP1 DUP4 GT PUSH2 0x506 JUMPI DUP3 SWAP1 SUB PUSH1 0x1F AND DUP3 ADD SWAP2 JUMPDEST POP POP POP POP POP SWAP1 DUP1 PUSH1 0x2 ADD SLOAD SWAP1 DUP1 PUSH1 0x3 ADD SLOAD SWAP1 DUP1 PUSH1 0x4 ADD SLOAD SWAP1 DUP1 PUSH1 0x5 ADD SLOAD SWAP1 DUP1 PUSH1 0x6 ADD DUP1 SLOAD PUSH2 0x550 SWAP1 PUSH2 0xA10 JUMP JUMPDEST DUP1 PUSH1 0x1F ADD PUSH1 0x20 DUP1 SWAP2 DIV MUL PUSH1 0x20 ADD PUSH1 0x40 MLOAD SWAP1 DUP2 ADD PUSH1 0x40 MSTORE DUP1 SWAP3 SWAP2 SWAP1 DUP2 DUP2 MSTORE PUSH1 0x20 ADD DUP3 DUP1 SLOAD PUSH2 0x57C SWAP1 PUSH2 0xA10 JUMP JUMPDEST DUP1 ISZERO PUSH2 0x5C9 JUMPI DUP1 PUSH1 0x1F LT PUSH2 0x59E JUMPI PUSH2 0x100 DUP1 DUP4 SLOAD DIV MUL DUP4 MSTORE SWAP2 PUSH1 0x20 ADD SWAP2 PUSH2 0x5C9 JUMP JUMPDEST DUP3 ADD SWAP2 SWAP1 PUSH1 0x0 MSTORE PUSH1 0x20 PUSH1 0x0 KECCAK256 SWAP1 JUMPDEST DUP2 SLOAD DUP2 MSTORE SWAP1 PUSH1 0x1 ADD SWAP1 PUSH1 0x20 ADD DUP1 DUP4 GT PUSH2 0x5AC JUMPI DUP3 SWAP1 SUB PUSH1 0x1F AND DUP3 ADD SWAP2 JUMPDEST POP POP POP POP POP SWAP1 DUP1 PUSH1 0x7 ADD SLOAD SWAP1 POP DUP9 JUMP JUMPDEST PUSH1 0x0 PUSH1 0x40 MLOAD SWAP1 POP SWAP1 JUMP JUMPDEST PUSH1 0x0 DUP1 REVERT JUMPDEST PUSH1 0x0 DUP1 REVERT JUMPDEST PUSH1 0x0 DUP1 REVERT JUMPDEST PUSH1 0x0 DUP1 REVERT JUMPDEST PUSH1 0x0 PUSH1 0x1F NOT PUSH1 0x1F DUP4 ADD AND SWAP1 POP SWAP2 SWAP1 POP JUMP JUMPDEST PUSH32 0x4E487B7100000000000000000000000000000000000000000000000000000000 PUSH1 0x0 MSTORE PUSH1 0x41 PUSH1 0x4 MSTORE PUSH1 0x24 PUSH1 0x0 REVERT JUMPDEST PUSH2 0x640 DUP3 PUSH2 0x5F7 JUMP JUMPDEST DUP2 ADD DUP2 DUP2 LT PUSH8 0xFFFFFFFFFFFFFFFF DUP3 GT OR ISZERO PUSH2 0x65F JUMPI PUSH2 0x65E PUSH2 0x608 JUMP JUMPDEST JUMPDEST DUP1 PUSH1 0x40 MSTORE POP POP POP JUMP JUMPDEST PUSH1 0x0 PUSH2 0x672 PUSH2 0x5D9 JUMP JUMPDEST SWAP1 POP PUSH2 0x67E DUP3 DUP3 PUSH2 0x637 JUMP JUMPDEST SWAP2 SWAP1 POP JUMP JUMPDEST PUSH1 0x0 PUSH8 0xFFFFFFFFFFFFFFFF DUP3 GT ISZERO PUSH2 0x69E JUMPI PUSH2 0x69D PUSH2 0x608 JUMP JUMPDEST JUMPDEST PUSH2 0x6A7 DUP3 PUSH2 0x5F7 JUMP JUMPDEST SWAP1 POP PUSH1 0x20 DUP2 ADD SWAP1 POP SWAP2 SWAP1 POP JUMP JUMPDEST DUP3 DUP2 DUP4 CALLDATACOPY PUSH1 0x0 DUP4 DUP4 ADD MSTORE POP POP POP JUMP JUMPDEST PUSH1 0x0 PUSH2 0x6D6 PUSH2 0x6D1 DUP5 PUSH2 0x683 JUMP JUMPDEST PUSH2 0x668 JUMP JUMPDEST SWAP1 POP DUP3 DUP2 MSTORE PUSH1 0x20 DUP2 ADD DUP5 DUP5 DUP5 ADD GT ISZERO PUSH2 0x6F2 JUMPI PUSH2 0x6F1 PUSH2 0x5F2 JUMP JUMPDEST JUMPDEST PUSH2 0x6FD DUP5 DUP3 DUP6 PUSH2 0x6B4 JUMP JUMPDEST POP SWAP4 SWAP3 POP POP POP JUMP JUMPDEST PUSH1 0x0 DUP3 PUSH1 0x1F DUP4 ADD SLT PUSH2 0x71A JUMPI PUSH2 0x719 PUSH2 0x5ED JUMP JUMPDEST JUMPDEST DUP2 CALLDATALOAD PUSH2 0x72A DUP5 DUP3 PUSH1 0x20 DUP7 ADD PUSH2 0x6C3 JUMP JUMPDEST SWAP2 POP POP SWAP3 SWAP2 POP POP JUMP JUMPDEST PUSH1 0x0 DUP2 SWAP1 POP SWAP2 SWAP1 POP JUMP JUMPDEST PUSH2 0x746 DUP2 PUSH2 0x733 JUMP JUMPDEST DUP2 EQ PUSH2 0x751 JUMPI PUSH1 0x0 DUP1 REVERT JUMPDEST POP JUMP JUMPDEST PUSH1 0x0 DUP2 CALLDATALOAD SWAP1 POP PUSH2 0x763 DUP2 PUSH2 0x73D JUMP JUMPDEST SWAP3 SWAP2 POP POP JUMP JUMPDEST PUSH1 0x0 DUP1 PUSH1 0x0 DUP1 PUSH1 0x0 PUSH1 0xA0 DUP7 DUP9 SUB SLT ISZERO PUSH2 0x785 JUMPI PUSH2 0x784 PUSH2 0x5E3 JUMP JUMPDEST JUMPDEST PUSH1 0x0 DUP7 ADD CALLDATALOAD PUSH8 0xFFFFFFFFFFFFFFFF DUP2 GT ISZERO PUSH2 0x7A3 JUMPI PUSH2 0x7A2 PUSH2 0x5E8 JUMP JUMPDEST JUMPDEST PUSH2 0x7AF DUP9 DUP3 DUP10 ADD PUSH2 0x705 JUMP JUMPDEST SWAP6 POP POP PUSH1 0x20 PUSH2 0x7C0 DUP9 DUP3 DUP10 ADD PUSH2 0x754 JUMP JUMPDEST SWAP5 POP POP PUSH1 0x40 PUSH2 0x7D1 DUP9 DUP3 DUP10 ADD PUSH2 0x754 JUMP JUMPDEST SWAP4 POP POP PUSH1 0x60 PUSH2 0x7E2 DUP9 DUP3 DUP10 ADD PUSH2 0x754 JUMP JUMPDEST SWAP3 POP POP PUSH1 0x80 DUP7 ADD CALLDATALOAD PUSH8 0xFFFFFFFFFFFFFFFF DUP2 GT ISZERO PUSH2 0x803 JUMPI PUSH2 0x802 PUSH2 0x5E8 JUMP JUMPDEST JUMPDEST PUSH2 0x80F DUP9 DUP3 DUP10 ADD PUSH2 0x705 JUMP JUMPDEST SWAP2 POP POP SWAP3 SWAP6 POP SWAP3 SWAP6 SWAP1 SWAP4 POP JUMP JUMPDEST PUSH1 0x0 PUSH20 0xFFFFFFFFFFFFFFFFFFFFFFFFFFFFFFFFFFFFFFFF DUP3 AND SWAP1 POP SWAP2 SWAP1 POP JUMP JUMPDEST PUSH1 0x0 PUSH2 0x847 DUP3 PUSH2 0x81C JUMP JUMPDEST SWAP1 POP SWAP2 SWAP1 POP JUMP JUMPDEST PUSH2 0x857 DUP2 PUSH2 0x83C JUMP JUMPDEST DUP3 MSTORE POP POP JUMP JUMPDEST PUSH1 0x0 DUP2 MLOAD SWAP1 POP SWAP2 SWAP1 POP JUMP JUMPDEST PUSH1 0x0 DUP3 DUP3 MSTORE PUSH1 0x20 DUP3 ADD SWAP1 POP SWAP3 SWAP2 POP POP JUMP JUMPDEST PUSH1 0x0 JUMPDEST DUP4 DUP2 LT ISZERO PUSH2 0x897 JUMPI DUP1 DUP3 ADD MLOAD DUP2 DUP5 ADD MSTORE PUSH1 0x20 DUP2 ADD SWAP1 POP PUSH2 0x87C JUMP JUMPDEST PUSH1 0x0 DUP5 DUP5 ADD MSTORE POP POP POP POP JUMP JUMPDEST PUSH1 0x0 PUSH2 0x8AE DUP3 PUSH2 0x85D JUMP JUMPDEST PUSH2 0x8B8 DUP2 DUP6 PUSH2 0x868 JUMP JUMPDEST SWAP4 POP PUSH2 0x8C8 DUP2 DUP6 PUSH1 0x20 DUP7 ADD PUSH2 0x879 JUMP JUMPDEST PUSH2 0x8D1 DUP2 PUSH2 0x5F7 JUMP JUMPDEST DUP5 ADD SWAP2 POP POP SWAP3 SWAP2 POP POP JUMP JUMPDEST PUSH2 0x8E5 DUP2 PUSH2 0x733 JUMP JUMPDEST DUP3 MSTORE POP POP JUMP JUMPDEST PUSH1 0x0 PUSH2 0x100 DUP3 ADD SWAP1 POP PUSH2 0x901 PUSH1 0x0 DUP4 ADD DUP12 PUSH2 0x84E JUMP JUMPDEST DUP2 DUP2 SUB PUSH1 0x20 DUP4 ADD MSTORE PUSH2 0x913 DUP2 DUP11 PUSH2 0x8A3 JUMP JUMPDEST SWAP1 POP PUSH2 0x922 PUSH1 0x40 DUP4 ADD DUP10 PUSH2 0x8DC JUMP JUMPDEST PUSH2 0x92F PUSH1 0x60 DUP4 ADD DUP9 PUSH2 0x8DC JUMP JUMPDEST PUSH2 0x93C PUSH1 0x80 DUP4 ADD DUP8 PUSH2 0x8DC JUMP JUMPDEST PUSH2 0x949 PUSH1 0xA0 DUP4 ADD DUP7 PUSH2 0x8DC JUMP JUMPDEST DUP2 DUP2 SUB PUSH1 0xC0 DUP4 ADD MSTORE PUSH2 0x95B DUP2 DUP6 PUSH2 0x8A3 JUMP JUMPDEST SWAP1 POP PUSH2 0x96A PUSH1 0xE0 DUP4 ADD DUP5 PUSH2 0x8DC JUMP JUMPDEST SWAP10 SWAP9 POP POP POP POP POP POP POP POP POP JUMP JUMPDEST PUSH1 0x0 PUSH1 0x20 DUP3 DUP5 SUB SLT ISZERO PUSH2 0x98D JUMPI PUSH2 0x98C PUSH2 0x5E3 JUMP JUMPDEST JUMPDEST PUSH1 0x0 PUSH2 0x99B DUP5 DUP3 DUP6 ADD PUSH2 0x754 JUMP JUMPDEST SWAP2 POP POP SWAP3 SWAP2 POP POP JUMP JUMPDEST PUSH1 0x0 PUSH1 0x20 DUP3 ADD SWAP1 POP DUP2 DUP2 SUB PUSH1 0x0 DUP4 ADD MSTORE PUSH2 0x9BE DUP2 DUP5 PUSH2 0x8A3 JUMP JUMPDEST SWAP1 POP SWAP3 SWAP2 POP POP JUMP JUMPDEST PUSH1 0x0 PUSH1 0x20 DUP3 ADD SWAP1 POP PUSH2 0x9DB PUSH1 0x0 DUP4 ADD DUP5 PUSH2 0x8DC JUMP JUMPDEST SWAP3 SWAP2 POP POP JUMP JUMPDEST PUSH32 0x4E487B7100000000000000000000000000000000000000000000000000000000 PUSH1 0x0 MSTORE PUSH1 0x22 PUSH1 0x4 MSTORE PUSH1 0x24 PUSH1 0x0 REVERT JUMPDEST PUSH1 0x0 PUSH1 0x2 DUP3 DIV SWAP1 POP PUSH1 0x1 DUP3 AND DUP1 PUSH2 0xA28 JUMPI PUSH1 0x7F DUP3 AND SWAP2 POP JUMPDEST PUSH1 0x20 DUP3 LT DUP2 SUB PUSH2 0xA3B JUMPI PUSH2 0xA3A PUSH2 0x9E1 JUMP JUMPDEST JUMPDEST POP SWAP2 SWAP1 POP JUMP JUMPDEST PUSH1 0x0 DUP2 SWAP1 POP DUP2 PUSH1 0x0 MSTORE PUSH1 0x20 PUSH1 0x0 KECCAK256 SWAP1 POP SWAP2 SWAP1 POP JUMP JUMPDEST PUSH1 0x0 PUSH1 0x20 PUSH1 0x1F DUP4 ADD DIV SWAP1 POP SWAP2 SWAP1 POP JUMP JUMPDEST PUSH1 0x0 DUP3 DUP3 SHL SWAP1 POP SWAP3 SWAP2 POP POP JUMP JUMPDEST PUSH1 0x0 PUSH1 0x8 DUP4 MUL PUSH2 0xAA3 PUSH32 0xFFFFFFFFFFFFFFFFFFFFFFFFFFFFFFFFFFFFFFFFFFFFFFFFFFFFFFFFFFFFFFFF DUP3 PUSH2 0xA66 JUMP JUMPDEST PUSH2 0xAAD DUP7 DUP4 PUSH2 0xA66 JUMP JUMPDEST SWAP6 POP DUP1 NOT DUP5 AND SWAP4 POP DUP1 DUP7 AND DUP5 OR SWAP3 POP POP POP SWAP4 SWAP3 POP POP POP JUMP JUMPDEST PUSH1 0x0 DUP2 SWAP1 POP SWAP2 SWAP1 POP JUMP JUMPDEST PUSH1 0x0 PUSH2 0xAEA PUSH2 0xAE5 PUSH2 0xAE0 DUP5 PUSH2 0x733 JUMP JUMPDEST PUSH2 0xAC5 JUMP JUMPDEST PUSH2 0x733 JUMP JUMPDEST SWAP1 POP SWAP2 SWAP1 POP JUMP JUMPDEST PUSH1 0x0 DUP2 SWAP1 POP SWAP2 SWAP1 POP JUMP JUMPDEST PUSH2 0xB04 DUP4 PUSH2 0xACF JUMP JUMPDEST PUSH2 0xB18 PUSH2 0xB10 DUP3 PUSH2 0xAF1 JUMP JUMPDEST DUP5 DUP5 SLOAD PUSH2 0xA73 JUMP JUMPDEST DUP3 SSTORE POP POP POP POP JUMP JUMPDEST PUSH1 0x0 SWAP1 JUMP JUMPDEST PUSH2 0xB2D PUSH2 0xB20 JUMP JUMPDEST PUSH2 0xB38 DUP2 DUP5 DUP5 PUSH2 0xAFB JUMP JUMPDEST POP POP POP JUMP JUMPDEST JUMPDEST DUP2 DUP2 LT ISZERO PUSH2 0xB5C JUMPI PUSH2 0xB51 PUSH1 0x0 DUP3 PUSH2 0xB25 JUMP JUMPDEST PUSH1 0x1 DUP2 ADD SWAP1 POP PUSH2 0xB3E JUMP JUMPDEST POP POP JUMP JUMPDEST PUSH1 0x1F DUP3 GT ISZERO PUSH2 0xBA1 JUMPI PUSH2 0xB72 DUP2 PUSH2 0xA41 JUMP JUMPDEST PUSH2 0xB7B DUP5 PUSH2 0xA56 JUMP JUMPDEST DUP2 ADD PUSH1 0x20 DUP6 LT ISZERO PUSH2 0xB8A JUMPI DUP2 SWAP1 POP JUMPDEST PUSH2 0xB9E PUSH2 0xB96 DUP6 PUSH2 0xA56 JUMP JUMPDEST DUP4 ADD DUP3 PUSH2 0xB3D JUMP JUMPDEST POP POP JUMPDEST POP POP POP JUMP JUMPDEST PUSH1 0x0 DUP3 DUP3 SHR SWAP1 POP SWAP3 SWAP2 POP POP JUMP JUMPDEST PUSH1 0x0 PUSH2 0xBC4 PUSH1 0x0 NOT DUP5 PUSH1 0x8 MUL PUSH2 0xBA6 JUMP JUMPDEST NOT DUP1 DUP4 AND SWAP2 POP POP SWAP3 SWAP2 POP POP JUMP JUMPDEST PUSH1 0x0 PUSH2 0xBDD DUP4 DUP4 PUSH2 0xBB3 JUMP JUMPDEST SWAP2 POP DUP3 PUSH1 0x2 MUL DUP3 OR SWAP1 POP SWAP3 SWAP2 POP POP JUMP JUMPDEST PUSH2 0xBF6 DUP3 PUSH2 0x85D JUMP JUMPDEST PUSH8 0xFFFFFFFFFFFFFFFF DUP2 GT ISZERO PUSH2 0xC0F JUMPI PUSH2 0xC0E PUSH2 0x608 JUMP JUMPDEST JUMPDEST PUSH2 0xC19 DUP3 SLOAD PUSH2 0xA10 JUMP JUMPDEST PUSH2 0xC24 DUP3 DUP3 DUP6 PUSH2 0xB60 JUMP JUMPDEST PUSH1 0x0 PUSH1 0x20 SWAP1 POP PUSH1 0x1F DUP4 GT PUSH1 0x1 DUP2 EQ PUSH2 0xC57 JUMPI PUSH1 0x0 DUP5 ISZERO PUSH2 0xC45 JUMPI DUP3 DUP8 ADD MLOAD SWAP1 POP JUMPDEST PUSH2 0xC4F DUP6 DUP3 PUSH2 0xBD1 JUMP JUMPDEST DUP7 SSTORE POP PUSH2 0xCB7 JUMP JUMPDEST PUSH1 0x1F NOT DUP5 AND PUSH2 0xC65 DUP7 PUSH2 0xA41 JUMP JUMPDEST PUSH1 0x0 JUMPDEST DUP3 DUP2 LT ISZERO PUSH2 0xC8D JUMPI DUP5 DUP10 ADD MLOAD DUP3 SSTORE PUSH1 0x1 DUP3 ADD SWAP2 POP PUSH1 0x20 DUP6 ADD SWAP5 POP PUSH1 0x20 DUP2 ADD SWAP1 POP PUSH2 0xC68 JUMP JUMPDEST DUP7 DUP4 LT ISZERO PUSH2 0xCAA JUMPI DUP5 DUP10 ADD MLOAD PUSH2 0xCA6 PUSH1 0x1F DUP10 AND DUP3 PUSH2 0xBB3 JUMP JUMPDEST DUP4 SSTORE POP JUMPDEST PUSH1 0x1 PUSH1 0x2 DUP9 MUL ADD DUP9 SSTORE POP POP POP JUMPDEST POP POP POP POP POP POP JUMP JUMPDEST PUSH1 0x0 DUP2 SLOAD SWAP1 POP PUSH2 0xCCE DUP2 PUSH2 0xA10 JUMP JUMPDEST SWAP1 POP SWAP2 SWAP1 POP JUMP JUMPDEST PUSH1 0x0 DUP2 SWAP1 POP DUP2 PUSH1 0x0 MSTORE PUSH1 0x20 PUSH1 0x0 KECCAK256 SWAP1 POP SWAP2 SWAP1 POP JUMP JUMPDEST DUP2 DUP2 SUB PUSH2 0xCF8 JUMPI POP POP PUSH2 0xDD0 JUMP JUMPDEST PUSH2 0xD01 DUP3 PUSH2 0xCBF JUMP JUMPDEST PUSH8 0xFFFFFFFFFFFFFFFF DUP2 GT ISZERO PUSH2 0xD1A JUMPI PUSH2 0xD19 PUSH2 0x608 JUMP JUMPDEST JUMPDEST PUSH2 0xD24 DUP3 SLOAD PUSH2 0xA10 JUMP JUMPDEST PUSH2 0xD2F DUP3 DUP3 DUP6 PUSH2 0xB60 JUMP JUMPDEST PUSH1 0x0 PUSH1 0x1F DUP4 GT PUSH1 0x1 DUP2 EQ PUSH2 0xD5E JUMPI PUSH1 0x0 DUP5 ISZERO PUSH2 0xD4C JUMPI DUP3 DUP8 ADD SLOAD SWAP1 POP JUMPDEST PUSH2 0xD56 DUP6 DUP3 PUSH2 0xBD1 JUMP JUMPDEST DUP7 SSTORE POP PUSH2 0xDC9 JUMP JUMPDEST PUSH1 0x1F NOT DUP5 AND PUSH2 0xD6C DUP8 PUSH2 0xCD5 JUMP JUMPDEST SWAP7 POP PUSH2 0xD77 DUP7 PUSH2 0xA41 JUMP JUMPDEST PUSH1 0x0 JUMPDEST DUP3 DUP2 LT ISZERO PUSH2 0xD9F JUMPI DUP5 DUP10 ADD SLOAD DUP3 SSTORE PUSH1 0x1 DUP3 ADD SWAP2 POP PUSH1 0x1 DUP6 ADD SWAP5 POP PUSH1 0x20 DUP2 ADD SWAP1 POP PUSH2 0xD7A JUMP JUMPDEST DUP7 DUP4 LT ISZERO PUSH2 0xDBC JUMPI DUP5 DUP10 ADD SLOAD PUSH2 0xDB8 PUSH1 0x1F DUP10 AND DUP3 PUSH2 0xBB3 JUMP JUMPDEST DUP4 SSTORE POP JUMPDEST PUSH1 0x1 PUSH1 0x2 DUP9 MUL ADD DUP9 SSTORE POP POP POP JUMPDEST POP POP POP POP POP POP JUMPDEST JUMP JUMPDEST PUSH32 0x4E487B7100000000000000000000000000000000000000000000000000000000 PUSH1 0x0 MSTORE PUSH1 0x11 PUSH1 0x4 MSTORE PUSH1 0x24 PUSH1 0x0 REVERT JUMPDEST PUSH1 0x0 PUSH2 0xE0C DUP3 PUSH2 0x733 JUMP JUMPDEST SWAP2 POP PUSH32 0xFFFFFFFFFFFFFFFFFFFFFFFFFFFFFFFFFFFFFFFFFFFFFFFFFFFFFFFFFFFFFFFF DUP3 SUB PUSH2 0xE3E JUMPI PUSH2 0xE3D PUSH2 0xDD2 JUMP JUMPDEST JUMPDEST PUSH1 0x1 DUP3 ADD SWAP1 POP SWAP2 SWAP1 POP JUMP INVALID LOG2 PUSH5 0x6970667358 0x22 SLT KECCAK256 0xC6 0x4C 0x5E NUMBER SHL 0xE6 0xB4 BLOCKHASH PUSH31 0x36ED19067CCEB617C83F97BF34E58C5433EAAC73FE5CE064736F6C63430008 SLT STOP CALLER "
				},
				"gasEstimates": {
					"creation": {
						"codeDepositCost": "742200",
						"executionCost": "773",
						"totalCost": "742973"
					},
					"external": {
						"Getedata(uint256)": "infinite",
						"Register_Event(string,uint256,uint256,uint256,string)": "infinite",
						"e2()": "infinite",
						"eventdata(uint256)": "infinite",
						"newid()": "2473"
					}
				},
				"methodIdentifiers": {
					"Getedata(uint256)": "bf9ef1e6",
					"Register_Event(string,uint256,uint256,uint256,string)": "08e1d21e",
					"e2()": "9b31f9e8",
					"eventdata(uint256)": "d8c7c8de",
					"newid()": "c9931b35"
				}
			},
			"storageLayout": {
				"storage": [
					{
						"astId": 24,
						"contract": "event new.sol:organizer",
						"label": "newid",
						"offset": 0,
						"slot": "0",
						"type": "t_uint256"
					},
					{
						"astId": 27,
						"contract": "event new.sol:organizer",
						"label": "e2",
						"offset": 0,
						"slot": "1",
						"type": "t_struct(Event)22_storage"
					},
					{
						"astId": 57,
						"contract": "event new.sol:organizer",
						"label": "eventdata",
						"offset": 0,
						"slot": "10",
						"type": "t_mapping(t_uint256,t_struct(Event)22_storage)"
					}
				],
				"types": {
					"t_address": {
						"encoding": "inplace",
						"label": "address",
						"numberOfBytes": "20"
					},
					"t_mapping(t_uint256,t_string_storage)": {
						"encoding": "mapping",
						"key": "t_uint256",
						"label": "mapping(uint256 => string)",
						"numberOfBytes": "32",
						"value": "t_string_storage"
					},
					"t_mapping(t_uint256,t_struct(Event)22_storage)": {
						"encoding": "mapping",
						"key": "t_uint256",
						"label": "mapping(uint256 => struct organizer.Event)",
						"numberOfBytes": "32",
						"value": "t_struct(Event)22_storage"
					},
					"t_string_storage": {
						"encoding": "bytes",
						"label": "string",
						"numberOfBytes": "32"
					},
					"t_struct(Event)22_storage": {
						"encoding": "inplace",
						"label": "struct organizer.Event",
						"members": [
							{
								"astId": 3,
								"contract": "event new.sol:organizer",
								"label": "organizer",
								"offset": 0,
								"slot": "0",
								"type": "t_address"
							},
							{
								"astId": 5,
								"contract": "event new.sol:organizer",
								"label": "Event_Name",
								"offset": 0,
								"slot": "1",
								"type": "t_string_storage"
							},
							{
								"astId": 7,
								"contract": "event new.sol:organizer",
								"label": "date",
								"offset": 0,
								"slot": "2",
								"type": "t_uint256"
							},
							{
								"astId": 9,
								"contract": "event new.sol:organizer",
								"label": "price",
								"offset": 0,
								"slot": "3",
								"type": "t_uint256"
							},
							{
								"astId": 11,
								"contract": "event new.sol:organizer",
								"label": "ticket_Count",
								"offset": 0,
								"slot": "4",
								"type": "t_uint256"
							},
							{
								"astId": 13,
								"contract": "event new.sol:organizer",
								"label": "remaining_tickets",
								"offset": 0,
								"slot": "5",
								"type": "t_uint256"
							},
							{
								"astId": 15,
								"contract": "event new.sol:organizer",
								"label": "speaker",
								"offset": 0,
								"slot": "6",
								"type": "t_string_storage"
							},
							{
								"astId": 17,
								"contract": "event new.sol:organizer",
								"label": "nextid",
								"offset": 0,
								"slot": "7",
								"type": "t_uint256"
							},
							{
								"astId": 21,
								"contract": "event new.sol:organizer",
								"label": "edataa",
								"offset": 0,
								"slot": "8",
								"type": "t_mapping(t_uint256,t_string_storage)"
							}
						],
						"numberOfBytes": "288"
					},
					"t_uint256": {
						"encoding": "inplace",
						"label": "uint256",
						"numberOfBytes": "32"
					}
				}
			},
			"userdoc": {
				"kind": "user",
				"methods": {},
				"version": 1
			}
		}
	}
}