{
	"lottery.sol": {
		"ticket": {
			"abi": [
				{
					"inputs": [],
					"stateMutability": "nonpayable",
					"type": "constructor"
				},
				{
					"inputs": [],
					"name": "balance",
					"outputs": [
						{
							"internalType": "uint256",
							"name": "",
							"type": "uint256"
						}
					],
					"stateMutability": "view",
					"type": "function"
				},
				{
					"inputs": [],
					"name": "owner",
					"outputs": [
						{
							"internalType": "address",
							"name": "",
							"type": "address"
						}
					],
					"stateMutability": "view",
					"type": "function"
				},
				{
					"inputs": [
						{
							"internalType": "uint256",
							"name": "",
							"type": "uint256"
						}
					],
					"name": "players",
					"outputs": [
						{
							"internalType": "address payable",
							"name": "",
							"type": "address"
						}
					],
					"stateMutability": "view",
					"type": "function"
				},
				{
					"inputs": [],
					"name": "randon",
					"outputs": [
						{
							"internalType": "uint256",
							"name": "",
							"type": "uint256"
						}
					],
					"stateMutability": "view",
					"type": "function"
				},
				{
					"inputs": [],
					"name": "winner",
					"outputs": [
						{
							"internalType": "address",
							"name": "",
							"type": "address"
						}
					],
					"stateMutability": "view",
					"type": "function"
				},
				{
					"stateMutability": "payable",
					"type": "receive"
				}
			],
			"devdoc": {
				"kind": "dev",
				"methods": {},
				"version": 1
			},
			"evm": {
				"assembly": "    /* \"lottery.sol\":74:1060  contract ticket{... */\n  mstore(0x40, 0x80)\n    /* \"lottery.sol\":164:212  constructor(){... */\n  callvalue\n  dup1\n  iszero\n  tag_1\n  jumpi\n  0x00\n  dup1\n  revert\ntag_1:\n  pop\n    /* \"lottery.sol\":194:204  msg.sender */\n  caller\n    /* \"lottery.sol\":188:193  owner */\n  0x00\n  dup1\n    /* \"lottery.sol\":188:204  owner=msg.sender */\n  0x0100\n  exp\n  dup2\n  sload\n  dup2\n  0xffffffffffffffffffffffffffffffffffffffff\n  mul\n  not\n  and\n  swap1\n  dup4\n  0xffffffffffffffffffffffffffffffffffffffff\n  and\n  mul\n  or\n  swap1\n  sstore\n  pop\n    /* \"lottery.sol\":74:1060  contract ticket{... */\n  dataSize(sub_0)\n  dup1\n  dataOffset(sub_0)\n  0x00\n  codecopy\n  0x00\n  return\nstop\n\nsub_0: assembly {\n        /* \"lottery.sol\":74:1060  contract ticket{... */\n      mstore(0x40, 0x80)\n      jumpi(tag_1, lt(calldatasize, 0x04))\n      shr(0xe0, calldataload(0x00))\n      dup1\n      0x4be1ebf7\n      eq\n      tag_3\n      jumpi\n      dup1\n      0x8da5cb5b\n      eq\n      tag_4\n      jumpi\n      dup1\n      0xb69ef8a8\n      eq\n      tag_5\n      jumpi\n      dup1\n      0xdfbf53ae\n      eq\n      tag_6\n      jumpi\n      dup1\n      0xf71d96cb\n      eq\n      tag_7\n      jumpi\n      jump(tag_2)\n    tag_1:\n      jumpi(tag_2, calldatasize)\n        /* \"lottery.sol\":276:283  2 ether */\n      0x1bc16d674ec80000\n        /* \"lottery.sol\":265:274  msg.value */\n      callvalue\n        /* \"lottery.sol\":265:283  msg.value==2 ether */\n      eq\n        /* \"lottery.sol\":257:302  require(msg.value==2 ether, \"invalid amount\") */\n      tag_10\n      jumpi\n      mload(0x40)\n      0x08c379a000000000000000000000000000000000000000000000000000000000\n      dup2\n      mstore\n      0x04\n      add\n      tag_11\n      swap1\n      tag_12\n      jump\t// in\n    tag_11:\n      mload(0x40)\n      dup1\n      swap2\n      sub\n      swap1\n      revert\n    tag_10:\n        /* \"lottery.sol\":313:320  players */\n      0x01\n        /* \"lottery.sol\":335:345  msg.sender */\n      caller\n        /* \"lottery.sol\":313:347  players.push(payable (msg.sender)) */\n      swap1\n      dup1\n      0x01\n      dup2\n      sload\n      add\n      dup1\n      dup3\n      sstore\n      dup1\n      swap2\n      pop\n      pop\n      0x01\n      swap1\n      sub\n      swap1\n      0x00\n      mstore\n      keccak256(0x00, 0x20)\n      add\n      0x00\n      swap1\n      swap2\n      swap1\n      swap2\n      swap1\n      swap2\n      0x0100\n      exp\n      dup2\n      sload\n      dup2\n      0xffffffffffffffffffffffffffffffffffffffff\n      mul\n      not\n      and\n      swap1\n      dup4\n      0xffffffffffffffffffffffffffffffffffffffff\n      and\n      mul\n      or\n      swap1\n      sstore\n      stop\n        /* \"lottery.sol\":74:1060  contract ticket{... */\n    tag_2:\n      0x00\n      dup1\n      revert\n        /* \"lottery.sol\":523:716  function randon() public view returns(uint){... */\n    tag_3:\n      callvalue\n      dup1\n      iszero\n      tag_14\n      jumpi\n      0x00\n      dup1\n      revert\n    tag_14:\n      pop\n      tag_15\n      tag_16\n      jump\t// in\n    tag_15:\n      mload(0x40)\n      tag_17\n      swap2\n      swap1\n      tag_18\n      jump\t// in\n    tag_17:\n      mload(0x40)\n      dup1\n      swap2\n      sub\n      swap1\n      return\n        /* \"lottery.sol\":96:116  address public owner */\n    tag_4:\n      callvalue\n      dup1\n      iszero\n      tag_19\n      jumpi\n      0x00\n      dup1\n      revert\n    tag_19:\n      pop\n      tag_20\n      tag_21\n      jump\t// in\n    tag_20:\n      mload(0x40)\n      tag_22\n      swap2\n      swap1\n      tag_23\n      jump\t// in\n    tag_22:\n      mload(0x40)\n      dup1\n      swap2\n      sub\n      swap1\n      return\n        /* \"lottery.sol\":363:515  function balance() public view returns(uint){... */\n    tag_5:\n      callvalue\n      dup1\n      iszero\n      tag_24\n      jumpi\n      0x00\n      dup1\n      revert\n    tag_24:\n      pop\n      tag_25\n      tag_26\n      jump\t// in\n    tag_25:\n      mload(0x40)\n      tag_27\n      swap2\n      swap1\n      tag_18\n      jump\t// in\n    tag_27:\n      mload(0x40)\n      dup1\n      swap2\n      sub\n      swap1\n      return\n        /* \"lottery.sol\":722:1051  function winner() public view returns(address) {... */\n    tag_6:\n      callvalue\n      dup1\n      iszero\n      tag_28\n      jumpi\n      0x00\n      dup1\n      revert\n    tag_28:\n      pop\n      tag_29\n      tag_30\n      jump\t// in\n    tag_29:\n      mload(0x40)\n      tag_31\n      swap2\n      swap1\n      tag_23\n      jump\t// in\n    tag_31:\n      mload(0x40)\n      dup1\n      swap2\n      sub\n      swap1\n      return\n        /* \"lottery.sol\":123:155  address payable[] public players */\n    tag_7:\n      callvalue\n      dup1\n      iszero\n      tag_32\n      jumpi\n      0x00\n      dup1\n      revert\n    tag_32:\n      pop\n      tag_33\n      0x04\n      dup1\n      calldatasize\n      sub\n      dup2\n      add\n      swap1\n      tag_34\n      swap2\n      swap1\n      tag_35\n      jump\t// in\n    tag_34:\n      tag_36\n      jump\t// in\n    tag_33:\n      mload(0x40)\n      tag_37\n      swap2\n      swap1\n      tag_38\n      jump\t// in\n    tag_37:\n      mload(0x40)\n      dup1\n      swap2\n      sub\n      swap1\n      return\n        /* \"lottery.sol\":523:716  function randon() public view returns(uint){... */\n    tag_16:\n        /* \"lottery.sol\":561:565  uint */\n      0x00\n        /* \"lottery.sol\":650:665  block.timestamp */\n      timestamp\n        /* \"lottery.sol\":666:682  block.difficulty */\n      prevrandao\n        /* \"lottery.sol\":695:705  msg.sender */\n      caller\n        /* \"lottery.sol\":633:706  abi.encodePacked(block.timestamp,block.difficulty,  ... */\n      add(0x20, mload(0x40))\n      tag_40\n      swap4\n      swap3\n      swap2\n      swap1\n      tag_41\n      jump\t// in\n    tag_40:\n      mload(0x40)\n      0x20\n      dup2\n      dup4\n      sub\n      sub\n      dup2\n      mstore\n      swap1\n      0x40\n      mstore\n        /* \"lottery.sol\":623:707  keccak256(abi.encodePacked(block.timestamp,block.difficulty,  ... */\n      dup1\n      mload\n      swap1\n      0x20\n      add\n      keccak256\n        /* \"lottery.sol\":618:708  uint(keccak256(abi.encodePacked(block.timestamp,block.difficulty,  ... */\n      0x00\n      shr\n        /* \"lottery.sol\":611:708  return uint(keccak256(abi.encodePacked(block.timestamp,block.difficulty,  ... */\n      swap1\n      pop\n        /* \"lottery.sol\":523:716  function randon() public view returns(uint){... */\n      swap1\n      jump\t// out\n        /* \"lottery.sol\":96:116  address public owner */\n    tag_21:\n      0x00\n      dup1\n      sload\n      swap1\n      0x0100\n      exp\n      swap1\n      div\n      0xffffffffffffffffffffffffffffffffffffffff\n      and\n      dup2\n      jump\t// out\n        /* \"lottery.sol\":363:515  function balance() public view returns(uint){... */\n    tag_26:\n        /* \"lottery.sol\":402:406  uint */\n      0x00\n        /* \"lottery.sol\":438:443  owner */\n      dup1\n      0x00\n      swap1\n      sload\n      swap1\n      0x0100\n      exp\n      swap1\n      div\n      0xffffffffffffffffffffffffffffffffffffffff\n      and\n        /* \"lottery.sol\":426:443  msg.sender==owner */\n      0xffffffffffffffffffffffffffffffffffffffff\n      and\n        /* \"lottery.sol\":426:436  msg.sender */\n      caller\n        /* \"lottery.sol\":426:443  msg.sender==owner */\n      0xffffffffffffffffffffffffffffffffffffffff\n      and\n      eq\n        /* \"lottery.sol\":418:468  require(msg.sender==owner,\"You are not the owner\") */\n      tag_43\n      jumpi\n      mload(0x40)\n      0x08c379a000000000000000000000000000000000000000000000000000000000\n      dup2\n      mstore\n      0x04\n      add\n      tag_44\n      swap1\n      tag_45\n      jump\t// in\n    tag_44:\n      mload(0x40)\n      dup1\n      swap2\n      sub\n      swap1\n      revert\n    tag_43:\n        /* \"lottery.sol\":486:507  address(this).balance */\n      selfbalance\n        /* \"lottery.sol\":479:507  return address(this).balance */\n      swap1\n      pop\n        /* \"lottery.sol\":363:515  function balance() public view returns(uint){... */\n      swap1\n      jump\t// out\n        /* \"lottery.sol\":722:1051  function winner() public view returns(address) {... */\n    tag_30:\n        /* \"lottery.sol\":760:767  address */\n      0x00\n        /* \"lottery.sol\":780:786  uint r */\n      dup1\n        /* \"lottery.sol\":787:795  randon() */\n      tag_47\n        /* \"lottery.sol\":787:793  randon */\n      tag_16\n        /* \"lottery.sol\":787:795  randon() */\n      jump\t// in\n    tag_47:\n        /* \"lottery.sol\":780:795  uint r=randon() */\n      swap1\n      pop\n        /* \"lottery.sol\":806:816  uint index */\n      0x00\n        /* \"lottery.sol\":819:826  players */\n      0x01\n        /* \"lottery.sol\":819:833  players.length */\n      dup1\n      sload\n      swap1\n      pop\n        /* \"lottery.sol\":817:818  r */\n      dup3\n        /* \"lottery.sol\":817:833  r%players.length */\n      tag_48\n      swap2\n      swap1\n      tag_49\n      jump\t// in\n    tag_48:\n        /* \"lottery.sol\":806:833  uint index=r%players.length */\n      swap1\n      pop\n        /* \"lottery.sol\":868:869  3 */\n      0x03\n        /* \"lottery.sol\":852:859  players */\n      0x01\n        /* \"lottery.sol\":852:866  players.length */\n      dup1\n      sload\n      swap1\n      pop\n        /* \"lottery.sol\":852:869  players.length>=3 */\n      lt\n      iszero\n        /* \"lottery.sol\":844:888  require(players.length>=3,\"limited players\") */\n      tag_50\n      jumpi\n      mload(0x40)\n      0x08c379a000000000000000000000000000000000000000000000000000000000\n      dup2\n      mstore\n      0x04\n      add\n      tag_51\n      swap1\n      tag_52\n      jump\t// in\n    tag_51:\n      mload(0x40)\n      dup1\n      swap2\n      sub\n      swap1\n      revert\n    tag_50:\n        /* \"lottery.sol\":899:927  address payable winnerplayer */\n      0x00\n        /* \"lottery.sol\":952:959  players */\n      0x01\n        /* \"lottery.sol\":960:965  index */\n      dup3\n        /* \"lottery.sol\":952:966  players[index] */\n      dup2\n      sload\n      dup2\n      lt\n      tag_53\n      jumpi\n      tag_54\n      tag_55\n      jump\t// in\n    tag_54:\n    tag_53:\n      swap1\n      0x00\n      mstore\n      keccak256(0x00, 0x20)\n      add\n      0x00\n      swap1\n      sload\n      swap1\n      0x0100\n      exp\n      swap1\n      div\n      0xffffffffffffffffffffffffffffffffffffffff\n      and\n        /* \"lottery.sol\":938:966  winnerplayer= players[index] */\n      swap1\n      pop\n        /* \"lottery.sol\":1031:1043  winnerplayer */\n      dup1\n        /* \"lottery.sol\":1024:1043  return winnerplayer */\n      swap4\n      pop\n      pop\n      pop\n      pop\n        /* \"lottery.sol\":722:1051  function winner() public view returns(address) {... */\n      swap1\n      jump\t// out\n        /* \"lottery.sol\":123:155  address payable[] public players */\n    tag_36:\n      0x01\n      dup2\n      dup2\n      sload\n      dup2\n      lt\n      tag_57\n      jumpi\n      0x00\n      dup1\n      revert\n    tag_57:\n      swap1\n      0x00\n      mstore\n      keccak256(0x00, 0x20)\n      add\n      0x00\n      swap2\n      pop\n      sload\n      swap1\n      0x0100\n      exp\n      swap1\n      div\n      0xffffffffffffffffffffffffffffffffffffffff\n      and\n      dup2\n      jump\t// out\n        /* \"#utility.yul\":7:176   */\n    tag_59:\n        /* \"#utility.yul\":91:102   */\n      0x00\n        /* \"#utility.yul\":125:131   */\n      dup3\n        /* \"#utility.yul\":120:123   */\n      dup3\n        /* \"#utility.yul\":113:132   */\n      mstore\n        /* \"#utility.yul\":165:169   */\n      0x20\n        /* \"#utility.yul\":160:163   */\n      dup3\n        /* \"#utility.yul\":156:170   */\n      add\n        /* \"#utility.yul\":141:170   */\n      swap1\n      pop\n        /* \"#utility.yul\":7:176   */\n      swap3\n      swap2\n      pop\n      pop\n      jump\t// out\n        /* \"#utility.yul\":182:346   */\n    tag_60:\n        /* \"#utility.yul\":322:338   */\n      0x696e76616c696420616d6f756e74000000000000000000000000000000000000\n        /* \"#utility.yul\":318:319   */\n      0x00\n        /* \"#utility.yul\":310:316   */\n      dup3\n        /* \"#utility.yul\":306:320   */\n      add\n        /* \"#utility.yul\":299:339   */\n      mstore\n        /* \"#utility.yul\":182:346   */\n      pop\n      jump\t// out\n        /* \"#utility.yul\":352:718   */\n    tag_61:\n        /* \"#utility.yul\":494:497   */\n      0x00\n        /* \"#utility.yul\":515:582   */\n      tag_89\n        /* \"#utility.yul\":579:581   */\n      0x0e\n        /* \"#utility.yul\":574:577   */\n      dup4\n        /* \"#utility.yul\":515:582   */\n      tag_59\n      jump\t// in\n    tag_89:\n        /* \"#utility.yul\":508:582   */\n      swap2\n      pop\n        /* \"#utility.yul\":591:684   */\n      tag_90\n        /* \"#utility.yul\":680:683   */\n      dup3\n        /* \"#utility.yul\":591:684   */\n      tag_60\n      jump\t// in\n    tag_90:\n        /* \"#utility.yul\":709:711   */\n      0x20\n        /* \"#utility.yul\":704:707   */\n      dup3\n        /* \"#utility.yul\":700:712   */\n      add\n        /* \"#utility.yul\":693:712   */\n      swap1\n      pop\n        /* \"#utility.yul\":352:718   */\n      swap2\n      swap1\n      pop\n      jump\t// out\n        /* \"#utility.yul\":724:1143   */\n    tag_12:\n        /* \"#utility.yul\":890:894   */\n      0x00\n        /* \"#utility.yul\":928:930   */\n      0x20\n        /* \"#utility.yul\":917:926   */\n      dup3\n        /* \"#utility.yul\":913:931   */\n      add\n        /* \"#utility.yul\":905:931   */\n      swap1\n      pop\n        /* \"#utility.yul\":977:986   */\n      dup2\n        /* \"#utility.yul\":971:975   */\n      dup2\n        /* \"#utility.yul\":967:987   */\n      sub\n        /* \"#utility.yul\":963:964   */\n      0x00\n        /* \"#utility.yul\":952:961   */\n      dup4\n        /* \"#utility.yul\":948:965   */\n      add\n        /* \"#utility.yul\":941:988   */\n      mstore\n        /* \"#utility.yul\":1005:1136   */\n      tag_92\n        /* \"#utility.yul\":1131:1135   */\n      dup2\n        /* \"#utility.yul\":1005:1136   */\n      tag_61\n      jump\t// in\n    tag_92:\n        /* \"#utility.yul\":997:1136   */\n      swap1\n      pop\n        /* \"#utility.yul\":724:1143   */\n      swap2\n      swap1\n      pop\n      jump\t// out\n        /* \"#utility.yul\":1149:1226   */\n    tag_62:\n        /* \"#utility.yul\":1186:1193   */\n      0x00\n        /* \"#utility.yul\":1215:1220   */\n      dup2\n        /* \"#utility.yul\":1204:1220   */\n      swap1\n      pop\n        /* \"#utility.yul\":1149:1226   */\n      swap2\n      swap1\n      pop\n      jump\t// out\n        /* \"#utility.yul\":1232:1350   */\n    tag_63:\n        /* \"#utility.yul\":1319:1343   */\n      tag_95\n        /* \"#utility.yul\":1337:1342   */\n      dup2\n        /* \"#utility.yul\":1319:1343   */\n      tag_62\n      jump\t// in\n    tag_95:\n        /* \"#utility.yul\":1314:1317   */\n      dup3\n        /* \"#utility.yul\":1307:1344   */\n      mstore\n        /* \"#utility.yul\":1232:1350   */\n      pop\n      pop\n      jump\t// out\n        /* \"#utility.yul\":1356:1578   */\n    tag_18:\n        /* \"#utility.yul\":1449:1453   */\n      0x00\n        /* \"#utility.yul\":1487:1489   */\n      0x20\n        /* \"#utility.yul\":1476:1485   */\n      dup3\n        /* \"#utility.yul\":1472:1490   */\n      add\n        /* \"#utility.yul\":1464:1490   */\n      swap1\n      pop\n        /* \"#utility.yul\":1500:1571   */\n      tag_97\n        /* \"#utility.yul\":1568:1569   */\n      0x00\n        /* \"#utility.yul\":1557:1566   */\n      dup4\n        /* \"#utility.yul\":1553:1570   */\n      add\n        /* \"#utility.yul\":1544:1550   */\n      dup5\n        /* \"#utility.yul\":1500:1571   */\n      tag_63\n      jump\t// in\n    tag_97:\n        /* \"#utility.yul\":1356:1578   */\n      swap3\n      swap2\n      pop\n      pop\n      jump\t// out\n        /* \"#utility.yul\":1584:1710   */\n    tag_64:\n        /* \"#utility.yul\":1621:1628   */\n      0x00\n        /* \"#utility.yul\":1661:1703   */\n      0xffffffffffffffffffffffffffffffffffffffff\n        /* \"#utility.yul\":1654:1659   */\n      dup3\n        /* \"#utility.yul\":1650:1704   */\n      and\n        /* \"#utility.yul\":1639:1704   */\n      swap1\n      pop\n        /* \"#utility.yul\":1584:1710   */\n      swap2\n      swap1\n      pop\n      jump\t// out\n        /* \"#utility.yul\":1716:1812   */\n    tag_65:\n        /* \"#utility.yul\":1753:1760   */\n      0x00\n        /* \"#utility.yul\":1782:1806   */\n      tag_100\n        /* \"#utility.yul\":1800:1805   */\n      dup3\n        /* \"#utility.yul\":1782:1806   */\n      tag_64\n      jump\t// in\n    tag_100:\n        /* \"#utility.yul\":1771:1806   */\n      swap1\n      pop\n        /* \"#utility.yul\":1716:1812   */\n      swap2\n      swap1\n      pop\n      jump\t// out\n        /* \"#utility.yul\":1818:1936   */\n    tag_66:\n        /* \"#utility.yul\":1905:1929   */\n      tag_102\n        /* \"#utility.yul\":1923:1928   */\n      dup2\n        /* \"#utility.yul\":1905:1929   */\n      tag_65\n      jump\t// in\n    tag_102:\n        /* \"#utility.yul\":1900:1903   */\n      dup3\n        /* \"#utility.yul\":1893:1930   */\n      mstore\n        /* \"#utility.yul\":1818:1936   */\n      pop\n      pop\n      jump\t// out\n        /* \"#utility.yul\":1942:2164   */\n    tag_23:\n        /* \"#utility.yul\":2035:2039   */\n      0x00\n        /* \"#utility.yul\":2073:2075   */\n      0x20\n        /* \"#utility.yul\":2062:2071   */\n      dup3\n        /* \"#utility.yul\":2058:2076   */\n      add\n        /* \"#utility.yul\":2050:2076   */\n      swap1\n      pop\n        /* \"#utility.yul\":2086:2157   */\n      tag_104\n        /* \"#utility.yul\":2154:2155   */\n      0x00\n        /* \"#utility.yul\":2143:2152   */\n      dup4\n        /* \"#utility.yul\":2139:2156   */\n      add\n        /* \"#utility.yul\":2130:2136   */\n      dup5\n        /* \"#utility.yul\":2086:2157   */\n      tag_66\n      jump\t// in\n    tag_104:\n        /* \"#utility.yul\":1942:2164   */\n      swap3\n      swap2\n      pop\n      pop\n      jump\t// out\n        /* \"#utility.yul\":2251:2368   */\n    tag_68:\n        /* \"#utility.yul\":2360:2361   */\n      0x00\n        /* \"#utility.yul\":2357:2358   */\n      dup1\n        /* \"#utility.yul\":2350:2362   */\n      revert\n        /* \"#utility.yul\":2497:2619   */\n    tag_70:\n        /* \"#utility.yul\":2570:2594   */\n      tag_109\n        /* \"#utility.yul\":2588:2593   */\n      dup2\n        /* \"#utility.yul\":2570:2594   */\n      tag_62\n      jump\t// in\n    tag_109:\n        /* \"#utility.yul\":2563:2568   */\n      dup2\n        /* \"#utility.yul\":2560:2595   */\n      eq\n        /* \"#utility.yul\":2550:2613   */\n      tag_110\n      jumpi\n        /* \"#utility.yul\":2609:2610   */\n      0x00\n        /* \"#utility.yul\":2606:2607   */\n      dup1\n        /* \"#utility.yul\":2599:2611   */\n      revert\n        /* \"#utility.yul\":2550:2613   */\n    tag_110:\n        /* \"#utility.yul\":2497:2619   */\n      pop\n      jump\t// out\n        /* \"#utility.yul\":2625:2764   */\n    tag_71:\n        /* \"#utility.yul\":2671:2676   */\n      0x00\n        /* \"#utility.yul\":2709:2715   */\n      dup2\n        /* \"#utility.yul\":2696:2716   */\n      calldataload\n        /* \"#utility.yul\":2687:2716   */\n      swap1\n      pop\n        /* \"#utility.yul\":2725:2758   */\n      tag_112\n        /* \"#utility.yul\":2752:2757   */\n      dup2\n        /* \"#utility.yul\":2725:2758   */\n      tag_70\n      jump\t// in\n    tag_112:\n        /* \"#utility.yul\":2625:2764   */\n      swap3\n      swap2\n      pop\n      pop\n      jump\t// out\n        /* \"#utility.yul\":2770:3099   */\n    tag_35:\n        /* \"#utility.yul\":2829:2835   */\n      0x00\n        /* \"#utility.yul\":2878:2880   */\n      0x20\n        /* \"#utility.yul\":2866:2875   */\n      dup3\n        /* \"#utility.yul\":2857:2864   */\n      dup5\n        /* \"#utility.yul\":2853:2876   */\n      sub\n        /* \"#utility.yul\":2849:2881   */\n      slt\n        /* \"#utility.yul\":2846:2965   */\n      iszero\n      tag_114\n      jumpi\n        /* \"#utility.yul\":2884:2963   */\n      tag_115\n      tag_68\n      jump\t// in\n    tag_115:\n        /* \"#utility.yul\":2846:2965   */\n    tag_114:\n        /* \"#utility.yul\":3004:3005   */\n      0x00\n        /* \"#utility.yul\":3029:3082   */\n      tag_116\n        /* \"#utility.yul\":3074:3081   */\n      dup5\n        /* \"#utility.yul\":3065:3071   */\n      dup3\n        /* \"#utility.yul\":3054:3063   */\n      dup6\n        /* \"#utility.yul\":3050:3072   */\n      add\n        /* \"#utility.yul\":3029:3082   */\n      tag_71\n      jump\t// in\n    tag_116:\n        /* \"#utility.yul\":3019:3082   */\n      swap2\n      pop\n        /* \"#utility.yul\":2975:3092   */\n      pop\n        /* \"#utility.yul\":2770:3099   */\n      swap3\n      swap2\n      pop\n      pop\n      jump\t// out\n        /* \"#utility.yul\":3105:3209   */\n    tag_72:\n        /* \"#utility.yul\":3150:3157   */\n      0x00\n        /* \"#utility.yul\":3179:3203   */\n      tag_118\n        /* \"#utility.yul\":3197:3202   */\n      dup3\n        /* \"#utility.yul\":3179:3203   */\n      tag_64\n      jump\t// in\n    tag_118:\n        /* \"#utility.yul\":3168:3203   */\n      swap1\n      pop\n        /* \"#utility.yul\":3105:3209   */\n      swap2\n      swap1\n      pop\n      jump\t// out\n        /* \"#utility.yul\":3215:3357   */\n    tag_73:\n        /* \"#utility.yul\":3318:3350   */\n      tag_120\n        /* \"#utility.yul\":3344:3349   */\n      dup2\n        /* \"#utility.yul\":3318:3350   */\n      tag_72\n      jump\t// in\n    tag_120:\n        /* \"#utility.yul\":3313:3316   */\n      dup3\n        /* \"#utility.yul\":3306:3351   */\n      mstore\n        /* \"#utility.yul\":3215:3357   */\n      pop\n      pop\n      jump\t// out\n        /* \"#utility.yul\":3363:3617   */\n    tag_38:\n        /* \"#utility.yul\":3472:3476   */\n      0x00\n        /* \"#utility.yul\":3510:3512   */\n      0x20\n        /* \"#utility.yul\":3499:3508   */\n      dup3\n        /* \"#utility.yul\":3495:3513   */\n      add\n        /* \"#utility.yul\":3487:3513   */\n      swap1\n      pop\n        /* \"#utility.yul\":3523:3610   */\n      tag_122\n        /* \"#utility.yul\":3607:3608   */\n      0x00\n        /* \"#utility.yul\":3596:3605   */\n      dup4\n        /* \"#utility.yul\":3592:3609   */\n      add\n        /* \"#utility.yul\":3583:3589   */\n      dup5\n        /* \"#utility.yul\":3523:3610   */\n      tag_73\n      jump\t// in\n    tag_122:\n        /* \"#utility.yul\":3363:3617   */\n      swap3\n      swap2\n      pop\n      pop\n      jump\t// out\n        /* \"#utility.yul\":3623:3702   */\n    tag_74:\n        /* \"#utility.yul\":3662:3669   */\n      0x00\n        /* \"#utility.yul\":3691:3696   */\n      dup2\n        /* \"#utility.yul\":3680:3696   */\n      swap1\n      pop\n        /* \"#utility.yul\":3623:3702   */\n      swap2\n      swap1\n      pop\n      jump\t// out\n        /* \"#utility.yul\":3708:3865   */\n    tag_75:\n        /* \"#utility.yul\":3813:3858   */\n      tag_125\n        /* \"#utility.yul\":3833:3857   */\n      tag_126\n        /* \"#utility.yul\":3851:3856   */\n      dup3\n        /* \"#utility.yul\":3833:3857   */\n      tag_62\n      jump\t// in\n    tag_126:\n        /* \"#utility.yul\":3813:3858   */\n      tag_74\n      jump\t// in\n    tag_125:\n        /* \"#utility.yul\":3808:3811   */\n      dup3\n        /* \"#utility.yul\":3801:3859   */\n      mstore\n        /* \"#utility.yul\":3708:3865   */\n      pop\n      pop\n      jump\t// out\n        /* \"#utility.yul\":3871:3965   */\n    tag_76:\n        /* \"#utility.yul\":3904:3912   */\n      0x00\n        /* \"#utility.yul\":3952:3957   */\n      dup2\n        /* \"#utility.yul\":3948:3950   */\n      0x60\n        /* \"#utility.yul\":3944:3958   */\n      shl\n        /* \"#utility.yul\":3923:3958   */\n      swap1\n      pop\n        /* \"#utility.yul\":3871:3965   */\n      swap2\n      swap1\n      pop\n      jump\t// out\n        /* \"#utility.yul\":3971:4065   */\n    tag_77:\n        /* \"#utility.yul\":4010:4017   */\n      0x00\n        /* \"#utility.yul\":4039:4059   */\n      tag_129\n        /* \"#utility.yul\":4053:4058   */\n      dup3\n        /* \"#utility.yul\":4039:4059   */\n      tag_76\n      jump\t// in\n    tag_129:\n        /* \"#utility.yul\":4028:4059   */\n      swap1\n      pop\n        /* \"#utility.yul\":3971:4065   */\n      swap2\n      swap1\n      pop\n      jump\t// out\n        /* \"#utility.yul\":4071:4171   */\n    tag_78:\n        /* \"#utility.yul\":4110:4117   */\n      0x00\n        /* \"#utility.yul\":4139:4165   */\n      tag_131\n        /* \"#utility.yul\":4159:4164   */\n      dup3\n        /* \"#utility.yul\":4139:4165   */\n      tag_77\n      jump\t// in\n    tag_131:\n        /* \"#utility.yul\":4128:4165   */\n      swap1\n      pop\n        /* \"#utility.yul\":4071:4171   */\n      swap2\n      swap1\n      pop\n      jump\t// out\n        /* \"#utility.yul\":4177:4334   */\n    tag_79:\n        /* \"#utility.yul\":4282:4327   */\n      tag_133\n        /* \"#utility.yul\":4302:4326   */\n      tag_134\n        /* \"#utility.yul\":4320:4325   */\n      dup3\n        /* \"#utility.yul\":4302:4326   */\n      tag_65\n      jump\t// in\n    tag_134:\n        /* \"#utility.yul\":4282:4327   */\n      tag_78\n      jump\t// in\n    tag_133:\n        /* \"#utility.yul\":4277:4280   */\n      dup3\n        /* \"#utility.yul\":4270:4328   */\n      mstore\n        /* \"#utility.yul\":4177:4334   */\n      pop\n      pop\n      jump\t// out\n        /* \"#utility.yul\":4340:4878   */\n    tag_41:\n        /* \"#utility.yul\":4508:4511   */\n      0x00\n        /* \"#utility.yul\":4523:4598   */\n      tag_136\n        /* \"#utility.yul\":4594:4597   */\n      dup3\n        /* \"#utility.yul\":4585:4591   */\n      dup7\n        /* \"#utility.yul\":4523:4598   */\n      tag_75\n      jump\t// in\n    tag_136:\n        /* \"#utility.yul\":4623:4625   */\n      0x20\n        /* \"#utility.yul\":4618:4621   */\n      dup3\n        /* \"#utility.yul\":4614:4626   */\n      add\n        /* \"#utility.yul\":4607:4626   */\n      swap2\n      pop\n        /* \"#utility.yul\":4636:4711   */\n      tag_137\n        /* \"#utility.yul\":4707:4710   */\n      dup3\n        /* \"#utility.yul\":4698:4704   */\n      dup6\n        /* \"#utility.yul\":4636:4711   */\n      tag_75\n      jump\t// in\n    tag_137:\n        /* \"#utility.yul\":4736:4738   */\n      0x20\n        /* \"#utility.yul\":4731:4734   */\n      dup3\n        /* \"#utility.yul\":4727:4739   */\n      add\n        /* \"#utility.yul\":4720:4739   */\n      swap2\n      pop\n        /* \"#utility.yul\":4749:4824   */\n      tag_138\n        /* \"#utility.yul\":4820:4823   */\n      dup3\n        /* \"#utility.yul\":4811:4817   */\n      dup5\n        /* \"#utility.yul\":4749:4824   */\n      tag_79\n      jump\t// in\n    tag_138:\n        /* \"#utility.yul\":4849:4851   */\n      0x14\n        /* \"#utility.yul\":4844:4847   */\n      dup3\n        /* \"#utility.yul\":4840:4852   */\n      add\n        /* \"#utility.yul\":4833:4852   */\n      swap2\n      pop\n        /* \"#utility.yul\":4869:4872   */\n      dup2\n        /* \"#utility.yul\":4862:4872   */\n      swap1\n      pop\n        /* \"#utility.yul\":4340:4878   */\n      swap5\n      swap4\n      pop\n      pop\n      pop\n      pop\n      jump\t// out\n        /* \"#utility.yul\":4884:5055   */\n    tag_80:\n        /* \"#utility.yul\":5024:5047   */\n      0x596f7520617265206e6f7420746865206f776e65720000000000000000000000\n        /* \"#utility.yul\":5020:5021   */\n      0x00\n        /* \"#utility.yul\":5012:5018   */\n      dup3\n        /* \"#utility.yul\":5008:5022   */\n      add\n        /* \"#utility.yul\":5001:5048   */\n      mstore\n        /* \"#utility.yul\":4884:5055   */\n      pop\n      jump\t// out\n        /* \"#utility.yul\":5061:5427   */\n    tag_81:\n        /* \"#utility.yul\":5203:5206   */\n      0x00\n        /* \"#utility.yul\":5224:5291   */\n      tag_141\n        /* \"#utility.yul\":5288:5290   */\n      0x15\n        /* \"#utility.yul\":5283:5286   */\n      dup4\n        /* \"#utility.yul\":5224:5291   */\n      tag_59\n      jump\t// in\n    tag_141:\n        /* \"#utility.yul\":5217:5291   */\n      swap2\n      pop\n        /* \"#utility.yul\":5300:5393   */\n      tag_142\n        /* \"#utility.yul\":5389:5392   */\n      dup3\n        /* \"#utility.yul\":5300:5393   */\n      tag_80\n      jump\t// in\n    tag_142:\n        /* \"#utility.yul\":5418:5420   */\n      0x20\n        /* \"#utility.yul\":5413:5416   */\n      dup3\n        /* \"#utility.yul\":5409:5421   */\n      add\n        /* \"#utility.yul\":5402:5421   */\n      swap1\n      pop\n        /* \"#utility.yul\":5061:5427   */\n      swap2\n      swap1\n      pop\n      jump\t// out\n        /* \"#utility.yul\":5433:5852   */\n    tag_45:\n        /* \"#utility.yul\":5599:5603   */\n      0x00\n        /* \"#utility.yul\":5637:5639   */\n      0x20\n        /* \"#utility.yul\":5626:5635   */\n      dup3\n        /* \"#utility.yul\":5622:5640   */\n      add\n        /* \"#utility.yul\":5614:5640   */\n      swap1\n      pop\n        /* \"#utility.yul\":5686:5695   */\n      dup2\n        /* \"#utility.yul\":5680:5684   */\n      dup2\n        /* \"#utility.yul\":5676:5696   */\n      sub\n        /* \"#utility.yul\":5672:5673   */\n      0x00\n        /* \"#utility.yul\":5661:5670   */\n      dup4\n        /* \"#utility.yul\":5657:5674   */\n      add\n        /* \"#utility.yul\":5650:5697   */\n      mstore\n        /* \"#utility.yul\":5714:5845   */\n      tag_144\n        /* \"#utility.yul\":5840:5844   */\n      dup2\n        /* \"#utility.yul\":5714:5845   */\n      tag_81\n      jump\t// in\n    tag_144:\n        /* \"#utility.yul\":5706:5845   */\n      swap1\n      pop\n        /* \"#utility.yul\":5433:5852   */\n      swap2\n      swap1\n      pop\n      jump\t// out\n        /* \"#utility.yul\":5858:6038   */\n    tag_82:\n        /* \"#utility.yul\":5906:5983   */\n      0x4e487b7100000000000000000000000000000000000000000000000000000000\n        /* \"#utility.yul\":5903:5904   */\n      0x00\n        /* \"#utility.yul\":5896:5984   */\n      mstore\n        /* \"#utility.yul\":6003:6007   */\n      0x12\n        /* \"#utility.yul\":6000:6001   */\n      0x04\n        /* \"#utility.yul\":5993:6008   */\n      mstore\n        /* \"#utility.yul\":6027:6031   */\n      0x24\n        /* \"#utility.yul\":6024:6025   */\n      0x00\n        /* \"#utility.yul\":6017:6032   */\n      revert\n        /* \"#utility.yul\":6044:6220   */\n    tag_49:\n        /* \"#utility.yul\":6076:6077   */\n      0x00\n        /* \"#utility.yul\":6093:6113   */\n      tag_147\n        /* \"#utility.yul\":6111:6112   */\n      dup3\n        /* \"#utility.yul\":6093:6113   */\n      tag_62\n      jump\t// in\n    tag_147:\n        /* \"#utility.yul\":6088:6113   */\n      swap2\n      pop\n        /* \"#utility.yul\":6127:6147   */\n      tag_148\n        /* \"#utility.yul\":6145:6146   */\n      dup4\n        /* \"#utility.yul\":6127:6147   */\n      tag_62\n      jump\t// in\n    tag_148:\n        /* \"#utility.yul\":6122:6147   */\n      swap3\n      pop\n        /* \"#utility.yul\":6166:6167   */\n      dup3\n        /* \"#utility.yul\":6156:6191   */\n      tag_149\n      jumpi\n        /* \"#utility.yul\":6171:6189   */\n      tag_150\n      tag_82\n      jump\t// in\n    tag_150:\n        /* \"#utility.yul\":6156:6191   */\n    tag_149:\n        /* \"#utility.yul\":6212:6213   */\n      dup3\n        /* \"#utility.yul\":6209:6210   */\n      dup3\n        /* \"#utility.yul\":6205:6214   */\n      mod\n        /* \"#utility.yul\":6200:6214   */\n      swap1\n      pop\n        /* \"#utility.yul\":6044:6220   */\n      swap3\n      swap2\n      pop\n      pop\n      jump\t// out\n        /* \"#utility.yul\":6226:6391   */\n    tag_83:\n        /* \"#utility.yul\":6366:6383   */\n      0x6c696d6974656420706c61796572730000000000000000000000000000000000\n        /* \"#utility.yul\":6362:6363   */\n      0x00\n        /* \"#utility.yul\":6354:6360   */\n      dup3\n        /* \"#utility.yul\":6350:6364   */\n      add\n        /* \"#utility.yul\":6343:6384   */\n      mstore\n        /* \"#utility.yul\":6226:6391   */\n      pop\n      jump\t// out\n        /* \"#utility.yul\":6397:6763   */\n    tag_84:\n        /* \"#utility.yul\":6539:6542   */\n      0x00\n        /* \"#utility.yul\":6560:6627   */\n      tag_153\n        /* \"#utility.yul\":6624:6626   */\n      0x0f\n        /* \"#utility.yul\":6619:6622   */\n      dup4\n        /* \"#utility.yul\":6560:6627   */\n      tag_59\n      jump\t// in\n    tag_153:\n        /* \"#utility.yul\":6553:6627   */\n      swap2\n      pop\n        /* \"#utility.yul\":6636:6729   */\n      tag_154\n        /* \"#utility.yul\":6725:6728   */\n      dup3\n        /* \"#utility.yul\":6636:6729   */\n      tag_83\n      jump\t// in\n    tag_154:\n        /* \"#utility.yul\":6754:6756   */\n      0x20\n        /* \"#utility.yul\":6749:6752   */\n      dup3\n        /* \"#utility.yul\":6745:6757   */\n      add\n        /* \"#utility.yul\":6738:6757   */\n      swap1\n      pop\n        /* \"#utility.yul\":6397:6763   */\n      swap2\n      swap1\n      pop\n      jump\t// out\n        /* \"#utility.yul\":6769:7188   */\n    tag_52:\n        /* \"#utility.yul\":6935:6939   */\n      0x00\n        /* \"#utility.yul\":6973:6975   */\n      0x20\n        /* \"#utility.yul\":6962:6971   */\n      dup3\n        /* \"#utility.yul\":6958:6976   */\n      add\n        /* \"#utility.yul\":6950:6976   */\n      swap1\n      pop\n        /* \"#utility.yul\":7022:7031   */\n      dup2\n        /* \"#utility.yul\":7016:7020   */\n      dup2\n        /* \"#utility.yul\":7012:7032   */\n      sub\n        /* \"#utility.yul\":7008:7009   */\n      0x00\n        /* \"#utility.yul\":6997:7006   */\n      dup4\n        /* \"#utility.yul\":6993:7010   */\n      add\n        /* \"#utility.yul\":6986:7033   */\n      mstore\n        /* \"#utility.yul\":7050:7181   */\n      tag_156\n        /* \"#utility.yul\":7176:7180   */\n      dup2\n        /* \"#utility.yul\":7050:7181   */\n      tag_84\n      jump\t// in\n    tag_156:\n        /* \"#utility.yul\":7042:7181   */\n      swap1\n      pop\n        /* \"#utility.yul\":6769:7188   */\n      swap2\n      swap1\n      pop\n      jump\t// out\n        /* \"#utility.yul\":7194:7374   */\n    tag_55:\n        /* \"#utility.yul\":7242:7319   */\n      0x4e487b7100000000000000000000000000000000000000000000000000000000\n        /* \"#utility.yul\":7239:7240   */\n      0x00\n        /* \"#utility.yul\":7232:7320   */\n      mstore\n        /* \"#utility.yul\":7339:7343   */\n      0x32\n        /* \"#utility.yul\":7336:7337   */\n      0x04\n        /* \"#utility.yul\":7329:7344   */\n      mstore\n        /* \"#utility.yul\":7363:7367   */\n      0x24\n        /* \"#utility.yul\":7360:7361   */\n      0x00\n        /* \"#utility.yul\":7353:7368   */\n      revert\n\n    auxdata: 0xa2646970667358221220590476d90bb8f994b3b12862247d2ae3cccd7e0d36959e393099ef2e79cf374b64736f6c63430008120033\n}\n",
				"bytecode": {
					"linkReferences": {},
					"object": "608060405234801561001057600080fd5b50336000806101000a81548173ffffffffffffffffffffffffffffffffffffffff021916908373ffffffffffffffffffffffffffffffffffffffff1602179055506107bf806100606000396000f3fe60806040526004361061004e5760003560e01c80634be1ebf7146101065780638da5cb5b14610131578063b69ef8a81461015c578063dfbf53ae14610187578063f71d96cb146101b257610101565b3661010157671bc16d674ec80000341461009d576040517f08c379a000000000000000000000000000000000000000000000000000000000815260040161009490610432565b60405180910390fd5b6001339080600181540180825580915050600190039060005260206000200160009091909190916101000a81548173ffffffffffffffffffffffffffffffffffffffff021916908373ffffffffffffffffffffffffffffffffffffffff1602179055005b600080fd5b34801561011257600080fd5b5061011b6101ef565b604051610128919061046b565b60405180910390f35b34801561013d57600080fd5b50610146610224565b60405161015391906104c7565b60405180910390f35b34801561016857600080fd5b50610171610248565b60405161017e919061046b565b60405180910390f35b34801561019357600080fd5b5061019c6102df565b6040516101a991906104c7565b60405180910390f35b3480156101be57600080fd5b506101d960048036038101906101d49190610513565b610396565b6040516101e69190610561565b60405180910390f35b6000424433604051602001610206939291906105e5565b6040516020818303038152906040528051906020012060001c905090565b60008054906101000a900473ffffffffffffffffffffffffffffffffffffffff1681565b60008060009054906101000a900473ffffffffffffffffffffffffffffffffffffffff1673ffffffffffffffffffffffffffffffffffffffff163373ffffffffffffffffffffffffffffffffffffffff16146102d9576040517f08c379a00000000000000000000000000000000000000000000000000000000081526004016102d09061066e565b60405180910390fd5b47905090565b6000806102ea6101ef565b90506000600180549050826102ff91906106bd565b90506003600180549050101561034a576040517f08c379a00000000000000000000000000000000000000000000000000000000081526004016103419061073a565b60405180910390fd5b6000600182815481106103605761035f61075a565b5b9060005260206000200160009054906101000a900473ffffffffffffffffffffffffffffffffffffffff16905080935050505090565b600181815481106103a657600080fd5b906000526020600020016000915054906101000a900473ffffffffffffffffffffffffffffffffffffffff1681565b600082825260208201905092915050565b7f696e76616c696420616d6f756e74000000000000000000000000000000000000600082015250565b600061041c600e836103d5565b9150610427826103e6565b602082019050919050565b6000602082019050818103600083015261044b8161040f565b9050919050565b6000819050919050565b61046581610452565b82525050565b6000602082019050610480600083018461045c565b92915050565b600073ffffffffffffffffffffffffffffffffffffffff82169050919050565b60006104b182610486565b9050919050565b6104c1816104a6565b82525050565b60006020820190506104dc60008301846104b8565b92915050565b600080fd5b6104f081610452565b81146104fb57600080fd5b50565b60008135905061050d816104e7565b92915050565b600060208284031215610529576105286104e2565b5b6000610537848285016104fe565b91505092915050565b600061054b82610486565b9050919050565b61055b81610540565b82525050565b60006020820190506105766000830184610552565b92915050565b6000819050919050565b61059761059282610452565b61057c565b82525050565b60008160601b9050919050565b60006105b58261059d565b9050919050565b60006105c7826105aa565b9050919050565b6105df6105da826104a6565b6105bc565b82525050565b60006105f18286610586565b6020820191506106018285610586565b60208201915061061182846105ce565b601482019150819050949350505050565b7f596f7520617265206e6f7420746865206f776e65720000000000000000000000600082015250565b60006106586015836103d5565b915061066382610622565b602082019050919050565b600060208201905081810360008301526106878161064b565b9050919050565b7f4e487b7100000000000000000000000000000000000000000000000000000000600052601260045260246000fd5b60006106c882610452565b91506106d383610452565b9250826106e3576106e261068e565b5b828206905092915050565b7f6c696d6974656420706c61796572730000000000000000000000000000000000600082015250565b6000610724600f836103d5565b915061072f826106ee565b602082019050919050565b6000602082019050818103600083015261075381610717565b9050919050565b7f4e487b7100000000000000000000000000000000000000000000000000000000600052603260045260246000fdfea2646970667358221220590476d90bb8f994b3b12862247d2ae3cccd7e0d36959e393099ef2e79cf374b64736f6c63430008120033",
					"opcodes": "PUSH1 0x80 PUSH1 0x40 MSTORE CALLVALUE DUP1 ISZERO PUSH2 0x10 JUMPI PUSH1 0x0 DUP1 REVERT JUMPDEST POP CALLER PUSH1 0x0 DUP1 PUSH2 0x100 EXP DUP2 SLOAD DUP2 PUSH20 0xFFFFFFFFFFFFFFFFFFFFFFFFFFFFFFFFFFFFFFFF MUL NOT AND SWAP1 DUP4 PUSH20 0xFFFFFFFFFFFFFFFFFFFFFFFFFFFFFFFFFFFFFFFF AND MUL OR SWAP1 SSTORE POP PUSH2 0x7BF DUP1 PUSH2 0x60 PUSH1 0x0 CODECOPY PUSH1 0x0 RETURN INVALID PUSH1 0x80 PUSH1 0x40 MSTORE PUSH1 0x4 CALLDATASIZE LT PUSH2 0x4E JUMPI PUSH1 0x0 CALLDATALOAD PUSH1 0xE0 SHR DUP1 PUSH4 0x4BE1EBF7 EQ PUSH2 0x106 JUMPI DUP1 PUSH4 0x8DA5CB5B EQ PUSH2 0x131 JUMPI DUP1 PUSH4 0xB69EF8A8 EQ PUSH2 0x15C JUMPI DUP1 PUSH4 0xDFBF53AE EQ PUSH2 0x187 JUMPI DUP1 PUSH4 0xF71D96CB EQ PUSH2 0x1B2 JUMPI PUSH2 0x101 JUMP JUMPDEST CALLDATASIZE PUSH2 0x101 JUMPI PUSH8 0x1BC16D674EC80000 CALLVALUE EQ PUSH2 0x9D JUMPI PUSH1 0x40 MLOAD PUSH32 0x8C379A000000000000000000000000000000000000000000000000000000000 DUP2 MSTORE PUSH1 0x4 ADD PUSH2 0x94 SWAP1 PUSH2 0x432 JUMP JUMPDEST PUSH1 0x40 MLOAD DUP1 SWAP2 SUB SWAP1 REVERT JUMPDEST PUSH1 0x1 CALLER SWAP1 DUP1 PUSH1 0x1 DUP2 SLOAD ADD DUP1 DUP3 SSTORE DUP1 SWAP2 POP POP PUSH1 0x1 SWAP1 SUB SWAP1 PUSH1 0x0 MSTORE PUSH1 0x20 PUSH1 0x0 KECCAK256 ADD PUSH1 0x0 SWAP1 SWAP2 SWAP1 SWAP2 SWAP1 SWAP2 PUSH2 0x100 EXP DUP2 SLOAD DUP2 PUSH20 0xFFFFFFFFFFFFFFFFFFFFFFFFFFFFFFFFFFFFFFFF MUL NOT AND SWAP1 DUP4 PUSH20 0xFFFFFFFFFFFFFFFFFFFFFFFFFFFFFFFFFFFFFFFF AND MUL OR SWAP1 SSTORE STOP JUMPDEST PUSH1 0x0 DUP1 REVERT JUMPDEST CALLVALUE DUP1 ISZERO PUSH2 0x112 JUMPI PUSH1 0x0 DUP1 REVERT JUMPDEST POP PUSH2 0x11B PUSH2 0x1EF JUMP JUMPDEST PUSH1 0x40 MLOAD PUSH2 0x128 SWAP2 SWAP1 PUSH2 0x46B JUMP JUMPDEST PUSH1 0x40 MLOAD DUP1 SWAP2 SUB SWAP1 RETURN JUMPDEST CALLVALUE DUP1 ISZERO PUSH2 0x13D JUMPI PUSH1 0x0 DUP1 REVERT JUMPDEST POP PUSH2 0x146 PUSH2 0x224 JUMP JUMPDEST PUSH1 0x40 MLOAD PUSH2 0x153 SWAP2 SWAP1 PUSH2 0x4C7 JUMP JUMPDEST PUSH1 0x40 MLOAD DUP1 SWAP2 SUB SWAP1 RETURN JUMPDEST CALLVALUE DUP1 ISZERO PUSH2 0x168 JUMPI PUSH1 0x0 DUP1 REVERT JUMPDEST POP PUSH2 0x171 PUSH2 0x248 JUMP JUMPDEST PUSH1 0x40 MLOAD PUSH2 0x17E SWAP2 SWAP1 PUSH2 0x46B JUMP JUMPDEST PUSH1 0x40 MLOAD DUP1 SWAP2 SUB SWAP1 RETURN JUMPDEST CALLVALUE DUP1 ISZERO PUSH2 0x193 JUMPI PUSH1 0x0 DUP1 REVERT JUMPDEST POP PUSH2 0x19C PUSH2 0x2DF JUMP JUMPDEST PUSH1 0x40 MLOAD PUSH2 0x1A9 SWAP2 SWAP1 PUSH2 0x4C7 JUMP JUMPDEST PUSH1 0x40 MLOAD DUP1 SWAP2 SUB SWAP1 RETURN JUMPDEST CALLVALUE DUP1 ISZERO PUSH2 0x1BE JUMPI PUSH1 0x0 DUP1 REVERT JUMPDEST POP PUSH2 0x1D9 PUSH1 0x4 DUP1 CALLDATASIZE SUB DUP2 ADD SWAP1 PUSH2 0x1D4 SWAP2 SWAP1 PUSH2 0x513 JUMP JUMPDEST PUSH2 0x396 JUMP JUMPDEST PUSH1 0x40 MLOAD PUSH2 0x1E6 SWAP2 SWAP1 PUSH2 0x561 JUMP JUMPDEST PUSH1 0x40 MLOAD DUP1 SWAP2 SUB SWAP1 RETURN JUMPDEST PUSH1 0x0 TIMESTAMP PREVRANDAO CALLER PUSH1 0x40 MLOAD PUSH1 0x20 ADD PUSH2 0x206 SWAP4 SWAP3 SWAP2 SWAP1 PUSH2 0x5E5 JUMP JUMPDEST PUSH1 0x40 MLOAD PUSH1 0x20 DUP2 DUP4 SUB SUB DUP2 MSTORE SWAP1 PUSH1 0x40 MSTORE DUP1 MLOAD SWAP1 PUSH1 0x20 ADD KECCAK256 PUSH1 0x0 SHR SWAP1 POP SWAP1 JUMP JUMPDEST PUSH1 0x0 DUP1 SLOAD SWAP1 PUSH2 0x100 EXP SWAP1 DIV PUSH20 0xFFFFFFFFFFFFFFFFFFFFFFFFFFFFFFFFFFFFFFFF AND DUP2 JUMP JUMPDEST PUSH1 0x0 DUP1 PUSH1 0x0 SWAP1 SLOAD SWAP1 PUSH2 0x100 EXP SWAP1 DIV PUSH20 0xFFFFFFFFFFFFFFFFFFFFFFFFFFFFFFFFFFFFFFFF AND PUSH20 0xFFFFFFFFFFFFFFFFFFFFFFFFFFFFFFFFFFFFFFFF AND CALLER PUSH20 0xFFFFFFFFFFFFFFFFFFFFFFFFFFFFFFFFFFFFFFFF AND EQ PUSH2 0x2D9 JUMPI PUSH1 0x40 MLOAD PUSH32 0x8C379A000000000000000000000000000000000000000000000000000000000 DUP2 MSTORE PUSH1 0x4 ADD PUSH2 0x2D0 SWAP1 PUSH2 0x66E JUMP JUMPDEST PUSH1 0x40 MLOAD DUP1 SWAP2 SUB SWAP1 REVERT JUMPDEST SELFBALANCE SWAP1 POP SWAP1 JUMP JUMPDEST PUSH1 0x0 DUP1 PUSH2 0x2EA PUSH2 0x1EF JUMP JUMPDEST SWAP1 POP PUSH1 0x0 PUSH1 0x1 DUP1 SLOAD SWAP1 POP DUP3 PUSH2 0x2FF SWAP2 SWAP1 PUSH2 0x6BD JUMP JUMPDEST SWAP1 POP PUSH1 0x3 PUSH1 0x1 DUP1 SLOAD SWAP1 POP LT ISZERO PUSH2 0x34A JUMPI PUSH1 0x40 MLOAD PUSH32 0x8C379A000000000000000000000000000000000000000000000000000000000 DUP2 MSTORE PUSH1 0x4 ADD PUSH2 0x341 SWAP1 PUSH2 0x73A JUMP JUMPDEST PUSH1 0x40 MLOAD DUP1 SWAP2 SUB SWAP1 REVERT JUMPDEST PUSH1 0x0 PUSH1 0x1 DUP3 DUP2 SLOAD DUP2 LT PUSH2 0x360 JUMPI PUSH2 0x35F PUSH2 0x75A JUMP JUMPDEST JUMPDEST SWAP1 PUSH1 0x0 MSTORE PUSH1 0x20 PUSH1 0x0 KECCAK256 ADD PUSH1 0x0 SWAP1 SLOAD SWAP1 PUSH2 0x100 EXP SWAP1 DIV PUSH20 0xFFFFFFFFFFFFFFFFFFFFFFFFFFFFFFFFFFFFFFFF AND SWAP1 POP DUP1 SWAP4 POP POP POP POP SWAP1 JUMP JUMPDEST PUSH1 0x1 DUP2 DUP2 SLOAD DUP2 LT PUSH2 0x3A6 JUMPI PUSH1 0x0 DUP1 REVERT JUMPDEST SWAP1 PUSH1 0x0 MSTORE PUSH1 0x20 PUSH1 0x0 KECCAK256 ADD PUSH1 0x0 SWAP2 POP SLOAD SWAP1 PUSH2 0x100 EXP SWAP1 DIV PUSH20 0xFFFFFFFFFFFFFFFFFFFFFFFFFFFFFFFFFFFFFFFF AND DUP2 JUMP JUMPDEST PUSH1 0x0 DUP3 DUP3 MSTORE PUSH1 0x20 DUP3 ADD SWAP1 POP SWAP3 SWAP2 POP POP JUMP JUMPDEST PUSH32 0x696E76616C696420616D6F756E74000000000000000000000000000000000000 PUSH1 0x0 DUP3 ADD MSTORE POP JUMP JUMPDEST PUSH1 0x0 PUSH2 0x41C PUSH1 0xE DUP4 PUSH2 0x3D5 JUMP JUMPDEST SWAP2 POP PUSH2 0x427 DUP3 PUSH2 0x3E6 JUMP JUMPDEST PUSH1 0x20 DUP3 ADD SWAP1 POP SWAP2 SWAP1 POP JUMP JUMPDEST PUSH1 0x0 PUSH1 0x20 DUP3 ADD SWAP1 POP DUP2 DUP2 SUB PUSH1 0x0 DUP4 ADD MSTORE PUSH2 0x44B DUP2 PUSH2 0x40F JUMP JUMPDEST SWAP1 POP SWAP2 SWAP1 POP JUMP JUMPDEST PUSH1 0x0 DUP2 SWAP1 POP SWAP2 SWAP1 POP JUMP JUMPDEST PUSH2 0x465 DUP2 PUSH2 0x452 JUMP JUMPDEST DUP3 MSTORE POP POP JUMP JUMPDEST PUSH1 0x0 PUSH1 0x20 DUP3 ADD SWAP1 POP PUSH2 0x480 PUSH1 0x0 DUP4 ADD DUP5 PUSH2 0x45C JUMP JUMPDEST SWAP3 SWAP2 POP POP JUMP JUMPDEST PUSH1 0x0 PUSH20 0xFFFFFFFFFFFFFFFFFFFFFFFFFFFFFFFFFFFFFFFF DUP3 AND SWAP1 POP SWAP2 SWAP1 POP JUMP JUMPDEST PUSH1 0x0 PUSH2 0x4B1 DUP3 PUSH2 0x486 JUMP JUMPDEST SWAP1 POP SWAP2 SWAP1 POP JUMP JUMPDEST PUSH2 0x4C1 DUP2 PUSH2 0x4A6 JUMP JUMPDEST DUP3 MSTORE POP POP JUMP JUMPDEST PUSH1 0x0 PUSH1 0x20 DUP3 ADD SWAP1 POP PUSH2 0x4DC PUSH1 0x0 DUP4 ADD DUP5 PUSH2 0x4B8 JUMP JUMPDEST SWAP3 SWAP2 POP POP JUMP JUMPDEST PUSH1 0x0 DUP1 REVERT JUMPDEST PUSH2 0x4F0 DUP2 PUSH2 0x452 JUMP JUMPDEST DUP2 EQ PUSH2 0x4FB JUMPI PUSH1 0x0 DUP1 REVERT JUMPDEST POP JUMP JUMPDEST PUSH1 0x0 DUP2 CALLDATALOAD SWAP1 POP PUSH2 0x50D DUP2 PUSH2 0x4E7 JUMP JUMPDEST SWAP3 SWAP2 POP POP JUMP JUMPDEST PUSH1 0x0 PUSH1 0x20 DUP3 DUP5 SUB SLT ISZERO PUSH2 0x529 JUMPI PUSH2 0x528 PUSH2 0x4E2 JUMP JUMPDEST JUMPDEST PUSH1 0x0 PUSH2 0x537 DUP5 DUP3 DUP6 ADD PUSH2 0x4FE JUMP JUMPDEST SWAP2 POP POP SWAP3 SWAP2 POP POP JUMP JUMPDEST PUSH1 0x0 PUSH2 0x54B DUP3 PUSH2 0x486 JUMP JUMPDEST SWAP1 POP SWAP2 SWAP1 POP JUMP JUMPDEST PUSH2 0x55B DUP2 PUSH2 0x540 JUMP JUMPDEST DUP3 MSTORE POP POP JUMP JUMPDEST PUSH1 0x0 PUSH1 0x20 DUP3 ADD SWAP1 POP PUSH2 0x576 PUSH1 0x0 DUP4 ADD DUP5 PUSH2 0x552 JUMP JUMPDEST SWAP3 SWAP2 POP POP JUMP JUMPDEST PUSH1 0x0 DUP2 SWAP1 POP SWAP2 SWAP1 POP JUMP JUMPDEST PUSH2 0x597 PUSH2 0x592 DUP3 PUSH2 0x452 JUMP JUMPDEST PUSH2 0x57C JUMP JUMPDEST DUP3 MSTORE POP POP JUMP JUMPDEST PUSH1 0x0 DUP2 PUSH1 0x60 SHL SWAP1 POP SWAP2 SWAP1 POP JUMP JUMPDEST PUSH1 0x0 PUSH2 0x5B5 DUP3 PUSH2 0x59D JUMP JUMPDEST SWAP1 POP SWAP2 SWAP1 POP JUMP JUMPDEST PUSH1 0x0 PUSH2 0x5C7 DUP3 PUSH2 0x5AA JUMP JUMPDEST SWAP1 POP SWAP2 SWAP1 POP JUMP JUMPDEST PUSH2 0x5DF PUSH2 0x5DA DUP3 PUSH2 0x4A6 JUMP JUMPDEST PUSH2 0x5BC JUMP JUMPDEST DUP3 MSTORE POP POP JUMP JUMPDEST PUSH1 0x0 PUSH2 0x5F1 DUP3 DUP7 PUSH2 0x586 JUMP JUMPDEST PUSH1 0x20 DUP3 ADD SWAP2 POP PUSH2 0x601 DUP3 DUP6 PUSH2 0x586 JUMP JUMPDEST PUSH1 0x20 DUP3 ADD SWAP2 POP PUSH2 0x611 DUP3 DUP5 PUSH2 0x5CE JUMP JUMPDEST PUSH1 0x14 DUP3 ADD SWAP2 POP DUP2 SWAP1 POP SWAP5 SWAP4 POP POP POP POP JUMP JUMPDEST PUSH32 0x596F7520617265206E6F7420746865206F776E65720000000000000000000000 PUSH1 0x0 DUP3 ADD MSTORE POP JUMP JUMPDEST PUSH1 0x0 PUSH2 0x658 PUSH1 0x15 DUP4 PUSH2 0x3D5 JUMP JUMPDEST SWAP2 POP PUSH2 0x663 DUP3 PUSH2 0x622 JUMP JUMPDEST PUSH1 0x20 DUP3 ADD SWAP1 POP SWAP2 SWAP1 POP JUMP JUMPDEST PUSH1 0x0 PUSH1 0x20 DUP3 ADD SWAP1 POP DUP2 DUP2 SUB PUSH1 0x0 DUP4 ADD MSTORE PUSH2 0x687 DUP2 PUSH2 0x64B JUMP JUMPDEST SWAP1 POP SWAP2 SWAP1 POP JUMP JUMPDEST PUSH32 0x4E487B7100000000000000000000000000000000000000000000000000000000 PUSH1 0x0 MSTORE PUSH1 0x12 PUSH1 0x4 MSTORE PUSH1 0x24 PUSH1 0x0 REVERT JUMPDEST PUSH1 0x0 PUSH2 0x6C8 DUP3 PUSH2 0x452 JUMP JUMPDEST SWAP2 POP PUSH2 0x6D3 DUP4 PUSH2 0x452 JUMP JUMPDEST SWAP3 POP DUP3 PUSH2 0x6E3 JUMPI PUSH2 0x6E2 PUSH2 0x68E JUMP JUMPDEST JUMPDEST DUP3 DUP3 MOD SWAP1 POP SWAP3 SWAP2 POP POP JUMP JUMPDEST PUSH32 0x6C696D6974656420706C61796572730000000000000000000000000000000000 PUSH1 0x0 DUP3 ADD MSTORE POP JUMP JUMPDEST PUSH1 0x0 PUSH2 0x724 PUSH1 0xF DUP4 PUSH2 0x3D5 JUMP JUMPDEST SWAP2 POP PUSH2 0x72F DUP3 PUSH2 0x6EE JUMP JUMPDEST PUSH1 0x20 DUP3 ADD SWAP1 POP SWAP2 SWAP1 POP JUMP JUMPDEST PUSH1 0x0 PUSH1 0x20 DUP3 ADD SWAP1 POP DUP2 DUP2 SUB PUSH1 0x0 DUP4 ADD MSTORE PUSH2 0x753 DUP2 PUSH2 0x717 JUMP JUMPDEST SWAP1 POP SWAP2 SWAP1 POP JUMP JUMPDEST PUSH32 0x4E487B7100000000000000000000000000000000000000000000000000000000 PUSH1 0x0 MSTORE PUSH1 0x32 PUSH1 0x4 MSTORE PUSH1 0x24 PUSH1 0x0 REVERT INVALID LOG2 PUSH5 0x6970667358 0x22 SLT KECCAK256 MSIZE DIV PUSH23 0xD90BB8F994B3B12862247D2AE3CCCD7E0D36959E393099 0xEF 0x2E PUSH26 0xCF374B64736F6C63430008120033000000000000000000000000 "
				},
				"gasEstimates": {
					"creation": {
						"codeDepositCost": "396600",
						"executionCost": "24696",
						"totalCost": "421296"
					},
					"external": {
						"balance()": "2628",
						"owner()": "2511",
						"players(uint256)": "5022",
						"randon()": "infinite",
						"winner()": "infinite"
					}
				},
				"methodIdentifiers": {
					"balance()": "b69ef8a8",
					"owner()": "8da5cb5b",
					"players(uint256)": "f71d96cb",
					"randon()": "4be1ebf7",
					"winner()": "dfbf53ae"
				}
			},
			"storageLayout": {
				"storage": [
					{
						"astId": 3,
						"contract": "lottery.sol:ticket",
						"label": "owner",
						"offset": 0,
						"slot": "0",
						"type": "t_address"
					},
					{
						"astId": 6,
						"contract": "lottery.sol:ticket",
						"label": "players",
						"offset": 0,
						"slot": "1",
						"type": "t_array(t_address_payable)dyn_storage"
					}
				],
				"types": {
					"t_address": {
						"encoding": "inplace",
						"label": "address",
						"numberOfBytes": "20"
					},
					"t_address_payable": {
						"encoding": "inplace",
						"label": "address payable",
						"numberOfBytes": "20"
					},
					"t_array(t_address_payable)dyn_storage": {
						"base": "t_address_payable",
						"encoding": "dynamic_array",
						"label": "address payable[]",
						"numberOfBytes": "32"
					}
				}
			},
			"userdoc": {
				"kind": "user",
				"methods": {},
				"version": 1
			}
		}
	}
}