{
	"Event.sol": {
		"organizer": {
			"abi": [
				{
					"inputs": [
						{
							"internalType": "string",
							"name": "",
							"type": "string"
						}
					],
					"name": "Eventdata",
					"outputs": [
						{
							"internalType": "uint256",
							"name": "",
							"type": "uint256"
						}
					],
					"stateMutability": "view",
					"type": "function"
				},
				{
					"inputs": [
						{
							"internalType": "string",
							"name": "_name",
							"type": "string"
						},
						{
							"internalType": "uint256",
							"name": "date",
							"type": "uint256"
						},
						{
							"internalType": "uint256",
							"name": "_price",
							"type": "uint256"
						},
						{
							"internalType": "uint256",
							"name": "_count",
							"type": "uint256"
						},
						{
							"internalType": "string",
							"name": "_speaker",
							"type": "string"
						}
					],
					"name": "Register_Event",
					"outputs": [],
					"stateMutability": "nonpayable",
					"type": "function"
				},
				{
					"inputs": [
						{
							"internalType": "uint256",
							"name": "id",
							"type": "uint256"
						},
						{
							"internalType": "uint256",
							"name": "_quantity",
							"type": "uint256"
						}
					],
					"name": "buynewticket",
					"outputs": [],
					"stateMutability": "nonpayable",
					"type": "function"
				},
				{
					"inputs": [],
					"name": "e1",
					"outputs": [
						{
							"internalType": "address",
							"name": "organizer",
							"type": "address"
						},
						{
							"internalType": "string",
							"name": "Event_Name",
							"type": "string"
						},
						{
							"internalType": "uint256",
							"name": "date",
							"type": "uint256"
						},
						{
							"internalType": "uint256",
							"name": "price",
							"type": "uint256"
						},
						{
							"internalType": "uint256",
							"name": "ticket_Count",
							"type": "uint256"
						},
						{
							"internalType": "uint256",
							"name": "remaining_tickets",
							"type": "uint256"
						},
						{
							"internalType": "string",
							"name": "speaker",
							"type": "string"
						}
					],
					"stateMutability": "view",
					"type": "function"
				},
				{
					"inputs": [
						{
							"internalType": "uint256",
							"name": "",
							"type": "uint256"
						},
						{
							"internalType": "string",
							"name": "",
							"type": "string"
						}
					],
					"name": "eventdata",
					"outputs": [
						{
							"internalType": "address",
							"name": "organizer",
							"type": "address"
						},
						{
							"internalType": "string",
							"name": "Event_Name",
							"type": "string"
						},
						{
							"internalType": "uint256",
							"name": "date",
							"type": "uint256"
						},
						{
							"internalType": "uint256",
							"name": "price",
							"type": "uint256"
						},
						{
							"internalType": "uint256",
							"name": "ticket_Count",
							"type": "uint256"
						},
						{
							"internalType": "uint256",
							"name": "remaining_tickets",
							"type": "uint256"
						},
						{
							"internalType": "string",
							"name": "speaker",
							"type": "string"
						}
					],
					"stateMutability": "view",
					"type": "function"
				},
				{
					"inputs": [
						{
							"internalType": "string",
							"name": "idd",
							"type": "string"
						}
					],
					"name": "eventdataa",
					"outputs": [
						{
							"internalType": "uint256",
							"name": "",
							"type": "uint256"
						}
					],
					"stateMutability": "nonpayable",
					"type": "function"
				},
				{
					"inputs": [],
					"name": "nextid",
					"outputs": [
						{
							"internalType": "uint256",
							"name": "",
							"type": "uint256"
						}
					],
					"stateMutability": "view",
					"type": "function"
				},
				{
					"inputs": [
						{
							"internalType": "address",
							"name": "",
							"type": "address"
						},
						{
							"internalType": "uint256",
							"name": "",
							"type": "uint256"
						}
					],
					"name": "ticket",
					"outputs": [
						{
							"internalType": "uint256",
							"name": "",
							"type": "uint256"
						}
					],
					"stateMutability": "view",
					"type": "function"
				}
			],
			"devdoc": {
				"kind": "dev",
				"methods": {},
				"version": 1
			},
			"evm": {
				"assembly": "    /* \"Event.sol\":72:1722  contract organizer{... */\n  mstore(0x40, 0x80)\n  callvalue\n  dup1\n  iszero\n  tag_1\n  jumpi\n  0x00\n  dup1\n  revert\ntag_1:\n  pop\n  dataSize(sub_0)\n  dup1\n  dataOffset(sub_0)\n  0x00\n  codecopy\n  0x00\n  return\nstop\n\nsub_0: assembly {\n        /* \"Event.sol\":72:1722  contract organizer{... */\n      mstore(0x40, 0x80)\n      callvalue\n      dup1\n      iszero\n      tag_1\n      jumpi\n      0x00\n      dup1\n      revert\n    tag_1:\n      pop\n      jumpi(tag_2, lt(calldatasize, 0x04))\n      shr(0xe0, calldataload(0x00))\n      dup1\n      0x5c29d40d\n      gt\n      tag_11\n      jumpi\n      dup1\n      0x5c29d40d\n      eq\n      tag_7\n      jumpi\n      dup1\n      0xa2c2d666\n      eq\n      tag_8\n      jumpi\n      dup1\n      0xbc7d58dd\n      eq\n      tag_9\n      jumpi\n      dup1\n      0xe11bb64d\n      eq\n      tag_10\n      jumpi\n      jump(tag_2)\n    tag_11:\n      dup1\n      0x08e1d21e\n      eq\n      tag_3\n      jumpi\n      dup1\n      0x12b4d630\n      eq\n      tag_4\n      jumpi\n      dup1\n      0x14c5a20a\n      eq\n      tag_5\n      jumpi\n      dup1\n      0x4bfaa485\n      eq\n      tag_6\n      jumpi\n    tag_2:\n      0x00\n      dup1\n      revert\n        /* \"Event.sol\":1072:1407  function Register_Event(string memory _name,uint date,uint _price,uint _count,string memory _speaker) public{... */\n    tag_3:\n      tag_12\n      0x04\n      dup1\n      calldatasize\n      sub\n      dup2\n      add\n      swap1\n      tag_13\n      swap2\n      swap1\n      tag_14\n      jump\t// in\n    tag_13:\n      tag_15\n      jump\t// in\n    tag_12:\n      stop\n        /* \"Event.sol\":573:627  mapping(uint=>mapping(string=>Event)) public eventdata */\n    tag_4:\n      tag_16\n      0x04\n      dup1\n      calldatasize\n      sub\n      dup2\n      add\n      swap1\n      tag_17\n      swap2\n      swap1\n      tag_18\n      jump\t// in\n    tag_17:\n      tag_19\n      jump\t// in\n    tag_16:\n      mload(0x40)\n      tag_20\n      swap8\n      swap7\n      swap6\n      swap5\n      swap4\n      swap3\n      swap2\n      swap1\n      tag_21\n      jump\t// in\n    tag_20:\n      mload(0x40)\n      dup1\n      swap2\n      sub\n      swap1\n      return\n        /* \"Event.sol\":691:729  mapping(string=>uint) public Eventdata */\n    tag_5:\n      tag_22\n      0x04\n      dup1\n      calldatasize\n      sub\n      dup2\n      add\n      swap1\n      tag_23\n      swap2\n      swap1\n      tag_24\n      jump\t// in\n    tag_23:\n      tag_25\n      jump\t// in\n    tag_22:\n      mload(0x40)\n      tag_26\n      swap2\n      swap1\n      tag_27\n      jump\t// in\n    tag_26:\n      mload(0x40)\n      dup1\n      swap2\n      sub\n      swap1\n      return\n        /* \"Event.sol\":919:1060  function eventdataa(string memory idd) public returns(uint){... */\n    tag_6:\n      tag_28\n      0x04\n      dup1\n      calldatasize\n      sub\n      dup2\n      add\n      swap1\n      tag_29\n      swap2\n      swap1\n      tag_24\n      jump\t// in\n    tag_29:\n      tag_30\n      jump\t// in\n    tag_28:\n      mload(0x40)\n      tag_31\n      swap2\n      swap1\n      tag_27\n      jump\t// in\n    tag_31:\n      mload(0x40)\n      dup1\n      swap2\n      sub\n      swap1\n      return\n        /* \"Event.sol\":315:334  uint public  nextid */\n    tag_7:\n      tag_32\n      tag_33\n      jump\t// in\n    tag_32:\n      mload(0x40)\n      tag_34\n      swap2\n      swap1\n      tag_27\n      jump\t// in\n    tag_34:\n      mload(0x40)\n      dup1\n      swap2\n      sub\n      swap1\n      return\n        /* \"Event.sol\":341:356  Event public e1 */\n    tag_8:\n      tag_35\n      tag_36\n      jump\t// in\n    tag_35:\n      mload(0x40)\n      tag_37\n      swap8\n      swap7\n      swap6\n      swap5\n      swap4\n      swap3\n      swap2\n      swap1\n      tag_21\n      jump\t// in\n    tag_37:\n      mload(0x40)\n      dup1\n      swap2\n      sub\n      swap1\n      return\n        /* \"Event.sol\":1560:1719  function buynewticket(uint id,uint _quantity) public {... */\n    tag_9:\n      tag_38\n      0x04\n      dup1\n      calldatasize\n      sub\n      dup2\n      add\n      swap1\n      tag_39\n      swap2\n      swap1\n      tag_40\n      jump\t// in\n    tag_39:\n      tag_41\n      jump\t// in\n    tag_38:\n      stop\n        /* \"Event.sol\":634:684  mapping(address=>mapping(uint=>uint))public ticket */\n    tag_10:\n      tag_42\n      0x04\n      dup1\n      calldatasize\n      sub\n      dup2\n      add\n      swap1\n      tag_43\n      swap2\n      swap1\n      tag_44\n      jump\t// in\n    tag_43:\n      tag_45\n      jump\t// in\n    tag_42:\n      mload(0x40)\n      tag_46\n      swap2\n      swap1\n      tag_27\n      jump\t// in\n    tag_46:\n      mload(0x40)\n      dup1\n      swap2\n      sub\n      swap1\n      return\n        /* \"Event.sol\":1072:1407  function Register_Event(string memory _name,uint date,uint _price,uint _count,string memory _speaker) public{... */\n    tag_15:\n        /* \"Event.sol\":1280:1338  Event(msg.sender,_name,date,_price,_count,_count,_speaker) */\n      mload(0x40)\n      dup1\n      0xe0\n      add\n      0x40\n      mstore\n      dup1\n        /* \"Event.sol\":1286:1296  msg.sender */\n      caller\n        /* \"Event.sol\":1280:1338  Event(msg.sender,_name,date,_price,_count,_count,_speaker) */\n      0xffffffffffffffffffffffffffffffffffffffff\n      and\n      dup2\n      mstore\n      0x20\n      add\n        /* \"Event.sol\":1297:1302  _name */\n      dup7\n        /* \"Event.sol\":1280:1338  Event(msg.sender,_name,date,_price,_count,_count,_speaker) */\n      dup2\n      mstore\n      0x20\n      add\n        /* \"Event.sol\":1303:1307  date */\n      dup6\n        /* \"Event.sol\":1280:1338  Event(msg.sender,_name,date,_price,_count,_count,_speaker) */\n      dup2\n      mstore\n      0x20\n      add\n        /* \"Event.sol\":1308:1314  _price */\n      dup5\n        /* \"Event.sol\":1280:1338  Event(msg.sender,_name,date,_price,_count,_count,_speaker) */\n      dup2\n      mstore\n      0x20\n      add\n        /* \"Event.sol\":1315:1321  _count */\n      dup4\n        /* \"Event.sol\":1280:1338  Event(msg.sender,_name,date,_price,_count,_count,_speaker) */\n      dup2\n      mstore\n      0x20\n      add\n        /* \"Event.sol\":1322:1328  _count */\n      dup4\n        /* \"Event.sol\":1280:1338  Event(msg.sender,_name,date,_price,_count,_count,_speaker) */\n      dup2\n      mstore\n      0x20\n      add\n        /* \"Event.sol\":1329:1337  _speaker */\n      dup3\n        /* \"Event.sol\":1280:1338  Event(msg.sender,_name,date,_price,_count,_count,_speaker) */\n      dup2\n      mstore\n      pop\n        /* \"Event.sol\":1255:1264  eventdata */\n      0x08\n        /* \"Event.sol\":1255:1272  eventdata[nextid] */\n      0x00\n        /* \"Event.sol\":1265:1271  nextid */\n      dup1\n      sload\n        /* \"Event.sol\":1255:1272  eventdata[nextid] */\n      dup2\n      mstore\n      0x20\n      add\n      swap1\n      dup2\n      mstore\n      0x20\n      add\n      0x00\n      keccak256\n        /* \"Event.sol\":1273:1278  _name */\n      dup7\n        /* \"Event.sol\":1255:1279  eventdata[nextid][_name] */\n      mload(0x40)\n      tag_48\n      swap2\n      swap1\n      tag_49\n      jump\t// in\n    tag_48:\n      swap1\n      dup2\n      mstore\n      0x20\n      add\n      mload(0x40)\n      dup1\n      swap2\n      sub\n      swap1\n      keccak256\n        /* \"Event.sol\":1255:1338  eventdata[nextid][_name]=Event(msg.sender,_name,date,_price,_count,_count,_speaker) */\n      0x00\n      dup3\n      add\n      mload\n      dup2\n      0x00\n      add\n      exp(0x0100, 0x00)\n      dup2\n      sload\n      dup2\n      0xffffffffffffffffffffffffffffffffffffffff\n      mul\n      not\n      and\n      swap1\n      dup4\n      0xffffffffffffffffffffffffffffffffffffffff\n      and\n      mul\n      or\n      swap1\n      sstore\n      pop\n      0x20\n      dup3\n      add\n      mload\n      dup2\n      0x01\n      add\n      swap1\n      dup2\n      tag_50\n      swap2\n      swap1\n      tag_51\n      jump\t// in\n    tag_50:\n      pop\n      0x40\n      dup3\n      add\n      mload\n      dup2\n      0x02\n      add\n      sstore\n      0x60\n      dup3\n      add\n      mload\n      dup2\n      0x03\n      add\n      sstore\n      0x80\n      dup3\n      add\n      mload\n      dup2\n      0x04\n      add\n      sstore\n      0xa0\n      dup3\n      add\n      mload\n      dup2\n      0x05\n      add\n      sstore\n      0xc0\n      dup3\n      add\n      mload\n      dup2\n      0x06\n      add\n      swap1\n      dup2\n      tag_52\n      swap2\n      swap1\n      tag_51\n      jump\t// in\n    tag_52:\n      pop\n      swap1\n      pop\n      pop\n        /* \"Event.sol\":1351:1357  nextid */\n      0x00\n      dup1\n        /* \"Event.sol\":1351:1359  nextid++ */\n      dup2\n      sload\n      dup1\n      swap3\n      swap2\n      swap1\n      tag_53\n      swap1\n      tag_54\n      jump\t// in\n    tag_53:\n      swap2\n      swap1\n      pop\n      sstore\n      pop\n        /* \"Event.sol\":1072:1407  function Register_Event(string memory _name,uint date,uint _price,uint _count,string memory _speaker) public{... */\n      pop\n      pop\n      pop\n      pop\n      pop\n      jump\t// out\n        /* \"Event.sol\":573:627  mapping(uint=>mapping(string=>Event)) public eventdata */\n    tag_19:\n      mstore(0x20, 0x08)\n      dup2\n      0x00\n      mstore\n      keccak256(0x00, 0x40)\n      dup2\n      dup1\n      mload\n      0x20\n      dup2\n      add\n      dup3\n      add\n      dup1\n      mload\n      dup5\n      dup3\n      mstore\n      0x20\n      dup4\n      add\n      0x20\n      dup6\n      add\n      keccak256\n      dup2\n      dup4\n      mstore\n      dup1\n      swap6\n      pop\n      pop\n      pop\n      pop\n      pop\n      pop\n      0x00\n      swap2\n      pop\n      swap2\n      pop\n      pop\n      dup1\n      0x00\n      add\n      0x00\n      swap1\n      sload\n      swap1\n      0x0100\n      exp\n      swap1\n      div\n      0xffffffffffffffffffffffffffffffffffffffff\n      and\n      swap1\n      dup1\n      0x01\n      add\n      dup1\n      sload\n      tag_55\n      swap1\n      tag_56\n      jump\t// in\n    tag_55:\n      dup1\n      0x1f\n      add\n      0x20\n      dup1\n      swap2\n      div\n      mul\n      0x20\n      add\n      mload(0x40)\n      swap1\n      dup2\n      add\n      0x40\n      mstore\n      dup1\n      swap3\n      swap2\n      swap1\n      dup2\n      dup2\n      mstore\n      0x20\n      add\n      dup3\n      dup1\n      sload\n      tag_57\n      swap1\n      tag_56\n      jump\t// in\n    tag_57:\n      dup1\n      iszero\n      tag_58\n      jumpi\n      dup1\n      0x1f\n      lt\n      tag_59\n      jumpi\n      0x0100\n      dup1\n      dup4\n      sload\n      div\n      mul\n      dup4\n      mstore\n      swap2\n      0x20\n      add\n      swap2\n      jump(tag_58)\n    tag_59:\n      dup3\n      add\n      swap2\n      swap1\n      0x00\n      mstore\n      keccak256(0x00, 0x20)\n      swap1\n    tag_60:\n      dup2\n      sload\n      dup2\n      mstore\n      swap1\n      0x01\n      add\n      swap1\n      0x20\n      add\n      dup1\n      dup4\n      gt\n      tag_60\n      jumpi\n      dup3\n      swap1\n      sub\n      0x1f\n      and\n      dup3\n      add\n      swap2\n    tag_58:\n      pop\n      pop\n      pop\n      pop\n      pop\n      swap1\n      dup1\n      0x02\n      add\n      sload\n      swap1\n      dup1\n      0x03\n      add\n      sload\n      swap1\n      dup1\n      0x04\n      add\n      sload\n      swap1\n      dup1\n      0x05\n      add\n      sload\n      swap1\n      dup1\n      0x06\n      add\n      dup1\n      sload\n      tag_61\n      swap1\n      tag_56\n      jump\t// in\n    tag_61:\n      dup1\n      0x1f\n      add\n      0x20\n      dup1\n      swap2\n      div\n      mul\n      0x20\n      add\n      mload(0x40)\n      swap1\n      dup2\n      add\n      0x40\n      mstore\n      dup1\n      swap3\n      swap2\n      swap1\n      dup2\n      dup2\n      mstore\n      0x20\n      add\n      dup3\n      dup1\n      sload\n      tag_62\n      swap1\n      tag_56\n      jump\t// in\n    tag_62:\n      dup1\n      iszero\n      tag_63\n      jumpi\n      dup1\n      0x1f\n      lt\n      tag_64\n      jumpi\n      0x0100\n      dup1\n      dup4\n      sload\n      div\n      mul\n      dup4\n      mstore\n      swap2\n      0x20\n      add\n      swap2\n      jump(tag_63)\n    tag_64:\n      dup3\n      add\n      swap2\n      swap1\n      0x00\n      mstore\n      keccak256(0x00, 0x20)\n      swap1\n    tag_65:\n      dup2\n      sload\n      dup2\n      mstore\n      swap1\n      0x01\n      add\n      swap1\n      0x20\n      add\n      dup1\n      dup4\n      gt\n      tag_65\n      jumpi\n      dup3\n      swap1\n      sub\n      0x1f\n      and\n      dup3\n      add\n      swap2\n    tag_63:\n      pop\n      pop\n      pop\n      pop\n      pop\n      swap1\n      pop\n      dup8\n      jump\t// out\n        /* \"Event.sol\":691:729  mapping(string=>uint) public Eventdata */\n    tag_25:\n      0x0a\n      dup2\n      dup1\n      mload\n      0x20\n      dup2\n      add\n      dup3\n      add\n      dup1\n      mload\n      dup5\n      dup3\n      mstore\n      0x20\n      dup4\n      add\n      0x20\n      dup6\n      add\n      keccak256\n      dup2\n      dup4\n      mstore\n      dup1\n      swap6\n      pop\n      pop\n      pop\n      pop\n      pop\n      pop\n      0x00\n      swap2\n      pop\n      swap1\n      pop\n      sload\n      dup2\n      jump\t// out\n        /* \"Event.sol\":919:1060  function eventdataa(string memory idd) public returns(uint){... */\n    tag_30:\n        /* \"Event.sol\":973:977  uint */\n      0x00\n        /* \"Event.sol\":1014:1020  nextid */\n      dup1\n      sload\n        /* \"Event.sol\":989:998  Eventdata */\n      0x0a\n        /* \"Event.sol\":999:1001  e1 */\n      0x01\n        /* \"Event.sol\":999:1012  e1.Event_Name */\n      dup1\n      add\n        /* \"Event.sol\":989:1013  Eventdata[e1.Event_Name] */\n      mload(0x40)\n      tag_67\n      swap2\n      swap1\n      tag_68\n      jump\t// in\n    tag_67:\n      swap1\n      dup2\n      mstore\n      0x20\n      add\n      mload(0x40)\n      dup1\n      swap2\n      sub\n      swap1\n      keccak256\n        /* \"Event.sol\":989:1020  Eventdata[e1.Event_Name]=nextid */\n      dup2\n      swap1\n      sstore\n      pop\n        /* \"Event.sol\":1038:1047  Eventdata */\n      0x0a\n        /* \"Event.sol\":1048:1051  idd */\n      dup3\n        /* \"Event.sol\":1038:1052  Eventdata[idd] */\n      mload(0x40)\n      tag_69\n      swap2\n      swap1\n      tag_49\n      jump\t// in\n    tag_69:\n      swap1\n      dup2\n      mstore\n      0x20\n      add\n      mload(0x40)\n      dup1\n      swap2\n      sub\n      swap1\n      keccak256\n      sload\n        /* \"Event.sol\":1031:1052  return Eventdata[idd] */\n      swap1\n      pop\n        /* \"Event.sol\":919:1060  function eventdataa(string memory idd) public returns(uint){... */\n      swap2\n      swap1\n      pop\n      jump\t// out\n        /* \"Event.sol\":315:334  uint public  nextid */\n    tag_33:\n      sload(0x00)\n      dup2\n      jump\t// out\n        /* \"Event.sol\":341:356  Event public e1 */\n    tag_36:\n      0x01\n      dup1\n      0x00\n      add\n      0x00\n      swap1\n      sload\n      swap1\n      0x0100\n      exp\n      swap1\n      div\n      0xffffffffffffffffffffffffffffffffffffffff\n      and\n      swap1\n      dup1\n      0x01\n      add\n      dup1\n      sload\n      tag_70\n      swap1\n      tag_56\n      jump\t// in\n    tag_70:\n      dup1\n      0x1f\n      add\n      0x20\n      dup1\n      swap2\n      div\n      mul\n      0x20\n      add\n      mload(0x40)\n      swap1\n      dup2\n      add\n      0x40\n      mstore\n      dup1\n      swap3\n      swap2\n      swap1\n      dup2\n      dup2\n      mstore\n      0x20\n      add\n      dup3\n      dup1\n      sload\n      tag_71\n      swap1\n      tag_56\n      jump\t// in\n    tag_71:\n      dup1\n      iszero\n      tag_72\n      jumpi\n      dup1\n      0x1f\n      lt\n      tag_73\n      jumpi\n      0x0100\n      dup1\n      dup4\n      sload\n      div\n      mul\n      dup4\n      mstore\n      swap2\n      0x20\n      add\n      swap2\n      jump(tag_72)\n    tag_73:\n      dup3\n      add\n      swap2\n      swap1\n      0x00\n      mstore\n      keccak256(0x00, 0x20)\n      swap1\n    tag_74:\n      dup2\n      sload\n      dup2\n      mstore\n      swap1\n      0x01\n      add\n      swap1\n      0x20\n      add\n      dup1\n      dup4\n      gt\n      tag_74\n      jumpi\n      dup3\n      swap1\n      sub\n      0x1f\n      and\n      dup3\n      add\n      swap2\n    tag_72:\n      pop\n      pop\n      pop\n      pop\n      pop\n      swap1\n      dup1\n      0x02\n      add\n      sload\n      swap1\n      dup1\n      0x03\n      add\n      sload\n      swap1\n      dup1\n      0x04\n      add\n      sload\n      swap1\n      dup1\n      0x05\n      add\n      sload\n      swap1\n      dup1\n      0x06\n      add\n      dup1\n      sload\n      tag_75\n      swap1\n      tag_56\n      jump\t// in\n    tag_75:\n      dup1\n      0x1f\n      add\n      0x20\n      dup1\n      swap2\n      div\n      mul\n      0x20\n      add\n      mload(0x40)\n      swap1\n      dup2\n      add\n      0x40\n      mstore\n      dup1\n      swap3\n      swap2\n      swap1\n      dup2\n      dup2\n      mstore\n      0x20\n      add\n      dup3\n      dup1\n      sload\n      tag_76\n      swap1\n      tag_56\n      jump\t// in\n    tag_76:\n      dup1\n      iszero\n      tag_77\n      jumpi\n      dup1\n      0x1f\n      lt\n      tag_78\n      jumpi\n      0x0100\n      dup1\n      dup4\n      sload\n      div\n      mul\n      dup4\n      mstore\n      swap2\n      0x20\n      add\n      swap2\n      jump(tag_77)\n    tag_78:\n      dup3\n      add\n      swap2\n      swap1\n      0x00\n      mstore\n      keccak256(0x00, 0x20)\n      swap1\n    tag_79:\n      dup2\n      sload\n      dup2\n      mstore\n      swap1\n      0x01\n      add\n      swap1\n      0x20\n      add\n      dup1\n      dup4\n      gt\n      tag_79\n      jumpi\n      dup3\n      swap1\n      sub\n      0x1f\n      and\n      dup3\n      add\n      swap2\n    tag_77:\n      pop\n      pop\n      pop\n      pop\n      pop\n      swap1\n      pop\n      dup8\n      jump\t// out\n        /* \"Event.sol\":1560:1719  function buynewticket(uint id,uint _quantity) public {... */\n    tag_41:\n        /* \"Event.sol\":1654:1663  _quantity */\n      dup1\n        /* \"Event.sol\":1630:1636  ticket */\n      0x09\n        /* \"Event.sol\":1630:1648  ticket[msg.sender] */\n      0x00\n        /* \"Event.sol\":1637:1647  msg.sender */\n      caller\n        /* \"Event.sol\":1630:1648  ticket[msg.sender] */\n      0xffffffffffffffffffffffffffffffffffffffff\n      and\n      0xffffffffffffffffffffffffffffffffffffffff\n      and\n      dup2\n      mstore\n      0x20\n      add\n      swap1\n      dup2\n      mstore\n      0x20\n      add\n      0x00\n      keccak256\n        /* \"Event.sol\":1630:1652  ticket[msg.sender][id] */\n      0x00\n        /* \"Event.sol\":1649:1651  id */\n      dup5\n        /* \"Event.sol\":1630:1652  ticket[msg.sender][id] */\n      dup2\n      mstore\n      0x20\n      add\n      swap1\n      dup2\n      mstore\n      0x20\n      add\n      0x00\n      keccak256\n      0x00\n        /* \"Event.sol\":1630:1663  ticket[msg.sender][id]+=_quantity */\n      dup3\n      dup3\n      sload\n      tag_81\n      swap2\n      swap1\n      tag_82\n      jump\t// in\n    tag_81:\n      swap3\n      pop\n      pop\n      dup2\n      swap1\n      sstore\n      pop\n        /* \"Event.sol\":1696:1705  _quantity */\n      dup1\n        /* \"Event.sol\":1674:1676  e1 */\n      0x01\n        /* \"Event.sol\":1674:1694  e1.remaining_tickets */\n      0x05\n      add\n      0x00\n        /* \"Event.sol\":1674:1705  e1.remaining_tickets-=_quantity */\n      dup3\n      dup3\n      sload\n      tag_83\n      swap2\n      swap1\n      tag_84\n      jump\t// in\n    tag_83:\n      swap3\n      pop\n      pop\n      dup2\n      swap1\n      sstore\n      pop\n        /* \"Event.sol\":1560:1719  function buynewticket(uint id,uint _quantity) public {... */\n      pop\n      pop\n      jump\t// out\n        /* \"Event.sol\":634:684  mapping(address=>mapping(uint=>uint))public ticket */\n    tag_45:\n      mstore(0x20, 0x09)\n      dup2\n      0x00\n      mstore\n      mstore(0x20, keccak256(0x00, 0x40))\n      dup1\n      0x00\n      mstore\n      keccak256(0x00, 0x40)\n      0x00\n      swap2\n      pop\n      swap2\n      pop\n      pop\n      sload\n      dup2\n      jump\t// out\n        /* \"#utility.yul\":7:82   */\n    tag_85:\n        /* \"#utility.yul\":40:46   */\n      0x00\n        /* \"#utility.yul\":73:75   */\n      0x40\n        /* \"#utility.yul\":67:76   */\n      mload\n        /* \"#utility.yul\":57:76   */\n      swap1\n      pop\n        /* \"#utility.yul\":7:82   */\n      swap1\n      jump\t// out\n        /* \"#utility.yul\":88:205   */\n    tag_86:\n        /* \"#utility.yul\":197:198   */\n      0x00\n        /* \"#utility.yul\":194:195   */\n      dup1\n        /* \"#utility.yul\":187:199   */\n      revert\n        /* \"#utility.yul\":211:328   */\n    tag_87:\n        /* \"#utility.yul\":320:321   */\n      0x00\n        /* \"#utility.yul\":317:318   */\n      dup1\n        /* \"#utility.yul\":310:322   */\n      revert\n        /* \"#utility.yul\":334:451   */\n    tag_88:\n        /* \"#utility.yul\":443:444   */\n      0x00\n        /* \"#utility.yul\":440:441   */\n      dup1\n        /* \"#utility.yul\":433:445   */\n      revert\n        /* \"#utility.yul\":457:574   */\n    tag_89:\n        /* \"#utility.yul\":566:567   */\n      0x00\n        /* \"#utility.yul\":563:564   */\n      dup1\n        /* \"#utility.yul\":556:568   */\n      revert\n        /* \"#utility.yul\":580:682   */\n    tag_90:\n        /* \"#utility.yul\":621:627   */\n      0x00\n        /* \"#utility.yul\":672:674   */\n      0x1f\n        /* \"#utility.yul\":668:675   */\n      not\n        /* \"#utility.yul\":663:665   */\n      0x1f\n        /* \"#utility.yul\":656:661   */\n      dup4\n        /* \"#utility.yul\":652:666   */\n      add\n        /* \"#utility.yul\":648:676   */\n      and\n        /* \"#utility.yul\":638:676   */\n      swap1\n      pop\n        /* \"#utility.yul\":580:682   */\n      swap2\n      swap1\n      pop\n      jump\t// out\n        /* \"#utility.yul\":688:868   */\n    tag_91:\n        /* \"#utility.yul\":736:813   */\n      0x4e487b7100000000000000000000000000000000000000000000000000000000\n        /* \"#utility.yul\":733:734   */\n      0x00\n        /* \"#utility.yul\":726:814   */\n      mstore\n        /* \"#utility.yul\":833:837   */\n      0x41\n        /* \"#utility.yul\":830:831   */\n      0x04\n        /* \"#utility.yul\":823:838   */\n      mstore\n        /* \"#utility.yul\":857:861   */\n      0x24\n        /* \"#utility.yul\":854:855   */\n      0x00\n        /* \"#utility.yul\":847:862   */\n      revert\n        /* \"#utility.yul\":874:1155   */\n    tag_92:\n        /* \"#utility.yul\":957:984   */\n      tag_140\n        /* \"#utility.yul\":979:983   */\n      dup3\n        /* \"#utility.yul\":957:984   */\n      tag_90\n      jump\t// in\n    tag_140:\n        /* \"#utility.yul\":949:955   */\n      dup2\n        /* \"#utility.yul\":945:985   */\n      add\n        /* \"#utility.yul\":1087:1093   */\n      dup2\n        /* \"#utility.yul\":1075:1085   */\n      dup2\n        /* \"#utility.yul\":1072:1094   */\n      lt\n        /* \"#utility.yul\":1051:1069   */\n      0xffffffffffffffff\n        /* \"#utility.yul\":1039:1049   */\n      dup3\n        /* \"#utility.yul\":1036:1070   */\n      gt\n        /* \"#utility.yul\":1033:1095   */\n      or\n        /* \"#utility.yul\":1030:1118   */\n      iszero\n      tag_141\n      jumpi\n        /* \"#utility.yul\":1098:1116   */\n      tag_142\n      tag_91\n      jump\t// in\n    tag_142:\n        /* \"#utility.yul\":1030:1118   */\n    tag_141:\n        /* \"#utility.yul\":1138:1148   */\n      dup1\n        /* \"#utility.yul\":1134:1136   */\n      0x40\n        /* \"#utility.yul\":1127:1149   */\n      mstore\n        /* \"#utility.yul\":917:1155   */\n      pop\n        /* \"#utility.yul\":874:1155   */\n      pop\n      pop\n      jump\t// out\n        /* \"#utility.yul\":1161:1290   */\n    tag_93:\n        /* \"#utility.yul\":1195:1201   */\n      0x00\n        /* \"#utility.yul\":1222:1242   */\n      tag_144\n      tag_85\n      jump\t// in\n    tag_144:\n        /* \"#utility.yul\":1212:1242   */\n      swap1\n      pop\n        /* \"#utility.yul\":1251:1284   */\n      tag_145\n        /* \"#utility.yul\":1279:1283   */\n      dup3\n        /* \"#utility.yul\":1271:1277   */\n      dup3\n        /* \"#utility.yul\":1251:1284   */\n      tag_92\n      jump\t// in\n    tag_145:\n        /* \"#utility.yul\":1161:1290   */\n      swap2\n      swap1\n      pop\n      jump\t// out\n        /* \"#utility.yul\":1296:1604   */\n    tag_94:\n        /* \"#utility.yul\":1358:1362   */\n      0x00\n        /* \"#utility.yul\":1448:1466   */\n      0xffffffffffffffff\n        /* \"#utility.yul\":1440:1446   */\n      dup3\n        /* \"#utility.yul\":1437:1467   */\n      gt\n        /* \"#utility.yul\":1434:1490   */\n      iszero\n      tag_147\n      jumpi\n        /* \"#utility.yul\":1470:1488   */\n      tag_148\n      tag_91\n      jump\t// in\n    tag_148:\n        /* \"#utility.yul\":1434:1490   */\n    tag_147:\n        /* \"#utility.yul\":1508:1537   */\n      tag_149\n        /* \"#utility.yul\":1530:1536   */\n      dup3\n        /* \"#utility.yul\":1508:1537   */\n      tag_90\n      jump\t// in\n    tag_149:\n        /* \"#utility.yul\":1500:1537   */\n      swap1\n      pop\n        /* \"#utility.yul\":1592:1596   */\n      0x20\n        /* \"#utility.yul\":1586:1590   */\n      dup2\n        /* \"#utility.yul\":1582:1597   */\n      add\n        /* \"#utility.yul\":1574:1597   */\n      swap1\n      pop\n        /* \"#utility.yul\":1296:1604   */\n      swap2\n      swap1\n      pop\n      jump\t// out\n        /* \"#utility.yul\":1610:1756   */\n    tag_95:\n        /* \"#utility.yul\":1707:1713   */\n      dup3\n        /* \"#utility.yul\":1702:1705   */\n      dup2\n        /* \"#utility.yul\":1697:1700   */\n      dup4\n        /* \"#utility.yul\":1684:1714   */\n      calldatacopy\n        /* \"#utility.yul\":1748:1749   */\n      0x00\n        /* \"#utility.yul\":1739:1745   */\n      dup4\n        /* \"#utility.yul\":1734:1737   */\n      dup4\n        /* \"#utility.yul\":1730:1746   */\n      add\n        /* \"#utility.yul\":1723:1750   */\n      mstore\n        /* \"#utility.yul\":1610:1756   */\n      pop\n      pop\n      pop\n      jump\t// out\n        /* \"#utility.yul\":1762:2187   */\n    tag_96:\n        /* \"#utility.yul\":1840:1845   */\n      0x00\n        /* \"#utility.yul\":1865:1931   */\n      tag_152\n        /* \"#utility.yul\":1881:1930   */\n      tag_153\n        /* \"#utility.yul\":1923:1929   */\n      dup5\n        /* \"#utility.yul\":1881:1930   */\n      tag_94\n      jump\t// in\n    tag_153:\n        /* \"#utility.yul\":1865:1931   */\n      tag_93\n      jump\t// in\n    tag_152:\n        /* \"#utility.yul\":1856:1931   */\n      swap1\n      pop\n        /* \"#utility.yul\":1954:1960   */\n      dup3\n        /* \"#utility.yul\":1947:1952   */\n      dup2\n        /* \"#utility.yul\":1940:1961   */\n      mstore\n        /* \"#utility.yul\":1992:1996   */\n      0x20\n        /* \"#utility.yul\":1985:1990   */\n      dup2\n        /* \"#utility.yul\":1981:1997   */\n      add\n        /* \"#utility.yul\":2030:2033   */\n      dup5\n        /* \"#utility.yul\":2021:2027   */\n      dup5\n        /* \"#utility.yul\":2016:2019   */\n      dup5\n        /* \"#utility.yul\":2012:2028   */\n      add\n        /* \"#utility.yul\":2009:2034   */\n      gt\n        /* \"#utility.yul\":2006:2118   */\n      iszero\n      tag_154\n      jumpi\n        /* \"#utility.yul\":2037:2116   */\n      tag_155\n      tag_89\n      jump\t// in\n    tag_155:\n        /* \"#utility.yul\":2006:2118   */\n    tag_154:\n        /* \"#utility.yul\":2127:2181   */\n      tag_156\n        /* \"#utility.yul\":2174:2180   */\n      dup5\n        /* \"#utility.yul\":2169:2172   */\n      dup3\n        /* \"#utility.yul\":2164:2167   */\n      dup6\n        /* \"#utility.yul\":2127:2181   */\n      tag_95\n      jump\t// in\n    tag_156:\n        /* \"#utility.yul\":1846:2187   */\n      pop\n        /* \"#utility.yul\":1762:2187   */\n      swap4\n      swap3\n      pop\n      pop\n      pop\n      jump\t// out\n        /* \"#utility.yul\":2207:2547   */\n    tag_97:\n        /* \"#utility.yul\":2263:2268   */\n      0x00\n        /* \"#utility.yul\":2312:2315   */\n      dup3\n        /* \"#utility.yul\":2305:2309   */\n      0x1f\n        /* \"#utility.yul\":2297:2303   */\n      dup4\n        /* \"#utility.yul\":2293:2310   */\n      add\n        /* \"#utility.yul\":2289:2316   */\n      slt\n        /* \"#utility.yul\":2279:2401   */\n      tag_158\n      jumpi\n        /* \"#utility.yul\":2320:2399   */\n      tag_159\n      tag_88\n      jump\t// in\n    tag_159:\n        /* \"#utility.yul\":2279:2401   */\n    tag_158:\n        /* \"#utility.yul\":2437:2443   */\n      dup2\n        /* \"#utility.yul\":2424:2444   */\n      calldataload\n        /* \"#utility.yul\":2462:2541   */\n      tag_160\n        /* \"#utility.yul\":2537:2540   */\n      dup5\n        /* \"#utility.yul\":2529:2535   */\n      dup3\n        /* \"#utility.yul\":2522:2526   */\n      0x20\n        /* \"#utility.yul\":2514:2520   */\n      dup7\n        /* \"#utility.yul\":2510:2527   */\n      add\n        /* \"#utility.yul\":2462:2541   */\n      tag_96\n      jump\t// in\n    tag_160:\n        /* \"#utility.yul\":2453:2541   */\n      swap2\n      pop\n        /* \"#utility.yul\":2269:2547   */\n      pop\n        /* \"#utility.yul\":2207:2547   */\n      swap3\n      swap2\n      pop\n      pop\n      jump\t// out\n        /* \"#utility.yul\":2553:2630   */\n    tag_98:\n        /* \"#utility.yul\":2590:2597   */\n      0x00\n        /* \"#utility.yul\":2619:2624   */\n      dup2\n        /* \"#utility.yul\":2608:2624   */\n      swap1\n      pop\n        /* \"#utility.yul\":2553:2630   */\n      swap2\n      swap1\n      pop\n      jump\t// out\n        /* \"#utility.yul\":2636:2758   */\n    tag_99:\n        /* \"#utility.yul\":2709:2733   */\n      tag_163\n        /* \"#utility.yul\":2727:2732   */\n      dup2\n        /* \"#utility.yul\":2709:2733   */\n      tag_98\n      jump\t// in\n    tag_163:\n        /* \"#utility.yul\":2702:2707   */\n      dup2\n        /* \"#utility.yul\":2699:2734   */\n      eq\n        /* \"#utility.yul\":2689:2752   */\n      tag_164\n      jumpi\n        /* \"#utility.yul\":2748:2749   */\n      0x00\n        /* \"#utility.yul\":2745:2746   */\n      dup1\n        /* \"#utility.yul\":2738:2750   */\n      revert\n        /* \"#utility.yul\":2689:2752   */\n    tag_164:\n        /* \"#utility.yul\":2636:2758   */\n      pop\n      jump\t// out\n        /* \"#utility.yul\":2764:2903   */\n    tag_100:\n        /* \"#utility.yul\":2810:2815   */\n      0x00\n        /* \"#utility.yul\":2848:2854   */\n      dup2\n        /* \"#utility.yul\":2835:2855   */\n      calldataload\n        /* \"#utility.yul\":2826:2855   */\n      swap1\n      pop\n        /* \"#utility.yul\":2864:2897   */\n      tag_166\n        /* \"#utility.yul\":2891:2896   */\n      dup2\n        /* \"#utility.yul\":2864:2897   */\n      tag_99\n      jump\t// in\n    tag_166:\n        /* \"#utility.yul\":2764:2903   */\n      swap3\n      swap2\n      pop\n      pop\n      jump\t// out\n        /* \"#utility.yul\":2909:4180   */\n    tag_14:\n        /* \"#utility.yul\":3024:3030   */\n      0x00\n        /* \"#utility.yul\":3032:3038   */\n      dup1\n        /* \"#utility.yul\":3040:3046   */\n      0x00\n        /* \"#utility.yul\":3048:3054   */\n      dup1\n        /* \"#utility.yul\":3056:3062   */\n      0x00\n        /* \"#utility.yul\":3105:3108   */\n      0xa0\n        /* \"#utility.yul\":3093:3102   */\n      dup7\n        /* \"#utility.yul\":3084:3091   */\n      dup9\n        /* \"#utility.yul\":3080:3103   */\n      sub\n        /* \"#utility.yul\":3076:3109   */\n      slt\n        /* \"#utility.yul\":3073:3193   */\n      iszero\n      tag_168\n      jumpi\n        /* \"#utility.yul\":3112:3191   */\n      tag_169\n      tag_86\n      jump\t// in\n    tag_169:\n        /* \"#utility.yul\":3073:3193   */\n    tag_168:\n        /* \"#utility.yul\":3260:3261   */\n      0x00\n        /* \"#utility.yul\":3249:3258   */\n      dup7\n        /* \"#utility.yul\":3245:3262   */\n      add\n        /* \"#utility.yul\":3232:3263   */\n      calldataload\n        /* \"#utility.yul\":3290:3308   */\n      0xffffffffffffffff\n        /* \"#utility.yul\":3282:3288   */\n      dup2\n        /* \"#utility.yul\":3279:3309   */\n      gt\n        /* \"#utility.yul\":3276:3393   */\n      iszero\n      tag_170\n      jumpi\n        /* \"#utility.yul\":3312:3391   */\n      tag_171\n      tag_87\n      jump\t// in\n    tag_171:\n        /* \"#utility.yul\":3276:3393   */\n    tag_170:\n        /* \"#utility.yul\":3417:3480   */\n      tag_172\n        /* \"#utility.yul\":3472:3479   */\n      dup9\n        /* \"#utility.yul\":3463:3469   */\n      dup3\n        /* \"#utility.yul\":3452:3461   */\n      dup10\n        /* \"#utility.yul\":3448:3470   */\n      add\n        /* \"#utility.yul\":3417:3480   */\n      tag_97\n      jump\t// in\n    tag_172:\n        /* \"#utility.yul\":3407:3480   */\n      swap6\n      pop\n        /* \"#utility.yul\":3203:3490   */\n      pop\n        /* \"#utility.yul\":3529:3531   */\n      0x20\n        /* \"#utility.yul\":3555:3608   */\n      tag_173\n        /* \"#utility.yul\":3600:3607   */\n      dup9\n        /* \"#utility.yul\":3591:3597   */\n      dup3\n        /* \"#utility.yul\":3580:3589   */\n      dup10\n        /* \"#utility.yul\":3576:3598   */\n      add\n        /* \"#utility.yul\":3555:3608   */\n      tag_100\n      jump\t// in\n    tag_173:\n        /* \"#utility.yul\":3545:3608   */\n      swap5\n      pop\n        /* \"#utility.yul\":3500:3618   */\n      pop\n        /* \"#utility.yul\":3657:3659   */\n      0x40\n        /* \"#utility.yul\":3683:3736   */\n      tag_174\n        /* \"#utility.yul\":3728:3735   */\n      dup9\n        /* \"#utility.yul\":3719:3725   */\n      dup3\n        /* \"#utility.yul\":3708:3717   */\n      dup10\n        /* \"#utility.yul\":3704:3726   */\n      add\n        /* \"#utility.yul\":3683:3736   */\n      tag_100\n      jump\t// in\n    tag_174:\n        /* \"#utility.yul\":3673:3736   */\n      swap4\n      pop\n        /* \"#utility.yul\":3628:3746   */\n      pop\n        /* \"#utility.yul\":3785:3787   */\n      0x60\n        /* \"#utility.yul\":3811:3864   */\n      tag_175\n        /* \"#utility.yul\":3856:3863   */\n      dup9\n        /* \"#utility.yul\":3847:3853   */\n      dup3\n        /* \"#utility.yul\":3836:3845   */\n      dup10\n        /* \"#utility.yul\":3832:3854   */\n      add\n        /* \"#utility.yul\":3811:3864   */\n      tag_100\n      jump\t// in\n    tag_175:\n        /* \"#utility.yul\":3801:3864   */\n      swap3\n      pop\n        /* \"#utility.yul\":3756:3874   */\n      pop\n        /* \"#utility.yul\":3941:3944   */\n      0x80\n        /* \"#utility.yul\":3930:3939   */\n      dup7\n        /* \"#utility.yul\":3926:3945   */\n      add\n        /* \"#utility.yul\":3913:3946   */\n      calldataload\n        /* \"#utility.yul\":3973:3991   */\n      0xffffffffffffffff\n        /* \"#utility.yul\":3965:3971   */\n      dup2\n        /* \"#utility.yul\":3962:3992   */\n      gt\n        /* \"#utility.yul\":3959:4076   */\n      iszero\n      tag_176\n      jumpi\n        /* \"#utility.yul\":3995:4074   */\n      tag_177\n      tag_87\n      jump\t// in\n    tag_177:\n        /* \"#utility.yul\":3959:4076   */\n    tag_176:\n        /* \"#utility.yul\":4100:4163   */\n      tag_178\n        /* \"#utility.yul\":4155:4162   */\n      dup9\n        /* \"#utility.yul\":4146:4152   */\n      dup3\n        /* \"#utility.yul\":4135:4144   */\n      dup10\n        /* \"#utility.yul\":4131:4153   */\n      add\n        /* \"#utility.yul\":4100:4163   */\n      tag_97\n      jump\t// in\n    tag_178:\n        /* \"#utility.yul\":4090:4163   */\n      swap2\n      pop\n        /* \"#utility.yul\":3884:4173   */\n      pop\n        /* \"#utility.yul\":2909:4180   */\n      swap3\n      swap6\n      pop\n      swap3\n      swap6\n      swap1\n      swap4\n      pop\n      jump\t// out\n        /* \"#utility.yul\":4186:4840   */\n    tag_18:\n        /* \"#utility.yul\":4264:4270   */\n      0x00\n        /* \"#utility.yul\":4272:4278   */\n      dup1\n        /* \"#utility.yul\":4321:4323   */\n      0x40\n        /* \"#utility.yul\":4309:4318   */\n      dup4\n        /* \"#utility.yul\":4300:4307   */\n      dup6\n        /* \"#utility.yul\":4296:4319   */\n      sub\n        /* \"#utility.yul\":4292:4324   */\n      slt\n        /* \"#utility.yul\":4289:4408   */\n      iszero\n      tag_180\n      jumpi\n        /* \"#utility.yul\":4327:4406   */\n      tag_181\n      tag_86\n      jump\t// in\n    tag_181:\n        /* \"#utility.yul\":4289:4408   */\n    tag_180:\n        /* \"#utility.yul\":4447:4448   */\n      0x00\n        /* \"#utility.yul\":4472:4525   */\n      tag_182\n        /* \"#utility.yul\":4517:4524   */\n      dup6\n        /* \"#utility.yul\":4508:4514   */\n      dup3\n        /* \"#utility.yul\":4497:4506   */\n      dup7\n        /* \"#utility.yul\":4493:4515   */\n      add\n        /* \"#utility.yul\":4472:4525   */\n      tag_100\n      jump\t// in\n    tag_182:\n        /* \"#utility.yul\":4462:4525   */\n      swap3\n      pop\n        /* \"#utility.yul\":4418:4535   */\n      pop\n        /* \"#utility.yul\":4602:4604   */\n      0x20\n        /* \"#utility.yul\":4591:4600   */\n      dup4\n        /* \"#utility.yul\":4587:4605   */\n      add\n        /* \"#utility.yul\":4574:4606   */\n      calldataload\n        /* \"#utility.yul\":4633:4651   */\n      0xffffffffffffffff\n        /* \"#utility.yul\":4625:4631   */\n      dup2\n        /* \"#utility.yul\":4622:4652   */\n      gt\n        /* \"#utility.yul\":4619:4736   */\n      iszero\n      tag_183\n      jumpi\n        /* \"#utility.yul\":4655:4734   */\n      tag_184\n      tag_87\n      jump\t// in\n    tag_184:\n        /* \"#utility.yul\":4619:4736   */\n    tag_183:\n        /* \"#utility.yul\":4760:4823   */\n      tag_185\n        /* \"#utility.yul\":4815:4822   */\n      dup6\n        /* \"#utility.yul\":4806:4812   */\n      dup3\n        /* \"#utility.yul\":4795:4804   */\n      dup7\n        /* \"#utility.yul\":4791:4813   */\n      add\n        /* \"#utility.yul\":4760:4823   */\n      tag_97\n      jump\t// in\n    tag_185:\n        /* \"#utility.yul\":4750:4823   */\n      swap2\n      pop\n        /* \"#utility.yul\":4545:4833   */\n      pop\n        /* \"#utility.yul\":4186:4840   */\n      swap3\n      pop\n      swap3\n      swap1\n      pop\n      jump\t// out\n        /* \"#utility.yul\":4846:4972   */\n    tag_101:\n        /* \"#utility.yul\":4883:4890   */\n      0x00\n        /* \"#utility.yul\":4923:4965   */\n      0xffffffffffffffffffffffffffffffffffffffff\n        /* \"#utility.yul\":4916:4921   */\n      dup3\n        /* \"#utility.yul\":4912:4966   */\n      and\n        /* \"#utility.yul\":4901:4966   */\n      swap1\n      pop\n        /* \"#utility.yul\":4846:4972   */\n      swap2\n      swap1\n      pop\n      jump\t// out\n        /* \"#utility.yul\":4978:5074   */\n    tag_102:\n        /* \"#utility.yul\":5015:5022   */\n      0x00\n        /* \"#utility.yul\":5044:5068   */\n      tag_188\n        /* \"#utility.yul\":5062:5067   */\n      dup3\n        /* \"#utility.yul\":5044:5068   */\n      tag_101\n      jump\t// in\n    tag_188:\n        /* \"#utility.yul\":5033:5068   */\n      swap1\n      pop\n        /* \"#utility.yul\":4978:5074   */\n      swap2\n      swap1\n      pop\n      jump\t// out\n        /* \"#utility.yul\":5080:5198   */\n    tag_103:\n        /* \"#utility.yul\":5167:5191   */\n      tag_190\n        /* \"#utility.yul\":5185:5190   */\n      dup2\n        /* \"#utility.yul\":5167:5191   */\n      tag_102\n      jump\t// in\n    tag_190:\n        /* \"#utility.yul\":5162:5165   */\n      dup3\n        /* \"#utility.yul\":5155:5192   */\n      mstore\n        /* \"#utility.yul\":5080:5198   */\n      pop\n      pop\n      jump\t// out\n        /* \"#utility.yul\":5204:5303   */\n    tag_104:\n        /* \"#utility.yul\":5256:5262   */\n      0x00\n        /* \"#utility.yul\":5290:5295   */\n      dup2\n        /* \"#utility.yul\":5284:5296   */\n      mload\n        /* \"#utility.yul\":5274:5296   */\n      swap1\n      pop\n        /* \"#utility.yul\":5204:5303   */\n      swap2\n      swap1\n      pop\n      jump\t// out\n        /* \"#utility.yul\":5309:5478   */\n    tag_105:\n        /* \"#utility.yul\":5393:5404   */\n      0x00\n        /* \"#utility.yul\":5427:5433   */\n      dup3\n        /* \"#utility.yul\":5422:5425   */\n      dup3\n        /* \"#utility.yul\":5415:5434   */\n      mstore\n        /* \"#utility.yul\":5467:5471   */\n      0x20\n        /* \"#utility.yul\":5462:5465   */\n      dup3\n        /* \"#utility.yul\":5458:5472   */\n      add\n        /* \"#utility.yul\":5443:5472   */\n      swap1\n      pop\n        /* \"#utility.yul\":5309:5478   */\n      swap3\n      swap2\n      pop\n      pop\n      jump\t// out\n        /* \"#utility.yul\":5484:5730   */\n    tag_106:\n        /* \"#utility.yul\":5565:5566   */\n      0x00\n        /* \"#utility.yul\":5575:5688   */\n    tag_194:\n        /* \"#utility.yul\":5589:5595   */\n      dup4\n        /* \"#utility.yul\":5586:5587   */\n      dup2\n        /* \"#utility.yul\":5583:5596   */\n      lt\n        /* \"#utility.yul\":5575:5688   */\n      iszero\n      tag_196\n      jumpi\n        /* \"#utility.yul\":5674:5675   */\n      dup1\n        /* \"#utility.yul\":5669:5672   */\n      dup3\n        /* \"#utility.yul\":5665:5676   */\n      add\n        /* \"#utility.yul\":5659:5677   */\n      mload\n        /* \"#utility.yul\":5655:5656   */\n      dup2\n        /* \"#utility.yul\":5650:5653   */\n      dup5\n        /* \"#utility.yul\":5646:5657   */\n      add\n        /* \"#utility.yul\":5639:5678   */\n      mstore\n        /* \"#utility.yul\":5611:5613   */\n      0x20\n        /* \"#utility.yul\":5608:5609   */\n      dup2\n        /* \"#utility.yul\":5604:5614   */\n      add\n        /* \"#utility.yul\":5599:5614   */\n      swap1\n      pop\n        /* \"#utility.yul\":5575:5688   */\n      jump(tag_194)\n    tag_196:\n        /* \"#utility.yul\":5722:5723   */\n      0x00\n        /* \"#utility.yul\":5713:5719   */\n      dup5\n        /* \"#utility.yul\":5708:5711   */\n      dup5\n        /* \"#utility.yul\":5704:5720   */\n      add\n        /* \"#utility.yul\":5697:5724   */\n      mstore\n        /* \"#utility.yul\":5546:5730   */\n      pop\n        /* \"#utility.yul\":5484:5730   */\n      pop\n      pop\n      pop\n      jump\t// out\n        /* \"#utility.yul\":5736:6113   */\n    tag_107:\n        /* \"#utility.yul\":5824:5827   */\n      0x00\n        /* \"#utility.yul\":5852:5891   */\n      tag_198\n        /* \"#utility.yul\":5885:5890   */\n      dup3\n        /* \"#utility.yul\":5852:5891   */\n      tag_104\n      jump\t// in\n    tag_198:\n        /* \"#utility.yul\":5907:5978   */\n      tag_199\n        /* \"#utility.yul\":5971:5977   */\n      dup2\n        /* \"#utility.yul\":5966:5969   */\n      dup6\n        /* \"#utility.yul\":5907:5978   */\n      tag_105\n      jump\t// in\n    tag_199:\n        /* \"#utility.yul\":5900:5978   */\n      swap4\n      pop\n        /* \"#utility.yul\":5987:6052   */\n      tag_200\n        /* \"#utility.yul\":6045:6051   */\n      dup2\n        /* \"#utility.yul\":6040:6043   */\n      dup6\n        /* \"#utility.yul\":6033:6037   */\n      0x20\n        /* \"#utility.yul\":6026:6031   */\n      dup7\n        /* \"#utility.yul\":6022:6038   */\n      add\n        /* \"#utility.yul\":5987:6052   */\n      tag_106\n      jump\t// in\n    tag_200:\n        /* \"#utility.yul\":6077:6106   */\n      tag_201\n        /* \"#utility.yul\":6099:6105   */\n      dup2\n        /* \"#utility.yul\":6077:6106   */\n      tag_90\n      jump\t// in\n    tag_201:\n        /* \"#utility.yul\":6072:6075   */\n      dup5\n        /* \"#utility.yul\":6068:6107   */\n      add\n        /* \"#utility.yul\":6061:6107   */\n      swap2\n      pop\n        /* \"#utility.yul\":5828:6113   */\n      pop\n        /* \"#utility.yul\":5736:6113   */\n      swap3\n      swap2\n      pop\n      pop\n      jump\t// out\n        /* \"#utility.yul\":6119:6237   */\n    tag_108:\n        /* \"#utility.yul\":6206:6230   */\n      tag_203\n        /* \"#utility.yul\":6224:6229   */\n      dup2\n        /* \"#utility.yul\":6206:6230   */\n      tag_98\n      jump\t// in\n    tag_203:\n        /* \"#utility.yul\":6201:6204   */\n      dup3\n        /* \"#utility.yul\":6194:6231   */\n      mstore\n        /* \"#utility.yul\":6119:6237   */\n      pop\n      pop\n      jump\t// out\n        /* \"#utility.yul\":6243:7311   */\n    tag_21:\n        /* \"#utility.yul\":6544:6548   */\n      0x00\n        /* \"#utility.yul\":6582:6585   */\n      0xe0\n        /* \"#utility.yul\":6571:6580   */\n      dup3\n        /* \"#utility.yul\":6567:6586   */\n      add\n        /* \"#utility.yul\":6559:6586   */\n      swap1\n      pop\n        /* \"#utility.yul\":6596:6667   */\n      tag_205\n        /* \"#utility.yul\":6664:6665   */\n      0x00\n        /* \"#utility.yul\":6653:6662   */\n      dup4\n        /* \"#utility.yul\":6649:6666   */\n      add\n        /* \"#utility.yul\":6640:6646   */\n      dup11\n        /* \"#utility.yul\":6596:6667   */\n      tag_103\n      jump\t// in\n    tag_205:\n        /* \"#utility.yul\":6714:6723   */\n      dup2\n        /* \"#utility.yul\":6708:6712   */\n      dup2\n        /* \"#utility.yul\":6704:6724   */\n      sub\n        /* \"#utility.yul\":6699:6701   */\n      0x20\n        /* \"#utility.yul\":6688:6697   */\n      dup4\n        /* \"#utility.yul\":6684:6702   */\n      add\n        /* \"#utility.yul\":6677:6725   */\n      mstore\n        /* \"#utility.yul\":6742:6820   */\n      tag_206\n        /* \"#utility.yul\":6815:6819   */\n      dup2\n        /* \"#utility.yul\":6806:6812   */\n      dup10\n        /* \"#utility.yul\":6742:6820   */\n      tag_107\n      jump\t// in\n    tag_206:\n        /* \"#utility.yul\":6734:6820   */\n      swap1\n      pop\n        /* \"#utility.yul\":6830:6902   */\n      tag_207\n        /* \"#utility.yul\":6898:6900   */\n      0x40\n        /* \"#utility.yul\":6887:6896   */\n      dup4\n        /* \"#utility.yul\":6883:6901   */\n      add\n        /* \"#utility.yul\":6874:6880   */\n      dup9\n        /* \"#utility.yul\":6830:6902   */\n      tag_108\n      jump\t// in\n    tag_207:\n        /* \"#utility.yul\":6912:6984   */\n      tag_208\n        /* \"#utility.yul\":6980:6982   */\n      0x60\n        /* \"#utility.yul\":6969:6978   */\n      dup4\n        /* \"#utility.yul\":6965:6983   */\n      add\n        /* \"#utility.yul\":6956:6962   */\n      dup8\n        /* \"#utility.yul\":6912:6984   */\n      tag_108\n      jump\t// in\n    tag_208:\n        /* \"#utility.yul\":6994:7067   */\n      tag_209\n        /* \"#utility.yul\":7062:7065   */\n      0x80\n        /* \"#utility.yul\":7051:7060   */\n      dup4\n        /* \"#utility.yul\":7047:7066   */\n      add\n        /* \"#utility.yul\":7038:7044   */\n      dup7\n        /* \"#utility.yul\":6994:7067   */\n      tag_108\n      jump\t// in\n    tag_209:\n        /* \"#utility.yul\":7077:7150   */\n      tag_210\n        /* \"#utility.yul\":7145:7148   */\n      0xa0\n        /* \"#utility.yul\":7134:7143   */\n      dup4\n        /* \"#utility.yul\":7130:7149   */\n      add\n        /* \"#utility.yul\":7121:7127   */\n      dup6\n        /* \"#utility.yul\":7077:7150   */\n      tag_108\n      jump\t// in\n    tag_210:\n        /* \"#utility.yul\":7198:7207   */\n      dup2\n        /* \"#utility.yul\":7192:7196   */\n      dup2\n        /* \"#utility.yul\":7188:7208   */\n      sub\n        /* \"#utility.yul\":7182:7185   */\n      0xc0\n        /* \"#utility.yul\":7171:7180   */\n      dup4\n        /* \"#utility.yul\":7167:7186   */\n      add\n        /* \"#utility.yul\":7160:7209   */\n      mstore\n        /* \"#utility.yul\":7226:7304   */\n      tag_211\n        /* \"#utility.yul\":7299:7303   */\n      dup2\n        /* \"#utility.yul\":7290:7296   */\n      dup5\n        /* \"#utility.yul\":7226:7304   */\n      tag_107\n      jump\t// in\n    tag_211:\n        /* \"#utility.yul\":7218:7304   */\n      swap1\n      pop\n        /* \"#utility.yul\":6243:7311   */\n      swap9\n      swap8\n      pop\n      pop\n      pop\n      pop\n      pop\n      pop\n      pop\n      pop\n      jump\t// out\n        /* \"#utility.yul\":7317:7826   */\n    tag_24:\n        /* \"#utility.yul\":7386:7392   */\n      0x00\n        /* \"#utility.yul\":7435:7437   */\n      0x20\n        /* \"#utility.yul\":7423:7432   */\n      dup3\n        /* \"#utility.yul\":7414:7421   */\n      dup5\n        /* \"#utility.yul\":7410:7433   */\n      sub\n        /* \"#utility.yul\":7406:7438   */\n      slt\n        /* \"#utility.yul\":7403:7522   */\n      iszero\n      tag_213\n      jumpi\n        /* \"#utility.yul\":7441:7520   */\n      tag_214\n      tag_86\n      jump\t// in\n    tag_214:\n        /* \"#utility.yul\":7403:7522   */\n    tag_213:\n        /* \"#utility.yul\":7589:7590   */\n      0x00\n        /* \"#utility.yul\":7578:7587   */\n      dup3\n        /* \"#utility.yul\":7574:7591   */\n      add\n        /* \"#utility.yul\":7561:7592   */\n      calldataload\n        /* \"#utility.yul\":7619:7637   */\n      0xffffffffffffffff\n        /* \"#utility.yul\":7611:7617   */\n      dup2\n        /* \"#utility.yul\":7608:7638   */\n      gt\n        /* \"#utility.yul\":7605:7722   */\n      iszero\n      tag_215\n      jumpi\n        /* \"#utility.yul\":7641:7720   */\n      tag_216\n      tag_87\n      jump\t// in\n    tag_216:\n        /* \"#utility.yul\":7605:7722   */\n    tag_215:\n        /* \"#utility.yul\":7746:7809   */\n      tag_217\n        /* \"#utility.yul\":7801:7808   */\n      dup5\n        /* \"#utility.yul\":7792:7798   */\n      dup3\n        /* \"#utility.yul\":7781:7790   */\n      dup6\n        /* \"#utility.yul\":7777:7799   */\n      add\n        /* \"#utility.yul\":7746:7809   */\n      tag_97\n      jump\t// in\n    tag_217:\n        /* \"#utility.yul\":7736:7809   */\n      swap2\n      pop\n        /* \"#utility.yul\":7532:7819   */\n      pop\n        /* \"#utility.yul\":7317:7826   */\n      swap3\n      swap2\n      pop\n      pop\n      jump\t// out\n        /* \"#utility.yul\":7832:8054   */\n    tag_27:\n        /* \"#utility.yul\":7925:7929   */\n      0x00\n        /* \"#utility.yul\":7963:7965   */\n      0x20\n        /* \"#utility.yul\":7952:7961   */\n      dup3\n        /* \"#utility.yul\":7948:7966   */\n      add\n        /* \"#utility.yul\":7940:7966   */\n      swap1\n      pop\n        /* \"#utility.yul\":7976:8047   */\n      tag_219\n        /* \"#utility.yul\":8044:8045   */\n      0x00\n        /* \"#utility.yul\":8033:8042   */\n      dup4\n        /* \"#utility.yul\":8029:8046   */\n      add\n        /* \"#utility.yul\":8020:8026   */\n      dup5\n        /* \"#utility.yul\":7976:8047   */\n      tag_108\n      jump\t// in\n    tag_219:\n        /* \"#utility.yul\":7832:8054   */\n      swap3\n      swap2\n      pop\n      pop\n      jump\t// out\n        /* \"#utility.yul\":8060:8534   */\n    tag_40:\n        /* \"#utility.yul\":8128:8134   */\n      0x00\n        /* \"#utility.yul\":8136:8142   */\n      dup1\n        /* \"#utility.yul\":8185:8187   */\n      0x40\n        /* \"#utility.yul\":8173:8182   */\n      dup4\n        /* \"#utility.yul\":8164:8171   */\n      dup6\n        /* \"#utility.yul\":8160:8183   */\n      sub\n        /* \"#utility.yul\":8156:8188   */\n      slt\n        /* \"#utility.yul\":8153:8272   */\n      iszero\n      tag_221\n      jumpi\n        /* \"#utility.yul\":8191:8270   */\n      tag_222\n      tag_86\n      jump\t// in\n    tag_222:\n        /* \"#utility.yul\":8153:8272   */\n    tag_221:\n        /* \"#utility.yul\":8311:8312   */\n      0x00\n        /* \"#utility.yul\":8336:8389   */\n      tag_223\n        /* \"#utility.yul\":8381:8388   */\n      dup6\n        /* \"#utility.yul\":8372:8378   */\n      dup3\n        /* \"#utility.yul\":8361:8370   */\n      dup7\n        /* \"#utility.yul\":8357:8379   */\n      add\n        /* \"#utility.yul\":8336:8389   */\n      tag_100\n      jump\t// in\n    tag_223:\n        /* \"#utility.yul\":8326:8389   */\n      swap3\n      pop\n        /* \"#utility.yul\":8282:8399   */\n      pop\n        /* \"#utility.yul\":8438:8440   */\n      0x20\n        /* \"#utility.yul\":8464:8517   */\n      tag_224\n        /* \"#utility.yul\":8509:8516   */\n      dup6\n        /* \"#utility.yul\":8500:8506   */\n      dup3\n        /* \"#utility.yul\":8489:8498   */\n      dup7\n        /* \"#utility.yul\":8485:8507   */\n      add\n        /* \"#utility.yul\":8464:8517   */\n      tag_100\n      jump\t// in\n    tag_224:\n        /* \"#utility.yul\":8454:8517   */\n      swap2\n      pop\n        /* \"#utility.yul\":8409:8527   */\n      pop\n        /* \"#utility.yul\":8060:8534   */\n      swap3\n      pop\n      swap3\n      swap1\n      pop\n      jump\t// out\n        /* \"#utility.yul\":8540:8662   */\n    tag_109:\n        /* \"#utility.yul\":8613:8637   */\n      tag_226\n        /* \"#utility.yul\":8631:8636   */\n      dup2\n        /* \"#utility.yul\":8613:8637   */\n      tag_102\n      jump\t// in\n    tag_226:\n        /* \"#utility.yul\":8606:8611   */\n      dup2\n        /* \"#utility.yul\":8603:8638   */\n      eq\n        /* \"#utility.yul\":8593:8656   */\n      tag_227\n      jumpi\n        /* \"#utility.yul\":8652:8653   */\n      0x00\n        /* \"#utility.yul\":8649:8650   */\n      dup1\n        /* \"#utility.yul\":8642:8654   */\n      revert\n        /* \"#utility.yul\":8593:8656   */\n    tag_227:\n        /* \"#utility.yul\":8540:8662   */\n      pop\n      jump\t// out\n        /* \"#utility.yul\":8668:8807   */\n    tag_110:\n        /* \"#utility.yul\":8714:8719   */\n      0x00\n        /* \"#utility.yul\":8752:8758   */\n      dup2\n        /* \"#utility.yul\":8739:8759   */\n      calldataload\n        /* \"#utility.yul\":8730:8759   */\n      swap1\n      pop\n        /* \"#utility.yul\":8768:8801   */\n      tag_229\n        /* \"#utility.yul\":8795:8800   */\n      dup2\n        /* \"#utility.yul\":8768:8801   */\n      tag_109\n      jump\t// in\n    tag_229:\n        /* \"#utility.yul\":8668:8807   */\n      swap3\n      swap2\n      pop\n      pop\n      jump\t// out\n        /* \"#utility.yul\":8813:9287   */\n    tag_44:\n        /* \"#utility.yul\":8881:8887   */\n      0x00\n        /* \"#utility.yul\":8889:8895   */\n      dup1\n        /* \"#utility.yul\":8938:8940   */\n      0x40\n        /* \"#utility.yul\":8926:8935   */\n      dup4\n        /* \"#utility.yul\":8917:8924   */\n      dup6\n        /* \"#utility.yul\":8913:8936   */\n      sub\n        /* \"#utility.yul\":8909:8941   */\n      slt\n        /* \"#utility.yul\":8906:9025   */\n      iszero\n      tag_231\n      jumpi\n        /* \"#utility.yul\":8944:9023   */\n      tag_232\n      tag_86\n      jump\t// in\n    tag_232:\n        /* \"#utility.yul\":8906:9025   */\n    tag_231:\n        /* \"#utility.yul\":9064:9065   */\n      0x00\n        /* \"#utility.yul\":9089:9142   */\n      tag_233\n        /* \"#utility.yul\":9134:9141   */\n      dup6\n        /* \"#utility.yul\":9125:9131   */\n      dup3\n        /* \"#utility.yul\":9114:9123   */\n      dup7\n        /* \"#utility.yul\":9110:9132   */\n      add\n        /* \"#utility.yul\":9089:9142   */\n      tag_110\n      jump\t// in\n    tag_233:\n        /* \"#utility.yul\":9079:9142   */\n      swap3\n      pop\n        /* \"#utility.yul\":9035:9152   */\n      pop\n        /* \"#utility.yul\":9191:9193   */\n      0x20\n        /* \"#utility.yul\":9217:9270   */\n      tag_234\n        /* \"#utility.yul\":9262:9269   */\n      dup6\n        /* \"#utility.yul\":9253:9259   */\n      dup3\n        /* \"#utility.yul\":9242:9251   */\n      dup7\n        /* \"#utility.yul\":9238:9260   */\n      add\n        /* \"#utility.yul\":9217:9270   */\n      tag_100\n      jump\t// in\n    tag_234:\n        /* \"#utility.yul\":9207:9270   */\n      swap2\n      pop\n        /* \"#utility.yul\":9162:9280   */\n      pop\n        /* \"#utility.yul\":8813:9287   */\n      swap3\n      pop\n      swap3\n      swap1\n      pop\n      jump\t// out\n        /* \"#utility.yul\":9293:9441   */\n    tag_111:\n        /* \"#utility.yul\":9395:9406   */\n      0x00\n        /* \"#utility.yul\":9432:9435   */\n      dup2\n        /* \"#utility.yul\":9417:9435   */\n      swap1\n      pop\n        /* \"#utility.yul\":9293:9441   */\n      swap3\n      swap2\n      pop\n      pop\n      jump\t// out\n        /* \"#utility.yul\":9447:9837   */\n    tag_112:\n        /* \"#utility.yul\":9553:9556   */\n      0x00\n        /* \"#utility.yul\":9581:9620   */\n      tag_237\n        /* \"#utility.yul\":9614:9619   */\n      dup3\n        /* \"#utility.yul\":9581:9620   */\n      tag_104\n      jump\t// in\n    tag_237:\n        /* \"#utility.yul\":9636:9725   */\n      tag_238\n        /* \"#utility.yul\":9718:9724   */\n      dup2\n        /* \"#utility.yul\":9713:9716   */\n      dup6\n        /* \"#utility.yul\":9636:9725   */\n      tag_111\n      jump\t// in\n    tag_238:\n        /* \"#utility.yul\":9629:9725   */\n      swap4\n      pop\n        /* \"#utility.yul\":9734:9799   */\n      tag_239\n        /* \"#utility.yul\":9792:9798   */\n      dup2\n        /* \"#utility.yul\":9787:9790   */\n      dup6\n        /* \"#utility.yul\":9780:9784   */\n      0x20\n        /* \"#utility.yul\":9773:9778   */\n      dup7\n        /* \"#utility.yul\":9769:9785   */\n      add\n        /* \"#utility.yul\":9734:9799   */\n      tag_106\n      jump\t// in\n    tag_239:\n        /* \"#utility.yul\":9824:9830   */\n      dup1\n        /* \"#utility.yul\":9819:9822   */\n      dup5\n        /* \"#utility.yul\":9815:9831   */\n      add\n        /* \"#utility.yul\":9808:9831   */\n      swap2\n      pop\n        /* \"#utility.yul\":9557:9837   */\n      pop\n        /* \"#utility.yul\":9447:9837   */\n      swap3\n      swap2\n      pop\n      pop\n      jump\t// out\n        /* \"#utility.yul\":9843:10118   */\n    tag_49:\n        /* \"#utility.yul\":9975:9978   */\n      0x00\n        /* \"#utility.yul\":9997:10092   */\n      tag_241\n        /* \"#utility.yul\":10088:10091   */\n      dup3\n        /* \"#utility.yul\":10079:10085   */\n      dup5\n        /* \"#utility.yul\":9997:10092   */\n      tag_112\n      jump\t// in\n    tag_241:\n        /* \"#utility.yul\":9990:10092   */\n      swap2\n      pop\n        /* \"#utility.yul\":10109:10112   */\n      dup2\n        /* \"#utility.yul\":10102:10112   */\n      swap1\n      pop\n        /* \"#utility.yul\":9843:10118   */\n      swap3\n      swap2\n      pop\n      pop\n      jump\t// out\n        /* \"#utility.yul\":10124:10304   */\n    tag_113:\n        /* \"#utility.yul\":10172:10249   */\n      0x4e487b7100000000000000000000000000000000000000000000000000000000\n        /* \"#utility.yul\":10169:10170   */\n      0x00\n        /* \"#utility.yul\":10162:10250   */\n      mstore\n        /* \"#utility.yul\":10269:10273   */\n      0x22\n        /* \"#utility.yul\":10266:10267   */\n      0x04\n        /* \"#utility.yul\":10259:10274   */\n      mstore\n        /* \"#utility.yul\":10293:10297   */\n      0x24\n        /* \"#utility.yul\":10290:10291   */\n      0x00\n        /* \"#utility.yul\":10283:10298   */\n      revert\n        /* \"#utility.yul\":10310:10630   */\n    tag_56:\n        /* \"#utility.yul\":10354:10360   */\n      0x00\n        /* \"#utility.yul\":10391:10392   */\n      0x02\n        /* \"#utility.yul\":10385:10389   */\n      dup3\n        /* \"#utility.yul\":10381:10393   */\n      div\n        /* \"#utility.yul\":10371:10393   */\n      swap1\n      pop\n        /* \"#utility.yul\":10438:10439   */\n      0x01\n        /* \"#utility.yul\":10432:10436   */\n      dup3\n        /* \"#utility.yul\":10428:10440   */\n      and\n        /* \"#utility.yul\":10459:10477   */\n      dup1\n        /* \"#utility.yul\":10449:10530   */\n      tag_244\n      jumpi\n        /* \"#utility.yul\":10515:10519   */\n      0x7f\n        /* \"#utility.yul\":10507:10513   */\n      dup3\n        /* \"#utility.yul\":10503:10520   */\n      and\n        /* \"#utility.yul\":10493:10520   */\n      swap2\n      pop\n        /* \"#utility.yul\":10449:10530   */\n    tag_244:\n        /* \"#utility.yul\":10577:10579   */\n      0x20\n        /* \"#utility.yul\":10569:10575   */\n      dup3\n        /* \"#utility.yul\":10566:10580   */\n      lt\n        /* \"#utility.yul\":10546:10564   */\n      dup2\n        /* \"#utility.yul\":10543:10581   */\n      sub\n        /* \"#utility.yul\":10540:10624   */\n      tag_245\n      jumpi\n        /* \"#utility.yul\":10596:10614   */\n      tag_246\n      tag_113\n      jump\t// in\n    tag_246:\n        /* \"#utility.yul\":10540:10624   */\n    tag_245:\n        /* \"#utility.yul\":10361:10630   */\n      pop\n        /* \"#utility.yul\":10310:10630   */\n      swap2\n      swap1\n      pop\n      jump\t// out\n        /* \"#utility.yul\":10636:10777   */\n    tag_114:\n        /* \"#utility.yul\":10685:10689   */\n      0x00\n        /* \"#utility.yul\":10708:10711   */\n      dup2\n        /* \"#utility.yul\":10700:10711   */\n      swap1\n      pop\n        /* \"#utility.yul\":10731:10734   */\n      dup2\n        /* \"#utility.yul\":10728:10729   */\n      0x00\n        /* \"#utility.yul\":10721:10735   */\n      mstore\n        /* \"#utility.yul\":10765:10769   */\n      0x20\n        /* \"#utility.yul\":10762:10763   */\n      0x00\n        /* \"#utility.yul\":10752:10770   */\n      keccak256\n        /* \"#utility.yul\":10744:10770   */\n      swap1\n      pop\n        /* \"#utility.yul\":10636:10777   */\n      swap2\n      swap1\n      pop\n      jump\t// out\n        /* \"#utility.yul\":10783:10876   */\n    tag_115:\n        /* \"#utility.yul\":10820:10826   */\n      0x00\n        /* \"#utility.yul\":10867:10869   */\n      0x20\n        /* \"#utility.yul\":10862:10864   */\n      0x1f\n        /* \"#utility.yul\":10855:10860   */\n      dup4\n        /* \"#utility.yul\":10851:10865   */\n      add\n        /* \"#utility.yul\":10847:10870   */\n      div\n        /* \"#utility.yul\":10837:10870   */\n      swap1\n      pop\n        /* \"#utility.yul\":10783:10876   */\n      swap2\n      swap1\n      pop\n      jump\t// out\n        /* \"#utility.yul\":10882:10989   */\n    tag_116:\n        /* \"#utility.yul\":10926:10934   */\n      0x00\n        /* \"#utility.yul\":10976:10981   */\n      dup3\n        /* \"#utility.yul\":10970:10974   */\n      dup3\n        /* \"#utility.yul\":10966:10982   */\n      shl\n        /* \"#utility.yul\":10945:10982   */\n      swap1\n      pop\n        /* \"#utility.yul\":10882:10989   */\n      swap3\n      swap2\n      pop\n      pop\n      jump\t// out\n        /* \"#utility.yul\":10995:11388   */\n    tag_117:\n        /* \"#utility.yul\":11064:11070   */\n      0x00\n        /* \"#utility.yul\":11114:11115   */\n      0x08\n        /* \"#utility.yul\":11102:11112   */\n      dup4\n        /* \"#utility.yul\":11098:11116   */\n      mul\n        /* \"#utility.yul\":11137:11234   */\n      tag_251\n        /* \"#utility.yul\":11167:11233   */\n      0xffffffffffffffffffffffffffffffffffffffffffffffffffffffffffffffff\n        /* \"#utility.yul\":11156:11165   */\n      dup3\n        /* \"#utility.yul\":11137:11234   */\n      tag_116\n      jump\t// in\n    tag_251:\n        /* \"#utility.yul\":11255:11294   */\n      tag_252\n        /* \"#utility.yul\":11285:11293   */\n      dup7\n        /* \"#utility.yul\":11274:11283   */\n      dup4\n        /* \"#utility.yul\":11255:11294   */\n      tag_116\n      jump\t// in\n    tag_252:\n        /* \"#utility.yul\":11243:11294   */\n      swap6\n      pop\n        /* \"#utility.yul\":11327:11331   */\n      dup1\n        /* \"#utility.yul\":11323:11332   */\n      not\n        /* \"#utility.yul\":11316:11321   */\n      dup5\n        /* \"#utility.yul\":11312:11333   */\n      and\n        /* \"#utility.yul\":11303:11333   */\n      swap4\n      pop\n        /* \"#utility.yul\":11376:11380   */\n      dup1\n        /* \"#utility.yul\":11366:11374   */\n      dup7\n        /* \"#utility.yul\":11362:11381   */\n      and\n        /* \"#utility.yul\":11355:11360   */\n      dup5\n        /* \"#utility.yul\":11352:11382   */\n      or\n        /* \"#utility.yul\":11342:11382   */\n      swap3\n      pop\n        /* \"#utility.yul\":11071:11388   */\n      pop\n      pop\n        /* \"#utility.yul\":10995:11388   */\n      swap4\n      swap3\n      pop\n      pop\n      pop\n      jump\t// out\n        /* \"#utility.yul\":11394:11454   */\n    tag_118:\n        /* \"#utility.yul\":11422:11425   */\n      0x00\n        /* \"#utility.yul\":11443:11448   */\n      dup2\n        /* \"#utility.yul\":11436:11448   */\n      swap1\n      pop\n        /* \"#utility.yul\":11394:11454   */\n      swap2\n      swap1\n      pop\n      jump\t// out\n        /* \"#utility.yul\":11460:11602   */\n    tag_119:\n        /* \"#utility.yul\":11510:11519   */\n      0x00\n        /* \"#utility.yul\":11543:11596   */\n      tag_255\n        /* \"#utility.yul\":11561:11595   */\n      tag_256\n        /* \"#utility.yul\":11570:11594   */\n      tag_257\n        /* \"#utility.yul\":11588:11593   */\n      dup5\n        /* \"#utility.yul\":11570:11594   */\n      tag_98\n      jump\t// in\n    tag_257:\n        /* \"#utility.yul\":11561:11595   */\n      tag_118\n      jump\t// in\n    tag_256:\n        /* \"#utility.yul\":11543:11596   */\n      tag_98\n      jump\t// in\n    tag_255:\n        /* \"#utility.yul\":11530:11596   */\n      swap1\n      pop\n        /* \"#utility.yul\":11460:11602   */\n      swap2\n      swap1\n      pop\n      jump\t// out\n        /* \"#utility.yul\":11608:11683   */\n    tag_120:\n        /* \"#utility.yul\":11651:11654   */\n      0x00\n        /* \"#utility.yul\":11672:11677   */\n      dup2\n        /* \"#utility.yul\":11665:11677   */\n      swap1\n      pop\n        /* \"#utility.yul\":11608:11683   */\n      swap2\n      swap1\n      pop\n      jump\t// out\n        /* \"#utility.yul\":11689:11958   */\n    tag_121:\n        /* \"#utility.yul\":11799:11838   */\n      tag_260\n        /* \"#utility.yul\":11830:11837   */\n      dup4\n        /* \"#utility.yul\":11799:11838   */\n      tag_119\n      jump\t// in\n    tag_260:\n        /* \"#utility.yul\":11860:11951   */\n      tag_261\n        /* \"#utility.yul\":11909:11950   */\n      tag_262\n        /* \"#utility.yul\":11933:11949   */\n      dup3\n        /* \"#utility.yul\":11909:11950   */\n      tag_120\n      jump\t// in\n    tag_262:\n        /* \"#utility.yul\":11901:11907   */\n      dup5\n        /* \"#utility.yul\":11894:11898   */\n      dup5\n        /* \"#utility.yul\":11888:11899   */\n      sload\n        /* \"#utility.yul\":11860:11951   */\n      tag_117\n      jump\t// in\n    tag_261:\n        /* \"#utility.yul\":11854:11858   */\n      dup3\n        /* \"#utility.yul\":11847:11952   */\n      sstore\n        /* \"#utility.yul\":11765:11958   */\n      pop\n        /* \"#utility.yul\":11689:11958   */\n      pop\n      pop\n      pop\n      jump\t// out\n        /* \"#utility.yul\":11964:12037   */\n    tag_122:\n        /* \"#utility.yul\":12009:12012   */\n      0x00\n        /* \"#utility.yul\":11964:12037   */\n      swap1\n      jump\t// out\n        /* \"#utility.yul\":12043:12232   */\n    tag_123:\n        /* \"#utility.yul\":12120:12152   */\n      tag_265\n      tag_122\n      jump\t// in\n    tag_265:\n        /* \"#utility.yul\":12161:12226   */\n      tag_266\n        /* \"#utility.yul\":12219:12225   */\n      dup2\n        /* \"#utility.yul\":12211:12217   */\n      dup5\n        /* \"#utility.yul\":12205:12209   */\n      dup5\n        /* \"#utility.yul\":12161:12226   */\n      tag_121\n      jump\t// in\n    tag_266:\n        /* \"#utility.yul\":12096:12232   */\n      pop\n        /* \"#utility.yul\":12043:12232   */\n      pop\n      pop\n      jump\t// out\n        /* \"#utility.yul\":12238:12424   */\n    tag_124:\n        /* \"#utility.yul\":12298:12418   */\n    tag_268:\n        /* \"#utility.yul\":12315:12318   */\n      dup2\n        /* \"#utility.yul\":12308:12313   */\n      dup2\n        /* \"#utility.yul\":12305:12319   */\n      lt\n        /* \"#utility.yul\":12298:12418   */\n      iszero\n      tag_270\n      jumpi\n        /* \"#utility.yul\":12369:12408   */\n      tag_271\n        /* \"#utility.yul\":12406:12407   */\n      0x00\n        /* \"#utility.yul\":12399:12404   */\n      dup3\n        /* \"#utility.yul\":12369:12408   */\n      tag_123\n      jump\t// in\n    tag_271:\n        /* \"#utility.yul\":12342:12343   */\n      0x01\n        /* \"#utility.yul\":12335:12340   */\n      dup2\n        /* \"#utility.yul\":12331:12344   */\n      add\n        /* \"#utility.yul\":12322:12344   */\n      swap1\n      pop\n        /* \"#utility.yul\":12298:12418   */\n      jump(tag_268)\n    tag_270:\n        /* \"#utility.yul\":12238:12424   */\n      pop\n      pop\n      jump\t// out\n        /* \"#utility.yul\":12430:12973   */\n    tag_125:\n        /* \"#utility.yul\":12531:12533   */\n      0x1f\n        /* \"#utility.yul\":12526:12529   */\n      dup3\n        /* \"#utility.yul\":12523:12534   */\n      gt\n        /* \"#utility.yul\":12520:12966   */\n      iszero\n      tag_273\n      jumpi\n        /* \"#utility.yul\":12565:12603   */\n      tag_274\n        /* \"#utility.yul\":12597:12602   */\n      dup2\n        /* \"#utility.yul\":12565:12603   */\n      tag_114\n      jump\t// in\n    tag_274:\n        /* \"#utility.yul\":12649:12678   */\n      tag_275\n        /* \"#utility.yul\":12667:12677   */\n      dup5\n        /* \"#utility.yul\":12649:12678   */\n      tag_115\n      jump\t// in\n    tag_275:\n        /* \"#utility.yul\":12639:12647   */\n      dup2\n        /* \"#utility.yul\":12635:12679   */\n      add\n        /* \"#utility.yul\":12832:12834   */\n      0x20\n        /* \"#utility.yul\":12820:12830   */\n      dup6\n        /* \"#utility.yul\":12817:12835   */\n      lt\n        /* \"#utility.yul\":12814:12863   */\n      iszero\n      tag_276\n      jumpi\n        /* \"#utility.yul\":12853:12861   */\n      dup2\n        /* \"#utility.yul\":12838:12861   */\n      swap1\n      pop\n        /* \"#utility.yul\":12814:12863   */\n    tag_276:\n        /* \"#utility.yul\":12876:12956   */\n      tag_277\n        /* \"#utility.yul\":12932:12954   */\n      tag_278\n        /* \"#utility.yul\":12950:12953   */\n      dup6\n        /* \"#utility.yul\":12932:12954   */\n      tag_115\n      jump\t// in\n    tag_278:\n        /* \"#utility.yul\":12922:12930   */\n      dup4\n        /* \"#utility.yul\":12918:12955   */\n      add\n        /* \"#utility.yul\":12905:12916   */\n      dup3\n        /* \"#utility.yul\":12876:12956   */\n      tag_124\n      jump\t// in\n    tag_277:\n        /* \"#utility.yul\":12535:12966   */\n      pop\n      pop\n        /* \"#utility.yul\":12520:12966   */\n    tag_273:\n        /* \"#utility.yul\":12430:12973   */\n      pop\n      pop\n      pop\n      jump\t// out\n        /* \"#utility.yul\":12979:13096   */\n    tag_126:\n        /* \"#utility.yul\":13033:13041   */\n      0x00\n        /* \"#utility.yul\":13083:13088   */\n      dup3\n        /* \"#utility.yul\":13077:13081   */\n      dup3\n        /* \"#utility.yul\":13073:13089   */\n      shr\n        /* \"#utility.yul\":13052:13089   */\n      swap1\n      pop\n        /* \"#utility.yul\":12979:13096   */\n      swap3\n      swap2\n      pop\n      pop\n      jump\t// out\n        /* \"#utility.yul\":13102:13271   */\n    tag_127:\n        /* \"#utility.yul\":13146:13152   */\n      0x00\n        /* \"#utility.yul\":13179:13230   */\n      tag_281\n        /* \"#utility.yul\":13227:13228   */\n      0x00\n        /* \"#utility.yul\":13223:13229   */\n      not\n        /* \"#utility.yul\":13215:13220   */\n      dup5\n        /* \"#utility.yul\":13212:13213   */\n      0x08\n        /* \"#utility.yul\":13208:13221   */\n      mul\n        /* \"#utility.yul\":13179:13230   */\n      tag_126\n      jump\t// in\n    tag_281:\n        /* \"#utility.yul\":13175:13231   */\n      not\n        /* \"#utility.yul\":13260:13264   */\n      dup1\n        /* \"#utility.yul\":13254:13258   */\n      dup4\n        /* \"#utility.yul\":13250:13265   */\n      and\n        /* \"#utility.yul\":13240:13265   */\n      swap2\n      pop\n        /* \"#utility.yul\":13153:13271   */\n      pop\n        /* \"#utility.yul\":13102:13271   */\n      swap3\n      swap2\n      pop\n      pop\n      jump\t// out\n        /* \"#utility.yul\":13276:13571   */\n    tag_128:\n        /* \"#utility.yul\":13352:13356   */\n      0x00\n        /* \"#utility.yul\":13498:13527   */\n      tag_283\n        /* \"#utility.yul\":13523:13526   */\n      dup4\n        /* \"#utility.yul\":13517:13521   */\n      dup4\n        /* \"#utility.yul\":13498:13527   */\n      tag_127\n      jump\t// in\n    tag_283:\n        /* \"#utility.yul\":13490:13527   */\n      swap2\n      pop\n        /* \"#utility.yul\":13560:13563   */\n      dup3\n        /* \"#utility.yul\":13557:13558   */\n      0x02\n        /* \"#utility.yul\":13553:13564   */\n      mul\n        /* \"#utility.yul\":13547:13551   */\n      dup3\n        /* \"#utility.yul\":13544:13565   */\n      or\n        /* \"#utility.yul\":13536:13565   */\n      swap1\n      pop\n        /* \"#utility.yul\":13276:13571   */\n      swap3\n      swap2\n      pop\n      pop\n      jump\t// out\n        /* \"#utility.yul\":13576:14971   */\n    tag_51:\n        /* \"#utility.yul\":13693:13730   */\n      tag_285\n        /* \"#utility.yul\":13726:13729   */\n      dup3\n        /* \"#utility.yul\":13693:13730   */\n      tag_104\n      jump\t// in\n    tag_285:\n        /* \"#utility.yul\":13795:13813   */\n      0xffffffffffffffff\n        /* \"#utility.yul\":13787:13793   */\n      dup2\n        /* \"#utility.yul\":13784:13814   */\n      gt\n        /* \"#utility.yul\":13781:13837   */\n      iszero\n      tag_286\n      jumpi\n        /* \"#utility.yul\":13817:13835   */\n      tag_287\n      tag_91\n      jump\t// in\n    tag_287:\n        /* \"#utility.yul\":13781:13837   */\n    tag_286:\n        /* \"#utility.yul\":13861:13899   */\n      tag_288\n        /* \"#utility.yul\":13893:13897   */\n      dup3\n        /* \"#utility.yul\":13887:13898   */\n      sload\n        /* \"#utility.yul\":13861:13899   */\n      tag_56\n      jump\t// in\n    tag_288:\n        /* \"#utility.yul\":13946:14013   */\n      tag_289\n        /* \"#utility.yul\":14006:14012   */\n      dup3\n        /* \"#utility.yul\":13998:14004   */\n      dup3\n        /* \"#utility.yul\":13992:13996   */\n      dup6\n        /* \"#utility.yul\":13946:14013   */\n      tag_125\n      jump\t// in\n    tag_289:\n        /* \"#utility.yul\":14040:14041   */\n      0x00\n        /* \"#utility.yul\":14064:14068   */\n      0x20\n        /* \"#utility.yul\":14051:14068   */\n      swap1\n      pop\n        /* \"#utility.yul\":14096:14098   */\n      0x1f\n        /* \"#utility.yul\":14088:14094   */\n      dup4\n        /* \"#utility.yul\":14085:14099   */\n      gt\n        /* \"#utility.yul\":14113:14114   */\n      0x01\n        /* \"#utility.yul\":14108:14726   */\n      dup2\n      eq\n      tag_291\n      jumpi\n        /* \"#utility.yul\":14770:14771   */\n      0x00\n        /* \"#utility.yul\":14787:14793   */\n      dup5\n        /* \"#utility.yul\":14784:14861   */\n      iszero\n      tag_292\n      jumpi\n        /* \"#utility.yul\":14836:14845   */\n      dup3\n        /* \"#utility.yul\":14831:14834   */\n      dup8\n        /* \"#utility.yul\":14827:14846   */\n      add\n        /* \"#utility.yul\":14821:14847   */\n      mload\n        /* \"#utility.yul\":14812:14847   */\n      swap1\n      pop\n        /* \"#utility.yul\":14784:14861   */\n    tag_292:\n        /* \"#utility.yul\":14887:14954   */\n      tag_293\n        /* \"#utility.yul\":14947:14953   */\n      dup6\n        /* \"#utility.yul\":14940:14945   */\n      dup3\n        /* \"#utility.yul\":14887:14954   */\n      tag_128\n      jump\t// in\n    tag_293:\n        /* \"#utility.yul\":14881:14885   */\n      dup7\n        /* \"#utility.yul\":14874:14955   */\n      sstore\n        /* \"#utility.yul\":14743:14965   */\n      pop\n        /* \"#utility.yul\":14078:14965   */\n      jump(tag_290)\n        /* \"#utility.yul\":14108:14726   */\n    tag_291:\n        /* \"#utility.yul\":14160:14164   */\n      0x1f\n        /* \"#utility.yul\":14156:14165   */\n      not\n        /* \"#utility.yul\":14148:14154   */\n      dup5\n        /* \"#utility.yul\":14144:14166   */\n      and\n        /* \"#utility.yul\":14194:14231   */\n      tag_294\n        /* \"#utility.yul\":14226:14230   */\n      dup7\n        /* \"#utility.yul\":14194:14231   */\n      tag_114\n      jump\t// in\n    tag_294:\n        /* \"#utility.yul\":14253:14254   */\n      0x00\n        /* \"#utility.yul\":14267:14475   */\n    tag_295:\n        /* \"#utility.yul\":14281:14288   */\n      dup3\n        /* \"#utility.yul\":14278:14279   */\n      dup2\n        /* \"#utility.yul\":14275:14289   */\n      lt\n        /* \"#utility.yul\":14267:14475   */\n      iszero\n      tag_297\n      jumpi\n        /* \"#utility.yul\":14360:14369   */\n      dup5\n        /* \"#utility.yul\":14355:14358   */\n      dup10\n        /* \"#utility.yul\":14351:14370   */\n      add\n        /* \"#utility.yul\":14345:14371   */\n      mload\n        /* \"#utility.yul\":14337:14343   */\n      dup3\n        /* \"#utility.yul\":14330:14372   */\n      sstore\n        /* \"#utility.yul\":14411:14412   */\n      0x01\n        /* \"#utility.yul\":14403:14409   */\n      dup3\n        /* \"#utility.yul\":14399:14413   */\n      add\n        /* \"#utility.yul\":14389:14413   */\n      swap2\n      pop\n        /* \"#utility.yul\":14458:14460   */\n      0x20\n        /* \"#utility.yul\":14447:14456   */\n      dup6\n        /* \"#utility.yul\":14443:14461   */\n      add\n        /* \"#utility.yul\":14430:14461   */\n      swap5\n      pop\n        /* \"#utility.yul\":14304:14308   */\n      0x20\n        /* \"#utility.yul\":14301:14302   */\n      dup2\n        /* \"#utility.yul\":14297:14309   */\n      add\n        /* \"#utility.yul\":14292:14309   */\n      swap1\n      pop\n        /* \"#utility.yul\":14267:14475   */\n      jump(tag_295)\n    tag_297:\n        /* \"#utility.yul\":14503:14509   */\n      dup7\n        /* \"#utility.yul\":14494:14501   */\n      dup4\n        /* \"#utility.yul\":14491:14510   */\n      lt\n        /* \"#utility.yul\":14488:14667   */\n      iszero\n      tag_298\n      jumpi\n        /* \"#utility.yul\":14561:14570   */\n      dup5\n        /* \"#utility.yul\":14556:14559   */\n      dup10\n        /* \"#utility.yul\":14552:14571   */\n      add\n        /* \"#utility.yul\":14546:14572   */\n      mload\n        /* \"#utility.yul\":14604:14652   */\n      tag_299\n        /* \"#utility.yul\":14646:14650   */\n      0x1f\n        /* \"#utility.yul\":14638:14644   */\n      dup10\n        /* \"#utility.yul\":14634:14651   */\n      and\n        /* \"#utility.yul\":14623:14632   */\n      dup3\n        /* \"#utility.yul\":14604:14652   */\n      tag_127\n      jump\t// in\n    tag_299:\n        /* \"#utility.yul\":14596:14602   */\n      dup4\n        /* \"#utility.yul\":14589:14653   */\n      sstore\n        /* \"#utility.yul\":14511:14667   */\n      pop\n        /* \"#utility.yul\":14488:14667   */\n    tag_298:\n        /* \"#utility.yul\":14713:14714   */\n      0x01\n        /* \"#utility.yul\":14709:14710   */\n      0x02\n        /* \"#utility.yul\":14701:14707   */\n      dup9\n        /* \"#utility.yul\":14697:14711   */\n      mul\n        /* \"#utility.yul\":14693:14715   */\n      add\n        /* \"#utility.yul\":14687:14691   */\n      dup9\n        /* \"#utility.yul\":14680:14716   */\n      sstore\n        /* \"#utility.yul\":14115:14726   */\n      pop\n      pop\n      pop\n        /* \"#utility.yul\":14078:14965   */\n    tag_290:\n      pop\n        /* \"#utility.yul\":13668:14971   */\n      pop\n      pop\n      pop\n        /* \"#utility.yul\":13576:14971   */\n      pop\n      pop\n      jump\t// out\n        /* \"#utility.yul\":14977:15157   */\n    tag_129:\n        /* \"#utility.yul\":15025:15102   */\n      0x4e487b7100000000000000000000000000000000000000000000000000000000\n        /* \"#utility.yul\":15022:15023   */\n      0x00\n        /* \"#utility.yul\":15015:15103   */\n      mstore\n        /* \"#utility.yul\":15122:15126   */\n      0x11\n        /* \"#utility.yul\":15119:15120   */\n      0x04\n        /* \"#utility.yul\":15112:15127   */\n      mstore\n        /* \"#utility.yul\":15146:15150   */\n      0x24\n        /* \"#utility.yul\":15143:15144   */\n      0x00\n        /* \"#utility.yul\":15136:15151   */\n      revert\n        /* \"#utility.yul\":15163:15396   */\n    tag_54:\n        /* \"#utility.yul\":15202:15205   */\n      0x00\n        /* \"#utility.yul\":15225:15249   */\n      tag_302\n        /* \"#utility.yul\":15243:15248   */\n      dup3\n        /* \"#utility.yul\":15225:15249   */\n      tag_98\n      jump\t// in\n    tag_302:\n        /* \"#utility.yul\":15216:15249   */\n      swap2\n      pop\n        /* \"#utility.yul\":15271:15337   */\n      0xffffffffffffffffffffffffffffffffffffffffffffffffffffffffffffffff\n        /* \"#utility.yul\":15264:15269   */\n      dup3\n        /* \"#utility.yul\":15261:15338   */\n      sub\n        /* \"#utility.yul\":15258:15361   */\n      tag_303\n      jumpi\n        /* \"#utility.yul\":15341:15359   */\n      tag_304\n      tag_129\n      jump\t// in\n    tag_304:\n        /* \"#utility.yul\":15258:15361   */\n    tag_303:\n        /* \"#utility.yul\":15388:15389   */\n      0x01\n        /* \"#utility.yul\":15381:15386   */\n      dup3\n        /* \"#utility.yul\":15377:15390   */\n      add\n        /* \"#utility.yul\":15370:15390   */\n      swap1\n      pop\n        /* \"#utility.yul\":15163:15396   */\n      swap2\n      swap1\n      pop\n      jump\t// out\n        /* \"#utility.yul\":15426:16300   */\n    tag_130:\n        /* \"#utility.yul\":15529:15532   */\n      0x00\n        /* \"#utility.yul\":15566:15571   */\n      dup2\n        /* \"#utility.yul\":15560:15572   */\n      sload\n        /* \"#utility.yul\":15595:15631   */\n      tag_306\n        /* \"#utility.yul\":15621:15630   */\n      dup2\n        /* \"#utility.yul\":15595:15631   */\n      tag_56\n      jump\t// in\n    tag_306:\n        /* \"#utility.yul\":15647:15736   */\n      tag_307\n        /* \"#utility.yul\":15729:15735   */\n      dup2\n        /* \"#utility.yul\":15724:15727   */\n      dup7\n        /* \"#utility.yul\":15647:15736   */\n      tag_111\n      jump\t// in\n    tag_307:\n        /* \"#utility.yul\":15640:15736   */\n      swap5\n      pop\n        /* \"#utility.yul\":15767:15768   */\n      0x01\n        /* \"#utility.yul\":15756:15765   */\n      dup3\n        /* \"#utility.yul\":15752:15769   */\n      and\n        /* \"#utility.yul\":15783:15784   */\n      0x00\n        /* \"#utility.yul\":15778:15944   */\n      dup2\n      eq\n      tag_309\n      jumpi\n        /* \"#utility.yul\":15958:15959   */\n      0x01\n        /* \"#utility.yul\":15953:16294   */\n      dup2\n      eq\n      tag_310\n      jumpi\n        /* \"#utility.yul\":15745:16294   */\n      jump(tag_308)\n        /* \"#utility.yul\":15778:15944   */\n    tag_309:\n        /* \"#utility.yul\":15862:15866   */\n      0xff\n        /* \"#utility.yul\":15858:15867   */\n      not\n        /* \"#utility.yul\":15847:15856   */\n      dup4\n        /* \"#utility.yul\":15843:15868   */\n      and\n        /* \"#utility.yul\":15838:15841   */\n      dup7\n        /* \"#utility.yul\":15831:15869   */\n      mstore\n        /* \"#utility.yul\":15924:15930   */\n      dup2\n        /* \"#utility.yul\":15917:15931   */\n      iszero\n        /* \"#utility.yul\":15910:15932   */\n      iszero\n        /* \"#utility.yul\":15902:15908   */\n      dup3\n        /* \"#utility.yul\":15898:15933   */\n      mul\n        /* \"#utility.yul\":15893:15896   */\n      dup7\n        /* \"#utility.yul\":15889:15934   */\n      add\n        /* \"#utility.yul\":15882:15934   */\n      swap4\n      pop\n        /* \"#utility.yul\":15778:15944   */\n      jump(tag_308)\n        /* \"#utility.yul\":15953:16294   */\n    tag_310:\n        /* \"#utility.yul\":16020:16058   */\n      tag_311\n        /* \"#utility.yul\":16052:16057   */\n      dup6\n        /* \"#utility.yul\":16020:16058   */\n      tag_114\n      jump\t// in\n    tag_311:\n        /* \"#utility.yul\":16080:16081   */\n      0x00\n        /* \"#utility.yul\":16094:16248   */\n    tag_312:\n        /* \"#utility.yul\":16108:16114   */\n      dup4\n        /* \"#utility.yul\":16105:16106   */\n      dup2\n        /* \"#utility.yul\":16102:16115   */\n      lt\n        /* \"#utility.yul\":16094:16248   */\n      iszero\n      tag_314\n      jumpi\n        /* \"#utility.yul\":16182:16189   */\n      dup2\n        /* \"#utility.yul\":16176:16190   */\n      sload\n        /* \"#utility.yul\":16172:16173   */\n      dup2\n        /* \"#utility.yul\":16167:16170   */\n      dup10\n        /* \"#utility.yul\":16163:16174   */\n      add\n        /* \"#utility.yul\":16156:16191   */\n      mstore\n        /* \"#utility.yul\":16232:16233   */\n      0x01\n        /* \"#utility.yul\":16223:16230   */\n      dup3\n        /* \"#utility.yul\":16219:16234   */\n      add\n        /* \"#utility.yul\":16208:16234   */\n      swap2\n      pop\n        /* \"#utility.yul\":16130:16134   */\n      0x20\n        /* \"#utility.yul\":16127:16128   */\n      dup2\n        /* \"#utility.yul\":16123:16135   */\n      add\n        /* \"#utility.yul\":16118:16135   */\n      swap1\n      pop\n        /* \"#utility.yul\":16094:16248   */\n      jump(tag_312)\n    tag_314:\n        /* \"#utility.yul\":16277:16283   */\n      dup4\n        /* \"#utility.yul\":16272:16275   */\n      dup9\n        /* \"#utility.yul\":16268:16284   */\n      add\n        /* \"#utility.yul\":16261:16284   */\n      swap6\n      pop\n        /* \"#utility.yul\":15960:16294   */\n      pop\n      pop\n        /* \"#utility.yul\":15745:16294   */\n    tag_308:\n      pop\n        /* \"#utility.yul\":15533:16300   */\n      pop\n      pop\n        /* \"#utility.yul\":15426:16300   */\n      swap3\n      swap2\n      pop\n      pop\n      jump\t// out\n        /* \"#utility.yul\":16306:16575   */\n    tag_68:\n        /* \"#utility.yul\":16435:16438   */\n      0x00\n        /* \"#utility.yul\":16457:16549   */\n      tag_316\n        /* \"#utility.yul\":16545:16548   */\n      dup3\n        /* \"#utility.yul\":16536:16542   */\n      dup5\n        /* \"#utility.yul\":16457:16549   */\n      tag_130\n      jump\t// in\n    tag_316:\n        /* \"#utility.yul\":16450:16549   */\n      swap2\n      pop\n        /* \"#utility.yul\":16566:16569   */\n      dup2\n        /* \"#utility.yul\":16559:16569   */\n      swap1\n      pop\n        /* \"#utility.yul\":16306:16575   */\n      swap3\n      swap2\n      pop\n      pop\n      jump\t// out\n        /* \"#utility.yul\":16581:16772   */\n    tag_82:\n        /* \"#utility.yul\":16621:16624   */\n      0x00\n        /* \"#utility.yul\":16640:16660   */\n      tag_318\n        /* \"#utility.yul\":16658:16659   */\n      dup3\n        /* \"#utility.yul\":16640:16660   */\n      tag_98\n      jump\t// in\n    tag_318:\n        /* \"#utility.yul\":16635:16660   */\n      swap2\n      pop\n        /* \"#utility.yul\":16674:16694   */\n      tag_319\n        /* \"#utility.yul\":16692:16693   */\n      dup4\n        /* \"#utility.yul\":16674:16694   */\n      tag_98\n      jump\t// in\n    tag_319:\n        /* \"#utility.yul\":16669:16694   */\n      swap3\n      pop\n        /* \"#utility.yul\":16717:16718   */\n      dup3\n        /* \"#utility.yul\":16714:16715   */\n      dup3\n        /* \"#utility.yul\":16710:16719   */\n      add\n        /* \"#utility.yul\":16703:16719   */\n      swap1\n      pop\n        /* \"#utility.yul\":16738:16741   */\n      dup1\n        /* \"#utility.yul\":16735:16736   */\n      dup3\n        /* \"#utility.yul\":16732:16742   */\n      gt\n        /* \"#utility.yul\":16729:16765   */\n      iszero\n      tag_320\n      jumpi\n        /* \"#utility.yul\":16745:16763   */\n      tag_321\n      tag_129\n      jump\t// in\n    tag_321:\n        /* \"#utility.yul\":16729:16765   */\n    tag_320:\n        /* \"#utility.yul\":16581:16772   */\n      swap3\n      swap2\n      pop\n      pop\n      jump\t// out\n        /* \"#utility.yul\":16778:16972   */\n    tag_84:\n        /* \"#utility.yul\":16818:16822   */\n      0x00\n        /* \"#utility.yul\":16838:16858   */\n      tag_323\n        /* \"#utility.yul\":16856:16857   */\n      dup3\n        /* \"#utility.yul\":16838:16858   */\n      tag_98\n      jump\t// in\n    tag_323:\n        /* \"#utility.yul\":16833:16858   */\n      swap2\n      pop\n        /* \"#utility.yul\":16872:16892   */\n      tag_324\n        /* \"#utility.yul\":16890:16891   */\n      dup4\n        /* \"#utility.yul\":16872:16892   */\n      tag_98\n      jump\t// in\n    tag_324:\n        /* \"#utility.yul\":16867:16892   */\n      swap3\n      pop\n        /* \"#utility.yul\":16916:16917   */\n      dup3\n        /* \"#utility.yul\":16913:16914   */\n      dup3\n        /* \"#utility.yul\":16909:16918   */\n      sub\n        /* \"#utility.yul\":16901:16918   */\n      swap1\n      pop\n        /* \"#utility.yul\":16940:16941   */\n      dup2\n        /* \"#utility.yul\":16934:16938   */\n      dup2\n        /* \"#utility.yul\":16931:16942   */\n      gt\n        /* \"#utility.yul\":16928:16965   */\n      iszero\n      tag_325\n      jumpi\n        /* \"#utility.yul\":16945:16963   */\n      tag_326\n      tag_129\n      jump\t// in\n    tag_326:\n        /* \"#utility.yul\":16928:16965   */\n    tag_325:\n        /* \"#utility.yul\":16778:16972   */\n      swap3\n      swap2\n      pop\n      pop\n      jump\t// out\n\n    auxdata: 0xa264697066735822122044c119a51e1c1e0675024d3936cd77cba841079e73cc3f84b9208a652c008ed564736f6c63430008120033\n}\n",
				"bytecode": {
					"linkReferences": {},
					"object": "608060405234801561001057600080fd5b50611101806100206000396000f3fe608060405234801561001057600080fd5b50600436106100885760003560e01c80635c29d40d1161005b5780635c29d40d1461013f578063a2c2d6661461015d578063bc7d58dd14610181578063e11bb64d1461019d57610088565b806308e1d21e1461008d57806312b4d630146100a957806314c5a20a146100df5780634bfaa4851461010f575b600080fd5b6100a760048036038101906100a291906108b6565b6101cd565b005b6100c360048036038101906100be9190610969565b610302565b6040516100d69796959493929190610a94565b60405180910390f35b6100f960048036038101906100f49190610b11565b610497565b6040516101069190610b5a565b60405180910390f35b61012960048036038101906101249190610b11565b6104c5565b6040516101369190610b5a565b60405180910390f35b610147610514565b6040516101549190610b5a565b60405180910390f35b61016561051a565b6040516101789796959493929190610a94565b60405180910390f35b61019b60048036038101906101969190610b75565b61067a565b005b6101b760048036038101906101b29190610be1565b610701565b6040516101c49190610b5a565b60405180910390f35b6040518060e001604052803373ffffffffffffffffffffffffffffffffffffffff168152602001868152602001858152602001848152602001838152602001838152602001828152506008600080548152602001908152602001600020866040516102389190610c5d565b908152602001604051809103902060008201518160000160006101000a81548173ffffffffffffffffffffffffffffffffffffffff021916908373ffffffffffffffffffffffffffffffffffffffff16021790555060208201518160010190816102a29190610e80565b5060408201518160020155606082015181600301556080820151816004015560a0820151816005015560c08201518160060190816102e09190610e80565b509050506000808154809291906102f690610f81565b91905055505050505050565b600860205281600052604060002081805160208101820180518482526020830160208501208183528095505050505050600091509150508060000160009054906101000a900473ffffffffffffffffffffffffffffffffffffffff169080600101805461036e90610ca3565b80601f016020809104026020016040519081016040528092919081815260200182805461039a90610ca3565b80156103e75780601f106103bc576101008083540402835291602001916103e7565b820191906000526020600020905b8154815290600101906020018083116103ca57829003601f168201915b50505050509080600201549080600301549080600401549080600501549080600601805461041490610ca3565b80601f016020809104026020016040519081016040528092919081815260200182805461044090610ca3565b801561048d5780601f106104625761010080835404028352916020019161048d565b820191906000526020600020905b81548152906001019060200180831161047057829003601f168201915b5050505050905087565b600a818051602081018201805184825260208301602085012081835280955050505050506000915090505481565b60008054600a600180016040516104dc919061104c565b908152602001604051809103902081905550600a826040516104fe9190610c5d565b9081526020016040518091039020549050919050565b60005481565b60018060000160009054906101000a900473ffffffffffffffffffffffffffffffffffffffff169080600101805461055190610ca3565b80601f016020809104026020016040519081016040528092919081815260200182805461057d90610ca3565b80156105ca5780601f1061059f576101008083540402835291602001916105ca565b820191906000526020600020905b8154815290600101906020018083116105ad57829003601f168201915b5050505050908060020154908060030154908060040154908060050154908060060180546105f790610ca3565b80601f016020809104026020016040519081016040528092919081815260200182805461062390610ca3565b80156106705780601f1061064557610100808354040283529160200191610670565b820191906000526020600020905b81548152906001019060200180831161065357829003601f168201915b5050505050905087565b80600960003373ffffffffffffffffffffffffffffffffffffffff1673ffffffffffffffffffffffffffffffffffffffff168152602001908152602001600020600084815260200190815260200160002060008282546106da9190611063565b9250508190555080600160050160008282546106f69190611097565b925050819055505050565b6009602052816000526040600020602052806000526040600020600091509150505481565b6000604051905090565b600080fd5b600080fd5b600080fd5b600080fd5b6000601f19601f8301169050919050565b7f4e487b7100000000000000000000000000000000000000000000000000000000600052604160045260246000fd5b61078d82610744565b810181811067ffffffffffffffff821117156107ac576107ab610755565b5b80604052505050565b60006107bf610726565b90506107cb8282610784565b919050565b600067ffffffffffffffff8211156107eb576107ea610755565b5b6107f482610744565b9050602081019050919050565b82818337600083830152505050565b600061082361081e846107d0565b6107b5565b90508281526020810184848401111561083f5761083e61073f565b5b61084a848285610801565b509392505050565b600082601f8301126108675761086661073a565b5b8135610877848260208601610810565b91505092915050565b6000819050919050565b61089381610880565b811461089e57600080fd5b50565b6000813590506108b08161088a565b92915050565b600080600080600060a086880312156108d2576108d1610730565b5b600086013567ffffffffffffffff8111156108f0576108ef610735565b5b6108fc88828901610852565b955050602061090d888289016108a1565b945050604061091e888289016108a1565b935050606061092f888289016108a1565b925050608086013567ffffffffffffffff8111156109505761094f610735565b5b61095c88828901610852565b9150509295509295909350565b600080604083850312156109805761097f610730565b5b600061098e858286016108a1565b925050602083013567ffffffffffffffff8111156109af576109ae610735565b5b6109bb85828601610852565b9150509250929050565b600073ffffffffffffffffffffffffffffffffffffffff82169050919050565b60006109f0826109c5565b9050919050565b610a00816109e5565b82525050565b600081519050919050565b600082825260208201905092915050565b60005b83811015610a40578082015181840152602081019050610a25565b60008484015250505050565b6000610a5782610a06565b610a618185610a11565b9350610a71818560208601610a22565b610a7a81610744565b840191505092915050565b610a8e81610880565b82525050565b600060e082019050610aa9600083018a6109f7565b8181036020830152610abb8189610a4c565b9050610aca6040830188610a85565b610ad76060830187610a85565b610ae46080830186610a85565b610af160a0830185610a85565b81810360c0830152610b038184610a4c565b905098975050505050505050565b600060208284031215610b2757610b26610730565b5b600082013567ffffffffffffffff811115610b4557610b44610735565b5b610b5184828501610852565b91505092915050565b6000602082019050610b6f6000830184610a85565b92915050565b60008060408385031215610b8c57610b8b610730565b5b6000610b9a858286016108a1565b9250506020610bab858286016108a1565b9150509250929050565b610bbe816109e5565b8114610bc957600080fd5b50565b600081359050610bdb81610bb5565b92915050565b60008060408385031215610bf857610bf7610730565b5b6000610c0685828601610bcc565b9250506020610c17858286016108a1565b9150509250929050565b600081905092915050565b6000610c3782610a06565b610c418185610c21565b9350610c51818560208601610a22565b80840191505092915050565b6000610c698284610c2c565b915081905092915050565b7f4e487b7100000000000000000000000000000000000000000000000000000000600052602260045260246000fd5b60006002820490506001821680610cbb57607f821691505b602082108103610cce57610ccd610c74565b5b50919050565b60008190508160005260206000209050919050565b60006020601f8301049050919050565b600082821b905092915050565b600060088302610d367fffffffffffffffffffffffffffffffffffffffffffffffffffffffffffffffff82610cf9565b610d408683610cf9565b95508019841693508086168417925050509392505050565b6000819050919050565b6000610d7d610d78610d7384610880565b610d58565b610880565b9050919050565b6000819050919050565b610d9783610d62565b610dab610da382610d84565b848454610d06565b825550505050565b600090565b610dc0610db3565b610dcb818484610d8e565b505050565b5b81811015610def57610de4600082610db8565b600181019050610dd1565b5050565b601f821115610e3457610e0581610cd4565b610e0e84610ce9565b81016020851015610e1d578190505b610e31610e2985610ce9565b830182610dd0565b50505b505050565b600082821c905092915050565b6000610e5760001984600802610e39565b1980831691505092915050565b6000610e708383610e46565b9150826002028217905092915050565b610e8982610a06565b67ffffffffffffffff811115610ea257610ea1610755565b5b610eac8254610ca3565b610eb7828285610df3565b600060209050601f831160018114610eea5760008415610ed8578287015190505b610ee28582610e64565b865550610f4a565b601f198416610ef886610cd4565b60005b82811015610f2057848901518255600182019150602085019450602081019050610efb565b86831015610f3d5784890151610f39601f891682610e46565b8355505b6001600288020188555050505b505050505050565b7f4e487b7100000000000000000000000000000000000000000000000000000000600052601160045260246000fd5b6000610f8c82610880565b91507fffffffffffffffffffffffffffffffffffffffffffffffffffffffffffffffff8203610fbe57610fbd610f52565b5b600182019050919050565b60008154610fd681610ca3565b610fe08186610c21565b94506001821660008114610ffb576001811461101057611043565b60ff1983168652811515820286019350611043565b61101985610cd4565b60005b8381101561103b5781548189015260018201915060208101905061101c565b838801955050505b50505092915050565b60006110588284610fc9565b915081905092915050565b600061106e82610880565b915061107983610880565b925082820190508082111561109157611090610f52565b5b92915050565b60006110a282610880565b91506110ad83610880565b92508282039050818111156110c5576110c4610f52565b5b9291505056fea264697066735822122044c119a51e1c1e0675024d3936cd77cba841079e73cc3f84b9208a652c008ed564736f6c63430008120033",
					"opcodes": "PUSH1 0x80 PUSH1 0x40 MSTORE CALLVALUE DUP1 ISZERO PUSH2 0x10 JUMPI PUSH1 0x0 DUP1 REVERT JUMPDEST POP PUSH2 0x1101 DUP1 PUSH2 0x20 PUSH1 0x0 CODECOPY PUSH1 0x0 RETURN INVALID PUSH1 0x80 PUSH1 0x40 MSTORE CALLVALUE DUP1 ISZERO PUSH2 0x10 JUMPI PUSH1 0x0 DUP1 REVERT JUMPDEST POP PUSH1 0x4 CALLDATASIZE LT PUSH2 0x88 JUMPI PUSH1 0x0 CALLDATALOAD PUSH1 0xE0 SHR DUP1 PUSH4 0x5C29D40D GT PUSH2 0x5B JUMPI DUP1 PUSH4 0x5C29D40D EQ PUSH2 0x13F JUMPI DUP1 PUSH4 0xA2C2D666 EQ PUSH2 0x15D JUMPI DUP1 PUSH4 0xBC7D58DD EQ PUSH2 0x181 JUMPI DUP1 PUSH4 0xE11BB64D EQ PUSH2 0x19D JUMPI PUSH2 0x88 JUMP JUMPDEST DUP1 PUSH4 0x8E1D21E EQ PUSH2 0x8D JUMPI DUP1 PUSH4 0x12B4D630 EQ PUSH2 0xA9 JUMPI DUP1 PUSH4 0x14C5A20A EQ PUSH2 0xDF JUMPI DUP1 PUSH4 0x4BFAA485 EQ PUSH2 0x10F JUMPI JUMPDEST PUSH1 0x0 DUP1 REVERT JUMPDEST PUSH2 0xA7 PUSH1 0x4 DUP1 CALLDATASIZE SUB DUP2 ADD SWAP1 PUSH2 0xA2 SWAP2 SWAP1 PUSH2 0x8B6 JUMP JUMPDEST PUSH2 0x1CD JUMP JUMPDEST STOP JUMPDEST PUSH2 0xC3 PUSH1 0x4 DUP1 CALLDATASIZE SUB DUP2 ADD SWAP1 PUSH2 0xBE SWAP2 SWAP1 PUSH2 0x969 JUMP JUMPDEST PUSH2 0x302 JUMP JUMPDEST PUSH1 0x40 MLOAD PUSH2 0xD6 SWAP8 SWAP7 SWAP6 SWAP5 SWAP4 SWAP3 SWAP2 SWAP1 PUSH2 0xA94 JUMP JUMPDEST PUSH1 0x40 MLOAD DUP1 SWAP2 SUB SWAP1 RETURN JUMPDEST PUSH2 0xF9 PUSH1 0x4 DUP1 CALLDATASIZE SUB DUP2 ADD SWAP1 PUSH2 0xF4 SWAP2 SWAP1 PUSH2 0xB11 JUMP JUMPDEST PUSH2 0x497 JUMP JUMPDEST PUSH1 0x40 MLOAD PUSH2 0x106 SWAP2 SWAP1 PUSH2 0xB5A JUMP JUMPDEST PUSH1 0x40 MLOAD DUP1 SWAP2 SUB SWAP1 RETURN JUMPDEST PUSH2 0x129 PUSH1 0x4 DUP1 CALLDATASIZE SUB DUP2 ADD SWAP1 PUSH2 0x124 SWAP2 SWAP1 PUSH2 0xB11 JUMP JUMPDEST PUSH2 0x4C5 JUMP JUMPDEST PUSH1 0x40 MLOAD PUSH2 0x136 SWAP2 SWAP1 PUSH2 0xB5A JUMP JUMPDEST PUSH1 0x40 MLOAD DUP1 SWAP2 SUB SWAP1 RETURN JUMPDEST PUSH2 0x147 PUSH2 0x514 JUMP JUMPDEST PUSH1 0x40 MLOAD PUSH2 0x154 SWAP2 SWAP1 PUSH2 0xB5A JUMP JUMPDEST PUSH1 0x40 MLOAD DUP1 SWAP2 SUB SWAP1 RETURN JUMPDEST PUSH2 0x165 PUSH2 0x51A JUMP JUMPDEST PUSH1 0x40 MLOAD PUSH2 0x178 SWAP8 SWAP7 SWAP6 SWAP5 SWAP4 SWAP3 SWAP2 SWAP1 PUSH2 0xA94 JUMP JUMPDEST PUSH1 0x40 MLOAD DUP1 SWAP2 SUB SWAP1 RETURN JUMPDEST PUSH2 0x19B PUSH1 0x4 DUP1 CALLDATASIZE SUB DUP2 ADD SWAP1 PUSH2 0x196 SWAP2 SWAP1 PUSH2 0xB75 JUMP JUMPDEST PUSH2 0x67A JUMP JUMPDEST STOP JUMPDEST PUSH2 0x1B7 PUSH1 0x4 DUP1 CALLDATASIZE SUB DUP2 ADD SWAP1 PUSH2 0x1B2 SWAP2 SWAP1 PUSH2 0xBE1 JUMP JUMPDEST PUSH2 0x701 JUMP JUMPDEST PUSH1 0x40 MLOAD PUSH2 0x1C4 SWAP2 SWAP1 PUSH2 0xB5A JUMP JUMPDEST PUSH1 0x40 MLOAD DUP1 SWAP2 SUB SWAP1 RETURN JUMPDEST PUSH1 0x40 MLOAD DUP1 PUSH1 0xE0 ADD PUSH1 0x40 MSTORE DUP1 CALLER PUSH20 0xFFFFFFFFFFFFFFFFFFFFFFFFFFFFFFFFFFFFFFFF AND DUP2 MSTORE PUSH1 0x20 ADD DUP7 DUP2 MSTORE PUSH1 0x20 ADD DUP6 DUP2 MSTORE PUSH1 0x20 ADD DUP5 DUP2 MSTORE PUSH1 0x20 ADD DUP4 DUP2 MSTORE PUSH1 0x20 ADD DUP4 DUP2 MSTORE PUSH1 0x20 ADD DUP3 DUP2 MSTORE POP PUSH1 0x8 PUSH1 0x0 DUP1 SLOAD DUP2 MSTORE PUSH1 0x20 ADD SWAP1 DUP2 MSTORE PUSH1 0x20 ADD PUSH1 0x0 KECCAK256 DUP7 PUSH1 0x40 MLOAD PUSH2 0x238 SWAP2 SWAP1 PUSH2 0xC5D JUMP JUMPDEST SWAP1 DUP2 MSTORE PUSH1 0x20 ADD PUSH1 0x40 MLOAD DUP1 SWAP2 SUB SWAP1 KECCAK256 PUSH1 0x0 DUP3 ADD MLOAD DUP2 PUSH1 0x0 ADD PUSH1 0x0 PUSH2 0x100 EXP DUP2 SLOAD DUP2 PUSH20 0xFFFFFFFFFFFFFFFFFFFFFFFFFFFFFFFFFFFFFFFF MUL NOT AND SWAP1 DUP4 PUSH20 0xFFFFFFFFFFFFFFFFFFFFFFFFFFFFFFFFFFFFFFFF AND MUL OR SWAP1 SSTORE POP PUSH1 0x20 DUP3 ADD MLOAD DUP2 PUSH1 0x1 ADD SWAP1 DUP2 PUSH2 0x2A2 SWAP2 SWAP1 PUSH2 0xE80 JUMP JUMPDEST POP PUSH1 0x40 DUP3 ADD MLOAD DUP2 PUSH1 0x2 ADD SSTORE PUSH1 0x60 DUP3 ADD MLOAD DUP2 PUSH1 0x3 ADD SSTORE PUSH1 0x80 DUP3 ADD MLOAD DUP2 PUSH1 0x4 ADD SSTORE PUSH1 0xA0 DUP3 ADD MLOAD DUP2 PUSH1 0x5 ADD SSTORE PUSH1 0xC0 DUP3 ADD MLOAD DUP2 PUSH1 0x6 ADD SWAP1 DUP2 PUSH2 0x2E0 SWAP2 SWAP1 PUSH2 0xE80 JUMP JUMPDEST POP SWAP1 POP POP PUSH1 0x0 DUP1 DUP2 SLOAD DUP1 SWAP3 SWAP2 SWAP1 PUSH2 0x2F6 SWAP1 PUSH2 0xF81 JUMP JUMPDEST SWAP2 SWAP1 POP SSTORE POP POP POP POP POP POP JUMP JUMPDEST PUSH1 0x8 PUSH1 0x20 MSTORE DUP2 PUSH1 0x0 MSTORE PUSH1 0x40 PUSH1 0x0 KECCAK256 DUP2 DUP1 MLOAD PUSH1 0x20 DUP2 ADD DUP3 ADD DUP1 MLOAD DUP5 DUP3 MSTORE PUSH1 0x20 DUP4 ADD PUSH1 0x20 DUP6 ADD KECCAK256 DUP2 DUP4 MSTORE DUP1 SWAP6 POP POP POP POP POP POP PUSH1 0x0 SWAP2 POP SWAP2 POP POP DUP1 PUSH1 0x0 ADD PUSH1 0x0 SWAP1 SLOAD SWAP1 PUSH2 0x100 EXP SWAP1 DIV PUSH20 0xFFFFFFFFFFFFFFFFFFFFFFFFFFFFFFFFFFFFFFFF AND SWAP1 DUP1 PUSH1 0x1 ADD DUP1 SLOAD PUSH2 0x36E SWAP1 PUSH2 0xCA3 JUMP JUMPDEST DUP1 PUSH1 0x1F ADD PUSH1 0x20 DUP1 SWAP2 DIV MUL PUSH1 0x20 ADD PUSH1 0x40 MLOAD SWAP1 DUP2 ADD PUSH1 0x40 MSTORE DUP1 SWAP3 SWAP2 SWAP1 DUP2 DUP2 MSTORE PUSH1 0x20 ADD DUP3 DUP1 SLOAD PUSH2 0x39A SWAP1 PUSH2 0xCA3 JUMP JUMPDEST DUP1 ISZERO PUSH2 0x3E7 JUMPI DUP1 PUSH1 0x1F LT PUSH2 0x3BC JUMPI PUSH2 0x100 DUP1 DUP4 SLOAD DIV MUL DUP4 MSTORE SWAP2 PUSH1 0x20 ADD SWAP2 PUSH2 0x3E7 JUMP JUMPDEST DUP3 ADD SWAP2 SWAP1 PUSH1 0x0 MSTORE PUSH1 0x20 PUSH1 0x0 KECCAK256 SWAP1 JUMPDEST DUP2 SLOAD DUP2 MSTORE SWAP1 PUSH1 0x1 ADD SWAP1 PUSH1 0x20 ADD DUP1 DUP4 GT PUSH2 0x3CA JUMPI DUP3 SWAP1 SUB PUSH1 0x1F AND DUP3 ADD SWAP2 JUMPDEST POP POP POP POP POP SWAP1 DUP1 PUSH1 0x2 ADD SLOAD SWAP1 DUP1 PUSH1 0x3 ADD SLOAD SWAP1 DUP1 PUSH1 0x4 ADD SLOAD SWAP1 DUP1 PUSH1 0x5 ADD SLOAD SWAP1 DUP1 PUSH1 0x6 ADD DUP1 SLOAD PUSH2 0x414 SWAP1 PUSH2 0xCA3 JUMP JUMPDEST DUP1 PUSH1 0x1F ADD PUSH1 0x20 DUP1 SWAP2 DIV MUL PUSH1 0x20 ADD PUSH1 0x40 MLOAD SWAP1 DUP2 ADD PUSH1 0x40 MSTORE DUP1 SWAP3 SWAP2 SWAP1 DUP2 DUP2 MSTORE PUSH1 0x20 ADD DUP3 DUP1 SLOAD PUSH2 0x440 SWAP1 PUSH2 0xCA3 JUMP JUMPDEST DUP1 ISZERO PUSH2 0x48D JUMPI DUP1 PUSH1 0x1F LT PUSH2 0x462 JUMPI PUSH2 0x100 DUP1 DUP4 SLOAD DIV MUL DUP4 MSTORE SWAP2 PUSH1 0x20 ADD SWAP2 PUSH2 0x48D JUMP JUMPDEST DUP3 ADD SWAP2 SWAP1 PUSH1 0x0 MSTORE PUSH1 0x20 PUSH1 0x0 KECCAK256 SWAP1 JUMPDEST DUP2 SLOAD DUP2 MSTORE SWAP1 PUSH1 0x1 ADD SWAP1 PUSH1 0x20 ADD DUP1 DUP4 GT PUSH2 0x470 JUMPI DUP3 SWAP1 SUB PUSH1 0x1F AND DUP3 ADD SWAP2 JUMPDEST POP POP POP POP POP SWAP1 POP DUP8 JUMP JUMPDEST PUSH1 0xA DUP2 DUP1 MLOAD PUSH1 0x20 DUP2 ADD DUP3 ADD DUP1 MLOAD DUP5 DUP3 MSTORE PUSH1 0x20 DUP4 ADD PUSH1 0x20 DUP6 ADD KECCAK256 DUP2 DUP4 MSTORE DUP1 SWAP6 POP POP POP POP POP POP PUSH1 0x0 SWAP2 POP SWAP1 POP SLOAD DUP2 JUMP JUMPDEST PUSH1 0x0 DUP1 SLOAD PUSH1 0xA PUSH1 0x1 DUP1 ADD PUSH1 0x40 MLOAD PUSH2 0x4DC SWAP2 SWAP1 PUSH2 0x104C JUMP JUMPDEST SWAP1 DUP2 MSTORE PUSH1 0x20 ADD PUSH1 0x40 MLOAD DUP1 SWAP2 SUB SWAP1 KECCAK256 DUP2 SWAP1 SSTORE POP PUSH1 0xA DUP3 PUSH1 0x40 MLOAD PUSH2 0x4FE SWAP2 SWAP1 PUSH2 0xC5D JUMP JUMPDEST SWAP1 DUP2 MSTORE PUSH1 0x20 ADD PUSH1 0x40 MLOAD DUP1 SWAP2 SUB SWAP1 KECCAK256 SLOAD SWAP1 POP SWAP2 SWAP1 POP JUMP JUMPDEST PUSH1 0x0 SLOAD DUP2 JUMP JUMPDEST PUSH1 0x1 DUP1 PUSH1 0x0 ADD PUSH1 0x0 SWAP1 SLOAD SWAP1 PUSH2 0x100 EXP SWAP1 DIV PUSH20 0xFFFFFFFFFFFFFFFFFFFFFFFFFFFFFFFFFFFFFFFF AND SWAP1 DUP1 PUSH1 0x1 ADD DUP1 SLOAD PUSH2 0x551 SWAP1 PUSH2 0xCA3 JUMP JUMPDEST DUP1 PUSH1 0x1F ADD PUSH1 0x20 DUP1 SWAP2 DIV MUL PUSH1 0x20 ADD PUSH1 0x40 MLOAD SWAP1 DUP2 ADD PUSH1 0x40 MSTORE DUP1 SWAP3 SWAP2 SWAP1 DUP2 DUP2 MSTORE PUSH1 0x20 ADD DUP3 DUP1 SLOAD PUSH2 0x57D SWAP1 PUSH2 0xCA3 JUMP JUMPDEST DUP1 ISZERO PUSH2 0x5CA JUMPI DUP1 PUSH1 0x1F LT PUSH2 0x59F JUMPI PUSH2 0x100 DUP1 DUP4 SLOAD DIV MUL DUP4 MSTORE SWAP2 PUSH1 0x20 ADD SWAP2 PUSH2 0x5CA JUMP JUMPDEST DUP3 ADD SWAP2 SWAP1 PUSH1 0x0 MSTORE PUSH1 0x20 PUSH1 0x0 KECCAK256 SWAP1 JUMPDEST DUP2 SLOAD DUP2 MSTORE SWAP1 PUSH1 0x1 ADD SWAP1 PUSH1 0x20 ADD DUP1 DUP4 GT PUSH2 0x5AD JUMPI DUP3 SWAP1 SUB PUSH1 0x1F AND DUP3 ADD SWAP2 JUMPDEST POP POP POP POP POP SWAP1 DUP1 PUSH1 0x2 ADD SLOAD SWAP1 DUP1 PUSH1 0x3 ADD SLOAD SWAP1 DUP1 PUSH1 0x4 ADD SLOAD SWAP1 DUP1 PUSH1 0x5 ADD SLOAD SWAP1 DUP1 PUSH1 0x6 ADD DUP1 SLOAD PUSH2 0x5F7 SWAP1 PUSH2 0xCA3 JUMP JUMPDEST DUP1 PUSH1 0x1F ADD PUSH1 0x20 DUP1 SWAP2 DIV MUL PUSH1 0x20 ADD PUSH1 0x40 MLOAD SWAP1 DUP2 ADD PUSH1 0x40 MSTORE DUP1 SWAP3 SWAP2 SWAP1 DUP2 DUP2 MSTORE PUSH1 0x20 ADD DUP3 DUP1 SLOAD PUSH2 0x623 SWAP1 PUSH2 0xCA3 JUMP JUMPDEST DUP1 ISZERO PUSH2 0x670 JUMPI DUP1 PUSH1 0x1F LT PUSH2 0x645 JUMPI PUSH2 0x100 DUP1 DUP4 SLOAD DIV MUL DUP4 MSTORE SWAP2 PUSH1 0x20 ADD SWAP2 PUSH2 0x670 JUMP JUMPDEST DUP3 ADD SWAP2 SWAP1 PUSH1 0x0 MSTORE PUSH1 0x20 PUSH1 0x0 KECCAK256 SWAP1 JUMPDEST DUP2 SLOAD DUP2 MSTORE SWAP1 PUSH1 0x1 ADD SWAP1 PUSH1 0x20 ADD DUP1 DUP4 GT PUSH2 0x653 JUMPI DUP3 SWAP1 SUB PUSH1 0x1F AND DUP3 ADD SWAP2 JUMPDEST POP POP POP POP POP SWAP1 POP DUP8 JUMP JUMPDEST DUP1 PUSH1 0x9 PUSH1 0x0 CALLER PUSH20 0xFFFFFFFFFFFFFFFFFFFFFFFFFFFFFFFFFFFFFFFF AND PUSH20 0xFFFFFFFFFFFFFFFFFFFFFFFFFFFFFFFFFFFFFFFF AND DUP2 MSTORE PUSH1 0x20 ADD SWAP1 DUP2 MSTORE PUSH1 0x20 ADD PUSH1 0x0 KECCAK256 PUSH1 0x0 DUP5 DUP2 MSTORE PUSH1 0x20 ADD SWAP1 DUP2 MSTORE PUSH1 0x20 ADD PUSH1 0x0 KECCAK256 PUSH1 0x0 DUP3 DUP3 SLOAD PUSH2 0x6DA SWAP2 SWAP1 PUSH2 0x1063 JUMP JUMPDEST SWAP3 POP POP DUP2 SWAP1 SSTORE POP DUP1 PUSH1 0x1 PUSH1 0x5 ADD PUSH1 0x0 DUP3 DUP3 SLOAD PUSH2 0x6F6 SWAP2 SWAP1 PUSH2 0x1097 JUMP JUMPDEST SWAP3 POP POP DUP2 SWAP1 SSTORE POP POP POP JUMP JUMPDEST PUSH1 0x9 PUSH1 0x20 MSTORE DUP2 PUSH1 0x0 MSTORE PUSH1 0x40 PUSH1 0x0 KECCAK256 PUSH1 0x20 MSTORE DUP1 PUSH1 0x0 MSTORE PUSH1 0x40 PUSH1 0x0 KECCAK256 PUSH1 0x0 SWAP2 POP SWAP2 POP POP SLOAD DUP2 JUMP JUMPDEST PUSH1 0x0 PUSH1 0x40 MLOAD SWAP1 POP SWAP1 JUMP JUMPDEST PUSH1 0x0 DUP1 REVERT JUMPDEST PUSH1 0x0 DUP1 REVERT JUMPDEST PUSH1 0x0 DUP1 REVERT JUMPDEST PUSH1 0x0 DUP1 REVERT JUMPDEST PUSH1 0x0 PUSH1 0x1F NOT PUSH1 0x1F DUP4 ADD AND SWAP1 POP SWAP2 SWAP1 POP JUMP JUMPDEST PUSH32 0x4E487B7100000000000000000000000000000000000000000000000000000000 PUSH1 0x0 MSTORE PUSH1 0x41 PUSH1 0x4 MSTORE PUSH1 0x24 PUSH1 0x0 REVERT JUMPDEST PUSH2 0x78D DUP3 PUSH2 0x744 JUMP JUMPDEST DUP2 ADD DUP2 DUP2 LT PUSH8 0xFFFFFFFFFFFFFFFF DUP3 GT OR ISZERO PUSH2 0x7AC JUMPI PUSH2 0x7AB PUSH2 0x755 JUMP JUMPDEST JUMPDEST DUP1 PUSH1 0x40 MSTORE POP POP POP JUMP JUMPDEST PUSH1 0x0 PUSH2 0x7BF PUSH2 0x726 JUMP JUMPDEST SWAP1 POP PUSH2 0x7CB DUP3 DUP3 PUSH2 0x784 JUMP JUMPDEST SWAP2 SWAP1 POP JUMP JUMPDEST PUSH1 0x0 PUSH8 0xFFFFFFFFFFFFFFFF DUP3 GT ISZERO PUSH2 0x7EB JUMPI PUSH2 0x7EA PUSH2 0x755 JUMP JUMPDEST JUMPDEST PUSH2 0x7F4 DUP3 PUSH2 0x744 JUMP JUMPDEST SWAP1 POP PUSH1 0x20 DUP2 ADD SWAP1 POP SWAP2 SWAP1 POP JUMP JUMPDEST DUP3 DUP2 DUP4 CALLDATACOPY PUSH1 0x0 DUP4 DUP4 ADD MSTORE POP POP POP JUMP JUMPDEST PUSH1 0x0 PUSH2 0x823 PUSH2 0x81E DUP5 PUSH2 0x7D0 JUMP JUMPDEST PUSH2 0x7B5 JUMP JUMPDEST SWAP1 POP DUP3 DUP2 MSTORE PUSH1 0x20 DUP2 ADD DUP5 DUP5 DUP5 ADD GT ISZERO PUSH2 0x83F JUMPI PUSH2 0x83E PUSH2 0x73F JUMP JUMPDEST JUMPDEST PUSH2 0x84A DUP5 DUP3 DUP6 PUSH2 0x801 JUMP JUMPDEST POP SWAP4 SWAP3 POP POP POP JUMP JUMPDEST PUSH1 0x0 DUP3 PUSH1 0x1F DUP4 ADD SLT PUSH2 0x867 JUMPI PUSH2 0x866 PUSH2 0x73A JUMP JUMPDEST JUMPDEST DUP2 CALLDATALOAD PUSH2 0x877 DUP5 DUP3 PUSH1 0x20 DUP7 ADD PUSH2 0x810 JUMP JUMPDEST SWAP2 POP POP SWAP3 SWAP2 POP POP JUMP JUMPDEST PUSH1 0x0 DUP2 SWAP1 POP SWAP2 SWAP1 POP JUMP JUMPDEST PUSH2 0x893 DUP2 PUSH2 0x880 JUMP JUMPDEST DUP2 EQ PUSH2 0x89E JUMPI PUSH1 0x0 DUP1 REVERT JUMPDEST POP JUMP JUMPDEST PUSH1 0x0 DUP2 CALLDATALOAD SWAP1 POP PUSH2 0x8B0 DUP2 PUSH2 0x88A JUMP JUMPDEST SWAP3 SWAP2 POP POP JUMP JUMPDEST PUSH1 0x0 DUP1 PUSH1 0x0 DUP1 PUSH1 0x0 PUSH1 0xA0 DUP7 DUP9 SUB SLT ISZERO PUSH2 0x8D2 JUMPI PUSH2 0x8D1 PUSH2 0x730 JUMP JUMPDEST JUMPDEST PUSH1 0x0 DUP7 ADD CALLDATALOAD PUSH8 0xFFFFFFFFFFFFFFFF DUP2 GT ISZERO PUSH2 0x8F0 JUMPI PUSH2 0x8EF PUSH2 0x735 JUMP JUMPDEST JUMPDEST PUSH2 0x8FC DUP9 DUP3 DUP10 ADD PUSH2 0x852 JUMP JUMPDEST SWAP6 POP POP PUSH1 0x20 PUSH2 0x90D DUP9 DUP3 DUP10 ADD PUSH2 0x8A1 JUMP JUMPDEST SWAP5 POP POP PUSH1 0x40 PUSH2 0x91E DUP9 DUP3 DUP10 ADD PUSH2 0x8A1 JUMP JUMPDEST SWAP4 POP POP PUSH1 0x60 PUSH2 0x92F DUP9 DUP3 DUP10 ADD PUSH2 0x8A1 JUMP JUMPDEST SWAP3 POP POP PUSH1 0x80 DUP7 ADD CALLDATALOAD PUSH8 0xFFFFFFFFFFFFFFFF DUP2 GT ISZERO PUSH2 0x950 JUMPI PUSH2 0x94F PUSH2 0x735 JUMP JUMPDEST JUMPDEST PUSH2 0x95C DUP9 DUP3 DUP10 ADD PUSH2 0x852 JUMP JUMPDEST SWAP2 POP POP SWAP3 SWAP6 POP SWAP3 SWAP6 SWAP1 SWAP4 POP JUMP JUMPDEST PUSH1 0x0 DUP1 PUSH1 0x40 DUP4 DUP6 SUB SLT ISZERO PUSH2 0x980 JUMPI PUSH2 0x97F PUSH2 0x730 JUMP JUMPDEST JUMPDEST PUSH1 0x0 PUSH2 0x98E DUP6 DUP3 DUP7 ADD PUSH2 0x8A1 JUMP JUMPDEST SWAP3 POP POP PUSH1 0x20 DUP4 ADD CALLDATALOAD PUSH8 0xFFFFFFFFFFFFFFFF DUP2 GT ISZERO PUSH2 0x9AF JUMPI PUSH2 0x9AE PUSH2 0x735 JUMP JUMPDEST JUMPDEST PUSH2 0x9BB DUP6 DUP3 DUP7 ADD PUSH2 0x852 JUMP JUMPDEST SWAP2 POP POP SWAP3 POP SWAP3 SWAP1 POP JUMP JUMPDEST PUSH1 0x0 PUSH20 0xFFFFFFFFFFFFFFFFFFFFFFFFFFFFFFFFFFFFFFFF DUP3 AND SWAP1 POP SWAP2 SWAP1 POP JUMP JUMPDEST PUSH1 0x0 PUSH2 0x9F0 DUP3 PUSH2 0x9C5 JUMP JUMPDEST SWAP1 POP SWAP2 SWAP1 POP JUMP JUMPDEST PUSH2 0xA00 DUP2 PUSH2 0x9E5 JUMP JUMPDEST DUP3 MSTORE POP POP JUMP JUMPDEST PUSH1 0x0 DUP2 MLOAD SWAP1 POP SWAP2 SWAP1 POP JUMP JUMPDEST PUSH1 0x0 DUP3 DUP3 MSTORE PUSH1 0x20 DUP3 ADD SWAP1 POP SWAP3 SWAP2 POP POP JUMP JUMPDEST PUSH1 0x0 JUMPDEST DUP4 DUP2 LT ISZERO PUSH2 0xA40 JUMPI DUP1 DUP3 ADD MLOAD DUP2 DUP5 ADD MSTORE PUSH1 0x20 DUP2 ADD SWAP1 POP PUSH2 0xA25 JUMP JUMPDEST PUSH1 0x0 DUP5 DUP5 ADD MSTORE POP POP POP POP JUMP JUMPDEST PUSH1 0x0 PUSH2 0xA57 DUP3 PUSH2 0xA06 JUMP JUMPDEST PUSH2 0xA61 DUP2 DUP6 PUSH2 0xA11 JUMP JUMPDEST SWAP4 POP PUSH2 0xA71 DUP2 DUP6 PUSH1 0x20 DUP7 ADD PUSH2 0xA22 JUMP JUMPDEST PUSH2 0xA7A DUP2 PUSH2 0x744 JUMP JUMPDEST DUP5 ADD SWAP2 POP POP SWAP3 SWAP2 POP POP JUMP JUMPDEST PUSH2 0xA8E DUP2 PUSH2 0x880 JUMP JUMPDEST DUP3 MSTORE POP POP JUMP JUMPDEST PUSH1 0x0 PUSH1 0xE0 DUP3 ADD SWAP1 POP PUSH2 0xAA9 PUSH1 0x0 DUP4 ADD DUP11 PUSH2 0x9F7 JUMP JUMPDEST DUP2 DUP2 SUB PUSH1 0x20 DUP4 ADD MSTORE PUSH2 0xABB DUP2 DUP10 PUSH2 0xA4C JUMP JUMPDEST SWAP1 POP PUSH2 0xACA PUSH1 0x40 DUP4 ADD DUP9 PUSH2 0xA85 JUMP JUMPDEST PUSH2 0xAD7 PUSH1 0x60 DUP4 ADD DUP8 PUSH2 0xA85 JUMP JUMPDEST PUSH2 0xAE4 PUSH1 0x80 DUP4 ADD DUP7 PUSH2 0xA85 JUMP JUMPDEST PUSH2 0xAF1 PUSH1 0xA0 DUP4 ADD DUP6 PUSH2 0xA85 JUMP JUMPDEST DUP2 DUP2 SUB PUSH1 0xC0 DUP4 ADD MSTORE PUSH2 0xB03 DUP2 DUP5 PUSH2 0xA4C JUMP JUMPDEST SWAP1 POP SWAP9 SWAP8 POP POP POP POP POP POP POP POP JUMP JUMPDEST PUSH1 0x0 PUSH1 0x20 DUP3 DUP5 SUB SLT ISZERO PUSH2 0xB27 JUMPI PUSH2 0xB26 PUSH2 0x730 JUMP JUMPDEST JUMPDEST PUSH1 0x0 DUP3 ADD CALLDATALOAD PUSH8 0xFFFFFFFFFFFFFFFF DUP2 GT ISZERO PUSH2 0xB45 JUMPI PUSH2 0xB44 PUSH2 0x735 JUMP JUMPDEST JUMPDEST PUSH2 0xB51 DUP5 DUP3 DUP6 ADD PUSH2 0x852 JUMP JUMPDEST SWAP2 POP POP SWAP3 SWAP2 POP POP JUMP JUMPDEST PUSH1 0x0 PUSH1 0x20 DUP3 ADD SWAP1 POP PUSH2 0xB6F PUSH1 0x0 DUP4 ADD DUP5 PUSH2 0xA85 JUMP JUMPDEST SWAP3 SWAP2 POP POP JUMP JUMPDEST PUSH1 0x0 DUP1 PUSH1 0x40 DUP4 DUP6 SUB SLT ISZERO PUSH2 0xB8C JUMPI PUSH2 0xB8B PUSH2 0x730 JUMP JUMPDEST JUMPDEST PUSH1 0x0 PUSH2 0xB9A DUP6 DUP3 DUP7 ADD PUSH2 0x8A1 JUMP JUMPDEST SWAP3 POP POP PUSH1 0x20 PUSH2 0xBAB DUP6 DUP3 DUP7 ADD PUSH2 0x8A1 JUMP JUMPDEST SWAP2 POP POP SWAP3 POP SWAP3 SWAP1 POP JUMP JUMPDEST PUSH2 0xBBE DUP2 PUSH2 0x9E5 JUMP JUMPDEST DUP2 EQ PUSH2 0xBC9 JUMPI PUSH1 0x0 DUP1 REVERT JUMPDEST POP JUMP JUMPDEST PUSH1 0x0 DUP2 CALLDATALOAD SWAP1 POP PUSH2 0xBDB DUP2 PUSH2 0xBB5 JUMP JUMPDEST SWAP3 SWAP2 POP POP JUMP JUMPDEST PUSH1 0x0 DUP1 PUSH1 0x40 DUP4 DUP6 SUB SLT ISZERO PUSH2 0xBF8 JUMPI PUSH2 0xBF7 PUSH2 0x730 JUMP JUMPDEST JUMPDEST PUSH1 0x0 PUSH2 0xC06 DUP6 DUP3 DUP7 ADD PUSH2 0xBCC JUMP JUMPDEST SWAP3 POP POP PUSH1 0x20 PUSH2 0xC17 DUP6 DUP3 DUP7 ADD PUSH2 0x8A1 JUMP JUMPDEST SWAP2 POP POP SWAP3 POP SWAP3 SWAP1 POP JUMP JUMPDEST PUSH1 0x0 DUP2 SWAP1 POP SWAP3 SWAP2 POP POP JUMP JUMPDEST PUSH1 0x0 PUSH2 0xC37 DUP3 PUSH2 0xA06 JUMP JUMPDEST PUSH2 0xC41 DUP2 DUP6 PUSH2 0xC21 JUMP JUMPDEST SWAP4 POP PUSH2 0xC51 DUP2 DUP6 PUSH1 0x20 DUP7 ADD PUSH2 0xA22 JUMP JUMPDEST DUP1 DUP5 ADD SWAP2 POP POP SWAP3 SWAP2 POP POP JUMP JUMPDEST PUSH1 0x0 PUSH2 0xC69 DUP3 DUP5 PUSH2 0xC2C JUMP JUMPDEST SWAP2 POP DUP2 SWAP1 POP SWAP3 SWAP2 POP POP JUMP JUMPDEST PUSH32 0x4E487B7100000000000000000000000000000000000000000000000000000000 PUSH1 0x0 MSTORE PUSH1 0x22 PUSH1 0x4 MSTORE PUSH1 0x24 PUSH1 0x0 REVERT JUMPDEST PUSH1 0x0 PUSH1 0x2 DUP3 DIV SWAP1 POP PUSH1 0x1 DUP3 AND DUP1 PUSH2 0xCBB JUMPI PUSH1 0x7F DUP3 AND SWAP2 POP JUMPDEST PUSH1 0x20 DUP3 LT DUP2 SUB PUSH2 0xCCE JUMPI PUSH2 0xCCD PUSH2 0xC74 JUMP JUMPDEST JUMPDEST POP SWAP2 SWAP1 POP JUMP JUMPDEST PUSH1 0x0 DUP2 SWAP1 POP DUP2 PUSH1 0x0 MSTORE PUSH1 0x20 PUSH1 0x0 KECCAK256 SWAP1 POP SWAP2 SWAP1 POP JUMP JUMPDEST PUSH1 0x0 PUSH1 0x20 PUSH1 0x1F DUP4 ADD DIV SWAP1 POP SWAP2 SWAP1 POP JUMP JUMPDEST PUSH1 0x0 DUP3 DUP3 SHL SWAP1 POP SWAP3 SWAP2 POP POP JUMP JUMPDEST PUSH1 0x0 PUSH1 0x8 DUP4 MUL PUSH2 0xD36 PUSH32 0xFFFFFFFFFFFFFFFFFFFFFFFFFFFFFFFFFFFFFFFFFFFFFFFFFFFFFFFFFFFFFFFF DUP3 PUSH2 0xCF9 JUMP JUMPDEST PUSH2 0xD40 DUP7 DUP4 PUSH2 0xCF9 JUMP JUMPDEST SWAP6 POP DUP1 NOT DUP5 AND SWAP4 POP DUP1 DUP7 AND DUP5 OR SWAP3 POP POP POP SWAP4 SWAP3 POP POP POP JUMP JUMPDEST PUSH1 0x0 DUP2 SWAP1 POP SWAP2 SWAP1 POP JUMP JUMPDEST PUSH1 0x0 PUSH2 0xD7D PUSH2 0xD78 PUSH2 0xD73 DUP5 PUSH2 0x880 JUMP JUMPDEST PUSH2 0xD58 JUMP JUMPDEST PUSH2 0x880 JUMP JUMPDEST SWAP1 POP SWAP2 SWAP1 POP JUMP JUMPDEST PUSH1 0x0 DUP2 SWAP1 POP SWAP2 SWAP1 POP JUMP JUMPDEST PUSH2 0xD97 DUP4 PUSH2 0xD62 JUMP JUMPDEST PUSH2 0xDAB PUSH2 0xDA3 DUP3 PUSH2 0xD84 JUMP JUMPDEST DUP5 DUP5 SLOAD PUSH2 0xD06 JUMP JUMPDEST DUP3 SSTORE POP POP POP POP JUMP JUMPDEST PUSH1 0x0 SWAP1 JUMP JUMPDEST PUSH2 0xDC0 PUSH2 0xDB3 JUMP JUMPDEST PUSH2 0xDCB DUP2 DUP5 DUP5 PUSH2 0xD8E JUMP JUMPDEST POP POP POP JUMP JUMPDEST JUMPDEST DUP2 DUP2 LT ISZERO PUSH2 0xDEF JUMPI PUSH2 0xDE4 PUSH1 0x0 DUP3 PUSH2 0xDB8 JUMP JUMPDEST PUSH1 0x1 DUP2 ADD SWAP1 POP PUSH2 0xDD1 JUMP JUMPDEST POP POP JUMP JUMPDEST PUSH1 0x1F DUP3 GT ISZERO PUSH2 0xE34 JUMPI PUSH2 0xE05 DUP2 PUSH2 0xCD4 JUMP JUMPDEST PUSH2 0xE0E DUP5 PUSH2 0xCE9 JUMP JUMPDEST DUP2 ADD PUSH1 0x20 DUP6 LT ISZERO PUSH2 0xE1D JUMPI DUP2 SWAP1 POP JUMPDEST PUSH2 0xE31 PUSH2 0xE29 DUP6 PUSH2 0xCE9 JUMP JUMPDEST DUP4 ADD DUP3 PUSH2 0xDD0 JUMP JUMPDEST POP POP JUMPDEST POP POP POP JUMP JUMPDEST PUSH1 0x0 DUP3 DUP3 SHR SWAP1 POP SWAP3 SWAP2 POP POP JUMP JUMPDEST PUSH1 0x0 PUSH2 0xE57 PUSH1 0x0 NOT DUP5 PUSH1 0x8 MUL PUSH2 0xE39 JUMP JUMPDEST NOT DUP1 DUP4 AND SWAP2 POP POP SWAP3 SWAP2 POP POP JUMP JUMPDEST PUSH1 0x0 PUSH2 0xE70 DUP4 DUP4 PUSH2 0xE46 JUMP JUMPDEST SWAP2 POP DUP3 PUSH1 0x2 MUL DUP3 OR SWAP1 POP SWAP3 SWAP2 POP POP JUMP JUMPDEST PUSH2 0xE89 DUP3 PUSH2 0xA06 JUMP JUMPDEST PUSH8 0xFFFFFFFFFFFFFFFF DUP2 GT ISZERO PUSH2 0xEA2 JUMPI PUSH2 0xEA1 PUSH2 0x755 JUMP JUMPDEST JUMPDEST PUSH2 0xEAC DUP3 SLOAD PUSH2 0xCA3 JUMP JUMPDEST PUSH2 0xEB7 DUP3 DUP3 DUP6 PUSH2 0xDF3 JUMP JUMPDEST PUSH1 0x0 PUSH1 0x20 SWAP1 POP PUSH1 0x1F DUP4 GT PUSH1 0x1 DUP2 EQ PUSH2 0xEEA JUMPI PUSH1 0x0 DUP5 ISZERO PUSH2 0xED8 JUMPI DUP3 DUP8 ADD MLOAD SWAP1 POP JUMPDEST PUSH2 0xEE2 DUP6 DUP3 PUSH2 0xE64 JUMP JUMPDEST DUP7 SSTORE POP PUSH2 0xF4A JUMP JUMPDEST PUSH1 0x1F NOT DUP5 AND PUSH2 0xEF8 DUP7 PUSH2 0xCD4 JUMP JUMPDEST PUSH1 0x0 JUMPDEST DUP3 DUP2 LT ISZERO PUSH2 0xF20 JUMPI DUP5 DUP10 ADD MLOAD DUP3 SSTORE PUSH1 0x1 DUP3 ADD SWAP2 POP PUSH1 0x20 DUP6 ADD SWAP5 POP PUSH1 0x20 DUP2 ADD SWAP1 POP PUSH2 0xEFB JUMP JUMPDEST DUP7 DUP4 LT ISZERO PUSH2 0xF3D JUMPI DUP5 DUP10 ADD MLOAD PUSH2 0xF39 PUSH1 0x1F DUP10 AND DUP3 PUSH2 0xE46 JUMP JUMPDEST DUP4 SSTORE POP JUMPDEST PUSH1 0x1 PUSH1 0x2 DUP9 MUL ADD DUP9 SSTORE POP POP POP JUMPDEST POP POP POP POP POP POP JUMP JUMPDEST PUSH32 0x4E487B7100000000000000000000000000000000000000000000000000000000 PUSH1 0x0 MSTORE PUSH1 0x11 PUSH1 0x4 MSTORE PUSH1 0x24 PUSH1 0x0 REVERT JUMPDEST PUSH1 0x0 PUSH2 0xF8C DUP3 PUSH2 0x880 JUMP JUMPDEST SWAP2 POP PUSH32 0xFFFFFFFFFFFFFFFFFFFFFFFFFFFFFFFFFFFFFFFFFFFFFFFFFFFFFFFFFFFFFFFF DUP3 SUB PUSH2 0xFBE JUMPI PUSH2 0xFBD PUSH2 0xF52 JUMP JUMPDEST JUMPDEST PUSH1 0x1 DUP3 ADD SWAP1 POP SWAP2 SWAP1 POP JUMP JUMPDEST PUSH1 0x0 DUP2 SLOAD PUSH2 0xFD6 DUP2 PUSH2 0xCA3 JUMP JUMPDEST PUSH2 0xFE0 DUP2 DUP7 PUSH2 0xC21 JUMP JUMPDEST SWAP5 POP PUSH1 0x1 DUP3 AND PUSH1 0x0 DUP2 EQ PUSH2 0xFFB JUMPI PUSH1 0x1 DUP2 EQ PUSH2 0x1010 JUMPI PUSH2 0x1043 JUMP JUMPDEST PUSH1 0xFF NOT DUP4 AND DUP7 MSTORE DUP2 ISZERO ISZERO DUP3 MUL DUP7 ADD SWAP4 POP PUSH2 0x1043 JUMP JUMPDEST PUSH2 0x1019 DUP6 PUSH2 0xCD4 JUMP JUMPDEST PUSH1 0x0 JUMPDEST DUP4 DUP2 LT ISZERO PUSH2 0x103B JUMPI DUP2 SLOAD DUP2 DUP10 ADD MSTORE PUSH1 0x1 DUP3 ADD SWAP2 POP PUSH1 0x20 DUP2 ADD SWAP1 POP PUSH2 0x101C JUMP JUMPDEST DUP4 DUP9 ADD SWAP6 POP POP POP JUMPDEST POP POP POP SWAP3 SWAP2 POP POP JUMP JUMPDEST PUSH1 0x0 PUSH2 0x1058 DUP3 DUP5 PUSH2 0xFC9 JUMP JUMPDEST SWAP2 POP DUP2 SWAP1 POP SWAP3 SWAP2 POP POP JUMP JUMPDEST PUSH1 0x0 PUSH2 0x106E DUP3 PUSH2 0x880 JUMP JUMPDEST SWAP2 POP PUSH2 0x1079 DUP4 PUSH2 0x880 JUMP JUMPDEST SWAP3 POP DUP3 DUP3 ADD SWAP1 POP DUP1 DUP3 GT ISZERO PUSH2 0x1091 JUMPI PUSH2 0x1090 PUSH2 0xF52 JUMP JUMPDEST JUMPDEST SWAP3 SWAP2 POP POP JUMP JUMPDEST PUSH1 0x0 PUSH2 0x10A2 DUP3 PUSH2 0x880 JUMP JUMPDEST SWAP2 POP PUSH2 0x10AD DUP4 PUSH2 0x880 JUMP JUMPDEST SWAP3 POP DUP3 DUP3 SUB SWAP1 POP DUP2 DUP2 GT ISZERO PUSH2 0x10C5 JUMPI PUSH2 0x10C4 PUSH2 0xF52 JUMP JUMPDEST JUMPDEST SWAP3 SWAP2 POP POP JUMP INVALID LOG2 PUSH5 0x6970667358 0x22 SLT KECCAK256 PREVRANDAO 0xC1 NOT 0xA5 0x1E SHR 0x1E MOD PUSH22 0x24D3936CD77CBA841079E73CC3F84B9208A652C008E 0xD5 PUSH5 0x736F6C6343 STOP ADDMOD SLT STOP CALLER "
				},
				"gasEstimates": {
					"creation": {
						"codeDepositCost": "870600",
						"executionCost": "909",
						"totalCost": "871509"
					},
					"external": {
						"Eventdata(string)": "infinite",
						"Register_Event(string,uint256,uint256,uint256,string)": "infinite",
						"buynewticket(uint256,uint256)": "infinite",
						"e1()": "infinite",
						"eventdata(uint256,string)": "infinite",
						"eventdataa(string)": "infinite",
						"nextid()": "2429",
						"ticket(address,uint256)": "infinite"
					}
				},
				"methodIdentifiers": {
					"Eventdata(string)": "14c5a20a",
					"Register_Event(string,uint256,uint256,uint256,string)": "08e1d21e",
					"buynewticket(uint256,uint256)": "bc7d58dd",
					"e1()": "a2c2d666",
					"eventdata(uint256,string)": "12b4d630",
					"eventdataa(string)": "4bfaa485",
					"nextid()": "5c29d40d",
					"ticket(address,uint256)": "e11bb64d"
				}
			},
			"storageLayout": {
				"storage": [
					{
						"astId": 18,
						"contract": "Event.sol:organizer",
						"label": "nextid",
						"offset": 0,
						"slot": "0",
						"type": "t_uint256"
					},
					{
						"astId": 21,
						"contract": "Event.sol:organizer",
						"label": "e1",
						"offset": 0,
						"slot": "1",
						"type": "t_struct(Event)16_storage"
					},
					{
						"astId": 53,
						"contract": "Event.sol:organizer",
						"label": "eventdata",
						"offset": 0,
						"slot": "8",
						"type": "t_mapping(t_uint256,t_mapping(t_string_memory_ptr,t_struct(Event)16_storage))"
					},
					{
						"astId": 59,
						"contract": "Event.sol:organizer",
						"label": "ticket",
						"offset": 0,
						"slot": "9",
						"type": "t_mapping(t_address,t_mapping(t_uint256,t_uint256))"
					},
					{
						"astId": 63,
						"contract": "Event.sol:organizer",
						"label": "Eventdata",
						"offset": 0,
						"slot": "10",
						"type": "t_mapping(t_string_memory_ptr,t_uint256)"
					}
				],
				"types": {
					"t_address": {
						"encoding": "inplace",
						"label": "address",
						"numberOfBytes": "20"
					},
					"t_mapping(t_address,t_mapping(t_uint256,t_uint256))": {
						"encoding": "mapping",
						"key": "t_address",
						"label": "mapping(address => mapping(uint256 => uint256))",
						"numberOfBytes": "32",
						"value": "t_mapping(t_uint256,t_uint256)"
					},
					"t_mapping(t_string_memory_ptr,t_struct(Event)16_storage)": {
						"encoding": "mapping",
						"key": "t_string_memory_ptr",
						"label": "mapping(string => struct organizer.Event)",
						"numberOfBytes": "32",
						"value": "t_struct(Event)16_storage"
					},
					"t_mapping(t_string_memory_ptr,t_uint256)": {
						"encoding": "mapping",
						"key": "t_string_memory_ptr",
						"label": "mapping(string => uint256)",
						"numberOfBytes": "32",
						"value": "t_uint256"
					},
					"t_mapping(t_uint256,t_mapping(t_string_memory_ptr,t_struct(Event)16_storage))": {
						"encoding": "mapping",
						"key": "t_uint256",
						"label": "mapping(uint256 => mapping(string => struct organizer.Event))",
						"numberOfBytes": "32",
						"value": "t_mapping(t_string_memory_ptr,t_struct(Event)16_storage)"
					},
					"t_mapping(t_uint256,t_uint256)": {
						"encoding": "mapping",
						"key": "t_uint256",
						"label": "mapping(uint256 => uint256)",
						"numberOfBytes": "32",
						"value": "t_uint256"
					},
					"t_string_memory_ptr": {
						"encoding": "bytes",
						"label": "string",
						"numberOfBytes": "32"
					},
					"t_string_storage": {
						"encoding": "bytes",
						"label": "string",
						"numberOfBytes": "32"
					},
					"t_struct(Event)16_storage": {
						"encoding": "inplace",
						"label": "struct organizer.Event",
						"members": [
							{
								"astId": 3,
								"contract": "Event.sol:organizer",
								"label": "organizer",
								"offset": 0,
								"slot": "0",
								"type": "t_address"
							},
							{
								"astId": 5,
								"contract": "Event.sol:organizer",
								"label": "Event_Name",
								"offset": 0,
								"slot": "1",
								"type": "t_string_storage"
							},
							{
								"astId": 7,
								"contract": "Event.sol:organizer",
								"label": "date",
								"offset": 0,
								"slot": "2",
								"type": "t_uint256"
							},
							{
								"astId": 9,
								"contract": "Event.sol:organizer",
								"label": "price",
								"offset": 0,
								"slot": "3",
								"type": "t_uint256"
							},
							{
								"astId": 11,
								"contract": "Event.sol:organizer",
								"label": "ticket_Count",
								"offset": 0,
								"slot": "4",
								"type": "t_uint256"
							},
							{
								"astId": 13,
								"contract": "Event.sol:organizer",
								"label": "remaining_tickets",
								"offset": 0,
								"slot": "5",
								"type": "t_uint256"
							},
							{
								"astId": 15,
								"contract": "Event.sol:organizer",
								"label": "speaker",
								"offset": 0,
								"slot": "6",
								"type": "t_string_storage"
							}
						],
						"numberOfBytes": "224"
					},
					"t_uint256": {
						"encoding": "inplace",
						"label": "uint256",
						"numberOfBytes": "32"
					}
				}
			},
			"userdoc": {
				"kind": "user",
				"methods": {},
				"version": 1
			}
		}
	}
}