{
	"voting 2.sol": {
		"Voting": {
			"abi": [
				{
					"inputs": [],
					"stateMutability": "nonpayable",
					"type": "constructor"
				},
				{
					"inputs": [],
					"name": "Canidate_List",
					"outputs": [
						{
							"components": [
								{
									"internalType": "string",
									"name": "name",
									"type": "string"
								},
								{
									"internalType": "string",
									"name": "party",
									"type": "string"
								},
								{
									"internalType": "uint256",
									"name": "cnicc",
									"type": "uint256"
								},
								{
									"internalType": "uint256",
									"name": "candidate_id",
									"type": "uint256"
								},
								{
									"internalType": "address",
									"name": "candidate_address",
									"type": "address"
								},
								{
									"internalType": "uint256",
									"name": "votes",
									"type": "uint256"
								}
							],
							"internalType": "struct Voting.candidate[]",
							"name": "",
							"type": "tuple[]"
						}
					],
					"stateMutability": "view",
					"type": "function"
				},
				{
					"inputs": [
						{
							"internalType": "uint256",
							"name": "cid",
							"type": "uint256"
						},
						{
							"internalType": "uint256",
							"name": "_cnic",
							"type": "uint256"
						}
					],
					"name": "Vote",
					"outputs": [],
					"stateMutability": "nonpayable",
					"type": "function"
				},
				{
					"inputs": [
						{
							"internalType": "string",
							"name": "name",
							"type": "string"
						},
						{
							"internalType": "uint256",
							"name": "cnic",
							"type": "uint256"
						}
					],
					"name": "Voter_Registration",
					"outputs": [],
					"stateMutability": "nonpayable",
					"type": "function"
				},
				{
					"inputs": [
						{
							"internalType": "uint256",
							"name": "",
							"type": "uint256"
						}
					],
					"name": "candidate_data",
					"outputs": [
						{
							"internalType": "string",
							"name": "name",
							"type": "string"
						},
						{
							"internalType": "string",
							"name": "party",
							"type": "string"
						},
						{
							"internalType": "uint256",
							"name": "cnicc",
							"type": "uint256"
						},
						{
							"internalType": "uint256",
							"name": "candidate_id",
							"type": "uint256"
						},
						{
							"internalType": "address",
							"name": "candidate_address",
							"type": "address"
						},
						{
							"internalType": "uint256",
							"name": "votes",
							"type": "uint256"
						}
					],
					"stateMutability": "view",
					"type": "function"
				},
				{
					"inputs": [
						{
							"internalType": "string",
							"name": "name",
							"type": "string"
						},
						{
							"internalType": "string",
							"name": "party",
							"type": "string"
						},
						{
							"internalType": "uint256",
							"name": "cnic",
							"type": "uint256"
						}
					],
					"name": "candidate_registration",
					"outputs": [],
					"stateMutability": "nonpayable",
					"type": "function"
				},
				{
					"inputs": [],
					"name": "nextcandidateid",
					"outputs": [
						{
							"internalType": "uint256",
							"name": "",
							"type": "uint256"
						}
					],
					"stateMutability": "view",
					"type": "function"
				},
				{
					"inputs": [],
					"name": "start_voting",
					"outputs": [
						{
							"internalType": "uint256",
							"name": "",
							"type": "uint256"
						}
					],
					"stateMutability": "view",
					"type": "function"
				},
				{
					"inputs": [
						{
							"internalType": "uint256",
							"name": "",
							"type": "uint256"
						}
					],
					"name": "voter_data",
					"outputs": [
						{
							"internalType": "string",
							"name": "name",
							"type": "string"
						},
						{
							"internalType": "uint256",
							"name": "cnic",
							"type": "uint256"
						},
						{
							"internalType": "uint256",
							"name": "voter_id",
							"type": "uint256"
						},
						{
							"internalType": "uint256",
							"name": "voted_candidate",
							"type": "uint256"
						},
						{
							"internalType": "address",
							"name": "voter_address",
							"type": "address"
						}
					],
					"stateMutability": "view",
					"type": "function"
				},
				{
					"inputs": [
						{
							"internalType": "address",
							"name": "addr",
							"type": "address"
						}
					],
					"name": "voter_verification",
					"outputs": [
						{
							"internalType": "bool",
							"name": "",
							"type": "bool"
						}
					],
					"stateMutability": "view",
					"type": "function"
				},
				{
					"inputs": [
						{
							"internalType": "uint256",
							"name": "cnic",
							"type": "uint256"
						}
					],
					"name": "votercnic",
					"outputs": [
						{
							"internalType": "bool",
							"name": "",
							"type": "bool"
						}
					],
					"stateMutability": "view",
					"type": "function"
				},
				{
					"inputs": [
						{
							"internalType": "uint256",
							"name": "",
							"type": "uint256"
						}
					],
					"name": "voterr",
					"outputs": [
						{
							"internalType": "string",
							"name": "name",
							"type": "string"
						},
						{
							"internalType": "uint256",
							"name": "cnic",
							"type": "uint256"
						},
						{
							"internalType": "uint256",
							"name": "voter_id",
							"type": "uint256"
						},
						{
							"internalType": "uint256",
							"name": "voted_candidate",
							"type": "uint256"
						},
						{
							"internalType": "address",
							"name": "voter_address",
							"type": "address"
						}
					],
					"stateMutability": "view",
					"type": "function"
				},
				{
					"inputs": [],
					"name": "voters_list",
					"outputs": [
						{
							"components": [
								{
									"internalType": "string",
									"name": "name",
									"type": "string"
								},
								{
									"internalType": "uint256",
									"name": "cnic",
									"type": "uint256"
								},
								{
									"internalType": "uint256",
									"name": "voter_id",
									"type": "uint256"
								},
								{
									"internalType": "uint256",
									"name": "voted_candidate",
									"type": "uint256"
								},
								{
									"internalType": "address",
									"name": "voter_address",
									"type": "address"
								}
							],
							"internalType": "struct Voting.voter_details[]",
							"name": "",
							"type": "tuple[]"
						}
					],
					"stateMutability": "view",
					"type": "function"
				},
				{
					"inputs": [],
					"name": "winner",
					"outputs": [
						{
							"internalType": "address",
							"name": "",
							"type": "address"
						}
					],
					"stateMutability": "view",
					"type": "function"
				}
			],
			"devdoc": {
				"kind": "dev",
				"methods": {},
				"version": 1
			},
			"evm": {
				"assembly": "    /* \"voting 2.sol\":75:3963  contract Voting {... */\n  mstore(0x40, 0x80)\n    /* \"voting 2.sol\":617:618  1 */\n  0x01\n    /* \"voting 2.sol\":600:618  uint nextvoterid=1 */\n  0x02\n  sstore\n    /* \"voting 2.sol\":653:654  1 */\n  0x01\n    /* \"voting 2.sol\":625:654  uint public nextcandidateid=1 */\n  0x03\n  sstore\n    /* \"voting 2.sol\":678:682  3600 */\n  0x0e10\n    /* \"voting 2.sol\":661:682  uint voting_time=3600 */\n  0x04\n  sstore\n    /* \"voting 2.sol\":737:752  block.timestamp */\n  timestamp\n    /* \"voting 2.sol\":712:752  uint public start_voting=block.timestamp */\n  0x06\n  sstore\n    /* \"voting 2.sol\":943:1006  constructor(){... */\n  callvalue\n  dup1\n  iszero\n  tag_1\n  jumpi\n  0x00\n  dup1\n  revert\ntag_1:\n  pop\n    /* \"voting 2.sol\":988:998  msg.sender */\n  caller\n    /* \"voting 2.sol\":967:998  election_commission==msg.sender */\n  0xffffffffffffffffffffffffffffffffffffffff\n  and\n    /* \"voting 2.sol\":967:986  election_commission */\n  0x00\n  dup1\n  sload\n  swap1\n  0x0100\n  exp\n  swap1\n  pop\n  pop\n    /* \"voting 2.sol\":967:998  election_commission==msg.sender */\n  pop\n    /* \"voting 2.sol\":75:3963  contract Voting {... */\n  dataSize(sub_0)\n  dup1\n  dataOffset(sub_0)\n  0x00\n  codecopy\n  0x00\n  return\nstop\n\nsub_0: assembly {\n        /* \"voting 2.sol\":75:3963  contract Voting {... */\n      mstore(0x40, 0x80)\n      callvalue\n      dup1\n      iszero\n      tag_1\n      jumpi\n      0x00\n      dup1\n      revert\n    tag_1:\n      pop\n      jumpi(tag_2, lt(calldatasize, 0x04))\n      shr(0xe0, calldataload(0x00))\n      dup1\n      0x9911760a\n      gt\n      tag_16\n      jumpi\n      dup1\n      0xb24aa34e\n      gt\n      tag_17\n      jumpi\n      dup1\n      0xb24aa34e\n      eq\n      tag_12\n      jumpi\n      dup1\n      0xdfbf53ae\n      eq\n      tag_13\n      jumpi\n      dup1\n      0xe9f91410\n      eq\n      tag_14\n      jumpi\n      dup1\n      0xeb307f32\n      eq\n      tag_15\n      jumpi\n      jump(tag_2)\n    tag_17:\n      dup1\n      0x9911760a\n      eq\n      tag_9\n      jumpi\n      dup1\n      0xa01ac424\n      eq\n      tag_10\n      jumpi\n      dup1\n      0xa01cb141\n      eq\n      tag_11\n      jumpi\n      jump(tag_2)\n    tag_16:\n      dup1\n      0x0d34f2e2\n      eq\n      tag_3\n      jumpi\n      dup1\n      0x33952ef9\n      eq\n      tag_4\n      jumpi\n      dup1\n      0x4a21ba54\n      eq\n      tag_5\n      jumpi\n      dup1\n      0x76e810fa\n      eq\n      tag_6\n      jumpi\n      dup1\n      0x81a52116\n      eq\n      tag_7\n      jumpi\n      dup1\n      0x985be1e9\n      eq\n      tag_8\n      jumpi\n    tag_2:\n      0x00\n      dup1\n      revert\n        /* \"voting 2.sol\":765:811  mapping(uint=>voter_details) public voter_data */\n    tag_3:\n      tag_18\n      0x04\n      dup1\n      calldatasize\n      sub\n      dup2\n      add\n      swap1\n      tag_19\n      swap2\n      swap1\n      tag_20\n      jump\t// in\n    tag_19:\n      tag_21\n      jump\t// in\n    tag_18:\n      mload(0x40)\n      tag_22\n      swap6\n      swap5\n      swap4\n      swap3\n      swap2\n      swap1\n      tag_23\n      jump\t// in\n    tag_22:\n      mload(0x40)\n      dup1\n      swap2\n      sub\n      swap1\n      return\n        /* \"voting 2.sol\":3462:3950  function Vote(uint cid,uint _cnic) public {... */\n    tag_4:\n      tag_24\n      0x04\n      dup1\n      calldatasize\n      sub\n      dup2\n      add\n      swap1\n      tag_25\n      swap2\n      swap1\n      tag_26\n      jump\t// in\n    tag_25:\n      tag_27\n      jump\t// in\n    tag_24:\n      stop\n        /* \"voting 2.sol\":3192:3454  function voters_list() public view returns(voter_details[] memory) {... */\n    tag_5:\n      tag_28\n      tag_29\n      jump\t// in\n    tag_28:\n      mload(0x40)\n      tag_30\n      swap2\n      swap1\n      tag_31\n      jump\t// in\n    tag_30:\n      mload(0x40)\n      dup1\n      swap2\n      sub\n      swap1\n      return\n        /* \"voting 2.sol\":2682:2946  function voter_verification(address addr) public view returns(bool){... */\n    tag_6:\n      tag_32\n      0x04\n      dup1\n      calldatasize\n      sub\n      dup2\n      add\n      swap1\n      tag_33\n      swap2\n      swap1\n      tag_34\n      jump\t// in\n    tag_33:\n      tag_35\n      jump\t// in\n    tag_32:\n      mload(0x40)\n      tag_36\n      swap2\n      swap1\n      tag_37\n      jump\t// in\n    tag_36:\n      mload(0x40)\n      dup1\n      swap2\n      sub\n      swap1\n      return\n        /* \"voting 2.sol\":822:868  mapping(uint=>candidate) public candidate_data */\n    tag_7:\n      tag_38\n      0x04\n      dup1\n      calldatasize\n      sub\n      dup2\n      add\n      swap1\n      tag_39\n      swap2\n      swap1\n      tag_20\n      jump\t// in\n    tag_39:\n      tag_40\n      jump\t// in\n    tag_38:\n      mload(0x40)\n      tag_41\n      swap7\n      swap6\n      swap5\n      swap4\n      swap3\n      swap2\n      swap1\n      tag_42\n      jump\t// in\n    tag_41:\n      mload(0x40)\n      dup1\n      swap2\n      sub\n      swap1\n      return\n        /* \"voting 2.sol\":2954:3182  function votercnic(uint cnic) public view returns(bool){... */\n    tag_8:\n      tag_43\n      0x04\n      dup1\n      calldatasize\n      sub\n      dup2\n      add\n      swap1\n      tag_44\n      swap2\n      swap1\n      tag_20\n      jump\t// in\n    tag_44:\n      tag_45\n      jump\t// in\n    tag_43:\n      mload(0x40)\n      tag_46\n      swap2\n      swap1\n      tag_37\n      jump\t// in\n    tag_46:\n      mload(0x40)\n      dup1\n      swap2\n      sub\n      swap1\n      return\n        /* \"voting 2.sol\":2200:2674  function Voter_Registration(string memory name,uint cnic) public {... */\n    tag_9:\n      tag_47\n      0x04\n      dup1\n      calldatasize\n      sub\n      dup2\n      add\n      swap1\n      tag_48\n      swap2\n      swap1\n      tag_49\n      jump\t// in\n    tag_48:\n      tag_50\n      jump\t// in\n    tag_47:\n      stop\n        /* \"voting 2.sol\":1899:2192  function Canidate_List() public view returns(candidate[] memory){... */\n    tag_10:\n      tag_51\n      tag_52\n      jump\t// in\n    tag_51:\n      mload(0x40)\n      tag_53\n      swap2\n      swap1\n      tag_54\n      jump\t// in\n    tag_53:\n      mload(0x40)\n      dup1\n      swap2\n      sub\n      swap1\n      return\n        /* \"voting 2.sol\":879:922  mapping (uint=>voter_details) public voterr */\n    tag_11:\n      tag_55\n      0x04\n      dup1\n      calldatasize\n      sub\n      dup2\n      add\n      swap1\n      tag_56\n      swap2\n      swap1\n      tag_20\n      jump\t// in\n    tag_56:\n      tag_57\n      jump\t// in\n    tag_55:\n      mload(0x40)\n      tag_58\n      swap6\n      swap5\n      swap4\n      swap3\n      swap2\n      swap1\n      tag_23\n      jump\t// in\n    tag_58:\n      mload(0x40)\n      dup1\n      swap2\n      sub\n      swap1\n      return\n        /* \"voting 2.sol\":712:752  uint public start_voting=block.timestamp */\n    tag_12:\n      tag_59\n      tag_60\n      jump\t// in\n    tag_59:\n      mload(0x40)\n      tag_61\n      swap2\n      swap1\n      tag_62\n      jump\t// in\n    tag_61:\n      mload(0x40)\n      dup1\n      swap2\n      sub\n      swap1\n      return\n        /* \"voting 2.sol\":134:155  address public winner */\n    tag_13:\n      tag_63\n      tag_64\n      jump\t// in\n    tag_63:\n      mload(0x40)\n      tag_65\n      swap2\n      swap1\n      tag_66\n      jump\t// in\n    tag_65:\n      mload(0x40)\n      dup1\n      swap2\n      sub\n      swap1\n      return\n        /* \"voting 2.sol\":1261:1613  function candidate_registration(string memory name ,string memory party, uint cnic) public {... */\n    tag_14:\n      tag_67\n      0x04\n      dup1\n      calldatasize\n      sub\n      dup2\n      add\n      swap1\n      tag_68\n      swap2\n      swap1\n      tag_69\n      jump\t// in\n    tag_68:\n      tag_70\n      jump\t// in\n    tag_67:\n      stop\n        /* \"voting 2.sol\":625:654  uint public nextcandidateid=1 */\n    tag_15:\n      tag_71\n      tag_72\n      jump\t// in\n    tag_71:\n      mload(0x40)\n      tag_73\n      swap2\n      swap1\n      tag_62\n      jump\t// in\n    tag_73:\n      mload(0x40)\n      dup1\n      swap2\n      sub\n      swap1\n      return\n        /* \"voting 2.sol\":765:811  mapping(uint=>voter_details) public voter_data */\n    tag_21:\n      mstore(0x20, 0x07)\n      dup1\n      0x00\n      mstore\n      keccak256(0x00, 0x40)\n      0x00\n      swap2\n      pop\n      swap1\n      pop\n      dup1\n      0x00\n      add\n      dup1\n      sload\n      tag_74\n      swap1\n      tag_75\n      jump\t// in\n    tag_74:\n      dup1\n      0x1f\n      add\n      0x20\n      dup1\n      swap2\n      div\n      mul\n      0x20\n      add\n      mload(0x40)\n      swap1\n      dup2\n      add\n      0x40\n      mstore\n      dup1\n      swap3\n      swap2\n      swap1\n      dup2\n      dup2\n      mstore\n      0x20\n      add\n      dup3\n      dup1\n      sload\n      tag_76\n      swap1\n      tag_75\n      jump\t// in\n    tag_76:\n      dup1\n      iszero\n      tag_77\n      jumpi\n      dup1\n      0x1f\n      lt\n      tag_78\n      jumpi\n      0x0100\n      dup1\n      dup4\n      sload\n      div\n      mul\n      dup4\n      mstore\n      swap2\n      0x20\n      add\n      swap2\n      jump(tag_77)\n    tag_78:\n      dup3\n      add\n      swap2\n      swap1\n      0x00\n      mstore\n      keccak256(0x00, 0x20)\n      swap1\n    tag_79:\n      dup2\n      sload\n      dup2\n      mstore\n      swap1\n      0x01\n      add\n      swap1\n      0x20\n      add\n      dup1\n      dup4\n      gt\n      tag_79\n      jumpi\n      dup3\n      swap1\n      sub\n      0x1f\n      and\n      dup3\n      add\n      swap2\n    tag_77:\n      pop\n      pop\n      pop\n      pop\n      pop\n      swap1\n      dup1\n      0x01\n      add\n      sload\n      swap1\n      dup1\n      0x02\n      add\n      sload\n      swap1\n      dup1\n      0x03\n      add\n      sload\n      swap1\n      dup1\n      0x04\n      add\n      0x00\n      swap1\n      sload\n      swap1\n      0x0100\n      exp\n      swap1\n      div\n      0xffffffffffffffffffffffffffffffffffffffff\n      and\n      swap1\n      pop\n      dup6\n      jump\t// out\n        /* \"voting 2.sol\":3462:3950  function Vote(uint cid,uint _cnic) public {... */\n    tag_27:\n        /* \"voting 2.sol\":3554:3555  0 */\n      0x00\n        /* \"voting 2.sol\":3523:3529  voterr */\n      0x09\n        /* \"voting 2.sol\":3523:3536  voterr[_cnic] */\n      0x00\n        /* \"voting 2.sol\":3530:3535  _cnic */\n      dup4\n        /* \"voting 2.sol\":3523:3536  voterr[_cnic] */\n      dup2\n      mstore\n      0x20\n      add\n      swap1\n      dup2\n      mstore\n      0x20\n      add\n      0x00\n      keccak256\n        /* \"voting 2.sol\":3523:3552  voterr[_cnic].voted_candidate */\n      0x03\n      add\n      sload\n        /* \"voting 2.sol\":3523:3555  voterr[_cnic].voted_candidate==0 */\n      eq\n        /* \"voting 2.sol\":3515:3573  require(voterr[_cnic].voted_candidate==0, \"Already Votes\") */\n      tag_81\n      jumpi\n      mload(0x40)\n      0x08c379a000000000000000000000000000000000000000000000000000000000\n      dup2\n      mstore\n      0x04\n      add\n      tag_82\n      swap1\n      tag_83\n      jump\t// in\n    tag_82:\n      mload(0x40)\n      dup1\n      swap2\n      sub\n      swap1\n      revert\n    tag_81:\n        /* \"voting 2.sol\":3621:3631  msg.sender */\n      caller\n        /* \"voting 2.sol\":3592:3631  voterr[_cnic].voter_address==msg.sender */\n      0xffffffffffffffffffffffffffffffffffffffff\n      and\n        /* \"voting 2.sol\":3592:3598  voterr */\n      0x09\n        /* \"voting 2.sol\":3592:3605  voterr[_cnic] */\n      0x00\n        /* \"voting 2.sol\":3599:3604  _cnic */\n      dup4\n        /* \"voting 2.sol\":3592:3605  voterr[_cnic] */\n      dup2\n      mstore\n      0x20\n      add\n      swap1\n      dup2\n      mstore\n      0x20\n      add\n      0x00\n      keccak256\n        /* \"voting 2.sol\":3592:3619  voterr[_cnic].voter_address */\n      0x04\n      add\n      0x00\n      swap1\n      sload\n      swap1\n      0x0100\n      exp\n      swap1\n      div\n      0xffffffffffffffffffffffffffffffffffffffff\n      and\n        /* \"voting 2.sol\":3592:3631  voterr[_cnic].voter_address==msg.sender */\n      0xffffffffffffffffffffffffffffffffffffffff\n      and\n      eq\n        /* \"voting 2.sol\":3584:3655  require(voterr[_cnic].voter_address==msg.sender, \"You are not a voter\") */\n      tag_84\n      jumpi\n      mload(0x40)\n      0x08c379a000000000000000000000000000000000000000000000000000000000\n      dup2\n      mstore\n      0x04\n      add\n      tag_85\n      swap1\n      tag_86\n      jump\t// in\n    tag_85:\n      mload(0x40)\n      dup1\n      swap2\n      sub\n      swap1\n      revert\n    tag_84:\n        /* \"voting 2.sol\":3699:3711  start_voting */\n      sload(0x06)\n        /* \"voting 2.sol\":3687:3698  voting_time */\n      sload(0x04)\n        /* \"voting 2.sol\":3674:3686  start_voting */\n      sload(0x06)\n        /* \"voting 2.sol\":3674:3698  start_voting+voting_time */\n      tag_87\n      swap2\n      swap1\n      tag_88\n      jump\t// in\n    tag_87:\n        /* \"voting 2.sol\":3674:3711  start_voting+voting_time>start_voting */\n      gt\n        /* \"voting 2.sol\":3666:3734  require(start_voting+voting_time>start_voting, \"Voting not started\") */\n      tag_89\n      jumpi\n      mload(0x40)\n      0x08c379a000000000000000000000000000000000000000000000000000000000\n      dup2\n      mstore\n      0x04\n      add\n      tag_90\n      swap1\n      tag_91\n      jump\t// in\n    tag_90:\n      mload(0x40)\n      dup1\n      swap2\n      sub\n      swap1\n      revert\n    tag_89:\n        /* \"voting 2.sol\":3759:3774  nextcandidateid */\n      sload(0x03)\n        /* \"voting 2.sol\":3753:3756  cid */\n      dup3\n        /* \"voting 2.sol\":3753:3774  cid < nextcandidateid */\n      lt\n        /* \"voting 2.sol\":3753:3783  cid < nextcandidateid && cid>0 */\n      dup1\n      iszero\n      tag_92\n      jumpi\n      pop\n        /* \"voting 2.sol\":3782:3783  0 */\n      0x00\n        /* \"voting 2.sol\":3778:3781  cid */\n      dup3\n        /* \"voting 2.sol\":3778:3783  cid>0 */\n      gt\n        /* \"voting 2.sol\":3753:3783  cid < nextcandidateid && cid>0 */\n    tag_92:\n        /* \"voting 2.sol\":3745:3810  require(cid < nextcandidateid && cid>0 , \"Invalid Candidate id\" ) */\n      tag_93\n      jumpi\n      mload(0x40)\n      0x08c379a000000000000000000000000000000000000000000000000000000000\n      dup2\n      mstore\n      0x04\n      add\n      tag_94\n      swap1\n      tag_95\n      jump\t// in\n    tag_94:\n      mload(0x40)\n      dup1\n      swap2\n      sub\n      swap1\n      revert\n    tag_93:\n        /* \"voting 2.sol\":3821:3835  candidate_data */\n      0x08\n        /* \"voting 2.sol\":3821:3840  candidate_data[cid] */\n      0x00\n        /* \"voting 2.sol\":3836:3839  cid */\n      dup4\n        /* \"voting 2.sol\":3821:3840  candidate_data[cid] */\n      dup2\n      mstore\n      0x20\n      add\n      swap1\n      dup2\n      mstore\n      0x20\n      add\n      0x00\n      keccak256\n        /* \"voting 2.sol\":3821:3846  candidate_data[cid].votes */\n      0x05\n      add\n      0x00\n        /* \"voting 2.sol\":3821:3848  candidate_data[cid].votes++ */\n      dup2\n      sload\n      dup1\n      swap3\n      swap2\n      swap1\n      tag_96\n      swap1\n      tag_97\n      jump\t// in\n    tag_96:\n      swap2\n      swap1\n      pop\n      sstore\n      pop\n        /* \"voting 2.sol\":3889:3892  cid */\n      dup2\n        /* \"voting 2.sol\":3859:3865  voterr */\n      0x09\n        /* \"voting 2.sol\":3859:3872  voterr[_cnic] */\n      0x00\n        /* \"voting 2.sol\":3866:3871  _cnic */\n      dup4\n        /* \"voting 2.sol\":3859:3872  voterr[_cnic] */\n      dup2\n      mstore\n      0x20\n      add\n      swap1\n      dup2\n      mstore\n      0x20\n      add\n      0x00\n      keccak256\n        /* \"voting 2.sol\":3859:3888  voterr[_cnic].voted_candidate */\n      0x03\n      add\n        /* \"voting 2.sol\":3859:3892  voterr[_cnic].voted_candidate=cid */\n      dup2\n      swap1\n      sstore\n      pop\n        /* \"voting 2.sol\":3937:3940  cid */\n      dup2\n        /* \"voting 2.sol\":3903:3913  voter_data */\n      0x07\n        /* \"voting 2.sol\":3903:3920  voter_data[_cnic] */\n      0x00\n        /* \"voting 2.sol\":3914:3919  _cnic */\n      dup4\n        /* \"voting 2.sol\":3903:3920  voter_data[_cnic] */\n      dup2\n      mstore\n      0x20\n      add\n      swap1\n      dup2\n      mstore\n      0x20\n      add\n      0x00\n      keccak256\n        /* \"voting 2.sol\":3903:3936  voter_data[_cnic].voted_candidate */\n      0x03\n      add\n        /* \"voting 2.sol\":3903:3940  voter_data[_cnic].voted_candidate=cid */\n      dup2\n      swap1\n      sstore\n      pop\n        /* \"voting 2.sol\":3462:3950  function Vote(uint cid,uint _cnic) public {... */\n      pop\n      pop\n      jump\t// out\n        /* \"voting 2.sol\":3192:3454  function voters_list() public view returns(voter_details[] memory) {... */\n    tag_29:\n        /* \"voting 2.sol\":3235:3257  voter_details[] memory */\n      0x60\n        /* \"voting 2.sol\":3270:3297  voter_details[] memory arrr */\n      0x00\n        /* \"voting 2.sol\":3331:3332  1 */\n      0x01\n        /* \"voting 2.sol\":3319:3330  nextvoterid */\n      sload(0x02)\n        /* \"voting 2.sol\":3319:3332  nextvoterid-1 */\n      tag_99\n      swap2\n      swap1\n      tag_100\n      jump\t// in\n    tag_99:\n        /* \"voting 2.sol\":3299:3333  new voter_details[](nextvoterid-1) */\n      0xffffffffffffffff\n      dup2\n      gt\n      iszero\n      tag_101\n      jumpi\n      tag_102\n      tag_103\n      jump\t// in\n    tag_102:\n    tag_101:\n      mload(0x40)\n      swap1\n      dup1\n      dup3\n      mstore\n      dup1\n      0x20\n      mul\n      0x20\n      add\n      dup3\n      add\n      0x40\n      mstore\n      dup1\n      iszero\n      tag_104\n      jumpi\n      dup2\n      0x20\n      add\n    tag_105:\n      tag_106\n      tag_107\n      jump\t// in\n    tag_106:\n      dup2\n      mstore\n      0x20\n      add\n      swap1\n      0x01\n      swap1\n      sub\n      swap1\n      dup2\n      tag_105\n      jumpi\n      swap1\n      pop\n    tag_104:\n      pop\n        /* \"voting 2.sol\":3270:3333  voter_details[] memory arrr= new voter_details[](nextvoterid-1) */\n      swap1\n      pop\n        /* \"voting 2.sol\":3348:3354  uint i */\n      0x00\n        /* \"voting 2.sol\":3355:3356  1 */\n      0x01\n        /* \"voting 2.sol\":3348:3356  uint i=1 */\n      swap1\n      pop\n        /* \"voting 2.sol\":3344:3425  for(uint i=1;i<nextvoterid;i++){... */\n    tag_108:\n        /* \"voting 2.sol\":3359:3370  nextvoterid */\n      sload(0x02)\n        /* \"voting 2.sol\":3357:3358  i */\n      dup2\n        /* \"voting 2.sol\":3357:3370  i<nextvoterid */\n      lt\n        /* \"voting 2.sol\":3344:3425  for(uint i=1;i<nextvoterid;i++){... */\n      iszero\n      tag_109\n      jumpi\n        /* \"voting 2.sol\":3400:3410  voter_data */\n      0x07\n        /* \"voting 2.sol\":3400:3413  voter_data[i] */\n      0x00\n        /* \"voting 2.sol\":3411:3412  i */\n      dup3\n        /* \"voting 2.sol\":3400:3413  voter_data[i] */\n      dup2\n      mstore\n      0x20\n      add\n      swap1\n      dup2\n      mstore\n      0x20\n      add\n      0x00\n      keccak256\n        /* \"voting 2.sol\":3390:3413  arrr[i-1]=voter_data[i] */\n      mload(0x40)\n      dup1\n      0xa0\n      add\n      0x40\n      mstore\n      swap1\n      dup2\n      0x00\n      dup3\n      add\n      dup1\n      sload\n      tag_111\n      swap1\n      tag_75\n      jump\t// in\n    tag_111:\n      dup1\n      0x1f\n      add\n      0x20\n      dup1\n      swap2\n      div\n      mul\n      0x20\n      add\n      mload(0x40)\n      swap1\n      dup2\n      add\n      0x40\n      mstore\n      dup1\n      swap3\n      swap2\n      swap1\n      dup2\n      dup2\n      mstore\n      0x20\n      add\n      dup3\n      dup1\n      sload\n      tag_112\n      swap1\n      tag_75\n      jump\t// in\n    tag_112:\n      dup1\n      iszero\n      tag_113\n      jumpi\n      dup1\n      0x1f\n      lt\n      tag_114\n      jumpi\n      0x0100\n      dup1\n      dup4\n      sload\n      div\n      mul\n      dup4\n      mstore\n      swap2\n      0x20\n      add\n      swap2\n      jump(tag_113)\n    tag_114:\n      dup3\n      add\n      swap2\n      swap1\n      0x00\n      mstore\n      keccak256(0x00, 0x20)\n      swap1\n    tag_115:\n      dup2\n      sload\n      dup2\n      mstore\n      swap1\n      0x01\n      add\n      swap1\n      0x20\n      add\n      dup1\n      dup4\n      gt\n      tag_115\n      jumpi\n      dup3\n      swap1\n      sub\n      0x1f\n      and\n      dup3\n      add\n      swap2\n    tag_113:\n      pop\n      pop\n      pop\n      pop\n      pop\n      dup2\n      mstore\n      0x20\n      add\n      0x01\n      dup3\n      add\n      sload\n      dup2\n      mstore\n      0x20\n      add\n      0x02\n      dup3\n      add\n      sload\n      dup2\n      mstore\n      0x20\n      add\n      0x03\n      dup3\n      add\n      sload\n      dup2\n      mstore\n      0x20\n      add\n      0x04\n      dup3\n      add\n      0x00\n      swap1\n      sload\n      swap1\n      0x0100\n      exp\n      swap1\n      div\n      0xffffffffffffffffffffffffffffffffffffffff\n      and\n      0xffffffffffffffffffffffffffffffffffffffff\n      and\n      0xffffffffffffffffffffffffffffffffffffffff\n      and\n      dup2\n      mstore\n      pop\n      pop\n        /* \"voting 2.sol\":3390:3394  arrr */\n      dup3\n        /* \"voting 2.sol\":3397:3398  1 */\n      0x01\n        /* \"voting 2.sol\":3395:3396  i */\n      dup4\n        /* \"voting 2.sol\":3395:3398  i-1 */\n      tag_116\n      swap2\n      swap1\n      tag_100\n      jump\t// in\n    tag_116:\n        /* \"voting 2.sol\":3390:3399  arrr[i-1] */\n      dup2\n      mload\n      dup2\n      lt\n      tag_117\n      jumpi\n      tag_118\n      tag_119\n      jump\t// in\n    tag_118:\n    tag_117:\n      0x20\n      mul\n      0x20\n      add\n      add\n        /* \"voting 2.sol\":3390:3413  arrr[i-1]=voter_data[i] */\n      dup2\n      swap1\n      mstore\n      pop\n        /* \"voting 2.sol\":3371:3374  i++ */\n      dup1\n      dup1\n      tag_120\n      swap1\n      tag_97\n      jump\t// in\n    tag_120:\n      swap2\n      pop\n      pop\n        /* \"voting 2.sol\":3344:3425  for(uint i=1;i<nextvoterid;i++){... */\n      jump(tag_108)\n    tag_109:\n      pop\n        /* \"voting 2.sol\":3442:3446  arrr */\n      dup1\n        /* \"voting 2.sol\":3435:3446  return arrr */\n      swap2\n      pop\n      pop\n        /* \"voting 2.sol\":3192:3454  function voters_list() public view returns(voter_details[] memory) {... */\n      swap1\n      jump\t// out\n        /* \"voting 2.sol\":2682:2946  function voter_verification(address addr) public view returns(bool){... */\n    tag_35:\n        /* \"voting 2.sol\":2744:2748  bool */\n      0x00\n        /* \"voting 2.sol\":2765:2771  uint i */\n      dup1\n        /* \"voting 2.sol\":2772:2773  0 */\n      0x00\n        /* \"voting 2.sol\":2765:2773  uint i=0 */\n      swap1\n      pop\n        /* \"voting 2.sol\":2760:2917  for (uint i=0; i<nextvoterid; i++) ... */\n    tag_122:\n        /* \"voting 2.sol\":2777:2788  nextvoterid */\n      sload(0x02)\n        /* \"voting 2.sol\":2775:2776  i */\n      dup2\n        /* \"voting 2.sol\":2775:2788  i<nextvoterid */\n      lt\n        /* \"voting 2.sol\":2760:2917  for (uint i=0; i<nextvoterid; i++) ... */\n      iszero\n      tag_123\n      jumpi\n        /* \"voting 2.sol\":2853:2857  addr */\n      dup3\n        /* \"voting 2.sol\":2824:2857  voter_data[i].voter_address==addr */\n      0xffffffffffffffffffffffffffffffffffffffff\n      and\n        /* \"voting 2.sol\":2824:2834  voter_data */\n      0x07\n        /* \"voting 2.sol\":2824:2837  voter_data[i] */\n      0x00\n        /* \"voting 2.sol\":2835:2836  i */\n      dup4\n        /* \"voting 2.sol\":2824:2837  voter_data[i] */\n      dup2\n      mstore\n      0x20\n      add\n      swap1\n      dup2\n      mstore\n      0x20\n      add\n      0x00\n      keccak256\n        /* \"voting 2.sol\":2824:2851  voter_data[i].voter_address */\n      0x04\n      add\n      0x00\n      swap1\n      sload\n      swap1\n      0x0100\n      exp\n      swap1\n      div\n      0xffffffffffffffffffffffffffffffffffffffff\n      and\n        /* \"voting 2.sol\":2824:2857  voter_data[i].voter_address==addr */\n      0xffffffffffffffffffffffffffffffffffffffff\n      and\n      sub\n        /* \"voting 2.sol\":2820:2906  if (voter_data[i].voter_address==addr) {... */\n      tag_125\n      jumpi\n        /* \"voting 2.sol\":2884:2889  false */\n      0x00\n        /* \"voting 2.sol\":2877:2889  return false */\n      swap2\n      pop\n      pop\n      jump(tag_121)\n        /* \"voting 2.sol\":2820:2906  if (voter_data[i].voter_address==addr) {... */\n    tag_125:\n        /* \"voting 2.sol\":2790:2793  i++ */\n      dup1\n      dup1\n      tag_126\n      swap1\n      tag_97\n      jump\t// in\n    tag_126:\n      swap2\n      pop\n      pop\n        /* \"voting 2.sol\":2760:2917  for (uint i=0; i<nextvoterid; i++) ... */\n      jump(tag_122)\n    tag_123:\n      pop\n        /* \"voting 2.sol\":2934:2938  true */\n      0x01\n        /* \"voting 2.sol\":2927:2938  return true */\n      swap1\n      pop\n        /* \"voting 2.sol\":2682:2946  function voter_verification(address addr) public view returns(bool){... */\n    tag_121:\n      swap2\n      swap1\n      pop\n      jump\t// out\n        /* \"voting 2.sol\":822:868  mapping(uint=>candidate) public candidate_data */\n    tag_40:\n      mstore(0x20, 0x08)\n      dup1\n      0x00\n      mstore\n      keccak256(0x00, 0x40)\n      0x00\n      swap2\n      pop\n      swap1\n      pop\n      dup1\n      0x00\n      add\n      dup1\n      sload\n      tag_127\n      swap1\n      tag_75\n      jump\t// in\n    tag_127:\n      dup1\n      0x1f\n      add\n      0x20\n      dup1\n      swap2\n      div\n      mul\n      0x20\n      add\n      mload(0x40)\n      swap1\n      dup2\n      add\n      0x40\n      mstore\n      dup1\n      swap3\n      swap2\n      swap1\n      dup2\n      dup2\n      mstore\n      0x20\n      add\n      dup3\n      dup1\n      sload\n      tag_128\n      swap1\n      tag_75\n      jump\t// in\n    tag_128:\n      dup1\n      iszero\n      tag_129\n      jumpi\n      dup1\n      0x1f\n      lt\n      tag_130\n      jumpi\n      0x0100\n      dup1\n      dup4\n      sload\n      div\n      mul\n      dup4\n      mstore\n      swap2\n      0x20\n      add\n      swap2\n      jump(tag_129)\n    tag_130:\n      dup3\n      add\n      swap2\n      swap1\n      0x00\n      mstore\n      keccak256(0x00, 0x20)\n      swap1\n    tag_131:\n      dup2\n      sload\n      dup2\n      mstore\n      swap1\n      0x01\n      add\n      swap1\n      0x20\n      add\n      dup1\n      dup4\n      gt\n      tag_131\n      jumpi\n      dup3\n      swap1\n      sub\n      0x1f\n      and\n      dup3\n      add\n      swap2\n    tag_129:\n      pop\n      pop\n      pop\n      pop\n      pop\n      swap1\n      dup1\n      0x01\n      add\n      dup1\n      sload\n      tag_132\n      swap1\n      tag_75\n      jump\t// in\n    tag_132:\n      dup1\n      0x1f\n      add\n      0x20\n      dup1\n      swap2\n      div\n      mul\n      0x20\n      add\n      mload(0x40)\n      swap1\n      dup2\n      add\n      0x40\n      mstore\n      dup1\n      swap3\n      swap2\n      swap1\n      dup2\n      dup2\n      mstore\n      0x20\n      add\n      dup3\n      dup1\n      sload\n      tag_133\n      swap1\n      tag_75\n      jump\t// in\n    tag_133:\n      dup1\n      iszero\n      tag_134\n      jumpi\n      dup1\n      0x1f\n      lt\n      tag_135\n      jumpi\n      0x0100\n      dup1\n      dup4\n      sload\n      div\n      mul\n      dup4\n      mstore\n      swap2\n      0x20\n      add\n      swap2\n      jump(tag_134)\n    tag_135:\n      dup3\n      add\n      swap2\n      swap1\n      0x00\n      mstore\n      keccak256(0x00, 0x20)\n      swap1\n    tag_136:\n      dup2\n      sload\n      dup2\n      mstore\n      swap1\n      0x01\n      add\n      swap1\n      0x20\n      add\n      dup1\n      dup4\n      gt\n      tag_136\n      jumpi\n      dup3\n      swap1\n      sub\n      0x1f\n      and\n      dup3\n      add\n      swap2\n    tag_134:\n      pop\n      pop\n      pop\n      pop\n      pop\n      swap1\n      dup1\n      0x02\n      add\n      sload\n      swap1\n      dup1\n      0x03\n      add\n      sload\n      swap1\n      dup1\n      0x04\n      add\n      0x00\n      swap1\n      sload\n      swap1\n      0x0100\n      exp\n      swap1\n      div\n      0xffffffffffffffffffffffffffffffffffffffff\n      and\n      swap1\n      dup1\n      0x05\n      add\n      sload\n      swap1\n      pop\n      dup7\n      jump\t// out\n        /* \"voting 2.sol\":2954:3182  function votercnic(uint cnic) public view returns(bool){... */\n    tag_45:\n        /* \"voting 2.sol\":3004:3008  bool */\n      0x00\n        /* \"voting 2.sol\":3024:3030  uint i */\n      dup1\n        /* \"voting 2.sol\":3031:3032  0 */\n      0x00\n        /* \"voting 2.sol\":3024:3032  uint i=0 */\n      swap1\n      pop\n        /* \"voting 2.sol\":3020:3153  for(uint i=0; i<nextvoterid; i++){... */\n    tag_138:\n        /* \"voting 2.sol\":3036:3047  nextvoterid */\n      sload(0x02)\n        /* \"voting 2.sol\":3034:3035  i */\n      dup2\n        /* \"voting 2.sol\":3034:3047  i<nextvoterid */\n      lt\n        /* \"voting 2.sol\":3020:3153  for(uint i=0; i<nextvoterid; i++){... */\n      iszero\n      tag_139\n      jumpi\n        /* \"voting 2.sol\":3090:3094  cnic */\n      dup3\n        /* \"voting 2.sol\":3071:3077  voterr */\n      0x09\n        /* \"voting 2.sol\":3071:3083  voterr[cnic] */\n      0x00\n        /* \"voting 2.sol\":3078:3082  cnic */\n      dup6\n        /* \"voting 2.sol\":3071:3083  voterr[cnic] */\n      dup2\n      mstore\n      0x20\n      add\n      swap1\n      dup2\n      mstore\n      0x20\n      add\n      0x00\n      keccak256\n        /* \"voting 2.sol\":3071:3088  voterr[cnic].cnic */\n      0x01\n      add\n      sload\n        /* \"voting 2.sol\":3071:3094  voterr[cnic].cnic==cnic */\n      sub\n        /* \"voting 2.sol\":3068:3142  if(voterr[cnic].cnic==cnic){... */\n      tag_141\n      jumpi\n        /* \"voting 2.sol\":3121:3126  false */\n      0x00\n        /* \"voting 2.sol\":3114:3126  return false */\n      swap2\n      pop\n      pop\n      jump(tag_137)\n        /* \"voting 2.sol\":3068:3142  if(voterr[cnic].cnic==cnic){... */\n    tag_141:\n        /* \"voting 2.sol\":3049:3052  i++ */\n      dup1\n      dup1\n      tag_142\n      swap1\n      tag_97\n      jump\t// in\n    tag_142:\n      swap2\n      pop\n      pop\n        /* \"voting 2.sol\":3020:3153  for(uint i=0; i<nextvoterid; i++){... */\n      jump(tag_138)\n    tag_139:\n      pop\n        /* \"voting 2.sol\":3170:3174  true */\n      0x01\n        /* \"voting 2.sol\":3163:3174  return true */\n      swap1\n      pop\n        /* \"voting 2.sol\":2954:3182  function votercnic(uint cnic) public view returns(bool){... */\n    tag_137:\n      swap2\n      swap1\n      pop\n      jump\t// out\n        /* \"voting 2.sol\":2200:2674  function Voter_Registration(string memory name,uint cnic) public {... */\n    tag_50:\n        /* \"voting 2.sol\":2316:2320  true */\n      0x01\n        /* \"voting 2.sol\":2284:2320  voter_verification(msg.sender)==true */\n      iszero\n      iszero\n        /* \"voting 2.sol\":2284:2314  voter_verification(msg.sender) */\n      tag_144\n        /* \"voting 2.sol\":2303:2313  msg.sender */\n      caller\n        /* \"voting 2.sol\":2284:2302  voter_verification */\n      tag_35\n        /* \"voting 2.sol\":2284:2314  voter_verification(msg.sender) */\n      jump\t// in\n    tag_144:\n        /* \"voting 2.sol\":2284:2320  voter_verification(msg.sender)==true */\n      iszero\n      iszero\n      eq\n        /* \"voting 2.sol\":2276:2351  require(voter_verification(msg.sender)==true, \"Address Already registered\") */\n      tag_145\n      jumpi\n      mload(0x40)\n      0x08c379a000000000000000000000000000000000000000000000000000000000\n      dup2\n      mstore\n      0x04\n      add\n      tag_146\n      swap1\n      tag_147\n      jump\t// in\n    tag_146:\n      mload(0x40)\n      dup1\n      swap2\n      sub\n      swap1\n      revert\n    tag_145:\n        /* \"voting 2.sol\":2387:2391  true */\n      0x01\n        /* \"voting 2.sol\":2370:2391  votercnic(cnic)==true */\n      iszero\n      iszero\n        /* \"voting 2.sol\":2370:2385  votercnic(cnic) */\n      tag_148\n        /* \"voting 2.sol\":2380:2384  cnic */\n      dup3\n        /* \"voting 2.sol\":2370:2379  votercnic */\n      tag_45\n        /* \"voting 2.sol\":2370:2385  votercnic(cnic) */\n      jump\t// in\n    tag_148:\n        /* \"voting 2.sol\":2370:2391  votercnic(cnic)==true */\n      iszero\n      iszero\n      eq\n        /* \"voting 2.sol\":2362:2420  require(votercnic(cnic)==true , \"Cnic Already registered\") */\n      tag_149\n      jumpi\n      mload(0x40)\n      0x08c379a000000000000000000000000000000000000000000000000000000000\n      dup2\n      mstore\n      0x04\n      add\n      tag_150\n      swap1\n      tag_151\n      jump\t// in\n    tag_150:\n      mload(0x40)\n      dup1\n      swap2\n      sub\n      swap1\n      revert\n    tag_149:\n        /* \"voting 2.sol\":2449:2498  voter_details(name,cnic,nextvoterid,0,msg.sender) */\n      mload(0x40)\n      dup1\n      0xa0\n      add\n      0x40\n      mstore\n      dup1\n        /* \"voting 2.sol\":2463:2467  name */\n      dup4\n        /* \"voting 2.sol\":2449:2498  voter_details(name,cnic,nextvoterid,0,msg.sender) */\n      dup2\n      mstore\n      0x20\n      add\n        /* \"voting 2.sol\":2468:2472  cnic */\n      dup3\n        /* \"voting 2.sol\":2449:2498  voter_details(name,cnic,nextvoterid,0,msg.sender) */\n      dup2\n      mstore\n      0x20\n      add\n        /* \"voting 2.sol\":2473:2484  nextvoterid */\n      sload(0x02)\n        /* \"voting 2.sol\":2449:2498  voter_details(name,cnic,nextvoterid,0,msg.sender) */\n      dup2\n      mstore\n      0x20\n      add\n        /* \"voting 2.sol\":2485:2486  0 */\n      0x00\n        /* \"voting 2.sol\":2449:2498  voter_details(name,cnic,nextvoterid,0,msg.sender) */\n      dup2\n      mstore\n      0x20\n      add\n        /* \"voting 2.sol\":2487:2497  msg.sender */\n      caller\n        /* \"voting 2.sol\":2449:2498  voter_details(name,cnic,nextvoterid,0,msg.sender) */\n      0xffffffffffffffffffffffffffffffffffffffff\n      and\n      dup2\n      mstore\n      pop\n        /* \"voting 2.sol\":2431:2441  voter_data */\n      0x07\n        /* \"voting 2.sol\":2431:2447  voter_data[cnic] */\n      0x00\n        /* \"voting 2.sol\":2442:2446  cnic */\n      dup4\n        /* \"voting 2.sol\":2431:2447  voter_data[cnic] */\n      dup2\n      mstore\n      0x20\n      add\n      swap1\n      dup2\n      mstore\n      0x20\n      add\n      0x00\n      keccak256\n        /* \"voting 2.sol\":2431:2498  voter_data[cnic]= voter_details(name,cnic,nextvoterid,0,msg.sender) */\n      0x00\n      dup3\n      add\n      mload\n      dup2\n      0x00\n      add\n      swap1\n      dup2\n      tag_152\n      swap2\n      swap1\n      tag_153\n      jump\t// in\n    tag_152:\n      pop\n      0x20\n      dup3\n      add\n      mload\n      dup2\n      0x01\n      add\n      sstore\n      0x40\n      dup3\n      add\n      mload\n      dup2\n      0x02\n      add\n      sstore\n      0x60\n      dup3\n      add\n      mload\n      dup2\n      0x03\n      add\n      sstore\n      0x80\n      dup3\n      add\n      mload\n      dup2\n      0x04\n      add\n      exp(0x0100, 0x00)\n      dup2\n      sload\n      dup2\n      0xffffffffffffffffffffffffffffffffffffffff\n      mul\n      not\n      and\n      swap1\n      dup4\n      0xffffffffffffffffffffffffffffffffffffffff\n      and\n      mul\n      or\n      swap1\n      sstore\n      pop\n      swap1\n      pop\n      pop\n        /* \"voting 2.sol\":2522:2571  voter_details(name,cnic,nextvoterid,0,msg.sender) */\n      mload(0x40)\n      dup1\n      0xa0\n      add\n      0x40\n      mstore\n      dup1\n        /* \"voting 2.sol\":2536:2540  name */\n      dup4\n        /* \"voting 2.sol\":2522:2571  voter_details(name,cnic,nextvoterid,0,msg.sender) */\n      dup2\n      mstore\n      0x20\n      add\n        /* \"voting 2.sol\":2541:2545  cnic */\n      dup3\n        /* \"voting 2.sol\":2522:2571  voter_details(name,cnic,nextvoterid,0,msg.sender) */\n      dup2\n      mstore\n      0x20\n      add\n        /* \"voting 2.sol\":2546:2557  nextvoterid */\n      sload(0x02)\n        /* \"voting 2.sol\":2522:2571  voter_details(name,cnic,nextvoterid,0,msg.sender) */\n      dup2\n      mstore\n      0x20\n      add\n        /* \"voting 2.sol\":2558:2559  0 */\n      0x00\n        /* \"voting 2.sol\":2522:2571  voter_details(name,cnic,nextvoterid,0,msg.sender) */\n      dup2\n      mstore\n      0x20\n      add\n        /* \"voting 2.sol\":2560:2570  msg.sender */\n      caller\n        /* \"voting 2.sol\":2522:2571  voter_details(name,cnic,nextvoterid,0,msg.sender) */\n      0xffffffffffffffffffffffffffffffffffffffff\n      and\n      dup2\n      mstore\n      pop\n        /* \"voting 2.sol\":2509:2515  voterr */\n      0x09\n        /* \"voting 2.sol\":2509:2521  voterr[cnic] */\n      0x00\n        /* \"voting 2.sol\":2516:2520  cnic */\n      dup4\n        /* \"voting 2.sol\":2509:2521  voterr[cnic] */\n      dup2\n      mstore\n      0x20\n      add\n      swap1\n      dup2\n      mstore\n      0x20\n      add\n      0x00\n      keccak256\n        /* \"voting 2.sol\":2509:2571  voterr[cnic]=voter_details(name,cnic,nextvoterid,0,msg.sender) */\n      0x00\n      dup3\n      add\n      mload\n      dup2\n      0x00\n      add\n      swap1\n      dup2\n      tag_154\n      swap2\n      swap1\n      tag_153\n      jump\t// in\n    tag_154:\n      pop\n      0x20\n      dup3\n      add\n      mload\n      dup2\n      0x01\n      add\n      sstore\n      0x40\n      dup3\n      add\n      mload\n      dup2\n      0x02\n      add\n      sstore\n      0x60\n      dup3\n      add\n      mload\n      dup2\n      0x03\n      add\n      sstore\n      0x80\n      dup3\n      add\n      mload\n      dup2\n      0x04\n      add\n      exp(0x0100, 0x00)\n      dup2\n      sload\n      dup2\n      0xffffffffffffffffffffffffffffffffffffffff\n      mul\n      not\n      and\n      swap1\n      dup4\n      0xffffffffffffffffffffffffffffffffffffffff\n      and\n      mul\n      or\n      swap1\n      sstore\n      pop\n      swap1\n      pop\n      pop\n        /* \"voting 2.sol\":2653:2664  nextvoterid */\n      0x02\n      0x00\n        /* \"voting 2.sol\":2653:2666  nextvoterid++ */\n      dup2\n      sload\n      dup1\n      swap3\n      swap2\n      swap1\n      tag_155\n      swap1\n      tag_97\n      jump\t// in\n    tag_155:\n      swap2\n      swap1\n      pop\n      sstore\n      pop\n        /* \"voting 2.sol\":2200:2674  function Voter_Registration(string memory name,uint cnic) public {... */\n      pop\n      pop\n      jump\t// out\n        /* \"voting 2.sol\":1899:2192  function Canidate_List() public view returns(candidate[] memory){... */\n    tag_52:\n        /* \"voting 2.sol\":1944:1962  candidate[] memory */\n      0x60\n        /* \"voting 2.sol\":1974:1996  candidate[] memory arr */\n      0x00\n        /* \"voting 2.sol\":2030:2031  1 */\n      0x01\n        /* \"voting 2.sol\":2014:2029  nextcandidateid */\n      sload(0x03)\n        /* \"voting 2.sol\":2014:2031  nextcandidateid-1 */\n      tag_157\n      swap2\n      swap1\n      tag_100\n      jump\t// in\n    tag_157:\n        /* \"voting 2.sol\":1998:2032  new candidate[](nextcandidateid-1) */\n      0xffffffffffffffff\n      dup2\n      gt\n      iszero\n      tag_158\n      jumpi\n      tag_159\n      tag_103\n      jump\t// in\n    tag_159:\n    tag_158:\n      mload(0x40)\n      swap1\n      dup1\n      dup3\n      mstore\n      dup1\n      0x20\n      mul\n      0x20\n      add\n      dup3\n      add\n      0x40\n      mstore\n      dup1\n      iszero\n      tag_160\n      jumpi\n      dup2\n      0x20\n      add\n    tag_161:\n      tag_162\n      tag_163\n      jump\t// in\n    tag_162:\n      dup2\n      mstore\n      0x20\n      add\n      swap1\n      0x01\n      swap1\n      sub\n      swap1\n      dup2\n      tag_161\n      jumpi\n      swap1\n      pop\n    tag_160:\n      pop\n        /* \"voting 2.sol\":1974:2032  candidate[] memory arr= new candidate[](nextcandidateid-1) */\n      swap1\n      pop\n        /* \"voting 2.sol\":2043:2049  uint j */\n      0x00\n        /* \"voting 2.sol\":2064:2070  uint i */\n      dup1\n        /* \"voting 2.sol\":2071:2072  1 */\n      0x01\n        /* \"voting 2.sol\":2064:2072  uint i=1 */\n      swap1\n      pop\n        /* \"voting 2.sol\":2060:2164  for(uint i=1;i<nextcandidateid;i++){... */\n    tag_164:\n        /* \"voting 2.sol\":2075:2090  nextcandidateid */\n      sload(0x03)\n        /* \"voting 2.sol\":2073:2074  i */\n      dup2\n        /* \"voting 2.sol\":2073:2090  i<nextcandidateid */\n      lt\n        /* \"voting 2.sol\":2060:2164  for(uint i=1;i<nextcandidateid;i++){... */\n      iszero\n      tag_165\n      jumpi\n        /* \"voting 2.sol\":2117:2131  candidate_data */\n      0x08\n        /* \"voting 2.sol\":2117:2134  candidate_data[i] */\n      0x00\n        /* \"voting 2.sol\":2132:2133  i */\n      dup3\n        /* \"voting 2.sol\":2117:2134  candidate_data[i] */\n      dup2\n      mstore\n      0x20\n      add\n      swap1\n      dup2\n      mstore\n      0x20\n      add\n      0x00\n      keccak256\n        /* \"voting 2.sol\":2110:2134  arr[j]=candidate_data[i] */\n      mload(0x40)\n      dup1\n      0xc0\n      add\n      0x40\n      mstore\n      swap1\n      dup2\n      0x00\n      dup3\n      add\n      dup1\n      sload\n      tag_167\n      swap1\n      tag_75\n      jump\t// in\n    tag_167:\n      dup1\n      0x1f\n      add\n      0x20\n      dup1\n      swap2\n      div\n      mul\n      0x20\n      add\n      mload(0x40)\n      swap1\n      dup2\n      add\n      0x40\n      mstore\n      dup1\n      swap3\n      swap2\n      swap1\n      dup2\n      dup2\n      mstore\n      0x20\n      add\n      dup3\n      dup1\n      sload\n      tag_168\n      swap1\n      tag_75\n      jump\t// in\n    tag_168:\n      dup1\n      iszero\n      tag_169\n      jumpi\n      dup1\n      0x1f\n      lt\n      tag_170\n      jumpi\n      0x0100\n      dup1\n      dup4\n      sload\n      div\n      mul\n      dup4\n      mstore\n      swap2\n      0x20\n      add\n      swap2\n      jump(tag_169)\n    tag_170:\n      dup3\n      add\n      swap2\n      swap1\n      0x00\n      mstore\n      keccak256(0x00, 0x20)\n      swap1\n    tag_171:\n      dup2\n      sload\n      dup2\n      mstore\n      swap1\n      0x01\n      add\n      swap1\n      0x20\n      add\n      dup1\n      dup4\n      gt\n      tag_171\n      jumpi\n      dup3\n      swap1\n      sub\n      0x1f\n      and\n      dup3\n      add\n      swap2\n    tag_169:\n      pop\n      pop\n      pop\n      pop\n      pop\n      dup2\n      mstore\n      0x20\n      add\n      0x01\n      dup3\n      add\n      dup1\n      sload\n      tag_172\n      swap1\n      tag_75\n      jump\t// in\n    tag_172:\n      dup1\n      0x1f\n      add\n      0x20\n      dup1\n      swap2\n      div\n      mul\n      0x20\n      add\n      mload(0x40)\n      swap1\n      dup2\n      add\n      0x40\n      mstore\n      dup1\n      swap3\n      swap2\n      swap1\n      dup2\n      dup2\n      mstore\n      0x20\n      add\n      dup3\n      dup1\n      sload\n      tag_173\n      swap1\n      tag_75\n      jump\t// in\n    tag_173:\n      dup1\n      iszero\n      tag_174\n      jumpi\n      dup1\n      0x1f\n      lt\n      tag_175\n      jumpi\n      0x0100\n      dup1\n      dup4\n      sload\n      div\n      mul\n      dup4\n      mstore\n      swap2\n      0x20\n      add\n      swap2\n      jump(tag_174)\n    tag_175:\n      dup3\n      add\n      swap2\n      swap1\n      0x00\n      mstore\n      keccak256(0x00, 0x20)\n      swap1\n    tag_176:\n      dup2\n      sload\n      dup2\n      mstore\n      swap1\n      0x01\n      add\n      swap1\n      0x20\n      add\n      dup1\n      dup4\n      gt\n      tag_176\n      jumpi\n      dup3\n      swap1\n      sub\n      0x1f\n      and\n      dup3\n      add\n      swap2\n    tag_174:\n      pop\n      pop\n      pop\n      pop\n      pop\n      dup2\n      mstore\n      0x20\n      add\n      0x02\n      dup3\n      add\n      sload\n      dup2\n      mstore\n      0x20\n      add\n      0x03\n      dup3\n      add\n      sload\n      dup2\n      mstore\n      0x20\n      add\n      0x04\n      dup3\n      add\n      0x00\n      swap1\n      sload\n      swap1\n      0x0100\n      exp\n      swap1\n      div\n      0xffffffffffffffffffffffffffffffffffffffff\n      and\n      0xffffffffffffffffffffffffffffffffffffffff\n      and\n      0xffffffffffffffffffffffffffffffffffffffff\n      and\n      dup2\n      mstore\n      0x20\n      add\n      0x05\n      dup3\n      add\n      sload\n      dup2\n      mstore\n      pop\n      pop\n        /* \"voting 2.sol\":2110:2113  arr */\n      dup4\n        /* \"voting 2.sol\":2114:2115  j */\n      dup4\n        /* \"voting 2.sol\":2110:2116  arr[j] */\n      dup2\n      mload\n      dup2\n      lt\n      tag_177\n      jumpi\n      tag_178\n      tag_119\n      jump\t// in\n    tag_178:\n    tag_177:\n      0x20\n      mul\n      0x20\n      add\n      add\n        /* \"voting 2.sol\":2110:2134  arr[j]=candidate_data[i] */\n      dup2\n      swap1\n      mstore\n      pop\n        /* \"voting 2.sol\":2149:2152  j++ */\n      dup2\n      dup1\n      tag_179\n      swap1\n      tag_97\n      jump\t// in\n    tag_179:\n      swap3\n      pop\n      pop\n        /* \"voting 2.sol\":2091:2094  i++ */\n      dup1\n      dup1\n      tag_180\n      swap1\n      tag_97\n      jump\t// in\n    tag_180:\n      swap2\n      pop\n      pop\n        /* \"voting 2.sol\":2060:2164  for(uint i=1;i<nextcandidateid;i++){... */\n      jump(tag_164)\n    tag_165:\n      pop\n        /* \"voting 2.sol\":2181:2184  arr */\n      dup2\n        /* \"voting 2.sol\":2174:2184  return arr */\n      swap3\n      pop\n      pop\n      pop\n        /* \"voting 2.sol\":1899:2192  function Canidate_List() public view returns(candidate[] memory){... */\n      swap1\n      jump\t// out\n        /* \"voting 2.sol\":879:922  mapping (uint=>voter_details) public voterr */\n    tag_57:\n      mstore(0x20, 0x09)\n      dup1\n      0x00\n      mstore\n      keccak256(0x00, 0x40)\n      0x00\n      swap2\n      pop\n      swap1\n      pop\n      dup1\n      0x00\n      add\n      dup1\n      sload\n      tag_181\n      swap1\n      tag_75\n      jump\t// in\n    tag_181:\n      dup1\n      0x1f\n      add\n      0x20\n      dup1\n      swap2\n      div\n      mul\n      0x20\n      add\n      mload(0x40)\n      swap1\n      dup2\n      add\n      0x40\n      mstore\n      dup1\n      swap3\n      swap2\n      swap1\n      dup2\n      dup2\n      mstore\n      0x20\n      add\n      dup3\n      dup1\n      sload\n      tag_182\n      swap1\n      tag_75\n      jump\t// in\n    tag_182:\n      dup1\n      iszero\n      tag_183\n      jumpi\n      dup1\n      0x1f\n      lt\n      tag_184\n      jumpi\n      0x0100\n      dup1\n      dup4\n      sload\n      div\n      mul\n      dup4\n      mstore\n      swap2\n      0x20\n      add\n      swap2\n      jump(tag_183)\n    tag_184:\n      dup3\n      add\n      swap2\n      swap1\n      0x00\n      mstore\n      keccak256(0x00, 0x20)\n      swap1\n    tag_185:\n      dup2\n      sload\n      dup2\n      mstore\n      swap1\n      0x01\n      add\n      swap1\n      0x20\n      add\n      dup1\n      dup4\n      gt\n      tag_185\n      jumpi\n      dup3\n      swap1\n      sub\n      0x1f\n      and\n      dup3\n      add\n      swap2\n    tag_183:\n      pop\n      pop\n      pop\n      pop\n      pop\n      swap1\n      dup1\n      0x01\n      add\n      sload\n      swap1\n      dup1\n      0x02\n      add\n      sload\n      swap1\n      dup1\n      0x03\n      add\n      sload\n      swap1\n      dup1\n      0x04\n      add\n      0x00\n      swap1\n      sload\n      swap1\n      0x0100\n      exp\n      swap1\n      div\n      0xffffffffffffffffffffffffffffffffffffffff\n      and\n      swap1\n      pop\n      dup6\n      jump\t// out\n        /* \"voting 2.sol\":712:752  uint public start_voting=block.timestamp */\n    tag_60:\n      sload(0x06)\n      dup2\n      jump\t// out\n        /* \"voting 2.sol\":134:155  address public winner */\n    tag_64:\n      0x01\n      0x00\n      swap1\n      sload\n      swap1\n      0x0100\n      exp\n      swap1\n      div\n      0xffffffffffffffffffffffffffffffffffffffff\n      and\n      dup2\n      jump\t// out\n        /* \"voting 2.sol\":1261:1613  function candidate_registration(string memory name ,string memory party, uint cnic) public {... */\n    tag_70:\n        /* \"voting 2.sol\":1407:1411  true */\n      0x01\n        /* \"voting 2.sol\":1371:1411  candidate_verification(msg.sender)==true */\n      iszero\n      iszero\n        /* \"voting 2.sol\":1371:1405  candidate_verification(msg.sender) */\n      tag_187\n        /* \"voting 2.sol\":1394:1404  msg.sender */\n      caller\n        /* \"voting 2.sol\":1371:1393  candidate_verification */\n      tag_188\n        /* \"voting 2.sol\":1371:1405  candidate_verification(msg.sender) */\n      jump\t// in\n    tag_187:\n        /* \"voting 2.sol\":1371:1411  candidate_verification(msg.sender)==true */\n      iszero\n      iszero\n      eq\n        /* \"voting 2.sol\":1363:1434  require(candidate_verification(msg.sender)==true, \"Already Registered\") */\n      tag_189\n      jumpi\n      mload(0x40)\n      0x08c379a000000000000000000000000000000000000000000000000000000000\n      dup2\n      mstore\n      0x04\n      add\n      tag_190\n      swap1\n      tag_191\n      jump\t// in\n    tag_190:\n      mload(0x40)\n      dup1\n      swap2\n      sub\n      swap1\n      revert\n    tag_189:\n        /* \"voting 2.sol\":1467:1522  candidate(name,party,cnic,nextcandidateid,msg.sender,0) */\n      mload(0x40)\n      dup1\n      0xc0\n      add\n      0x40\n      mstore\n      dup1\n        /* \"voting 2.sol\":1477:1481  name */\n      dup5\n        /* \"voting 2.sol\":1467:1522  candidate(name,party,cnic,nextcandidateid,msg.sender,0) */\n      dup2\n      mstore\n      0x20\n      add\n        /* \"voting 2.sol\":1482:1487  party */\n      dup4\n        /* \"voting 2.sol\":1467:1522  candidate(name,party,cnic,nextcandidateid,msg.sender,0) */\n      dup2\n      mstore\n      0x20\n      add\n        /* \"voting 2.sol\":1488:1492  cnic */\n      dup3\n        /* \"voting 2.sol\":1467:1522  candidate(name,party,cnic,nextcandidateid,msg.sender,0) */\n      dup2\n      mstore\n      0x20\n      add\n        /* \"voting 2.sol\":1493:1508  nextcandidateid */\n      sload(0x03)\n        /* \"voting 2.sol\":1467:1522  candidate(name,party,cnic,nextcandidateid,msg.sender,0) */\n      dup2\n      mstore\n      0x20\n      add\n        /* \"voting 2.sol\":1509:1519  msg.sender */\n      caller\n        /* \"voting 2.sol\":1467:1522  candidate(name,party,cnic,nextcandidateid,msg.sender,0) */\n      0xffffffffffffffffffffffffffffffffffffffff\n      and\n      dup2\n      mstore\n      0x20\n      add\n        /* \"voting 2.sol\":1520:1521  0 */\n      0x00\n        /* \"voting 2.sol\":1467:1522  candidate(name,party,cnic,nextcandidateid,msg.sender,0) */\n      dup2\n      mstore\n      pop\n        /* \"voting 2.sol\":1445:1459  candidate_data */\n      0x08\n        /* \"voting 2.sol\":1445:1465  candidate_data[cnic] */\n      0x00\n        /* \"voting 2.sol\":1460:1464  cnic */\n      dup4\n        /* \"voting 2.sol\":1445:1465  candidate_data[cnic] */\n      dup2\n      mstore\n      0x20\n      add\n      swap1\n      dup2\n      mstore\n      0x20\n      add\n      0x00\n      keccak256\n        /* \"voting 2.sol\":1445:1522  candidate_data[cnic]= candidate(name,party,cnic,nextcandidateid,msg.sender,0) */\n      0x00\n      dup3\n      add\n      mload\n      dup2\n      0x00\n      add\n      swap1\n      dup2\n      tag_192\n      swap2\n      swap1\n      tag_153\n      jump\t// in\n    tag_192:\n      pop\n      0x20\n      dup3\n      add\n      mload\n      dup2\n      0x01\n      add\n      swap1\n      dup2\n      tag_193\n      swap2\n      swap1\n      tag_153\n      jump\t// in\n    tag_193:\n      pop\n      0x40\n      dup3\n      add\n      mload\n      dup2\n      0x02\n      add\n      sstore\n      0x60\n      dup3\n      add\n      mload\n      dup2\n      0x03\n      add\n      sstore\n      0x80\n      dup3\n      add\n      mload\n      dup2\n      0x04\n      add\n      exp(0x0100, 0x00)\n      dup2\n      sload\n      dup2\n      0xffffffffffffffffffffffffffffffffffffffff\n      mul\n      not\n      and\n      swap1\n      dup4\n      0xffffffffffffffffffffffffffffffffffffffff\n      and\n      mul\n      or\n      swap1\n      sstore\n      pop\n      0xa0\n      dup3\n      add\n      mload\n      dup2\n      0x05\n      add\n      sstore\n      swap1\n      pop\n      pop\n        /* \"voting 2.sol\":1533:1548  nextcandidateid */\n      0x03\n      0x00\n        /* \"voting 2.sol\":1533:1550  nextcandidateid++ */\n      dup2\n      sload\n      dup1\n      swap3\n      swap2\n      swap1\n      tag_194\n      swap1\n      tag_97\n      jump\t// in\n    tag_194:\n      swap2\n      swap1\n      pop\n      sstore\n      pop\n        /* \"voting 2.sol\":1561:1595  candidate_verification(msg.sender) */\n      tag_195\n        /* \"voting 2.sol\":1584:1594  msg.sender */\n      caller\n        /* \"voting 2.sol\":1561:1583  candidate_verification */\n      tag_188\n        /* \"voting 2.sol\":1561:1595  candidate_verification(msg.sender) */\n      jump\t// in\n    tag_195:\n      pop\n        /* \"voting 2.sol\":1261:1613  function candidate_registration(string memory name ,string memory party, uint cnic) public {... */\n      pop\n      pop\n      pop\n      jump\t// out\n        /* \"voting 2.sol\":625:654  uint public nextcandidateid=1 */\n    tag_72:\n      sload(0x03)\n      dup2\n      jump\t// out\n        /* \"voting 2.sol\":1621:1891  function candidate_verification(address _addr) internal view returns(bool){... */\n    tag_188:\n        /* \"voting 2.sol\":1690:1694  bool */\n      0x00\n        /* \"voting 2.sol\":1710:1716  uint i */\n      dup1\n        /* \"voting 2.sol\":1717:1718  1 */\n      0x01\n        /* \"voting 2.sol\":1710:1718  uint i=1 */\n      swap1\n      pop\n        /* \"voting 2.sol\":1706:1862  for(uint i=1; i<nextcandidateid;i++){... */\n    tag_197:\n        /* \"voting 2.sol\":1722:1737  nextcandidateid */\n      sload(0x03)\n        /* \"voting 2.sol\":1720:1721  i */\n      dup2\n        /* \"voting 2.sol\":1720:1737  i<nextcandidateid */\n      lt\n        /* \"voting 2.sol\":1706:1862  for(uint i=1; i<nextcandidateid;i++){... */\n      iszero\n      tag_198\n      jumpi\n        /* \"voting 2.sol\":1798:1803  _addr */\n      dup3\n        /* \"voting 2.sol\":1760:1803  candidate_data[i].candidate_address== _addr */\n      0xffffffffffffffffffffffffffffffffffffffff\n      and\n        /* \"voting 2.sol\":1760:1774  candidate_data */\n      0x08\n        /* \"voting 2.sol\":1760:1777  candidate_data[i] */\n      0x00\n        /* \"voting 2.sol\":1775:1776  i */\n      dup4\n        /* \"voting 2.sol\":1760:1777  candidate_data[i] */\n      dup2\n      mstore\n      0x20\n      add\n      swap1\n      dup2\n      mstore\n      0x20\n      add\n      0x00\n      keccak256\n        /* \"voting 2.sol\":1760:1795  candidate_data[i].candidate_address */\n      0x04\n      add\n      0x00\n      swap1\n      sload\n      swap1\n      0x0100\n      exp\n      swap1\n      div\n      0xffffffffffffffffffffffffffffffffffffffff\n      and\n        /* \"voting 2.sol\":1760:1803  candidate_data[i].candidate_address== _addr */\n      0xffffffffffffffffffffffffffffffffffffffff\n      and\n      sub\n        /* \"voting 2.sol\":1756:1850  if (candidate_data[i].candidate_address== _addr) {... */\n      tag_200\n      jumpi\n        /* \"voting 2.sol\":1830:1835  false */\n      0x00\n        /* \"voting 2.sol\":1823:1835  return false */\n      swap2\n      pop\n      pop\n      jump(tag_196)\n        /* \"voting 2.sol\":1756:1850  if (candidate_data[i].candidate_address== _addr) {... */\n    tag_200:\n        /* \"voting 2.sol\":1738:1741  i++ */\n      dup1\n      dup1\n      tag_201\n      swap1\n      tag_97\n      jump\t// in\n    tag_201:\n      swap2\n      pop\n      pop\n        /* \"voting 2.sol\":1706:1862  for(uint i=1; i<nextcandidateid;i++){... */\n      jump(tag_197)\n    tag_198:\n      pop\n        /* \"voting 2.sol\":1879:1883  true */\n      0x01\n        /* \"voting 2.sol\":1872:1883  return true */\n      swap1\n      pop\n        /* \"voting 2.sol\":1621:1891  function candidate_verification(address _addr) internal view returns(bool){... */\n    tag_196:\n      swap2\n      swap1\n      pop\n      jump\t// out\n    tag_107:\n      mload(0x40)\n      dup1\n      0xa0\n      add\n      0x40\n      mstore\n      dup1\n      0x60\n      dup2\n      mstore\n      0x20\n      add\n      0x00\n      dup2\n      mstore\n      0x20\n      add\n      0x00\n      dup2\n      mstore\n      0x20\n      add\n      0x00\n      dup2\n      mstore\n      0x20\n      add\n      and(0xffffffffffffffffffffffffffffffffffffffff, 0x00)\n      dup2\n      mstore\n      pop\n      swap1\n      jump\t// out\n    tag_163:\n      mload(0x40)\n      dup1\n      0xc0\n      add\n      0x40\n      mstore\n      dup1\n      0x60\n      dup2\n      mstore\n      0x20\n      add\n      0x60\n      dup2\n      mstore\n      0x20\n      add\n      0x00\n      dup2\n      mstore\n      0x20\n      add\n      0x00\n      dup2\n      mstore\n      0x20\n      add\n      and(0xffffffffffffffffffffffffffffffffffffffff, 0x00)\n      dup2\n      mstore\n      0x20\n      add\n      0x00\n      dup2\n      mstore\n      pop\n      swap1\n      jump\t// out\n        /* \"#utility.yul\":7:82   */\n    tag_202:\n        /* \"#utility.yul\":40:46   */\n      0x00\n        /* \"#utility.yul\":73:75   */\n      0x40\n        /* \"#utility.yul\":67:76   */\n      mload\n        /* \"#utility.yul\":57:76   */\n      swap1\n      pop\n        /* \"#utility.yul\":7:82   */\n      swap1\n      jump\t// out\n        /* \"#utility.yul\":88:205   */\n    tag_203:\n        /* \"#utility.yul\":197:198   */\n      0x00\n        /* \"#utility.yul\":194:195   */\n      dup1\n        /* \"#utility.yul\":187:199   */\n      revert\n        /* \"#utility.yul\":211:328   */\n    tag_204:\n        /* \"#utility.yul\":320:321   */\n      0x00\n        /* \"#utility.yul\":317:318   */\n      dup1\n        /* \"#utility.yul\":310:322   */\n      revert\n        /* \"#utility.yul\":334:411   */\n    tag_205:\n        /* \"#utility.yul\":371:378   */\n      0x00\n        /* \"#utility.yul\":400:405   */\n      dup2\n        /* \"#utility.yul\":389:405   */\n      swap1\n      pop\n        /* \"#utility.yul\":334:411   */\n      swap2\n      swap1\n      pop\n      jump\t// out\n        /* \"#utility.yul\":417:539   */\n    tag_206:\n        /* \"#utility.yul\":490:514   */\n      tag_284\n        /* \"#utility.yul\":508:513   */\n      dup2\n        /* \"#utility.yul\":490:514   */\n      tag_205\n      jump\t// in\n    tag_284:\n        /* \"#utility.yul\":483:488   */\n      dup2\n        /* \"#utility.yul\":480:515   */\n      eq\n        /* \"#utility.yul\":470:533   */\n      tag_285\n      jumpi\n        /* \"#utility.yul\":529:530   */\n      0x00\n        /* \"#utility.yul\":526:527   */\n      dup1\n        /* \"#utility.yul\":519:531   */\n      revert\n        /* \"#utility.yul\":470:533   */\n    tag_285:\n        /* \"#utility.yul\":417:539   */\n      pop\n      jump\t// out\n        /* \"#utility.yul\":545:684   */\n    tag_207:\n        /* \"#utility.yul\":591:596   */\n      0x00\n        /* \"#utility.yul\":629:635   */\n      dup2\n        /* \"#utility.yul\":616:636   */\n      calldataload\n        /* \"#utility.yul\":607:636   */\n      swap1\n      pop\n        /* \"#utility.yul\":645:678   */\n      tag_287\n        /* \"#utility.yul\":672:677   */\n      dup2\n        /* \"#utility.yul\":645:678   */\n      tag_206\n      jump\t// in\n    tag_287:\n        /* \"#utility.yul\":545:684   */\n      swap3\n      swap2\n      pop\n      pop\n      jump\t// out\n        /* \"#utility.yul\":690:1019   */\n    tag_20:\n        /* \"#utility.yul\":749:755   */\n      0x00\n        /* \"#utility.yul\":798:800   */\n      0x20\n        /* \"#utility.yul\":786:795   */\n      dup3\n        /* \"#utility.yul\":777:784   */\n      dup5\n        /* \"#utility.yul\":773:796   */\n      sub\n        /* \"#utility.yul\":769:801   */\n      slt\n        /* \"#utility.yul\":766:885   */\n      iszero\n      tag_289\n      jumpi\n        /* \"#utility.yul\":804:883   */\n      tag_290\n      tag_203\n      jump\t// in\n    tag_290:\n        /* \"#utility.yul\":766:885   */\n    tag_289:\n        /* \"#utility.yul\":924:925   */\n      0x00\n        /* \"#utility.yul\":949:1002   */\n      tag_291\n        /* \"#utility.yul\":994:1001   */\n      dup5\n        /* \"#utility.yul\":985:991   */\n      dup3\n        /* \"#utility.yul\":974:983   */\n      dup6\n        /* \"#utility.yul\":970:992   */\n      add\n        /* \"#utility.yul\":949:1002   */\n      tag_207\n      jump\t// in\n    tag_291:\n        /* \"#utility.yul\":939:1002   */\n      swap2\n      pop\n        /* \"#utility.yul\":895:1012   */\n      pop\n        /* \"#utility.yul\":690:1019   */\n      swap3\n      swap2\n      pop\n      pop\n      jump\t// out\n        /* \"#utility.yul\":1025:1124   */\n    tag_208:\n        /* \"#utility.yul\":1077:1083   */\n      0x00\n        /* \"#utility.yul\":1111:1116   */\n      dup2\n        /* \"#utility.yul\":1105:1117   */\n      mload\n        /* \"#utility.yul\":1095:1117   */\n      swap1\n      pop\n        /* \"#utility.yul\":1025:1124   */\n      swap2\n      swap1\n      pop\n      jump\t// out\n        /* \"#utility.yul\":1130:1299   */\n    tag_209:\n        /* \"#utility.yul\":1214:1225   */\n      0x00\n        /* \"#utility.yul\":1248:1254   */\n      dup3\n        /* \"#utility.yul\":1243:1246   */\n      dup3\n        /* \"#utility.yul\":1236:1255   */\n      mstore\n        /* \"#utility.yul\":1288:1292   */\n      0x20\n        /* \"#utility.yul\":1283:1286   */\n      dup3\n        /* \"#utility.yul\":1279:1293   */\n      add\n        /* \"#utility.yul\":1264:1293   */\n      swap1\n      pop\n        /* \"#utility.yul\":1130:1299   */\n      swap3\n      swap2\n      pop\n      pop\n      jump\t// out\n        /* \"#utility.yul\":1305:1551   */\n    tag_210:\n        /* \"#utility.yul\":1386:1387   */\n      0x00\n        /* \"#utility.yul\":1396:1509   */\n    tag_295:\n        /* \"#utility.yul\":1410:1416   */\n      dup4\n        /* \"#utility.yul\":1407:1408   */\n      dup2\n        /* \"#utility.yul\":1404:1417   */\n      lt\n        /* \"#utility.yul\":1396:1509   */\n      iszero\n      tag_297\n      jumpi\n        /* \"#utility.yul\":1495:1496   */\n      dup1\n        /* \"#utility.yul\":1490:1493   */\n      dup3\n        /* \"#utility.yul\":1486:1497   */\n      add\n        /* \"#utility.yul\":1480:1498   */\n      mload\n        /* \"#utility.yul\":1476:1477   */\n      dup2\n        /* \"#utility.yul\":1471:1474   */\n      dup5\n        /* \"#utility.yul\":1467:1478   */\n      add\n        /* \"#utility.yul\":1460:1499   */\n      mstore\n        /* \"#utility.yul\":1432:1434   */\n      0x20\n        /* \"#utility.yul\":1429:1430   */\n      dup2\n        /* \"#utility.yul\":1425:1435   */\n      add\n        /* \"#utility.yul\":1420:1435   */\n      swap1\n      pop\n        /* \"#utility.yul\":1396:1509   */\n      jump(tag_295)\n    tag_297:\n        /* \"#utility.yul\":1543:1544   */\n      0x00\n        /* \"#utility.yul\":1534:1540   */\n      dup5\n        /* \"#utility.yul\":1529:1532   */\n      dup5\n        /* \"#utility.yul\":1525:1541   */\n      add\n        /* \"#utility.yul\":1518:1545   */\n      mstore\n        /* \"#utility.yul\":1367:1551   */\n      pop\n        /* \"#utility.yul\":1305:1551   */\n      pop\n      pop\n      pop\n      jump\t// out\n        /* \"#utility.yul\":1557:1659   */\n    tag_211:\n        /* \"#utility.yul\":1598:1604   */\n      0x00\n        /* \"#utility.yul\":1649:1651   */\n      0x1f\n        /* \"#utility.yul\":1645:1652   */\n      not\n        /* \"#utility.yul\":1640:1642   */\n      0x1f\n        /* \"#utility.yul\":1633:1638   */\n      dup4\n        /* \"#utility.yul\":1629:1643   */\n      add\n        /* \"#utility.yul\":1625:1653   */\n      and\n        /* \"#utility.yul\":1615:1653   */\n      swap1\n      pop\n        /* \"#utility.yul\":1557:1659   */\n      swap2\n      swap1\n      pop\n      jump\t// out\n        /* \"#utility.yul\":1665:2042   */\n    tag_212:\n        /* \"#utility.yul\":1753:1756   */\n      0x00\n        /* \"#utility.yul\":1781:1820   */\n      tag_300\n        /* \"#utility.yul\":1814:1819   */\n      dup3\n        /* \"#utility.yul\":1781:1820   */\n      tag_208\n      jump\t// in\n    tag_300:\n        /* \"#utility.yul\":1836:1907   */\n      tag_301\n        /* \"#utility.yul\":1900:1906   */\n      dup2\n        /* \"#utility.yul\":1895:1898   */\n      dup6\n        /* \"#utility.yul\":1836:1907   */\n      tag_209\n      jump\t// in\n    tag_301:\n        /* \"#utility.yul\":1829:1907   */\n      swap4\n      pop\n        /* \"#utility.yul\":1916:1981   */\n      tag_302\n        /* \"#utility.yul\":1974:1980   */\n      dup2\n        /* \"#utility.yul\":1969:1972   */\n      dup6\n        /* \"#utility.yul\":1962:1966   */\n      0x20\n        /* \"#utility.yul\":1955:1960   */\n      dup7\n        /* \"#utility.yul\":1951:1967   */\n      add\n        /* \"#utility.yul\":1916:1981   */\n      tag_210\n      jump\t// in\n    tag_302:\n        /* \"#utility.yul\":2006:2035   */\n      tag_303\n        /* \"#utility.yul\":2028:2034   */\n      dup2\n        /* \"#utility.yul\":2006:2035   */\n      tag_211\n      jump\t// in\n    tag_303:\n        /* \"#utility.yul\":2001:2004   */\n      dup5\n        /* \"#utility.yul\":1997:2036   */\n      add\n        /* \"#utility.yul\":1990:2036   */\n      swap2\n      pop\n        /* \"#utility.yul\":1757:2042   */\n      pop\n        /* \"#utility.yul\":1665:2042   */\n      swap3\n      swap2\n      pop\n      pop\n      jump\t// out\n        /* \"#utility.yul\":2048:2166   */\n    tag_213:\n        /* \"#utility.yul\":2135:2159   */\n      tag_305\n        /* \"#utility.yul\":2153:2158   */\n      dup2\n        /* \"#utility.yul\":2135:2159   */\n      tag_205\n      jump\t// in\n    tag_305:\n        /* \"#utility.yul\":2130:2133   */\n      dup3\n        /* \"#utility.yul\":2123:2160   */\n      mstore\n        /* \"#utility.yul\":2048:2166   */\n      pop\n      pop\n      jump\t// out\n        /* \"#utility.yul\":2172:2298   */\n    tag_214:\n        /* \"#utility.yul\":2209:2216   */\n      0x00\n        /* \"#utility.yul\":2249:2291   */\n      0xffffffffffffffffffffffffffffffffffffffff\n        /* \"#utility.yul\":2242:2247   */\n      dup3\n        /* \"#utility.yul\":2238:2292   */\n      and\n        /* \"#utility.yul\":2227:2292   */\n      swap1\n      pop\n        /* \"#utility.yul\":2172:2298   */\n      swap2\n      swap1\n      pop\n      jump\t// out\n        /* \"#utility.yul\":2304:2400   */\n    tag_215:\n        /* \"#utility.yul\":2341:2348   */\n      0x00\n        /* \"#utility.yul\":2370:2394   */\n      tag_308\n        /* \"#utility.yul\":2388:2393   */\n      dup3\n        /* \"#utility.yul\":2370:2394   */\n      tag_214\n      jump\t// in\n    tag_308:\n        /* \"#utility.yul\":2359:2394   */\n      swap1\n      pop\n        /* \"#utility.yul\":2304:2400   */\n      swap2\n      swap1\n      pop\n      jump\t// out\n        /* \"#utility.yul\":2406:2524   */\n    tag_216:\n        /* \"#utility.yul\":2493:2517   */\n      tag_310\n        /* \"#utility.yul\":2511:2516   */\n      dup2\n        /* \"#utility.yul\":2493:2517   */\n      tag_215\n      jump\t// in\n    tag_310:\n        /* \"#utility.yul\":2488:2491   */\n      dup3\n        /* \"#utility.yul\":2481:2518   */\n      mstore\n        /* \"#utility.yul\":2406:2524   */\n      pop\n      pop\n      jump\t// out\n        /* \"#utility.yul\":2530:3285   */\n    tag_23:\n        /* \"#utility.yul\":2755:2759   */\n      0x00\n        /* \"#utility.yul\":2793:2796   */\n      0xa0\n        /* \"#utility.yul\":2782:2791   */\n      dup3\n        /* \"#utility.yul\":2778:2797   */\n      add\n        /* \"#utility.yul\":2770:2797   */\n      swap1\n      pop\n        /* \"#utility.yul\":2843:2852   */\n      dup2\n        /* \"#utility.yul\":2837:2841   */\n      dup2\n        /* \"#utility.yul\":2833:2853   */\n      sub\n        /* \"#utility.yul\":2829:2830   */\n      0x00\n        /* \"#utility.yul\":2818:2827   */\n      dup4\n        /* \"#utility.yul\":2814:2831   */\n      add\n        /* \"#utility.yul\":2807:2854   */\n      mstore\n        /* \"#utility.yul\":2871:2949   */\n      tag_312\n        /* \"#utility.yul\":2944:2948   */\n      dup2\n        /* \"#utility.yul\":2935:2941   */\n      dup9\n        /* \"#utility.yul\":2871:2949   */\n      tag_212\n      jump\t// in\n    tag_312:\n        /* \"#utility.yul\":2863:2949   */\n      swap1\n      pop\n        /* \"#utility.yul\":2959:3031   */\n      tag_313\n        /* \"#utility.yul\":3027:3029   */\n      0x20\n        /* \"#utility.yul\":3016:3025   */\n      dup4\n        /* \"#utility.yul\":3012:3030   */\n      add\n        /* \"#utility.yul\":3003:3009   */\n      dup8\n        /* \"#utility.yul\":2959:3031   */\n      tag_213\n      jump\t// in\n    tag_313:\n        /* \"#utility.yul\":3041:3113   */\n      tag_314\n        /* \"#utility.yul\":3109:3111   */\n      0x40\n        /* \"#utility.yul\":3098:3107   */\n      dup4\n        /* \"#utility.yul\":3094:3112   */\n      add\n        /* \"#utility.yul\":3085:3091   */\n      dup7\n        /* \"#utility.yul\":3041:3113   */\n      tag_213\n      jump\t// in\n    tag_314:\n        /* \"#utility.yul\":3123:3195   */\n      tag_315\n        /* \"#utility.yul\":3191:3193   */\n      0x60\n        /* \"#utility.yul\":3180:3189   */\n      dup4\n        /* \"#utility.yul\":3176:3194   */\n      add\n        /* \"#utility.yul\":3167:3173   */\n      dup6\n        /* \"#utility.yul\":3123:3195   */\n      tag_213\n      jump\t// in\n    tag_315:\n        /* \"#utility.yul\":3205:3278   */\n      tag_316\n        /* \"#utility.yul\":3273:3276   */\n      0x80\n        /* \"#utility.yul\":3262:3271   */\n      dup4\n        /* \"#utility.yul\":3258:3277   */\n      add\n        /* \"#utility.yul\":3249:3255   */\n      dup5\n        /* \"#utility.yul\":3205:3278   */\n      tag_216\n      jump\t// in\n    tag_316:\n        /* \"#utility.yul\":2530:3285   */\n      swap7\n      swap6\n      pop\n      pop\n      pop\n      pop\n      pop\n      pop\n      jump\t// out\n        /* \"#utility.yul\":3291:3765   */\n    tag_26:\n        /* \"#utility.yul\":3359:3365   */\n      0x00\n        /* \"#utility.yul\":3367:3373   */\n      dup1\n        /* \"#utility.yul\":3416:3418   */\n      0x40\n        /* \"#utility.yul\":3404:3413   */\n      dup4\n        /* \"#utility.yul\":3395:3402   */\n      dup6\n        /* \"#utility.yul\":3391:3414   */\n      sub\n        /* \"#utility.yul\":3387:3419   */\n      slt\n        /* \"#utility.yul\":3384:3503   */\n      iszero\n      tag_318\n      jumpi\n        /* \"#utility.yul\":3422:3501   */\n      tag_319\n      tag_203\n      jump\t// in\n    tag_319:\n        /* \"#utility.yul\":3384:3503   */\n    tag_318:\n        /* \"#utility.yul\":3542:3543   */\n      0x00\n        /* \"#utility.yul\":3567:3620   */\n      tag_320\n        /* \"#utility.yul\":3612:3619   */\n      dup6\n        /* \"#utility.yul\":3603:3609   */\n      dup3\n        /* \"#utility.yul\":3592:3601   */\n      dup7\n        /* \"#utility.yul\":3588:3610   */\n      add\n        /* \"#utility.yul\":3567:3620   */\n      tag_207\n      jump\t// in\n    tag_320:\n        /* \"#utility.yul\":3557:3620   */\n      swap3\n      pop\n        /* \"#utility.yul\":3513:3630   */\n      pop\n        /* \"#utility.yul\":3669:3671   */\n      0x20\n        /* \"#utility.yul\":3695:3748   */\n      tag_321\n        /* \"#utility.yul\":3740:3747   */\n      dup6\n        /* \"#utility.yul\":3731:3737   */\n      dup3\n        /* \"#utility.yul\":3720:3729   */\n      dup7\n        /* \"#utility.yul\":3716:3738   */\n      add\n        /* \"#utility.yul\":3695:3748   */\n      tag_207\n      jump\t// in\n    tag_321:\n        /* \"#utility.yul\":3685:3748   */\n      swap2\n      pop\n        /* \"#utility.yul\":3640:3758   */\n      pop\n        /* \"#utility.yul\":3291:3765   */\n      swap3\n      pop\n      swap3\n      swap1\n      pop\n      jump\t// out\n        /* \"#utility.yul\":3771:3914   */\n    tag_217:\n        /* \"#utility.yul\":3867:3873   */\n      0x00\n        /* \"#utility.yul\":3901:3906   */\n      dup2\n        /* \"#utility.yul\":3895:3907   */\n      mload\n        /* \"#utility.yul\":3885:3907   */\n      swap1\n      pop\n        /* \"#utility.yul\":3771:3914   */\n      swap2\n      swap1\n      pop\n      jump\t// out\n        /* \"#utility.yul\":3920:4133   */\n    tag_218:\n        /* \"#utility.yul\":4048:4059   */\n      0x00\n        /* \"#utility.yul\":4082:4088   */\n      dup3\n        /* \"#utility.yul\":4077:4080   */\n      dup3\n        /* \"#utility.yul\":4070:4089   */\n      mstore\n        /* \"#utility.yul\":4122:4126   */\n      0x20\n        /* \"#utility.yul\":4117:4120   */\n      dup3\n        /* \"#utility.yul\":4113:4127   */\n      add\n        /* \"#utility.yul\":4098:4127   */\n      swap1\n      pop\n        /* \"#utility.yul\":3920:4133   */\n      swap3\n      swap2\n      pop\n      pop\n      jump\t// out\n        /* \"#utility.yul\":4139:4300   */\n    tag_219:\n        /* \"#utility.yul\":4235:4239   */\n      0x00\n        /* \"#utility.yul\":4258:4261   */\n      dup2\n        /* \"#utility.yul\":4250:4261   */\n      swap1\n      pop\n        /* \"#utility.yul\":4288:4292   */\n      0x20\n        /* \"#utility.yul\":4283:4286   */\n      dup3\n        /* \"#utility.yul\":4279:4293   */\n      add\n        /* \"#utility.yul\":4271:4293   */\n      swap1\n      pop\n        /* \"#utility.yul\":4139:4300   */\n      swap2\n      swap1\n      pop\n      jump\t// out\n        /* \"#utility.yul\":4306:4465   */\n    tag_220:\n        /* \"#utility.yul\":4380:4391   */\n      0x00\n        /* \"#utility.yul\":4414:4420   */\n      dup3\n        /* \"#utility.yul\":4409:4412   */\n      dup3\n        /* \"#utility.yul\":4402:4421   */\n      mstore\n        /* \"#utility.yul\":4454:4458   */\n      0x20\n        /* \"#utility.yul\":4449:4452   */\n      dup3\n        /* \"#utility.yul\":4445:4459   */\n      add\n        /* \"#utility.yul\":4430:4459   */\n      swap1\n      pop\n        /* \"#utility.yul\":4306:4465   */\n      swap3\n      swap2\n      pop\n      pop\n      jump\t// out\n        /* \"#utility.yul\":4471:4828   */\n    tag_221:\n        /* \"#utility.yul\":4549:4552   */\n      0x00\n        /* \"#utility.yul\":4577:4616   */\n      tag_327\n        /* \"#utility.yul\":4610:4615   */\n      dup3\n        /* \"#utility.yul\":4577:4616   */\n      tag_208\n      jump\t// in\n    tag_327:\n        /* \"#utility.yul\":4632:4693   */\n      tag_328\n        /* \"#utility.yul\":4686:4692   */\n      dup2\n        /* \"#utility.yul\":4681:4684   */\n      dup6\n        /* \"#utility.yul\":4632:4693   */\n      tag_220\n      jump\t// in\n    tag_328:\n        /* \"#utility.yul\":4625:4693   */\n      swap4\n      pop\n        /* \"#utility.yul\":4702:4767   */\n      tag_329\n        /* \"#utility.yul\":4760:4766   */\n      dup2\n        /* \"#utility.yul\":4755:4758   */\n      dup6\n        /* \"#utility.yul\":4748:4752   */\n      0x20\n        /* \"#utility.yul\":4741:4746   */\n      dup7\n        /* \"#utility.yul\":4737:4753   */\n      add\n        /* \"#utility.yul\":4702:4767   */\n      tag_210\n      jump\t// in\n    tag_329:\n        /* \"#utility.yul\":4792:4821   */\n      tag_330\n        /* \"#utility.yul\":4814:4820   */\n      dup2\n        /* \"#utility.yul\":4792:4821   */\n      tag_211\n      jump\t// in\n    tag_330:\n        /* \"#utility.yul\":4787:4790   */\n      dup5\n        /* \"#utility.yul\":4783:4822   */\n      add\n        /* \"#utility.yul\":4776:4822   */\n      swap2\n      pop\n        /* \"#utility.yul\":4553:4828   */\n      pop\n        /* \"#utility.yul\":4471:4828   */\n      swap3\n      swap2\n      pop\n      pop\n      jump\t// out\n        /* \"#utility.yul\":4834:4942   */\n    tag_222:\n        /* \"#utility.yul\":4911:4935   */\n      tag_332\n        /* \"#utility.yul\":4929:4934   */\n      dup2\n        /* \"#utility.yul\":4911:4935   */\n      tag_205\n      jump\t// in\n    tag_332:\n        /* \"#utility.yul\":4906:4909   */\n      dup3\n        /* \"#utility.yul\":4899:4936   */\n      mstore\n        /* \"#utility.yul\":4834:4942   */\n      pop\n      pop\n      jump\t// out\n        /* \"#utility.yul\":4948:5056   */\n    tag_223:\n        /* \"#utility.yul\":5025:5049   */\n      tag_334\n        /* \"#utility.yul\":5043:5048   */\n      dup2\n        /* \"#utility.yul\":5025:5049   */\n      tag_215\n      jump\t// in\n    tag_334:\n        /* \"#utility.yul\":5020:5023   */\n      dup3\n        /* \"#utility.yul\":5013:5050   */\n      mstore\n        /* \"#utility.yul\":4948:5056   */\n      pop\n      pop\n      jump\t// out\n        /* \"#utility.yul\":5128:6278   */\n    tag_224:\n        /* \"#utility.yul\":5245:5248   */\n      0x00\n        /* \"#utility.yul\":5281:5285   */\n      0xa0\n        /* \"#utility.yul\":5276:5279   */\n      dup4\n        /* \"#utility.yul\":5272:5286   */\n      add\n        /* \"#utility.yul\":5368:5372   */\n      0x00\n        /* \"#utility.yul\":5361:5366   */\n      dup4\n        /* \"#utility.yul\":5357:5373   */\n      add\n        /* \"#utility.yul\":5351:5374   */\n      mload\n        /* \"#utility.yul\":5421:5424   */\n      dup5\n        /* \"#utility.yul\":5415:5419   */\n      dup3\n        /* \"#utility.yul\":5411:5425   */\n      sub\n        /* \"#utility.yul\":5404:5408   */\n      0x00\n        /* \"#utility.yul\":5399:5402   */\n      dup7\n        /* \"#utility.yul\":5395:5409   */\n      add\n        /* \"#utility.yul\":5388:5426   */\n      mstore\n        /* \"#utility.yul\":5447:5520   */\n      tag_336\n        /* \"#utility.yul\":5515:5519   */\n      dup3\n        /* \"#utility.yul\":5501:5513   */\n      dup3\n        /* \"#utility.yul\":5447:5520   */\n      tag_221\n      jump\t// in\n    tag_336:\n        /* \"#utility.yul\":5439:5520   */\n      swap2\n      pop\n        /* \"#utility.yul\":5296:5531   */\n      pop\n        /* \"#utility.yul\":5613:5617   */\n      0x20\n        /* \"#utility.yul\":5606:5611   */\n      dup4\n        /* \"#utility.yul\":5602:5618   */\n      add\n        /* \"#utility.yul\":5596:5619   */\n      mload\n        /* \"#utility.yul\":5632:5695   */\n      tag_337\n        /* \"#utility.yul\":5689:5693   */\n      0x20\n        /* \"#utility.yul\":5684:5687   */\n      dup7\n        /* \"#utility.yul\":5680:5694   */\n      add\n        /* \"#utility.yul\":5666:5678   */\n      dup3\n        /* \"#utility.yul\":5632:5695   */\n      tag_222\n      jump\t// in\n    tag_337:\n        /* \"#utility.yul\":5541:5705   */\n      pop\n        /* \"#utility.yul\":5791:5795   */\n      0x40\n        /* \"#utility.yul\":5784:5789   */\n      dup4\n        /* \"#utility.yul\":5780:5796   */\n      add\n        /* \"#utility.yul\":5774:5797   */\n      mload\n        /* \"#utility.yul\":5810:5873   */\n      tag_338\n        /* \"#utility.yul\":5867:5871   */\n      0x40\n        /* \"#utility.yul\":5862:5865   */\n      dup7\n        /* \"#utility.yul\":5858:5872   */\n      add\n        /* \"#utility.yul\":5844:5856   */\n      dup3\n        /* \"#utility.yul\":5810:5873   */\n      tag_222\n      jump\t// in\n    tag_338:\n        /* \"#utility.yul\":5715:5883   */\n      pop\n        /* \"#utility.yul\":5976:5980   */\n      0x60\n        /* \"#utility.yul\":5969:5974   */\n      dup4\n        /* \"#utility.yul\":5965:5981   */\n      add\n        /* \"#utility.yul\":5959:5982   */\n      mload\n        /* \"#utility.yul\":5995:6058   */\n      tag_339\n        /* \"#utility.yul\":6052:6056   */\n      0x60\n        /* \"#utility.yul\":6047:6050   */\n      dup7\n        /* \"#utility.yul\":6043:6057   */\n      add\n        /* \"#utility.yul\":6029:6041   */\n      dup3\n        /* \"#utility.yul\":5995:6058   */\n      tag_222\n      jump\t// in\n    tag_339:\n        /* \"#utility.yul\":5893:6068   */\n      pop\n        /* \"#utility.yul\":6159:6163   */\n      0x80\n        /* \"#utility.yul\":6152:6157   */\n      dup4\n        /* \"#utility.yul\":6148:6164   */\n      add\n        /* \"#utility.yul\":6142:6165   */\n      mload\n        /* \"#utility.yul\":6178:6241   */\n      tag_340\n        /* \"#utility.yul\":6235:6239   */\n      0x80\n        /* \"#utility.yul\":6230:6233   */\n      dup7\n        /* \"#utility.yul\":6226:6240   */\n      add\n        /* \"#utility.yul\":6212:6224   */\n      dup3\n        /* \"#utility.yul\":6178:6241   */\n      tag_223\n      jump\t// in\n    tag_340:\n        /* \"#utility.yul\":6078:6251   */\n      pop\n        /* \"#utility.yul\":6268:6272   */\n      dup1\n        /* \"#utility.yul\":6261:6272   */\n      swap2\n      pop\n        /* \"#utility.yul\":5250:6278   */\n      pop\n        /* \"#utility.yul\":5128:6278   */\n      swap3\n      swap2\n      pop\n      pop\n      jump\t// out\n        /* \"#utility.yul\":6284:6556   */\n    tag_225:\n        /* \"#utility.yul\":6411:6421   */\n      0x00\n        /* \"#utility.yul\":6446:6550   */\n      tag_342\n        /* \"#utility.yul\":6546:6549   */\n      dup4\n        /* \"#utility.yul\":6538:6544   */\n      dup4\n        /* \"#utility.yul\":6446:6550   */\n      tag_224\n      jump\t// in\n    tag_342:\n        /* \"#utility.yul\":6432:6550   */\n      swap1\n      pop\n        /* \"#utility.yul\":6284:6556   */\n      swap3\n      swap2\n      pop\n      pop\n      jump\t// out\n        /* \"#utility.yul\":6562:6704   */\n    tag_226:\n        /* \"#utility.yul\":6661:6665   */\n      0x00\n        /* \"#utility.yul\":6693:6697   */\n      0x20\n        /* \"#utility.yul\":6688:6691   */\n      dup3\n        /* \"#utility.yul\":6684:6698   */\n      add\n        /* \"#utility.yul\":6676:6698   */\n      swap1\n      pop\n        /* \"#utility.yul\":6562:6704   */\n      swap2\n      swap1\n      pop\n      jump\t// out\n        /* \"#utility.yul\":6780:7923   */\n    tag_227:\n        /* \"#utility.yul\":6957:6960   */\n      0x00\n        /* \"#utility.yul\":6986:7069   */\n      tag_345\n        /* \"#utility.yul\":7063:7068   */\n      dup3\n        /* \"#utility.yul\":6986:7069   */\n      tag_217\n      jump\t// in\n    tag_345:\n        /* \"#utility.yul\":7085:7200   */\n      tag_346\n        /* \"#utility.yul\":7193:7199   */\n      dup2\n        /* \"#utility.yul\":7188:7191   */\n      dup6\n        /* \"#utility.yul\":7085:7200   */\n      tag_218\n      jump\t// in\n    tag_346:\n        /* \"#utility.yul\":7078:7200   */\n      swap4\n      pop\n        /* \"#utility.yul\":7226:7229   */\n      dup4\n        /* \"#utility.yul\":7271:7275   */\n      0x20\n        /* \"#utility.yul\":7263:7269   */\n      dup3\n        /* \"#utility.yul\":7259:7276   */\n      mul\n        /* \"#utility.yul\":7254:7257   */\n      dup6\n        /* \"#utility.yul\":7250:7277   */\n      add\n        /* \"#utility.yul\":7301:7386   */\n      tag_347\n        /* \"#utility.yul\":7380:7385   */\n      dup6\n        /* \"#utility.yul\":7301:7386   */\n      tag_219\n      jump\t// in\n    tag_347:\n        /* \"#utility.yul\":7409:7416   */\n      dup1\n        /* \"#utility.yul\":7440:7441   */\n      0x00\n        /* \"#utility.yul\":7425:7878   */\n    tag_348:\n        /* \"#utility.yul\":7450:7456   */\n      dup6\n        /* \"#utility.yul\":7447:7448   */\n      dup2\n        /* \"#utility.yul\":7444:7457   */\n      lt\n        /* \"#utility.yul\":7425:7878   */\n      iszero\n      tag_350\n      jumpi\n        /* \"#utility.yul\":7521:7530   */\n      dup5\n        /* \"#utility.yul\":7515:7519   */\n      dup5\n        /* \"#utility.yul\":7511:7531   */\n      sub\n        /* \"#utility.yul\":7506:7509   */\n      dup10\n        /* \"#utility.yul\":7499:7532   */\n      mstore\n        /* \"#utility.yul\":7572:7578   */\n      dup2\n        /* \"#utility.yul\":7566:7579   */\n      mload\n        /* \"#utility.yul\":7600:7722   */\n      tag_351\n        /* \"#utility.yul\":7717:7721   */\n      dup6\n        /* \"#utility.yul\":7702:7715   */\n      dup3\n        /* \"#utility.yul\":7600:7722   */\n      tag_225\n      jump\t// in\n    tag_351:\n        /* \"#utility.yul\":7592:7722   */\n      swap5\n      pop\n        /* \"#utility.yul\":7745:7834   */\n      tag_352\n        /* \"#utility.yul\":7827:7833   */\n      dup4\n        /* \"#utility.yul\":7745:7834   */\n      tag_226\n      jump\t// in\n    tag_352:\n        /* \"#utility.yul\":7735:7834   */\n      swap3\n      pop\n        /* \"#utility.yul\":7863:7867   */\n      0x20\n        /* \"#utility.yul\":7858:7861   */\n      dup11\n        /* \"#utility.yul\":7854:7868   */\n      add\n        /* \"#utility.yul\":7847:7868   */\n      swap10\n      pop\n        /* \"#utility.yul\":7485:7878   */\n      pop\n        /* \"#utility.yul\":7472:7473   */\n      0x01\n        /* \"#utility.yul\":7469:7470   */\n      dup2\n        /* \"#utility.yul\":7465:7474   */\n      add\n        /* \"#utility.yul\":7460:7474   */\n      swap1\n      pop\n        /* \"#utility.yul\":7425:7878   */\n      jump(tag_348)\n    tag_350:\n        /* \"#utility.yul\":7429:7443   */\n      pop\n        /* \"#utility.yul\":7894:7898   */\n      dup3\n        /* \"#utility.yul\":7887:7898   */\n      swap8\n      pop\n        /* \"#utility.yul\":7914:7917   */\n      dup8\n        /* \"#utility.yul\":7907:7917   */\n      swap6\n      pop\n        /* \"#utility.yul\":6962:7923   */\n      pop\n      pop\n      pop\n      pop\n      pop\n        /* \"#utility.yul\":6780:7923   */\n      swap3\n      swap2\n      pop\n      pop\n      jump\t// out\n        /* \"#utility.yul\":7929:8418   */\n    tag_31:\n        /* \"#utility.yul\":8130:8134   */\n      0x00\n        /* \"#utility.yul\":8168:8170   */\n      0x20\n        /* \"#utility.yul\":8157:8166   */\n      dup3\n        /* \"#utility.yul\":8153:8171   */\n      add\n        /* \"#utility.yul\":8145:8171   */\n      swap1\n      pop\n        /* \"#utility.yul\":8217:8226   */\n      dup2\n        /* \"#utility.yul\":8211:8215   */\n      dup2\n        /* \"#utility.yul\":8207:8227   */\n      sub\n        /* \"#utility.yul\":8203:8204   */\n      0x00\n        /* \"#utility.yul\":8192:8201   */\n      dup4\n        /* \"#utility.yul\":8188:8205   */\n      add\n        /* \"#utility.yul\":8181:8228   */\n      mstore\n        /* \"#utility.yul\":8245:8411   */\n      tag_354\n        /* \"#utility.yul\":8406:8410   */\n      dup2\n        /* \"#utility.yul\":8397:8403   */\n      dup5\n        /* \"#utility.yul\":8245:8411   */\n      tag_227\n      jump\t// in\n    tag_354:\n        /* \"#utility.yul\":8237:8411   */\n      swap1\n      pop\n        /* \"#utility.yul\":7929:8418   */\n      swap3\n      swap2\n      pop\n      pop\n      jump\t// out\n        /* \"#utility.yul\":8424:8546   */\n    tag_228:\n        /* \"#utility.yul\":8497:8521   */\n      tag_356\n        /* \"#utility.yul\":8515:8520   */\n      dup2\n        /* \"#utility.yul\":8497:8521   */\n      tag_215\n      jump\t// in\n    tag_356:\n        /* \"#utility.yul\":8490:8495   */\n      dup2\n        /* \"#utility.yul\":8487:8522   */\n      eq\n        /* \"#utility.yul\":8477:8540   */\n      tag_357\n      jumpi\n        /* \"#utility.yul\":8536:8537   */\n      0x00\n        /* \"#utility.yul\":8533:8534   */\n      dup1\n        /* \"#utility.yul\":8526:8538   */\n      revert\n        /* \"#utility.yul\":8477:8540   */\n    tag_357:\n        /* \"#utility.yul\":8424:8546   */\n      pop\n      jump\t// out\n        /* \"#utility.yul\":8552:8691   */\n    tag_229:\n        /* \"#utility.yul\":8598:8603   */\n      0x00\n        /* \"#utility.yul\":8636:8642   */\n      dup2\n        /* \"#utility.yul\":8623:8643   */\n      calldataload\n        /* \"#utility.yul\":8614:8643   */\n      swap1\n      pop\n        /* \"#utility.yul\":8652:8685   */\n      tag_359\n        /* \"#utility.yul\":8679:8684   */\n      dup2\n        /* \"#utility.yul\":8652:8685   */\n      tag_228\n      jump\t// in\n    tag_359:\n        /* \"#utility.yul\":8552:8691   */\n      swap3\n      swap2\n      pop\n      pop\n      jump\t// out\n        /* \"#utility.yul\":8697:9026   */\n    tag_34:\n        /* \"#utility.yul\":8756:8762   */\n      0x00\n        /* \"#utility.yul\":8805:8807   */\n      0x20\n        /* \"#utility.yul\":8793:8802   */\n      dup3\n        /* \"#utility.yul\":8784:8791   */\n      dup5\n        /* \"#utility.yul\":8780:8803   */\n      sub\n        /* \"#utility.yul\":8776:8808   */\n      slt\n        /* \"#utility.yul\":8773:8892   */\n      iszero\n      tag_361\n      jumpi\n        /* \"#utility.yul\":8811:8890   */\n      tag_362\n      tag_203\n      jump\t// in\n    tag_362:\n        /* \"#utility.yul\":8773:8892   */\n    tag_361:\n        /* \"#utility.yul\":8931:8932   */\n      0x00\n        /* \"#utility.yul\":8956:9009   */\n      tag_363\n        /* \"#utility.yul\":9001:9008   */\n      dup5\n        /* \"#utility.yul\":8992:8998   */\n      dup3\n        /* \"#utility.yul\":8981:8990   */\n      dup6\n        /* \"#utility.yul\":8977:8999   */\n      add\n        /* \"#utility.yul\":8956:9009   */\n      tag_229\n      jump\t// in\n    tag_363:\n        /* \"#utility.yul\":8946:9009   */\n      swap2\n      pop\n        /* \"#utility.yul\":8902:9019   */\n      pop\n        /* \"#utility.yul\":8697:9026   */\n      swap3\n      swap2\n      pop\n      pop\n      jump\t// out\n        /* \"#utility.yul\":9032:9122   */\n    tag_230:\n        /* \"#utility.yul\":9066:9073   */\n      0x00\n        /* \"#utility.yul\":9109:9114   */\n      dup2\n        /* \"#utility.yul\":9102:9115   */\n      iszero\n        /* \"#utility.yul\":9095:9116   */\n      iszero\n        /* \"#utility.yul\":9084:9116   */\n      swap1\n      pop\n        /* \"#utility.yul\":9032:9122   */\n      swap2\n      swap1\n      pop\n      jump\t// out\n        /* \"#utility.yul\":9128:9237   */\n    tag_231:\n        /* \"#utility.yul\":9209:9230   */\n      tag_366\n        /* \"#utility.yul\":9224:9229   */\n      dup2\n        /* \"#utility.yul\":9209:9230   */\n      tag_230\n      jump\t// in\n    tag_366:\n        /* \"#utility.yul\":9204:9207   */\n      dup3\n        /* \"#utility.yul\":9197:9231   */\n      mstore\n        /* \"#utility.yul\":9128:9237   */\n      pop\n      pop\n      jump\t// out\n        /* \"#utility.yul\":9243:9453   */\n    tag_37:\n        /* \"#utility.yul\":9330:9334   */\n      0x00\n        /* \"#utility.yul\":9368:9370   */\n      0x20\n        /* \"#utility.yul\":9357:9366   */\n      dup3\n        /* \"#utility.yul\":9353:9371   */\n      add\n        /* \"#utility.yul\":9345:9371   */\n      swap1\n      pop\n        /* \"#utility.yul\":9381:9446   */\n      tag_368\n        /* \"#utility.yul\":9443:9444   */\n      0x00\n        /* \"#utility.yul\":9432:9441   */\n      dup4\n        /* \"#utility.yul\":9428:9445   */\n      add\n        /* \"#utility.yul\":9419:9425   */\n      dup5\n        /* \"#utility.yul\":9381:9446   */\n      tag_231\n      jump\t// in\n    tag_368:\n        /* \"#utility.yul\":9243:9453   */\n      swap3\n      swap2\n      pop\n      pop\n      jump\t// out\n        /* \"#utility.yul\":9459:10416   */\n    tag_42:\n        /* \"#utility.yul\":9732:9736   */\n      0x00\n        /* \"#utility.yul\":9770:9773   */\n      0xc0\n        /* \"#utility.yul\":9759:9768   */\n      dup3\n        /* \"#utility.yul\":9755:9774   */\n      add\n        /* \"#utility.yul\":9747:9774   */\n      swap1\n      pop\n        /* \"#utility.yul\":9820:9829   */\n      dup2\n        /* \"#utility.yul\":9814:9818   */\n      dup2\n        /* \"#utility.yul\":9810:9830   */\n      sub\n        /* \"#utility.yul\":9806:9807   */\n      0x00\n        /* \"#utility.yul\":9795:9804   */\n      dup4\n        /* \"#utility.yul\":9791:9808   */\n      add\n        /* \"#utility.yul\":9784:9831   */\n      mstore\n        /* \"#utility.yul\":9848:9926   */\n      tag_370\n        /* \"#utility.yul\":9921:9925   */\n      dup2\n        /* \"#utility.yul\":9912:9918   */\n      dup10\n        /* \"#utility.yul\":9848:9926   */\n      tag_212\n      jump\t// in\n    tag_370:\n        /* \"#utility.yul\":9840:9926   */\n      swap1\n      pop\n        /* \"#utility.yul\":9973:9982   */\n      dup2\n        /* \"#utility.yul\":9967:9971   */\n      dup2\n        /* \"#utility.yul\":9963:9983   */\n      sub\n        /* \"#utility.yul\":9958:9960   */\n      0x20\n        /* \"#utility.yul\":9947:9956   */\n      dup4\n        /* \"#utility.yul\":9943:9961   */\n      add\n        /* \"#utility.yul\":9936:9984   */\n      mstore\n        /* \"#utility.yul\":10001:10079   */\n      tag_371\n        /* \"#utility.yul\":10074:10078   */\n      dup2\n        /* \"#utility.yul\":10065:10071   */\n      dup9\n        /* \"#utility.yul\":10001:10079   */\n      tag_212\n      jump\t// in\n    tag_371:\n        /* \"#utility.yul\":9993:10079   */\n      swap1\n      pop\n        /* \"#utility.yul\":10089:10161   */\n      tag_372\n        /* \"#utility.yul\":10157:10159   */\n      0x40\n        /* \"#utility.yul\":10146:10155   */\n      dup4\n        /* \"#utility.yul\":10142:10160   */\n      add\n        /* \"#utility.yul\":10133:10139   */\n      dup8\n        /* \"#utility.yul\":10089:10161   */\n      tag_213\n      jump\t// in\n    tag_372:\n        /* \"#utility.yul\":10171:10243   */\n      tag_373\n        /* \"#utility.yul\":10239:10241   */\n      0x60\n        /* \"#utility.yul\":10228:10237   */\n      dup4\n        /* \"#utility.yul\":10224:10242   */\n      add\n        /* \"#utility.yul\":10215:10221   */\n      dup7\n        /* \"#utility.yul\":10171:10243   */\n      tag_213\n      jump\t// in\n    tag_373:\n        /* \"#utility.yul\":10253:10326   */\n      tag_374\n        /* \"#utility.yul\":10321:10324   */\n      0x80\n        /* \"#utility.yul\":10310:10319   */\n      dup4\n        /* \"#utility.yul\":10306:10325   */\n      add\n        /* \"#utility.yul\":10297:10303   */\n      dup6\n        /* \"#utility.yul\":10253:10326   */\n      tag_216\n      jump\t// in\n    tag_374:\n        /* \"#utility.yul\":10336:10409   */\n      tag_375\n        /* \"#utility.yul\":10404:10407   */\n      0xa0\n        /* \"#utility.yul\":10393:10402   */\n      dup4\n        /* \"#utility.yul\":10389:10408   */\n      add\n        /* \"#utility.yul\":10380:10386   */\n      dup5\n        /* \"#utility.yul\":10336:10409   */\n      tag_213\n      jump\t// in\n    tag_375:\n        /* \"#utility.yul\":9459:10416   */\n      swap8\n      swap7\n      pop\n      pop\n      pop\n      pop\n      pop\n      pop\n      pop\n      jump\t// out\n        /* \"#utility.yul\":10422:10539   */\n    tag_232:\n        /* \"#utility.yul\":10531:10532   */\n      0x00\n        /* \"#utility.yul\":10528:10529   */\n      dup1\n        /* \"#utility.yul\":10521:10533   */\n      revert\n        /* \"#utility.yul\":10545:10662   */\n    tag_233:\n        /* \"#utility.yul\":10654:10655   */\n      0x00\n        /* \"#utility.yul\":10651:10652   */\n      dup1\n        /* \"#utility.yul\":10644:10656   */\n      revert\n        /* \"#utility.yul\":10668:10848   */\n    tag_103:\n        /* \"#utility.yul\":10716:10793   */\n      0x4e487b7100000000000000000000000000000000000000000000000000000000\n        /* \"#utility.yul\":10713:10714   */\n      0x00\n        /* \"#utility.yul\":10706:10794   */\n      mstore\n        /* \"#utility.yul\":10813:10817   */\n      0x41\n        /* \"#utility.yul\":10810:10811   */\n      0x04\n        /* \"#utility.yul\":10803:10818   */\n      mstore\n        /* \"#utility.yul\":10837:10841   */\n      0x24\n        /* \"#utility.yul\":10834:10835   */\n      0x00\n        /* \"#utility.yul\":10827:10842   */\n      revert\n        /* \"#utility.yul\":10854:11135   */\n    tag_234:\n        /* \"#utility.yul\":10937:10964   */\n      tag_380\n        /* \"#utility.yul\":10959:10963   */\n      dup3\n        /* \"#utility.yul\":10937:10964   */\n      tag_211\n      jump\t// in\n    tag_380:\n        /* \"#utility.yul\":10929:10935   */\n      dup2\n        /* \"#utility.yul\":10925:10965   */\n      add\n        /* \"#utility.yul\":11067:11073   */\n      dup2\n        /* \"#utility.yul\":11055:11065   */\n      dup2\n        /* \"#utility.yul\":11052:11074   */\n      lt\n        /* \"#utility.yul\":11031:11049   */\n      0xffffffffffffffff\n        /* \"#utility.yul\":11019:11029   */\n      dup3\n        /* \"#utility.yul\":11016:11050   */\n      gt\n        /* \"#utility.yul\":11013:11075   */\n      or\n        /* \"#utility.yul\":11010:11098   */\n      iszero\n      tag_381\n      jumpi\n        /* \"#utility.yul\":11078:11096   */\n      tag_382\n      tag_103\n      jump\t// in\n    tag_382:\n        /* \"#utility.yul\":11010:11098   */\n    tag_381:\n        /* \"#utility.yul\":11118:11128   */\n      dup1\n        /* \"#utility.yul\":11114:11116   */\n      0x40\n        /* \"#utility.yul\":11107:11129   */\n      mstore\n        /* \"#utility.yul\":10897:11135   */\n      pop\n        /* \"#utility.yul\":10854:11135   */\n      pop\n      pop\n      jump\t// out\n        /* \"#utility.yul\":11141:11270   */\n    tag_235:\n        /* \"#utility.yul\":11175:11181   */\n      0x00\n        /* \"#utility.yul\":11202:11222   */\n      tag_384\n      tag_202\n      jump\t// in\n    tag_384:\n        /* \"#utility.yul\":11192:11222   */\n      swap1\n      pop\n        /* \"#utility.yul\":11231:11264   */\n      tag_385\n        /* \"#utility.yul\":11259:11263   */\n      dup3\n        /* \"#utility.yul\":11251:11257   */\n      dup3\n        /* \"#utility.yul\":11231:11264   */\n      tag_234\n      jump\t// in\n    tag_385:\n        /* \"#utility.yul\":11141:11270   */\n      swap2\n      swap1\n      pop\n      jump\t// out\n        /* \"#utility.yul\":11276:11584   */\n    tag_236:\n        /* \"#utility.yul\":11338:11342   */\n      0x00\n        /* \"#utility.yul\":11428:11446   */\n      0xffffffffffffffff\n        /* \"#utility.yul\":11420:11426   */\n      dup3\n        /* \"#utility.yul\":11417:11447   */\n      gt\n        /* \"#utility.yul\":11414:11470   */\n      iszero\n      tag_387\n      jumpi\n        /* \"#utility.yul\":11450:11468   */\n      tag_388\n      tag_103\n      jump\t// in\n    tag_388:\n        /* \"#utility.yul\":11414:11470   */\n    tag_387:\n        /* \"#utility.yul\":11488:11517   */\n      tag_389\n        /* \"#utility.yul\":11510:11516   */\n      dup3\n        /* \"#utility.yul\":11488:11517   */\n      tag_211\n      jump\t// in\n    tag_389:\n        /* \"#utility.yul\":11480:11517   */\n      swap1\n      pop\n        /* \"#utility.yul\":11572:11576   */\n      0x20\n        /* \"#utility.yul\":11566:11570   */\n      dup2\n        /* \"#utility.yul\":11562:11577   */\n      add\n        /* \"#utility.yul\":11554:11577   */\n      swap1\n      pop\n        /* \"#utility.yul\":11276:11584   */\n      swap2\n      swap1\n      pop\n      jump\t// out\n        /* \"#utility.yul\":11590:11736   */\n    tag_237:\n        /* \"#utility.yul\":11687:11693   */\n      dup3\n        /* \"#utility.yul\":11682:11685   */\n      dup2\n        /* \"#utility.yul\":11677:11680   */\n      dup4\n        /* \"#utility.yul\":11664:11694   */\n      calldatacopy\n        /* \"#utility.yul\":11728:11729   */\n      0x00\n        /* \"#utility.yul\":11719:11725   */\n      dup4\n        /* \"#utility.yul\":11714:11717   */\n      dup4\n        /* \"#utility.yul\":11710:11726   */\n      add\n        /* \"#utility.yul\":11703:11730   */\n      mstore\n        /* \"#utility.yul\":11590:11736   */\n      pop\n      pop\n      pop\n      jump\t// out\n        /* \"#utility.yul\":11742:12167   */\n    tag_238:\n        /* \"#utility.yul\":11820:11825   */\n      0x00\n        /* \"#utility.yul\":11845:11911   */\n      tag_392\n        /* \"#utility.yul\":11861:11910   */\n      tag_393\n        /* \"#utility.yul\":11903:11909   */\n      dup5\n        /* \"#utility.yul\":11861:11910   */\n      tag_236\n      jump\t// in\n    tag_393:\n        /* \"#utility.yul\":11845:11911   */\n      tag_235\n      jump\t// in\n    tag_392:\n        /* \"#utility.yul\":11836:11911   */\n      swap1\n      pop\n        /* \"#utility.yul\":11934:11940   */\n      dup3\n        /* \"#utility.yul\":11927:11932   */\n      dup2\n        /* \"#utility.yul\":11920:11941   */\n      mstore\n        /* \"#utility.yul\":11972:11976   */\n      0x20\n        /* \"#utility.yul\":11965:11970   */\n      dup2\n        /* \"#utility.yul\":11961:11977   */\n      add\n        /* \"#utility.yul\":12010:12013   */\n      dup5\n        /* \"#utility.yul\":12001:12007   */\n      dup5\n        /* \"#utility.yul\":11996:11999   */\n      dup5\n        /* \"#utility.yul\":11992:12008   */\n      add\n        /* \"#utility.yul\":11989:12014   */\n      gt\n        /* \"#utility.yul\":11986:12098   */\n      iszero\n      tag_394\n      jumpi\n        /* \"#utility.yul\":12017:12096   */\n      tag_395\n      tag_233\n      jump\t// in\n    tag_395:\n        /* \"#utility.yul\":11986:12098   */\n    tag_394:\n        /* \"#utility.yul\":12107:12161   */\n      tag_396\n        /* \"#utility.yul\":12154:12160   */\n      dup5\n        /* \"#utility.yul\":12149:12152   */\n      dup3\n        /* \"#utility.yul\":12144:12147   */\n      dup6\n        /* \"#utility.yul\":12107:12161   */\n      tag_237\n      jump\t// in\n    tag_396:\n        /* \"#utility.yul\":11826:12167   */\n      pop\n        /* \"#utility.yul\":11742:12167   */\n      swap4\n      swap3\n      pop\n      pop\n      pop\n      jump\t// out\n        /* \"#utility.yul\":12187:12527   */\n    tag_239:\n        /* \"#utility.yul\":12243:12248   */\n      0x00\n        /* \"#utility.yul\":12292:12295   */\n      dup3\n        /* \"#utility.yul\":12285:12289   */\n      0x1f\n        /* \"#utility.yul\":12277:12283   */\n      dup4\n        /* \"#utility.yul\":12273:12290   */\n      add\n        /* \"#utility.yul\":12269:12296   */\n      slt\n        /* \"#utility.yul\":12259:12381   */\n      tag_398\n      jumpi\n        /* \"#utility.yul\":12300:12379   */\n      tag_399\n      tag_232\n      jump\t// in\n    tag_399:\n        /* \"#utility.yul\":12259:12381   */\n    tag_398:\n        /* \"#utility.yul\":12417:12423   */\n      dup2\n        /* \"#utility.yul\":12404:12424   */\n      calldataload\n        /* \"#utility.yul\":12442:12521   */\n      tag_400\n        /* \"#utility.yul\":12517:12520   */\n      dup5\n        /* \"#utility.yul\":12509:12515   */\n      dup3\n        /* \"#utility.yul\":12502:12506   */\n      0x20\n        /* \"#utility.yul\":12494:12500   */\n      dup7\n        /* \"#utility.yul\":12490:12507   */\n      add\n        /* \"#utility.yul\":12442:12521   */\n      tag_238\n      jump\t// in\n    tag_400:\n        /* \"#utility.yul\":12433:12521   */\n      swap2\n      pop\n        /* \"#utility.yul\":12249:12527   */\n      pop\n        /* \"#utility.yul\":12187:12527   */\n      swap3\n      swap2\n      pop\n      pop\n      jump\t// out\n        /* \"#utility.yul\":12533:13187   */\n    tag_49:\n        /* \"#utility.yul\":12611:12617   */\n      0x00\n        /* \"#utility.yul\":12619:12625   */\n      dup1\n        /* \"#utility.yul\":12668:12670   */\n      0x40\n        /* \"#utility.yul\":12656:12665   */\n      dup4\n        /* \"#utility.yul\":12647:12654   */\n      dup6\n        /* \"#utility.yul\":12643:12666   */\n      sub\n        /* \"#utility.yul\":12639:12671   */\n      slt\n        /* \"#utility.yul\":12636:12755   */\n      iszero\n      tag_402\n      jumpi\n        /* \"#utility.yul\":12674:12753   */\n      tag_403\n      tag_203\n      jump\t// in\n    tag_403:\n        /* \"#utility.yul\":12636:12755   */\n    tag_402:\n        /* \"#utility.yul\":12822:12823   */\n      0x00\n        /* \"#utility.yul\":12811:12820   */\n      dup4\n        /* \"#utility.yul\":12807:12824   */\n      add\n        /* \"#utility.yul\":12794:12825   */\n      calldataload\n        /* \"#utility.yul\":12852:12870   */\n      0xffffffffffffffff\n        /* \"#utility.yul\":12844:12850   */\n      dup2\n        /* \"#utility.yul\":12841:12871   */\n      gt\n        /* \"#utility.yul\":12838:12955   */\n      iszero\n      tag_404\n      jumpi\n        /* \"#utility.yul\":12874:12953   */\n      tag_405\n      tag_204\n      jump\t// in\n    tag_405:\n        /* \"#utility.yul\":12838:12955   */\n    tag_404:\n        /* \"#utility.yul\":12979:13042   */\n      tag_406\n        /* \"#utility.yul\":13034:13041   */\n      dup6\n        /* \"#utility.yul\":13025:13031   */\n      dup3\n        /* \"#utility.yul\":13014:13023   */\n      dup7\n        /* \"#utility.yul\":13010:13032   */\n      add\n        /* \"#utility.yul\":12979:13042   */\n      tag_239\n      jump\t// in\n    tag_406:\n        /* \"#utility.yul\":12969:13042   */\n      swap3\n      pop\n        /* \"#utility.yul\":12765:13052   */\n      pop\n        /* \"#utility.yul\":13091:13093   */\n      0x20\n        /* \"#utility.yul\":13117:13170   */\n      tag_407\n        /* \"#utility.yul\":13162:13169   */\n      dup6\n        /* \"#utility.yul\":13153:13159   */\n      dup3\n        /* \"#utility.yul\":13142:13151   */\n      dup7\n        /* \"#utility.yul\":13138:13160   */\n      add\n        /* \"#utility.yul\":13117:13170   */\n      tag_207\n      jump\t// in\n    tag_407:\n        /* \"#utility.yul\":13107:13170   */\n      swap2\n      pop\n        /* \"#utility.yul\":13062:13180   */\n      pop\n        /* \"#utility.yul\":12533:13187   */\n      swap3\n      pop\n      swap3\n      swap1\n      pop\n      jump\t// out\n        /* \"#utility.yul\":13193:13332   */\n    tag_240:\n        /* \"#utility.yul\":13285:13291   */\n      0x00\n        /* \"#utility.yul\":13319:13324   */\n      dup2\n        /* \"#utility.yul\":13313:13325   */\n      mload\n        /* \"#utility.yul\":13303:13325   */\n      swap1\n      pop\n        /* \"#utility.yul\":13193:13332   */\n      swap2\n      swap1\n      pop\n      jump\t// out\n        /* \"#utility.yul\":13338:13547   */\n    tag_241:\n        /* \"#utility.yul\":13462:13473   */\n      0x00\n        /* \"#utility.yul\":13496:13502   */\n      dup3\n        /* \"#utility.yul\":13491:13494   */\n      dup3\n        /* \"#utility.yul\":13484:13503   */\n      mstore\n        /* \"#utility.yul\":13536:13540   */\n      0x20\n        /* \"#utility.yul\":13531:13534   */\n      dup3\n        /* \"#utility.yul\":13527:13541   */\n      add\n        /* \"#utility.yul\":13512:13541   */\n      swap1\n      pop\n        /* \"#utility.yul\":13338:13547   */\n      swap3\n      swap2\n      pop\n      pop\n      jump\t// out\n        /* \"#utility.yul\":13553:13710   */\n    tag_242:\n        /* \"#utility.yul\":13645:13649   */\n      0x00\n        /* \"#utility.yul\":13668:13671   */\n      dup2\n        /* \"#utility.yul\":13660:13671   */\n      swap1\n      pop\n        /* \"#utility.yul\":13698:13702   */\n      0x20\n        /* \"#utility.yul\":13693:13696   */\n      dup3\n        /* \"#utility.yul\":13689:13703   */\n      add\n        /* \"#utility.yul\":13681:13703   */\n      swap1\n      pop\n        /* \"#utility.yul\":13553:13710   */\n      swap2\n      swap1\n      pop\n      jump\t// out\n        /* \"#utility.yul\":13774:15161   */\n    tag_243:\n        /* \"#utility.yul\":13883:13886   */\n      0x00\n        /* \"#utility.yul\":13919:13923   */\n      0xc0\n        /* \"#utility.yul\":13914:13917   */\n      dup4\n        /* \"#utility.yul\":13910:13924   */\n      add\n        /* \"#utility.yul\":14006:14010   */\n      0x00\n        /* \"#utility.yul\":13999:14004   */\n      dup4\n        /* \"#utility.yul\":13995:14011   */\n      add\n        /* \"#utility.yul\":13989:14012   */\n      mload\n        /* \"#utility.yul\":14059:14062   */\n      dup5\n        /* \"#utility.yul\":14053:14057   */\n      dup3\n        /* \"#utility.yul\":14049:14063   */\n      sub\n        /* \"#utility.yul\":14042:14046   */\n      0x00\n        /* \"#utility.yul\":14037:14040   */\n      dup7\n        /* \"#utility.yul\":14033:14047   */\n      add\n        /* \"#utility.yul\":14026:14064   */\n      mstore\n        /* \"#utility.yul\":14085:14158   */\n      tag_412\n        /* \"#utility.yul\":14153:14157   */\n      dup3\n        /* \"#utility.yul\":14139:14151   */\n      dup3\n        /* \"#utility.yul\":14085:14158   */\n      tag_221\n      jump\t// in\n    tag_412:\n        /* \"#utility.yul\":14077:14158   */\n      swap2\n      pop\n        /* \"#utility.yul\":13934:14169   */\n      pop\n        /* \"#utility.yul\":14252:14256   */\n      0x20\n        /* \"#utility.yul\":14245:14250   */\n      dup4\n        /* \"#utility.yul\":14241:14257   */\n      add\n        /* \"#utility.yul\":14235:14258   */\n      mload\n        /* \"#utility.yul\":14305:14308   */\n      dup5\n        /* \"#utility.yul\":14299:14303   */\n      dup3\n        /* \"#utility.yul\":14295:14309   */\n      sub\n        /* \"#utility.yul\":14288:14292   */\n      0x20\n        /* \"#utility.yul\":14283:14286   */\n      dup7\n        /* \"#utility.yul\":14279:14293   */\n      add\n        /* \"#utility.yul\":14272:14310   */\n      mstore\n        /* \"#utility.yul\":14331:14404   */\n      tag_413\n        /* \"#utility.yul\":14399:14403   */\n      dup3\n        /* \"#utility.yul\":14385:14397   */\n      dup3\n        /* \"#utility.yul\":14331:14404   */\n      tag_221\n      jump\t// in\n    tag_413:\n        /* \"#utility.yul\":14323:14404   */\n      swap2\n      pop\n        /* \"#utility.yul\":14179:14415   */\n      pop\n        /* \"#utility.yul\":14498:14502   */\n      0x40\n        /* \"#utility.yul\":14491:14496   */\n      dup4\n        /* \"#utility.yul\":14487:14503   */\n      add\n        /* \"#utility.yul\":14481:14504   */\n      mload\n        /* \"#utility.yul\":14517:14580   */\n      tag_414\n        /* \"#utility.yul\":14574:14578   */\n      0x40\n        /* \"#utility.yul\":14569:14572   */\n      dup7\n        /* \"#utility.yul\":14565:14579   */\n      add\n        /* \"#utility.yul\":14551:14563   */\n      dup3\n        /* \"#utility.yul\":14517:14580   */\n      tag_222\n      jump\t// in\n    tag_414:\n        /* \"#utility.yul\":14425:14590   */\n      pop\n        /* \"#utility.yul\":14680:14684   */\n      0x60\n        /* \"#utility.yul\":14673:14678   */\n      dup4\n        /* \"#utility.yul\":14669:14685   */\n      add\n        /* \"#utility.yul\":14663:14686   */\n      mload\n        /* \"#utility.yul\":14699:14762   */\n      tag_415\n        /* \"#utility.yul\":14756:14760   */\n      0x60\n        /* \"#utility.yul\":14751:14754   */\n      dup7\n        /* \"#utility.yul\":14747:14761   */\n      add\n        /* \"#utility.yul\":14733:14745   */\n      dup3\n        /* \"#utility.yul\":14699:14762   */\n      tag_222\n      jump\t// in\n    tag_415:\n        /* \"#utility.yul\":14600:14772   */\n      pop\n        /* \"#utility.yul\":14867:14871   */\n      0x80\n        /* \"#utility.yul\":14860:14865   */\n      dup4\n        /* \"#utility.yul\":14856:14872   */\n      add\n        /* \"#utility.yul\":14850:14873   */\n      mload\n        /* \"#utility.yul\":14886:14949   */\n      tag_416\n        /* \"#utility.yul\":14943:14947   */\n      0x80\n        /* \"#utility.yul\":14938:14941   */\n      dup7\n        /* \"#utility.yul\":14934:14948   */\n      add\n        /* \"#utility.yul\":14920:14932   */\n      dup3\n        /* \"#utility.yul\":14886:14949   */\n      tag_223\n      jump\t// in\n    tag_416:\n        /* \"#utility.yul\":14782:14959   */\n      pop\n        /* \"#utility.yul\":15042:15046   */\n      0xa0\n        /* \"#utility.yul\":15035:15040   */\n      dup4\n        /* \"#utility.yul\":15031:15047   */\n      add\n        /* \"#utility.yul\":15025:15048   */\n      mload\n        /* \"#utility.yul\":15061:15124   */\n      tag_417\n        /* \"#utility.yul\":15118:15122   */\n      0xa0\n        /* \"#utility.yul\":15113:15116   */\n      dup7\n        /* \"#utility.yul\":15109:15123   */\n      add\n        /* \"#utility.yul\":15095:15107   */\n      dup3\n        /* \"#utility.yul\":15061:15124   */\n      tag_222\n      jump\t// in\n    tag_417:\n        /* \"#utility.yul\":14969:15134   */\n      pop\n        /* \"#utility.yul\":15151:15155   */\n      dup1\n        /* \"#utility.yul\":15144:15155   */\n      swap2\n      pop\n        /* \"#utility.yul\":13888:15161   */\n      pop\n        /* \"#utility.yul\":13774:15161   */\n      swap3\n      swap2\n      pop\n      pop\n      jump\t// out\n        /* \"#utility.yul\":15167:15423   */\n    tag_244:\n        /* \"#utility.yul\":15286:15296   */\n      0x00\n        /* \"#utility.yul\":15321:15417   */\n      tag_419\n        /* \"#utility.yul\":15413:15416   */\n      dup4\n        /* \"#utility.yul\":15405:15411   */\n      dup4\n        /* \"#utility.yul\":15321:15417   */\n      tag_243\n      jump\t// in\n    tag_419:\n        /* \"#utility.yul\":15307:15417   */\n      swap1\n      pop\n        /* \"#utility.yul\":15167:15423   */\n      swap3\n      swap2\n      pop\n      pop\n      jump\t// out\n        /* \"#utility.yul\":15429:15567   */\n    tag_245:\n        /* \"#utility.yul\":15524:15528   */\n      0x00\n        /* \"#utility.yul\":15556:15560   */\n      0x20\n        /* \"#utility.yul\":15551:15554   */\n      dup3\n        /* \"#utility.yul\":15547:15561   */\n      add\n        /* \"#utility.yul\":15539:15561   */\n      swap1\n      pop\n        /* \"#utility.yul\":15429:15567   */\n      swap2\n      swap1\n      pop\n      jump\t// out\n        /* \"#utility.yul\":15635:16746   */\n    tag_246:\n        /* \"#utility.yul\":15804:15807   */\n      0x00\n        /* \"#utility.yul\":15833:15912   */\n      tag_422\n        /* \"#utility.yul\":15906:15911   */\n      dup3\n        /* \"#utility.yul\":15833:15912   */\n      tag_240\n      jump\t// in\n    tag_422:\n        /* \"#utility.yul\":15928:16039   */\n      tag_423\n        /* \"#utility.yul\":16032:16038   */\n      dup2\n        /* \"#utility.yul\":16027:16030   */\n      dup6\n        /* \"#utility.yul\":15928:16039   */\n      tag_241\n      jump\t// in\n    tag_423:\n        /* \"#utility.yul\":15921:16039   */\n      swap4\n      pop\n        /* \"#utility.yul\":16065:16068   */\n      dup4\n        /* \"#utility.yul\":16110:16114   */\n      0x20\n        /* \"#utility.yul\":16102:16108   */\n      dup3\n        /* \"#utility.yul\":16098:16115   */\n      mul\n        /* \"#utility.yul\":16093:16096   */\n      dup6\n        /* \"#utility.yul\":16089:16116   */\n      add\n        /* \"#utility.yul\":16140:16221   */\n      tag_424\n        /* \"#utility.yul\":16215:16220   */\n      dup6\n        /* \"#utility.yul\":16140:16221   */\n      tag_242\n      jump\t// in\n    tag_424:\n        /* \"#utility.yul\":16244:16251   */\n      dup1\n        /* \"#utility.yul\":16275:16276   */\n      0x00\n        /* \"#utility.yul\":16260:16701   */\n    tag_425:\n        /* \"#utility.yul\":16285:16291   */\n      dup6\n        /* \"#utility.yul\":16282:16283   */\n      dup2\n        /* \"#utility.yul\":16279:16292   */\n      lt\n        /* \"#utility.yul\":16260:16701   */\n      iszero\n      tag_427\n      jumpi\n        /* \"#utility.yul\":16356:16365   */\n      dup5\n        /* \"#utility.yul\":16350:16354   */\n      dup5\n        /* \"#utility.yul\":16346:16366   */\n      sub\n        /* \"#utility.yul\":16341:16344   */\n      dup10\n        /* \"#utility.yul\":16334:16367   */\n      mstore\n        /* \"#utility.yul\":16407:16413   */\n      dup2\n        /* \"#utility.yul\":16401:16414   */\n      mload\n        /* \"#utility.yul\":16435:16549   */\n      tag_428\n        /* \"#utility.yul\":16544:16548   */\n      dup6\n        /* \"#utility.yul\":16529:16542   */\n      dup3\n        /* \"#utility.yul\":16435:16549   */\n      tag_244\n      jump\t// in\n    tag_428:\n        /* \"#utility.yul\":16427:16549   */\n      swap5\n      pop\n        /* \"#utility.yul\":16572:16657   */\n      tag_429\n        /* \"#utility.yul\":16650:16656   */\n      dup4\n        /* \"#utility.yul\":16572:16657   */\n      tag_245\n      jump\t// in\n    tag_429:\n        /* \"#utility.yul\":16562:16657   */\n      swap3\n      pop\n        /* \"#utility.yul\":16686:16690   */\n      0x20\n        /* \"#utility.yul\":16681:16684   */\n      dup11\n        /* \"#utility.yul\":16677:16691   */\n      add\n        /* \"#utility.yul\":16670:16691   */\n      swap10\n      pop\n        /* \"#utility.yul\":16320:16701   */\n      pop\n        /* \"#utility.yul\":16307:16308   */\n      0x01\n        /* \"#utility.yul\":16304:16305   */\n      dup2\n        /* \"#utility.yul\":16300:16309   */\n      add\n        /* \"#utility.yul\":16295:16309   */\n      swap1\n      pop\n        /* \"#utility.yul\":16260:16701   */\n      jump(tag_425)\n    tag_427:\n        /* \"#utility.yul\":16264:16278   */\n      pop\n        /* \"#utility.yul\":16717:16721   */\n      dup3\n        /* \"#utility.yul\":16710:16721   */\n      swap8\n      pop\n        /* \"#utility.yul\":16737:16740   */\n      dup8\n        /* \"#utility.yul\":16730:16740   */\n      swap6\n      pop\n        /* \"#utility.yul\":15809:16746   */\n      pop\n      pop\n      pop\n      pop\n      pop\n        /* \"#utility.yul\":15635:16746   */\n      swap3\n      swap2\n      pop\n      pop\n      jump\t// out\n        /* \"#utility.yul\":16752:17225   */\n    tag_54:\n        /* \"#utility.yul\":16945:16949   */\n      0x00\n        /* \"#utility.yul\":16983:16985   */\n      0x20\n        /* \"#utility.yul\":16972:16981   */\n      dup3\n        /* \"#utility.yul\":16968:16986   */\n      add\n        /* \"#utility.yul\":16960:16986   */\n      swap1\n      pop\n        /* \"#utility.yul\":17032:17041   */\n      dup2\n        /* \"#utility.yul\":17026:17030   */\n      dup2\n        /* \"#utility.yul\":17022:17042   */\n      sub\n        /* \"#utility.yul\":17018:17019   */\n      0x00\n        /* \"#utility.yul\":17007:17016   */\n      dup4\n        /* \"#utility.yul\":17003:17020   */\n      add\n        /* \"#utility.yul\":16996:17043   */\n      mstore\n        /* \"#utility.yul\":17060:17218   */\n      tag_431\n        /* \"#utility.yul\":17213:17217   */\n      dup2\n        /* \"#utility.yul\":17204:17210   */\n      dup5\n        /* \"#utility.yul\":17060:17218   */\n      tag_246\n      jump\t// in\n    tag_431:\n        /* \"#utility.yul\":17052:17218   */\n      swap1\n      pop\n        /* \"#utility.yul\":16752:17225   */\n      swap3\n      swap2\n      pop\n      pop\n      jump\t// out\n        /* \"#utility.yul\":17231:17453   */\n    tag_62:\n        /* \"#utility.yul\":17324:17328   */\n      0x00\n        /* \"#utility.yul\":17362:17364   */\n      0x20\n        /* \"#utility.yul\":17351:17360   */\n      dup3\n        /* \"#utility.yul\":17347:17365   */\n      add\n        /* \"#utility.yul\":17339:17365   */\n      swap1\n      pop\n        /* \"#utility.yul\":17375:17446   */\n      tag_433\n        /* \"#utility.yul\":17443:17444   */\n      0x00\n        /* \"#utility.yul\":17432:17441   */\n      dup4\n        /* \"#utility.yul\":17428:17445   */\n      add\n        /* \"#utility.yul\":17419:17425   */\n      dup5\n        /* \"#utility.yul\":17375:17446   */\n      tag_213\n      jump\t// in\n    tag_433:\n        /* \"#utility.yul\":17231:17453   */\n      swap3\n      swap2\n      pop\n      pop\n      jump\t// out\n        /* \"#utility.yul\":17459:17681   */\n    tag_66:\n        /* \"#utility.yul\":17552:17556   */\n      0x00\n        /* \"#utility.yul\":17590:17592   */\n      0x20\n        /* \"#utility.yul\":17579:17588   */\n      dup3\n        /* \"#utility.yul\":17575:17593   */\n      add\n        /* \"#utility.yul\":17567:17593   */\n      swap1\n      pop\n        /* \"#utility.yul\":17603:17674   */\n      tag_435\n        /* \"#utility.yul\":17671:17672   */\n      0x00\n        /* \"#utility.yul\":17660:17669   */\n      dup4\n        /* \"#utility.yul\":17656:17673   */\n      add\n        /* \"#utility.yul\":17647:17653   */\n      dup5\n        /* \"#utility.yul\":17603:17674   */\n      tag_216\n      jump\t// in\n    tag_435:\n        /* \"#utility.yul\":17459:17681   */\n      swap3\n      swap2\n      pop\n      pop\n      jump\t// out\n        /* \"#utility.yul\":17687:18666   */\n    tag_69:\n        /* \"#utility.yul\":17784:17790   */\n      0x00\n        /* \"#utility.yul\":17792:17798   */\n      dup1\n        /* \"#utility.yul\":17800:17806   */\n      0x00\n        /* \"#utility.yul\":17849:17851   */\n      0x60\n        /* \"#utility.yul\":17837:17846   */\n      dup5\n        /* \"#utility.yul\":17828:17835   */\n      dup7\n        /* \"#utility.yul\":17824:17847   */\n      sub\n        /* \"#utility.yul\":17820:17852   */\n      slt\n        /* \"#utility.yul\":17817:17936   */\n      iszero\n      tag_437\n      jumpi\n        /* \"#utility.yul\":17855:17934   */\n      tag_438\n      tag_203\n      jump\t// in\n    tag_438:\n        /* \"#utility.yul\":17817:17936   */\n    tag_437:\n        /* \"#utility.yul\":18003:18004   */\n      0x00\n        /* \"#utility.yul\":17992:18001   */\n      dup5\n        /* \"#utility.yul\":17988:18005   */\n      add\n        /* \"#utility.yul\":17975:18006   */\n      calldataload\n        /* \"#utility.yul\":18033:18051   */\n      0xffffffffffffffff\n        /* \"#utility.yul\":18025:18031   */\n      dup2\n        /* \"#utility.yul\":18022:18052   */\n      gt\n        /* \"#utility.yul\":18019:18136   */\n      iszero\n      tag_439\n      jumpi\n        /* \"#utility.yul\":18055:18134   */\n      tag_440\n      tag_204\n      jump\t// in\n    tag_440:\n        /* \"#utility.yul\":18019:18136   */\n    tag_439:\n        /* \"#utility.yul\":18160:18223   */\n      tag_441\n        /* \"#utility.yul\":18215:18222   */\n      dup7\n        /* \"#utility.yul\":18206:18212   */\n      dup3\n        /* \"#utility.yul\":18195:18204   */\n      dup8\n        /* \"#utility.yul\":18191:18213   */\n      add\n        /* \"#utility.yul\":18160:18223   */\n      tag_239\n      jump\t// in\n    tag_441:\n        /* \"#utility.yul\":18150:18223   */\n      swap4\n      pop\n        /* \"#utility.yul\":17946:18233   */\n      pop\n        /* \"#utility.yul\":18300:18302   */\n      0x20\n        /* \"#utility.yul\":18289:18298   */\n      dup5\n        /* \"#utility.yul\":18285:18303   */\n      add\n        /* \"#utility.yul\":18272:18304   */\n      calldataload\n        /* \"#utility.yul\":18331:18349   */\n      0xffffffffffffffff\n        /* \"#utility.yul\":18323:18329   */\n      dup2\n        /* \"#utility.yul\":18320:18350   */\n      gt\n        /* \"#utility.yul\":18317:18434   */\n      iszero\n      tag_442\n      jumpi\n        /* \"#utility.yul\":18353:18432   */\n      tag_443\n      tag_204\n      jump\t// in\n    tag_443:\n        /* \"#utility.yul\":18317:18434   */\n    tag_442:\n        /* \"#utility.yul\":18458:18521   */\n      tag_444\n        /* \"#utility.yul\":18513:18520   */\n      dup7\n        /* \"#utility.yul\":18504:18510   */\n      dup3\n        /* \"#utility.yul\":18493:18502   */\n      dup8\n        /* \"#utility.yul\":18489:18511   */\n      add\n        /* \"#utility.yul\":18458:18521   */\n      tag_239\n      jump\t// in\n    tag_444:\n        /* \"#utility.yul\":18448:18521   */\n      swap3\n      pop\n        /* \"#utility.yul\":18243:18531   */\n      pop\n        /* \"#utility.yul\":18570:18572   */\n      0x40\n        /* \"#utility.yul\":18596:18649   */\n      tag_445\n        /* \"#utility.yul\":18641:18648   */\n      dup7\n        /* \"#utility.yul\":18632:18638   */\n      dup3\n        /* \"#utility.yul\":18621:18630   */\n      dup8\n        /* \"#utility.yul\":18617:18639   */\n      add\n        /* \"#utility.yul\":18596:18649   */\n      tag_207\n      jump\t// in\n    tag_445:\n        /* \"#utility.yul\":18586:18649   */\n      swap2\n      pop\n        /* \"#utility.yul\":18541:18659   */\n      pop\n        /* \"#utility.yul\":17687:18666   */\n      swap3\n      pop\n      swap3\n      pop\n      swap3\n      jump\t// out\n        /* \"#utility.yul\":18672:18852   */\n    tag_247:\n        /* \"#utility.yul\":18720:18797   */\n      0x4e487b7100000000000000000000000000000000000000000000000000000000\n        /* \"#utility.yul\":18717:18718   */\n      0x00\n        /* \"#utility.yul\":18710:18798   */\n      mstore\n        /* \"#utility.yul\":18817:18821   */\n      0x22\n        /* \"#utility.yul\":18814:18815   */\n      0x04\n        /* \"#utility.yul\":18807:18822   */\n      mstore\n        /* \"#utility.yul\":18841:18845   */\n      0x24\n        /* \"#utility.yul\":18838:18839   */\n      0x00\n        /* \"#utility.yul\":18831:18846   */\n      revert\n        /* \"#utility.yul\":18858:19178   */\n    tag_75:\n        /* \"#utility.yul\":18902:18908   */\n      0x00\n        /* \"#utility.yul\":18939:18940   */\n      0x02\n        /* \"#utility.yul\":18933:18937   */\n      dup3\n        /* \"#utility.yul\":18929:18941   */\n      div\n        /* \"#utility.yul\":18919:18941   */\n      swap1\n      pop\n        /* \"#utility.yul\":18986:18987   */\n      0x01\n        /* \"#utility.yul\":18980:18984   */\n      dup3\n        /* \"#utility.yul\":18976:18988   */\n      and\n        /* \"#utility.yul\":19007:19025   */\n      dup1\n        /* \"#utility.yul\":18997:19078   */\n      tag_448\n      jumpi\n        /* \"#utility.yul\":19063:19067   */\n      0x7f\n        /* \"#utility.yul\":19055:19061   */\n      dup3\n        /* \"#utility.yul\":19051:19068   */\n      and\n        /* \"#utility.yul\":19041:19068   */\n      swap2\n      pop\n        /* \"#utility.yul\":18997:19078   */\n    tag_448:\n        /* \"#utility.yul\":19125:19127   */\n      0x20\n        /* \"#utility.yul\":19117:19123   */\n      dup3\n        /* \"#utility.yul\":19114:19128   */\n      lt\n        /* \"#utility.yul\":19094:19112   */\n      dup2\n        /* \"#utility.yul\":19091:19129   */\n      sub\n        /* \"#utility.yul\":19088:19172   */\n      tag_449\n      jumpi\n        /* \"#utility.yul\":19144:19162   */\n      tag_450\n      tag_247\n      jump\t// in\n    tag_450:\n        /* \"#utility.yul\":19088:19172   */\n    tag_449:\n        /* \"#utility.yul\":18909:19178   */\n      pop\n        /* \"#utility.yul\":18858:19178   */\n      swap2\n      swap1\n      pop\n      jump\t// out\n        /* \"#utility.yul\":19184:19347   */\n    tag_248:\n        /* \"#utility.yul\":19324:19339   */\n      0x416c726561647920566f74657300000000000000000000000000000000000000\n        /* \"#utility.yul\":19320:19321   */\n      0x00\n        /* \"#utility.yul\":19312:19318   */\n      dup3\n        /* \"#utility.yul\":19308:19322   */\n      add\n        /* \"#utility.yul\":19301:19340   */\n      mstore\n        /* \"#utility.yul\":19184:19347   */\n      pop\n      jump\t// out\n        /* \"#utility.yul\":19353:19719   */\n    tag_249:\n        /* \"#utility.yul\":19495:19498   */\n      0x00\n        /* \"#utility.yul\":19516:19583   */\n      tag_453\n        /* \"#utility.yul\":19580:19582   */\n      0x0d\n        /* \"#utility.yul\":19575:19578   */\n      dup4\n        /* \"#utility.yul\":19516:19583   */\n      tag_209\n      jump\t// in\n    tag_453:\n        /* \"#utility.yul\":19509:19583   */\n      swap2\n      pop\n        /* \"#utility.yul\":19592:19685   */\n      tag_454\n        /* \"#utility.yul\":19681:19684   */\n      dup3\n        /* \"#utility.yul\":19592:19685   */\n      tag_248\n      jump\t// in\n    tag_454:\n        /* \"#utility.yul\":19710:19712   */\n      0x20\n        /* \"#utility.yul\":19705:19708   */\n      dup3\n        /* \"#utility.yul\":19701:19713   */\n      add\n        /* \"#utility.yul\":19694:19713   */\n      swap1\n      pop\n        /* \"#utility.yul\":19353:19719   */\n      swap2\n      swap1\n      pop\n      jump\t// out\n        /* \"#utility.yul\":19725:20144   */\n    tag_83:\n        /* \"#utility.yul\":19891:19895   */\n      0x00\n        /* \"#utility.yul\":19929:19931   */\n      0x20\n        /* \"#utility.yul\":19918:19927   */\n      dup3\n        /* \"#utility.yul\":19914:19932   */\n      add\n        /* \"#utility.yul\":19906:19932   */\n      swap1\n      pop\n        /* \"#utility.yul\":19978:19987   */\n      dup2\n        /* \"#utility.yul\":19972:19976   */\n      dup2\n        /* \"#utility.yul\":19968:19988   */\n      sub\n        /* \"#utility.yul\":19964:19965   */\n      0x00\n        /* \"#utility.yul\":19953:19962   */\n      dup4\n        /* \"#utility.yul\":19949:19966   */\n      add\n        /* \"#utility.yul\":19942:19989   */\n      mstore\n        /* \"#utility.yul\":20006:20137   */\n      tag_456\n        /* \"#utility.yul\":20132:20136   */\n      dup2\n        /* \"#utility.yul\":20006:20137   */\n      tag_249\n      jump\t// in\n    tag_456:\n        /* \"#utility.yul\":19998:20137   */\n      swap1\n      pop\n        /* \"#utility.yul\":19725:20144   */\n      swap2\n      swap1\n      pop\n      jump\t// out\n        /* \"#utility.yul\":20150:20319   */\n    tag_250:\n        /* \"#utility.yul\":20290:20311   */\n      0x596f7520617265206e6f74206120766f74657200000000000000000000000000\n        /* \"#utility.yul\":20286:20287   */\n      0x00\n        /* \"#utility.yul\":20278:20284   */\n      dup3\n        /* \"#utility.yul\":20274:20288   */\n      add\n        /* \"#utility.yul\":20267:20312   */\n      mstore\n        /* \"#utility.yul\":20150:20319   */\n      pop\n      jump\t// out\n        /* \"#utility.yul\":20325:20691   */\n    tag_251:\n        /* \"#utility.yul\":20467:20470   */\n      0x00\n        /* \"#utility.yul\":20488:20555   */\n      tag_459\n        /* \"#utility.yul\":20552:20554   */\n      0x13\n        /* \"#utility.yul\":20547:20550   */\n      dup4\n        /* \"#utility.yul\":20488:20555   */\n      tag_209\n      jump\t// in\n    tag_459:\n        /* \"#utility.yul\":20481:20555   */\n      swap2\n      pop\n        /* \"#utility.yul\":20564:20657   */\n      tag_460\n        /* \"#utility.yul\":20653:20656   */\n      dup3\n        /* \"#utility.yul\":20564:20657   */\n      tag_250\n      jump\t// in\n    tag_460:\n        /* \"#utility.yul\":20682:20684   */\n      0x20\n        /* \"#utility.yul\":20677:20680   */\n      dup3\n        /* \"#utility.yul\":20673:20685   */\n      add\n        /* \"#utility.yul\":20666:20685   */\n      swap1\n      pop\n        /* \"#utility.yul\":20325:20691   */\n      swap2\n      swap1\n      pop\n      jump\t// out\n        /* \"#utility.yul\":20697:21116   */\n    tag_86:\n        /* \"#utility.yul\":20863:20867   */\n      0x00\n        /* \"#utility.yul\":20901:20903   */\n      0x20\n        /* \"#utility.yul\":20890:20899   */\n      dup3\n        /* \"#utility.yul\":20886:20904   */\n      add\n        /* \"#utility.yul\":20878:20904   */\n      swap1\n      pop\n        /* \"#utility.yul\":20950:20959   */\n      dup2\n        /* \"#utility.yul\":20944:20948   */\n      dup2\n        /* \"#utility.yul\":20940:20960   */\n      sub\n        /* \"#utility.yul\":20936:20937   */\n      0x00\n        /* \"#utility.yul\":20925:20934   */\n      dup4\n        /* \"#utility.yul\":20921:20938   */\n      add\n        /* \"#utility.yul\":20914:20961   */\n      mstore\n        /* \"#utility.yul\":20978:21109   */\n      tag_462\n        /* \"#utility.yul\":21104:21108   */\n      dup2\n        /* \"#utility.yul\":20978:21109   */\n      tag_251\n      jump\t// in\n    tag_462:\n        /* \"#utility.yul\":20970:21109   */\n      swap1\n      pop\n        /* \"#utility.yul\":20697:21116   */\n      swap2\n      swap1\n      pop\n      jump\t// out\n        /* \"#utility.yul\":21122:21302   */\n    tag_252:\n        /* \"#utility.yul\":21170:21247   */\n      0x4e487b7100000000000000000000000000000000000000000000000000000000\n        /* \"#utility.yul\":21167:21168   */\n      0x00\n        /* \"#utility.yul\":21160:21248   */\n      mstore\n        /* \"#utility.yul\":21267:21271   */\n      0x11\n        /* \"#utility.yul\":21264:21265   */\n      0x04\n        /* \"#utility.yul\":21257:21272   */\n      mstore\n        /* \"#utility.yul\":21291:21295   */\n      0x24\n        /* \"#utility.yul\":21288:21289   */\n      0x00\n        /* \"#utility.yul\":21281:21296   */\n      revert\n        /* \"#utility.yul\":21308:21499   */\n    tag_88:\n        /* \"#utility.yul\":21348:21351   */\n      0x00\n        /* \"#utility.yul\":21367:21387   */\n      tag_465\n        /* \"#utility.yul\":21385:21386   */\n      dup3\n        /* \"#utility.yul\":21367:21387   */\n      tag_205\n      jump\t// in\n    tag_465:\n        /* \"#utility.yul\":21362:21387   */\n      swap2\n      pop\n        /* \"#utility.yul\":21401:21421   */\n      tag_466\n        /* \"#utility.yul\":21419:21420   */\n      dup4\n        /* \"#utility.yul\":21401:21421   */\n      tag_205\n      jump\t// in\n    tag_466:\n        /* \"#utility.yul\":21396:21421   */\n      swap3\n      pop\n        /* \"#utility.yul\":21444:21445   */\n      dup3\n        /* \"#utility.yul\":21441:21442   */\n      dup3\n        /* \"#utility.yul\":21437:21446   */\n      add\n        /* \"#utility.yul\":21430:21446   */\n      swap1\n      pop\n        /* \"#utility.yul\":21465:21468   */\n      dup1\n        /* \"#utility.yul\":21462:21463   */\n      dup3\n        /* \"#utility.yul\":21459:21469   */\n      gt\n        /* \"#utility.yul\":21456:21492   */\n      iszero\n      tag_467\n      jumpi\n        /* \"#utility.yul\":21472:21490   */\n      tag_468\n      tag_252\n      jump\t// in\n    tag_468:\n        /* \"#utility.yul\":21456:21492   */\n    tag_467:\n        /* \"#utility.yul\":21308:21499   */\n      swap3\n      swap2\n      pop\n      pop\n      jump\t// out\n        /* \"#utility.yul\":21505:21673   */\n    tag_253:\n        /* \"#utility.yul\":21645:21665   */\n      0x566f74696e67206e6f7420737461727465640000000000000000000000000000\n        /* \"#utility.yul\":21641:21642   */\n      0x00\n        /* \"#utility.yul\":21633:21639   */\n      dup3\n        /* \"#utility.yul\":21629:21643   */\n      add\n        /* \"#utility.yul\":21622:21666   */\n      mstore\n        /* \"#utility.yul\":21505:21673   */\n      pop\n      jump\t// out\n        /* \"#utility.yul\":21679:22045   */\n    tag_254:\n        /* \"#utility.yul\":21821:21824   */\n      0x00\n        /* \"#utility.yul\":21842:21909   */\n      tag_471\n        /* \"#utility.yul\":21906:21908   */\n      0x12\n        /* \"#utility.yul\":21901:21904   */\n      dup4\n        /* \"#utility.yul\":21842:21909   */\n      tag_209\n      jump\t// in\n    tag_471:\n        /* \"#utility.yul\":21835:21909   */\n      swap2\n      pop\n        /* \"#utility.yul\":21918:22011   */\n      tag_472\n        /* \"#utility.yul\":22007:22010   */\n      dup3\n        /* \"#utility.yul\":21918:22011   */\n      tag_253\n      jump\t// in\n    tag_472:\n        /* \"#utility.yul\":22036:22038   */\n      0x20\n        /* \"#utility.yul\":22031:22034   */\n      dup3\n        /* \"#utility.yul\":22027:22039   */\n      add\n        /* \"#utility.yul\":22020:22039   */\n      swap1\n      pop\n        /* \"#utility.yul\":21679:22045   */\n      swap2\n      swap1\n      pop\n      jump\t// out\n        /* \"#utility.yul\":22051:22470   */\n    tag_91:\n        /* \"#utility.yul\":22217:22221   */\n      0x00\n        /* \"#utility.yul\":22255:22257   */\n      0x20\n        /* \"#utility.yul\":22244:22253   */\n      dup3\n        /* \"#utility.yul\":22240:22258   */\n      add\n        /* \"#utility.yul\":22232:22258   */\n      swap1\n      pop\n        /* \"#utility.yul\":22304:22313   */\n      dup2\n        /* \"#utility.yul\":22298:22302   */\n      dup2\n        /* \"#utility.yul\":22294:22314   */\n      sub\n        /* \"#utility.yul\":22290:22291   */\n      0x00\n        /* \"#utility.yul\":22279:22288   */\n      dup4\n        /* \"#utility.yul\":22275:22292   */\n      add\n        /* \"#utility.yul\":22268:22315   */\n      mstore\n        /* \"#utility.yul\":22332:22463   */\n      tag_474\n        /* \"#utility.yul\":22458:22462   */\n      dup2\n        /* \"#utility.yul\":22332:22463   */\n      tag_254\n      jump\t// in\n    tag_474:\n        /* \"#utility.yul\":22324:22463   */\n      swap1\n      pop\n        /* \"#utility.yul\":22051:22470   */\n      swap2\n      swap1\n      pop\n      jump\t// out\n        /* \"#utility.yul\":22476:22646   */\n    tag_255:\n        /* \"#utility.yul\":22616:22638   */\n      0x496e76616c69642043616e646964617465206964000000000000000000000000\n        /* \"#utility.yul\":22612:22613   */\n      0x00\n        /* \"#utility.yul\":22604:22610   */\n      dup3\n        /* \"#utility.yul\":22600:22614   */\n      add\n        /* \"#utility.yul\":22593:22639   */\n      mstore\n        /* \"#utility.yul\":22476:22646   */\n      pop\n      jump\t// out\n        /* \"#utility.yul\":22652:23018   */\n    tag_256:\n        /* \"#utility.yul\":22794:22797   */\n      0x00\n        /* \"#utility.yul\":22815:22882   */\n      tag_477\n        /* \"#utility.yul\":22879:22881   */\n      0x14\n        /* \"#utility.yul\":22874:22877   */\n      dup4\n        /* \"#utility.yul\":22815:22882   */\n      tag_209\n      jump\t// in\n    tag_477:\n        /* \"#utility.yul\":22808:22882   */\n      swap2\n      pop\n        /* \"#utility.yul\":22891:22984   */\n      tag_478\n        /* \"#utility.yul\":22980:22983   */\n      dup3\n        /* \"#utility.yul\":22891:22984   */\n      tag_255\n      jump\t// in\n    tag_478:\n        /* \"#utility.yul\":23009:23011   */\n      0x20\n        /* \"#utility.yul\":23004:23007   */\n      dup3\n        /* \"#utility.yul\":23000:23012   */\n      add\n        /* \"#utility.yul\":22993:23012   */\n      swap1\n      pop\n        /* \"#utility.yul\":22652:23018   */\n      swap2\n      swap1\n      pop\n      jump\t// out\n        /* \"#utility.yul\":23024:23443   */\n    tag_95:\n        /* \"#utility.yul\":23190:23194   */\n      0x00\n        /* \"#utility.yul\":23228:23230   */\n      0x20\n        /* \"#utility.yul\":23217:23226   */\n      dup3\n        /* \"#utility.yul\":23213:23231   */\n      add\n        /* \"#utility.yul\":23205:23231   */\n      swap1\n      pop\n        /* \"#utility.yul\":23277:23286   */\n      dup2\n        /* \"#utility.yul\":23271:23275   */\n      dup2\n        /* \"#utility.yul\":23267:23287   */\n      sub\n        /* \"#utility.yul\":23263:23264   */\n      0x00\n        /* \"#utility.yul\":23252:23261   */\n      dup4\n        /* \"#utility.yul\":23248:23265   */\n      add\n        /* \"#utility.yul\":23241:23288   */\n      mstore\n        /* \"#utility.yul\":23305:23436   */\n      tag_480\n        /* \"#utility.yul\":23431:23435   */\n      dup2\n        /* \"#utility.yul\":23305:23436   */\n      tag_256\n      jump\t// in\n    tag_480:\n        /* \"#utility.yul\":23297:23436   */\n      swap1\n      pop\n        /* \"#utility.yul\":23024:23443   */\n      swap2\n      swap1\n      pop\n      jump\t// out\n        /* \"#utility.yul\":23449:23682   */\n    tag_97:\n        /* \"#utility.yul\":23488:23491   */\n      0x00\n        /* \"#utility.yul\":23511:23535   */\n      tag_482\n        /* \"#utility.yul\":23529:23534   */\n      dup3\n        /* \"#utility.yul\":23511:23535   */\n      tag_205\n      jump\t// in\n    tag_482:\n        /* \"#utility.yul\":23502:23535   */\n      swap2\n      pop\n        /* \"#utility.yul\":23557:23623   */\n      0xffffffffffffffffffffffffffffffffffffffffffffffffffffffffffffffff\n        /* \"#utility.yul\":23550:23555   */\n      dup3\n        /* \"#utility.yul\":23547:23624   */\n      sub\n        /* \"#utility.yul\":23544:23647   */\n      tag_483\n      jumpi\n        /* \"#utility.yul\":23627:23645   */\n      tag_484\n      tag_252\n      jump\t// in\n    tag_484:\n        /* \"#utility.yul\":23544:23647   */\n    tag_483:\n        /* \"#utility.yul\":23674:23675   */\n      0x01\n        /* \"#utility.yul\":23667:23672   */\n      dup3\n        /* \"#utility.yul\":23663:23676   */\n      add\n        /* \"#utility.yul\":23656:23676   */\n      swap1\n      pop\n        /* \"#utility.yul\":23449:23682   */\n      swap2\n      swap1\n      pop\n      jump\t// out\n        /* \"#utility.yul\":23688:23882   */\n    tag_100:\n        /* \"#utility.yul\":23728:23732   */\n      0x00\n        /* \"#utility.yul\":23748:23768   */\n      tag_486\n        /* \"#utility.yul\":23766:23767   */\n      dup3\n        /* \"#utility.yul\":23748:23768   */\n      tag_205\n      jump\t// in\n    tag_486:\n        /* \"#utility.yul\":23743:23768   */\n      swap2\n      pop\n        /* \"#utility.yul\":23782:23802   */\n      tag_487\n        /* \"#utility.yul\":23800:23801   */\n      dup4\n        /* \"#utility.yul\":23782:23802   */\n      tag_205\n      jump\t// in\n    tag_487:\n        /* \"#utility.yul\":23777:23802   */\n      swap3\n      pop\n        /* \"#utility.yul\":23826:23827   */\n      dup3\n        /* \"#utility.yul\":23823:23824   */\n      dup3\n        /* \"#utility.yul\":23819:23828   */\n      sub\n        /* \"#utility.yul\":23811:23828   */\n      swap1\n      pop\n        /* \"#utility.yul\":23850:23851   */\n      dup2\n        /* \"#utility.yul\":23844:23848   */\n      dup2\n        /* \"#utility.yul\":23841:23852   */\n      gt\n        /* \"#utility.yul\":23838:23875   */\n      iszero\n      tag_488\n      jumpi\n        /* \"#utility.yul\":23855:23873   */\n      tag_489\n      tag_252\n      jump\t// in\n    tag_489:\n        /* \"#utility.yul\":23838:23875   */\n    tag_488:\n        /* \"#utility.yul\":23688:23882   */\n      swap3\n      swap2\n      pop\n      pop\n      jump\t// out\n        /* \"#utility.yul\":23888:24068   */\n    tag_119:\n        /* \"#utility.yul\":23936:24013   */\n      0x4e487b7100000000000000000000000000000000000000000000000000000000\n        /* \"#utility.yul\":23933:23934   */\n      0x00\n        /* \"#utility.yul\":23926:24014   */\n      mstore\n        /* \"#utility.yul\":24033:24037   */\n      0x32\n        /* \"#utility.yul\":24030:24031   */\n      0x04\n        /* \"#utility.yul\":24023:24038   */\n      mstore\n        /* \"#utility.yul\":24057:24061   */\n      0x24\n        /* \"#utility.yul\":24054:24055   */\n      0x00\n        /* \"#utility.yul\":24047:24062   */\n      revert\n        /* \"#utility.yul\":24074:24250   */\n    tag_257:\n        /* \"#utility.yul\":24214:24242   */\n      0x4164647265737320416c72656164792072656769737465726564000000000000\n        /* \"#utility.yul\":24210:24211   */\n      0x00\n        /* \"#utility.yul\":24202:24208   */\n      dup3\n        /* \"#utility.yul\":24198:24212   */\n      add\n        /* \"#utility.yul\":24191:24243   */\n      mstore\n        /* \"#utility.yul\":24074:24250   */\n      pop\n      jump\t// out\n        /* \"#utility.yul\":24256:24622   */\n    tag_258:\n        /* \"#utility.yul\":24398:24401   */\n      0x00\n        /* \"#utility.yul\":24419:24486   */\n      tag_493\n        /* \"#utility.yul\":24483:24485   */\n      0x1a\n        /* \"#utility.yul\":24478:24481   */\n      dup4\n        /* \"#utility.yul\":24419:24486   */\n      tag_209\n      jump\t// in\n    tag_493:\n        /* \"#utility.yul\":24412:24486   */\n      swap2\n      pop\n        /* \"#utility.yul\":24495:24588   */\n      tag_494\n        /* \"#utility.yul\":24584:24587   */\n      dup3\n        /* \"#utility.yul\":24495:24588   */\n      tag_257\n      jump\t// in\n    tag_494:\n        /* \"#utility.yul\":24613:24615   */\n      0x20\n        /* \"#utility.yul\":24608:24611   */\n      dup3\n        /* \"#utility.yul\":24604:24616   */\n      add\n        /* \"#utility.yul\":24597:24616   */\n      swap1\n      pop\n        /* \"#utility.yul\":24256:24622   */\n      swap2\n      swap1\n      pop\n      jump\t// out\n        /* \"#utility.yul\":24628:25047   */\n    tag_147:\n        /* \"#utility.yul\":24794:24798   */\n      0x00\n        /* \"#utility.yul\":24832:24834   */\n      0x20\n        /* \"#utility.yul\":24821:24830   */\n      dup3\n        /* \"#utility.yul\":24817:24835   */\n      add\n        /* \"#utility.yul\":24809:24835   */\n      swap1\n      pop\n        /* \"#utility.yul\":24881:24890   */\n      dup2\n        /* \"#utility.yul\":24875:24879   */\n      dup2\n        /* \"#utility.yul\":24871:24891   */\n      sub\n        /* \"#utility.yul\":24867:24868   */\n      0x00\n        /* \"#utility.yul\":24856:24865   */\n      dup4\n        /* \"#utility.yul\":24852:24869   */\n      add\n        /* \"#utility.yul\":24845:24892   */\n      mstore\n        /* \"#utility.yul\":24909:25040   */\n      tag_496\n        /* \"#utility.yul\":25035:25039   */\n      dup2\n        /* \"#utility.yul\":24909:25040   */\n      tag_258\n      jump\t// in\n    tag_496:\n        /* \"#utility.yul\":24901:25040   */\n      swap1\n      pop\n        /* \"#utility.yul\":24628:25047   */\n      swap2\n      swap1\n      pop\n      jump\t// out\n        /* \"#utility.yul\":25053:25226   */\n    tag_259:\n        /* \"#utility.yul\":25193:25218   */\n      0x436e696320416c72656164792072656769737465726564000000000000000000\n        /* \"#utility.yul\":25189:25190   */\n      0x00\n        /* \"#utility.yul\":25181:25187   */\n      dup3\n        /* \"#utility.yul\":25177:25191   */\n      add\n        /* \"#utility.yul\":25170:25219   */\n      mstore\n        /* \"#utility.yul\":25053:25226   */\n      pop\n      jump\t// out\n        /* \"#utility.yul\":25232:25598   */\n    tag_260:\n        /* \"#utility.yul\":25374:25377   */\n      0x00\n        /* \"#utility.yul\":25395:25462   */\n      tag_499\n        /* \"#utility.yul\":25459:25461   */\n      0x17\n        /* \"#utility.yul\":25454:25457   */\n      dup4\n        /* \"#utility.yul\":25395:25462   */\n      tag_209\n      jump\t// in\n    tag_499:\n        /* \"#utility.yul\":25388:25462   */\n      swap2\n      pop\n        /* \"#utility.yul\":25471:25564   */\n      tag_500\n        /* \"#utility.yul\":25560:25563   */\n      dup3\n        /* \"#utility.yul\":25471:25564   */\n      tag_259\n      jump\t// in\n    tag_500:\n        /* \"#utility.yul\":25589:25591   */\n      0x20\n        /* \"#utility.yul\":25584:25587   */\n      dup3\n        /* \"#utility.yul\":25580:25592   */\n      add\n        /* \"#utility.yul\":25573:25592   */\n      swap1\n      pop\n        /* \"#utility.yul\":25232:25598   */\n      swap2\n      swap1\n      pop\n      jump\t// out\n        /* \"#utility.yul\":25604:26023   */\n    tag_151:\n        /* \"#utility.yul\":25770:25774   */\n      0x00\n        /* \"#utility.yul\":25808:25810   */\n      0x20\n        /* \"#utility.yul\":25797:25806   */\n      dup3\n        /* \"#utility.yul\":25793:25811   */\n      add\n        /* \"#utility.yul\":25785:25811   */\n      swap1\n      pop\n        /* \"#utility.yul\":25857:25866   */\n      dup2\n        /* \"#utility.yul\":25851:25855   */\n      dup2\n        /* \"#utility.yul\":25847:25867   */\n      sub\n        /* \"#utility.yul\":25843:25844   */\n      0x00\n        /* \"#utility.yul\":25832:25841   */\n      dup4\n        /* \"#utility.yul\":25828:25845   */\n      add\n        /* \"#utility.yul\":25821:25868   */\n      mstore\n        /* \"#utility.yul\":25885:26016   */\n      tag_502\n        /* \"#utility.yul\":26011:26015   */\n      dup2\n        /* \"#utility.yul\":25885:26016   */\n      tag_260\n      jump\t// in\n    tag_502:\n        /* \"#utility.yul\":25877:26016   */\n      swap1\n      pop\n        /* \"#utility.yul\":25604:26023   */\n      swap2\n      swap1\n      pop\n      jump\t// out\n        /* \"#utility.yul\":26029:26170   */\n    tag_261:\n        /* \"#utility.yul\":26078:26082   */\n      0x00\n        /* \"#utility.yul\":26101:26104   */\n      dup2\n        /* \"#utility.yul\":26093:26104   */\n      swap1\n      pop\n        /* \"#utility.yul\":26124:26127   */\n      dup2\n        /* \"#utility.yul\":26121:26122   */\n      0x00\n        /* \"#utility.yul\":26114:26128   */\n      mstore\n        /* \"#utility.yul\":26158:26162   */\n      0x20\n        /* \"#utility.yul\":26155:26156   */\n      0x00\n        /* \"#utility.yul\":26145:26163   */\n      keccak256\n        /* \"#utility.yul\":26137:26163   */\n      swap1\n      pop\n        /* \"#utility.yul\":26029:26170   */\n      swap2\n      swap1\n      pop\n      jump\t// out\n        /* \"#utility.yul\":26176:26269   */\n    tag_262:\n        /* \"#utility.yul\":26213:26219   */\n      0x00\n        /* \"#utility.yul\":26260:26262   */\n      0x20\n        /* \"#utility.yul\":26255:26257   */\n      0x1f\n        /* \"#utility.yul\":26248:26253   */\n      dup4\n        /* \"#utility.yul\":26244:26258   */\n      add\n        /* \"#utility.yul\":26240:26263   */\n      div\n        /* \"#utility.yul\":26230:26263   */\n      swap1\n      pop\n        /* \"#utility.yul\":26176:26269   */\n      swap2\n      swap1\n      pop\n      jump\t// out\n        /* \"#utility.yul\":26275:26382   */\n    tag_263:\n        /* \"#utility.yul\":26319:26327   */\n      0x00\n        /* \"#utility.yul\":26369:26374   */\n      dup3\n        /* \"#utility.yul\":26363:26367   */\n      dup3\n        /* \"#utility.yul\":26359:26375   */\n      shl\n        /* \"#utility.yul\":26338:26375   */\n      swap1\n      pop\n        /* \"#utility.yul\":26275:26382   */\n      swap3\n      swap2\n      pop\n      pop\n      jump\t// out\n        /* \"#utility.yul\":26388:26781   */\n    tag_264:\n        /* \"#utility.yul\":26457:26463   */\n      0x00\n        /* \"#utility.yul\":26507:26508   */\n      0x08\n        /* \"#utility.yul\":26495:26505   */\n      dup4\n        /* \"#utility.yul\":26491:26509   */\n      mul\n        /* \"#utility.yul\":26530:26627   */\n      tag_507\n        /* \"#utility.yul\":26560:26626   */\n      0xffffffffffffffffffffffffffffffffffffffffffffffffffffffffffffffff\n        /* \"#utility.yul\":26549:26558   */\n      dup3\n        /* \"#utility.yul\":26530:26627   */\n      tag_263\n      jump\t// in\n    tag_507:\n        /* \"#utility.yul\":26648:26687   */\n      tag_508\n        /* \"#utility.yul\":26678:26686   */\n      dup7\n        /* \"#utility.yul\":26667:26676   */\n      dup4\n        /* \"#utility.yul\":26648:26687   */\n      tag_263\n      jump\t// in\n    tag_508:\n        /* \"#utility.yul\":26636:26687   */\n      swap6\n      pop\n        /* \"#utility.yul\":26720:26724   */\n      dup1\n        /* \"#utility.yul\":26716:26725   */\n      not\n        /* \"#utility.yul\":26709:26714   */\n      dup5\n        /* \"#utility.yul\":26705:26726   */\n      and\n        /* \"#utility.yul\":26696:26726   */\n      swap4\n      pop\n        /* \"#utility.yul\":26769:26773   */\n      dup1\n        /* \"#utility.yul\":26759:26767   */\n      dup7\n        /* \"#utility.yul\":26755:26774   */\n      and\n        /* \"#utility.yul\":26748:26753   */\n      dup5\n        /* \"#utility.yul\":26745:26775   */\n      or\n        /* \"#utility.yul\":26735:26775   */\n      swap3\n      pop\n        /* \"#utility.yul\":26464:26781   */\n      pop\n      pop\n        /* \"#utility.yul\":26388:26781   */\n      swap4\n      swap3\n      pop\n      pop\n      pop\n      jump\t// out\n        /* \"#utility.yul\":26787:26847   */\n    tag_265:\n        /* \"#utility.yul\":26815:26818   */\n      0x00\n        /* \"#utility.yul\":26836:26841   */\n      dup2\n        /* \"#utility.yul\":26829:26841   */\n      swap1\n      pop\n        /* \"#utility.yul\":26787:26847   */\n      swap2\n      swap1\n      pop\n      jump\t// out\n        /* \"#utility.yul\":26853:26995   */\n    tag_266:\n        /* \"#utility.yul\":26903:26912   */\n      0x00\n        /* \"#utility.yul\":26936:26989   */\n      tag_511\n        /* \"#utility.yul\":26954:26988   */\n      tag_512\n        /* \"#utility.yul\":26963:26987   */\n      tag_513\n        /* \"#utility.yul\":26981:26986   */\n      dup5\n        /* \"#utility.yul\":26963:26987   */\n      tag_205\n      jump\t// in\n    tag_513:\n        /* \"#utility.yul\":26954:26988   */\n      tag_265\n      jump\t// in\n    tag_512:\n        /* \"#utility.yul\":26936:26989   */\n      tag_205\n      jump\t// in\n    tag_511:\n        /* \"#utility.yul\":26923:26989   */\n      swap1\n      pop\n        /* \"#utility.yul\":26853:26995   */\n      swap2\n      swap1\n      pop\n      jump\t// out\n        /* \"#utility.yul\":27001:27076   */\n    tag_267:\n        /* \"#utility.yul\":27044:27047   */\n      0x00\n        /* \"#utility.yul\":27065:27070   */\n      dup2\n        /* \"#utility.yul\":27058:27070   */\n      swap1\n      pop\n        /* \"#utility.yul\":27001:27076   */\n      swap2\n      swap1\n      pop\n      jump\t// out\n        /* \"#utility.yul\":27082:27351   */\n    tag_268:\n        /* \"#utility.yul\":27192:27231   */\n      tag_516\n        /* \"#utility.yul\":27223:27230   */\n      dup4\n        /* \"#utility.yul\":27192:27231   */\n      tag_266\n      jump\t// in\n    tag_516:\n        /* \"#utility.yul\":27253:27344   */\n      tag_517\n        /* \"#utility.yul\":27302:27343   */\n      tag_518\n        /* \"#utility.yul\":27326:27342   */\n      dup3\n        /* \"#utility.yul\":27302:27343   */\n      tag_267\n      jump\t// in\n    tag_518:\n        /* \"#utility.yul\":27294:27300   */\n      dup5\n        /* \"#utility.yul\":27287:27291   */\n      dup5\n        /* \"#utility.yul\":27281:27292   */\n      sload\n        /* \"#utility.yul\":27253:27344   */\n      tag_264\n      jump\t// in\n    tag_517:\n        /* \"#utility.yul\":27247:27251   */\n      dup3\n        /* \"#utility.yul\":27240:27345   */\n      sstore\n        /* \"#utility.yul\":27158:27351   */\n      pop\n        /* \"#utility.yul\":27082:27351   */\n      pop\n      pop\n      pop\n      jump\t// out\n        /* \"#utility.yul\":27357:27430   */\n    tag_269:\n        /* \"#utility.yul\":27402:27405   */\n      0x00\n        /* \"#utility.yul\":27357:27430   */\n      swap1\n      jump\t// out\n        /* \"#utility.yul\":27436:27625   */\n    tag_270:\n        /* \"#utility.yul\":27513:27545   */\n      tag_521\n      tag_269\n      jump\t// in\n    tag_521:\n        /* \"#utility.yul\":27554:27619   */\n      tag_522\n        /* \"#utility.yul\":27612:27618   */\n      dup2\n        /* \"#utility.yul\":27604:27610   */\n      dup5\n        /* \"#utility.yul\":27598:27602   */\n      dup5\n        /* \"#utility.yul\":27554:27619   */\n      tag_268\n      jump\t// in\n    tag_522:\n        /* \"#utility.yul\":27489:27625   */\n      pop\n        /* \"#utility.yul\":27436:27625   */\n      pop\n      pop\n      jump\t// out\n        /* \"#utility.yul\":27631:27817   */\n    tag_271:\n        /* \"#utility.yul\":27691:27811   */\n    tag_524:\n        /* \"#utility.yul\":27708:27711   */\n      dup2\n        /* \"#utility.yul\":27701:27706   */\n      dup2\n        /* \"#utility.yul\":27698:27712   */\n      lt\n        /* \"#utility.yul\":27691:27811   */\n      iszero\n      tag_526\n      jumpi\n        /* \"#utility.yul\":27762:27801   */\n      tag_527\n        /* \"#utility.yul\":27799:27800   */\n      0x00\n        /* \"#utility.yul\":27792:27797   */\n      dup3\n        /* \"#utility.yul\":27762:27801   */\n      tag_270\n      jump\t// in\n    tag_527:\n        /* \"#utility.yul\":27735:27736   */\n      0x01\n        /* \"#utility.yul\":27728:27733   */\n      dup2\n        /* \"#utility.yul\":27724:27737   */\n      add\n        /* \"#utility.yul\":27715:27737   */\n      swap1\n      pop\n        /* \"#utility.yul\":27691:27811   */\n      jump(tag_524)\n    tag_526:\n        /* \"#utility.yul\":27631:27817   */\n      pop\n      pop\n      jump\t// out\n        /* \"#utility.yul\":27823:28366   */\n    tag_272:\n        /* \"#utility.yul\":27924:27926   */\n      0x1f\n        /* \"#utility.yul\":27919:27922   */\n      dup3\n        /* \"#utility.yul\":27916:27927   */\n      gt\n        /* \"#utility.yul\":27913:28359   */\n      iszero\n      tag_529\n      jumpi\n        /* \"#utility.yul\":27958:27996   */\n      tag_530\n        /* \"#utility.yul\":27990:27995   */\n      dup2\n        /* \"#utility.yul\":27958:27996   */\n      tag_261\n      jump\t// in\n    tag_530:\n        /* \"#utility.yul\":28042:28071   */\n      tag_531\n        /* \"#utility.yul\":28060:28070   */\n      dup5\n        /* \"#utility.yul\":28042:28071   */\n      tag_262\n      jump\t// in\n    tag_531:\n        /* \"#utility.yul\":28032:28040   */\n      dup2\n        /* \"#utility.yul\":28028:28072   */\n      add\n        /* \"#utility.yul\":28225:28227   */\n      0x20\n        /* \"#utility.yul\":28213:28223   */\n      dup6\n        /* \"#utility.yul\":28210:28228   */\n      lt\n        /* \"#utility.yul\":28207:28256   */\n      iszero\n      tag_532\n      jumpi\n        /* \"#utility.yul\":28246:28254   */\n      dup2\n        /* \"#utility.yul\":28231:28254   */\n      swap1\n      pop\n        /* \"#utility.yul\":28207:28256   */\n    tag_532:\n        /* \"#utility.yul\":28269:28349   */\n      tag_533\n        /* \"#utility.yul\":28325:28347   */\n      tag_534\n        /* \"#utility.yul\":28343:28346   */\n      dup6\n        /* \"#utility.yul\":28325:28347   */\n      tag_262\n      jump\t// in\n    tag_534:\n        /* \"#utility.yul\":28315:28323   */\n      dup4\n        /* \"#utility.yul\":28311:28348   */\n      add\n        /* \"#utility.yul\":28298:28309   */\n      dup3\n        /* \"#utility.yul\":28269:28349   */\n      tag_271\n      jump\t// in\n    tag_533:\n        /* \"#utility.yul\":27928:28359   */\n      pop\n      pop\n        /* \"#utility.yul\":27913:28359   */\n    tag_529:\n        /* \"#utility.yul\":27823:28366   */\n      pop\n      pop\n      pop\n      jump\t// out\n        /* \"#utility.yul\":28372:28489   */\n    tag_273:\n        /* \"#utility.yul\":28426:28434   */\n      0x00\n        /* \"#utility.yul\":28476:28481   */\n      dup3\n        /* \"#utility.yul\":28470:28474   */\n      dup3\n        /* \"#utility.yul\":28466:28482   */\n      shr\n        /* \"#utility.yul\":28445:28482   */\n      swap1\n      pop\n        /* \"#utility.yul\":28372:28489   */\n      swap3\n      swap2\n      pop\n      pop\n      jump\t// out\n        /* \"#utility.yul\":28495:28664   */\n    tag_274:\n        /* \"#utility.yul\":28539:28545   */\n      0x00\n        /* \"#utility.yul\":28572:28623   */\n      tag_537\n        /* \"#utility.yul\":28620:28621   */\n      0x00\n        /* \"#utility.yul\":28616:28622   */\n      not\n        /* \"#utility.yul\":28608:28613   */\n      dup5\n        /* \"#utility.yul\":28605:28606   */\n      0x08\n        /* \"#utility.yul\":28601:28614   */\n      mul\n        /* \"#utility.yul\":28572:28623   */\n      tag_273\n      jump\t// in\n    tag_537:\n        /* \"#utility.yul\":28568:28624   */\n      not\n        /* \"#utility.yul\":28653:28657   */\n      dup1\n        /* \"#utility.yul\":28647:28651   */\n      dup4\n        /* \"#utility.yul\":28643:28658   */\n      and\n        /* \"#utility.yul\":28633:28658   */\n      swap2\n      pop\n        /* \"#utility.yul\":28546:28664   */\n      pop\n        /* \"#utility.yul\":28495:28664   */\n      swap3\n      swap2\n      pop\n      pop\n      jump\t// out\n        /* \"#utility.yul\":28669:28964   */\n    tag_275:\n        /* \"#utility.yul\":28745:28749   */\n      0x00\n        /* \"#utility.yul\":28891:28920   */\n      tag_539\n        /* \"#utility.yul\":28916:28919   */\n      dup4\n        /* \"#utility.yul\":28910:28914   */\n      dup4\n        /* \"#utility.yul\":28891:28920   */\n      tag_274\n      jump\t// in\n    tag_539:\n        /* \"#utility.yul\":28883:28920   */\n      swap2\n      pop\n        /* \"#utility.yul\":28953:28956   */\n      dup3\n        /* \"#utility.yul\":28950:28951   */\n      0x02\n        /* \"#utility.yul\":28946:28957   */\n      mul\n        /* \"#utility.yul\":28940:28944   */\n      dup3\n        /* \"#utility.yul\":28937:28958   */\n      or\n        /* \"#utility.yul\":28929:28958   */\n      swap1\n      pop\n        /* \"#utility.yul\":28669:28964   */\n      swap3\n      swap2\n      pop\n      pop\n      jump\t// out\n        /* \"#utility.yul\":28969:30364   */\n    tag_153:\n        /* \"#utility.yul\":29086:29123   */\n      tag_541\n        /* \"#utility.yul\":29119:29122   */\n      dup3\n        /* \"#utility.yul\":29086:29123   */\n      tag_208\n      jump\t// in\n    tag_541:\n        /* \"#utility.yul\":29188:29206   */\n      0xffffffffffffffff\n        /* \"#utility.yul\":29180:29186   */\n      dup2\n        /* \"#utility.yul\":29177:29207   */\n      gt\n        /* \"#utility.yul\":29174:29230   */\n      iszero\n      tag_542\n      jumpi\n        /* \"#utility.yul\":29210:29228   */\n      tag_543\n      tag_103\n      jump\t// in\n    tag_543:\n        /* \"#utility.yul\":29174:29230   */\n    tag_542:\n        /* \"#utility.yul\":29254:29292   */\n      tag_544\n        /* \"#utility.yul\":29286:29290   */\n      dup3\n        /* \"#utility.yul\":29280:29291   */\n      sload\n        /* \"#utility.yul\":29254:29292   */\n      tag_75\n      jump\t// in\n    tag_544:\n        /* \"#utility.yul\":29339:29406   */\n      tag_545\n        /* \"#utility.yul\":29399:29405   */\n      dup3\n        /* \"#utility.yul\":29391:29397   */\n      dup3\n        /* \"#utility.yul\":29385:29389   */\n      dup6\n        /* \"#utility.yul\":29339:29406   */\n      tag_272\n      jump\t// in\n    tag_545:\n        /* \"#utility.yul\":29433:29434   */\n      0x00\n        /* \"#utility.yul\":29457:29461   */\n      0x20\n        /* \"#utility.yul\":29444:29461   */\n      swap1\n      pop\n        /* \"#utility.yul\":29489:29491   */\n      0x1f\n        /* \"#utility.yul\":29481:29487   */\n      dup4\n        /* \"#utility.yul\":29478:29492   */\n      gt\n        /* \"#utility.yul\":29506:29507   */\n      0x01\n        /* \"#utility.yul\":29501:30119   */\n      dup2\n      eq\n      tag_547\n      jumpi\n        /* \"#utility.yul\":30163:30164   */\n      0x00\n        /* \"#utility.yul\":30180:30186   */\n      dup5\n        /* \"#utility.yul\":30177:30254   */\n      iszero\n      tag_548\n      jumpi\n        /* \"#utility.yul\":30229:30238   */\n      dup3\n        /* \"#utility.yul\":30224:30227   */\n      dup8\n        /* \"#utility.yul\":30220:30239   */\n      add\n        /* \"#utility.yul\":30214:30240   */\n      mload\n        /* \"#utility.yul\":30205:30240   */\n      swap1\n      pop\n        /* \"#utility.yul\":30177:30254   */\n    tag_548:\n        /* \"#utility.yul\":30280:30347   */\n      tag_549\n        /* \"#utility.yul\":30340:30346   */\n      dup6\n        /* \"#utility.yul\":30333:30338   */\n      dup3\n        /* \"#utility.yul\":30280:30347   */\n      tag_275\n      jump\t// in\n    tag_549:\n        /* \"#utility.yul\":30274:30278   */\n      dup7\n        /* \"#utility.yul\":30267:30348   */\n      sstore\n        /* \"#utility.yul\":30136:30358   */\n      pop\n        /* \"#utility.yul\":29471:30358   */\n      jump(tag_546)\n        /* \"#utility.yul\":29501:30119   */\n    tag_547:\n        /* \"#utility.yul\":29553:29557   */\n      0x1f\n        /* \"#utility.yul\":29549:29558   */\n      not\n        /* \"#utility.yul\":29541:29547   */\n      dup5\n        /* \"#utility.yul\":29537:29559   */\n      and\n        /* \"#utility.yul\":29587:29624   */\n      tag_550\n        /* \"#utility.yul\":29619:29623   */\n      dup7\n        /* \"#utility.yul\":29587:29624   */\n      tag_261\n      jump\t// in\n    tag_550:\n        /* \"#utility.yul\":29646:29647   */\n      0x00\n        /* \"#utility.yul\":29660:29868   */\n    tag_551:\n        /* \"#utility.yul\":29674:29681   */\n      dup3\n        /* \"#utility.yul\":29671:29672   */\n      dup2\n        /* \"#utility.yul\":29668:29682   */\n      lt\n        /* \"#utility.yul\":29660:29868   */\n      iszero\n      tag_553\n      jumpi\n        /* \"#utility.yul\":29753:29762   */\n      dup5\n        /* \"#utility.yul\":29748:29751   */\n      dup10\n        /* \"#utility.yul\":29744:29763   */\n      add\n        /* \"#utility.yul\":29738:29764   */\n      mload\n        /* \"#utility.yul\":29730:29736   */\n      dup3\n        /* \"#utility.yul\":29723:29765   */\n      sstore\n        /* \"#utility.yul\":29804:29805   */\n      0x01\n        /* \"#utility.yul\":29796:29802   */\n      dup3\n        /* \"#utility.yul\":29792:29806   */\n      add\n        /* \"#utility.yul\":29782:29806   */\n      swap2\n      pop\n        /* \"#utility.yul\":29851:29853   */\n      0x20\n        /* \"#utility.yul\":29840:29849   */\n      dup6\n        /* \"#utility.yul\":29836:29854   */\n      add\n        /* \"#utility.yul\":29823:29854   */\n      swap5\n      pop\n        /* \"#utility.yul\":29697:29701   */\n      0x20\n        /* \"#utility.yul\":29694:29695   */\n      dup2\n        /* \"#utility.yul\":29690:29702   */\n      add\n        /* \"#utility.yul\":29685:29702   */\n      swap1\n      pop\n        /* \"#utility.yul\":29660:29868   */\n      jump(tag_551)\n    tag_553:\n        /* \"#utility.yul\":29896:29902   */\n      dup7\n        /* \"#utility.yul\":29887:29894   */\n      dup4\n        /* \"#utility.yul\":29884:29903   */\n      lt\n        /* \"#utility.yul\":29881:30060   */\n      iszero\n      tag_554\n      jumpi\n        /* \"#utility.yul\":29954:29963   */\n      dup5\n        /* \"#utility.yul\":29949:29952   */\n      dup10\n        /* \"#utility.yul\":29945:29964   */\n      add\n        /* \"#utility.yul\":29939:29965   */\n      mload\n        /* \"#utility.yul\":29997:30045   */\n      tag_555\n        /* \"#utility.yul\":30039:30043   */\n      0x1f\n        /* \"#utility.yul\":30031:30037   */\n      dup10\n        /* \"#utility.yul\":30027:30044   */\n      and\n        /* \"#utility.yul\":30016:30025   */\n      dup3\n        /* \"#utility.yul\":29997:30045   */\n      tag_274\n      jump\t// in\n    tag_555:\n        /* \"#utility.yul\":29989:29995   */\n      dup4\n        /* \"#utility.yul\":29982:30046   */\n      sstore\n        /* \"#utility.yul\":29904:30060   */\n      pop\n        /* \"#utility.yul\":29881:30060   */\n    tag_554:\n        /* \"#utility.yul\":30106:30107   */\n      0x01\n        /* \"#utility.yul\":30102:30103   */\n      0x02\n        /* \"#utility.yul\":30094:30100   */\n      dup9\n        /* \"#utility.yul\":30090:30104   */\n      mul\n        /* \"#utility.yul\":30086:30108   */\n      add\n        /* \"#utility.yul\":30080:30084   */\n      dup9\n        /* \"#utility.yul\":30073:30109   */\n      sstore\n        /* \"#utility.yul\":29508:30119   */\n      pop\n      pop\n      pop\n        /* \"#utility.yul\":29471:30358   */\n    tag_546:\n      pop\n        /* \"#utility.yul\":29061:30364   */\n      pop\n      pop\n      pop\n        /* \"#utility.yul\":28969:30364   */\n      pop\n      pop\n      jump\t// out\n        /* \"#utility.yul\":30370:30538   */\n    tag_276:\n        /* \"#utility.yul\":30510:30530   */\n      0x416c726561647920526567697374657265640000000000000000000000000000\n        /* \"#utility.yul\":30506:30507   */\n      0x00\n        /* \"#utility.yul\":30498:30504   */\n      dup3\n        /* \"#utility.yul\":30494:30508   */\n      add\n        /* \"#utility.yul\":30487:30531   */\n      mstore\n        /* \"#utility.yul\":30370:30538   */\n      pop\n      jump\t// out\n        /* \"#utility.yul\":30544:30910   */\n    tag_277:\n        /* \"#utility.yul\":30686:30689   */\n      0x00\n        /* \"#utility.yul\":30707:30774   */\n      tag_558\n        /* \"#utility.yul\":30771:30773   */\n      0x12\n        /* \"#utility.yul\":30766:30769   */\n      dup4\n        /* \"#utility.yul\":30707:30774   */\n      tag_209\n      jump\t// in\n    tag_558:\n        /* \"#utility.yul\":30700:30774   */\n      swap2\n      pop\n        /* \"#utility.yul\":30783:30876   */\n      tag_559\n        /* \"#utility.yul\":30872:30875   */\n      dup3\n        /* \"#utility.yul\":30783:30876   */\n      tag_276\n      jump\t// in\n    tag_559:\n        /* \"#utility.yul\":30901:30903   */\n      0x20\n        /* \"#utility.yul\":30896:30899   */\n      dup3\n        /* \"#utility.yul\":30892:30904   */\n      add\n        /* \"#utility.yul\":30885:30904   */\n      swap1\n      pop\n        /* \"#utility.yul\":30544:30910   */\n      swap2\n      swap1\n      pop\n      jump\t// out\n        /* \"#utility.yul\":30916:31335   */\n    tag_191:\n        /* \"#utility.yul\":31082:31086   */\n      0x00\n        /* \"#utility.yul\":31120:31122   */\n      0x20\n        /* \"#utility.yul\":31109:31118   */\n      dup3\n        /* \"#utility.yul\":31105:31123   */\n      add\n        /* \"#utility.yul\":31097:31123   */\n      swap1\n      pop\n        /* \"#utility.yul\":31169:31178   */\n      dup2\n        /* \"#utility.yul\":31163:31167   */\n      dup2\n        /* \"#utility.yul\":31159:31179   */\n      sub\n        /* \"#utility.yul\":31155:31156   */\n      0x00\n        /* \"#utility.yul\":31144:31153   */\n      dup4\n        /* \"#utility.yul\":31140:31157   */\n      add\n        /* \"#utility.yul\":31133:31180   */\n      mstore\n        /* \"#utility.yul\":31197:31328   */\n      tag_561\n        /* \"#utility.yul\":31323:31327   */\n      dup2\n        /* \"#utility.yul\":31197:31328   */\n      tag_277\n      jump\t// in\n    tag_561:\n        /* \"#utility.yul\":31189:31328   */\n      swap1\n      pop\n        /* \"#utility.yul\":30916:31335   */\n      swap2\n      swap1\n      pop\n      jump\t// out\n\n    auxdata: 0xa264697066735822122005990c8f83bca50ead9079344f52c957064440acd2e1382a5fa9c80f1eba1a8264736f6c63430008120033\n}\n",
				"bytecode": {
					"linkReferences": {},
					"object": "608060405260016002556001600355610e106004554260065534801561002457600080fd5b503373ffffffffffffffffffffffffffffffffffffffff1660008054906101000a905050506121ef806100586000396000f3fe608060405234801561001057600080fd5b50600436106100cf5760003560e01c80639911760a1161008c578063b24aa34e11610066578063b24aa34e14610245578063dfbf53ae14610263578063e9f9141014610281578063eb307f321461029d576100cf565b80639911760a146101d7578063a01ac424146101f3578063a01cb14114610211576100cf565b80630d34f2e2146100d457806333952ef9146101085780634a21ba541461012457806376e810fa1461014257806381a5211614610172578063985be1e9146101a7575b600080fd5b6100ee60048036038101906100e991906112ac565b6102bb565b6040516100ff9594939291906113b9565b60405180910390f35b610122600480360381019061011d9190611413565b610399565b005b61012c61059f565b60405161013991906115f3565b60405180910390f35b61015c60048036038101906101579190611641565b610781565b6040516101699190611689565b60405180910390f35b61018c600480360381019061018791906112ac565b610824565b60405161019e969594939291906116a4565b60405180910390f35b6101c160048036038101906101bc91906112ac565b610990565b6040516101ce9190611689565b60405180910390f35b6101f160048036038101906101ec9190611848565b6109e7565b005b6101fb610c43565b60405161020891906119f6565b60405180910390f35b61022b600480360381019061022691906112ac565b610ebb565b60405161023c9594939291906113b9565b60405180910390f35b61024d610f99565b60405161025a9190611a18565b60405180910390f35b61026b610f9f565b6040516102789190611a33565b60405180910390f35b61029b60048036038101906102969190611a4e565b610fc5565b005b6102a5611128565b6040516102b29190611a18565b60405180910390f35b60076020528060005260406000206000915090508060000180546102de90611b08565b80601f016020809104026020016040519081016040528092919081815260200182805461030a90611b08565b80156103575780601f1061032c57610100808354040283529160200191610357565b820191906000526020600020905b81548152906001019060200180831161033a57829003601f168201915b5050505050908060010154908060020154908060030154908060040160009054906101000a900473ffffffffffffffffffffffffffffffffffffffff16905085565b60006009600083815260200190815260200160002060030154146103f2576040517f08c379a00000000000000000000000000000000000000000000000000000000081526004016103e990611b85565b60405180910390fd5b3373ffffffffffffffffffffffffffffffffffffffff166009600083815260200190815260200160002060040160009054906101000a900473ffffffffffffffffffffffffffffffffffffffff1673ffffffffffffffffffffffffffffffffffffffff1614610496576040517f08c379a000000000000000000000000000000000000000000000000000000000815260040161048d90611bf1565b60405180910390fd5b6006546004546006546104a99190611c40565b116104e9576040517f08c379a00000000000000000000000000000000000000000000000000000000081526004016104e090611cc0565b60405180910390fd5b600354821080156104fa5750600082115b610539576040517f08c379a000000000000000000000000000000000000000000000000000000000815260040161053090611d2c565b60405180910390fd5b60086000838152602001908152602001600020600501600081548092919061056090611d4c565b91905055508160096000838152602001908152602001600020600301819055508160076000838152602001908152602001600020600301819055505050565b6060600060016002546105b29190611d94565b67ffffffffffffffff8111156105cb576105ca61171d565b5b60405190808252806020026020018201604052801561060457816020015b6105f16111d1565b8152602001906001900390816105e95790505b5090506000600190505b60025481101561077957600760008281526020019081526020016000206040518060a001604052908160008201805461064690611b08565b80601f016020809104026020016040519081016040528092919081815260200182805461067290611b08565b80156106bf5780601f10610694576101008083540402835291602001916106bf565b820191906000526020600020905b8154815290600101906020018083116106a257829003601f168201915b505050505081526020016001820154815260200160028201548152602001600382015481526020016004820160009054906101000a900473ffffffffffffffffffffffffffffffffffffffff1673ffffffffffffffffffffffffffffffffffffffff1673ffffffffffffffffffffffffffffffffffffffff16815250508260018361074a9190611d94565b8151811061075b5761075a611dc8565b5b6020026020010181905250808061077190611d4c565b91505061060e565b508091505090565b600080600090505b600254811015610819578273ffffffffffffffffffffffffffffffffffffffff166007600083815260200190815260200160002060040160009054906101000a900473ffffffffffffffffffffffffffffffffffffffff1673ffffffffffffffffffffffffffffffffffffffff160361080657600091505061081f565b808061081190611d4c565b915050610789565b50600190505b919050565b600860205280600052604060002060009150905080600001805461084790611b08565b80601f016020809104026020016040519081016040528092919081815260200182805461087390611b08565b80156108c05780601f10610895576101008083540402835291602001916108c0565b820191906000526020600020905b8154815290600101906020018083116108a357829003601f168201915b5050505050908060010180546108d590611b08565b80601f016020809104026020016040519081016040528092919081815260200182805461090190611b08565b801561094e5780601f106109235761010080835404028352916020019161094e565b820191906000526020600020905b81548152906001019060200180831161093157829003601f168201915b5050505050908060020154908060030154908060040160009054906101000a900473ffffffffffffffffffffffffffffffffffffffff16908060050154905086565b600080600090505b6002548110156109dc57826009600085815260200190815260200160002060010154036109c95760009150506109e2565b80806109d490611d4c565b915050610998565b50600190505b919050565b600115156109f433610781565b151514610a36576040517f08c379a0000000000000000000000000000000000000000000000000000000008152600401610a2d90611e43565b60405180910390fd5b60011515610a4382610990565b151514610a85576040517f08c379a0000000000000000000000000000000000000000000000000000000008152600401610a7c90611eaf565b60405180910390fd5b6040518060a001604052808381526020018281526020016002548152602001600081526020013373ffffffffffffffffffffffffffffffffffffffff16815250600760008381526020019081526020016000206000820151816000019081610aed919061207b565b5060208201518160010155604082015181600201556060820151816003015560808201518160040160006101000a81548173ffffffffffffffffffffffffffffffffffffffff021916908373ffffffffffffffffffffffffffffffffffffffff1602179055509050506040518060a001604052808381526020018281526020016002548152602001600081526020013373ffffffffffffffffffffffffffffffffffffffff16815250600960008381526020019081526020016000206000820151816000019081610bbe919061207b565b5060208201518160010155604082015181600201556060820151816003015560808201518160040160006101000a81548173ffffffffffffffffffffffffffffffffffffffff021916908373ffffffffffffffffffffffffffffffffffffffff16021790555090505060026000815480929190610c3a90611d4c565b91905055505050565b606060006001600354610c569190611d94565b67ffffffffffffffff811115610c6f57610c6e61171d565b5b604051908082528060200260200182016040528015610ca857816020015b610c95611216565b815260200190600190039081610c8d5790505b509050600080600190505b600354811015610eb257600860008281526020019081526020016000206040518060c0016040529081600082018054610ceb90611b08565b80601f0160208091040260200160405190810160405280929190818152602001828054610d1790611b08565b8015610d645780601f10610d3957610100808354040283529160200191610d64565b820191906000526020600020905b815481529060010190602001808311610d4757829003601f168201915b50505050508152602001600182018054610d7d90611b08565b80601f0160208091040260200160405190810160405280929190818152602001828054610da990611b08565b8015610df65780601f10610dcb57610100808354040283529160200191610df6565b820191906000526020600020905b815481529060010190602001808311610dd957829003601f168201915b5050505050815260200160028201548152602001600382015481526020016004820160009054906101000a900473ffffffffffffffffffffffffffffffffffffffff1673ffffffffffffffffffffffffffffffffffffffff1673ffffffffffffffffffffffffffffffffffffffff168152602001600582015481525050838381518110610e8657610e85611dc8565b5b60200260200101819052508180610e9c90611d4c565b9250508080610eaa90611d4c565b915050610cb3565b50819250505090565b6009602052806000526040600020600091509050806000018054610ede90611b08565b80601f0160208091040260200160405190810160405280929190818152602001828054610f0a90611b08565b8015610f575780601f10610f2c57610100808354040283529160200191610f57565b820191906000526020600020905b815481529060010190602001808311610f3a57829003601f168201915b5050505050908060010154908060020154908060030154908060040160009054906101000a900473ffffffffffffffffffffffffffffffffffffffff16905085565b60065481565b600160009054906101000a900473ffffffffffffffffffffffffffffffffffffffff1681565b60011515610fd23361112e565b151514611014576040517f08c379a000000000000000000000000000000000000000000000000000000000815260040161100b90612199565b60405180910390fd5b6040518060c0016040528084815260200183815260200182815260200160035481526020013373ffffffffffffffffffffffffffffffffffffffff1681526020016000815250600860008381526020019081526020016000206000820151816000019081611082919061207b565b506020820151816001019081611098919061207b565b50604082015181600201556060820151816003015560808201518160040160006101000a81548173ffffffffffffffffffffffffffffffffffffffff021916908373ffffffffffffffffffffffffffffffffffffffff16021790555060a082015181600501559050506003600081548092919061111490611d4c565b91905055506111223361112e565b50505050565b60035481565b600080600190505b6003548110156111c6578273ffffffffffffffffffffffffffffffffffffffff166008600083815260200190815260200160002060040160009054906101000a900473ffffffffffffffffffffffffffffffffffffffff1673ffffffffffffffffffffffffffffffffffffffff16036111b35760009150506111cc565b80806111be90611d4c565b915050611136565b50600190505b919050565b6040518060a0016040528060608152602001600081526020016000815260200160008152602001600073ffffffffffffffffffffffffffffffffffffffff1681525090565b6040518060c0016040528060608152602001606081526020016000815260200160008152602001600073ffffffffffffffffffffffffffffffffffffffff168152602001600081525090565b6000604051905090565b600080fd5b600080fd5b6000819050919050565b61128981611276565b811461129457600080fd5b50565b6000813590506112a681611280565b92915050565b6000602082840312156112c2576112c161126c565b5b60006112d084828501611297565b91505092915050565b600081519050919050565b600082825260208201905092915050565b60005b838110156113135780820151818401526020810190506112f8565b60008484015250505050565b6000601f19601f8301169050919050565b600061133b826112d9565b61134581856112e4565b93506113558185602086016112f5565b61135e8161131f565b840191505092915050565b61137281611276565b82525050565b600073ffffffffffffffffffffffffffffffffffffffff82169050919050565b60006113a382611378565b9050919050565b6113b381611398565b82525050565b600060a08201905081810360008301526113d38188611330565b90506113e26020830187611369565b6113ef6040830186611369565b6113fc6060830185611369565b61140960808301846113aa565b9695505050505050565b6000806040838503121561142a5761142961126c565b5b600061143885828601611297565b925050602061144985828601611297565b9150509250929050565b600081519050919050565b600082825260208201905092915050565b6000819050602082019050919050565b600082825260208201905092915050565b600061149b826112d9565b6114a5818561147f565b93506114b58185602086016112f5565b6114be8161131f565b840191505092915050565b6114d281611276565b82525050565b6114e181611398565b82525050565b600060a08301600083015184820360008601526115048282611490565b915050602083015161151960208601826114c9565b50604083015161152c60408601826114c9565b50606083015161153f60608601826114c9565b50608083015161155260808601826114d8565b508091505092915050565b600061156983836114e7565b905092915050565b6000602082019050919050565b600061158982611453565b611593818561145e565b9350836020820285016115a58561146f565b8060005b858110156115e157848403895281516115c2858261155d565b94506115cd83611571565b925060208a019950506001810190506115a9565b50829750879550505050505092915050565b6000602082019050818103600083015261160d818461157e565b905092915050565b61161e81611398565b811461162957600080fd5b50565b60008135905061163b81611615565b92915050565b6000602082840312156116575761165661126c565b5b60006116658482850161162c565b91505092915050565b60008115159050919050565b6116838161166e565b82525050565b600060208201905061169e600083018461167a565b92915050565b600060c08201905081810360008301526116be8189611330565b905081810360208301526116d28188611330565b90506116e16040830187611369565b6116ee6060830186611369565b6116fb60808301856113aa565b61170860a0830184611369565b979650505050505050565b600080fd5b600080fd5b7f4e487b7100000000000000000000000000000000000000000000000000000000600052604160045260246000fd5b6117558261131f565b810181811067ffffffffffffffff821117156117745761177361171d565b5b80604052505050565b6000611787611262565b9050611793828261174c565b919050565b600067ffffffffffffffff8211156117b3576117b261171d565b5b6117bc8261131f565b9050602081019050919050565b82818337600083830152505050565b60006117eb6117e684611798565b61177d565b90508281526020810184848401111561180757611806611718565b5b6118128482856117c9565b509392505050565b600082601f83011261182f5761182e611713565b5b813561183f8482602086016117d8565b91505092915050565b6000806040838503121561185f5761185e61126c565b5b600083013567ffffffffffffffff81111561187d5761187c611271565b5b6118898582860161181a565b925050602061189a85828601611297565b9150509250929050565b600081519050919050565b600082825260208201905092915050565b6000819050602082019050919050565b600060c08301600083015184820360008601526118ed8282611490565b915050602083015184820360208601526119078282611490565b915050604083015161191c60408601826114c9565b50606083015161192f60608601826114c9565b50608083015161194260808601826114d8565b5060a083015161195560a08601826114c9565b508091505092915050565b600061196c83836118d0565b905092915050565b6000602082019050919050565b600061198c826118a4565b61199681856118af565b9350836020820285016119a8856118c0565b8060005b858110156119e457848403895281516119c58582611960565b94506119d083611974565b925060208a019950506001810190506119ac565b50829750879550505050505092915050565b60006020820190508181036000830152611a108184611981565b905092915050565b6000602082019050611a2d6000830184611369565b92915050565b6000602082019050611a4860008301846113aa565b92915050565b600080600060608486031215611a6757611a6661126c565b5b600084013567ffffffffffffffff811115611a8557611a84611271565b5b611a918682870161181a565b935050602084013567ffffffffffffffff811115611ab257611ab1611271565b5b611abe8682870161181a565b9250506040611acf86828701611297565b9150509250925092565b7f4e487b7100000000000000000000000000000000000000000000000000000000600052602260045260246000fd5b60006002820490506001821680611b2057607f821691505b602082108103611b3357611b32611ad9565b5b50919050565b7f416c726561647920566f74657300000000000000000000000000000000000000600082015250565b6000611b6f600d836112e4565b9150611b7a82611b39565b602082019050919050565b60006020820190508181036000830152611b9e81611b62565b9050919050565b7f596f7520617265206e6f74206120766f74657200000000000000000000000000600082015250565b6000611bdb6013836112e4565b9150611be682611ba5565b602082019050919050565b60006020820190508181036000830152611c0a81611bce565b9050919050565b7f4e487b7100000000000000000000000000000000000000000000000000000000600052601160045260246000fd5b6000611c4b82611276565b9150611c5683611276565b9250828201905080821115611c6e57611c6d611c11565b5b92915050565b7f566f74696e67206e6f7420737461727465640000000000000000000000000000600082015250565b6000611caa6012836112e4565b9150611cb582611c74565b602082019050919050565b60006020820190508181036000830152611cd981611c9d565b9050919050565b7f496e76616c69642043616e646964617465206964000000000000000000000000600082015250565b6000611d166014836112e4565b9150611d2182611ce0565b602082019050919050565b60006020820190508181036000830152611d4581611d09565b9050919050565b6000611d5782611276565b91507fffffffffffffffffffffffffffffffffffffffffffffffffffffffffffffffff8203611d8957611d88611c11565b5b600182019050919050565b6000611d9f82611276565b9150611daa83611276565b9250828203905081811115611dc257611dc1611c11565b5b92915050565b7f4e487b7100000000000000000000000000000000000000000000000000000000600052603260045260246000fd5b7f4164647265737320416c72656164792072656769737465726564000000000000600082015250565b6000611e2d601a836112e4565b9150611e3882611df7565b602082019050919050565b60006020820190508181036000830152611e5c81611e20565b9050919050565b7f436e696320416c72656164792072656769737465726564000000000000000000600082015250565b6000611e996017836112e4565b9150611ea482611e63565b602082019050919050565b60006020820190508181036000830152611ec881611e8c565b9050919050565b60008190508160005260206000209050919050565b60006020601f8301049050919050565b600082821b905092915050565b600060088302611f317fffffffffffffffffffffffffffffffffffffffffffffffffffffffffffffffff82611ef4565b611f3b8683611ef4565b95508019841693508086168417925050509392505050565b6000819050919050565b6000611f78611f73611f6e84611276565b611f53565b611276565b9050919050565b6000819050919050565b611f9283611f5d565b611fa6611f9e82611f7f565b848454611f01565b825550505050565b600090565b611fbb611fae565b611fc6818484611f89565b505050565b5b81811015611fea57611fdf600082611fb3565b600181019050611fcc565b5050565b601f82111561202f5761200081611ecf565b61200984611ee4565b81016020851015612018578190505b61202c61202485611ee4565b830182611fcb565b50505b505050565b600082821c905092915050565b600061205260001984600802612034565b1980831691505092915050565b600061206b8383612041565b9150826002028217905092915050565b612084826112d9565b67ffffffffffffffff81111561209d5761209c61171d565b5b6120a78254611b08565b6120b2828285611fee565b600060209050601f8311600181146120e557600084156120d3578287015190505b6120dd858261205f565b865550612145565b601f1984166120f386611ecf565b60005b8281101561211b578489015182556001820191506020850194506020810190506120f6565b868310156121385784890151612134601f891682612041565b8355505b6001600288020188555050505b505050505050565b7f416c726561647920526567697374657265640000000000000000000000000000600082015250565b60006121836012836112e4565b915061218e8261214d565b602082019050919050565b600060208201905081810360008301526121b281612176565b905091905056fea264697066735822122005990c8f83bca50ead9079344f52c957064440acd2e1382a5fa9c80f1eba1a8264736f6c63430008120033",
					"opcodes": "PUSH1 0x80 PUSH1 0x40 MSTORE PUSH1 0x1 PUSH1 0x2 SSTORE PUSH1 0x1 PUSH1 0x3 SSTORE PUSH2 0xE10 PUSH1 0x4 SSTORE TIMESTAMP PUSH1 0x6 SSTORE CALLVALUE DUP1 ISZERO PUSH2 0x24 JUMPI PUSH1 0x0 DUP1 REVERT JUMPDEST POP CALLER PUSH20 0xFFFFFFFFFFFFFFFFFFFFFFFFFFFFFFFFFFFFFFFF AND PUSH1 0x0 DUP1 SLOAD SWAP1 PUSH2 0x100 EXP SWAP1 POP POP POP PUSH2 0x21EF DUP1 PUSH2 0x58 PUSH1 0x0 CODECOPY PUSH1 0x0 RETURN INVALID PUSH1 0x80 PUSH1 0x40 MSTORE CALLVALUE DUP1 ISZERO PUSH2 0x10 JUMPI PUSH1 0x0 DUP1 REVERT JUMPDEST POP PUSH1 0x4 CALLDATASIZE LT PUSH2 0xCF JUMPI PUSH1 0x0 CALLDATALOAD PUSH1 0xE0 SHR DUP1 PUSH4 0x9911760A GT PUSH2 0x8C JUMPI DUP1 PUSH4 0xB24AA34E GT PUSH2 0x66 JUMPI DUP1 PUSH4 0xB24AA34E EQ PUSH2 0x245 JUMPI DUP1 PUSH4 0xDFBF53AE EQ PUSH2 0x263 JUMPI DUP1 PUSH4 0xE9F91410 EQ PUSH2 0x281 JUMPI DUP1 PUSH4 0xEB307F32 EQ PUSH2 0x29D JUMPI PUSH2 0xCF JUMP JUMPDEST DUP1 PUSH4 0x9911760A EQ PUSH2 0x1D7 JUMPI DUP1 PUSH4 0xA01AC424 EQ PUSH2 0x1F3 JUMPI DUP1 PUSH4 0xA01CB141 EQ PUSH2 0x211 JUMPI PUSH2 0xCF JUMP JUMPDEST DUP1 PUSH4 0xD34F2E2 EQ PUSH2 0xD4 JUMPI DUP1 PUSH4 0x33952EF9 EQ PUSH2 0x108 JUMPI DUP1 PUSH4 0x4A21BA54 EQ PUSH2 0x124 JUMPI DUP1 PUSH4 0x76E810FA EQ PUSH2 0x142 JUMPI DUP1 PUSH4 0x81A52116 EQ PUSH2 0x172 JUMPI DUP1 PUSH4 0x985BE1E9 EQ PUSH2 0x1A7 JUMPI JUMPDEST PUSH1 0x0 DUP1 REVERT JUMPDEST PUSH2 0xEE PUSH1 0x4 DUP1 CALLDATASIZE SUB DUP2 ADD SWAP1 PUSH2 0xE9 SWAP2 SWAP1 PUSH2 0x12AC JUMP JUMPDEST PUSH2 0x2BB JUMP JUMPDEST PUSH1 0x40 MLOAD PUSH2 0xFF SWAP6 SWAP5 SWAP4 SWAP3 SWAP2 SWAP1 PUSH2 0x13B9 JUMP JUMPDEST PUSH1 0x40 MLOAD DUP1 SWAP2 SUB SWAP1 RETURN JUMPDEST PUSH2 0x122 PUSH1 0x4 DUP1 CALLDATASIZE SUB DUP2 ADD SWAP1 PUSH2 0x11D SWAP2 SWAP1 PUSH2 0x1413 JUMP JUMPDEST PUSH2 0x399 JUMP JUMPDEST STOP JUMPDEST PUSH2 0x12C PUSH2 0x59F JUMP JUMPDEST PUSH1 0x40 MLOAD PUSH2 0x139 SWAP2 SWAP1 PUSH2 0x15F3 JUMP JUMPDEST PUSH1 0x40 MLOAD DUP1 SWAP2 SUB SWAP1 RETURN JUMPDEST PUSH2 0x15C PUSH1 0x4 DUP1 CALLDATASIZE SUB DUP2 ADD SWAP1 PUSH2 0x157 SWAP2 SWAP1 PUSH2 0x1641 JUMP JUMPDEST PUSH2 0x781 JUMP JUMPDEST PUSH1 0x40 MLOAD PUSH2 0x169 SWAP2 SWAP1 PUSH2 0x1689 JUMP JUMPDEST PUSH1 0x40 MLOAD DUP1 SWAP2 SUB SWAP1 RETURN JUMPDEST PUSH2 0x18C PUSH1 0x4 DUP1 CALLDATASIZE SUB DUP2 ADD SWAP1 PUSH2 0x187 SWAP2 SWAP1 PUSH2 0x12AC JUMP JUMPDEST PUSH2 0x824 JUMP JUMPDEST PUSH1 0x40 MLOAD PUSH2 0x19E SWAP7 SWAP6 SWAP5 SWAP4 SWAP3 SWAP2 SWAP1 PUSH2 0x16A4 JUMP JUMPDEST PUSH1 0x40 MLOAD DUP1 SWAP2 SUB SWAP1 RETURN JUMPDEST PUSH2 0x1C1 PUSH1 0x4 DUP1 CALLDATASIZE SUB DUP2 ADD SWAP1 PUSH2 0x1BC SWAP2 SWAP1 PUSH2 0x12AC JUMP JUMPDEST PUSH2 0x990 JUMP JUMPDEST PUSH1 0x40 MLOAD PUSH2 0x1CE SWAP2 SWAP1 PUSH2 0x1689 JUMP JUMPDEST PUSH1 0x40 MLOAD DUP1 SWAP2 SUB SWAP1 RETURN JUMPDEST PUSH2 0x1F1 PUSH1 0x4 DUP1 CALLDATASIZE SUB DUP2 ADD SWAP1 PUSH2 0x1EC SWAP2 SWAP1 PUSH2 0x1848 JUMP JUMPDEST PUSH2 0x9E7 JUMP JUMPDEST STOP JUMPDEST PUSH2 0x1FB PUSH2 0xC43 JUMP JUMPDEST PUSH1 0x40 MLOAD PUSH2 0x208 SWAP2 SWAP1 PUSH2 0x19F6 JUMP JUMPDEST PUSH1 0x40 MLOAD DUP1 SWAP2 SUB SWAP1 RETURN JUMPDEST PUSH2 0x22B PUSH1 0x4 DUP1 CALLDATASIZE SUB DUP2 ADD SWAP1 PUSH2 0x226 SWAP2 SWAP1 PUSH2 0x12AC JUMP JUMPDEST PUSH2 0xEBB JUMP JUMPDEST PUSH1 0x40 MLOAD PUSH2 0x23C SWAP6 SWAP5 SWAP4 SWAP3 SWAP2 SWAP1 PUSH2 0x13B9 JUMP JUMPDEST PUSH1 0x40 MLOAD DUP1 SWAP2 SUB SWAP1 RETURN JUMPDEST PUSH2 0x24D PUSH2 0xF99 JUMP JUMPDEST PUSH1 0x40 MLOAD PUSH2 0x25A SWAP2 SWAP1 PUSH2 0x1A18 JUMP JUMPDEST PUSH1 0x40 MLOAD DUP1 SWAP2 SUB SWAP1 RETURN JUMPDEST PUSH2 0x26B PUSH2 0xF9F JUMP JUMPDEST PUSH1 0x40 MLOAD PUSH2 0x278 SWAP2 SWAP1 PUSH2 0x1A33 JUMP JUMPDEST PUSH1 0x40 MLOAD DUP1 SWAP2 SUB SWAP1 RETURN JUMPDEST PUSH2 0x29B PUSH1 0x4 DUP1 CALLDATASIZE SUB DUP2 ADD SWAP1 PUSH2 0x296 SWAP2 SWAP1 PUSH2 0x1A4E JUMP JUMPDEST PUSH2 0xFC5 JUMP JUMPDEST STOP JUMPDEST PUSH2 0x2A5 PUSH2 0x1128 JUMP JUMPDEST PUSH1 0x40 MLOAD PUSH2 0x2B2 SWAP2 SWAP1 PUSH2 0x1A18 JUMP JUMPDEST PUSH1 0x40 MLOAD DUP1 SWAP2 SUB SWAP1 RETURN JUMPDEST PUSH1 0x7 PUSH1 0x20 MSTORE DUP1 PUSH1 0x0 MSTORE PUSH1 0x40 PUSH1 0x0 KECCAK256 PUSH1 0x0 SWAP2 POP SWAP1 POP DUP1 PUSH1 0x0 ADD DUP1 SLOAD PUSH2 0x2DE SWAP1 PUSH2 0x1B08 JUMP JUMPDEST DUP1 PUSH1 0x1F ADD PUSH1 0x20 DUP1 SWAP2 DIV MUL PUSH1 0x20 ADD PUSH1 0x40 MLOAD SWAP1 DUP2 ADD PUSH1 0x40 MSTORE DUP1 SWAP3 SWAP2 SWAP1 DUP2 DUP2 MSTORE PUSH1 0x20 ADD DUP3 DUP1 SLOAD PUSH2 0x30A SWAP1 PUSH2 0x1B08 JUMP JUMPDEST DUP1 ISZERO PUSH2 0x357 JUMPI DUP1 PUSH1 0x1F LT PUSH2 0x32C JUMPI PUSH2 0x100 DUP1 DUP4 SLOAD DIV MUL DUP4 MSTORE SWAP2 PUSH1 0x20 ADD SWAP2 PUSH2 0x357 JUMP JUMPDEST DUP3 ADD SWAP2 SWAP1 PUSH1 0x0 MSTORE PUSH1 0x20 PUSH1 0x0 KECCAK256 SWAP1 JUMPDEST DUP2 SLOAD DUP2 MSTORE SWAP1 PUSH1 0x1 ADD SWAP1 PUSH1 0x20 ADD DUP1 DUP4 GT PUSH2 0x33A JUMPI DUP3 SWAP1 SUB PUSH1 0x1F AND DUP3 ADD SWAP2 JUMPDEST POP POP POP POP POP SWAP1 DUP1 PUSH1 0x1 ADD SLOAD SWAP1 DUP1 PUSH1 0x2 ADD SLOAD SWAP1 DUP1 PUSH1 0x3 ADD SLOAD SWAP1 DUP1 PUSH1 0x4 ADD PUSH1 0x0 SWAP1 SLOAD SWAP1 PUSH2 0x100 EXP SWAP1 DIV PUSH20 0xFFFFFFFFFFFFFFFFFFFFFFFFFFFFFFFFFFFFFFFF AND SWAP1 POP DUP6 JUMP JUMPDEST PUSH1 0x0 PUSH1 0x9 PUSH1 0x0 DUP4 DUP2 MSTORE PUSH1 0x20 ADD SWAP1 DUP2 MSTORE PUSH1 0x20 ADD PUSH1 0x0 KECCAK256 PUSH1 0x3 ADD SLOAD EQ PUSH2 0x3F2 JUMPI PUSH1 0x40 MLOAD PUSH32 0x8C379A000000000000000000000000000000000000000000000000000000000 DUP2 MSTORE PUSH1 0x4 ADD PUSH2 0x3E9 SWAP1 PUSH2 0x1B85 JUMP JUMPDEST PUSH1 0x40 MLOAD DUP1 SWAP2 SUB SWAP1 REVERT JUMPDEST CALLER PUSH20 0xFFFFFFFFFFFFFFFFFFFFFFFFFFFFFFFFFFFFFFFF AND PUSH1 0x9 PUSH1 0x0 DUP4 DUP2 MSTORE PUSH1 0x20 ADD SWAP1 DUP2 MSTORE PUSH1 0x20 ADD PUSH1 0x0 KECCAK256 PUSH1 0x4 ADD PUSH1 0x0 SWAP1 SLOAD SWAP1 PUSH2 0x100 EXP SWAP1 DIV PUSH20 0xFFFFFFFFFFFFFFFFFFFFFFFFFFFFFFFFFFFFFFFF AND PUSH20 0xFFFFFFFFFFFFFFFFFFFFFFFFFFFFFFFFFFFFFFFF AND EQ PUSH2 0x496 JUMPI PUSH1 0x40 MLOAD PUSH32 0x8C379A000000000000000000000000000000000000000000000000000000000 DUP2 MSTORE PUSH1 0x4 ADD PUSH2 0x48D SWAP1 PUSH2 0x1BF1 JUMP JUMPDEST PUSH1 0x40 MLOAD DUP1 SWAP2 SUB SWAP1 REVERT JUMPDEST PUSH1 0x6 SLOAD PUSH1 0x4 SLOAD PUSH1 0x6 SLOAD PUSH2 0x4A9 SWAP2 SWAP1 PUSH2 0x1C40 JUMP JUMPDEST GT PUSH2 0x4E9 JUMPI PUSH1 0x40 MLOAD PUSH32 0x8C379A000000000000000000000000000000000000000000000000000000000 DUP2 MSTORE PUSH1 0x4 ADD PUSH2 0x4E0 SWAP1 PUSH2 0x1CC0 JUMP JUMPDEST PUSH1 0x40 MLOAD DUP1 SWAP2 SUB SWAP1 REVERT JUMPDEST PUSH1 0x3 SLOAD DUP3 LT DUP1 ISZERO PUSH2 0x4FA JUMPI POP PUSH1 0x0 DUP3 GT JUMPDEST PUSH2 0x539 JUMPI PUSH1 0x40 MLOAD PUSH32 0x8C379A000000000000000000000000000000000000000000000000000000000 DUP2 MSTORE PUSH1 0x4 ADD PUSH2 0x530 SWAP1 PUSH2 0x1D2C JUMP JUMPDEST PUSH1 0x40 MLOAD DUP1 SWAP2 SUB SWAP1 REVERT JUMPDEST PUSH1 0x8 PUSH1 0x0 DUP4 DUP2 MSTORE PUSH1 0x20 ADD SWAP1 DUP2 MSTORE PUSH1 0x20 ADD PUSH1 0x0 KECCAK256 PUSH1 0x5 ADD PUSH1 0x0 DUP2 SLOAD DUP1 SWAP3 SWAP2 SWAP1 PUSH2 0x560 SWAP1 PUSH2 0x1D4C JUMP JUMPDEST SWAP2 SWAP1 POP SSTORE POP DUP2 PUSH1 0x9 PUSH1 0x0 DUP4 DUP2 MSTORE PUSH1 0x20 ADD SWAP1 DUP2 MSTORE PUSH1 0x20 ADD PUSH1 0x0 KECCAK256 PUSH1 0x3 ADD DUP2 SWAP1 SSTORE POP DUP2 PUSH1 0x7 PUSH1 0x0 DUP4 DUP2 MSTORE PUSH1 0x20 ADD SWAP1 DUP2 MSTORE PUSH1 0x20 ADD PUSH1 0x0 KECCAK256 PUSH1 0x3 ADD DUP2 SWAP1 SSTORE POP POP POP JUMP JUMPDEST PUSH1 0x60 PUSH1 0x0 PUSH1 0x1 PUSH1 0x2 SLOAD PUSH2 0x5B2 SWAP2 SWAP1 PUSH2 0x1D94 JUMP JUMPDEST PUSH8 0xFFFFFFFFFFFFFFFF DUP2 GT ISZERO PUSH2 0x5CB JUMPI PUSH2 0x5CA PUSH2 0x171D JUMP JUMPDEST JUMPDEST PUSH1 0x40 MLOAD SWAP1 DUP1 DUP3 MSTORE DUP1 PUSH1 0x20 MUL PUSH1 0x20 ADD DUP3 ADD PUSH1 0x40 MSTORE DUP1 ISZERO PUSH2 0x604 JUMPI DUP2 PUSH1 0x20 ADD JUMPDEST PUSH2 0x5F1 PUSH2 0x11D1 JUMP JUMPDEST DUP2 MSTORE PUSH1 0x20 ADD SWAP1 PUSH1 0x1 SWAP1 SUB SWAP1 DUP2 PUSH2 0x5E9 JUMPI SWAP1 POP JUMPDEST POP SWAP1 POP PUSH1 0x0 PUSH1 0x1 SWAP1 POP JUMPDEST PUSH1 0x2 SLOAD DUP2 LT ISZERO PUSH2 0x779 JUMPI PUSH1 0x7 PUSH1 0x0 DUP3 DUP2 MSTORE PUSH1 0x20 ADD SWAP1 DUP2 MSTORE PUSH1 0x20 ADD PUSH1 0x0 KECCAK256 PUSH1 0x40 MLOAD DUP1 PUSH1 0xA0 ADD PUSH1 0x40 MSTORE SWAP1 DUP2 PUSH1 0x0 DUP3 ADD DUP1 SLOAD PUSH2 0x646 SWAP1 PUSH2 0x1B08 JUMP JUMPDEST DUP1 PUSH1 0x1F ADD PUSH1 0x20 DUP1 SWAP2 DIV MUL PUSH1 0x20 ADD PUSH1 0x40 MLOAD SWAP1 DUP2 ADD PUSH1 0x40 MSTORE DUP1 SWAP3 SWAP2 SWAP1 DUP2 DUP2 MSTORE PUSH1 0x20 ADD DUP3 DUP1 SLOAD PUSH2 0x672 SWAP1 PUSH2 0x1B08 JUMP JUMPDEST DUP1 ISZERO PUSH2 0x6BF JUMPI DUP1 PUSH1 0x1F LT PUSH2 0x694 JUMPI PUSH2 0x100 DUP1 DUP4 SLOAD DIV MUL DUP4 MSTORE SWAP2 PUSH1 0x20 ADD SWAP2 PUSH2 0x6BF JUMP JUMPDEST DUP3 ADD SWAP2 SWAP1 PUSH1 0x0 MSTORE PUSH1 0x20 PUSH1 0x0 KECCAK256 SWAP1 JUMPDEST DUP2 SLOAD DUP2 MSTORE SWAP1 PUSH1 0x1 ADD SWAP1 PUSH1 0x20 ADD DUP1 DUP4 GT PUSH2 0x6A2 JUMPI DUP3 SWAP1 SUB PUSH1 0x1F AND DUP3 ADD SWAP2 JUMPDEST POP POP POP POP POP DUP2 MSTORE PUSH1 0x20 ADD PUSH1 0x1 DUP3 ADD SLOAD DUP2 MSTORE PUSH1 0x20 ADD PUSH1 0x2 DUP3 ADD SLOAD DUP2 MSTORE PUSH1 0x20 ADD PUSH1 0x3 DUP3 ADD SLOAD DUP2 MSTORE PUSH1 0x20 ADD PUSH1 0x4 DUP3 ADD PUSH1 0x0 SWAP1 SLOAD SWAP1 PUSH2 0x100 EXP SWAP1 DIV PUSH20 0xFFFFFFFFFFFFFFFFFFFFFFFFFFFFFFFFFFFFFFFF AND PUSH20 0xFFFFFFFFFFFFFFFFFFFFFFFFFFFFFFFFFFFFFFFF AND PUSH20 0xFFFFFFFFFFFFFFFFFFFFFFFFFFFFFFFFFFFFFFFF AND DUP2 MSTORE POP POP DUP3 PUSH1 0x1 DUP4 PUSH2 0x74A SWAP2 SWAP1 PUSH2 0x1D94 JUMP JUMPDEST DUP2 MLOAD DUP2 LT PUSH2 0x75B JUMPI PUSH2 0x75A PUSH2 0x1DC8 JUMP JUMPDEST JUMPDEST PUSH1 0x20 MUL PUSH1 0x20 ADD ADD DUP2 SWAP1 MSTORE POP DUP1 DUP1 PUSH2 0x771 SWAP1 PUSH2 0x1D4C JUMP JUMPDEST SWAP2 POP POP PUSH2 0x60E JUMP JUMPDEST POP DUP1 SWAP2 POP POP SWAP1 JUMP JUMPDEST PUSH1 0x0 DUP1 PUSH1 0x0 SWAP1 POP JUMPDEST PUSH1 0x2 SLOAD DUP2 LT ISZERO PUSH2 0x819 JUMPI DUP3 PUSH20 0xFFFFFFFFFFFFFFFFFFFFFFFFFFFFFFFFFFFFFFFF AND PUSH1 0x7 PUSH1 0x0 DUP4 DUP2 MSTORE PUSH1 0x20 ADD SWAP1 DUP2 MSTORE PUSH1 0x20 ADD PUSH1 0x0 KECCAK256 PUSH1 0x4 ADD PUSH1 0x0 SWAP1 SLOAD SWAP1 PUSH2 0x100 EXP SWAP1 DIV PUSH20 0xFFFFFFFFFFFFFFFFFFFFFFFFFFFFFFFFFFFFFFFF AND PUSH20 0xFFFFFFFFFFFFFFFFFFFFFFFFFFFFFFFFFFFFFFFF AND SUB PUSH2 0x806 JUMPI PUSH1 0x0 SWAP2 POP POP PUSH2 0x81F JUMP JUMPDEST DUP1 DUP1 PUSH2 0x811 SWAP1 PUSH2 0x1D4C JUMP JUMPDEST SWAP2 POP POP PUSH2 0x789 JUMP JUMPDEST POP PUSH1 0x1 SWAP1 POP JUMPDEST SWAP2 SWAP1 POP JUMP JUMPDEST PUSH1 0x8 PUSH1 0x20 MSTORE DUP1 PUSH1 0x0 MSTORE PUSH1 0x40 PUSH1 0x0 KECCAK256 PUSH1 0x0 SWAP2 POP SWAP1 POP DUP1 PUSH1 0x0 ADD DUP1 SLOAD PUSH2 0x847 SWAP1 PUSH2 0x1B08 JUMP JUMPDEST DUP1 PUSH1 0x1F ADD PUSH1 0x20 DUP1 SWAP2 DIV MUL PUSH1 0x20 ADD PUSH1 0x40 MLOAD SWAP1 DUP2 ADD PUSH1 0x40 MSTORE DUP1 SWAP3 SWAP2 SWAP1 DUP2 DUP2 MSTORE PUSH1 0x20 ADD DUP3 DUP1 SLOAD PUSH2 0x873 SWAP1 PUSH2 0x1B08 JUMP JUMPDEST DUP1 ISZERO PUSH2 0x8C0 JUMPI DUP1 PUSH1 0x1F LT PUSH2 0x895 JUMPI PUSH2 0x100 DUP1 DUP4 SLOAD DIV MUL DUP4 MSTORE SWAP2 PUSH1 0x20 ADD SWAP2 PUSH2 0x8C0 JUMP JUMPDEST DUP3 ADD SWAP2 SWAP1 PUSH1 0x0 MSTORE PUSH1 0x20 PUSH1 0x0 KECCAK256 SWAP1 JUMPDEST DUP2 SLOAD DUP2 MSTORE SWAP1 PUSH1 0x1 ADD SWAP1 PUSH1 0x20 ADD DUP1 DUP4 GT PUSH2 0x8A3 JUMPI DUP3 SWAP1 SUB PUSH1 0x1F AND DUP3 ADD SWAP2 JUMPDEST POP POP POP POP POP SWAP1 DUP1 PUSH1 0x1 ADD DUP1 SLOAD PUSH2 0x8D5 SWAP1 PUSH2 0x1B08 JUMP JUMPDEST DUP1 PUSH1 0x1F ADD PUSH1 0x20 DUP1 SWAP2 DIV MUL PUSH1 0x20 ADD PUSH1 0x40 MLOAD SWAP1 DUP2 ADD PUSH1 0x40 MSTORE DUP1 SWAP3 SWAP2 SWAP1 DUP2 DUP2 MSTORE PUSH1 0x20 ADD DUP3 DUP1 SLOAD PUSH2 0x901 SWAP1 PUSH2 0x1B08 JUMP JUMPDEST DUP1 ISZERO PUSH2 0x94E JUMPI DUP1 PUSH1 0x1F LT PUSH2 0x923 JUMPI PUSH2 0x100 DUP1 DUP4 SLOAD DIV MUL DUP4 MSTORE SWAP2 PUSH1 0x20 ADD SWAP2 PUSH2 0x94E JUMP JUMPDEST DUP3 ADD SWAP2 SWAP1 PUSH1 0x0 MSTORE PUSH1 0x20 PUSH1 0x0 KECCAK256 SWAP1 JUMPDEST DUP2 SLOAD DUP2 MSTORE SWAP1 PUSH1 0x1 ADD SWAP1 PUSH1 0x20 ADD DUP1 DUP4 GT PUSH2 0x931 JUMPI DUP3 SWAP1 SUB PUSH1 0x1F AND DUP3 ADD SWAP2 JUMPDEST POP POP POP POP POP SWAP1 DUP1 PUSH1 0x2 ADD SLOAD SWAP1 DUP1 PUSH1 0x3 ADD SLOAD SWAP1 DUP1 PUSH1 0x4 ADD PUSH1 0x0 SWAP1 SLOAD SWAP1 PUSH2 0x100 EXP SWAP1 DIV PUSH20 0xFFFFFFFFFFFFFFFFFFFFFFFFFFFFFFFFFFFFFFFF AND SWAP1 DUP1 PUSH1 0x5 ADD SLOAD SWAP1 POP DUP7 JUMP JUMPDEST PUSH1 0x0 DUP1 PUSH1 0x0 SWAP1 POP JUMPDEST PUSH1 0x2 SLOAD DUP2 LT ISZERO PUSH2 0x9DC JUMPI DUP3 PUSH1 0x9 PUSH1 0x0 DUP6 DUP2 MSTORE PUSH1 0x20 ADD SWAP1 DUP2 MSTORE PUSH1 0x20 ADD PUSH1 0x0 KECCAK256 PUSH1 0x1 ADD SLOAD SUB PUSH2 0x9C9 JUMPI PUSH1 0x0 SWAP2 POP POP PUSH2 0x9E2 JUMP JUMPDEST DUP1 DUP1 PUSH2 0x9D4 SWAP1 PUSH2 0x1D4C JUMP JUMPDEST SWAP2 POP POP PUSH2 0x998 JUMP JUMPDEST POP PUSH1 0x1 SWAP1 POP JUMPDEST SWAP2 SWAP1 POP JUMP JUMPDEST PUSH1 0x1 ISZERO ISZERO PUSH2 0x9F4 CALLER PUSH2 0x781 JUMP JUMPDEST ISZERO ISZERO EQ PUSH2 0xA36 JUMPI PUSH1 0x40 MLOAD PUSH32 0x8C379A000000000000000000000000000000000000000000000000000000000 DUP2 MSTORE PUSH1 0x4 ADD PUSH2 0xA2D SWAP1 PUSH2 0x1E43 JUMP JUMPDEST PUSH1 0x40 MLOAD DUP1 SWAP2 SUB SWAP1 REVERT JUMPDEST PUSH1 0x1 ISZERO ISZERO PUSH2 0xA43 DUP3 PUSH2 0x990 JUMP JUMPDEST ISZERO ISZERO EQ PUSH2 0xA85 JUMPI PUSH1 0x40 MLOAD PUSH32 0x8C379A000000000000000000000000000000000000000000000000000000000 DUP2 MSTORE PUSH1 0x4 ADD PUSH2 0xA7C SWAP1 PUSH2 0x1EAF JUMP JUMPDEST PUSH1 0x40 MLOAD DUP1 SWAP2 SUB SWAP1 REVERT JUMPDEST PUSH1 0x40 MLOAD DUP1 PUSH1 0xA0 ADD PUSH1 0x40 MSTORE DUP1 DUP4 DUP2 MSTORE PUSH1 0x20 ADD DUP3 DUP2 MSTORE PUSH1 0x20 ADD PUSH1 0x2 SLOAD DUP2 MSTORE PUSH1 0x20 ADD PUSH1 0x0 DUP2 MSTORE PUSH1 0x20 ADD CALLER PUSH20 0xFFFFFFFFFFFFFFFFFFFFFFFFFFFFFFFFFFFFFFFF AND DUP2 MSTORE POP PUSH1 0x7 PUSH1 0x0 DUP4 DUP2 MSTORE PUSH1 0x20 ADD SWAP1 DUP2 MSTORE PUSH1 0x20 ADD PUSH1 0x0 KECCAK256 PUSH1 0x0 DUP3 ADD MLOAD DUP2 PUSH1 0x0 ADD SWAP1 DUP2 PUSH2 0xAED SWAP2 SWAP1 PUSH2 0x207B JUMP JUMPDEST POP PUSH1 0x20 DUP3 ADD MLOAD DUP2 PUSH1 0x1 ADD SSTORE PUSH1 0x40 DUP3 ADD MLOAD DUP2 PUSH1 0x2 ADD SSTORE PUSH1 0x60 DUP3 ADD MLOAD DUP2 PUSH1 0x3 ADD SSTORE PUSH1 0x80 DUP3 ADD MLOAD DUP2 PUSH1 0x4 ADD PUSH1 0x0 PUSH2 0x100 EXP DUP2 SLOAD DUP2 PUSH20 0xFFFFFFFFFFFFFFFFFFFFFFFFFFFFFFFFFFFFFFFF MUL NOT AND SWAP1 DUP4 PUSH20 0xFFFFFFFFFFFFFFFFFFFFFFFFFFFFFFFFFFFFFFFF AND MUL OR SWAP1 SSTORE POP SWAP1 POP POP PUSH1 0x40 MLOAD DUP1 PUSH1 0xA0 ADD PUSH1 0x40 MSTORE DUP1 DUP4 DUP2 MSTORE PUSH1 0x20 ADD DUP3 DUP2 MSTORE PUSH1 0x20 ADD PUSH1 0x2 SLOAD DUP2 MSTORE PUSH1 0x20 ADD PUSH1 0x0 DUP2 MSTORE PUSH1 0x20 ADD CALLER PUSH20 0xFFFFFFFFFFFFFFFFFFFFFFFFFFFFFFFFFFFFFFFF AND DUP2 MSTORE POP PUSH1 0x9 PUSH1 0x0 DUP4 DUP2 MSTORE PUSH1 0x20 ADD SWAP1 DUP2 MSTORE PUSH1 0x20 ADD PUSH1 0x0 KECCAK256 PUSH1 0x0 DUP3 ADD MLOAD DUP2 PUSH1 0x0 ADD SWAP1 DUP2 PUSH2 0xBBE SWAP2 SWAP1 PUSH2 0x207B JUMP JUMPDEST POP PUSH1 0x20 DUP3 ADD MLOAD DUP2 PUSH1 0x1 ADD SSTORE PUSH1 0x40 DUP3 ADD MLOAD DUP2 PUSH1 0x2 ADD SSTORE PUSH1 0x60 DUP3 ADD MLOAD DUP2 PUSH1 0x3 ADD SSTORE PUSH1 0x80 DUP3 ADD MLOAD DUP2 PUSH1 0x4 ADD PUSH1 0x0 PUSH2 0x100 EXP DUP2 SLOAD DUP2 PUSH20 0xFFFFFFFFFFFFFFFFFFFFFFFFFFFFFFFFFFFFFFFF MUL NOT AND SWAP1 DUP4 PUSH20 0xFFFFFFFFFFFFFFFFFFFFFFFFFFFFFFFFFFFFFFFF AND MUL OR SWAP1 SSTORE POP SWAP1 POP POP PUSH1 0x2 PUSH1 0x0 DUP2 SLOAD DUP1 SWAP3 SWAP2 SWAP1 PUSH2 0xC3A SWAP1 PUSH2 0x1D4C JUMP JUMPDEST SWAP2 SWAP1 POP SSTORE POP POP POP JUMP JUMPDEST PUSH1 0x60 PUSH1 0x0 PUSH1 0x1 PUSH1 0x3 SLOAD PUSH2 0xC56 SWAP2 SWAP1 PUSH2 0x1D94 JUMP JUMPDEST PUSH8 0xFFFFFFFFFFFFFFFF DUP2 GT ISZERO PUSH2 0xC6F JUMPI PUSH2 0xC6E PUSH2 0x171D JUMP JUMPDEST JUMPDEST PUSH1 0x40 MLOAD SWAP1 DUP1 DUP3 MSTORE DUP1 PUSH1 0x20 MUL PUSH1 0x20 ADD DUP3 ADD PUSH1 0x40 MSTORE DUP1 ISZERO PUSH2 0xCA8 JUMPI DUP2 PUSH1 0x20 ADD JUMPDEST PUSH2 0xC95 PUSH2 0x1216 JUMP JUMPDEST DUP2 MSTORE PUSH1 0x20 ADD SWAP1 PUSH1 0x1 SWAP1 SUB SWAP1 DUP2 PUSH2 0xC8D JUMPI SWAP1 POP JUMPDEST POP SWAP1 POP PUSH1 0x0 DUP1 PUSH1 0x1 SWAP1 POP JUMPDEST PUSH1 0x3 SLOAD DUP2 LT ISZERO PUSH2 0xEB2 JUMPI PUSH1 0x8 PUSH1 0x0 DUP3 DUP2 MSTORE PUSH1 0x20 ADD SWAP1 DUP2 MSTORE PUSH1 0x20 ADD PUSH1 0x0 KECCAK256 PUSH1 0x40 MLOAD DUP1 PUSH1 0xC0 ADD PUSH1 0x40 MSTORE SWAP1 DUP2 PUSH1 0x0 DUP3 ADD DUP1 SLOAD PUSH2 0xCEB SWAP1 PUSH2 0x1B08 JUMP JUMPDEST DUP1 PUSH1 0x1F ADD PUSH1 0x20 DUP1 SWAP2 DIV MUL PUSH1 0x20 ADD PUSH1 0x40 MLOAD SWAP1 DUP2 ADD PUSH1 0x40 MSTORE DUP1 SWAP3 SWAP2 SWAP1 DUP2 DUP2 MSTORE PUSH1 0x20 ADD DUP3 DUP1 SLOAD PUSH2 0xD17 SWAP1 PUSH2 0x1B08 JUMP JUMPDEST DUP1 ISZERO PUSH2 0xD64 JUMPI DUP1 PUSH1 0x1F LT PUSH2 0xD39 JUMPI PUSH2 0x100 DUP1 DUP4 SLOAD DIV MUL DUP4 MSTORE SWAP2 PUSH1 0x20 ADD SWAP2 PUSH2 0xD64 JUMP JUMPDEST DUP3 ADD SWAP2 SWAP1 PUSH1 0x0 MSTORE PUSH1 0x20 PUSH1 0x0 KECCAK256 SWAP1 JUMPDEST DUP2 SLOAD DUP2 MSTORE SWAP1 PUSH1 0x1 ADD SWAP1 PUSH1 0x20 ADD DUP1 DUP4 GT PUSH2 0xD47 JUMPI DUP3 SWAP1 SUB PUSH1 0x1F AND DUP3 ADD SWAP2 JUMPDEST POP POP POP POP POP DUP2 MSTORE PUSH1 0x20 ADD PUSH1 0x1 DUP3 ADD DUP1 SLOAD PUSH2 0xD7D SWAP1 PUSH2 0x1B08 JUMP JUMPDEST DUP1 PUSH1 0x1F ADD PUSH1 0x20 DUP1 SWAP2 DIV MUL PUSH1 0x20 ADD PUSH1 0x40 MLOAD SWAP1 DUP2 ADD PUSH1 0x40 MSTORE DUP1 SWAP3 SWAP2 SWAP1 DUP2 DUP2 MSTORE PUSH1 0x20 ADD DUP3 DUP1 SLOAD PUSH2 0xDA9 SWAP1 PUSH2 0x1B08 JUMP JUMPDEST DUP1 ISZERO PUSH2 0xDF6 JUMPI DUP1 PUSH1 0x1F LT PUSH2 0xDCB JUMPI PUSH2 0x100 DUP1 DUP4 SLOAD DIV MUL DUP4 MSTORE SWAP2 PUSH1 0x20 ADD SWAP2 PUSH2 0xDF6 JUMP JUMPDEST DUP3 ADD SWAP2 SWAP1 PUSH1 0x0 MSTORE PUSH1 0x20 PUSH1 0x0 KECCAK256 SWAP1 JUMPDEST DUP2 SLOAD DUP2 MSTORE SWAP1 PUSH1 0x1 ADD SWAP1 PUSH1 0x20 ADD DUP1 DUP4 GT PUSH2 0xDD9 JUMPI DUP3 SWAP1 SUB PUSH1 0x1F AND DUP3 ADD SWAP2 JUMPDEST POP POP POP POP POP DUP2 MSTORE PUSH1 0x20 ADD PUSH1 0x2 DUP3 ADD SLOAD DUP2 MSTORE PUSH1 0x20 ADD PUSH1 0x3 DUP3 ADD SLOAD DUP2 MSTORE PUSH1 0x20 ADD PUSH1 0x4 DUP3 ADD PUSH1 0x0 SWAP1 SLOAD SWAP1 PUSH2 0x100 EXP SWAP1 DIV PUSH20 0xFFFFFFFFFFFFFFFFFFFFFFFFFFFFFFFFFFFFFFFF AND PUSH20 0xFFFFFFFFFFFFFFFFFFFFFFFFFFFFFFFFFFFFFFFF AND PUSH20 0xFFFFFFFFFFFFFFFFFFFFFFFFFFFFFFFFFFFFFFFF AND DUP2 MSTORE PUSH1 0x20 ADD PUSH1 0x5 DUP3 ADD SLOAD DUP2 MSTORE POP POP DUP4 DUP4 DUP2 MLOAD DUP2 LT PUSH2 0xE86 JUMPI PUSH2 0xE85 PUSH2 0x1DC8 JUMP JUMPDEST JUMPDEST PUSH1 0x20 MUL PUSH1 0x20 ADD ADD DUP2 SWAP1 MSTORE POP DUP2 DUP1 PUSH2 0xE9C SWAP1 PUSH2 0x1D4C JUMP JUMPDEST SWAP3 POP POP DUP1 DUP1 PUSH2 0xEAA SWAP1 PUSH2 0x1D4C JUMP JUMPDEST SWAP2 POP POP PUSH2 0xCB3 JUMP JUMPDEST POP DUP2 SWAP3 POP POP POP SWAP1 JUMP JUMPDEST PUSH1 0x9 PUSH1 0x20 MSTORE DUP1 PUSH1 0x0 MSTORE PUSH1 0x40 PUSH1 0x0 KECCAK256 PUSH1 0x0 SWAP2 POP SWAP1 POP DUP1 PUSH1 0x0 ADD DUP1 SLOAD PUSH2 0xEDE SWAP1 PUSH2 0x1B08 JUMP JUMPDEST DUP1 PUSH1 0x1F ADD PUSH1 0x20 DUP1 SWAP2 DIV MUL PUSH1 0x20 ADD PUSH1 0x40 MLOAD SWAP1 DUP2 ADD PUSH1 0x40 MSTORE DUP1 SWAP3 SWAP2 SWAP1 DUP2 DUP2 MSTORE PUSH1 0x20 ADD DUP3 DUP1 SLOAD PUSH2 0xF0A SWAP1 PUSH2 0x1B08 JUMP JUMPDEST DUP1 ISZERO PUSH2 0xF57 JUMPI DUP1 PUSH1 0x1F LT PUSH2 0xF2C JUMPI PUSH2 0x100 DUP1 DUP4 SLOAD DIV MUL DUP4 MSTORE SWAP2 PUSH1 0x20 ADD SWAP2 PUSH2 0xF57 JUMP JUMPDEST DUP3 ADD SWAP2 SWAP1 PUSH1 0x0 MSTORE PUSH1 0x20 PUSH1 0x0 KECCAK256 SWAP1 JUMPDEST DUP2 SLOAD DUP2 MSTORE SWAP1 PUSH1 0x1 ADD SWAP1 PUSH1 0x20 ADD DUP1 DUP4 GT PUSH2 0xF3A JUMPI DUP3 SWAP1 SUB PUSH1 0x1F AND DUP3 ADD SWAP2 JUMPDEST POP POP POP POP POP SWAP1 DUP1 PUSH1 0x1 ADD SLOAD SWAP1 DUP1 PUSH1 0x2 ADD SLOAD SWAP1 DUP1 PUSH1 0x3 ADD SLOAD SWAP1 DUP1 PUSH1 0x4 ADD PUSH1 0x0 SWAP1 SLOAD SWAP1 PUSH2 0x100 EXP SWAP1 DIV PUSH20 0xFFFFFFFFFFFFFFFFFFFFFFFFFFFFFFFFFFFFFFFF AND SWAP1 POP DUP6 JUMP JUMPDEST PUSH1 0x6 SLOAD DUP2 JUMP JUMPDEST PUSH1 0x1 PUSH1 0x0 SWAP1 SLOAD SWAP1 PUSH2 0x100 EXP SWAP1 DIV PUSH20 0xFFFFFFFFFFFFFFFFFFFFFFFFFFFFFFFFFFFFFFFF AND DUP2 JUMP JUMPDEST PUSH1 0x1 ISZERO ISZERO PUSH2 0xFD2 CALLER PUSH2 0x112E JUMP JUMPDEST ISZERO ISZERO EQ PUSH2 0x1014 JUMPI PUSH1 0x40 MLOAD PUSH32 0x8C379A000000000000000000000000000000000000000000000000000000000 DUP2 MSTORE PUSH1 0x4 ADD PUSH2 0x100B SWAP1 PUSH2 0x2199 JUMP JUMPDEST PUSH1 0x40 MLOAD DUP1 SWAP2 SUB SWAP1 REVERT JUMPDEST PUSH1 0x40 MLOAD DUP1 PUSH1 0xC0 ADD PUSH1 0x40 MSTORE DUP1 DUP5 DUP2 MSTORE PUSH1 0x20 ADD DUP4 DUP2 MSTORE PUSH1 0x20 ADD DUP3 DUP2 MSTORE PUSH1 0x20 ADD PUSH1 0x3 SLOAD DUP2 MSTORE PUSH1 0x20 ADD CALLER PUSH20 0xFFFFFFFFFFFFFFFFFFFFFFFFFFFFFFFFFFFFFFFF AND DUP2 MSTORE PUSH1 0x20 ADD PUSH1 0x0 DUP2 MSTORE POP PUSH1 0x8 PUSH1 0x0 DUP4 DUP2 MSTORE PUSH1 0x20 ADD SWAP1 DUP2 MSTORE PUSH1 0x20 ADD PUSH1 0x0 KECCAK256 PUSH1 0x0 DUP3 ADD MLOAD DUP2 PUSH1 0x0 ADD SWAP1 DUP2 PUSH2 0x1082 SWAP2 SWAP1 PUSH2 0x207B JUMP JUMPDEST POP PUSH1 0x20 DUP3 ADD MLOAD DUP2 PUSH1 0x1 ADD SWAP1 DUP2 PUSH2 0x1098 SWAP2 SWAP1 PUSH2 0x207B JUMP JUMPDEST POP PUSH1 0x40 DUP3 ADD MLOAD DUP2 PUSH1 0x2 ADD SSTORE PUSH1 0x60 DUP3 ADD MLOAD DUP2 PUSH1 0x3 ADD SSTORE PUSH1 0x80 DUP3 ADD MLOAD DUP2 PUSH1 0x4 ADD PUSH1 0x0 PUSH2 0x100 EXP DUP2 SLOAD DUP2 PUSH20 0xFFFFFFFFFFFFFFFFFFFFFFFFFFFFFFFFFFFFFFFF MUL NOT AND SWAP1 DUP4 PUSH20 0xFFFFFFFFFFFFFFFFFFFFFFFFFFFFFFFFFFFFFFFF AND MUL OR SWAP1 SSTORE POP PUSH1 0xA0 DUP3 ADD MLOAD DUP2 PUSH1 0x5 ADD SSTORE SWAP1 POP POP PUSH1 0x3 PUSH1 0x0 DUP2 SLOAD DUP1 SWAP3 SWAP2 SWAP1 PUSH2 0x1114 SWAP1 PUSH2 0x1D4C JUMP JUMPDEST SWAP2 SWAP1 POP SSTORE POP PUSH2 0x1122 CALLER PUSH2 0x112E JUMP JUMPDEST POP POP POP POP JUMP JUMPDEST PUSH1 0x3 SLOAD DUP2 JUMP JUMPDEST PUSH1 0x0 DUP1 PUSH1 0x1 SWAP1 POP JUMPDEST PUSH1 0x3 SLOAD DUP2 LT ISZERO PUSH2 0x11C6 JUMPI DUP3 PUSH20 0xFFFFFFFFFFFFFFFFFFFFFFFFFFFFFFFFFFFFFFFF AND PUSH1 0x8 PUSH1 0x0 DUP4 DUP2 MSTORE PUSH1 0x20 ADD SWAP1 DUP2 MSTORE PUSH1 0x20 ADD PUSH1 0x0 KECCAK256 PUSH1 0x4 ADD PUSH1 0x0 SWAP1 SLOAD SWAP1 PUSH2 0x100 EXP SWAP1 DIV PUSH20 0xFFFFFFFFFFFFFFFFFFFFFFFFFFFFFFFFFFFFFFFF AND PUSH20 0xFFFFFFFFFFFFFFFFFFFFFFFFFFFFFFFFFFFFFFFF AND SUB PUSH2 0x11B3 JUMPI PUSH1 0x0 SWAP2 POP POP PUSH2 0x11CC JUMP JUMPDEST DUP1 DUP1 PUSH2 0x11BE SWAP1 PUSH2 0x1D4C JUMP JUMPDEST SWAP2 POP POP PUSH2 0x1136 JUMP JUMPDEST POP PUSH1 0x1 SWAP1 POP JUMPDEST SWAP2 SWAP1 POP JUMP JUMPDEST PUSH1 0x40 MLOAD DUP1 PUSH1 0xA0 ADD PUSH1 0x40 MSTORE DUP1 PUSH1 0x60 DUP2 MSTORE PUSH1 0x20 ADD PUSH1 0x0 DUP2 MSTORE PUSH1 0x20 ADD PUSH1 0x0 DUP2 MSTORE PUSH1 0x20 ADD PUSH1 0x0 DUP2 MSTORE PUSH1 0x20 ADD PUSH1 0x0 PUSH20 0xFFFFFFFFFFFFFFFFFFFFFFFFFFFFFFFFFFFFFFFF AND DUP2 MSTORE POP SWAP1 JUMP JUMPDEST PUSH1 0x40 MLOAD DUP1 PUSH1 0xC0 ADD PUSH1 0x40 MSTORE DUP1 PUSH1 0x60 DUP2 MSTORE PUSH1 0x20 ADD PUSH1 0x60 DUP2 MSTORE PUSH1 0x20 ADD PUSH1 0x0 DUP2 MSTORE PUSH1 0x20 ADD PUSH1 0x0 DUP2 MSTORE PUSH1 0x20 ADD PUSH1 0x0 PUSH20 0xFFFFFFFFFFFFFFFFFFFFFFFFFFFFFFFFFFFFFFFF AND DUP2 MSTORE PUSH1 0x20 ADD PUSH1 0x0 DUP2 MSTORE POP SWAP1 JUMP JUMPDEST PUSH1 0x0 PUSH1 0x40 MLOAD SWAP1 POP SWAP1 JUMP JUMPDEST PUSH1 0x0 DUP1 REVERT JUMPDEST PUSH1 0x0 DUP1 REVERT JUMPDEST PUSH1 0x0 DUP2 SWAP1 POP SWAP2 SWAP1 POP JUMP JUMPDEST PUSH2 0x1289 DUP2 PUSH2 0x1276 JUMP JUMPDEST DUP2 EQ PUSH2 0x1294 JUMPI PUSH1 0x0 DUP1 REVERT JUMPDEST POP JUMP JUMPDEST PUSH1 0x0 DUP2 CALLDATALOAD SWAP1 POP PUSH2 0x12A6 DUP2 PUSH2 0x1280 JUMP JUMPDEST SWAP3 SWAP2 POP POP JUMP JUMPDEST PUSH1 0x0 PUSH1 0x20 DUP3 DUP5 SUB SLT ISZERO PUSH2 0x12C2 JUMPI PUSH2 0x12C1 PUSH2 0x126C JUMP JUMPDEST JUMPDEST PUSH1 0x0 PUSH2 0x12D0 DUP5 DUP3 DUP6 ADD PUSH2 0x1297 JUMP JUMPDEST SWAP2 POP POP SWAP3 SWAP2 POP POP JUMP JUMPDEST PUSH1 0x0 DUP2 MLOAD SWAP1 POP SWAP2 SWAP1 POP JUMP JUMPDEST PUSH1 0x0 DUP3 DUP3 MSTORE PUSH1 0x20 DUP3 ADD SWAP1 POP SWAP3 SWAP2 POP POP JUMP JUMPDEST PUSH1 0x0 JUMPDEST DUP4 DUP2 LT ISZERO PUSH2 0x1313 JUMPI DUP1 DUP3 ADD MLOAD DUP2 DUP5 ADD MSTORE PUSH1 0x20 DUP2 ADD SWAP1 POP PUSH2 0x12F8 JUMP JUMPDEST PUSH1 0x0 DUP5 DUP5 ADD MSTORE POP POP POP POP JUMP JUMPDEST PUSH1 0x0 PUSH1 0x1F NOT PUSH1 0x1F DUP4 ADD AND SWAP1 POP SWAP2 SWAP1 POP JUMP JUMPDEST PUSH1 0x0 PUSH2 0x133B DUP3 PUSH2 0x12D9 JUMP JUMPDEST PUSH2 0x1345 DUP2 DUP6 PUSH2 0x12E4 JUMP JUMPDEST SWAP4 POP PUSH2 0x1355 DUP2 DUP6 PUSH1 0x20 DUP7 ADD PUSH2 0x12F5 JUMP JUMPDEST PUSH2 0x135E DUP2 PUSH2 0x131F JUMP JUMPDEST DUP5 ADD SWAP2 POP POP SWAP3 SWAP2 POP POP JUMP JUMPDEST PUSH2 0x1372 DUP2 PUSH2 0x1276 JUMP JUMPDEST DUP3 MSTORE POP POP JUMP JUMPDEST PUSH1 0x0 PUSH20 0xFFFFFFFFFFFFFFFFFFFFFFFFFFFFFFFFFFFFFFFF DUP3 AND SWAP1 POP SWAP2 SWAP1 POP JUMP JUMPDEST PUSH1 0x0 PUSH2 0x13A3 DUP3 PUSH2 0x1378 JUMP JUMPDEST SWAP1 POP SWAP2 SWAP1 POP JUMP JUMPDEST PUSH2 0x13B3 DUP2 PUSH2 0x1398 JUMP JUMPDEST DUP3 MSTORE POP POP JUMP JUMPDEST PUSH1 0x0 PUSH1 0xA0 DUP3 ADD SWAP1 POP DUP2 DUP2 SUB PUSH1 0x0 DUP4 ADD MSTORE PUSH2 0x13D3 DUP2 DUP9 PUSH2 0x1330 JUMP JUMPDEST SWAP1 POP PUSH2 0x13E2 PUSH1 0x20 DUP4 ADD DUP8 PUSH2 0x1369 JUMP JUMPDEST PUSH2 0x13EF PUSH1 0x40 DUP4 ADD DUP7 PUSH2 0x1369 JUMP JUMPDEST PUSH2 0x13FC PUSH1 0x60 DUP4 ADD DUP6 PUSH2 0x1369 JUMP JUMPDEST PUSH2 0x1409 PUSH1 0x80 DUP4 ADD DUP5 PUSH2 0x13AA JUMP JUMPDEST SWAP7 SWAP6 POP POP POP POP POP POP JUMP JUMPDEST PUSH1 0x0 DUP1 PUSH1 0x40 DUP4 DUP6 SUB SLT ISZERO PUSH2 0x142A JUMPI PUSH2 0x1429 PUSH2 0x126C JUMP JUMPDEST JUMPDEST PUSH1 0x0 PUSH2 0x1438 DUP6 DUP3 DUP7 ADD PUSH2 0x1297 JUMP JUMPDEST SWAP3 POP POP PUSH1 0x20 PUSH2 0x1449 DUP6 DUP3 DUP7 ADD PUSH2 0x1297 JUMP JUMPDEST SWAP2 POP POP SWAP3 POP SWAP3 SWAP1 POP JUMP JUMPDEST PUSH1 0x0 DUP2 MLOAD SWAP1 POP SWAP2 SWAP1 POP JUMP JUMPDEST PUSH1 0x0 DUP3 DUP3 MSTORE PUSH1 0x20 DUP3 ADD SWAP1 POP SWAP3 SWAP2 POP POP JUMP JUMPDEST PUSH1 0x0 DUP2 SWAP1 POP PUSH1 0x20 DUP3 ADD SWAP1 POP SWAP2 SWAP1 POP JUMP JUMPDEST PUSH1 0x0 DUP3 DUP3 MSTORE PUSH1 0x20 DUP3 ADD SWAP1 POP SWAP3 SWAP2 POP POP JUMP JUMPDEST PUSH1 0x0 PUSH2 0x149B DUP3 PUSH2 0x12D9 JUMP JUMPDEST PUSH2 0x14A5 DUP2 DUP6 PUSH2 0x147F JUMP JUMPDEST SWAP4 POP PUSH2 0x14B5 DUP2 DUP6 PUSH1 0x20 DUP7 ADD PUSH2 0x12F5 JUMP JUMPDEST PUSH2 0x14BE DUP2 PUSH2 0x131F JUMP JUMPDEST DUP5 ADD SWAP2 POP POP SWAP3 SWAP2 POP POP JUMP JUMPDEST PUSH2 0x14D2 DUP2 PUSH2 0x1276 JUMP JUMPDEST DUP3 MSTORE POP POP JUMP JUMPDEST PUSH2 0x14E1 DUP2 PUSH2 0x1398 JUMP JUMPDEST DUP3 MSTORE POP POP JUMP JUMPDEST PUSH1 0x0 PUSH1 0xA0 DUP4 ADD PUSH1 0x0 DUP4 ADD MLOAD DUP5 DUP3 SUB PUSH1 0x0 DUP7 ADD MSTORE PUSH2 0x1504 DUP3 DUP3 PUSH2 0x1490 JUMP JUMPDEST SWAP2 POP POP PUSH1 0x20 DUP4 ADD MLOAD PUSH2 0x1519 PUSH1 0x20 DUP7 ADD DUP3 PUSH2 0x14C9 JUMP JUMPDEST POP PUSH1 0x40 DUP4 ADD MLOAD PUSH2 0x152C PUSH1 0x40 DUP7 ADD DUP3 PUSH2 0x14C9 JUMP JUMPDEST POP PUSH1 0x60 DUP4 ADD MLOAD PUSH2 0x153F PUSH1 0x60 DUP7 ADD DUP3 PUSH2 0x14C9 JUMP JUMPDEST POP PUSH1 0x80 DUP4 ADD MLOAD PUSH2 0x1552 PUSH1 0x80 DUP7 ADD DUP3 PUSH2 0x14D8 JUMP JUMPDEST POP DUP1 SWAP2 POP POP SWAP3 SWAP2 POP POP JUMP JUMPDEST PUSH1 0x0 PUSH2 0x1569 DUP4 DUP4 PUSH2 0x14E7 JUMP JUMPDEST SWAP1 POP SWAP3 SWAP2 POP POP JUMP JUMPDEST PUSH1 0x0 PUSH1 0x20 DUP3 ADD SWAP1 POP SWAP2 SWAP1 POP JUMP JUMPDEST PUSH1 0x0 PUSH2 0x1589 DUP3 PUSH2 0x1453 JUMP JUMPDEST PUSH2 0x1593 DUP2 DUP6 PUSH2 0x145E JUMP JUMPDEST SWAP4 POP DUP4 PUSH1 0x20 DUP3 MUL DUP6 ADD PUSH2 0x15A5 DUP6 PUSH2 0x146F JUMP JUMPDEST DUP1 PUSH1 0x0 JUMPDEST DUP6 DUP2 LT ISZERO PUSH2 0x15E1 JUMPI DUP5 DUP5 SUB DUP10 MSTORE DUP2 MLOAD PUSH2 0x15C2 DUP6 DUP3 PUSH2 0x155D JUMP JUMPDEST SWAP5 POP PUSH2 0x15CD DUP4 PUSH2 0x1571 JUMP JUMPDEST SWAP3 POP PUSH1 0x20 DUP11 ADD SWAP10 POP POP PUSH1 0x1 DUP2 ADD SWAP1 POP PUSH2 0x15A9 JUMP JUMPDEST POP DUP3 SWAP8 POP DUP8 SWAP6 POP POP POP POP POP POP SWAP3 SWAP2 POP POP JUMP JUMPDEST PUSH1 0x0 PUSH1 0x20 DUP3 ADD SWAP1 POP DUP2 DUP2 SUB PUSH1 0x0 DUP4 ADD MSTORE PUSH2 0x160D DUP2 DUP5 PUSH2 0x157E JUMP JUMPDEST SWAP1 POP SWAP3 SWAP2 POP POP JUMP JUMPDEST PUSH2 0x161E DUP2 PUSH2 0x1398 JUMP JUMPDEST DUP2 EQ PUSH2 0x1629 JUMPI PUSH1 0x0 DUP1 REVERT JUMPDEST POP JUMP JUMPDEST PUSH1 0x0 DUP2 CALLDATALOAD SWAP1 POP PUSH2 0x163B DUP2 PUSH2 0x1615 JUMP JUMPDEST SWAP3 SWAP2 POP POP JUMP JUMPDEST PUSH1 0x0 PUSH1 0x20 DUP3 DUP5 SUB SLT ISZERO PUSH2 0x1657 JUMPI PUSH2 0x1656 PUSH2 0x126C JUMP JUMPDEST JUMPDEST PUSH1 0x0 PUSH2 0x1665 DUP5 DUP3 DUP6 ADD PUSH2 0x162C JUMP JUMPDEST SWAP2 POP POP SWAP3 SWAP2 POP POP JUMP JUMPDEST PUSH1 0x0 DUP2 ISZERO ISZERO SWAP1 POP SWAP2 SWAP1 POP JUMP JUMPDEST PUSH2 0x1683 DUP2 PUSH2 0x166E JUMP JUMPDEST DUP3 MSTORE POP POP JUMP JUMPDEST PUSH1 0x0 PUSH1 0x20 DUP3 ADD SWAP1 POP PUSH2 0x169E PUSH1 0x0 DUP4 ADD DUP5 PUSH2 0x167A JUMP JUMPDEST SWAP3 SWAP2 POP POP JUMP JUMPDEST PUSH1 0x0 PUSH1 0xC0 DUP3 ADD SWAP1 POP DUP2 DUP2 SUB PUSH1 0x0 DUP4 ADD MSTORE PUSH2 0x16BE DUP2 DUP10 PUSH2 0x1330 JUMP JUMPDEST SWAP1 POP DUP2 DUP2 SUB PUSH1 0x20 DUP4 ADD MSTORE PUSH2 0x16D2 DUP2 DUP9 PUSH2 0x1330 JUMP JUMPDEST SWAP1 POP PUSH2 0x16E1 PUSH1 0x40 DUP4 ADD DUP8 PUSH2 0x1369 JUMP JUMPDEST PUSH2 0x16EE PUSH1 0x60 DUP4 ADD DUP7 PUSH2 0x1369 JUMP JUMPDEST PUSH2 0x16FB PUSH1 0x80 DUP4 ADD DUP6 PUSH2 0x13AA JUMP JUMPDEST PUSH2 0x1708 PUSH1 0xA0 DUP4 ADD DUP5 PUSH2 0x1369 JUMP JUMPDEST SWAP8 SWAP7 POP POP POP POP POP POP POP JUMP JUMPDEST PUSH1 0x0 DUP1 REVERT JUMPDEST PUSH1 0x0 DUP1 REVERT JUMPDEST PUSH32 0x4E487B7100000000000000000000000000000000000000000000000000000000 PUSH1 0x0 MSTORE PUSH1 0x41 PUSH1 0x4 MSTORE PUSH1 0x24 PUSH1 0x0 REVERT JUMPDEST PUSH2 0x1755 DUP3 PUSH2 0x131F JUMP JUMPDEST DUP2 ADD DUP2 DUP2 LT PUSH8 0xFFFFFFFFFFFFFFFF DUP3 GT OR ISZERO PUSH2 0x1774 JUMPI PUSH2 0x1773 PUSH2 0x171D JUMP JUMPDEST JUMPDEST DUP1 PUSH1 0x40 MSTORE POP POP POP JUMP JUMPDEST PUSH1 0x0 PUSH2 0x1787 PUSH2 0x1262 JUMP JUMPDEST SWAP1 POP PUSH2 0x1793 DUP3 DUP3 PUSH2 0x174C JUMP JUMPDEST SWAP2 SWAP1 POP JUMP JUMPDEST PUSH1 0x0 PUSH8 0xFFFFFFFFFFFFFFFF DUP3 GT ISZERO PUSH2 0x17B3 JUMPI PUSH2 0x17B2 PUSH2 0x171D JUMP JUMPDEST JUMPDEST PUSH2 0x17BC DUP3 PUSH2 0x131F JUMP JUMPDEST SWAP1 POP PUSH1 0x20 DUP2 ADD SWAP1 POP SWAP2 SWAP1 POP JUMP JUMPDEST DUP3 DUP2 DUP4 CALLDATACOPY PUSH1 0x0 DUP4 DUP4 ADD MSTORE POP POP POP JUMP JUMPDEST PUSH1 0x0 PUSH2 0x17EB PUSH2 0x17E6 DUP5 PUSH2 0x1798 JUMP JUMPDEST PUSH2 0x177D JUMP JUMPDEST SWAP1 POP DUP3 DUP2 MSTORE PUSH1 0x20 DUP2 ADD DUP5 DUP5 DUP5 ADD GT ISZERO PUSH2 0x1807 JUMPI PUSH2 0x1806 PUSH2 0x1718 JUMP JUMPDEST JUMPDEST PUSH2 0x1812 DUP5 DUP3 DUP6 PUSH2 0x17C9 JUMP JUMPDEST POP SWAP4 SWAP3 POP POP POP JUMP JUMPDEST PUSH1 0x0 DUP3 PUSH1 0x1F DUP4 ADD SLT PUSH2 0x182F JUMPI PUSH2 0x182E PUSH2 0x1713 JUMP JUMPDEST JUMPDEST DUP2 CALLDATALOAD PUSH2 0x183F DUP5 DUP3 PUSH1 0x20 DUP7 ADD PUSH2 0x17D8 JUMP JUMPDEST SWAP2 POP POP SWAP3 SWAP2 POP POP JUMP JUMPDEST PUSH1 0x0 DUP1 PUSH1 0x40 DUP4 DUP6 SUB SLT ISZERO PUSH2 0x185F JUMPI PUSH2 0x185E PUSH2 0x126C JUMP JUMPDEST JUMPDEST PUSH1 0x0 DUP4 ADD CALLDATALOAD PUSH8 0xFFFFFFFFFFFFFFFF DUP2 GT ISZERO PUSH2 0x187D JUMPI PUSH2 0x187C PUSH2 0x1271 JUMP JUMPDEST JUMPDEST PUSH2 0x1889 DUP6 DUP3 DUP7 ADD PUSH2 0x181A JUMP JUMPDEST SWAP3 POP POP PUSH1 0x20 PUSH2 0x189A DUP6 DUP3 DUP7 ADD PUSH2 0x1297 JUMP JUMPDEST SWAP2 POP POP SWAP3 POP SWAP3 SWAP1 POP JUMP JUMPDEST PUSH1 0x0 DUP2 MLOAD SWAP1 POP SWAP2 SWAP1 POP JUMP JUMPDEST PUSH1 0x0 DUP3 DUP3 MSTORE PUSH1 0x20 DUP3 ADD SWAP1 POP SWAP3 SWAP2 POP POP JUMP JUMPDEST PUSH1 0x0 DUP2 SWAP1 POP PUSH1 0x20 DUP3 ADD SWAP1 POP SWAP2 SWAP1 POP JUMP JUMPDEST PUSH1 0x0 PUSH1 0xC0 DUP4 ADD PUSH1 0x0 DUP4 ADD MLOAD DUP5 DUP3 SUB PUSH1 0x0 DUP7 ADD MSTORE PUSH2 0x18ED DUP3 DUP3 PUSH2 0x1490 JUMP JUMPDEST SWAP2 POP POP PUSH1 0x20 DUP4 ADD MLOAD DUP5 DUP3 SUB PUSH1 0x20 DUP7 ADD MSTORE PUSH2 0x1907 DUP3 DUP3 PUSH2 0x1490 JUMP JUMPDEST SWAP2 POP POP PUSH1 0x40 DUP4 ADD MLOAD PUSH2 0x191C PUSH1 0x40 DUP7 ADD DUP3 PUSH2 0x14C9 JUMP JUMPDEST POP PUSH1 0x60 DUP4 ADD MLOAD PUSH2 0x192F PUSH1 0x60 DUP7 ADD DUP3 PUSH2 0x14C9 JUMP JUMPDEST POP PUSH1 0x80 DUP4 ADD MLOAD PUSH2 0x1942 PUSH1 0x80 DUP7 ADD DUP3 PUSH2 0x14D8 JUMP JUMPDEST POP PUSH1 0xA0 DUP4 ADD MLOAD PUSH2 0x1955 PUSH1 0xA0 DUP7 ADD DUP3 PUSH2 0x14C9 JUMP JUMPDEST POP DUP1 SWAP2 POP POP SWAP3 SWAP2 POP POP JUMP JUMPDEST PUSH1 0x0 PUSH2 0x196C DUP4 DUP4 PUSH2 0x18D0 JUMP JUMPDEST SWAP1 POP SWAP3 SWAP2 POP POP JUMP JUMPDEST PUSH1 0x0 PUSH1 0x20 DUP3 ADD SWAP1 POP SWAP2 SWAP1 POP JUMP JUMPDEST PUSH1 0x0 PUSH2 0x198C DUP3 PUSH2 0x18A4 JUMP JUMPDEST PUSH2 0x1996 DUP2 DUP6 PUSH2 0x18AF JUMP JUMPDEST SWAP4 POP DUP4 PUSH1 0x20 DUP3 MUL DUP6 ADD PUSH2 0x19A8 DUP6 PUSH2 0x18C0 JUMP JUMPDEST DUP1 PUSH1 0x0 JUMPDEST DUP6 DUP2 LT ISZERO PUSH2 0x19E4 JUMPI DUP5 DUP5 SUB DUP10 MSTORE DUP2 MLOAD PUSH2 0x19C5 DUP6 DUP3 PUSH2 0x1960 JUMP JUMPDEST SWAP5 POP PUSH2 0x19D0 DUP4 PUSH2 0x1974 JUMP JUMPDEST SWAP3 POP PUSH1 0x20 DUP11 ADD SWAP10 POP POP PUSH1 0x1 DUP2 ADD SWAP1 POP PUSH2 0x19AC JUMP JUMPDEST POP DUP3 SWAP8 POP DUP8 SWAP6 POP POP POP POP POP POP SWAP3 SWAP2 POP POP JUMP JUMPDEST PUSH1 0x0 PUSH1 0x20 DUP3 ADD SWAP1 POP DUP2 DUP2 SUB PUSH1 0x0 DUP4 ADD MSTORE PUSH2 0x1A10 DUP2 DUP5 PUSH2 0x1981 JUMP JUMPDEST SWAP1 POP SWAP3 SWAP2 POP POP JUMP JUMPDEST PUSH1 0x0 PUSH1 0x20 DUP3 ADD SWAP1 POP PUSH2 0x1A2D PUSH1 0x0 DUP4 ADD DUP5 PUSH2 0x1369 JUMP JUMPDEST SWAP3 SWAP2 POP POP JUMP JUMPDEST PUSH1 0x0 PUSH1 0x20 DUP3 ADD SWAP1 POP PUSH2 0x1A48 PUSH1 0x0 DUP4 ADD DUP5 PUSH2 0x13AA JUMP JUMPDEST SWAP3 SWAP2 POP POP JUMP JUMPDEST PUSH1 0x0 DUP1 PUSH1 0x0 PUSH1 0x60 DUP5 DUP7 SUB SLT ISZERO PUSH2 0x1A67 JUMPI PUSH2 0x1A66 PUSH2 0x126C JUMP JUMPDEST JUMPDEST PUSH1 0x0 DUP5 ADD CALLDATALOAD PUSH8 0xFFFFFFFFFFFFFFFF DUP2 GT ISZERO PUSH2 0x1A85 JUMPI PUSH2 0x1A84 PUSH2 0x1271 JUMP JUMPDEST JUMPDEST PUSH2 0x1A91 DUP7 DUP3 DUP8 ADD PUSH2 0x181A JUMP JUMPDEST SWAP4 POP POP PUSH1 0x20 DUP5 ADD CALLDATALOAD PUSH8 0xFFFFFFFFFFFFFFFF DUP2 GT ISZERO PUSH2 0x1AB2 JUMPI PUSH2 0x1AB1 PUSH2 0x1271 JUMP JUMPDEST JUMPDEST PUSH2 0x1ABE DUP7 DUP3 DUP8 ADD PUSH2 0x181A JUMP JUMPDEST SWAP3 POP POP PUSH1 0x40 PUSH2 0x1ACF DUP7 DUP3 DUP8 ADD PUSH2 0x1297 JUMP JUMPDEST SWAP2 POP POP SWAP3 POP SWAP3 POP SWAP3 JUMP JUMPDEST PUSH32 0x4E487B7100000000000000000000000000000000000000000000000000000000 PUSH1 0x0 MSTORE PUSH1 0x22 PUSH1 0x4 MSTORE PUSH1 0x24 PUSH1 0x0 REVERT JUMPDEST PUSH1 0x0 PUSH1 0x2 DUP3 DIV SWAP1 POP PUSH1 0x1 DUP3 AND DUP1 PUSH2 0x1B20 JUMPI PUSH1 0x7F DUP3 AND SWAP2 POP JUMPDEST PUSH1 0x20 DUP3 LT DUP2 SUB PUSH2 0x1B33 JUMPI PUSH2 0x1B32 PUSH2 0x1AD9 JUMP JUMPDEST JUMPDEST POP SWAP2 SWAP1 POP JUMP JUMPDEST PUSH32 0x416C726561647920566F74657300000000000000000000000000000000000000 PUSH1 0x0 DUP3 ADD MSTORE POP JUMP JUMPDEST PUSH1 0x0 PUSH2 0x1B6F PUSH1 0xD DUP4 PUSH2 0x12E4 JUMP JUMPDEST SWAP2 POP PUSH2 0x1B7A DUP3 PUSH2 0x1B39 JUMP JUMPDEST PUSH1 0x20 DUP3 ADD SWAP1 POP SWAP2 SWAP1 POP JUMP JUMPDEST PUSH1 0x0 PUSH1 0x20 DUP3 ADD SWAP1 POP DUP2 DUP2 SUB PUSH1 0x0 DUP4 ADD MSTORE PUSH2 0x1B9E DUP2 PUSH2 0x1B62 JUMP JUMPDEST SWAP1 POP SWAP2 SWAP1 POP JUMP JUMPDEST PUSH32 0x596F7520617265206E6F74206120766F74657200000000000000000000000000 PUSH1 0x0 DUP3 ADD MSTORE POP JUMP JUMPDEST PUSH1 0x0 PUSH2 0x1BDB PUSH1 0x13 DUP4 PUSH2 0x12E4 JUMP JUMPDEST SWAP2 POP PUSH2 0x1BE6 DUP3 PUSH2 0x1BA5 JUMP JUMPDEST PUSH1 0x20 DUP3 ADD SWAP1 POP SWAP2 SWAP1 POP JUMP JUMPDEST PUSH1 0x0 PUSH1 0x20 DUP3 ADD SWAP1 POP DUP2 DUP2 SUB PUSH1 0x0 DUP4 ADD MSTORE PUSH2 0x1C0A DUP2 PUSH2 0x1BCE JUMP JUMPDEST SWAP1 POP SWAP2 SWAP1 POP JUMP JUMPDEST PUSH32 0x4E487B7100000000000000000000000000000000000000000000000000000000 PUSH1 0x0 MSTORE PUSH1 0x11 PUSH1 0x4 MSTORE PUSH1 0x24 PUSH1 0x0 REVERT JUMPDEST PUSH1 0x0 PUSH2 0x1C4B DUP3 PUSH2 0x1276 JUMP JUMPDEST SWAP2 POP PUSH2 0x1C56 DUP4 PUSH2 0x1276 JUMP JUMPDEST SWAP3 POP DUP3 DUP3 ADD SWAP1 POP DUP1 DUP3 GT ISZERO PUSH2 0x1C6E JUMPI PUSH2 0x1C6D PUSH2 0x1C11 JUMP JUMPDEST JUMPDEST SWAP3 SWAP2 POP POP JUMP JUMPDEST PUSH32 0x566F74696E67206E6F7420737461727465640000000000000000000000000000 PUSH1 0x0 DUP3 ADD MSTORE POP JUMP JUMPDEST PUSH1 0x0 PUSH2 0x1CAA PUSH1 0x12 DUP4 PUSH2 0x12E4 JUMP JUMPDEST SWAP2 POP PUSH2 0x1CB5 DUP3 PUSH2 0x1C74 JUMP JUMPDEST PUSH1 0x20 DUP3 ADD SWAP1 POP SWAP2 SWAP1 POP JUMP JUMPDEST PUSH1 0x0 PUSH1 0x20 DUP3 ADD SWAP1 POP DUP2 DUP2 SUB PUSH1 0x0 DUP4 ADD MSTORE PUSH2 0x1CD9 DUP2 PUSH2 0x1C9D JUMP JUMPDEST SWAP1 POP SWAP2 SWAP1 POP JUMP JUMPDEST PUSH32 0x496E76616C69642043616E646964617465206964000000000000000000000000 PUSH1 0x0 DUP3 ADD MSTORE POP JUMP JUMPDEST PUSH1 0x0 PUSH2 0x1D16 PUSH1 0x14 DUP4 PUSH2 0x12E4 JUMP JUMPDEST SWAP2 POP PUSH2 0x1D21 DUP3 PUSH2 0x1CE0 JUMP JUMPDEST PUSH1 0x20 DUP3 ADD SWAP1 POP SWAP2 SWAP1 POP JUMP JUMPDEST PUSH1 0x0 PUSH1 0x20 DUP3 ADD SWAP1 POP DUP2 DUP2 SUB PUSH1 0x0 DUP4 ADD MSTORE PUSH2 0x1D45 DUP2 PUSH2 0x1D09 JUMP JUMPDEST SWAP1 POP SWAP2 SWAP1 POP JUMP JUMPDEST PUSH1 0x0 PUSH2 0x1D57 DUP3 PUSH2 0x1276 JUMP JUMPDEST SWAP2 POP PUSH32 0xFFFFFFFFFFFFFFFFFFFFFFFFFFFFFFFFFFFFFFFFFFFFFFFFFFFFFFFFFFFFFFFF DUP3 SUB PUSH2 0x1D89 JUMPI PUSH2 0x1D88 PUSH2 0x1C11 JUMP JUMPDEST JUMPDEST PUSH1 0x1 DUP3 ADD SWAP1 POP SWAP2 SWAP1 POP JUMP JUMPDEST PUSH1 0x0 PUSH2 0x1D9F DUP3 PUSH2 0x1276 JUMP JUMPDEST SWAP2 POP PUSH2 0x1DAA DUP4 PUSH2 0x1276 JUMP JUMPDEST SWAP3 POP DUP3 DUP3 SUB SWAP1 POP DUP2 DUP2 GT ISZERO PUSH2 0x1DC2 JUMPI PUSH2 0x1DC1 PUSH2 0x1C11 JUMP JUMPDEST JUMPDEST SWAP3 SWAP2 POP POP JUMP JUMPDEST PUSH32 0x4E487B7100000000000000000000000000000000000000000000000000000000 PUSH1 0x0 MSTORE PUSH1 0x32 PUSH1 0x4 MSTORE PUSH1 0x24 PUSH1 0x0 REVERT JUMPDEST PUSH32 0x4164647265737320416C72656164792072656769737465726564000000000000 PUSH1 0x0 DUP3 ADD MSTORE POP JUMP JUMPDEST PUSH1 0x0 PUSH2 0x1E2D PUSH1 0x1A DUP4 PUSH2 0x12E4 JUMP JUMPDEST SWAP2 POP PUSH2 0x1E38 DUP3 PUSH2 0x1DF7 JUMP JUMPDEST PUSH1 0x20 DUP3 ADD SWAP1 POP SWAP2 SWAP1 POP JUMP JUMPDEST PUSH1 0x0 PUSH1 0x20 DUP3 ADD SWAP1 POP DUP2 DUP2 SUB PUSH1 0x0 DUP4 ADD MSTORE PUSH2 0x1E5C DUP2 PUSH2 0x1E20 JUMP JUMPDEST SWAP1 POP SWAP2 SWAP1 POP JUMP JUMPDEST PUSH32 0x436E696320416C72656164792072656769737465726564000000000000000000 PUSH1 0x0 DUP3 ADD MSTORE POP JUMP JUMPDEST PUSH1 0x0 PUSH2 0x1E99 PUSH1 0x17 DUP4 PUSH2 0x12E4 JUMP JUMPDEST SWAP2 POP PUSH2 0x1EA4 DUP3 PUSH2 0x1E63 JUMP JUMPDEST PUSH1 0x20 DUP3 ADD SWAP1 POP SWAP2 SWAP1 POP JUMP JUMPDEST PUSH1 0x0 PUSH1 0x20 DUP3 ADD SWAP1 POP DUP2 DUP2 SUB PUSH1 0x0 DUP4 ADD MSTORE PUSH2 0x1EC8 DUP2 PUSH2 0x1E8C JUMP JUMPDEST SWAP1 POP SWAP2 SWAP1 POP JUMP JUMPDEST PUSH1 0x0 DUP2 SWAP1 POP DUP2 PUSH1 0x0 MSTORE PUSH1 0x20 PUSH1 0x0 KECCAK256 SWAP1 POP SWAP2 SWAP1 POP JUMP JUMPDEST PUSH1 0x0 PUSH1 0x20 PUSH1 0x1F DUP4 ADD DIV SWAP1 POP SWAP2 SWAP1 POP JUMP JUMPDEST PUSH1 0x0 DUP3 DUP3 SHL SWAP1 POP SWAP3 SWAP2 POP POP JUMP JUMPDEST PUSH1 0x0 PUSH1 0x8 DUP4 MUL PUSH2 0x1F31 PUSH32 0xFFFFFFFFFFFFFFFFFFFFFFFFFFFFFFFFFFFFFFFFFFFFFFFFFFFFFFFFFFFFFFFF DUP3 PUSH2 0x1EF4 JUMP JUMPDEST PUSH2 0x1F3B DUP7 DUP4 PUSH2 0x1EF4 JUMP JUMPDEST SWAP6 POP DUP1 NOT DUP5 AND SWAP4 POP DUP1 DUP7 AND DUP5 OR SWAP3 POP POP POP SWAP4 SWAP3 POP POP POP JUMP JUMPDEST PUSH1 0x0 DUP2 SWAP1 POP SWAP2 SWAP1 POP JUMP JUMPDEST PUSH1 0x0 PUSH2 0x1F78 PUSH2 0x1F73 PUSH2 0x1F6E DUP5 PUSH2 0x1276 JUMP JUMPDEST PUSH2 0x1F53 JUMP JUMPDEST PUSH2 0x1276 JUMP JUMPDEST SWAP1 POP SWAP2 SWAP1 POP JUMP JUMPDEST PUSH1 0x0 DUP2 SWAP1 POP SWAP2 SWAP1 POP JUMP JUMPDEST PUSH2 0x1F92 DUP4 PUSH2 0x1F5D JUMP JUMPDEST PUSH2 0x1FA6 PUSH2 0x1F9E DUP3 PUSH2 0x1F7F JUMP JUMPDEST DUP5 DUP5 SLOAD PUSH2 0x1F01 JUMP JUMPDEST DUP3 SSTORE POP POP POP POP JUMP JUMPDEST PUSH1 0x0 SWAP1 JUMP JUMPDEST PUSH2 0x1FBB PUSH2 0x1FAE JUMP JUMPDEST PUSH2 0x1FC6 DUP2 DUP5 DUP5 PUSH2 0x1F89 JUMP JUMPDEST POP POP POP JUMP JUMPDEST JUMPDEST DUP2 DUP2 LT ISZERO PUSH2 0x1FEA JUMPI PUSH2 0x1FDF PUSH1 0x0 DUP3 PUSH2 0x1FB3 JUMP JUMPDEST PUSH1 0x1 DUP2 ADD SWAP1 POP PUSH2 0x1FCC JUMP JUMPDEST POP POP JUMP JUMPDEST PUSH1 0x1F DUP3 GT ISZERO PUSH2 0x202F JUMPI PUSH2 0x2000 DUP2 PUSH2 0x1ECF JUMP JUMPDEST PUSH2 0x2009 DUP5 PUSH2 0x1EE4 JUMP JUMPDEST DUP2 ADD PUSH1 0x20 DUP6 LT ISZERO PUSH2 0x2018 JUMPI DUP2 SWAP1 POP JUMPDEST PUSH2 0x202C PUSH2 0x2024 DUP6 PUSH2 0x1EE4 JUMP JUMPDEST DUP4 ADD DUP3 PUSH2 0x1FCB JUMP JUMPDEST POP POP JUMPDEST POP POP POP JUMP JUMPDEST PUSH1 0x0 DUP3 DUP3 SHR SWAP1 POP SWAP3 SWAP2 POP POP JUMP JUMPDEST PUSH1 0x0 PUSH2 0x2052 PUSH1 0x0 NOT DUP5 PUSH1 0x8 MUL PUSH2 0x2034 JUMP JUMPDEST NOT DUP1 DUP4 AND SWAP2 POP POP SWAP3 SWAP2 POP POP JUMP JUMPDEST PUSH1 0x0 PUSH2 0x206B DUP4 DUP4 PUSH2 0x2041 JUMP JUMPDEST SWAP2 POP DUP3 PUSH1 0x2 MUL DUP3 OR SWAP1 POP SWAP3 SWAP2 POP POP JUMP JUMPDEST PUSH2 0x2084 DUP3 PUSH2 0x12D9 JUMP JUMPDEST PUSH8 0xFFFFFFFFFFFFFFFF DUP2 GT ISZERO PUSH2 0x209D JUMPI PUSH2 0x209C PUSH2 0x171D JUMP JUMPDEST JUMPDEST PUSH2 0x20A7 DUP3 SLOAD PUSH2 0x1B08 JUMP JUMPDEST PUSH2 0x20B2 DUP3 DUP3 DUP6 PUSH2 0x1FEE JUMP JUMPDEST PUSH1 0x0 PUSH1 0x20 SWAP1 POP PUSH1 0x1F DUP4 GT PUSH1 0x1 DUP2 EQ PUSH2 0x20E5 JUMPI PUSH1 0x0 DUP5 ISZERO PUSH2 0x20D3 JUMPI DUP3 DUP8 ADD MLOAD SWAP1 POP JUMPDEST PUSH2 0x20DD DUP6 DUP3 PUSH2 0x205F JUMP JUMPDEST DUP7 SSTORE POP PUSH2 0x2145 JUMP JUMPDEST PUSH1 0x1F NOT DUP5 AND PUSH2 0x20F3 DUP7 PUSH2 0x1ECF JUMP JUMPDEST PUSH1 0x0 JUMPDEST DUP3 DUP2 LT ISZERO PUSH2 0x211B JUMPI DUP5 DUP10 ADD MLOAD DUP3 SSTORE PUSH1 0x1 DUP3 ADD SWAP2 POP PUSH1 0x20 DUP6 ADD SWAP5 POP PUSH1 0x20 DUP2 ADD SWAP1 POP PUSH2 0x20F6 JUMP JUMPDEST DUP7 DUP4 LT ISZERO PUSH2 0x2138 JUMPI DUP5 DUP10 ADD MLOAD PUSH2 0x2134 PUSH1 0x1F DUP10 AND DUP3 PUSH2 0x2041 JUMP JUMPDEST DUP4 SSTORE POP JUMPDEST PUSH1 0x1 PUSH1 0x2 DUP9 MUL ADD DUP9 SSTORE POP POP POP JUMPDEST POP POP POP POP POP POP JUMP JUMPDEST PUSH32 0x416C726561647920526567697374657265640000000000000000000000000000 PUSH1 0x0 DUP3 ADD MSTORE POP JUMP JUMPDEST PUSH1 0x0 PUSH2 0x2183 PUSH1 0x12 DUP4 PUSH2 0x12E4 JUMP JUMPDEST SWAP2 POP PUSH2 0x218E DUP3 PUSH2 0x214D JUMP JUMPDEST PUSH1 0x20 DUP3 ADD SWAP1 POP SWAP2 SWAP1 POP JUMP JUMPDEST PUSH1 0x0 PUSH1 0x20 DUP3 ADD SWAP1 POP DUP2 DUP2 SUB PUSH1 0x0 DUP4 ADD MSTORE PUSH2 0x21B2 DUP2 PUSH2 0x2176 JUMP JUMPDEST SWAP1 POP SWAP2 SWAP1 POP JUMP INVALID LOG2 PUSH5 0x6970667358 0x22 SLT KECCAK256 SDIV SWAP10 0xC DUP16 DUP4 0xBC 0xA5 0xE 0xAD SWAP1 PUSH26 0x344F52C957064440ACD2E1382A5FA9C80F1EBA1A8264736F6C63 NUMBER STOP ADDMOD SLT STOP CALLER "
				},
				"gasEstimates": {
					"creation": {
						"codeDepositCost": "1737400",
						"executionCost": "92389",
						"totalCost": "1829789"
					},
					"external": {
						"Canidate_List()": "infinite",
						"Vote(uint256,uint256)": "infinite",
						"Voter_Registration(string,uint256)": "infinite",
						"candidate_data(uint256)": "infinite",
						"candidate_registration(string,string,uint256)": "infinite",
						"nextcandidateid()": "2517",
						"start_voting()": "2451",
						"voter_data(uint256)": "infinite",
						"voter_verification(address)": "infinite",
						"votercnic(uint256)": "infinite",
						"voterr(uint256)": "infinite",
						"voters_list()": "infinite",
						"winner()": "2558"
					},
					"internal": {
						"candidate_verification(address)": "infinite"
					}
				},
				"methodIdentifiers": {
					"Canidate_List()": "a01ac424",
					"Vote(uint256,uint256)": "33952ef9",
					"Voter_Registration(string,uint256)": "9911760a",
					"candidate_data(uint256)": "81a52116",
					"candidate_registration(string,string,uint256)": "e9f91410",
					"nextcandidateid()": "eb307f32",
					"start_voting()": "b24aa34e",
					"voter_data(uint256)": "0d34f2e2",
					"voter_verification(address)": "76e810fa",
					"votercnic(uint256)": "985be1e9",
					"voterr(uint256)": "a01cb141",
					"voters_list()": "4a21ba54",
					"winner()": "dfbf53ae"
				}
			},
			"storageLayout": {
				"storage": [
					{
						"astId": 3,
						"contract": "voting 2.sol:Voting",
						"label": "election_commission",
						"offset": 0,
						"slot": "0",
						"type": "t_address"
					},
					{
						"astId": 5,
						"contract": "voting 2.sol:Voting",
						"label": "winner",
						"offset": 0,
						"slot": "1",
						"type": "t_address"
					},
					{
						"astId": 32,
						"contract": "voting 2.sol:Voting",
						"label": "nextvoterid",
						"offset": 0,
						"slot": "2",
						"type": "t_uint256"
					},
					{
						"astId": 35,
						"contract": "voting 2.sol:Voting",
						"label": "nextcandidateid",
						"offset": 0,
						"slot": "3",
						"type": "t_uint256"
					},
					{
						"astId": 38,
						"contract": "voting 2.sol:Voting",
						"label": "voting_time",
						"offset": 0,
						"slot": "4",
						"type": "t_uint256"
					},
					{
						"astId": 40,
						"contract": "voting 2.sol:Voting",
						"label": "stop_voting",
						"offset": 0,
						"slot": "5",
						"type": "t_bool"
					},
					{
						"astId": 44,
						"contract": "voting 2.sol:Voting",
						"label": "start_voting",
						"offset": 0,
						"slot": "6",
						"type": "t_uint256"
					},
					{
						"astId": 49,
						"contract": "voting 2.sol:Voting",
						"label": "voter_data",
						"offset": 0,
						"slot": "7",
						"type": "t_mapping(t_uint256,t_struct(voter_details)16_storage)"
					},
					{
						"astId": 54,
						"contract": "voting 2.sol:Voting",
						"label": "candidate_data",
						"offset": 0,
						"slot": "8",
						"type": "t_mapping(t_uint256,t_struct(candidate)29_storage)"
					},
					{
						"astId": 59,
						"contract": "voting 2.sol:Voting",
						"label": "voterr",
						"offset": 0,
						"slot": "9",
						"type": "t_mapping(t_uint256,t_struct(voter_details)16_storage)"
					}
				],
				"types": {
					"t_address": {
						"encoding": "inplace",
						"label": "address",
						"numberOfBytes": "20"
					},
					"t_bool": {
						"encoding": "inplace",
						"label": "bool",
						"numberOfBytes": "1"
					},
					"t_mapping(t_uint256,t_struct(candidate)29_storage)": {
						"encoding": "mapping",
						"key": "t_uint256",
						"label": "mapping(uint256 => struct Voting.candidate)",
						"numberOfBytes": "32",
						"value": "t_struct(candidate)29_storage"
					},
					"t_mapping(t_uint256,t_struct(voter_details)16_storage)": {
						"encoding": "mapping",
						"key": "t_uint256",
						"label": "mapping(uint256 => struct Voting.voter_details)",
						"numberOfBytes": "32",
						"value": "t_struct(voter_details)16_storage"
					},
					"t_string_storage": {
						"encoding": "bytes",
						"label": "string",
						"numberOfBytes": "32"
					},
					"t_struct(candidate)29_storage": {
						"encoding": "inplace",
						"label": "struct Voting.candidate",
						"members": [
							{
								"astId": 18,
								"contract": "voting 2.sol:Voting",
								"label": "name",
								"offset": 0,
								"slot": "0",
								"type": "t_string_storage"
							},
							{
								"astId": 20,
								"contract": "voting 2.sol:Voting",
								"label": "party",
								"offset": 0,
								"slot": "1",
								"type": "t_string_storage"
							},
							{
								"astId": 22,
								"contract": "voting 2.sol:Voting",
								"label": "cnicc",
								"offset": 0,
								"slot": "2",
								"type": "t_uint256"
							},
							{
								"astId": 24,
								"contract": "voting 2.sol:Voting",
								"label": "candidate_id",
								"offset": 0,
								"slot": "3",
								"type": "t_uint256"
							},
							{
								"astId": 26,
								"contract": "voting 2.sol:Voting",
								"label": "candidate_address",
								"offset": 0,
								"slot": "4",
								"type": "t_address"
							},
							{
								"astId": 28,
								"contract": "voting 2.sol:Voting",
								"label": "votes",
								"offset": 0,
								"slot": "5",
								"type": "t_uint256"
							}
						],
						"numberOfBytes": "192"
					},
					"t_struct(voter_details)16_storage": {
						"encoding": "inplace",
						"label": "struct Voting.voter_details",
						"members": [
							{
								"astId": 7,
								"contract": "voting 2.sol:Voting",
								"label": "name",
								"offset": 0,
								"slot": "0",
								"type": "t_string_storage"
							},
							{
								"astId": 9,
								"contract": "voting 2.sol:Voting",
								"label": "cnic",
								"offset": 0,
								"slot": "1",
								"type": "t_uint256"
							},
							{
								"astId": 11,
								"contract": "voting 2.sol:Voting",
								"label": "voter_id",
								"offset": 0,
								"slot": "2",
								"type": "t_uint256"
							},
							{
								"astId": 13,
								"contract": "voting 2.sol:Voting",
								"label": "voted_candidate",
								"offset": 0,
								"slot": "3",
								"type": "t_uint256"
							},
							{
								"astId": 15,
								"contract": "voting 2.sol:Voting",
								"label": "voter_address",
								"offset": 0,
								"slot": "4",
								"type": "t_address"
							}
						],
						"numberOfBytes": "160"
					},
					"t_uint256": {
						"encoding": "inplace",
						"label": "uint256",
						"numberOfBytes": "32"
					}
				}
			},
			"userdoc": {
				"kind": "user",
				"methods": {},
				"version": 1
			}
		}
	}
}