{
	"second.sol": {
		"mapp": {
			"abi": [
				{
					"inputs": [
						{
							"internalType": "uint256",
							"name": "",
							"type": "uint256"
						}
					],
					"name": "es",
					"outputs": [
						{
							"internalType": "string",
							"name": "name",
							"type": "string"
						},
						{
							"internalType": "uint256",
							"name": "roll",
							"type": "uint256"
						},
						{
							"internalType": "uint256",
							"name": "idd",
							"type": "uint256"
						},
						{
							"internalType": "uint256",
							"name": "id",
							"type": "uint256"
						}
					],
					"stateMutability": "view",
					"type": "function"
				},
				{
					"inputs": [
						{
							"internalType": "uint256",
							"name": "iddd",
							"type": "uint256"
						},
						{
							"internalType": "string",
							"name": "val",
							"type": "string"
						},
						{
							"internalType": "uint256",
							"name": "roll",
							"type": "uint256"
						}
					],
					"name": "uts",
					"outputs": [],
					"stateMutability": "nonpayable",
					"type": "function"
				}
			],
			"devdoc": {
				"kind": "dev",
				"methods": {},
				"version": 1
			},
			"evm": {
				"assembly": "    /* \"second.sol\":2403:2885  contract mapp{... */\n  mstore(0x40, 0x80)\n    /* \"second.sol\":2685:2686  1 */\n  0x01\n    /* \"second.sol\":2677:2686  uint id=1 */\n  dup1\n  sstore\n    /* \"second.sol\":2403:2885  contract mapp{... */\n  callvalue\n  dup1\n  iszero\n  tag_1\n  jumpi\n  0x00\n  dup1\n  revert\ntag_1:\n  pop\n  dataSize(sub_0)\n  dup1\n  dataOffset(sub_0)\n  0x00\n  codecopy\n  0x00\n  return\nstop\n\nsub_0: assembly {\n        /* \"second.sol\":2403:2885  contract mapp{... */\n      mstore(0x40, 0x80)\n      callvalue\n      dup1\n      iszero\n      tag_1\n      jumpi\n      0x00\n      dup1\n      revert\n    tag_1:\n      pop\n      jumpi(tag_2, lt(calldatasize, 0x04))\n      shr(0xe0, calldataload(0x00))\n      dup1\n      0x0c5b29de\n      eq\n      tag_3\n      jumpi\n      dup1\n      0x815eab5b\n      eq\n      tag_4\n      jumpi\n    tag_2:\n      0x00\n      dup1\n      revert\n        /* \"second.sol\":2693:2882  function uts (uint iddd,string memory val, uint roll) public {... */\n    tag_3:\n      tag_5\n      0x04\n      dup1\n      calldatasize\n      sub\n      dup2\n      add\n      swap1\n      tag_6\n      swap2\n      swap1\n      tag_7\n      jump\t// in\n    tag_6:\n      tag_8\n      jump\t// in\n    tag_5:\n      stop\n        /* \"second.sol\":2553:2586  mapping (uint=>student) public es */\n    tag_4:\n      tag_9\n      0x04\n      dup1\n      calldatasize\n      sub\n      dup2\n      add\n      swap1\n      tag_10\n      swap2\n      swap1\n      tag_11\n      jump\t// in\n    tag_10:\n      tag_12\n      jump\t// in\n    tag_9:\n      mload(0x40)\n      tag_13\n      swap5\n      swap4\n      swap3\n      swap2\n      swap1\n      tag_14\n      jump\t// in\n    tag_13:\n      mload(0x40)\n      dup1\n      swap2\n      sub\n      swap1\n      return\n        /* \"second.sol\":2693:2882  function uts (uint iddd,string memory val, uint roll) public {... */\n    tag_8:\n        /* \"second.sol\":2777:2780  val */\n      dup2\n        /* \"second.sol\":2765:2767  es */\n      0x00\n        /* \"second.sol\":2765:2771  es[id] */\n      dup1\n        /* \"second.sol\":2768:2770  id */\n      sload(0x01)\n        /* \"second.sol\":2765:2771  es[id] */\n      dup2\n      mstore\n      0x20\n      add\n      swap1\n      dup2\n      mstore\n      0x20\n      add\n      0x00\n      keccak256\n        /* \"second.sol\":2765:2776  es[id].name */\n      0x00\n      add\n        /* \"second.sol\":2765:2780  es[id].name=val */\n      swap1\n      dup2\n      tag_16\n      swap2\n      swap1\n      tag_17\n      jump\t// in\n    tag_16:\n      pop\n        /* \"second.sol\":2804:2808  roll */\n      dup1\n        /* \"second.sol\":2792:2794  es */\n      0x00\n        /* \"second.sol\":2792:2798  es[id] */\n      dup1\n        /* \"second.sol\":2795:2797  id */\n      sload(0x01)\n        /* \"second.sol\":2792:2798  es[id] */\n      dup2\n      mstore\n      0x20\n      add\n      swap1\n      dup2\n      mstore\n      0x20\n      add\n      0x00\n      keccak256\n        /* \"second.sol\":2792:2803  es[id].roll */\n      0x01\n      add\n        /* \"second.sol\":2792:2808  es[id].roll=roll */\n      dup2\n      swap1\n      sstore\n      pop\n        /* \"second.sol\":2831:2835  iddd */\n      dup3\n        /* \"second.sol\":2820:2822  es */\n      0x00\n        /* \"second.sol\":2820:2826  es[id] */\n      dup1\n        /* \"second.sol\":2823:2825  id */\n      sload(0x01)\n        /* \"second.sol\":2820:2826  es[id] */\n      dup2\n      mstore\n      0x20\n      add\n      swap1\n      dup2\n      mstore\n      0x20\n      add\n      0x00\n      keccak256\n        /* \"second.sol\":2820:2830  es[id].idd */\n      0x02\n      add\n        /* \"second.sol\":2820:2835  es[id].idd=iddd */\n      dup2\n      swap1\n      sstore\n      pop\n        /* \"second.sol\":2857:2859  id */\n      sload(0x01)\n        /* \"second.sol\":2847:2849  es */\n      0x00\n        /* \"second.sol\":2847:2853  es[id] */\n      dup1\n        /* \"second.sol\":2850:2852  id */\n      sload(0x01)\n        /* \"second.sol\":2847:2853  es[id] */\n      dup2\n      mstore\n      0x20\n      add\n      swap1\n      dup2\n      mstore\n      0x20\n      add\n      0x00\n      keccak256\n        /* \"second.sol\":2847:2856  es[id].id */\n      0x03\n      add\n        /* \"second.sol\":2847:2859  es[id].id=id */\n      dup2\n      swap1\n      sstore\n      pop\n        /* \"second.sol\":2870:2872  id */\n      0x01\n      0x00\n        /* \"second.sol\":2870:2874  id++ */\n      dup2\n      sload\n      dup1\n      swap3\n      swap2\n      swap1\n      tag_18\n      swap1\n      tag_19\n      jump\t// in\n    tag_18:\n      swap2\n      swap1\n      pop\n      sstore\n      pop\n        /* \"second.sol\":2693:2882  function uts (uint iddd,string memory val, uint roll) public {... */\n      pop\n      pop\n      pop\n      jump\t// out\n        /* \"second.sol\":2553:2586  mapping (uint=>student) public es */\n    tag_12:\n      mstore(0x20, 0x00)\n      dup1\n      0x00\n      mstore\n      keccak256(0x00, 0x40)\n      0x00\n      swap2\n      pop\n      swap1\n      pop\n      dup1\n      0x00\n      add\n      dup1\n      sload\n      tag_20\n      swap1\n      tag_21\n      jump\t// in\n    tag_20:\n      dup1\n      0x1f\n      add\n      0x20\n      dup1\n      swap2\n      div\n      mul\n      0x20\n      add\n      mload(0x40)\n      swap1\n      dup2\n      add\n      0x40\n      mstore\n      dup1\n      swap3\n      swap2\n      swap1\n      dup2\n      dup2\n      mstore\n      0x20\n      add\n      dup3\n      dup1\n      sload\n      tag_22\n      swap1\n      tag_21\n      jump\t// in\n    tag_22:\n      dup1\n      iszero\n      tag_23\n      jumpi\n      dup1\n      0x1f\n      lt\n      tag_24\n      jumpi\n      0x0100\n      dup1\n      dup4\n      sload\n      div\n      mul\n      dup4\n      mstore\n      swap2\n      0x20\n      add\n      swap2\n      jump(tag_23)\n    tag_24:\n      dup3\n      add\n      swap2\n      swap1\n      0x00\n      mstore\n      keccak256(0x00, 0x20)\n      swap1\n    tag_25:\n      dup2\n      sload\n      dup2\n      mstore\n      swap1\n      0x01\n      add\n      swap1\n      0x20\n      add\n      dup1\n      dup4\n      gt\n      tag_25\n      jumpi\n      dup3\n      swap1\n      sub\n      0x1f\n      and\n      dup3\n      add\n      swap2\n    tag_23:\n      pop\n      pop\n      pop\n      pop\n      pop\n      swap1\n      dup1\n      0x01\n      add\n      sload\n      swap1\n      dup1\n      0x02\n      add\n      sload\n      swap1\n      dup1\n      0x03\n      add\n      sload\n      swap1\n      pop\n      dup5\n      jump\t// out\n        /* \"#utility.yul\":7:82   */\n    tag_26:\n        /* \"#utility.yul\":40:46   */\n      0x00\n        /* \"#utility.yul\":73:75   */\n      0x40\n        /* \"#utility.yul\":67:76   */\n      mload\n        /* \"#utility.yul\":57:76   */\n      swap1\n      pop\n        /* \"#utility.yul\":7:82   */\n      swap1\n      jump\t// out\n        /* \"#utility.yul\":88:205   */\n    tag_27:\n        /* \"#utility.yul\":197:198   */\n      0x00\n        /* \"#utility.yul\":194:195   */\n      dup1\n        /* \"#utility.yul\":187:199   */\n      revert\n        /* \"#utility.yul\":211:328   */\n    tag_28:\n        /* \"#utility.yul\":320:321   */\n      0x00\n        /* \"#utility.yul\":317:318   */\n      dup1\n        /* \"#utility.yul\":310:322   */\n      revert\n        /* \"#utility.yul\":334:411   */\n    tag_29:\n        /* \"#utility.yul\":371:378   */\n      0x00\n        /* \"#utility.yul\":400:405   */\n      dup2\n        /* \"#utility.yul\":389:405   */\n      swap1\n      pop\n        /* \"#utility.yul\":334:411   */\n      swap2\n      swap1\n      pop\n      jump\t// out\n        /* \"#utility.yul\":417:539   */\n    tag_30:\n        /* \"#utility.yul\":490:514   */\n      tag_70\n        /* \"#utility.yul\":508:513   */\n      dup2\n        /* \"#utility.yul\":490:514   */\n      tag_29\n      jump\t// in\n    tag_70:\n        /* \"#utility.yul\":483:488   */\n      dup2\n        /* \"#utility.yul\":480:515   */\n      eq\n        /* \"#utility.yul\":470:533   */\n      tag_71\n      jumpi\n        /* \"#utility.yul\":529:530   */\n      0x00\n        /* \"#utility.yul\":526:527   */\n      dup1\n        /* \"#utility.yul\":519:531   */\n      revert\n        /* \"#utility.yul\":470:533   */\n    tag_71:\n        /* \"#utility.yul\":417:539   */\n      pop\n      jump\t// out\n        /* \"#utility.yul\":545:684   */\n    tag_31:\n        /* \"#utility.yul\":591:596   */\n      0x00\n        /* \"#utility.yul\":629:635   */\n      dup2\n        /* \"#utility.yul\":616:636   */\n      calldataload\n        /* \"#utility.yul\":607:636   */\n      swap1\n      pop\n        /* \"#utility.yul\":645:678   */\n      tag_73\n        /* \"#utility.yul\":672:677   */\n      dup2\n        /* \"#utility.yul\":645:678   */\n      tag_30\n      jump\t// in\n    tag_73:\n        /* \"#utility.yul\":545:684   */\n      swap3\n      swap2\n      pop\n      pop\n      jump\t// out\n        /* \"#utility.yul\":690:807   */\n    tag_32:\n        /* \"#utility.yul\":799:800   */\n      0x00\n        /* \"#utility.yul\":796:797   */\n      dup1\n        /* \"#utility.yul\":789:801   */\n      revert\n        /* \"#utility.yul\":813:930   */\n    tag_33:\n        /* \"#utility.yul\":922:923   */\n      0x00\n        /* \"#utility.yul\":919:920   */\n      dup1\n        /* \"#utility.yul\":912:924   */\n      revert\n        /* \"#utility.yul\":936:1038   */\n    tag_34:\n        /* \"#utility.yul\":977:983   */\n      0x00\n        /* \"#utility.yul\":1028:1030   */\n      0x1f\n        /* \"#utility.yul\":1024:1031   */\n      not\n        /* \"#utility.yul\":1019:1021   */\n      0x1f\n        /* \"#utility.yul\":1012:1017   */\n      dup4\n        /* \"#utility.yul\":1008:1022   */\n      add\n        /* \"#utility.yul\":1004:1032   */\n      and\n        /* \"#utility.yul\":994:1032   */\n      swap1\n      pop\n        /* \"#utility.yul\":936:1038   */\n      swap2\n      swap1\n      pop\n      jump\t// out\n        /* \"#utility.yul\":1044:1224   */\n    tag_35:\n        /* \"#utility.yul\":1092:1169   */\n      0x4e487b7100000000000000000000000000000000000000000000000000000000\n        /* \"#utility.yul\":1089:1090   */\n      0x00\n        /* \"#utility.yul\":1082:1170   */\n      mstore\n        /* \"#utility.yul\":1189:1193   */\n      0x41\n        /* \"#utility.yul\":1186:1187   */\n      0x04\n        /* \"#utility.yul\":1179:1194   */\n      mstore\n        /* \"#utility.yul\":1213:1217   */\n      0x24\n        /* \"#utility.yul\":1210:1211   */\n      0x00\n        /* \"#utility.yul\":1203:1218   */\n      revert\n        /* \"#utility.yul\":1230:1511   */\n    tag_36:\n        /* \"#utility.yul\":1313:1340   */\n      tag_79\n        /* \"#utility.yul\":1335:1339   */\n      dup3\n        /* \"#utility.yul\":1313:1340   */\n      tag_34\n      jump\t// in\n    tag_79:\n        /* \"#utility.yul\":1305:1311   */\n      dup2\n        /* \"#utility.yul\":1301:1341   */\n      add\n        /* \"#utility.yul\":1443:1449   */\n      dup2\n        /* \"#utility.yul\":1431:1441   */\n      dup2\n        /* \"#utility.yul\":1428:1450   */\n      lt\n        /* \"#utility.yul\":1407:1425   */\n      0xffffffffffffffff\n        /* \"#utility.yul\":1395:1405   */\n      dup3\n        /* \"#utility.yul\":1392:1426   */\n      gt\n        /* \"#utility.yul\":1389:1451   */\n      or\n        /* \"#utility.yul\":1386:1474   */\n      iszero\n      tag_80\n      jumpi\n        /* \"#utility.yul\":1454:1472   */\n      tag_81\n      tag_35\n      jump\t// in\n    tag_81:\n        /* \"#utility.yul\":1386:1474   */\n    tag_80:\n        /* \"#utility.yul\":1494:1504   */\n      dup1\n        /* \"#utility.yul\":1490:1492   */\n      0x40\n        /* \"#utility.yul\":1483:1505   */\n      mstore\n        /* \"#utility.yul\":1273:1511   */\n      pop\n        /* \"#utility.yul\":1230:1511   */\n      pop\n      pop\n      jump\t// out\n        /* \"#utility.yul\":1517:1646   */\n    tag_37:\n        /* \"#utility.yul\":1551:1557   */\n      0x00\n        /* \"#utility.yul\":1578:1598   */\n      tag_83\n      tag_26\n      jump\t// in\n    tag_83:\n        /* \"#utility.yul\":1568:1598   */\n      swap1\n      pop\n        /* \"#utility.yul\":1607:1640   */\n      tag_84\n        /* \"#utility.yul\":1635:1639   */\n      dup3\n        /* \"#utility.yul\":1627:1633   */\n      dup3\n        /* \"#utility.yul\":1607:1640   */\n      tag_36\n      jump\t// in\n    tag_84:\n        /* \"#utility.yul\":1517:1646   */\n      swap2\n      swap1\n      pop\n      jump\t// out\n        /* \"#utility.yul\":1652:1960   */\n    tag_38:\n        /* \"#utility.yul\":1714:1718   */\n      0x00\n        /* \"#utility.yul\":1804:1822   */\n      0xffffffffffffffff\n        /* \"#utility.yul\":1796:1802   */\n      dup3\n        /* \"#utility.yul\":1793:1823   */\n      gt\n        /* \"#utility.yul\":1790:1846   */\n      iszero\n      tag_86\n      jumpi\n        /* \"#utility.yul\":1826:1844   */\n      tag_87\n      tag_35\n      jump\t// in\n    tag_87:\n        /* \"#utility.yul\":1790:1846   */\n    tag_86:\n        /* \"#utility.yul\":1864:1893   */\n      tag_88\n        /* \"#utility.yul\":1886:1892   */\n      dup3\n        /* \"#utility.yul\":1864:1893   */\n      tag_34\n      jump\t// in\n    tag_88:\n        /* \"#utility.yul\":1856:1893   */\n      swap1\n      pop\n        /* \"#utility.yul\":1948:1952   */\n      0x20\n        /* \"#utility.yul\":1942:1946   */\n      dup2\n        /* \"#utility.yul\":1938:1953   */\n      add\n        /* \"#utility.yul\":1930:1953   */\n      swap1\n      pop\n        /* \"#utility.yul\":1652:1960   */\n      swap2\n      swap1\n      pop\n      jump\t// out\n        /* \"#utility.yul\":1966:2112   */\n    tag_39:\n        /* \"#utility.yul\":2063:2069   */\n      dup3\n        /* \"#utility.yul\":2058:2061   */\n      dup2\n        /* \"#utility.yul\":2053:2056   */\n      dup4\n        /* \"#utility.yul\":2040:2070   */\n      calldatacopy\n        /* \"#utility.yul\":2104:2105   */\n      0x00\n        /* \"#utility.yul\":2095:2101   */\n      dup4\n        /* \"#utility.yul\":2090:2093   */\n      dup4\n        /* \"#utility.yul\":2086:2102   */\n      add\n        /* \"#utility.yul\":2079:2106   */\n      mstore\n        /* \"#utility.yul\":1966:2112   */\n      pop\n      pop\n      pop\n      jump\t// out\n        /* \"#utility.yul\":2118:2543   */\n    tag_40:\n        /* \"#utility.yul\":2196:2201   */\n      0x00\n        /* \"#utility.yul\":2221:2287   */\n      tag_91\n        /* \"#utility.yul\":2237:2286   */\n      tag_92\n        /* \"#utility.yul\":2279:2285   */\n      dup5\n        /* \"#utility.yul\":2237:2286   */\n      tag_38\n      jump\t// in\n    tag_92:\n        /* \"#utility.yul\":2221:2287   */\n      tag_37\n      jump\t// in\n    tag_91:\n        /* \"#utility.yul\":2212:2287   */\n      swap1\n      pop\n        /* \"#utility.yul\":2310:2316   */\n      dup3\n        /* \"#utility.yul\":2303:2308   */\n      dup2\n        /* \"#utility.yul\":2296:2317   */\n      mstore\n        /* \"#utility.yul\":2348:2352   */\n      0x20\n        /* \"#utility.yul\":2341:2346   */\n      dup2\n        /* \"#utility.yul\":2337:2353   */\n      add\n        /* \"#utility.yul\":2386:2389   */\n      dup5\n        /* \"#utility.yul\":2377:2383   */\n      dup5\n        /* \"#utility.yul\":2372:2375   */\n      dup5\n        /* \"#utility.yul\":2368:2384   */\n      add\n        /* \"#utility.yul\":2365:2390   */\n      gt\n        /* \"#utility.yul\":2362:2474   */\n      iszero\n      tag_93\n      jumpi\n        /* \"#utility.yul\":2393:2472   */\n      tag_94\n      tag_33\n      jump\t// in\n    tag_94:\n        /* \"#utility.yul\":2362:2474   */\n    tag_93:\n        /* \"#utility.yul\":2483:2537   */\n      tag_95\n        /* \"#utility.yul\":2530:2536   */\n      dup5\n        /* \"#utility.yul\":2525:2528   */\n      dup3\n        /* \"#utility.yul\":2520:2523   */\n      dup6\n        /* \"#utility.yul\":2483:2537   */\n      tag_39\n      jump\t// in\n    tag_95:\n        /* \"#utility.yul\":2202:2543   */\n      pop\n        /* \"#utility.yul\":2118:2543   */\n      swap4\n      swap3\n      pop\n      pop\n      pop\n      jump\t// out\n        /* \"#utility.yul\":2563:2903   */\n    tag_41:\n        /* \"#utility.yul\":2619:2624   */\n      0x00\n        /* \"#utility.yul\":2668:2671   */\n      dup3\n        /* \"#utility.yul\":2661:2665   */\n      0x1f\n        /* \"#utility.yul\":2653:2659   */\n      dup4\n        /* \"#utility.yul\":2649:2666   */\n      add\n        /* \"#utility.yul\":2645:2672   */\n      slt\n        /* \"#utility.yul\":2635:2757   */\n      tag_97\n      jumpi\n        /* \"#utility.yul\":2676:2755   */\n      tag_98\n      tag_32\n      jump\t// in\n    tag_98:\n        /* \"#utility.yul\":2635:2757   */\n    tag_97:\n        /* \"#utility.yul\":2793:2799   */\n      dup2\n        /* \"#utility.yul\":2780:2800   */\n      calldataload\n        /* \"#utility.yul\":2818:2897   */\n      tag_99\n        /* \"#utility.yul\":2893:2896   */\n      dup5\n        /* \"#utility.yul\":2885:2891   */\n      dup3\n        /* \"#utility.yul\":2878:2882   */\n      0x20\n        /* \"#utility.yul\":2870:2876   */\n      dup7\n        /* \"#utility.yul\":2866:2883   */\n      add\n        /* \"#utility.yul\":2818:2897   */\n      tag_40\n      jump\t// in\n    tag_99:\n        /* \"#utility.yul\":2809:2897   */\n      swap2\n      pop\n        /* \"#utility.yul\":2625:2903   */\n      pop\n        /* \"#utility.yul\":2563:2903   */\n      swap3\n      swap2\n      pop\n      pop\n      jump\t// out\n        /* \"#utility.yul\":2909:3708   */\n    tag_7:\n        /* \"#utility.yul\":2996:3002   */\n      0x00\n        /* \"#utility.yul\":3004:3010   */\n      dup1\n        /* \"#utility.yul\":3012:3018   */\n      0x00\n        /* \"#utility.yul\":3061:3063   */\n      0x60\n        /* \"#utility.yul\":3049:3058   */\n      dup5\n        /* \"#utility.yul\":3040:3047   */\n      dup7\n        /* \"#utility.yul\":3036:3059   */\n      sub\n        /* \"#utility.yul\":3032:3064   */\n      slt\n        /* \"#utility.yul\":3029:3148   */\n      iszero\n      tag_101\n      jumpi\n        /* \"#utility.yul\":3067:3146   */\n      tag_102\n      tag_27\n      jump\t// in\n    tag_102:\n        /* \"#utility.yul\":3029:3148   */\n    tag_101:\n        /* \"#utility.yul\":3187:3188   */\n      0x00\n        /* \"#utility.yul\":3212:3265   */\n      tag_103\n        /* \"#utility.yul\":3257:3264   */\n      dup7\n        /* \"#utility.yul\":3248:3254   */\n      dup3\n        /* \"#utility.yul\":3237:3246   */\n      dup8\n        /* \"#utility.yul\":3233:3255   */\n      add\n        /* \"#utility.yul\":3212:3265   */\n      tag_31\n      jump\t// in\n    tag_103:\n        /* \"#utility.yul\":3202:3265   */\n      swap4\n      pop\n        /* \"#utility.yul\":3158:3275   */\n      pop\n        /* \"#utility.yul\":3342:3344   */\n      0x20\n        /* \"#utility.yul\":3331:3340   */\n      dup5\n        /* \"#utility.yul\":3327:3345   */\n      add\n        /* \"#utility.yul\":3314:3346   */\n      calldataload\n        /* \"#utility.yul\":3373:3391   */\n      0xffffffffffffffff\n        /* \"#utility.yul\":3365:3371   */\n      dup2\n        /* \"#utility.yul\":3362:3392   */\n      gt\n        /* \"#utility.yul\":3359:3476   */\n      iszero\n      tag_104\n      jumpi\n        /* \"#utility.yul\":3395:3474   */\n      tag_105\n      tag_28\n      jump\t// in\n    tag_105:\n        /* \"#utility.yul\":3359:3476   */\n    tag_104:\n        /* \"#utility.yul\":3500:3563   */\n      tag_106\n        /* \"#utility.yul\":3555:3562   */\n      dup7\n        /* \"#utility.yul\":3546:3552   */\n      dup3\n        /* \"#utility.yul\":3535:3544   */\n      dup8\n        /* \"#utility.yul\":3531:3553   */\n      add\n        /* \"#utility.yul\":3500:3563   */\n      tag_41\n      jump\t// in\n    tag_106:\n        /* \"#utility.yul\":3490:3563   */\n      swap3\n      pop\n        /* \"#utility.yul\":3285:3573   */\n      pop\n        /* \"#utility.yul\":3612:3614   */\n      0x40\n        /* \"#utility.yul\":3638:3691   */\n      tag_107\n        /* \"#utility.yul\":3683:3690   */\n      dup7\n        /* \"#utility.yul\":3674:3680   */\n      dup3\n        /* \"#utility.yul\":3663:3672   */\n      dup8\n        /* \"#utility.yul\":3659:3681   */\n      add\n        /* \"#utility.yul\":3638:3691   */\n      tag_31\n      jump\t// in\n    tag_107:\n        /* \"#utility.yul\":3628:3691   */\n      swap2\n      pop\n        /* \"#utility.yul\":3583:3701   */\n      pop\n        /* \"#utility.yul\":2909:3708   */\n      swap3\n      pop\n      swap3\n      pop\n      swap3\n      jump\t// out\n        /* \"#utility.yul\":3714:4043   */\n    tag_11:\n        /* \"#utility.yul\":3773:3779   */\n      0x00\n        /* \"#utility.yul\":3822:3824   */\n      0x20\n        /* \"#utility.yul\":3810:3819   */\n      dup3\n        /* \"#utility.yul\":3801:3808   */\n      dup5\n        /* \"#utility.yul\":3797:3820   */\n      sub\n        /* \"#utility.yul\":3793:3825   */\n      slt\n        /* \"#utility.yul\":3790:3909   */\n      iszero\n      tag_109\n      jumpi\n        /* \"#utility.yul\":3828:3907   */\n      tag_110\n      tag_27\n      jump\t// in\n    tag_110:\n        /* \"#utility.yul\":3790:3909   */\n    tag_109:\n        /* \"#utility.yul\":3948:3949   */\n      0x00\n        /* \"#utility.yul\":3973:4026   */\n      tag_111\n        /* \"#utility.yul\":4018:4025   */\n      dup5\n        /* \"#utility.yul\":4009:4015   */\n      dup3\n        /* \"#utility.yul\":3998:4007   */\n      dup6\n        /* \"#utility.yul\":3994:4016   */\n      add\n        /* \"#utility.yul\":3973:4026   */\n      tag_31\n      jump\t// in\n    tag_111:\n        /* \"#utility.yul\":3963:4026   */\n      swap2\n      pop\n        /* \"#utility.yul\":3919:4036   */\n      pop\n        /* \"#utility.yul\":3714:4043   */\n      swap3\n      swap2\n      pop\n      pop\n      jump\t// out\n        /* \"#utility.yul\":4049:4148   */\n    tag_42:\n        /* \"#utility.yul\":4101:4107   */\n      0x00\n        /* \"#utility.yul\":4135:4140   */\n      dup2\n        /* \"#utility.yul\":4129:4141   */\n      mload\n        /* \"#utility.yul\":4119:4141   */\n      swap1\n      pop\n        /* \"#utility.yul\":4049:4148   */\n      swap2\n      swap1\n      pop\n      jump\t// out\n        /* \"#utility.yul\":4154:4323   */\n    tag_43:\n        /* \"#utility.yul\":4238:4249   */\n      0x00\n        /* \"#utility.yul\":4272:4278   */\n      dup3\n        /* \"#utility.yul\":4267:4270   */\n      dup3\n        /* \"#utility.yul\":4260:4279   */\n      mstore\n        /* \"#utility.yul\":4312:4316   */\n      0x20\n        /* \"#utility.yul\":4307:4310   */\n      dup3\n        /* \"#utility.yul\":4303:4317   */\n      add\n        /* \"#utility.yul\":4288:4317   */\n      swap1\n      pop\n        /* \"#utility.yul\":4154:4323   */\n      swap3\n      swap2\n      pop\n      pop\n      jump\t// out\n        /* \"#utility.yul\":4329:4575   */\n    tag_44:\n        /* \"#utility.yul\":4410:4411   */\n      0x00\n        /* \"#utility.yul\":4420:4533   */\n    tag_115:\n        /* \"#utility.yul\":4434:4440   */\n      dup4\n        /* \"#utility.yul\":4431:4432   */\n      dup2\n        /* \"#utility.yul\":4428:4441   */\n      lt\n        /* \"#utility.yul\":4420:4533   */\n      iszero\n      tag_117\n      jumpi\n        /* \"#utility.yul\":4519:4520   */\n      dup1\n        /* \"#utility.yul\":4514:4517   */\n      dup3\n        /* \"#utility.yul\":4510:4521   */\n      add\n        /* \"#utility.yul\":4504:4522   */\n      mload\n        /* \"#utility.yul\":4500:4501   */\n      dup2\n        /* \"#utility.yul\":4495:4498   */\n      dup5\n        /* \"#utility.yul\":4491:4502   */\n      add\n        /* \"#utility.yul\":4484:4523   */\n      mstore\n        /* \"#utility.yul\":4456:4458   */\n      0x20\n        /* \"#utility.yul\":4453:4454   */\n      dup2\n        /* \"#utility.yul\":4449:4459   */\n      add\n        /* \"#utility.yul\":4444:4459   */\n      swap1\n      pop\n        /* \"#utility.yul\":4420:4533   */\n      jump(tag_115)\n    tag_117:\n        /* \"#utility.yul\":4567:4568   */\n      0x00\n        /* \"#utility.yul\":4558:4564   */\n      dup5\n        /* \"#utility.yul\":4553:4556   */\n      dup5\n        /* \"#utility.yul\":4549:4565   */\n      add\n        /* \"#utility.yul\":4542:4569   */\n      mstore\n        /* \"#utility.yul\":4391:4575   */\n      pop\n        /* \"#utility.yul\":4329:4575   */\n      pop\n      pop\n      pop\n      jump\t// out\n        /* \"#utility.yul\":4581:4958   */\n    tag_45:\n        /* \"#utility.yul\":4669:4672   */\n      0x00\n        /* \"#utility.yul\":4697:4736   */\n      tag_119\n        /* \"#utility.yul\":4730:4735   */\n      dup3\n        /* \"#utility.yul\":4697:4736   */\n      tag_42\n      jump\t// in\n    tag_119:\n        /* \"#utility.yul\":4752:4823   */\n      tag_120\n        /* \"#utility.yul\":4816:4822   */\n      dup2\n        /* \"#utility.yul\":4811:4814   */\n      dup6\n        /* \"#utility.yul\":4752:4823   */\n      tag_43\n      jump\t// in\n    tag_120:\n        /* \"#utility.yul\":4745:4823   */\n      swap4\n      pop\n        /* \"#utility.yul\":4832:4897   */\n      tag_121\n        /* \"#utility.yul\":4890:4896   */\n      dup2\n        /* \"#utility.yul\":4885:4888   */\n      dup6\n        /* \"#utility.yul\":4878:4882   */\n      0x20\n        /* \"#utility.yul\":4871:4876   */\n      dup7\n        /* \"#utility.yul\":4867:4883   */\n      add\n        /* \"#utility.yul\":4832:4897   */\n      tag_44\n      jump\t// in\n    tag_121:\n        /* \"#utility.yul\":4922:4951   */\n      tag_122\n        /* \"#utility.yul\":4944:4950   */\n      dup2\n        /* \"#utility.yul\":4922:4951   */\n      tag_34\n      jump\t// in\n    tag_122:\n        /* \"#utility.yul\":4917:4920   */\n      dup5\n        /* \"#utility.yul\":4913:4952   */\n      add\n        /* \"#utility.yul\":4906:4952   */\n      swap2\n      pop\n        /* \"#utility.yul\":4673:4958   */\n      pop\n        /* \"#utility.yul\":4581:4958   */\n      swap3\n      swap2\n      pop\n      pop\n      jump\t// out\n        /* \"#utility.yul\":4964:5082   */\n    tag_46:\n        /* \"#utility.yul\":5051:5075   */\n      tag_124\n        /* \"#utility.yul\":5069:5074   */\n      dup2\n        /* \"#utility.yul\":5051:5075   */\n      tag_29\n      jump\t// in\n    tag_124:\n        /* \"#utility.yul\":5046:5049   */\n      dup3\n        /* \"#utility.yul\":5039:5076   */\n      mstore\n        /* \"#utility.yul\":4964:5082   */\n      pop\n      pop\n      jump\t// out\n        /* \"#utility.yul\":5088:5732   */\n    tag_14:\n        /* \"#utility.yul\":5285:5289   */\n      0x00\n        /* \"#utility.yul\":5323:5326   */\n      0x80\n        /* \"#utility.yul\":5312:5321   */\n      dup3\n        /* \"#utility.yul\":5308:5327   */\n      add\n        /* \"#utility.yul\":5300:5327   */\n      swap1\n      pop\n        /* \"#utility.yul\":5373:5382   */\n      dup2\n        /* \"#utility.yul\":5367:5371   */\n      dup2\n        /* \"#utility.yul\":5363:5383   */\n      sub\n        /* \"#utility.yul\":5359:5360   */\n      0x00\n        /* \"#utility.yul\":5348:5357   */\n      dup4\n        /* \"#utility.yul\":5344:5361   */\n      add\n        /* \"#utility.yul\":5337:5384   */\n      mstore\n        /* \"#utility.yul\":5401:5479   */\n      tag_126\n        /* \"#utility.yul\":5474:5478   */\n      dup2\n        /* \"#utility.yul\":5465:5471   */\n      dup8\n        /* \"#utility.yul\":5401:5479   */\n      tag_45\n      jump\t// in\n    tag_126:\n        /* \"#utility.yul\":5393:5479   */\n      swap1\n      pop\n        /* \"#utility.yul\":5489:5561   */\n      tag_127\n        /* \"#utility.yul\":5557:5559   */\n      0x20\n        /* \"#utility.yul\":5546:5555   */\n      dup4\n        /* \"#utility.yul\":5542:5560   */\n      add\n        /* \"#utility.yul\":5533:5539   */\n      dup7\n        /* \"#utility.yul\":5489:5561   */\n      tag_46\n      jump\t// in\n    tag_127:\n        /* \"#utility.yul\":5571:5643   */\n      tag_128\n        /* \"#utility.yul\":5639:5641   */\n      0x40\n        /* \"#utility.yul\":5628:5637   */\n      dup4\n        /* \"#utility.yul\":5624:5642   */\n      add\n        /* \"#utility.yul\":5615:5621   */\n      dup6\n        /* \"#utility.yul\":5571:5643   */\n      tag_46\n      jump\t// in\n    tag_128:\n        /* \"#utility.yul\":5653:5725   */\n      tag_129\n        /* \"#utility.yul\":5721:5723   */\n      0x60\n        /* \"#utility.yul\":5710:5719   */\n      dup4\n        /* \"#utility.yul\":5706:5724   */\n      add\n        /* \"#utility.yul\":5697:5703   */\n      dup5\n        /* \"#utility.yul\":5653:5725   */\n      tag_46\n      jump\t// in\n    tag_129:\n        /* \"#utility.yul\":5088:5732   */\n      swap6\n      swap5\n      pop\n      pop\n      pop\n      pop\n      pop\n      jump\t// out\n        /* \"#utility.yul\":5738:5918   */\n    tag_47:\n        /* \"#utility.yul\":5786:5863   */\n      0x4e487b7100000000000000000000000000000000000000000000000000000000\n        /* \"#utility.yul\":5783:5784   */\n      0x00\n        /* \"#utility.yul\":5776:5864   */\n      mstore\n        /* \"#utility.yul\":5883:5887   */\n      0x22\n        /* \"#utility.yul\":5880:5881   */\n      0x04\n        /* \"#utility.yul\":5873:5888   */\n      mstore\n        /* \"#utility.yul\":5907:5911   */\n      0x24\n        /* \"#utility.yul\":5904:5905   */\n      0x00\n        /* \"#utility.yul\":5897:5912   */\n      revert\n        /* \"#utility.yul\":5924:6244   */\n    tag_21:\n        /* \"#utility.yul\":5968:5974   */\n      0x00\n        /* \"#utility.yul\":6005:6006   */\n      0x02\n        /* \"#utility.yul\":5999:6003   */\n      dup3\n        /* \"#utility.yul\":5995:6007   */\n      div\n        /* \"#utility.yul\":5985:6007   */\n      swap1\n      pop\n        /* \"#utility.yul\":6052:6053   */\n      0x01\n        /* \"#utility.yul\":6046:6050   */\n      dup3\n        /* \"#utility.yul\":6042:6054   */\n      and\n        /* \"#utility.yul\":6073:6091   */\n      dup1\n        /* \"#utility.yul\":6063:6144   */\n      tag_132\n      jumpi\n        /* \"#utility.yul\":6129:6133   */\n      0x7f\n        /* \"#utility.yul\":6121:6127   */\n      dup3\n        /* \"#utility.yul\":6117:6134   */\n      and\n        /* \"#utility.yul\":6107:6134   */\n      swap2\n      pop\n        /* \"#utility.yul\":6063:6144   */\n    tag_132:\n        /* \"#utility.yul\":6191:6193   */\n      0x20\n        /* \"#utility.yul\":6183:6189   */\n      dup3\n        /* \"#utility.yul\":6180:6194   */\n      lt\n        /* \"#utility.yul\":6160:6178   */\n      dup2\n        /* \"#utility.yul\":6157:6195   */\n      sub\n        /* \"#utility.yul\":6154:6238   */\n      tag_133\n      jumpi\n        /* \"#utility.yul\":6210:6228   */\n      tag_134\n      tag_47\n      jump\t// in\n    tag_134:\n        /* \"#utility.yul\":6154:6238   */\n    tag_133:\n        /* \"#utility.yul\":5975:6244   */\n      pop\n        /* \"#utility.yul\":5924:6244   */\n      swap2\n      swap1\n      pop\n      jump\t// out\n        /* \"#utility.yul\":6250:6391   */\n    tag_48:\n        /* \"#utility.yul\":6299:6303   */\n      0x00\n        /* \"#utility.yul\":6322:6325   */\n      dup2\n        /* \"#utility.yul\":6314:6325   */\n      swap1\n      pop\n        /* \"#utility.yul\":6345:6348   */\n      dup2\n        /* \"#utility.yul\":6342:6343   */\n      0x00\n        /* \"#utility.yul\":6335:6349   */\n      mstore\n        /* \"#utility.yul\":6379:6383   */\n      0x20\n        /* \"#utility.yul\":6376:6377   */\n      0x00\n        /* \"#utility.yul\":6366:6384   */\n      keccak256\n        /* \"#utility.yul\":6358:6384   */\n      swap1\n      pop\n        /* \"#utility.yul\":6250:6391   */\n      swap2\n      swap1\n      pop\n      jump\t// out\n        /* \"#utility.yul\":6397:6490   */\n    tag_49:\n        /* \"#utility.yul\":6434:6440   */\n      0x00\n        /* \"#utility.yul\":6481:6483   */\n      0x20\n        /* \"#utility.yul\":6476:6478   */\n      0x1f\n        /* \"#utility.yul\":6469:6474   */\n      dup4\n        /* \"#utility.yul\":6465:6479   */\n      add\n        /* \"#utility.yul\":6461:6484   */\n      div\n        /* \"#utility.yul\":6451:6484   */\n      swap1\n      pop\n        /* \"#utility.yul\":6397:6490   */\n      swap2\n      swap1\n      pop\n      jump\t// out\n        /* \"#utility.yul\":6496:6603   */\n    tag_50:\n        /* \"#utility.yul\":6540:6548   */\n      0x00\n        /* \"#utility.yul\":6590:6595   */\n      dup3\n        /* \"#utility.yul\":6584:6588   */\n      dup3\n        /* \"#utility.yul\":6580:6596   */\n      shl\n        /* \"#utility.yul\":6559:6596   */\n      swap1\n      pop\n        /* \"#utility.yul\":6496:6603   */\n      swap3\n      swap2\n      pop\n      pop\n      jump\t// out\n        /* \"#utility.yul\":6609:7002   */\n    tag_51:\n        /* \"#utility.yul\":6678:6684   */\n      0x00\n        /* \"#utility.yul\":6728:6729   */\n      0x08\n        /* \"#utility.yul\":6716:6726   */\n      dup4\n        /* \"#utility.yul\":6712:6730   */\n      mul\n        /* \"#utility.yul\":6751:6848   */\n      tag_139\n        /* \"#utility.yul\":6781:6847   */\n      0xffffffffffffffffffffffffffffffffffffffffffffffffffffffffffffffff\n        /* \"#utility.yul\":6770:6779   */\n      dup3\n        /* \"#utility.yul\":6751:6848   */\n      tag_50\n      jump\t// in\n    tag_139:\n        /* \"#utility.yul\":6869:6908   */\n      tag_140\n        /* \"#utility.yul\":6899:6907   */\n      dup7\n        /* \"#utility.yul\":6888:6897   */\n      dup4\n        /* \"#utility.yul\":6869:6908   */\n      tag_50\n      jump\t// in\n    tag_140:\n        /* \"#utility.yul\":6857:6908   */\n      swap6\n      pop\n        /* \"#utility.yul\":6941:6945   */\n      dup1\n        /* \"#utility.yul\":6937:6946   */\n      not\n        /* \"#utility.yul\":6930:6935   */\n      dup5\n        /* \"#utility.yul\":6926:6947   */\n      and\n        /* \"#utility.yul\":6917:6947   */\n      swap4\n      pop\n        /* \"#utility.yul\":6990:6994   */\n      dup1\n        /* \"#utility.yul\":6980:6988   */\n      dup7\n        /* \"#utility.yul\":6976:6995   */\n      and\n        /* \"#utility.yul\":6969:6974   */\n      dup5\n        /* \"#utility.yul\":6966:6996   */\n      or\n        /* \"#utility.yul\":6956:6996   */\n      swap3\n      pop\n        /* \"#utility.yul\":6685:7002   */\n      pop\n      pop\n        /* \"#utility.yul\":6609:7002   */\n      swap4\n      swap3\n      pop\n      pop\n      pop\n      jump\t// out\n        /* \"#utility.yul\":7008:7068   */\n    tag_52:\n        /* \"#utility.yul\":7036:7039   */\n      0x00\n        /* \"#utility.yul\":7057:7062   */\n      dup2\n        /* \"#utility.yul\":7050:7062   */\n      swap1\n      pop\n        /* \"#utility.yul\":7008:7068   */\n      swap2\n      swap1\n      pop\n      jump\t// out\n        /* \"#utility.yul\":7074:7216   */\n    tag_53:\n        /* \"#utility.yul\":7124:7133   */\n      0x00\n        /* \"#utility.yul\":7157:7210   */\n      tag_143\n        /* \"#utility.yul\":7175:7209   */\n      tag_144\n        /* \"#utility.yul\":7184:7208   */\n      tag_145\n        /* \"#utility.yul\":7202:7207   */\n      dup5\n        /* \"#utility.yul\":7184:7208   */\n      tag_29\n      jump\t// in\n    tag_145:\n        /* \"#utility.yul\":7175:7209   */\n      tag_52\n      jump\t// in\n    tag_144:\n        /* \"#utility.yul\":7157:7210   */\n      tag_29\n      jump\t// in\n    tag_143:\n        /* \"#utility.yul\":7144:7210   */\n      swap1\n      pop\n        /* \"#utility.yul\":7074:7216   */\n      swap2\n      swap1\n      pop\n      jump\t// out\n        /* \"#utility.yul\":7222:7297   */\n    tag_54:\n        /* \"#utility.yul\":7265:7268   */\n      0x00\n        /* \"#utility.yul\":7286:7291   */\n      dup2\n        /* \"#utility.yul\":7279:7291   */\n      swap1\n      pop\n        /* \"#utility.yul\":7222:7297   */\n      swap2\n      swap1\n      pop\n      jump\t// out\n        /* \"#utility.yul\":7303:7572   */\n    tag_55:\n        /* \"#utility.yul\":7413:7452   */\n      tag_148\n        /* \"#utility.yul\":7444:7451   */\n      dup4\n        /* \"#utility.yul\":7413:7452   */\n      tag_53\n      jump\t// in\n    tag_148:\n        /* \"#utility.yul\":7474:7565   */\n      tag_149\n        /* \"#utility.yul\":7523:7564   */\n      tag_150\n        /* \"#utility.yul\":7547:7563   */\n      dup3\n        /* \"#utility.yul\":7523:7564   */\n      tag_54\n      jump\t// in\n    tag_150:\n        /* \"#utility.yul\":7515:7521   */\n      dup5\n        /* \"#utility.yul\":7508:7512   */\n      dup5\n        /* \"#utility.yul\":7502:7513   */\n      sload\n        /* \"#utility.yul\":7474:7565   */\n      tag_51\n      jump\t// in\n    tag_149:\n        /* \"#utility.yul\":7468:7472   */\n      dup3\n        /* \"#utility.yul\":7461:7566   */\n      sstore\n        /* \"#utility.yul\":7379:7572   */\n      pop\n        /* \"#utility.yul\":7303:7572   */\n      pop\n      pop\n      pop\n      jump\t// out\n        /* \"#utility.yul\":7578:7651   */\n    tag_56:\n        /* \"#utility.yul\":7623:7626   */\n      0x00\n        /* \"#utility.yul\":7578:7651   */\n      swap1\n      jump\t// out\n        /* \"#utility.yul\":7657:7846   */\n    tag_57:\n        /* \"#utility.yul\":7734:7766   */\n      tag_153\n      tag_56\n      jump\t// in\n    tag_153:\n        /* \"#utility.yul\":7775:7840   */\n      tag_154\n        /* \"#utility.yul\":7833:7839   */\n      dup2\n        /* \"#utility.yul\":7825:7831   */\n      dup5\n        /* \"#utility.yul\":7819:7823   */\n      dup5\n        /* \"#utility.yul\":7775:7840   */\n      tag_55\n      jump\t// in\n    tag_154:\n        /* \"#utility.yul\":7710:7846   */\n      pop\n        /* \"#utility.yul\":7657:7846   */\n      pop\n      pop\n      jump\t// out\n        /* \"#utility.yul\":7852:8038   */\n    tag_58:\n        /* \"#utility.yul\":7912:8032   */\n    tag_156:\n        /* \"#utility.yul\":7929:7932   */\n      dup2\n        /* \"#utility.yul\":7922:7927   */\n      dup2\n        /* \"#utility.yul\":7919:7933   */\n      lt\n        /* \"#utility.yul\":7912:8032   */\n      iszero\n      tag_158\n      jumpi\n        /* \"#utility.yul\":7983:8022   */\n      tag_159\n        /* \"#utility.yul\":8020:8021   */\n      0x00\n        /* \"#utility.yul\":8013:8018   */\n      dup3\n        /* \"#utility.yul\":7983:8022   */\n      tag_57\n      jump\t// in\n    tag_159:\n        /* \"#utility.yul\":7956:7957   */\n      0x01\n        /* \"#utility.yul\":7949:7954   */\n      dup2\n        /* \"#utility.yul\":7945:7958   */\n      add\n        /* \"#utility.yul\":7936:7958   */\n      swap1\n      pop\n        /* \"#utility.yul\":7912:8032   */\n      jump(tag_156)\n    tag_158:\n        /* \"#utility.yul\":7852:8038   */\n      pop\n      pop\n      jump\t// out\n        /* \"#utility.yul\":8044:8587   */\n    tag_59:\n        /* \"#utility.yul\":8145:8147   */\n      0x1f\n        /* \"#utility.yul\":8140:8143   */\n      dup3\n        /* \"#utility.yul\":8137:8148   */\n      gt\n        /* \"#utility.yul\":8134:8580   */\n      iszero\n      tag_161\n      jumpi\n        /* \"#utility.yul\":8179:8217   */\n      tag_162\n        /* \"#utility.yul\":8211:8216   */\n      dup2\n        /* \"#utility.yul\":8179:8217   */\n      tag_48\n      jump\t// in\n    tag_162:\n        /* \"#utility.yul\":8263:8292   */\n      tag_163\n        /* \"#utility.yul\":8281:8291   */\n      dup5\n        /* \"#utility.yul\":8263:8292   */\n      tag_49\n      jump\t// in\n    tag_163:\n        /* \"#utility.yul\":8253:8261   */\n      dup2\n        /* \"#utility.yul\":8249:8293   */\n      add\n        /* \"#utility.yul\":8446:8448   */\n      0x20\n        /* \"#utility.yul\":8434:8444   */\n      dup6\n        /* \"#utility.yul\":8431:8449   */\n      lt\n        /* \"#utility.yul\":8428:8477   */\n      iszero\n      tag_164\n      jumpi\n        /* \"#utility.yul\":8467:8475   */\n      dup2\n        /* \"#utility.yul\":8452:8475   */\n      swap1\n      pop\n        /* \"#utility.yul\":8428:8477   */\n    tag_164:\n        /* \"#utility.yul\":8490:8570   */\n      tag_165\n        /* \"#utility.yul\":8546:8568   */\n      tag_166\n        /* \"#utility.yul\":8564:8567   */\n      dup6\n        /* \"#utility.yul\":8546:8568   */\n      tag_49\n      jump\t// in\n    tag_166:\n        /* \"#utility.yul\":8536:8544   */\n      dup4\n        /* \"#utility.yul\":8532:8569   */\n      add\n        /* \"#utility.yul\":8519:8530   */\n      dup3\n        /* \"#utility.yul\":8490:8570   */\n      tag_58\n      jump\t// in\n    tag_165:\n        /* \"#utility.yul\":8149:8580   */\n      pop\n      pop\n        /* \"#utility.yul\":8134:8580   */\n    tag_161:\n        /* \"#utility.yul\":8044:8587   */\n      pop\n      pop\n      pop\n      jump\t// out\n        /* \"#utility.yul\":8593:8710   */\n    tag_60:\n        /* \"#utility.yul\":8647:8655   */\n      0x00\n        /* \"#utility.yul\":8697:8702   */\n      dup3\n        /* \"#utility.yul\":8691:8695   */\n      dup3\n        /* \"#utility.yul\":8687:8703   */\n      shr\n        /* \"#utility.yul\":8666:8703   */\n      swap1\n      pop\n        /* \"#utility.yul\":8593:8710   */\n      swap3\n      swap2\n      pop\n      pop\n      jump\t// out\n        /* \"#utility.yul\":8716:8885   */\n    tag_61:\n        /* \"#utility.yul\":8760:8766   */\n      0x00\n        /* \"#utility.yul\":8793:8844   */\n      tag_169\n        /* \"#utility.yul\":8841:8842   */\n      0x00\n        /* \"#utility.yul\":8837:8843   */\n      not\n        /* \"#utility.yul\":8829:8834   */\n      dup5\n        /* \"#utility.yul\":8826:8827   */\n      0x08\n        /* \"#utility.yul\":8822:8835   */\n      mul\n        /* \"#utility.yul\":8793:8844   */\n      tag_60\n      jump\t// in\n    tag_169:\n        /* \"#utility.yul\":8789:8845   */\n      not\n        /* \"#utility.yul\":8874:8878   */\n      dup1\n        /* \"#utility.yul\":8868:8872   */\n      dup4\n        /* \"#utility.yul\":8864:8879   */\n      and\n        /* \"#utility.yul\":8854:8879   */\n      swap2\n      pop\n        /* \"#utility.yul\":8767:8885   */\n      pop\n        /* \"#utility.yul\":8716:8885   */\n      swap3\n      swap2\n      pop\n      pop\n      jump\t// out\n        /* \"#utility.yul\":8890:9185   */\n    tag_62:\n        /* \"#utility.yul\":8966:8970   */\n      0x00\n        /* \"#utility.yul\":9112:9141   */\n      tag_171\n        /* \"#utility.yul\":9137:9140   */\n      dup4\n        /* \"#utility.yul\":9131:9135   */\n      dup4\n        /* \"#utility.yul\":9112:9141   */\n      tag_61\n      jump\t// in\n    tag_171:\n        /* \"#utility.yul\":9104:9141   */\n      swap2\n      pop\n        /* \"#utility.yul\":9174:9177   */\n      dup3\n        /* \"#utility.yul\":9171:9172   */\n      0x02\n        /* \"#utility.yul\":9167:9178   */\n      mul\n        /* \"#utility.yul\":9161:9165   */\n      dup3\n        /* \"#utility.yul\":9158:9179   */\n      or\n        /* \"#utility.yul\":9150:9179   */\n      swap1\n      pop\n        /* \"#utility.yul\":8890:9185   */\n      swap3\n      swap2\n      pop\n      pop\n      jump\t// out\n        /* \"#utility.yul\":9190:10585   */\n    tag_17:\n        /* \"#utility.yul\":9307:9344   */\n      tag_173\n        /* \"#utility.yul\":9340:9343   */\n      dup3\n        /* \"#utility.yul\":9307:9344   */\n      tag_42\n      jump\t// in\n    tag_173:\n        /* \"#utility.yul\":9409:9427   */\n      0xffffffffffffffff\n        /* \"#utility.yul\":9401:9407   */\n      dup2\n        /* \"#utility.yul\":9398:9428   */\n      gt\n        /* \"#utility.yul\":9395:9451   */\n      iszero\n      tag_174\n      jumpi\n        /* \"#utility.yul\":9431:9449   */\n      tag_175\n      tag_35\n      jump\t// in\n    tag_175:\n        /* \"#utility.yul\":9395:9451   */\n    tag_174:\n        /* \"#utility.yul\":9475:9513   */\n      tag_176\n        /* \"#utility.yul\":9507:9511   */\n      dup3\n        /* \"#utility.yul\":9501:9512   */\n      sload\n        /* \"#utility.yul\":9475:9513   */\n      tag_21\n      jump\t// in\n    tag_176:\n        /* \"#utility.yul\":9560:9627   */\n      tag_177\n        /* \"#utility.yul\":9620:9626   */\n      dup3\n        /* \"#utility.yul\":9612:9618   */\n      dup3\n        /* \"#utility.yul\":9606:9610   */\n      dup6\n        /* \"#utility.yul\":9560:9627   */\n      tag_59\n      jump\t// in\n    tag_177:\n        /* \"#utility.yul\":9654:9655   */\n      0x00\n        /* \"#utility.yul\":9678:9682   */\n      0x20\n        /* \"#utility.yul\":9665:9682   */\n      swap1\n      pop\n        /* \"#utility.yul\":9710:9712   */\n      0x1f\n        /* \"#utility.yul\":9702:9708   */\n      dup4\n        /* \"#utility.yul\":9699:9713   */\n      gt\n        /* \"#utility.yul\":9727:9728   */\n      0x01\n        /* \"#utility.yul\":9722:10340   */\n      dup2\n      eq\n      tag_179\n      jumpi\n        /* \"#utility.yul\":10384:10385   */\n      0x00\n        /* \"#utility.yul\":10401:10407   */\n      dup5\n        /* \"#utility.yul\":10398:10475   */\n      iszero\n      tag_180\n      jumpi\n        /* \"#utility.yul\":10450:10459   */\n      dup3\n        /* \"#utility.yul\":10445:10448   */\n      dup8\n        /* \"#utility.yul\":10441:10460   */\n      add\n        /* \"#utility.yul\":10435:10461   */\n      mload\n        /* \"#utility.yul\":10426:10461   */\n      swap1\n      pop\n        /* \"#utility.yul\":10398:10475   */\n    tag_180:\n        /* \"#utility.yul\":10501:10568   */\n      tag_181\n        /* \"#utility.yul\":10561:10567   */\n      dup6\n        /* \"#utility.yul\":10554:10559   */\n      dup3\n        /* \"#utility.yul\":10501:10568   */\n      tag_62\n      jump\t// in\n    tag_181:\n        /* \"#utility.yul\":10495:10499   */\n      dup7\n        /* \"#utility.yul\":10488:10569   */\n      sstore\n        /* \"#utility.yul\":10357:10579   */\n      pop\n        /* \"#utility.yul\":9692:10579   */\n      jump(tag_178)\n        /* \"#utility.yul\":9722:10340   */\n    tag_179:\n        /* \"#utility.yul\":9774:9778   */\n      0x1f\n        /* \"#utility.yul\":9770:9779   */\n      not\n        /* \"#utility.yul\":9762:9768   */\n      dup5\n        /* \"#utility.yul\":9758:9780   */\n      and\n        /* \"#utility.yul\":9808:9845   */\n      tag_182\n        /* \"#utility.yul\":9840:9844   */\n      dup7\n        /* \"#utility.yul\":9808:9845   */\n      tag_48\n      jump\t// in\n    tag_182:\n        /* \"#utility.yul\":9867:9868   */\n      0x00\n        /* \"#utility.yul\":9881:10089   */\n    tag_183:\n        /* \"#utility.yul\":9895:9902   */\n      dup3\n        /* \"#utility.yul\":9892:9893   */\n      dup2\n        /* \"#utility.yul\":9889:9903   */\n      lt\n        /* \"#utility.yul\":9881:10089   */\n      iszero\n      tag_185\n      jumpi\n        /* \"#utility.yul\":9974:9983   */\n      dup5\n        /* \"#utility.yul\":9969:9972   */\n      dup10\n        /* \"#utility.yul\":9965:9984   */\n      add\n        /* \"#utility.yul\":9959:9985   */\n      mload\n        /* \"#utility.yul\":9951:9957   */\n      dup3\n        /* \"#utility.yul\":9944:9986   */\n      sstore\n        /* \"#utility.yul\":10025:10026   */\n      0x01\n        /* \"#utility.yul\":10017:10023   */\n      dup3\n        /* \"#utility.yul\":10013:10027   */\n      add\n        /* \"#utility.yul\":10003:10027   */\n      swap2\n      pop\n        /* \"#utility.yul\":10072:10074   */\n      0x20\n        /* \"#utility.yul\":10061:10070   */\n      dup6\n        /* \"#utility.yul\":10057:10075   */\n      add\n        /* \"#utility.yul\":10044:10075   */\n      swap5\n      pop\n        /* \"#utility.yul\":9918:9922   */\n      0x20\n        /* \"#utility.yul\":9915:9916   */\n      dup2\n        /* \"#utility.yul\":9911:9923   */\n      add\n        /* \"#utility.yul\":9906:9923   */\n      swap1\n      pop\n        /* \"#utility.yul\":9881:10089   */\n      jump(tag_183)\n    tag_185:\n        /* \"#utility.yul\":10117:10123   */\n      dup7\n        /* \"#utility.yul\":10108:10115   */\n      dup4\n        /* \"#utility.yul\":10105:10124   */\n      lt\n        /* \"#utility.yul\":10102:10281   */\n      iszero\n      tag_186\n      jumpi\n        /* \"#utility.yul\":10175:10184   */\n      dup5\n        /* \"#utility.yul\":10170:10173   */\n      dup10\n        /* \"#utility.yul\":10166:10185   */\n      add\n        /* \"#utility.yul\":10160:10186   */\n      mload\n        /* \"#utility.yul\":10218:10266   */\n      tag_187\n        /* \"#utility.yul\":10260:10264   */\n      0x1f\n        /* \"#utility.yul\":10252:10258   */\n      dup10\n        /* \"#utility.yul\":10248:10265   */\n      and\n        /* \"#utility.yul\":10237:10246   */\n      dup3\n        /* \"#utility.yul\":10218:10266   */\n      tag_61\n      jump\t// in\n    tag_187:\n        /* \"#utility.yul\":10210:10216   */\n      dup4\n        /* \"#utility.yul\":10203:10267   */\n      sstore\n        /* \"#utility.yul\":10125:10281   */\n      pop\n        /* \"#utility.yul\":10102:10281   */\n    tag_186:\n        /* \"#utility.yul\":10327:10328   */\n      0x01\n        /* \"#utility.yul\":10323:10324   */\n      0x02\n        /* \"#utility.yul\":10315:10321   */\n      dup9\n        /* \"#utility.yul\":10311:10325   */\n      mul\n        /* \"#utility.yul\":10307:10329   */\n      add\n        /* \"#utility.yul\":10301:10305   */\n      dup9\n        /* \"#utility.yul\":10294:10330   */\n      sstore\n        /* \"#utility.yul\":9729:10340   */\n      pop\n      pop\n      pop\n        /* \"#utility.yul\":9692:10579   */\n    tag_178:\n      pop\n        /* \"#utility.yul\":9282:10585   */\n      pop\n      pop\n      pop\n        /* \"#utility.yul\":9190:10585   */\n      pop\n      pop\n      jump\t// out\n        /* \"#utility.yul\":10591:10771   */\n    tag_63:\n        /* \"#utility.yul\":10639:10716   */\n      0x4e487b7100000000000000000000000000000000000000000000000000000000\n        /* \"#utility.yul\":10636:10637   */\n      0x00\n        /* \"#utility.yul\":10629:10717   */\n      mstore\n        /* \"#utility.yul\":10736:10740   */\n      0x11\n        /* \"#utility.yul\":10733:10734   */\n      0x04\n        /* \"#utility.yul\":10726:10741   */\n      mstore\n        /* \"#utility.yul\":10760:10764   */\n      0x24\n        /* \"#utility.yul\":10757:10758   */\n      0x00\n        /* \"#utility.yul\":10750:10765   */\n      revert\n        /* \"#utility.yul\":10777:11010   */\n    tag_19:\n        /* \"#utility.yul\":10816:10819   */\n      0x00\n        /* \"#utility.yul\":10839:10863   */\n      tag_190\n        /* \"#utility.yul\":10857:10862   */\n      dup3\n        /* \"#utility.yul\":10839:10863   */\n      tag_29\n      jump\t// in\n    tag_190:\n        /* \"#utility.yul\":10830:10863   */\n      swap2\n      pop\n        /* \"#utility.yul\":10885:10951   */\n      0xffffffffffffffffffffffffffffffffffffffffffffffffffffffffffffffff\n        /* \"#utility.yul\":10878:10883   */\n      dup3\n        /* \"#utility.yul\":10875:10952   */\n      sub\n        /* \"#utility.yul\":10872:10975   */\n      tag_191\n      jumpi\n        /* \"#utility.yul\":10955:10973   */\n      tag_192\n      tag_63\n      jump\t// in\n    tag_192:\n        /* \"#utility.yul\":10872:10975   */\n    tag_191:\n        /* \"#utility.yul\":11002:11003   */\n      0x01\n        /* \"#utility.yul\":10995:11000   */\n      dup3\n        /* \"#utility.yul\":10991:11004   */\n      add\n        /* \"#utility.yul\":10984:11004   */\n      swap1\n      pop\n        /* \"#utility.yul\":10777:11010   */\n      swap2\n      swap1\n      pop\n      jump\t// out\n\n    auxdata: 0xa2646970667358221220d297ba81618489ab4371ae7e77730061f1e67fa741d5bf1fc4d4a36fb88eb83564736f6c63430008120033\n}\n",
				"bytecode": {
					"linkReferences": {},
					"object": "60806040526001805534801561001457600080fd5b5061086b806100246000396000f3fe608060405234801561001057600080fd5b50600436106100365760003560e01c80630c5b29de1461003b578063815eab5b14610057575b600080fd5b6100556004803603810190610050919061036a565b61008a565b005b610071600480360381019061006c91906103d9565b610122565b6040516100819493929190610494565b60405180910390f35b81600080600154815260200190815260200160002060000190816100ae91906106ec565b50806000806001548152602001908152602001600020600101819055508260008060015481526020019081526020016000206002018190555060015460008060015481526020019081526020016000206003018190555060016000815480929190610118906107ed565b9190505550505050565b60006020528060005260406000206000915090508060000180546101459061050f565b80601f01602080910402602001604051908101604052809291908181526020018280546101719061050f565b80156101be5780601f10610193576101008083540402835291602001916101be565b820191906000526020600020905b8154815290600101906020018083116101a157829003601f168201915b5050505050908060010154908060020154908060030154905084565b6000604051905090565b600080fd5b600080fd5b6000819050919050565b610201816101ee565b811461020c57600080fd5b50565b60008135905061021e816101f8565b92915050565b600080fd5b600080fd5b6000601f19601f8301169050919050565b7f4e487b7100000000000000000000000000000000000000000000000000000000600052604160045260246000fd5b6102778261022e565b810181811067ffffffffffffffff821117156102965761029561023f565b5b80604052505050565b60006102a96101da565b90506102b5828261026e565b919050565b600067ffffffffffffffff8211156102d5576102d461023f565b5b6102de8261022e565b9050602081019050919050565b82818337600083830152505050565b600061030d610308846102ba565b61029f565b90508281526020810184848401111561032957610328610229565b5b6103348482856102eb565b509392505050565b600082601f83011261035157610350610224565b5b81356103618482602086016102fa565b91505092915050565b600080600060608486031215610383576103826101e4565b5b60006103918682870161020f565b935050602084013567ffffffffffffffff8111156103b2576103b16101e9565b5b6103be8682870161033c565b92505060406103cf8682870161020f565b9150509250925092565b6000602082840312156103ef576103ee6101e4565b5b60006103fd8482850161020f565b91505092915050565b600081519050919050565b600082825260208201905092915050565b60005b83811015610440578082015181840152602081019050610425565b60008484015250505050565b600061045782610406565b6104618185610411565b9350610471818560208601610422565b61047a8161022e565b840191505092915050565b61048e816101ee565b82525050565b600060808201905081810360008301526104ae818761044c565b90506104bd6020830186610485565b6104ca6040830185610485565b6104d76060830184610485565b95945050505050565b7f4e487b7100000000000000000000000000000000000000000000000000000000600052602260045260246000fd5b6000600282049050600182168061052757607f821691505b60208210810361053a576105396104e0565b5b50919050565b60008190508160005260206000209050919050565b60006020601f8301049050919050565b600082821b905092915050565b6000600883026105a27fffffffffffffffffffffffffffffffffffffffffffffffffffffffffffffffff82610565565b6105ac8683610565565b95508019841693508086168417925050509392505050565b6000819050919050565b60006105e96105e46105df846101ee565b6105c4565b6101ee565b9050919050565b6000819050919050565b610603836105ce565b61061761060f826105f0565b848454610572565b825550505050565b600090565b61062c61061f565b6106378184846105fa565b505050565b5b8181101561065b57610650600082610624565b60018101905061063d565b5050565b601f8211156106a05761067181610540565b61067a84610555565b81016020851015610689578190505b61069d61069585610555565b83018261063c565b50505b505050565b600082821c905092915050565b60006106c3600019846008026106a5565b1980831691505092915050565b60006106dc83836106b2565b9150826002028217905092915050565b6106f582610406565b67ffffffffffffffff81111561070e5761070d61023f565b5b610718825461050f565b61072382828561065f565b600060209050601f8311600181146107565760008415610744578287015190505b61074e85826106d0565b8655506107b6565b601f19841661076486610540565b60005b8281101561078c57848901518255600182019150602085019450602081019050610767565b868310156107a957848901516107a5601f8916826106b2565b8355505b6001600288020188555050505b505050505050565b7f4e487b7100000000000000000000000000000000000000000000000000000000600052601160045260246000fd5b60006107f8826101ee565b91507fffffffffffffffffffffffffffffffffffffffffffffffffffffffffffffffff820361082a576108296107be565b5b60018201905091905056fea2646970667358221220d297ba81618489ab4371ae7e77730061f1e67fa741d5bf1fc4d4a36fb88eb83564736f6c63430008120033",
					"opcodes": "PUSH1 0x80 PUSH1 0x40 MSTORE PUSH1 0x1 DUP1 SSTORE CALLVALUE DUP1 ISZERO PUSH2 0x14 JUMPI PUSH1 0x0 DUP1 REVERT JUMPDEST POP PUSH2 0x86B DUP1 PUSH2 0x24 PUSH1 0x0 CODECOPY PUSH1 0x0 RETURN INVALID PUSH1 0x80 PUSH1 0x40 MSTORE CALLVALUE DUP1 ISZERO PUSH2 0x10 JUMPI PUSH1 0x0 DUP1 REVERT JUMPDEST POP PUSH1 0x4 CALLDATASIZE LT PUSH2 0x36 JUMPI PUSH1 0x0 CALLDATALOAD PUSH1 0xE0 SHR DUP1 PUSH4 0xC5B29DE EQ PUSH2 0x3B JUMPI DUP1 PUSH4 0x815EAB5B EQ PUSH2 0x57 JUMPI JUMPDEST PUSH1 0x0 DUP1 REVERT JUMPDEST PUSH2 0x55 PUSH1 0x4 DUP1 CALLDATASIZE SUB DUP2 ADD SWAP1 PUSH2 0x50 SWAP2 SWAP1 PUSH2 0x36A JUMP JUMPDEST PUSH2 0x8A JUMP JUMPDEST STOP JUMPDEST PUSH2 0x71 PUSH1 0x4 DUP1 CALLDATASIZE SUB DUP2 ADD SWAP1 PUSH2 0x6C SWAP2 SWAP1 PUSH2 0x3D9 JUMP JUMPDEST PUSH2 0x122 JUMP JUMPDEST PUSH1 0x40 MLOAD PUSH2 0x81 SWAP5 SWAP4 SWAP3 SWAP2 SWAP1 PUSH2 0x494 JUMP JUMPDEST PUSH1 0x40 MLOAD DUP1 SWAP2 SUB SWAP1 RETURN JUMPDEST DUP2 PUSH1 0x0 DUP1 PUSH1 0x1 SLOAD DUP2 MSTORE PUSH1 0x20 ADD SWAP1 DUP2 MSTORE PUSH1 0x20 ADD PUSH1 0x0 KECCAK256 PUSH1 0x0 ADD SWAP1 DUP2 PUSH2 0xAE SWAP2 SWAP1 PUSH2 0x6EC JUMP JUMPDEST POP DUP1 PUSH1 0x0 DUP1 PUSH1 0x1 SLOAD DUP2 MSTORE PUSH1 0x20 ADD SWAP1 DUP2 MSTORE PUSH1 0x20 ADD PUSH1 0x0 KECCAK256 PUSH1 0x1 ADD DUP2 SWAP1 SSTORE POP DUP3 PUSH1 0x0 DUP1 PUSH1 0x1 SLOAD DUP2 MSTORE PUSH1 0x20 ADD SWAP1 DUP2 MSTORE PUSH1 0x20 ADD PUSH1 0x0 KECCAK256 PUSH1 0x2 ADD DUP2 SWAP1 SSTORE POP PUSH1 0x1 SLOAD PUSH1 0x0 DUP1 PUSH1 0x1 SLOAD DUP2 MSTORE PUSH1 0x20 ADD SWAP1 DUP2 MSTORE PUSH1 0x20 ADD PUSH1 0x0 KECCAK256 PUSH1 0x3 ADD DUP2 SWAP1 SSTORE POP PUSH1 0x1 PUSH1 0x0 DUP2 SLOAD DUP1 SWAP3 SWAP2 SWAP1 PUSH2 0x118 SWAP1 PUSH2 0x7ED JUMP JUMPDEST SWAP2 SWAP1 POP SSTORE POP POP POP POP JUMP JUMPDEST PUSH1 0x0 PUSH1 0x20 MSTORE DUP1 PUSH1 0x0 MSTORE PUSH1 0x40 PUSH1 0x0 KECCAK256 PUSH1 0x0 SWAP2 POP SWAP1 POP DUP1 PUSH1 0x0 ADD DUP1 SLOAD PUSH2 0x145 SWAP1 PUSH2 0x50F JUMP JUMPDEST DUP1 PUSH1 0x1F ADD PUSH1 0x20 DUP1 SWAP2 DIV MUL PUSH1 0x20 ADD PUSH1 0x40 MLOAD SWAP1 DUP2 ADD PUSH1 0x40 MSTORE DUP1 SWAP3 SWAP2 SWAP1 DUP2 DUP2 MSTORE PUSH1 0x20 ADD DUP3 DUP1 SLOAD PUSH2 0x171 SWAP1 PUSH2 0x50F JUMP JUMPDEST DUP1 ISZERO PUSH2 0x1BE JUMPI DUP1 PUSH1 0x1F LT PUSH2 0x193 JUMPI PUSH2 0x100 DUP1 DUP4 SLOAD DIV MUL DUP4 MSTORE SWAP2 PUSH1 0x20 ADD SWAP2 PUSH2 0x1BE JUMP JUMPDEST DUP3 ADD SWAP2 SWAP1 PUSH1 0x0 MSTORE PUSH1 0x20 PUSH1 0x0 KECCAK256 SWAP1 JUMPDEST DUP2 SLOAD DUP2 MSTORE SWAP1 PUSH1 0x1 ADD SWAP1 PUSH1 0x20 ADD DUP1 DUP4 GT PUSH2 0x1A1 JUMPI DUP3 SWAP1 SUB PUSH1 0x1F AND DUP3 ADD SWAP2 JUMPDEST POP POP POP POP POP SWAP1 DUP1 PUSH1 0x1 ADD SLOAD SWAP1 DUP1 PUSH1 0x2 ADD SLOAD SWAP1 DUP1 PUSH1 0x3 ADD SLOAD SWAP1 POP DUP5 JUMP JUMPDEST PUSH1 0x0 PUSH1 0x40 MLOAD SWAP1 POP SWAP1 JUMP JUMPDEST PUSH1 0x0 DUP1 REVERT JUMPDEST PUSH1 0x0 DUP1 REVERT JUMPDEST PUSH1 0x0 DUP2 SWAP1 POP SWAP2 SWAP1 POP JUMP JUMPDEST PUSH2 0x201 DUP2 PUSH2 0x1EE JUMP JUMPDEST DUP2 EQ PUSH2 0x20C JUMPI PUSH1 0x0 DUP1 REVERT JUMPDEST POP JUMP JUMPDEST PUSH1 0x0 DUP2 CALLDATALOAD SWAP1 POP PUSH2 0x21E DUP2 PUSH2 0x1F8 JUMP JUMPDEST SWAP3 SWAP2 POP POP JUMP JUMPDEST PUSH1 0x0 DUP1 REVERT JUMPDEST PUSH1 0x0 DUP1 REVERT JUMPDEST PUSH1 0x0 PUSH1 0x1F NOT PUSH1 0x1F DUP4 ADD AND SWAP1 POP SWAP2 SWAP1 POP JUMP JUMPDEST PUSH32 0x4E487B7100000000000000000000000000000000000000000000000000000000 PUSH1 0x0 MSTORE PUSH1 0x41 PUSH1 0x4 MSTORE PUSH1 0x24 PUSH1 0x0 REVERT JUMPDEST PUSH2 0x277 DUP3 PUSH2 0x22E JUMP JUMPDEST DUP2 ADD DUP2 DUP2 LT PUSH8 0xFFFFFFFFFFFFFFFF DUP3 GT OR ISZERO PUSH2 0x296 JUMPI PUSH2 0x295 PUSH2 0x23F JUMP JUMPDEST JUMPDEST DUP1 PUSH1 0x40 MSTORE POP POP POP JUMP JUMPDEST PUSH1 0x0 PUSH2 0x2A9 PUSH2 0x1DA JUMP JUMPDEST SWAP1 POP PUSH2 0x2B5 DUP3 DUP3 PUSH2 0x26E JUMP JUMPDEST SWAP2 SWAP1 POP JUMP JUMPDEST PUSH1 0x0 PUSH8 0xFFFFFFFFFFFFFFFF DUP3 GT ISZERO PUSH2 0x2D5 JUMPI PUSH2 0x2D4 PUSH2 0x23F JUMP JUMPDEST JUMPDEST PUSH2 0x2DE DUP3 PUSH2 0x22E JUMP JUMPDEST SWAP1 POP PUSH1 0x20 DUP2 ADD SWAP1 POP SWAP2 SWAP1 POP JUMP JUMPDEST DUP3 DUP2 DUP4 CALLDATACOPY PUSH1 0x0 DUP4 DUP4 ADD MSTORE POP POP POP JUMP JUMPDEST PUSH1 0x0 PUSH2 0x30D PUSH2 0x308 DUP5 PUSH2 0x2BA JUMP JUMPDEST PUSH2 0x29F JUMP JUMPDEST SWAP1 POP DUP3 DUP2 MSTORE PUSH1 0x20 DUP2 ADD DUP5 DUP5 DUP5 ADD GT ISZERO PUSH2 0x329 JUMPI PUSH2 0x328 PUSH2 0x229 JUMP JUMPDEST JUMPDEST PUSH2 0x334 DUP5 DUP3 DUP6 PUSH2 0x2EB JUMP JUMPDEST POP SWAP4 SWAP3 POP POP POP JUMP JUMPDEST PUSH1 0x0 DUP3 PUSH1 0x1F DUP4 ADD SLT PUSH2 0x351 JUMPI PUSH2 0x350 PUSH2 0x224 JUMP JUMPDEST JUMPDEST DUP2 CALLDATALOAD PUSH2 0x361 DUP5 DUP3 PUSH1 0x20 DUP7 ADD PUSH2 0x2FA JUMP JUMPDEST SWAP2 POP POP SWAP3 SWAP2 POP POP JUMP JUMPDEST PUSH1 0x0 DUP1 PUSH1 0x0 PUSH1 0x60 DUP5 DUP7 SUB SLT ISZERO PUSH2 0x383 JUMPI PUSH2 0x382 PUSH2 0x1E4 JUMP JUMPDEST JUMPDEST PUSH1 0x0 PUSH2 0x391 DUP7 DUP3 DUP8 ADD PUSH2 0x20F JUMP JUMPDEST SWAP4 POP POP PUSH1 0x20 DUP5 ADD CALLDATALOAD PUSH8 0xFFFFFFFFFFFFFFFF DUP2 GT ISZERO PUSH2 0x3B2 JUMPI PUSH2 0x3B1 PUSH2 0x1E9 JUMP JUMPDEST JUMPDEST PUSH2 0x3BE DUP7 DUP3 DUP8 ADD PUSH2 0x33C JUMP JUMPDEST SWAP3 POP POP PUSH1 0x40 PUSH2 0x3CF DUP7 DUP3 DUP8 ADD PUSH2 0x20F JUMP JUMPDEST SWAP2 POP POP SWAP3 POP SWAP3 POP SWAP3 JUMP JUMPDEST PUSH1 0x0 PUSH1 0x20 DUP3 DUP5 SUB SLT ISZERO PUSH2 0x3EF JUMPI PUSH2 0x3EE PUSH2 0x1E4 JUMP JUMPDEST JUMPDEST PUSH1 0x0 PUSH2 0x3FD DUP5 DUP3 DUP6 ADD PUSH2 0x20F JUMP JUMPDEST SWAP2 POP POP SWAP3 SWAP2 POP POP JUMP JUMPDEST PUSH1 0x0 DUP2 MLOAD SWAP1 POP SWAP2 SWAP1 POP JUMP JUMPDEST PUSH1 0x0 DUP3 DUP3 MSTORE PUSH1 0x20 DUP3 ADD SWAP1 POP SWAP3 SWAP2 POP POP JUMP JUMPDEST PUSH1 0x0 JUMPDEST DUP4 DUP2 LT ISZERO PUSH2 0x440 JUMPI DUP1 DUP3 ADD MLOAD DUP2 DUP5 ADD MSTORE PUSH1 0x20 DUP2 ADD SWAP1 POP PUSH2 0x425 JUMP JUMPDEST PUSH1 0x0 DUP5 DUP5 ADD MSTORE POP POP POP POP JUMP JUMPDEST PUSH1 0x0 PUSH2 0x457 DUP3 PUSH2 0x406 JUMP JUMPDEST PUSH2 0x461 DUP2 DUP6 PUSH2 0x411 JUMP JUMPDEST SWAP4 POP PUSH2 0x471 DUP2 DUP6 PUSH1 0x20 DUP7 ADD PUSH2 0x422 JUMP JUMPDEST PUSH2 0x47A DUP2 PUSH2 0x22E JUMP JUMPDEST DUP5 ADD SWAP2 POP POP SWAP3 SWAP2 POP POP JUMP JUMPDEST PUSH2 0x48E DUP2 PUSH2 0x1EE JUMP JUMPDEST DUP3 MSTORE POP POP JUMP JUMPDEST PUSH1 0x0 PUSH1 0x80 DUP3 ADD SWAP1 POP DUP2 DUP2 SUB PUSH1 0x0 DUP4 ADD MSTORE PUSH2 0x4AE DUP2 DUP8 PUSH2 0x44C JUMP JUMPDEST SWAP1 POP PUSH2 0x4BD PUSH1 0x20 DUP4 ADD DUP7 PUSH2 0x485 JUMP JUMPDEST PUSH2 0x4CA PUSH1 0x40 DUP4 ADD DUP6 PUSH2 0x485 JUMP JUMPDEST PUSH2 0x4D7 PUSH1 0x60 DUP4 ADD DUP5 PUSH2 0x485 JUMP JUMPDEST SWAP6 SWAP5 POP POP POP POP POP JUMP JUMPDEST PUSH32 0x4E487B7100000000000000000000000000000000000000000000000000000000 PUSH1 0x0 MSTORE PUSH1 0x22 PUSH1 0x4 MSTORE PUSH1 0x24 PUSH1 0x0 REVERT JUMPDEST PUSH1 0x0 PUSH1 0x2 DUP3 DIV SWAP1 POP PUSH1 0x1 DUP3 AND DUP1 PUSH2 0x527 JUMPI PUSH1 0x7F DUP3 AND SWAP2 POP JUMPDEST PUSH1 0x20 DUP3 LT DUP2 SUB PUSH2 0x53A JUMPI PUSH2 0x539 PUSH2 0x4E0 JUMP JUMPDEST JUMPDEST POP SWAP2 SWAP1 POP JUMP JUMPDEST PUSH1 0x0 DUP2 SWAP1 POP DUP2 PUSH1 0x0 MSTORE PUSH1 0x20 PUSH1 0x0 KECCAK256 SWAP1 POP SWAP2 SWAP1 POP JUMP JUMPDEST PUSH1 0x0 PUSH1 0x20 PUSH1 0x1F DUP4 ADD DIV SWAP1 POP SWAP2 SWAP1 POP JUMP JUMPDEST PUSH1 0x0 DUP3 DUP3 SHL SWAP1 POP SWAP3 SWAP2 POP POP JUMP JUMPDEST PUSH1 0x0 PUSH1 0x8 DUP4 MUL PUSH2 0x5A2 PUSH32 0xFFFFFFFFFFFFFFFFFFFFFFFFFFFFFFFFFFFFFFFFFFFFFFFFFFFFFFFFFFFFFFFF DUP3 PUSH2 0x565 JUMP JUMPDEST PUSH2 0x5AC DUP7 DUP4 PUSH2 0x565 JUMP JUMPDEST SWAP6 POP DUP1 NOT DUP5 AND SWAP4 POP DUP1 DUP7 AND DUP5 OR SWAP3 POP POP POP SWAP4 SWAP3 POP POP POP JUMP JUMPDEST PUSH1 0x0 DUP2 SWAP1 POP SWAP2 SWAP1 POP JUMP JUMPDEST PUSH1 0x0 PUSH2 0x5E9 PUSH2 0x5E4 PUSH2 0x5DF DUP5 PUSH2 0x1EE JUMP JUMPDEST PUSH2 0x5C4 JUMP JUMPDEST PUSH2 0x1EE JUMP JUMPDEST SWAP1 POP SWAP2 SWAP1 POP JUMP JUMPDEST PUSH1 0x0 DUP2 SWAP1 POP SWAP2 SWAP1 POP JUMP JUMPDEST PUSH2 0x603 DUP4 PUSH2 0x5CE JUMP JUMPDEST PUSH2 0x617 PUSH2 0x60F DUP3 PUSH2 0x5F0 JUMP JUMPDEST DUP5 DUP5 SLOAD PUSH2 0x572 JUMP JUMPDEST DUP3 SSTORE POP POP POP POP JUMP JUMPDEST PUSH1 0x0 SWAP1 JUMP JUMPDEST PUSH2 0x62C PUSH2 0x61F JUMP JUMPDEST PUSH2 0x637 DUP2 DUP5 DUP5 PUSH2 0x5FA JUMP JUMPDEST POP POP POP JUMP JUMPDEST JUMPDEST DUP2 DUP2 LT ISZERO PUSH2 0x65B JUMPI PUSH2 0x650 PUSH1 0x0 DUP3 PUSH2 0x624 JUMP JUMPDEST PUSH1 0x1 DUP2 ADD SWAP1 POP PUSH2 0x63D JUMP JUMPDEST POP POP JUMP JUMPDEST PUSH1 0x1F DUP3 GT ISZERO PUSH2 0x6A0 JUMPI PUSH2 0x671 DUP2 PUSH2 0x540 JUMP JUMPDEST PUSH2 0x67A DUP5 PUSH2 0x555 JUMP JUMPDEST DUP2 ADD PUSH1 0x20 DUP6 LT ISZERO PUSH2 0x689 JUMPI DUP2 SWAP1 POP JUMPDEST PUSH2 0x69D PUSH2 0x695 DUP6 PUSH2 0x555 JUMP JUMPDEST DUP4 ADD DUP3 PUSH2 0x63C JUMP JUMPDEST POP POP JUMPDEST POP POP POP JUMP JUMPDEST PUSH1 0x0 DUP3 DUP3 SHR SWAP1 POP SWAP3 SWAP2 POP POP JUMP JUMPDEST PUSH1 0x0 PUSH2 0x6C3 PUSH1 0x0 NOT DUP5 PUSH1 0x8 MUL PUSH2 0x6A5 JUMP JUMPDEST NOT DUP1 DUP4 AND SWAP2 POP POP SWAP3 SWAP2 POP POP JUMP JUMPDEST PUSH1 0x0 PUSH2 0x6DC DUP4 DUP4 PUSH2 0x6B2 JUMP JUMPDEST SWAP2 POP DUP3 PUSH1 0x2 MUL DUP3 OR SWAP1 POP SWAP3 SWAP2 POP POP JUMP JUMPDEST PUSH2 0x6F5 DUP3 PUSH2 0x406 JUMP JUMPDEST PUSH8 0xFFFFFFFFFFFFFFFF DUP2 GT ISZERO PUSH2 0x70E JUMPI PUSH2 0x70D PUSH2 0x23F JUMP JUMPDEST JUMPDEST PUSH2 0x718 DUP3 SLOAD PUSH2 0x50F JUMP JUMPDEST PUSH2 0x723 DUP3 DUP3 DUP6 PUSH2 0x65F JUMP JUMPDEST PUSH1 0x0 PUSH1 0x20 SWAP1 POP PUSH1 0x1F DUP4 GT PUSH1 0x1 DUP2 EQ PUSH2 0x756 JUMPI PUSH1 0x0 DUP5 ISZERO PUSH2 0x744 JUMPI DUP3 DUP8 ADD MLOAD SWAP1 POP JUMPDEST PUSH2 0x74E DUP6 DUP3 PUSH2 0x6D0 JUMP JUMPDEST DUP7 SSTORE POP PUSH2 0x7B6 JUMP JUMPDEST PUSH1 0x1F NOT DUP5 AND PUSH2 0x764 DUP7 PUSH2 0x540 JUMP JUMPDEST PUSH1 0x0 JUMPDEST DUP3 DUP2 LT ISZERO PUSH2 0x78C JUMPI DUP5 DUP10 ADD MLOAD DUP3 SSTORE PUSH1 0x1 DUP3 ADD SWAP2 POP PUSH1 0x20 DUP6 ADD SWAP5 POP PUSH1 0x20 DUP2 ADD SWAP1 POP PUSH2 0x767 JUMP JUMPDEST DUP7 DUP4 LT ISZERO PUSH2 0x7A9 JUMPI DUP5 DUP10 ADD MLOAD PUSH2 0x7A5 PUSH1 0x1F DUP10 AND DUP3 PUSH2 0x6B2 JUMP JUMPDEST DUP4 SSTORE POP JUMPDEST PUSH1 0x1 PUSH1 0x2 DUP9 MUL ADD DUP9 SSTORE POP POP POP JUMPDEST POP POP POP POP POP POP JUMP JUMPDEST PUSH32 0x4E487B7100000000000000000000000000000000000000000000000000000000 PUSH1 0x0 MSTORE PUSH1 0x11 PUSH1 0x4 MSTORE PUSH1 0x24 PUSH1 0x0 REVERT JUMPDEST PUSH1 0x0 PUSH2 0x7F8 DUP3 PUSH2 0x1EE JUMP JUMPDEST SWAP2 POP PUSH32 0xFFFFFFFFFFFFFFFFFFFFFFFFFFFFFFFFFFFFFFFFFFFFFFFFFFFFFFFFFFFFFFFF DUP3 SUB PUSH2 0x82A JUMPI PUSH2 0x829 PUSH2 0x7BE JUMP JUMPDEST JUMPDEST PUSH1 0x1 DUP3 ADD SWAP1 POP SWAP2 SWAP1 POP JUMP INVALID LOG2 PUSH5 0x6970667358 0x22 SLT KECCAK256 0xD2 SWAP8 0xBA DUP2 PUSH2 0x8489 0xAB NUMBER PUSH18 0xAE7E77730061F1E67FA741D5BF1FC4D4A36F 0xB8 DUP15 0xB8 CALLDATALOAD PUSH5 0x736F6C6343 STOP ADDMOD SLT STOP CALLER "
				},
				"gasEstimates": {
					"creation": {
						"codeDepositCost": "431000",
						"executionCost": "22574",
						"totalCost": "453574"
					},
					"external": {
						"es(uint256)": "infinite",
						"uts(uint256,string,uint256)": "infinite"
					}
				},
				"methodIdentifiers": {
					"es(uint256)": "815eab5b",
					"uts(uint256,string,uint256)": "0c5b29de"
				}
			},
			"storageLayout": {
				"storage": [
					{
						"astId": 180,
						"contract": "second.sol:mapp",
						"label": "es",
						"offset": 0,
						"slot": "0",
						"type": "t_mapping(t_uint256,t_struct(student)175_storage)"
					},
					{
						"astId": 183,
						"contract": "second.sol:mapp",
						"label": "id",
						"offset": 0,
						"slot": "1",
						"type": "t_uint256"
					}
				],
				"types": {
					"t_mapping(t_uint256,t_struct(student)175_storage)": {
						"encoding": "mapping",
						"key": "t_uint256",
						"label": "mapping(uint256 => struct mapp.student)",
						"numberOfBytes": "32",
						"value": "t_struct(student)175_storage"
					},
					"t_string_storage": {
						"encoding": "bytes",
						"label": "string",
						"numberOfBytes": "32"
					},
					"t_struct(student)175_storage": {
						"encoding": "inplace",
						"label": "struct mapp.student",
						"members": [
							{
								"astId": 168,
								"contract": "second.sol:mapp",
								"label": "name",
								"offset": 0,
								"slot": "0",
								"type": "t_string_storage"
							},
							{
								"astId": 170,
								"contract": "second.sol:mapp",
								"label": "roll",
								"offset": 0,
								"slot": "1",
								"type": "t_uint256"
							},
							{
								"astId": 172,
								"contract": "second.sol:mapp",
								"label": "idd",
								"offset": 0,
								"slot": "2",
								"type": "t_uint256"
							},
							{
								"astId": 174,
								"contract": "second.sol:mapp",
								"label": "id",
								"offset": 0,
								"slot": "3",
								"type": "t_uint256"
							}
						],
						"numberOfBytes": "128"
					},
					"t_uint256": {
						"encoding": "inplace",
						"label": "uint256",
						"numberOfBytes": "32"
					}
				}
			},
			"userdoc": {
				"kind": "user",
				"methods": {},
				"version": 1
			}
		}
	}
}