{
	"data": {
		"bytecode": {
			"linkReferences": {},
			"object": "608060405234801561001057600080fd5b50610235806100206000396000f3fe608060405234801561001057600080fd5b50600436106100365760003560e01c8063399313bd1461003b578063d2f287811461006b575b600080fd5b61005560048036038101906100509190610130565b610087565b6040516100629190610178565b60405180910390f35b610085600480360381019061008091906101bf565b6100a7565b005b60006020528060005260406000206000915054906101000a900460ff1681565b600a8210156100b957600190506100c7565b606482036100c657600190505b5b8060008084815260200190815260200160002060006101000a81548160ff0219169083151502179055505050565b600080fd5b6000819050919050565b61010d816100fa565b811461011857600080fd5b50565b60008135905061012a81610104565b92915050565b600060208284031215610146576101456100f5565b5b60006101548482850161011b565b91505092915050565b60008115159050919050565b6101728161015d565b82525050565b600060208201905061018d6000830184610169565b92915050565b61019c8161015d565b81146101a757600080fd5b50565b6000813590506101b981610193565b92915050565b600080604083850312156101d6576101d56100f5565b5b60006101e48582860161011b565b92505060206101f5858286016101aa565b915050925092905056fea26469706673582212206c276777c5911d068fdf77f231049eb3f60cf0b57cd9c4c2fa4f08e44296d22964736f6c63430008120033",
			"opcodes": "PUSH1 0x80 PUSH1 0x40 MSTORE CALLVALUE DUP1 ISZERO PUSH2 0x10 JUMPI PUSH1 0x0 DUP1 REVERT JUMPDEST POP PUSH2 0x235 DUP1 PUSH2 0x20 PUSH1 0x0 CODECOPY PUSH1 0x0 RETURN INVALID PUSH1 0x80 PUSH1 0x40 MSTORE CALLVALUE DUP1 ISZERO PUSH2 0x10 JUMPI PUSH1 0x0 DUP1 REVERT JUMPDEST POP PUSH1 0x4 CALLDATASIZE LT PUSH2 0x36 JUMPI PUSH1 0x0 CALLDATALOAD PUSH1 0xE0 SHR DUP1 PUSH4 0x399313BD EQ PUSH2 0x3B JUMPI DUP1 PUSH4 0xD2F28781 EQ PUSH2 0x6B JUMPI JUMPDEST PUSH1 0x0 DUP1 REVERT JUMPDEST PUSH2 0x55 PUSH1 0x4 DUP1 CALLDATASIZE SUB DUP2 ADD SWAP1 PUSH2 0x50 SWAP2 SWAP1 PUSH2 0x130 JUMP JUMPDEST PUSH2 0x87 JUMP JUMPDEST PUSH1 0x40 MLOAD PUSH2 0x62 SWAP2 SWAP1 PUSH2 0x178 JUMP JUMPDEST PUSH1 0x40 MLOAD DUP1 SWAP2 SUB SWAP1 RETURN JUMPDEST PUSH2 0x85 PUSH1 0x4 DUP1 CALLDATASIZE SUB DUP2 ADD SWAP1 PUSH2 0x80 SWAP2 SWAP1 PUSH2 0x1BF JUMP JUMPDEST PUSH2 0xA7 JUMP JUMPDEST STOP JUMPDEST PUSH1 0x0 PUSH1 0x20 MSTORE DUP1 PUSH1 0x0 MSTORE PUSH1 0x40 PUSH1 0x0 KECCAK256 PUSH1 0x0 SWAP2 POP SLOAD SWAP1 PUSH2 0x100 EXP SWAP1 DIV PUSH1 0xFF AND DUP2 JUMP JUMPDEST PUSH1 0xA DUP3 LT ISZERO PUSH2 0xB9 JUMPI PUSH1 0x1 SWAP1 POP PUSH2 0xC7 JUMP JUMPDEST PUSH1 0x64 DUP3 SUB PUSH2 0xC6 JUMPI PUSH1 0x1 SWAP1 POP JUMPDEST JUMPDEST DUP1 PUSH1 0x0 DUP1 DUP5 DUP2 MSTORE PUSH1 0x20 ADD SWAP1 DUP2 MSTORE PUSH1 0x20 ADD PUSH1 0x0 KECCAK256 PUSH1 0x0 PUSH2 0x100 EXP DUP2 SLOAD DUP2 PUSH1 0xFF MUL NOT AND SWAP1 DUP4 ISZERO ISZERO MUL OR SWAP1 SSTORE POP POP POP JUMP JUMPDEST PUSH1 0x0 DUP1 REVERT JUMPDEST PUSH1 0x0 DUP2 SWAP1 POP SWAP2 SWAP1 POP JUMP JUMPDEST PUSH2 0x10D DUP2 PUSH2 0xFA JUMP JUMPDEST DUP2 EQ PUSH2 0x118 JUMPI PUSH1 0x0 DUP1 REVERT JUMPDEST POP JUMP JUMPDEST PUSH1 0x0 DUP2 CALLDATALOAD SWAP1 POP PUSH2 0x12A DUP2 PUSH2 0x104 JUMP JUMPDEST SWAP3 SWAP2 POP POP JUMP JUMPDEST PUSH1 0x0 PUSH1 0x20 DUP3 DUP5 SUB SLT ISZERO PUSH2 0x146 JUMPI PUSH2 0x145 PUSH2 0xF5 JUMP JUMPDEST JUMPDEST PUSH1 0x0 PUSH2 0x154 DUP5 DUP3 DUP6 ADD PUSH2 0x11B JUMP JUMPDEST SWAP2 POP POP SWAP3 SWAP2 POP POP JUMP JUMPDEST PUSH1 0x0 DUP2 ISZERO ISZERO SWAP1 POP SWAP2 SWAP1 POP JUMP JUMPDEST PUSH2 0x172 DUP2 PUSH2 0x15D JUMP JUMPDEST DUP3 MSTORE POP POP JUMP JUMPDEST PUSH1 0x0 PUSH1 0x20 DUP3 ADD SWAP1 POP PUSH2 0x18D PUSH1 0x0 DUP4 ADD DUP5 PUSH2 0x169 JUMP JUMPDEST SWAP3 SWAP2 POP POP JUMP JUMPDEST PUSH2 0x19C DUP2 PUSH2 0x15D JUMP JUMPDEST DUP2 EQ PUSH2 0x1A7 JUMPI PUSH1 0x0 DUP1 REVERT JUMPDEST POP JUMP JUMPDEST PUSH1 0x0 DUP2 CALLDATALOAD SWAP1 POP PUSH2 0x1B9 DUP2 PUSH2 0x193 JUMP JUMPDEST SWAP3 SWAP2 POP POP JUMP JUMPDEST PUSH1 0x0 DUP1 PUSH1 0x40 DUP4 DUP6 SUB SLT ISZERO PUSH2 0x1D6 JUMPI PUSH2 0x1D5 PUSH2 0xF5 JUMP JUMPDEST JUMPDEST PUSH1 0x0 PUSH2 0x1E4 DUP6 DUP3 DUP7 ADD PUSH2 0x11B JUMP JUMPDEST SWAP3 POP POP PUSH1 0x20 PUSH2 0x1F5 DUP6 DUP3 DUP7 ADD PUSH2 0x1AA JUMP JUMPDEST SWAP2 POP POP SWAP3 POP SWAP3 SWAP1 POP JUMP INVALID LOG2 PUSH5 0x6970667358 0x22 SLT KECCAK256 PUSH13 0x276777C5911D068FDF77F23104 SWAP15 0xB3 0xF6 0xC CREATE 0xB5 PUSH29 0xD9C4C2FA4F08E44296D22964736F6C6343000812003300000000000000 "
		},
		"gasEstimates": {
			"creation": {
				"codeDepositCost": "113000",
				"executionCost": "159",
				"totalCost": "113159"
			},
			"external": {
				"aaa(uint256,bool)": "24988",
				"val(uint256)": "2774"
			}
		},
		"methodIdentifiers": {
			"aaa(uint256,bool)": "d2f28781",
			"val(uint256)": "399313bd"
		}
	},
	"abi": [
		{
			"inputs": [
				{
					"internalType": "uint256",
					"name": "num",
					"type": "uint256"
				},
				{
					"internalType": "bool",
					"name": "tf",
					"type": "bool"
				}
			],
			"name": "aaa",
			"outputs": [],
			"stateMutability": "nonpayable",
			"type": "function"
		},
		{
			"inputs": [
				{
					"internalType": "uint256",
					"name": "",
					"type": "uint256"
				}
			],
			"name": "val",
			"outputs": [
				{
					"internalType": "bool",
					"name": "",
					"type": "bool"
				}
			],
			"stateMutability": "view",
			"type": "function"
		}
	]
}