{
	"data": {
		"bytecode": {
			"linkReferences": {},
			"object": "608060405234801561001057600080fd5b50610b18806100206000396000f3fe608060405234801561001057600080fd5b50600436106100415760003560e01c8063415ef37114610046578063467d2005146100645780634b6f12fc14610080575b600080fd5b61004e6100b2565b60405161005b919061048d565b60405180910390f35b61007e60048036038101906100799190610624565b6100df565b005b61009a600480360381019061009591906106af565b610174565b6040516100a993929190610748565b60405180910390f35b606060008060015490505b6001548110156100da5780806100d2906107bc565b9150506100bd565b505090565b600080600154815260200190815260200160002060405180606001604052808581526020018481526020018381525090806001815401808255809150506001900390600052602060002090600302016000909190919091506000820151816000015560208201518160010190816101569190610a10565b50604082015181600201908161016c9190610a10565b505050505050565b6000602052816000526040600020818154811061019057600080fd5b9060005260206000209060030201600091509150508060000154908060010180546101ba90610833565b80601f01602080910402602001604051908101604052809291908181526020018280546101e690610833565b80156102335780601f1061020857610100808354040283529160200191610233565b820191906000526020600020905b81548152906001019060200180831161021657829003601f168201915b50505050509080600201805461024890610833565b80601f016020809104026020016040519081016040528092919081815260200182805461027490610833565b80156102c15780601f10610296576101008083540402835291602001916102c1565b820191906000526020600020905b8154815290600101906020018083116102a457829003601f168201915b5050505050905083565b600081519050919050565b600082825260208201905092915050565b6000819050602082019050919050565b6000819050919050565b61030a816102f7565b82525050565b600081519050919050565b600082825260208201905092915050565b60005b8381101561034a57808201518184015260208101905061032f565b60008484015250505050565b6000601f19601f8301169050919050565b600061037282610310565b61037c818561031b565b935061038c81856020860161032c565b61039581610356565b840191505092915050565b60006060830160008301516103b86000860182610301565b50602083015184820360208601526103d08282610367565b915050604083015184820360408601526103ea8282610367565b9150508091505092915050565b600061040383836103a0565b905092915050565b6000602082019050919050565b6000610423826102cb565b61042d81856102d6565b93508360208202850161043f856102e7565b8060005b8581101561047b578484038952815161045c85826103f7565b94506104678361040b565b925060208a01995050600181019050610443565b50829750879550505050505092915050565b600060208201905081810360008301526104a78184610418565b905092915050565b6000604051905090565b600080fd5b600080fd5b6104cc816102f7565b81146104d757600080fd5b50565b6000813590506104e9816104c3565b92915050565b600080fd5b600080fd5b7f4e487b7100000000000000000000000000000000000000000000000000000000600052604160045260246000fd5b61053182610356565b810181811067ffffffffffffffff821117156105505761054f6104f9565b5b80604052505050565b60006105636104af565b905061056f8282610528565b919050565b600067ffffffffffffffff82111561058f5761058e6104f9565b5b61059882610356565b9050602081019050919050565b82818337600083830152505050565b60006105c76105c284610574565b610559565b9050828152602081018484840111156105e3576105e26104f4565b5b6105ee8482856105a5565b509392505050565b600082601f83011261060b5761060a6104ef565b5b813561061b8482602086016105b4565b91505092915050565b60008060006060848603121561063d5761063c6104b9565b5b600061064b868287016104da565b935050602084013567ffffffffffffffff81111561066c5761066b6104be565b5b610678868287016105f6565b925050604084013567ffffffffffffffff811115610699576106986104be565b5b6106a5868287016105f6565b9150509250925092565b600080604083850312156106c6576106c56104b9565b5b60006106d4858286016104da565b92505060206106e5858286016104da565b9150509250929050565b6106f8816102f7565b82525050565b600082825260208201905092915050565b600061071a82610310565b61072481856106fe565b935061073481856020860161032c565b61073d81610356565b840191505092915050565b600060608201905061075d60008301866106ef565b818103602083015261076f818561070f565b90508181036040830152610783818461070f565b9050949350505050565b7f4e487b7100000000000000000000000000000000000000000000000000000000600052601160045260246000fd5b60006107c7826102f7565b91507fffffffffffffffffffffffffffffffffffffffffffffffffffffffffffffffff82036107f9576107f861078d565b5b600182019050919050565b7f4e487b7100000000000000000000000000000000000000000000000000000000600052602260045260246000fd5b6000600282049050600182168061084b57607f821691505b60208210810361085e5761085d610804565b5b50919050565b60008190508160005260206000209050919050565b60006020601f8301049050919050565b600082821b905092915050565b6000600883026108c67fffffffffffffffffffffffffffffffffffffffffffffffffffffffffffffffff82610889565b6108d08683610889565b95508019841693508086168417925050509392505050565b6000819050919050565b600061090d610908610903846102f7565b6108e8565b6102f7565b9050919050565b6000819050919050565b610927836108f2565b61093b61093382610914565b848454610896565b825550505050565b600090565b610950610943565b61095b81848461091e565b505050565b5b8181101561097f57610974600082610948565b600181019050610961565b5050565b601f8211156109c45761099581610864565b61099e84610879565b810160208510156109ad578190505b6109c16109b985610879565b830182610960565b50505b505050565b600082821c905092915050565b60006109e7600019846008026109c9565b1980831691505092915050565b6000610a0083836109d6565b9150826002028217905092915050565b610a1982610310565b67ffffffffffffffff811115610a3257610a316104f9565b5b610a3c8254610833565b610a47828285610983565b600060209050601f831160018114610a7a5760008415610a68578287015190505b610a7285826109f4565b865550610ada565b601f198416610a8886610864565b60005b82811015610ab057848901518255600182019150602085019450602081019050610a8b565b86831015610acd5784890151610ac9601f8916826109d6565b8355505b6001600288020188555050505b50505050505056fea2646970667358221220b28f493fe072eddb9f3ea8e97739f9af8e77709dd3046ebb6aa4abf21ae8a6fe64736f6c63430008120033",
			"opcodes": "PUSH1 0x80 PUSH1 0x40 MSTORE CALLVALUE DUP1 ISZERO PUSH2 0x10 JUMPI PUSH1 0x0 DUP1 REVERT JUMPDEST POP PUSH2 0xB18 DUP1 PUSH2 0x20 PUSH1 0x0 CODECOPY PUSH1 0x0 RETURN INVALID PUSH1 0x80 PUSH1 0x40 MSTORE CALLVALUE DUP1 ISZERO PUSH2 0x10 JUMPI PUSH1 0x0 DUP1 REVERT JUMPDEST POP PUSH1 0x4 CALLDATASIZE LT PUSH2 0x41 JUMPI PUSH1 0x0 CALLDATALOAD PUSH1 0xE0 SHR DUP1 PUSH4 0x415EF371 EQ PUSH2 0x46 JUMPI DUP1 PUSH4 0x467D2005 EQ PUSH2 0x64 JUMPI DUP1 PUSH4 0x4B6F12FC EQ PUSH2 0x80 JUMPI JUMPDEST PUSH1 0x0 DUP1 REVERT JUMPDEST PUSH2 0x4E PUSH2 0xB2 JUMP JUMPDEST PUSH1 0x40 MLOAD PUSH2 0x5B SWAP2 SWAP1 PUSH2 0x48D JUMP JUMPDEST PUSH1 0x40 MLOAD DUP1 SWAP2 SUB SWAP1 RETURN JUMPDEST PUSH2 0x7E PUSH1 0x4 DUP1 CALLDATASIZE SUB DUP2 ADD SWAP1 PUSH2 0x79 SWAP2 SWAP1 PUSH2 0x624 JUMP JUMPDEST PUSH2 0xDF JUMP JUMPDEST STOP JUMPDEST PUSH2 0x9A PUSH1 0x4 DUP1 CALLDATASIZE SUB DUP2 ADD SWAP1 PUSH2 0x95 SWAP2 SWAP1 PUSH2 0x6AF JUMP JUMPDEST PUSH2 0x174 JUMP JUMPDEST PUSH1 0x40 MLOAD PUSH2 0xA9 SWAP4 SWAP3 SWAP2 SWAP1 PUSH2 0x748 JUMP JUMPDEST PUSH1 0x40 MLOAD DUP1 SWAP2 SUB SWAP1 RETURN JUMPDEST PUSH1 0x60 PUSH1 0x0 DUP1 PUSH1 0x1 SLOAD SWAP1 POP JUMPDEST PUSH1 0x1 SLOAD DUP2 LT ISZERO PUSH2 0xDA JUMPI DUP1 DUP1 PUSH2 0xD2 SWAP1 PUSH2 0x7BC JUMP JUMPDEST SWAP2 POP POP PUSH2 0xBD JUMP JUMPDEST POP POP SWAP1 JUMP JUMPDEST PUSH1 0x0 DUP1 PUSH1 0x1 SLOAD DUP2 MSTORE PUSH1 0x20 ADD SWAP1 DUP2 MSTORE PUSH1 0x20 ADD PUSH1 0x0 KECCAK256 PUSH1 0x40 MLOAD DUP1 PUSH1 0x60 ADD PUSH1 0x40 MSTORE DUP1 DUP6 DUP2 MSTORE PUSH1 0x20 ADD DUP5 DUP2 MSTORE PUSH1 0x20 ADD DUP4 DUP2 MSTORE POP SWAP1 DUP1 PUSH1 0x1 DUP2 SLOAD ADD DUP1 DUP3 SSTORE DUP1 SWAP2 POP POP PUSH1 0x1 SWAP1 SUB SWAP1 PUSH1 0x0 MSTORE PUSH1 0x20 PUSH1 0x0 KECCAK256 SWAP1 PUSH1 0x3 MUL ADD PUSH1 0x0 SWAP1 SWAP2 SWAP1 SWAP2 SWAP1 SWAP2 POP PUSH1 0x0 DUP3 ADD MLOAD DUP2 PUSH1 0x0 ADD SSTORE PUSH1 0x20 DUP3 ADD MLOAD DUP2 PUSH1 0x1 ADD SWAP1 DUP2 PUSH2 0x156 SWAP2 SWAP1 PUSH2 0xA10 JUMP JUMPDEST POP PUSH1 0x40 DUP3 ADD MLOAD DUP2 PUSH1 0x2 ADD SWAP1 DUP2 PUSH2 0x16C SWAP2 SWAP1 PUSH2 0xA10 JUMP JUMPDEST POP POP POP POP POP POP JUMP JUMPDEST PUSH1 0x0 PUSH1 0x20 MSTORE DUP2 PUSH1 0x0 MSTORE PUSH1 0x40 PUSH1 0x0 KECCAK256 DUP2 DUP2 SLOAD DUP2 LT PUSH2 0x190 JUMPI PUSH1 0x0 DUP1 REVERT JUMPDEST SWAP1 PUSH1 0x0 MSTORE PUSH1 0x20 PUSH1 0x0 KECCAK256 SWAP1 PUSH1 0x3 MUL ADD PUSH1 0x0 SWAP2 POP SWAP2 POP POP DUP1 PUSH1 0x0 ADD SLOAD SWAP1 DUP1 PUSH1 0x1 ADD DUP1 SLOAD PUSH2 0x1BA SWAP1 PUSH2 0x833 JUMP JUMPDEST DUP1 PUSH1 0x1F ADD PUSH1 0x20 DUP1 SWAP2 DIV MUL PUSH1 0x20 ADD PUSH1 0x40 MLOAD SWAP1 DUP2 ADD PUSH1 0x40 MSTORE DUP1 SWAP3 SWAP2 SWAP1 DUP2 DUP2 MSTORE PUSH1 0x20 ADD DUP3 DUP1 SLOAD PUSH2 0x1E6 SWAP1 PUSH2 0x833 JUMP JUMPDEST DUP1 ISZERO PUSH2 0x233 JUMPI DUP1 PUSH1 0x1F LT PUSH2 0x208 JUMPI PUSH2 0x100 DUP1 DUP4 SLOAD DIV MUL DUP4 MSTORE SWAP2 PUSH1 0x20 ADD SWAP2 PUSH2 0x233 JUMP JUMPDEST DUP3 ADD SWAP2 SWAP1 PUSH1 0x0 MSTORE PUSH1 0x20 PUSH1 0x0 KECCAK256 SWAP1 JUMPDEST DUP2 SLOAD DUP2 MSTORE SWAP1 PUSH1 0x1 ADD SWAP1 PUSH1 0x20 ADD DUP1 DUP4 GT PUSH2 0x216 JUMPI DUP3 SWAP1 SUB PUSH1 0x1F AND DUP3 ADD SWAP2 JUMPDEST POP POP POP POP POP SWAP1 DUP1 PUSH1 0x2 ADD DUP1 SLOAD PUSH2 0x248 SWAP1 PUSH2 0x833 JUMP JUMPDEST DUP1 PUSH1 0x1F ADD PUSH1 0x20 DUP1 SWAP2 DIV MUL PUSH1 0x20 ADD PUSH1 0x40 MLOAD SWAP1 DUP2 ADD PUSH1 0x40 MSTORE DUP1 SWAP3 SWAP2 SWAP1 DUP2 DUP2 MSTORE PUSH1 0x20 ADD DUP3 DUP1 SLOAD PUSH2 0x274 SWAP1 PUSH2 0x833 JUMP JUMPDEST DUP1 ISZERO PUSH2 0x2C1 JUMPI DUP1 PUSH1 0x1F LT PUSH2 0x296 JUMPI PUSH2 0x100 DUP1 DUP4 SLOAD DIV MUL DUP4 MSTORE SWAP2 PUSH1 0x20 ADD SWAP2 PUSH2 0x2C1 JUMP JUMPDEST DUP3 ADD SWAP2 SWAP1 PUSH1 0x0 MSTORE PUSH1 0x20 PUSH1 0x0 KECCAK256 SWAP1 JUMPDEST DUP2 SLOAD DUP2 MSTORE SWAP1 PUSH1 0x1 ADD SWAP1 PUSH1 0x20 ADD DUP1 DUP4 GT PUSH2 0x2A4 JUMPI DUP3 SWAP1 SUB PUSH1 0x1F AND DUP3 ADD SWAP2 JUMPDEST POP POP POP POP POP SWAP1 POP DUP4 JUMP JUMPDEST PUSH1 0x0 DUP2 MLOAD SWAP1 POP SWAP2 SWAP1 POP JUMP JUMPDEST PUSH1 0x0 DUP3 DUP3 MSTORE PUSH1 0x20 DUP3 ADD SWAP1 POP SWAP3 SWAP2 POP POP JUMP JUMPDEST PUSH1 0x0 DUP2 SWAP1 POP PUSH1 0x20 DUP3 ADD SWAP1 POP SWAP2 SWAP1 POP JUMP JUMPDEST PUSH1 0x0 DUP2 SWAP1 POP SWAP2 SWAP1 POP JUMP JUMPDEST PUSH2 0x30A DUP2 PUSH2 0x2F7 JUMP JUMPDEST DUP3 MSTORE POP POP JUMP JUMPDEST PUSH1 0x0 DUP2 MLOAD SWAP1 POP SWAP2 SWAP1 POP JUMP JUMPDEST PUSH1 0x0 DUP3 DUP3 MSTORE PUSH1 0x20 DUP3 ADD SWAP1 POP SWAP3 SWAP2 POP POP JUMP JUMPDEST PUSH1 0x0 JUMPDEST DUP4 DUP2 LT ISZERO PUSH2 0x34A JUMPI DUP1 DUP3 ADD MLOAD DUP2 DUP5 ADD MSTORE PUSH1 0x20 DUP2 ADD SWAP1 POP PUSH2 0x32F JUMP JUMPDEST PUSH1 0x0 DUP5 DUP5 ADD MSTORE POP POP POP POP JUMP JUMPDEST PUSH1 0x0 PUSH1 0x1F NOT PUSH1 0x1F DUP4 ADD AND SWAP1 POP SWAP2 SWAP1 POP JUMP JUMPDEST PUSH1 0x0 PUSH2 0x372 DUP3 PUSH2 0x310 JUMP JUMPDEST PUSH2 0x37C DUP2 DUP6 PUSH2 0x31B JUMP JUMPDEST SWAP4 POP PUSH2 0x38C DUP2 DUP6 PUSH1 0x20 DUP7 ADD PUSH2 0x32C JUMP JUMPDEST PUSH2 0x395 DUP2 PUSH2 0x356 JUMP JUMPDEST DUP5 ADD SWAP2 POP POP SWAP3 SWAP2 POP POP JUMP JUMPDEST PUSH1 0x0 PUSH1 0x60 DUP4 ADD PUSH1 0x0 DUP4 ADD MLOAD PUSH2 0x3B8 PUSH1 0x0 DUP7 ADD DUP3 PUSH2 0x301 JUMP JUMPDEST POP PUSH1 0x20 DUP4 ADD MLOAD DUP5 DUP3 SUB PUSH1 0x20 DUP7 ADD MSTORE PUSH2 0x3D0 DUP3 DUP3 PUSH2 0x367 JUMP JUMPDEST SWAP2 POP POP PUSH1 0x40 DUP4 ADD MLOAD DUP5 DUP3 SUB PUSH1 0x40 DUP7 ADD MSTORE PUSH2 0x3EA DUP3 DUP3 PUSH2 0x367 JUMP JUMPDEST SWAP2 POP POP DUP1 SWAP2 POP POP SWAP3 SWAP2 POP POP JUMP JUMPDEST PUSH1 0x0 PUSH2 0x403 DUP4 DUP4 PUSH2 0x3A0 JUMP JUMPDEST SWAP1 POP SWAP3 SWAP2 POP POP JUMP JUMPDEST PUSH1 0x0 PUSH1 0x20 DUP3 ADD SWAP1 POP SWAP2 SWAP1 POP JUMP JUMPDEST PUSH1 0x0 PUSH2 0x423 DUP3 PUSH2 0x2CB JUMP JUMPDEST PUSH2 0x42D DUP2 DUP6 PUSH2 0x2D6 JUMP JUMPDEST SWAP4 POP DUP4 PUSH1 0x20 DUP3 MUL DUP6 ADD PUSH2 0x43F DUP6 PUSH2 0x2E7 JUMP JUMPDEST DUP1 PUSH1 0x0 JUMPDEST DUP6 DUP2 LT ISZERO PUSH2 0x47B JUMPI DUP5 DUP5 SUB DUP10 MSTORE DUP2 MLOAD PUSH2 0x45C DUP6 DUP3 PUSH2 0x3F7 JUMP JUMPDEST SWAP5 POP PUSH2 0x467 DUP4 PUSH2 0x40B JUMP JUMPDEST SWAP3 POP PUSH1 0x20 DUP11 ADD SWAP10 POP POP PUSH1 0x1 DUP2 ADD SWAP1 POP PUSH2 0x443 JUMP JUMPDEST POP DUP3 SWAP8 POP DUP8 SWAP6 POP POP POP POP POP POP SWAP3 SWAP2 POP POP JUMP JUMPDEST PUSH1 0x0 PUSH1 0x20 DUP3 ADD SWAP1 POP DUP2 DUP2 SUB PUSH1 0x0 DUP4 ADD MSTORE PUSH2 0x4A7 DUP2 DUP5 PUSH2 0x418 JUMP JUMPDEST SWAP1 POP SWAP3 SWAP2 POP POP JUMP JUMPDEST PUSH1 0x0 PUSH1 0x40 MLOAD SWAP1 POP SWAP1 JUMP JUMPDEST PUSH1 0x0 DUP1 REVERT JUMPDEST PUSH1 0x0 DUP1 REVERT JUMPDEST PUSH2 0x4CC DUP2 PUSH2 0x2F7 JUMP JUMPDEST DUP2 EQ PUSH2 0x4D7 JUMPI PUSH1 0x0 DUP1 REVERT JUMPDEST POP JUMP JUMPDEST PUSH1 0x0 DUP2 CALLDATALOAD SWAP1 POP PUSH2 0x4E9 DUP2 PUSH2 0x4C3 JUMP JUMPDEST SWAP3 SWAP2 POP POP JUMP JUMPDEST PUSH1 0x0 DUP1 REVERT JUMPDEST PUSH1 0x0 DUP1 REVERT JUMPDEST PUSH32 0x4E487B7100000000000000000000000000000000000000000000000000000000 PUSH1 0x0 MSTORE PUSH1 0x41 PUSH1 0x4 MSTORE PUSH1 0x24 PUSH1 0x0 REVERT JUMPDEST PUSH2 0x531 DUP3 PUSH2 0x356 JUMP JUMPDEST DUP2 ADD DUP2 DUP2 LT PUSH8 0xFFFFFFFFFFFFFFFF DUP3 GT OR ISZERO PUSH2 0x550 JUMPI PUSH2 0x54F PUSH2 0x4F9 JUMP JUMPDEST JUMPDEST DUP1 PUSH1 0x40 MSTORE POP POP POP JUMP JUMPDEST PUSH1 0x0 PUSH2 0x563 PUSH2 0x4AF JUMP JUMPDEST SWAP1 POP PUSH2 0x56F DUP3 DUP3 PUSH2 0x528 JUMP JUMPDEST SWAP2 SWAP1 POP JUMP JUMPDEST PUSH1 0x0 PUSH8 0xFFFFFFFFFFFFFFFF DUP3 GT ISZERO PUSH2 0x58F JUMPI PUSH2 0x58E PUSH2 0x4F9 JUMP JUMPDEST JUMPDEST PUSH2 0x598 DUP3 PUSH2 0x356 JUMP JUMPDEST SWAP1 POP PUSH1 0x20 DUP2 ADD SWAP1 POP SWAP2 SWAP1 POP JUMP JUMPDEST DUP3 DUP2 DUP4 CALLDATACOPY PUSH1 0x0 DUP4 DUP4 ADD MSTORE POP POP POP JUMP JUMPDEST PUSH1 0x0 PUSH2 0x5C7 PUSH2 0x5C2 DUP5 PUSH2 0x574 JUMP JUMPDEST PUSH2 0x559 JUMP JUMPDEST SWAP1 POP DUP3 DUP2 MSTORE PUSH1 0x20 DUP2 ADD DUP5 DUP5 DUP5 ADD GT ISZERO PUSH2 0x5E3 JUMPI PUSH2 0x5E2 PUSH2 0x4F4 JUMP JUMPDEST JUMPDEST PUSH2 0x5EE DUP5 DUP3 DUP6 PUSH2 0x5A5 JUMP JUMPDEST POP SWAP4 SWAP3 POP POP POP JUMP JUMPDEST PUSH1 0x0 DUP3 PUSH1 0x1F DUP4 ADD SLT PUSH2 0x60B JUMPI PUSH2 0x60A PUSH2 0x4EF JUMP JUMPDEST JUMPDEST DUP2 CALLDATALOAD PUSH2 0x61B DUP5 DUP3 PUSH1 0x20 DUP7 ADD PUSH2 0x5B4 JUMP JUMPDEST SWAP2 POP POP SWAP3 SWAP2 POP POP JUMP JUMPDEST PUSH1 0x0 DUP1 PUSH1 0x0 PUSH1 0x60 DUP5 DUP7 SUB SLT ISZERO PUSH2 0x63D JUMPI PUSH2 0x63C PUSH2 0x4B9 JUMP JUMPDEST JUMPDEST PUSH1 0x0 PUSH2 0x64B DUP7 DUP3 DUP8 ADD PUSH2 0x4DA JUMP JUMPDEST SWAP4 POP POP PUSH1 0x20 DUP5 ADD CALLDATALOAD PUSH8 0xFFFFFFFFFFFFFFFF DUP2 GT ISZERO PUSH2 0x66C JUMPI PUSH2 0x66B PUSH2 0x4BE JUMP JUMPDEST JUMPDEST PUSH2 0x678 DUP7 DUP3 DUP8 ADD PUSH2 0x5F6 JUMP JUMPDEST SWAP3 POP POP PUSH1 0x40 DUP5 ADD CALLDATALOAD PUSH8 0xFFFFFFFFFFFFFFFF DUP2 GT ISZERO PUSH2 0x699 JUMPI PUSH2 0x698 PUSH2 0x4BE JUMP JUMPDEST JUMPDEST PUSH2 0x6A5 DUP7 DUP3 DUP8 ADD PUSH2 0x5F6 JUMP JUMPDEST SWAP2 POP POP SWAP3 POP SWAP3 POP SWAP3 JUMP JUMPDEST PUSH1 0x0 DUP1 PUSH1 0x40 DUP4 DUP6 SUB SLT ISZERO PUSH2 0x6C6 JUMPI PUSH2 0x6C5 PUSH2 0x4B9 JUMP JUMPDEST JUMPDEST PUSH1 0x0 PUSH2 0x6D4 DUP6 DUP3 DUP7 ADD PUSH2 0x4DA JUMP JUMPDEST SWAP3 POP POP PUSH1 0x20 PUSH2 0x6E5 DUP6 DUP3 DUP7 ADD PUSH2 0x4DA JUMP JUMPDEST SWAP2 POP POP SWAP3 POP SWAP3 SWAP1 POP JUMP JUMPDEST PUSH2 0x6F8 DUP2 PUSH2 0x2F7 JUMP JUMPDEST DUP3 MSTORE POP POP JUMP JUMPDEST PUSH1 0x0 DUP3 DUP3 MSTORE PUSH1 0x20 DUP3 ADD SWAP1 POP SWAP3 SWAP2 POP POP JUMP JUMPDEST PUSH1 0x0 PUSH2 0x71A DUP3 PUSH2 0x310 JUMP JUMPDEST PUSH2 0x724 DUP2 DUP6 PUSH2 0x6FE JUMP JUMPDEST SWAP4 POP PUSH2 0x734 DUP2 DUP6 PUSH1 0x20 DUP7 ADD PUSH2 0x32C JUMP JUMPDEST PUSH2 0x73D DUP2 PUSH2 0x356 JUMP JUMPDEST DUP5 ADD SWAP2 POP POP SWAP3 SWAP2 POP POP JUMP JUMPDEST PUSH1 0x0 PUSH1 0x60 DUP3 ADD SWAP1 POP PUSH2 0x75D PUSH1 0x0 DUP4 ADD DUP7 PUSH2 0x6EF JUMP JUMPDEST DUP2 DUP2 SUB PUSH1 0x20 DUP4 ADD MSTORE PUSH2 0x76F DUP2 DUP6 PUSH2 0x70F JUMP JUMPDEST SWAP1 POP DUP2 DUP2 SUB PUSH1 0x40 DUP4 ADD MSTORE PUSH2 0x783 DUP2 DUP5 PUSH2 0x70F JUMP JUMPDEST SWAP1 POP SWAP5 SWAP4 POP POP POP POP JUMP JUMPDEST PUSH32 0x4E487B7100000000000000000000000000000000000000000000000000000000 PUSH1 0x0 MSTORE PUSH1 0x11 PUSH1 0x4 MSTORE PUSH1 0x24 PUSH1 0x0 REVERT JUMPDEST PUSH1 0x0 PUSH2 0x7C7 DUP3 PUSH2 0x2F7 JUMP JUMPDEST SWAP2 POP PUSH32 0xFFFFFFFFFFFFFFFFFFFFFFFFFFFFFFFFFFFFFFFFFFFFFFFFFFFFFFFFFFFFFFFF DUP3 SUB PUSH2 0x7F9 JUMPI PUSH2 0x7F8 PUSH2 0x78D JUMP JUMPDEST JUMPDEST PUSH1 0x1 DUP3 ADD SWAP1 POP SWAP2 SWAP1 POP JUMP JUMPDEST PUSH32 0x4E487B7100000000000000000000000000000000000000000000000000000000 PUSH1 0x0 MSTORE PUSH1 0x22 PUSH1 0x4 MSTORE PUSH1 0x24 PUSH1 0x0 REVERT JUMPDEST PUSH1 0x0 PUSH1 0x2 DUP3 DIV SWAP1 POP PUSH1 0x1 DUP3 AND DUP1 PUSH2 0x84B JUMPI PUSH1 0x7F DUP3 AND SWAP2 POP JUMPDEST PUSH1 0x20 DUP3 LT DUP2 SUB PUSH2 0x85E JUMPI PUSH2 0x85D PUSH2 0x804 JUMP JUMPDEST JUMPDEST POP SWAP2 SWAP1 POP JUMP JUMPDEST PUSH1 0x0 DUP2 SWAP1 POP DUP2 PUSH1 0x0 MSTORE PUSH1 0x20 PUSH1 0x0 KECCAK256 SWAP1 POP SWAP2 SWAP1 POP JUMP JUMPDEST PUSH1 0x0 PUSH1 0x20 PUSH1 0x1F DUP4 ADD DIV SWAP1 POP SWAP2 SWAP1 POP JUMP JUMPDEST PUSH1 0x0 DUP3 DUP3 SHL SWAP1 POP SWAP3 SWAP2 POP POP JUMP JUMPDEST PUSH1 0x0 PUSH1 0x8 DUP4 MUL PUSH2 0x8C6 PUSH32 0xFFFFFFFFFFFFFFFFFFFFFFFFFFFFFFFFFFFFFFFFFFFFFFFFFFFFFFFFFFFFFFFF DUP3 PUSH2 0x889 JUMP JUMPDEST PUSH2 0x8D0 DUP7 DUP4 PUSH2 0x889 JUMP JUMPDEST SWAP6 POP DUP1 NOT DUP5 AND SWAP4 POP DUP1 DUP7 AND DUP5 OR SWAP3 POP POP POP SWAP4 SWAP3 POP POP POP JUMP JUMPDEST PUSH1 0x0 DUP2 SWAP1 POP SWAP2 SWAP1 POP JUMP JUMPDEST PUSH1 0x0 PUSH2 0x90D PUSH2 0x908 PUSH2 0x903 DUP5 PUSH2 0x2F7 JUMP JUMPDEST PUSH2 0x8E8 JUMP JUMPDEST PUSH2 0x2F7 JUMP JUMPDEST SWAP1 POP SWAP2 SWAP1 POP JUMP JUMPDEST PUSH1 0x0 DUP2 SWAP1 POP SWAP2 SWAP1 POP JUMP JUMPDEST PUSH2 0x927 DUP4 PUSH2 0x8F2 JUMP JUMPDEST PUSH2 0x93B PUSH2 0x933 DUP3 PUSH2 0x914 JUMP JUMPDEST DUP5 DUP5 SLOAD PUSH2 0x896 JUMP JUMPDEST DUP3 SSTORE POP POP POP POP JUMP JUMPDEST PUSH1 0x0 SWAP1 JUMP JUMPDEST PUSH2 0x950 PUSH2 0x943 JUMP JUMPDEST PUSH2 0x95B DUP2 DUP5 DUP5 PUSH2 0x91E JUMP JUMPDEST POP POP POP JUMP JUMPDEST JUMPDEST DUP2 DUP2 LT ISZERO PUSH2 0x97F JUMPI PUSH2 0x974 PUSH1 0x0 DUP3 PUSH2 0x948 JUMP JUMPDEST PUSH1 0x1 DUP2 ADD SWAP1 POP PUSH2 0x961 JUMP JUMPDEST POP POP JUMP JUMPDEST PUSH1 0x1F DUP3 GT ISZERO PUSH2 0x9C4 JUMPI PUSH2 0x995 DUP2 PUSH2 0x864 JUMP JUMPDEST PUSH2 0x99E DUP5 PUSH2 0x879 JUMP JUMPDEST DUP2 ADD PUSH1 0x20 DUP6 LT ISZERO PUSH2 0x9AD JUMPI DUP2 SWAP1 POP JUMPDEST PUSH2 0x9C1 PUSH2 0x9B9 DUP6 PUSH2 0x879 JUMP JUMPDEST DUP4 ADD DUP3 PUSH2 0x960 JUMP JUMPDEST POP POP JUMPDEST POP POP POP JUMP JUMPDEST PUSH1 0x0 DUP3 DUP3 SHR SWAP1 POP SWAP3 SWAP2 POP POP JUMP JUMPDEST PUSH1 0x0 PUSH2 0x9E7 PUSH1 0x0 NOT DUP5 PUSH1 0x8 MUL PUSH2 0x9C9 JUMP JUMPDEST NOT DUP1 DUP4 AND SWAP2 POP POP SWAP3 SWAP2 POP POP JUMP JUMPDEST PUSH1 0x0 PUSH2 0xA00 DUP4 DUP4 PUSH2 0x9D6 JUMP JUMPDEST SWAP2 POP DUP3 PUSH1 0x2 MUL DUP3 OR SWAP1 POP SWAP3 SWAP2 POP POP JUMP JUMPDEST PUSH2 0xA19 DUP3 PUSH2 0x310 JUMP JUMPDEST PUSH8 0xFFFFFFFFFFFFFFFF DUP2 GT ISZERO PUSH2 0xA32 JUMPI PUSH2 0xA31 PUSH2 0x4F9 JUMP JUMPDEST JUMPDEST PUSH2 0xA3C DUP3 SLOAD PUSH2 0x833 JUMP JUMPDEST PUSH2 0xA47 DUP3 DUP3 DUP6 PUSH2 0x983 JUMP JUMPDEST PUSH1 0x0 PUSH1 0x20 SWAP1 POP PUSH1 0x1F DUP4 GT PUSH1 0x1 DUP2 EQ PUSH2 0xA7A JUMPI PUSH1 0x0 DUP5 ISZERO PUSH2 0xA68 JUMPI DUP3 DUP8 ADD MLOAD SWAP1 POP JUMPDEST PUSH2 0xA72 DUP6 DUP3 PUSH2 0x9F4 JUMP JUMPDEST DUP7 SSTORE POP PUSH2 0xADA JUMP JUMPDEST PUSH1 0x1F NOT DUP5 AND PUSH2 0xA88 DUP7 PUSH2 0x864 JUMP JUMPDEST PUSH1 0x0 JUMPDEST DUP3 DUP2 LT ISZERO PUSH2 0xAB0 JUMPI DUP5 DUP10 ADD MLOAD DUP3 SSTORE PUSH1 0x1 DUP3 ADD SWAP2 POP PUSH1 0x20 DUP6 ADD SWAP5 POP PUSH1 0x20 DUP2 ADD SWAP1 POP PUSH2 0xA8B JUMP JUMPDEST DUP7 DUP4 LT ISZERO PUSH2 0xACD JUMPI DUP5 DUP10 ADD MLOAD PUSH2 0xAC9 PUSH1 0x1F DUP10 AND DUP3 PUSH2 0x9D6 JUMP JUMPDEST DUP4 SSTORE POP JUMPDEST PUSH1 0x1 PUSH1 0x2 DUP9 MUL ADD DUP9 SSTORE POP POP POP JUMPDEST POP POP POP POP POP POP JUMP INVALID LOG2 PUSH5 0x6970667358 0x22 SLT KECCAK256 0xB2 DUP16 0x49 EXTCODEHASH 0xE0 PUSH19 0xEDDB9F3EA8E97739F9AF8E77709DD3046EBB6A LOG4 0xAB CALLCODE BYTE 0xE8 0xA6 INVALID PUSH5 0x736F6C6343 STOP ADDMOD SLT STOP CALLER "
		},
		"gasEstimates": {
			"creation": {
				"codeDepositCost": "568000",
				"executionCost": "600",
				"totalCost": "568600"
			},
			"external": {
				"Get_all_students()": "infinite",
				"add_student(uint256,string,string)": "infinite",
				"students_data(uint256,uint256)": "infinite"
			}
		},
		"methodIdentifiers": {
			"Get_all_students()": "415ef371",
			"add_student(uint256,string,string)": "467d2005",
			"students_data(uint256,uint256)": "4b6f12fc"
		}
	},
	"abi": [
		{
			"inputs": [],
			"name": "Get_all_students",
			"outputs": [
				{
					"components": [
						{
							"internalType": "uint256",
							"name": "roll",
							"type": "uint256"
						},
						{
							"internalType": "string",
							"name": "name",
							"type": "string"
						},
						{
							"internalType": "string",
							"name": "department",
							"type": "string"
						}
					],
					"internalType": "struct arrr.student[]",
					"name": "",
					"type": "tuple[]"
				}
			],
			"stateMutability": "view",
			"type": "function"
		},
		{
			"inputs": [
				{
					"internalType": "uint256",
					"name": "roll",
					"type": "uint256"
				},
				{
					"internalType": "string",
					"name": "name",
					"type": "string"
				},
				{
					"internalType": "string",
					"name": "department",
					"type": "string"
				}
			],
			"name": "add_student",
			"outputs": [],
			"stateMutability": "nonpayable",
			"type": "function"
		},
		{
			"inputs": [
				{
					"internalType": "uint256",
					"name": "",
					"type": "uint256"
				},
				{
					"internalType": "uint256",
					"name": "",
					"type": "uint256"
				}
			],
			"name": "students_data",
			"outputs": [
				{
					"internalType": "uint256",
					"name": "roll",
					"type": "uint256"
				},
				{
					"internalType": "string",
					"name": "name",
					"type": "string"
				},
				{
					"internalType": "string",
					"name": "department",
					"type": "string"
				}
			],
			"stateMutability": "view",
			"type": "function"
		}
	]
}