{
	"data": {
		"bytecode": {
			"linkReferences": {},
			"object": "608060405234801561001057600080fd5b50610980806100206000396000f3fe608060405234801561001057600080fd5b50600436106100415760003560e01c80633dfb0570146100465780636cc014de14610062578063f0ba844014610084575b600080fd5b610060600480360381019061005b919061049f565b6100b8565b005b61006a610153565b60405161007b9594939291906105e5565b60405180910390f35b61009e6004803603810190610099919061063f565b61020c565b6040516100af9594939291906105e5565b60405180910390f35b6040518060a001604052808681526020018581526020018481526020018381526020018215158152506005600088815260200190815260200160002060008201518160000190816101099190610878565b5060208201518160010155604082015181600201556060820151816003015560808201518160040160006101000a81548160ff021916908315150217905550905050505050505050565b60008060000180546101649061069b565b80601f01602080910402602001604051908101604052809291908181526020018280546101909061069b565b80156101dd5780601f106101b2576101008083540402835291602001916101dd565b820191906000526020600020905b8154815290600101906020018083116101c057829003601f168201915b5050505050908060010154908060020154908060030154908060040160009054906101000a900460ff16905085565b600560205280600052604060002060009150905080600001805461022f9061069b565b80601f016020809104026020016040519081016040528092919081815260200182805461025b9061069b565b80156102a85780601f1061027d576101008083540402835291602001916102a8565b820191906000526020600020905b81548152906001019060200180831161028b57829003601f168201915b5050505050908060010154908060020154908060030154908060040160009054906101000a900460ff16905085565b6000604051905090565b600080fd5b600080fd5b6000819050919050565b6102fe816102eb565b811461030957600080fd5b50565b60008135905061031b816102f5565b92915050565b600080fd5b600080fd5b6000601f19601f8301169050919050565b7f4e487b7100000000000000000000000000000000000000000000000000000000600052604160045260246000fd5b6103748261032b565b810181811067ffffffffffffffff821117156103935761039261033c565b5b80604052505050565b60006103a66102d7565b90506103b2828261036b565b919050565b600067ffffffffffffffff8211156103d2576103d161033c565b5b6103db8261032b565b9050602081019050919050565b82818337600083830152505050565b600061040a610405846103b7565b61039c565b90508281526020810184848401111561042657610425610326565b5b6104318482856103e8565b509392505050565b600082601f83011261044e5761044d610321565b5b813561045e8482602086016103f7565b91505092915050565b60008115159050919050565b61047c81610467565b811461048757600080fd5b50565b60008135905061049981610473565b92915050565b60008060008060008060c087890312156104bc576104bb6102e1565b5b60006104ca89828a0161030c565b965050602087013567ffffffffffffffff8111156104eb576104ea6102e6565b5b6104f789828a01610439565b955050604061050889828a0161030c565b945050606061051989828a0161030c565b935050608061052a89828a0161030c565b92505060a061053b89828a0161048a565b9150509295509295509295565b600081519050919050565b600082825260208201905092915050565b60005b83811015610582578082015181840152602081019050610567565b60008484015250505050565b600061059982610548565b6105a38185610553565b93506105b3818560208601610564565b6105bc8161032b565b840191505092915050565b6105d0816102eb565b82525050565b6105df81610467565b82525050565b600060a08201905081810360008301526105ff818861058e565b905061060e60208301876105c7565b61061b60408301866105c7565b61062860608301856105c7565b61063560808301846105d6565b9695505050505050565b600060208284031215610655576106546102e1565b5b60006106638482850161030c565b91505092915050565b7f4e487b7100000000000000000000000000000000000000000000000000000000600052602260045260246000fd5b600060028204905060018216806106b357607f821691505b6020821081036106c6576106c561066c565b5b50919050565b60008190508160005260206000209050919050565b60006020601f8301049050919050565b600082821b905092915050565b60006008830261072e7fffffffffffffffffffffffffffffffffffffffffffffffffffffffffffffffff826106f1565b61073886836106f1565b95508019841693508086168417925050509392505050565b6000819050919050565b600061077561077061076b846102eb565b610750565b6102eb565b9050919050565b6000819050919050565b61078f8361075a565b6107a361079b8261077c565b8484546106fe565b825550505050565b600090565b6107b86107ab565b6107c3818484610786565b505050565b5b818110156107e7576107dc6000826107b0565b6001810190506107c9565b5050565b601f82111561082c576107fd816106cc565b610806846106e1565b81016020851015610815578190505b610829610821856106e1565b8301826107c8565b50505b505050565b600082821c905092915050565b600061084f60001984600802610831565b1980831691505092915050565b6000610868838361083e565b9150826002028217905092915050565b61088182610548565b67ffffffffffffffff81111561089a5761089961033c565b5b6108a4825461069b565b6108af8282856107eb565b600060209050601f8311600181146108e257600084156108d0578287015190505b6108da858261085c565b865550610942565b601f1984166108f0866106cc565b60005b82811015610918578489015182556001820191506020850194506020810190506108f3565b868310156109355784890151610931601f89168261083e565b8355505b6001600288020188555050505b50505050505056fea26469706673582212204908f40ad24c89e21699aff864d51ee78ef1b6bf62b93022a4d28638db26697864736f6c63430008120033",
			"opcodes": "PUSH1 0x80 PUSH1 0x40 MSTORE CALLVALUE DUP1 ISZERO PUSH2 0x10 JUMPI PUSH1 0x0 DUP1 REVERT JUMPDEST POP PUSH2 0x980 DUP1 PUSH2 0x20 PUSH1 0x0 CODECOPY PUSH1 0x0 RETURN INVALID PUSH1 0x80 PUSH1 0x40 MSTORE CALLVALUE DUP1 ISZERO PUSH2 0x10 JUMPI PUSH1 0x0 DUP1 REVERT JUMPDEST POP PUSH1 0x4 CALLDATASIZE LT PUSH2 0x41 JUMPI PUSH1 0x0 CALLDATALOAD PUSH1 0xE0 SHR DUP1 PUSH4 0x3DFB0570 EQ PUSH2 0x46 JUMPI DUP1 PUSH4 0x6CC014DE EQ PUSH2 0x62 JUMPI DUP1 PUSH4 0xF0BA8440 EQ PUSH2 0x84 JUMPI JUMPDEST PUSH1 0x0 DUP1 REVERT JUMPDEST PUSH2 0x60 PUSH1 0x4 DUP1 CALLDATASIZE SUB DUP2 ADD SWAP1 PUSH2 0x5B SWAP2 SWAP1 PUSH2 0x49F JUMP JUMPDEST PUSH2 0xB8 JUMP JUMPDEST STOP JUMPDEST PUSH2 0x6A PUSH2 0x153 JUMP JUMPDEST PUSH1 0x40 MLOAD PUSH2 0x7B SWAP6 SWAP5 SWAP4 SWAP3 SWAP2 SWAP1 PUSH2 0x5E5 JUMP JUMPDEST PUSH1 0x40 MLOAD DUP1 SWAP2 SUB SWAP1 RETURN JUMPDEST PUSH2 0x9E PUSH1 0x4 DUP1 CALLDATASIZE SUB DUP2 ADD SWAP1 PUSH2 0x99 SWAP2 SWAP1 PUSH2 0x63F JUMP JUMPDEST PUSH2 0x20C JUMP JUMPDEST PUSH1 0x40 MLOAD PUSH2 0xAF SWAP6 SWAP5 SWAP4 SWAP3 SWAP2 SWAP1 PUSH2 0x5E5 JUMP JUMPDEST PUSH1 0x40 MLOAD DUP1 SWAP2 SUB SWAP1 RETURN JUMPDEST PUSH1 0x40 MLOAD DUP1 PUSH1 0xA0 ADD PUSH1 0x40 MSTORE DUP1 DUP7 DUP2 MSTORE PUSH1 0x20 ADD DUP6 DUP2 MSTORE PUSH1 0x20 ADD DUP5 DUP2 MSTORE PUSH1 0x20 ADD DUP4 DUP2 MSTORE PUSH1 0x20 ADD DUP3 ISZERO ISZERO DUP2 MSTORE POP PUSH1 0x5 PUSH1 0x0 DUP9 DUP2 MSTORE PUSH1 0x20 ADD SWAP1 DUP2 MSTORE PUSH1 0x20 ADD PUSH1 0x0 KECCAK256 PUSH1 0x0 DUP3 ADD MLOAD DUP2 PUSH1 0x0 ADD SWAP1 DUP2 PUSH2 0x109 SWAP2 SWAP1 PUSH2 0x878 JUMP JUMPDEST POP PUSH1 0x20 DUP3 ADD MLOAD DUP2 PUSH1 0x1 ADD SSTORE PUSH1 0x40 DUP3 ADD MLOAD DUP2 PUSH1 0x2 ADD SSTORE PUSH1 0x60 DUP3 ADD MLOAD DUP2 PUSH1 0x3 ADD SSTORE PUSH1 0x80 DUP3 ADD MLOAD DUP2 PUSH1 0x4 ADD PUSH1 0x0 PUSH2 0x100 EXP DUP2 SLOAD DUP2 PUSH1 0xFF MUL NOT AND SWAP1 DUP4 ISZERO ISZERO MUL OR SWAP1 SSTORE POP SWAP1 POP POP POP POP POP POP POP POP JUMP JUMPDEST PUSH1 0x0 DUP1 PUSH1 0x0 ADD DUP1 SLOAD PUSH2 0x164 SWAP1 PUSH2 0x69B JUMP JUMPDEST DUP1 PUSH1 0x1F ADD PUSH1 0x20 DUP1 SWAP2 DIV MUL PUSH1 0x20 ADD PUSH1 0x40 MLOAD SWAP1 DUP2 ADD PUSH1 0x40 MSTORE DUP1 SWAP3 SWAP2 SWAP1 DUP2 DUP2 MSTORE PUSH1 0x20 ADD DUP3 DUP1 SLOAD PUSH2 0x190 SWAP1 PUSH2 0x69B JUMP JUMPDEST DUP1 ISZERO PUSH2 0x1DD JUMPI DUP1 PUSH1 0x1F LT PUSH2 0x1B2 JUMPI PUSH2 0x100 DUP1 DUP4 SLOAD DIV MUL DUP4 MSTORE SWAP2 PUSH1 0x20 ADD SWAP2 PUSH2 0x1DD JUMP JUMPDEST DUP3 ADD SWAP2 SWAP1 PUSH1 0x0 MSTORE PUSH1 0x20 PUSH1 0x0 KECCAK256 SWAP1 JUMPDEST DUP2 SLOAD DUP2 MSTORE SWAP1 PUSH1 0x1 ADD SWAP1 PUSH1 0x20 ADD DUP1 DUP4 GT PUSH2 0x1C0 JUMPI DUP3 SWAP1 SUB PUSH1 0x1F AND DUP3 ADD SWAP2 JUMPDEST POP POP POP POP POP SWAP1 DUP1 PUSH1 0x1 ADD SLOAD SWAP1 DUP1 PUSH1 0x2 ADD SLOAD SWAP1 DUP1 PUSH1 0x3 ADD SLOAD SWAP1 DUP1 PUSH1 0x4 ADD PUSH1 0x0 SWAP1 SLOAD SWAP1 PUSH2 0x100 EXP SWAP1 DIV PUSH1 0xFF AND SWAP1 POP DUP6 JUMP JUMPDEST PUSH1 0x5 PUSH1 0x20 MSTORE DUP1 PUSH1 0x0 MSTORE PUSH1 0x40 PUSH1 0x0 KECCAK256 PUSH1 0x0 SWAP2 POP SWAP1 POP DUP1 PUSH1 0x0 ADD DUP1 SLOAD PUSH2 0x22F SWAP1 PUSH2 0x69B JUMP JUMPDEST DUP1 PUSH1 0x1F ADD PUSH1 0x20 DUP1 SWAP2 DIV MUL PUSH1 0x20 ADD PUSH1 0x40 MLOAD SWAP1 DUP2 ADD PUSH1 0x40 MSTORE DUP1 SWAP3 SWAP2 SWAP1 DUP2 DUP2 MSTORE PUSH1 0x20 ADD DUP3 DUP1 SLOAD PUSH2 0x25B SWAP1 PUSH2 0x69B JUMP JUMPDEST DUP1 ISZERO PUSH2 0x2A8 JUMPI DUP1 PUSH1 0x1F LT PUSH2 0x27D JUMPI PUSH2 0x100 DUP1 DUP4 SLOAD DIV MUL DUP4 MSTORE SWAP2 PUSH1 0x20 ADD SWAP2 PUSH2 0x2A8 JUMP JUMPDEST DUP3 ADD SWAP2 SWAP1 PUSH1 0x0 MSTORE PUSH1 0x20 PUSH1 0x0 KECCAK256 SWAP1 JUMPDEST DUP2 SLOAD DUP2 MSTORE SWAP1 PUSH1 0x1 ADD SWAP1 PUSH1 0x20 ADD DUP1 DUP4 GT PUSH2 0x28B JUMPI DUP3 SWAP1 SUB PUSH1 0x1F AND DUP3 ADD SWAP2 JUMPDEST POP POP POP POP POP SWAP1 DUP1 PUSH1 0x1 ADD SLOAD SWAP1 DUP1 PUSH1 0x2 ADD SLOAD SWAP1 DUP1 PUSH1 0x3 ADD SLOAD SWAP1 DUP1 PUSH1 0x4 ADD PUSH1 0x0 SWAP1 SLOAD SWAP1 PUSH2 0x100 EXP SWAP1 DIV PUSH1 0xFF AND SWAP1 POP DUP6 JUMP JUMPDEST PUSH1 0x0 PUSH1 0x40 MLOAD SWAP1 POP SWAP1 JUMP JUMPDEST PUSH1 0x0 DUP1 REVERT JUMPDEST PUSH1 0x0 DUP1 REVERT JUMPDEST PUSH1 0x0 DUP2 SWAP1 POP SWAP2 SWAP1 POP JUMP JUMPDEST PUSH2 0x2FE DUP2 PUSH2 0x2EB JUMP JUMPDEST DUP2 EQ PUSH2 0x309 JUMPI PUSH1 0x0 DUP1 REVERT JUMPDEST POP JUMP JUMPDEST PUSH1 0x0 DUP2 CALLDATALOAD SWAP1 POP PUSH2 0x31B DUP2 PUSH2 0x2F5 JUMP JUMPDEST SWAP3 SWAP2 POP POP JUMP JUMPDEST PUSH1 0x0 DUP1 REVERT JUMPDEST PUSH1 0x0 DUP1 REVERT JUMPDEST PUSH1 0x0 PUSH1 0x1F NOT PUSH1 0x1F DUP4 ADD AND SWAP1 POP SWAP2 SWAP1 POP JUMP JUMPDEST PUSH32 0x4E487B7100000000000000000000000000000000000000000000000000000000 PUSH1 0x0 MSTORE PUSH1 0x41 PUSH1 0x4 MSTORE PUSH1 0x24 PUSH1 0x0 REVERT JUMPDEST PUSH2 0x374 DUP3 PUSH2 0x32B JUMP JUMPDEST DUP2 ADD DUP2 DUP2 LT PUSH8 0xFFFFFFFFFFFFFFFF DUP3 GT OR ISZERO PUSH2 0x393 JUMPI PUSH2 0x392 PUSH2 0x33C JUMP JUMPDEST JUMPDEST DUP1 PUSH1 0x40 MSTORE POP POP POP JUMP JUMPDEST PUSH1 0x0 PUSH2 0x3A6 PUSH2 0x2D7 JUMP JUMPDEST SWAP1 POP PUSH2 0x3B2 DUP3 DUP3 PUSH2 0x36B JUMP JUMPDEST SWAP2 SWAP1 POP JUMP JUMPDEST PUSH1 0x0 PUSH8 0xFFFFFFFFFFFFFFFF DUP3 GT ISZERO PUSH2 0x3D2 JUMPI PUSH2 0x3D1 PUSH2 0x33C JUMP JUMPDEST JUMPDEST PUSH2 0x3DB DUP3 PUSH2 0x32B JUMP JUMPDEST SWAP1 POP PUSH1 0x20 DUP2 ADD SWAP1 POP SWAP2 SWAP1 POP JUMP JUMPDEST DUP3 DUP2 DUP4 CALLDATACOPY PUSH1 0x0 DUP4 DUP4 ADD MSTORE POP POP POP JUMP JUMPDEST PUSH1 0x0 PUSH2 0x40A PUSH2 0x405 DUP5 PUSH2 0x3B7 JUMP JUMPDEST PUSH2 0x39C JUMP JUMPDEST SWAP1 POP DUP3 DUP2 MSTORE PUSH1 0x20 DUP2 ADD DUP5 DUP5 DUP5 ADD GT ISZERO PUSH2 0x426 JUMPI PUSH2 0x425 PUSH2 0x326 JUMP JUMPDEST JUMPDEST PUSH2 0x431 DUP5 DUP3 DUP6 PUSH2 0x3E8 JUMP JUMPDEST POP SWAP4 SWAP3 POP POP POP JUMP JUMPDEST PUSH1 0x0 DUP3 PUSH1 0x1F DUP4 ADD SLT PUSH2 0x44E JUMPI PUSH2 0x44D PUSH2 0x321 JUMP JUMPDEST JUMPDEST DUP2 CALLDATALOAD PUSH2 0x45E DUP5 DUP3 PUSH1 0x20 DUP7 ADD PUSH2 0x3F7 JUMP JUMPDEST SWAP2 POP POP SWAP3 SWAP2 POP POP JUMP JUMPDEST PUSH1 0x0 DUP2 ISZERO ISZERO SWAP1 POP SWAP2 SWAP1 POP JUMP JUMPDEST PUSH2 0x47C DUP2 PUSH2 0x467 JUMP JUMPDEST DUP2 EQ PUSH2 0x487 JUMPI PUSH1 0x0 DUP1 REVERT JUMPDEST POP JUMP JUMPDEST PUSH1 0x0 DUP2 CALLDATALOAD SWAP1 POP PUSH2 0x499 DUP2 PUSH2 0x473 JUMP JUMPDEST SWAP3 SWAP2 POP POP JUMP JUMPDEST PUSH1 0x0 DUP1 PUSH1 0x0 DUP1 PUSH1 0x0 DUP1 PUSH1 0xC0 DUP8 DUP10 SUB SLT ISZERO PUSH2 0x4BC JUMPI PUSH2 0x4BB PUSH2 0x2E1 JUMP JUMPDEST JUMPDEST PUSH1 0x0 PUSH2 0x4CA DUP10 DUP3 DUP11 ADD PUSH2 0x30C JUMP JUMPDEST SWAP7 POP POP PUSH1 0x20 DUP8 ADD CALLDATALOAD PUSH8 0xFFFFFFFFFFFFFFFF DUP2 GT ISZERO PUSH2 0x4EB JUMPI PUSH2 0x4EA PUSH2 0x2E6 JUMP JUMPDEST JUMPDEST PUSH2 0x4F7 DUP10 DUP3 DUP11 ADD PUSH2 0x439 JUMP JUMPDEST SWAP6 POP POP PUSH1 0x40 PUSH2 0x508 DUP10 DUP3 DUP11 ADD PUSH2 0x30C JUMP JUMPDEST SWAP5 POP POP PUSH1 0x60 PUSH2 0x519 DUP10 DUP3 DUP11 ADD PUSH2 0x30C JUMP JUMPDEST SWAP4 POP POP PUSH1 0x80 PUSH2 0x52A DUP10 DUP3 DUP11 ADD PUSH2 0x30C JUMP JUMPDEST SWAP3 POP POP PUSH1 0xA0 PUSH2 0x53B DUP10 DUP3 DUP11 ADD PUSH2 0x48A JUMP JUMPDEST SWAP2 POP POP SWAP3 SWAP6 POP SWAP3 SWAP6 POP SWAP3 SWAP6 JUMP JUMPDEST PUSH1 0x0 DUP2 MLOAD SWAP1 POP SWAP2 SWAP1 POP JUMP JUMPDEST PUSH1 0x0 DUP3 DUP3 MSTORE PUSH1 0x20 DUP3 ADD SWAP1 POP SWAP3 SWAP2 POP POP JUMP JUMPDEST PUSH1 0x0 JUMPDEST DUP4 DUP2 LT ISZERO PUSH2 0x582 JUMPI DUP1 DUP3 ADD MLOAD DUP2 DUP5 ADD MSTORE PUSH1 0x20 DUP2 ADD SWAP1 POP PUSH2 0x567 JUMP JUMPDEST PUSH1 0x0 DUP5 DUP5 ADD MSTORE POP POP POP POP JUMP JUMPDEST PUSH1 0x0 PUSH2 0x599 DUP3 PUSH2 0x548 JUMP JUMPDEST PUSH2 0x5A3 DUP2 DUP6 PUSH2 0x553 JUMP JUMPDEST SWAP4 POP PUSH2 0x5B3 DUP2 DUP6 PUSH1 0x20 DUP7 ADD PUSH2 0x564 JUMP JUMPDEST PUSH2 0x5BC DUP2 PUSH2 0x32B JUMP JUMPDEST DUP5 ADD SWAP2 POP POP SWAP3 SWAP2 POP POP JUMP JUMPDEST PUSH2 0x5D0 DUP2 PUSH2 0x2EB JUMP JUMPDEST DUP3 MSTORE POP POP JUMP JUMPDEST PUSH2 0x5DF DUP2 PUSH2 0x467 JUMP JUMPDEST DUP3 MSTORE POP POP JUMP JUMPDEST PUSH1 0x0 PUSH1 0xA0 DUP3 ADD SWAP1 POP DUP2 DUP2 SUB PUSH1 0x0 DUP4 ADD MSTORE PUSH2 0x5FF DUP2 DUP9 PUSH2 0x58E JUMP JUMPDEST SWAP1 POP PUSH2 0x60E PUSH1 0x20 DUP4 ADD DUP8 PUSH2 0x5C7 JUMP JUMPDEST PUSH2 0x61B PUSH1 0x40 DUP4 ADD DUP7 PUSH2 0x5C7 JUMP JUMPDEST PUSH2 0x628 PUSH1 0x60 DUP4 ADD DUP6 PUSH2 0x5C7 JUMP JUMPDEST PUSH2 0x635 PUSH1 0x80 DUP4 ADD DUP5 PUSH2 0x5D6 JUMP JUMPDEST SWAP7 SWAP6 POP POP POP POP POP POP JUMP JUMPDEST PUSH1 0x0 PUSH1 0x20 DUP3 DUP5 SUB SLT ISZERO PUSH2 0x655 JUMPI PUSH2 0x654 PUSH2 0x2E1 JUMP JUMPDEST JUMPDEST PUSH1 0x0 PUSH2 0x663 DUP5 DUP3 DUP6 ADD PUSH2 0x30C JUMP JUMPDEST SWAP2 POP POP SWAP3 SWAP2 POP POP JUMP JUMPDEST PUSH32 0x4E487B7100000000000000000000000000000000000000000000000000000000 PUSH1 0x0 MSTORE PUSH1 0x22 PUSH1 0x4 MSTORE PUSH1 0x24 PUSH1 0x0 REVERT JUMPDEST PUSH1 0x0 PUSH1 0x2 DUP3 DIV SWAP1 POP PUSH1 0x1 DUP3 AND DUP1 PUSH2 0x6B3 JUMPI PUSH1 0x7F DUP3 AND SWAP2 POP JUMPDEST PUSH1 0x20 DUP3 LT DUP2 SUB PUSH2 0x6C6 JUMPI PUSH2 0x6C5 PUSH2 0x66C JUMP JUMPDEST JUMPDEST POP SWAP2 SWAP1 POP JUMP JUMPDEST PUSH1 0x0 DUP2 SWAP1 POP DUP2 PUSH1 0x0 MSTORE PUSH1 0x20 PUSH1 0x0 KECCAK256 SWAP1 POP SWAP2 SWAP1 POP JUMP JUMPDEST PUSH1 0x0 PUSH1 0x20 PUSH1 0x1F DUP4 ADD DIV SWAP1 POP SWAP2 SWAP1 POP JUMP JUMPDEST PUSH1 0x0 DUP3 DUP3 SHL SWAP1 POP SWAP3 SWAP2 POP POP JUMP JUMPDEST PUSH1 0x0 PUSH1 0x8 DUP4 MUL PUSH2 0x72E PUSH32 0xFFFFFFFFFFFFFFFFFFFFFFFFFFFFFFFFFFFFFFFFFFFFFFFFFFFFFFFFFFFFFFFF DUP3 PUSH2 0x6F1 JUMP JUMPDEST PUSH2 0x738 DUP7 DUP4 PUSH2 0x6F1 JUMP JUMPDEST SWAP6 POP DUP1 NOT DUP5 AND SWAP4 POP DUP1 DUP7 AND DUP5 OR SWAP3 POP POP POP SWAP4 SWAP3 POP POP POP JUMP JUMPDEST PUSH1 0x0 DUP2 SWAP1 POP SWAP2 SWAP1 POP JUMP JUMPDEST PUSH1 0x0 PUSH2 0x775 PUSH2 0x770 PUSH2 0x76B DUP5 PUSH2 0x2EB JUMP JUMPDEST PUSH2 0x750 JUMP JUMPDEST PUSH2 0x2EB JUMP JUMPDEST SWAP1 POP SWAP2 SWAP1 POP JUMP JUMPDEST PUSH1 0x0 DUP2 SWAP1 POP SWAP2 SWAP1 POP JUMP JUMPDEST PUSH2 0x78F DUP4 PUSH2 0x75A JUMP JUMPDEST PUSH2 0x7A3 PUSH2 0x79B DUP3 PUSH2 0x77C JUMP JUMPDEST DUP5 DUP5 SLOAD PUSH2 0x6FE JUMP JUMPDEST DUP3 SSTORE POP POP POP POP JUMP JUMPDEST PUSH1 0x0 SWAP1 JUMP JUMPDEST PUSH2 0x7B8 PUSH2 0x7AB JUMP JUMPDEST PUSH2 0x7C3 DUP2 DUP5 DUP5 PUSH2 0x786 JUMP JUMPDEST POP POP POP JUMP JUMPDEST JUMPDEST DUP2 DUP2 LT ISZERO PUSH2 0x7E7 JUMPI PUSH2 0x7DC PUSH1 0x0 DUP3 PUSH2 0x7B0 JUMP JUMPDEST PUSH1 0x1 DUP2 ADD SWAP1 POP PUSH2 0x7C9 JUMP JUMPDEST POP POP JUMP JUMPDEST PUSH1 0x1F DUP3 GT ISZERO PUSH2 0x82C JUMPI PUSH2 0x7FD DUP2 PUSH2 0x6CC JUMP JUMPDEST PUSH2 0x806 DUP5 PUSH2 0x6E1 JUMP JUMPDEST DUP2 ADD PUSH1 0x20 DUP6 LT ISZERO PUSH2 0x815 JUMPI DUP2 SWAP1 POP JUMPDEST PUSH2 0x829 PUSH2 0x821 DUP6 PUSH2 0x6E1 JUMP JUMPDEST DUP4 ADD DUP3 PUSH2 0x7C8 JUMP JUMPDEST POP POP JUMPDEST POP POP POP JUMP JUMPDEST PUSH1 0x0 DUP3 DUP3 SHR SWAP1 POP SWAP3 SWAP2 POP POP JUMP JUMPDEST PUSH1 0x0 PUSH2 0x84F PUSH1 0x0 NOT DUP5 PUSH1 0x8 MUL PUSH2 0x831 JUMP JUMPDEST NOT DUP1 DUP4 AND SWAP2 POP POP SWAP3 SWAP2 POP POP JUMP JUMPDEST PUSH1 0x0 PUSH2 0x868 DUP4 DUP4 PUSH2 0x83E JUMP JUMPDEST SWAP2 POP DUP3 PUSH1 0x2 MUL DUP3 OR SWAP1 POP SWAP3 SWAP2 POP POP JUMP JUMPDEST PUSH2 0x881 DUP3 PUSH2 0x548 JUMP JUMPDEST PUSH8 0xFFFFFFFFFFFFFFFF DUP2 GT ISZERO PUSH2 0x89A JUMPI PUSH2 0x899 PUSH2 0x33C JUMP JUMPDEST JUMPDEST PUSH2 0x8A4 DUP3 SLOAD PUSH2 0x69B JUMP JUMPDEST PUSH2 0x8AF DUP3 DUP3 DUP6 PUSH2 0x7EB JUMP JUMPDEST PUSH1 0x0 PUSH1 0x20 SWAP1 POP PUSH1 0x1F DUP4 GT PUSH1 0x1 DUP2 EQ PUSH2 0x8E2 JUMPI PUSH1 0x0 DUP5 ISZERO PUSH2 0x8D0 JUMPI DUP3 DUP8 ADD MLOAD SWAP1 POP JUMPDEST PUSH2 0x8DA DUP6 DUP3 PUSH2 0x85C JUMP JUMPDEST DUP7 SSTORE POP PUSH2 0x942 JUMP JUMPDEST PUSH1 0x1F NOT DUP5 AND PUSH2 0x8F0 DUP7 PUSH2 0x6CC JUMP JUMPDEST PUSH1 0x0 JUMPDEST DUP3 DUP2 LT ISZERO PUSH2 0x918 JUMPI DUP5 DUP10 ADD MLOAD DUP3 SSTORE PUSH1 0x1 DUP3 ADD SWAP2 POP PUSH1 0x20 DUP6 ADD SWAP5 POP PUSH1 0x20 DUP2 ADD SWAP1 POP PUSH2 0x8F3 JUMP JUMPDEST DUP7 DUP4 LT ISZERO PUSH2 0x935 JUMPI DUP5 DUP10 ADD MLOAD PUSH2 0x931 PUSH1 0x1F DUP10 AND DUP3 PUSH2 0x83E JUMP JUMPDEST DUP4 SSTORE POP JUMPDEST PUSH1 0x1 PUSH1 0x2 DUP9 MUL ADD DUP9 SSTORE POP POP POP JUMPDEST POP POP POP POP POP POP JUMP INVALID LOG2 PUSH5 0x6970667358 0x22 SLT KECCAK256 0x49 ADDMOD DELEGATECALL EXP 0xD2 0x4C DUP10 0xE2 AND SWAP10 0xAF 0xF8 PUSH5 0xD51EE78EF1 0xB6 0xBF PUSH3 0xB93022 LOG4 0xD2 DUP7 CODESIZE 0xDB 0x26 PUSH10 0x7864736F6C6343000812 STOP CALLER "
		},
		"gasEstimates": {
			"creation": {
				"codeDepositCost": "486400",
				"executionCost": "518",
				"totalCost": "486918"
			},
			"external": {
				"data(uint256)": "infinite",
				"s1()": "infinite",
				"studentdata(uint256,string,uint256,uint256,uint256,bool)": "infinite"
			}
		},
		"methodIdentifiers": {
			"data(uint256)": "f0ba8440",
			"s1()": "6cc014de",
			"studentdata(uint256,string,uint256,uint256,uint256,bool)": "3dfb0570"
		}
	},
	"abi": [
		{
			"inputs": [
				{
					"internalType": "uint256",
					"name": "",
					"type": "uint256"
				}
			],
			"name": "data",
			"outputs": [
				{
					"internalType": "string",
					"name": "name",
					"type": "string"
				},
				{
					"internalType": "uint256",
					"name": "age",
					"type": "uint256"
				},
				{
					"internalType": "uint256",
					"name": "class",
					"type": "uint256"
				},
				{
					"internalType": "uint256",
					"name": "rollno",
					"type": "uint256"
				},
				{
					"internalType": "bool",
					"name": "tf",
					"type": "bool"
				}
			],
			"stateMutability": "view",
			"type": "function"
		},
		{
			"inputs": [],
			"name": "s1",
			"outputs": [
				{
					"internalType": "string",
					"name": "name",
					"type": "string"
				},
				{
					"internalType": "uint256",
					"name": "age",
					"type": "uint256"
				},
				{
					"internalType": "uint256",
					"name": "class",
					"type": "uint256"
				},
				{
					"internalType": "uint256",
					"name": "rollno",
					"type": "uint256"
				},
				{
					"internalType": "bool",
					"name": "tf",
					"type": "bool"
				}
			],
			"stateMutability": "view",
			"type": "function"
		},
		{
			"inputs": [
				{
					"internalType": "uint256",
					"name": "_id",
					"type": "uint256"
				},
				{
					"internalType": "string",
					"name": "_name",
					"type": "string"
				},
				{
					"internalType": "uint256",
					"name": "_age",
					"type": "uint256"
				},
				{
					"internalType": "uint256",
					"name": "_class",
					"type": "uint256"
				},
				{
					"internalType": "uint256",
					"name": "_rollno",
					"type": "uint256"
				},
				{
					"internalType": "bool",
					"name": "_tf",
					"type": "bool"
				}
			],
			"name": "studentdata",
			"outputs": [],
			"stateMutability": "nonpayable",
			"type": "function"
		}
	]
}