{
	"data": {
		"bytecode": {
			"linkReferences": {},
			"object": "6080604052600c6000806101000a81548160ff021916908360ff160217905550600d600060016101000a81548160ff021916908360ff1602179055506003600060026101000a81548160ff021916908360ff16021790555034801561006357600080fd5b50610109806100736000396000f3fe6080604052348015600f57600080fd5b506004361060285760003560e01c80636d4ce63c14602d575b600080fd5b60336049565b60405160409392919060a2565b60405180910390f35b60008060008060009054906101000a900460ff16600060019054906101000a900460ff16600060029054906101000a900460ff16925092509250909192565b600060ff82169050919050565b609c816088565b82525050565b600060608201905060b560008301866095565b60c060208301856095565b60cb60408301846095565b94935050505056fea2646970667358221220a614879951d895f80f484ebd7c7ba7f5017483d5c80e29fcb755fe9cb342553164736f6c63430008120033",
			"opcodes": "PUSH1 0x80 PUSH1 0x40 MSTORE PUSH1 0xC PUSH1 0x0 DUP1 PUSH2 0x100 EXP DUP2 SLOAD DUP2 PUSH1 0xFF MUL NOT AND SWAP1 DUP4 PUSH1 0xFF AND MUL OR SWAP1 SSTORE POP PUSH1 0xD PUSH1 0x0 PUSH1 0x1 PUSH2 0x100 EXP DUP2 SLOAD DUP2 PUSH1 0xFF MUL NOT AND SWAP1 DUP4 PUSH1 0xFF AND MUL OR SWAP1 SSTORE POP PUSH1 0x3 PUSH1 0x0 PUSH1 0x2 PUSH2 0x100 EXP DUP2 SLOAD DUP2 PUSH1 0xFF MUL NOT AND SWAP1 DUP4 PUSH1 0xFF AND MUL OR SWAP1 SSTORE POP CALLVALUE DUP1 ISZERO PUSH2 0x63 JUMPI PUSH1 0x0 DUP1 REVERT JUMPDEST POP PUSH2 0x109 DUP1 PUSH2 0x73 PUSH1 0x0 CODECOPY PUSH1 0x0 RETURN INVALID PUSH1 0x80 PUSH1 0x40 MSTORE CALLVALUE DUP1 ISZERO PUSH1 0xF JUMPI PUSH1 0x0 DUP1 REVERT JUMPDEST POP PUSH1 0x4 CALLDATASIZE LT PUSH1 0x28 JUMPI PUSH1 0x0 CALLDATALOAD PUSH1 0xE0 SHR DUP1 PUSH4 0x6D4CE63C EQ PUSH1 0x2D JUMPI JUMPDEST PUSH1 0x0 DUP1 REVERT JUMPDEST PUSH1 0x33 PUSH1 0x49 JUMP JUMPDEST PUSH1 0x40 MLOAD PUSH1 0x40 SWAP4 SWAP3 SWAP2 SWAP1 PUSH1 0xA2 JUMP JUMPDEST PUSH1 0x40 MLOAD DUP1 SWAP2 SUB SWAP1 RETURN JUMPDEST PUSH1 0x0 DUP1 PUSH1 0x0 DUP1 PUSH1 0x0 SWAP1 SLOAD SWAP1 PUSH2 0x100 EXP SWAP1 DIV PUSH1 0xFF AND PUSH1 0x0 PUSH1 0x1 SWAP1 SLOAD SWAP1 PUSH2 0x100 EXP SWAP1 DIV PUSH1 0xFF AND PUSH1 0x0 PUSH1 0x2 SWAP1 SLOAD SWAP1 PUSH2 0x100 EXP SWAP1 DIV PUSH1 0xFF AND SWAP3 POP SWAP3 POP SWAP3 POP SWAP1 SWAP2 SWAP3 JUMP JUMPDEST PUSH1 0x0 PUSH1 0xFF DUP3 AND SWAP1 POP SWAP2 SWAP1 POP JUMP JUMPDEST PUSH1 0x9C DUP2 PUSH1 0x88 JUMP JUMPDEST DUP3 MSTORE POP POP JUMP JUMPDEST PUSH1 0x0 PUSH1 0x60 DUP3 ADD SWAP1 POP PUSH1 0xB5 PUSH1 0x0 DUP4 ADD DUP7 PUSH1 0x95 JUMP JUMPDEST PUSH1 0xC0 PUSH1 0x20 DUP4 ADD DUP6 PUSH1 0x95 JUMP JUMPDEST PUSH1 0xCB PUSH1 0x40 DUP4 ADD DUP5 PUSH1 0x95 JUMP JUMPDEST SWAP5 SWAP4 POP POP POP POP JUMP INVALID LOG2 PUSH5 0x6970667358 0x22 SLT KECCAK256 0xA6 EQ DUP8 SWAP10 MLOAD 0xD8 SWAP6 0xF8 0xF BASEFEE 0x4E 0xBD PUSH29 0x7BA7F5017483D5C80E29FCB755FE9CB342553164736F6C634300081200 CALLER "
		},
		"gasEstimates": {
			"creation": {
				"codeDepositCost": "53000",
				"executionCost": "73006",
				"totalCost": "126006"
			},
			"external": {
				"get()": "infinite"
			}
		},
		"methodIdentifiers": {
			"get()": "6d4ce63c"
		}
	},
	"abi": [
		{
			"inputs": [],
			"name": "get",
			"outputs": [
				{
					"internalType": "uint8",
					"name": "product",
					"type": "uint8"
				},
				{
					"internalType": "uint8",
					"name": "sum",
					"type": "uint8"
				},
				{
					"internalType": "uint8",
					"name": "",
					"type": "uint8"
				}
			],
			"stateMutability": "view",
			"type": "function"
		}
	]
}